:020000040000FA
:10000000908C0220854F010039480100714F01009A
:10001000714F0100714F0100714F0100714F0100DC
:100020000000000000000000000000003951010045
:10003000714F0100000000008D500100714F010060
:1000400019540100195401001954010019540100F8
:1000500019540100195401001954010019540100E8
:1000600019540100195401001954010019540100D8
:1000700019540100195401001954010019540100C8
:1000800019540100195401001954010019540100B8
:1000900019540100195401001954010019540100A8
:1000A0001954010019540100195401001954010098
:1000B0001954010019540100195401001954010088
:1000C0001954010019540100195401001954010078
:1000D0001954010019540100195401001954010068
:1000E0001954010019540100195401001954010058
:1000F0001954010019540100195401001954010048
:100100001954010019540100195401001954010037
:100110001954010019540100195401001954010027
:100120001954010019540100195401001954010017
:100130001954010019540100195401001954010007
:1001400019540100195401001954010019540100F7
:04015000195401003D
:1001580081F0004102E000BF83F0004330B54FEA70
:1001680041044FEA430594EA050F08BF90EA020FDD
:100178001FBF54EA000C55EA020C7FEA645C7FEA70
:10018800655C00F0E2804FEA5454D4EB5555B8BF93
:100198006D420CDD2C4480EA020281EA030382EA04
:1001A800000083EA010180EA020281EA0303362D96
:1001B80088BF30BD11F0004F4FEA01314FF4801C69
:1001C8004CEA113102D0404261EB410113F0004F7B
:1001D8004FEA03334CEA133302D0524263EB430332
:1001E80094EA050F00F0A780A4F10104D5F1200ED0
:1001F8000DDB02FA0EFC22FA05F2801841F100012B
:1002080003FA0EF2801843FA05F359410EE0A5F1FE
:1002180020050EF1200E012A03FA0EFC28BF4CF02F
:10022800020C43FA05F3C01851EBE37101F00045E5
:1002380007D54FF0000EDCF1000C7EEB00006EEBF2
:100248000101B1F5801F1BD3B1F5001F0CD349087C
:100258005FEA30004FEA3C0C04F101044FEA4452D3
:1002680012F5800F80F09A80BCF1004F08BF5FEA5A
:10027800500C50F1000041EB045141EA050130BD3A
:100288005FEA4C0C404141EB0101013C28BFB1F54C
:10029800801FE9D291F0000F04BF01460020B1FA97
:1002A80081F308BF2033A3F10B03B3F120020CDA6A
:1002B8000C3208DD02F1140CC2F10C0201FA0CF048
:1002C80021FA02F10CE002F11402D8BFC2F1200CAD
:1002D80001FA02F120FA0CFCDCBF41EA0C01904063
:1002E800E41AA2BF01EB0451294330BD6FEA0404AC
:1002F8001F3C1CDA0C340EDC04F11404C4F1200297
:1003080020FA04F001FA02F340EA030021FA04F3A8
:1003180045EA030130BDC4F10C04C4F1200220FAFF
:1003280002F001FA04F340EA0300294630BD21FA3D
:1003380004F0294630BD94F0000F83F4801306BF03
:1003480081F480110134013D4EE77FEA645C18BFF7
:100358007FEA655C29D094EA050F08BF90EA020F8E
:1003680005D054EA000C04BF1946104630BD91EA86
:10037800030F1EBF0021002030BD5FEA545C05D189
:100388004000494128BF41F0004130BD14F58004C8
:100398003CBF01F5801130BD01F0004545F0FE413C
:1003A80041F470014FF0000030BD7FEA645C1ABF71
:1003B800194610467FEA655C1CBF0B46024650EAA8
:1003C800013406BF52EA033591EA030F41F40021D4
:1003D80030BD00BF90F0000F04BF0021704730B55A
:1003E8004FF4806404F132044FF000054FF000012F
:1003F80050E700BF90F0000F04BF0021704730B5F0
:100408004FF4806404F1320410F0004548BF4042C4
:100418004FF000013EE700BF42004FEAE2014FEA19
:1004280031014FEA02701FBF12F07F4393F07F4FF4
:1004380081F06051704732F07F4208BF704793F0F7
:100448007F4F04BF41F40021704730B54FF460740A
:1004580001F0004521F000411CE700BF50EA01020D
:1004680008BF704730B54FF000050AE050EA0102B6
:1004780008BF704730B511F0004502D5404261EB26
:1004880041014FF4806404F132045FEA915C3FF467
:10049800D8AE4FF003025FEADC0C18BF03325FEA04
:1004A800DC0C18BF033202EBDC02C2F1200300FAB5
:1004B80003FC20FA02F001FA03FE40EA0E0021FADA
:1004C80002F11444BDE600BF70B54FF0FF0C4CF4C8
:1004D800E06C1CEA11541DBF1CEA135594EA0C0F7A
:1004E80095EA0C0F00F0DEF82C4481EA030621EAB5
:1004F8004C5123EA4C5350EA013518BF52EA0335F0
:1005080041F4801143F4801338D0A0FB02CE4FF0A1
:100518000005E1FB02E506F00042E0FB03E54FF0D1
:100528000006E1FB03569CF0000F18BF4EF0010EC9
:10053800A4F1FF04B6F5007F64F5407404D25FEAC5
:100548004E0E6D4146EB060642EAC62141EA555178
:100558004FEAC52040EA5E504FEACE2EB4F1FD0CBA
:1005680088BFBCF5E06F1ED8BEF1004F08BF5FEA38
:10057800500E50F1000041EB045170BD06F00046EA
:1005880046EA010140EA020081EA0301B4EB5C0497
:10059800C2BFD4EB0C0541EA045170BD41F480118F
:1005A8004FF0000E013C00F3AB8014F1360FDEBFB4
:1005B800002001F0004170BDC4F10004203C35DA90
:1005C8000C341BDC04F11404C4F1200500FA05F313
:1005D80020FA04F001FA05F240EA020001F00042B4
:1005E80021F0004110EBD37021FA04F642EB06012A
:1005F8005EEA430E08BF20EAD37070BDC4F10C0454
:10060800C4F1200500FA04F320FA05F001FA04F217
:1006180040EA020001F0004110EBD37041F1000103
:100628005EEA430E08BF20EAD37070BDC4F120050E
:1006380000FA05F24EEA020E20FA04F301FA05F276
:1006480043EA020321FA04F001F0004121FA04F21E
:1006580020EA020000EBD3705EEA430E08BF20EAEE
:10066800D37070BD94F0000F0FD101F00046400028
:1006780041EB010111F4801F08BF013CF7D041EAAA
:10068800060195F0000F18BF704703F000465200AE
:1006980043EB030313F4801F08BF013DF7D043EA7F
:1006A8000603704794EA0C0F0CEA135518BF95EA35
:1006B8000C0F0CD050EA410618BF52EA4306D1D1BC
:1006C80081EA030101F000414FF0000070BD50EADB
:1006D800410606BF1046194652EA430619D094EA65
:1006E8000C0F02D150EA013613D195EA0C0F05D14F
:1006F80052EA03361CBF104619460AD181EA0301A3
:1007080001F0004141F0FE4141F470014FF000005A
:1007180070BD41F0FE4141F4780170BD70B54FF0F5
:10072800FF0C4CF4E06C1CEA11541DBF1CEA135575
:1007380094EA0C0F95EA0C0F00F0A7F8A4EB050457
:1007480081EA030E52EA03354FEA013100F088804E
:100758004FEA03334FF0805545EA131343EA126317
:100768004FEA022245EA111545EA10654FEA0026CC
:100778000EF000419D4208BF964244F1FD0404F585
:10078800407402D25B084FEA3202B61A65EB0305E1
:100798005B084FEA32024FF480104FF4002CB6EB9E
:1007A800020E75EB030E22BFB61A754640EA0C001E
:1007B8005B084FEA3202B6EB020E75EB030E22BF5E
:1007C800B61A754640EA5C005B084FEA3202B6EB9F
:1007D800020E75EB030E22BFB61A754640EA9C005E
:1007E8005B084FEA3202B6EB020E75EB030E22BF2E
:1007F800B61A754640EADC0055EA060E18D04FEAEC
:10080800051545EA16754FEA06164FEAC30343EA8B
:1008180052734FEAC2025FEA1C1CC0D111F4801F58
:100828000BD141EA00014FF000004FF0004CB6E751
:1008380011F4801F04BF01430020B4F1FD0C88BFF0
:10084800BCF5E06F3FF6AFAEB5EB030C04BFB6EBFB
:10085800020C5FEA500C50F1000041EB045170BDEE
:100868000EF0004E4EEA113114EB5C04C2BFD4EB1B
:100878000C0541EA045170BD41F480114FF0000E9F
:10088800013C90E645EA060E8DE60CEA135594EA1B
:100898000C0F08BF95EA0C0F3FF43BAF94EA0C0F1E
:1008A8000AD150EA01347FF434AF95EA0C0F7FF493
:1008B80025AF104619462CE795EA0C0F06D152EAE7
:1008C80003353FF4FDAE1046194622E750EA4106CB
:1008D80018BF52EA43067FF4C5AE50EA41047FF4DC
:1008E8000DAF52EA43057FF4EBAE12E74FF0FF3C41
:1008F80006E000BF4FF0010C02E000BF4FF0010C12
:100908004DF804CD4FEA410C7FEA6C5C4FEA430C8A
:1009180018BF7FEA6C5C1BD001B050EA410C0CBFD9
:1009280052EA430C91EA030F02BF90EA020F00203B
:10093800704710F1000F91EA030F58BF994208BFA2
:1009480090422CBFD8176FEAE37040F0010070475F
:100958004FEA410C7FEA6C5C02D150EA013C07D1B6
:100968004FEA430C7FEA6C5CD6D152EA033CD3D001
:100978005DF8040B704700BF8446104662468C46FB
:100988001946634600E000BF01B5FFF7B7FF00282E
:1009980048BF10F1000F01BD4DF808EDFFF7F4FF57
:1009A8000CBF012000205DF808FB00BF4DF808EDE2
:1009B800FFF7EAFF34BF012000205DF808FB00BF05
:1009C8004DF808EDFFF7E0FF94BF012000205DF827
:1009D80008FB00BF4DF808EDFFF7CEFF94BF0120DC
:1009E80000205DF808FB00BF4DF808EDFFF7C4FFD5
:1009F80034BF012000205DF808FB00BF4FEA410C1E
:100A08007FEA6C5C02D150EA013C0AD14FEA430C00
:100A18007FEA6C5C02D152EA033C02D14FF000003D
:100A280070474FF0010070474FEA410212F500127B
:100A380015D211D56FF47873B3EB625212D94FEA1D
:100A4800C12343F0004343EA505311F0004F23FA07
:100A580002F018BF404270474FF00000704750EA5C
:100A6800013005D111F0004008BF6FF00040704719
:100A78004FF00000704700BF7BB972B90029BEBFB4
:100A880000204FF0004106E008BF00281CBF6FF0AF
:100A980000414FF0FF3000F057B8ADF1080C6DE998
:100AA80004CE002909DB002B1ADB00F061F8DDF821
:100AB80004E0DDE9022304B07047404261EB4101E4
:100AC800002B1BDB00F054F8DDF804E0DDE902231D
:100AD80004B0404261EB4101524263EB430370476B
:100AE800524263EB430300F043F8DDF804E0DDE92C
:100AF800022304B0404261EB41017047524263EB6C
:100B0800430300F035F8DDF804E0DDE9022304B022
:100B1800524263EB4303704753B94AB9002908BFEF
:100B280000281CBF4FF0FF314FF0FF3000F00CB829
:100B3800ADF1080C6DE904CE00F01AF8DDF804E018
:100B4800DDE9022304B07047704700BF10F8012B9D
:100B580011F8013B012A28BF9A42F7D0D01A7047F2
:100B6800034613F8012B002AFBD1181A01387047E5
:100B78002DE9F04786468C460846089E1546744679
:100B88001946002B40F0C1808542B2FA82F245D95D
:100B98004AB1C2F1200300FA02FC954094402EFAB3
:100BA80003F343EA0C0C4FEA154EA8B2230CBCFB26
:100BB800FEF80EFB18CC08FB00F943EA0C439945F4
:100BC80028D9EB1808F1FF3704D2994502D9A8F1C2
:100BD80002072B44A3EB0903A4B2B3FBFEFC0EFBF4
:100BE8001C330CFB00F044EA0344A04214D92C192E
:100BF8000CF1FF3304D2A04202D9ACF102032C4419
:100C0800241A43EA07401EB1D440002334607360BD
:100C1800BDE8F0874746DDE76346F1E792BB431B33
:100C280001214FEA154EAFB2200CB3FBFEFC0EFBC0
:100C38001C330CFB07F840EA0343984561D9EB18CD
:100C48000CF1FF3004D2984502D9ACF102002B44D4
:100C5800A3EB0803A4B2B3FBFEFC0EFB1C330CFB96
:100C680007F744EA0344A7424DD92C190CF1FF3386
:100C780004D2A74202D9ACF102032C44E41B43EA94
:100C88000040C0E7C2F120039540944020FA03F1E8
:100C98002EFA03F34FEA154E9040AFB20343B1FB6F
:100CA800FEFC0EFB1C10190C0CFB07F841EA004176
:100CB800884522D969180CF1FF3004D2884502D939
:100CC800ACF102002944A1EB08019BB2B1FBFEFC88
:100CD8000EFB1C110CFB07F743EA01439F420ED998
:100CE800EB180CF1FF3104D29F4202D9ACF102019A
:100CF8002B44DB1B41EA004193E76046E3E761468A
:100D0800F7E76046A4E76346B8E7834206D916B911
:100D1800002108467CE7C6E900E0F9E7B3FA83F763
:100D28008FB9834201D3724508D8BEEB020460EB49
:100D3800030301209C461EB9002169E73846FAE7FB
:100D4800C6E9004CF8E7C7F1200CBB400EFA07F5DE
:100D580022FA0CF42EFA0CF1BA401C4320FA0CF3D8
:100D6800B8404FEA144901431FFA84FEB3FBF9F86F
:100D780009FB18300B0C08FB0EFA43EA00439A45AE
:100D880040D9E31808F1FF3004D29A4502D9A8F1F6
:100D980002002344A3EB0A0389B2B3FBF9F809FB69
:100DA800183308FB0EFE41EA03418E452CD9611821
:100DB80008F1FF3304D28E4502D9A8F10203214479
:100DC80043EA0040A1EB0E01A0FB02984145CE4644
:100DD800434602D306D14D4504D20138B9EB020E81
:100DE80068EB0403002EA7D0B5EB0E0261EB0301FC
:100DF80001FA0CFC22FA07F3F9404CEA0303C6E9AE
:100E0800003199E74046C5E74346D9E700000000AE
:100E1800012038B51249134BD1F80425013AC1F81D
:100E280044251860D1F844359A42FBD007210E4A70
:100E38000E480F4CD4F844451568A3FB000201FB8B
:100E4800032105A3D3E90023FFF766FE094B03FB43
:100E58000544204438BD00BF00CA9A3B000000008A
:100E68000040015000B001506C6200208D49FD1A0D
:100E7800000001500080841E10B584B090B100229B
:100E880002219FED157B029282688DF80C10144C9C
:100E98008DED007B6946926820609047114C0028D0
:100EA80020600BDB00221049104801F0A5FA2DF054
:100EB80037FA0FF095FA002004B010BD0C4A1368F9
:100EC8005B07F9D00121034610460A4A0EF0EEFDF1
:100ED8002068F1E7AFF30080000000007800000010
:100EE80058B4012054B4012085040100683A002058
:100EF8001C1E0020C49F03002DE9F04705460F463D
:100F0800164688B02DF048FA44014B01241A43EAEA
:100F1800D06363EB0103A2009B00121843EA9473A9
:100F280041EB0303DB0043EA5273C2F31038012F8D
:100F380048EA43484FEAD33443D0766833782D2BB8
:100F480038D031462848FFF701FE002840D124A3B5
:100F5800D3E9002340462146FFF78EFD06460C469E
:100F680010461946214A0023FFF786FD80460F46A2
:100F7800104619464EF660220023FFF77DFD824693
:100F88008946104619464FF47A720023FFF774FD1C
:100F9800CDE902A9CDE90401CDE906232846324668
:100FA8002346CDE90087124911F088FB002008B0DC
:100FB800BDE8F0877378702BC3D1B378002BC6D007
:100FC800BFE74246234628460A4911F077FBEDE77A
:100FD80028463246084911F0B3FB6FF00400E6E7F3
:100FE800005C2605000000001CA1030080EE36000E
:100FF80040A1030008A1030028A10300000000008D
:101008002DE9704F2DED028B05468AB02120002175
:101018002CF046FD0C244FF0000A4FF0000B4FF067
:1010280010084FF000099FED3E8B013C43D0C826C5
:10103800CDE900ABCDE906892868089683685B6826
:10104800002B48D0002269469847024670BB792099
:1010580000218DED008BCDE906010896286883688C
:101068005B68002BE1D0694698470028DDD195F8E8
:101078004C209AB3039BD9B2AA29D6D103F4706342
:10108800B3F5807F49D1B5F86E3043F00803A5F871
:101098006E302ABB284600F0BBF9024600283CD136
:1010A80010460AB0BDEC028BBDE8708F0128BCD099
:1010B80010F1740FF4D1002200234FF010084FF004
:1010C8000009CDE90023C823CDE9068928680893DB
:1010D80083685B68ABB96FF05702E1E7029BCAE728
:1010E800C8234FF03B084FF0010910220893002352
:1010F800CDE90089CDE90623286883685B68002B61
:10110800E9D000226946984702460028C2D0104616
:101118000AB0BDEC028BBDE8708F6FF08502BFE7A7
:1011280008000000AA01000070B50124C82390B08F
:1011380000260294044615469FED117B00220E936B
:1011480005931023CDE9061604F190018DED0C7B73
:10115800CDE900230068049183685B6813B16A468F
:1011680006A9984704F18C0005F1100150F8043FD6
:101178001BBA41F8043DA942F8D1002010B070BD57
:10118800100000000000000000230D2210B58AB0F6
:10119800CDE9002390F84C3004461BB9B0F8623012
:1011A8001B0401939FED1A7BC8238DED067B2068F5
:1011B800089383685B68F3B1002269469847D0B901
:1011C80094F84C20029B62B113F4407F19D113F4B8
:1011D800604F19D113F4E05F18BF6FF004000AB034
:1011E80010BDDA050AD5C3F34323042B18BF6FF0EB
:1011F8000F000AB010BD01200AB010BD6FF00F003B
:10120800F7E76FF00C00F4E76FF01500F1E700BFA7
:10121800310000000000000037239FED177BC82233
:1012280010B509048AB004468DED067BCDE900317E
:101238000068089283685B688BB10022694698470A
:1012480068B9069B012B0DD094F84C302BB9029B42
:1012580013F0200F08BF6FF085000AB010BD012001
:101268000AB010BD029A064B1340002BECD06FF069
:101278000400F2E7AFF30080110000000000000056
:101288000880F9FD000000002DE9F04117461D46D1
:101298009A18436EA0B09A4200F2838090F86D309D
:1012A8000446012B7AD0884600F114064FF4A02298
:1012B800304600232BF090F8002866D1012D0CBF92
:1012C80018231923B4F86E200C93920748BF3A46A6
:1012D800B4F86830206858BF03FB07F2CDE90673FD
:1012E8000D92C82342F2107214930B920323112219
:1012F8000895CDE91223CDF8288083685B6883B10F
:1013080006AA0CA9984760B9204616F0F7FB0546CF
:10131800002849D1304600F02BFC284620B0BDE813
:10132800F081204616F0EAFB05460028F2D1204657
:10133800B4F86210FFF770FF05460028EAD1C82309
:10134800162000211E9342F21073CDE916019FED7D
:101358001A7B002004210122059304F19003CDE9B2
:1013680000018DED1C7B20680292049383685B6802
:10137800EBB16A4616A9984705460028CAD11C9BB6
:10138800012B05D06FF00405C4E76FF00F05C4E723
:10139800189B0B4D1D40002DF4D0BBE76FF0850561
:1013A800BBE76FF01505B8E76FF07305B2E76FF0AC
:1013B8005705AFE7AFF30080110000000000000000
:1013C8000880F9FD000000003A22C8239FED0E7B3B
:1013D80010B58AB004468DED067BCDE90021006882
:1013E800089383685B685BB100226946984728B90F
:1013F800039B002B08BF6FF0850023650AB010BD62
:101408006FF05700FAE700BF40000000000000003E
:101418002DE9F04390F84C3091B0002B00F09E81FC
:1014280000210546FFF7D0FF0446002857D1B5F83C
:101438006E6085F86D00C6F3C006B60764202AF012
:10144800BFF82922C823CDE906260E9314220023CB
:10145800CDE90C230CE0DB0740F173814FF4A47055
:1014680000212CF01DFB0134B4F57A7F00F09A813D
:1014780000212846FFF7D0FE01280246F3D00028B5
:1014880033D1286883685B686BB306A9984702461E
:1014980058BB7EB395F84C20089B002ADBD1002B63
:1014A800DCDA5F002B6505D5B5F86E2042F0020244
:1014B800A5F86E20DE0105D5B5F86E2042F02002B1
:1014C800A5F86E209C0305D5B5F86E3043F04003AF
:1014D800A5F86E30284616F089FB0446C8B12046A8
:1014E80011B0BDE8F0836FF057021446204611B0E2
:1014F800BDE8F08395F84C30002B40F022812B6D2D
:101508005F00D7D5B5F86E2042F00202A5F86E202C
:10151800D0E7284616F026FB04460028DFD1AB6A40
:10152800A74A2E46934228BF13466B6056F8040B11
:1015380083689B68002B00F0328131469847044647
:101548000028CCD10146242206A832F062FA2846A7
:10155800B5F86210CDE90044CDE90244CDE9044470
:10156800FFF75AFE04460028B9D1C8230E93082372
:1015780001930123029342F210733322059300234F
:10158800CDE906231122002305F19007CDE90C23AC
:101598002868049783685B68002B00F000816A461E
:1015A80006A998470446002899D1D5F890100ABA98
:1015B800080201F00F03D2B200F1D380012B00F032
:1015C800DB80022B00F0C680002B00F0D380B5F83A
:1015D8006E30480544BF43F00403A5F86E30D107C8
:1015E80044BF43F48073A5F86E30920744BF43F0BC
:1015F8008003A5F86E3013F002021BD111239FED72
:101608006E7B0C93C8238DED067BCDE90822CDE9CE
:101618000A2228680D920E9383685B68002B00F0FD
:10162800BE8006A99847002840F0A2804FF40073B6
:10163800A5F8683095F8363098067FF550AF95F8DC
:101648006A30012B7FF64BAFD5F85480B8F1000F04
:101658003FF445AF95F85C30062103F00203002BF8
:101668004FF00003CDE909330893009303930B93DC
:101678000D934FF011030C934FF0C8030E934FF0E6
:10168800400301934FF00103029342F2107314BF19
:101698000122002205934B4B85F86B2042EA030296
:1016A8000497D5F828900CBF0127022728680691CF
:1016B800079283685B68002B71D06A4606A9984731
:1016C8000346002869D195F8A03095F86B2003F0FF
:1016D8000F039A4252D0B5F86E305B077FF5FFAE24
:1016E8002422002106A832F094F92846B5F86210A1
:1016F800FFF792FD044600287FF4F1AEC8230122CB
:101708000E930023CDE90C23062202232868CDE995
:10171800062383685B68002B41D0224606A99847B8
:10172800044600287FF4DBAE0C9B012B3DD004233C
:101738002868AB7283689B688BB331469847044628
:10174800CDE631462846FFF73FFE044600283FF421
:10175800D6AEC4E6042385F86A3038E76FF085040E
:10176800BDE6012B08D0022B7FF42EAF0823F2E749
:101778000446B4E60123EEE70223ECE7C8454346F6
:1017880028BF4B462868EF726B6083689B6833B14B
:1017980031469847034600289DD01C469FE66FF0C7
:1017A80057049CE66FF0730499E6089B064C1C40AE
:1017B800002CBCD093E600BF10000000000200001F
:1017C80040787D01F0FFFF800880F9FD00000000EF
:1017D8002DE9F04F504B83B0D3F80423920700F162
:1017E800858000244FF48036DFF82CB106FA04F225
:1017F800DBF80433494D1A4209D11035002C6DD15C
:101808000124DBF8043306FA04F21A42F5D0012366
:10181800A340DB434248D0E8EF1F01EA0307C0E8D2
:10182800EC7FBCF1000FF6D121FA04F3DB07DFF8F7
:1018380000C14FEA840E03D45CF82430002BDCD0BE
:1018480000234EF80C305EF80C30364B1B681F0A2C
:101858001B06BFF35F8F3049D1F80415CB1847F149
:101868000007B1F5801F0AD22F49D1E90001834250
:1018780077EB010103D213F1807347F10007EFF30F
:101888001180202181F31288BFF36F8F274901EB64
:101898000411D1E9029A4B4577EB0A0721D355E9A0
:1018A800017800239FED1A7B45F8043C81ED027B0B
:1018B8001949C1F848234EF80C305EF80C3080F313
:1018C8001188BFF36F8F002F97D04A4653462046A2
:1018D800CDF80080B8471035002C91D003B0BDE892
:1018E800F08F80F31188BFF36F8F86E7D3F8042158
:1018F800002A3FF476AF00210A4AC3F80411D3F84E
:1019080004311368013313606BE700BFAFF3008045
:10191800FFFFFFFFFFFFFFFF00500150EC480020D2
:1019280028DB012034DB012010490020E848002092
:1019380040510150000000002DE9F04F85B003A987
:1019480004461546984621F095FA064640BB94F899
:1019580031602EBBDDF80CB09BF80030042B00F092
:10196800C5804FF0FF33B8F1000F18BF1D464FF088
:10197800000318BF9846D4E90412D4E90E03A9421B
:1019880072EB080705D294F83070BF070CD40D46E7
:1019980090469FED757B55EA080284ED0E7B07D1D2
:1019A800304605B0BDE8F08F9FED6F7B84ED0E7B70
:1019B800BBF80A7050EA03024FEA47273ED0421E9E
:1019C80043F1FF39681E68F10001002300923A468E
:1019D800FFF7A2F8844600238A463A46494600980B
:1019E800CDF804C0FFF798F8019B83427AEB010118
:1019F80024D34B4600997A420A40AD1A216CA2635F
:101A0800C4F83C9068EB0908F1B9D4E90450954250
:101A1800984107D2C4E9042394F8303043F04003D6
:101A280084F83030C2F30802002AB9D0636C8B42C4
:101A3800B6D03046616405B0BDE8F08FA1680029D2
:101A480042D00022134621640020AF4270EB080008
:101A580038BF019623D380E066694CF0400C0096AD
:101A6800266920469642009E9E413CBFC4E9042355
:101A780084F830C021F0ACFE0146002867D04B1C2A
:101A880043D001292DD9DBF81C308B4229D9D4E960
:101A98000E2300204F4570EB0A0021643AD2B5EBC3
:101AA800070994F830C068F1000ABA1843F1000336
:101AB8001CF0020F4D46D046C4E90E23CCD1204677
:101AC80021F012FD0146DAE7204621F081FE0128C7
:101AD800014606D0421C18D0D4E90E23A060206429
:101AE80092E702231E4684F8313059E74FF0FF325F
:101AF8002046216C21F0B4FC28B99BF80030042B57
:101B08003FF439AF2DE706464AE701231E4684F81D
:101B1800313045E719EB0202019E43EB0A03C9F392
:101B28000800C4E90E23B0B1DBF81C000239023802
:101B38008142D6D2BBF80A70DBF8300001FB0701FE
:101B48000029CED06D0A45EAC85529445DE7019EB3
:101B5800D4E90E2359E7014657E7521943EB080326
:101B6800C5F30800DDE700BF00000000000000002A
:101B7800F8B5EFF30583002B6CD183680446002B7E
:101B88005BD0494A9268934254D1C368002B57D01E
:101B9800012B03D0013BC3600020F8BDEFF3118691
:101BA800202383F31288BFF36F8F8068216990F92F
:101BB8000E30994218D1EFF31183202282F3128854
:101BC800BFF36F8F83F31188BFF36F8F002B4ED055
:101BD8002568A54200D055B90023C4E9023386F32D
:101BE8001188BFF36F8FD7E72BF056FCE3E7AB689C
:101BF800002B49D0D5E900329FED297B00271360DF
:101C08005A606B7B85ED007B23F002036B7305F153
:101C18001800AF602CF0A2FAA56095F90E3028469E
:101C28002361C5F8C0702BF0E3FB31461F482BF049
:101C3800A1FCB1E74FF0FF30F8BD6FF01500F8BD1B
:101C48001B491C48EF231C4A0BF030FCEF211A48B3
:101C58000BF022FC1949D723174A16480BF026FC2B
:101C680017480BF023FCD72113480BF015FC154936
:101C7800B023154A0F480BF019FC14480BF016FC5A
:101C8800B02111480BF008FC11490A4899230E4A63
:101C98000BF00CFC99210C480BF0FEFBAFF3008015
:101CA8000000000000000000284B0020D8DD0120C3
:101CB8008C060400B86303002C06040050060400D8
:101CC800640604004005040014050400B8BA0300C3
:101CD80058050400000000002DE9F04182B00446D8
:101CE80015469DF820C000F10808EFF3118720225F
:101CF80082F31288BFF36F8FBCF1000F2FD04668B4
:101D0800EFF31182202181F31288BFF36F8F82F3E2
:101D18001188BFF36F8F002A6ED0A268904501D05A
:101D2800002A3DD143BB2B60002E31D03268032AF4
:101D380017D922F003021A432A60336803F0030319
:101D48001D433560042104F110002CF0E7FF3946EB
:101D580040462BF00FFC002002B0BDE8F0810E4693
:101D6800CEE72B606268002A3CD0136803F00303B7
:101D78002B4313606560E5E70821002000F08CFB29
:101D8800002832D00123456003600546002ECDD1DE
:101D980022681A432A6063682560002BD2D1E9E7DC
:101DA8009368002B35D09FED207B00245168136881
:101DB80002F118000B605960537B82ED007B23F021
:101DC80002035373946001922CF0C8F9019A1046EB
:101DD800C2F8C04055612BF00BFB394640462BF04A
:101DE800C9FBB8E725606560ACE787F31188BFF3E6
:101DF8006F8F6FF00B00AFE70D49B0230D4A0E4807
:101E08000BF054FB0D480BF051FBB02109480BF0C7
:101E180043FB0B4908489923064A0BF047FB9921D5
:101E280004480BF039FB00BF000000000000000070
:101E38004005040014050400B8630300B8BA0300A1
:101E4800580504000000000070B5EFF3118520214B
:101E580081F31288BFF36F8FEFF3118281F3128839
:101E6800BFF36F8F82F31188BFF36F8F7AB3046863
:101E78000346A04200D084B9D3E90220904218BF9B
:101E88000132022103F110009A602CF047FF294625
:101E9800BDE870401C482BF06DBBA36823B3D4E9A0
:101EA800003200269FED167B13605A60637B84ED39
:101EB800007B23F00203637304F11800A6602CF082
:101EC8004DF92046C4F8C0602BF092FADFE70F49BD
:101ED800B0230F4A0F480BF0E9FA0F480BF0E6FA67
:101EE800B0210B480BF0D8FA0C490A489923084A44
:101EF8000BF0DCFA992106480BF0CEFAAFF300801C
:101F08000000000000000000D8DD012040050400AA
:101F180014050400B8630300B8BA030058050400A8
:101F280070B588B00C9D00283ED0002954D00446D6
:101F3800D0F8200110F0010042D1C4F80801C4F81B
:101F48000C0104F58870C4E9440004F58C70C4E9F8
:101F580046003DB32E7940F20110002E08BF012043
:101F68009FED237BC4F82001002603938DED067BAB
:101F78002046CDE90166204B009404962AF0E6FF3E
:101F880055B1296811B120462AF070FF6B791BB151
:101F9800237B43F001032373204608B0BDE870405B
:101FA8002BF0B0BD0120DBE71449154840F2DB23D4
:101FB800144A0BF07BFA40F2DB2112480BF06CFA62
:101FC80011490F4840F2DD230E4A0BF06FFA40F238
:101FD800DD210C480BF060FA0C4909484FF43773BF
:101FE800084A0BF063FA4FF4377106480BF054FABD
:101FF800FFFFFFFFFFFFFFFFB9C70200080804004B
:10200800B86303002007040018080400100804003F
:1020180070B584B000283DD004460D462AF01CFF58
:10202800002843D1EFF31186202383F31288BFF3EE
:102038006F8FD4F8203113F0060F18D043F0040244
:10204800C4F82021E5B9002204F58870114600F093
:1020580093F99FED1D7B002331468DED007B1C48D5
:1020680004F58C7202932BF077FE04B070BD3DB975
:10207800D4F8080148B143F00403C4F82031E2E77A
:1020880043F00C03C4F82031DDE786F31188BFF371
:102098006F8FEAE70F4910484FF441730F4A0BF06E
:1020A80005FA4FF441710D480BF0F6F90C490A484E
:1020B80040F20533094A0BF0F9F940F205310748B7
:1020C8000BF0EAF9AFF30080FFFFFFFFFFFFFFFF10
:1020D800D8DD012008080400B863030020070400C5
:1020E800C0AE0300000000002DE9F04F85B0119D3F
:1020F8001E460F2D04460B46DDF838A0DDF83C904F
:10210800139F6DD005F110011E296CD804219FED95
:10211800407BA5730025073222F00708129A6173E5
:1021280004F1680184ED067BC4E91A112273AA211F
:1021380042461846A560E57303EB080B31F069FCCD
:102148004FF0F031109ACDF800A0CDE90192334656
:1021580001605A460146C4E92B08C4F8B450204629
:1021680013F08EF8109BC4E91D6AC4F87C9065666C
:10217800C4F88030EFF31183202282F31288BFF372
:102188006F8F254E326B3463C4F8842083F3118833
:10219800BFF36F8FCFB11F22394604F1880031F0A9
:1021A8009EFDB26884F8A750A2B1D2F8B800002307
:1021B8000121C4F8B8005846C4E90E33C4E90C3309
:1021C80084F8381005B0BDE8F08FB26884F88870DC
:1021D800002AEAD15846C4F8B82005B0BDE8F08F07
:1021E8000E498E4292D04FF401730D4A0D490E48A4
:1021F8000BF05CF929460D486FF00F030E220BF027
:1022080055F94FF4017106480BF046F9AFF3008019
:102218000000000000000000284B0020F9BE02006A
:10222800680804008C080400B86303000C09040063
:1022380010B5EFF31184202383F31288BFF36F8F57
:1022480010F80B3C13F0280217D150F8101C69B194
:1022580050E906319FED0C7B0B60596000ED067B61
:1022680010F80B3C40F8102C03F0FD0323F0040396
:1022780000F80B3C18382AF0B7FF84F31188BFF335
:102288006F8F10BDAFF30080000000000000000059
:10229800EFF31182202383F31288BFF36F8F8368D3
:1022A8006BB1D0E900319FED087B0B6059600021CC
:1022B80080ED007B437B816023F00203437382F34C
:1022C8001188BFF36F8F7047000000000000000006
:1022D80008B50346EFF31181202282F31288BFF379
:1022E8006F8F0068834215D078B18368C3B1D0E995
:1022F80000329FED0D7B13605A60002280ED007B59
:10230800437B826023F00203437381F31188BFF398
:102318006F8F08BD002081F31188BFF36F8F08BD50
:102328002AF050FFAFF3008000000000000000001A
:10233800EFF31182202383F31288BFF36F8F836832
:102348006BB1D0E900319FED0A7B0B605960002129
:1023580080ED007B437B816023F00203437382F3AB
:102368001188BFF36F8F18302BF0F8BEAFF30080E1
:10237800000000000000000038B5EFF311852023AD
:1023880083F31288BFF36F8F0468A04226D0FCB194
:10239800A368C4F8C010626133B3D4E900329FED7A
:1023A800147B13605A600022637B84ED007B23F06A
:1023B80002036373A26004F118002BF0CFFE2046DD
:1023C8002AF012FF012085F31188BFF36F8F38BD03
:1023D800204685F31188BFF36F8F38BD002085F341
:1023E8001188BFF36F8F38BD2AF0ECFEAFF3008081
:1023F800000000000000000000239FED077BC0E9FB
:10240800081200F1180280ED007BC0E90622036380
:1024180043637047AFF30080000000000000000035
:1024280030B5021D83B011D29FED137B144D0421EA
:1024380028468DED007B29F08BFB044630B144F82B
:10244800045BA30706D1204603B030BD0024204614
:1024580003B030BD25230B4A0B490C480BF026F876
:1024680021460B4804220BF021F8252105480BF0E2
:1024780013F800BFAFF30080000000000000000068
:10248800D81E0020781004000C110400B863030063
:10249800401104000000000070B582B006460C46EA
:1024A8002AF0DAFCC8B91A4B9B68D3F8B8508DB13A
:1024B800221D14D29FED147B28468DED007B46F03B
:1024C800040129F045FB50B10560051D16B1731EC6
:1024D8001D4208D1284602B070BD0E4DE8E7002520
:1024E800284602B070BD25230B4A0C490C480AF057
:1024F800DDFF29460B4832460AF0D8FF2521064859
:102508000AF0CAFFAFF300800000000000000000DE
:10251800284B0020D81E0020781004000C1104005D
:10252800B8630300401104002DE9F04F476A97B0E3
:102538008346209E08910C92129355EC104B8DED1A
:10254800000B7FB910202FF0FBFD0246CBF82400CA
:1025580020B9A74BEA21A74830F062FEC0E901770D
:102568000760C760DBF82430196859B15A6801233D
:10257800584693404A608B6030F072FBDBF8243099
:1025880000221A602B1EB7BF23F00043002301224C
:102598000193A8BF3360019F974BB8BF3260BB431C
:1025A80019D142F20F73129A1360C7F3130323432E
:1025B80000F0DB85219B53B9904B21E0904B0393AE
:1025C8000833219A1360039817B0BDE8F08F8B4B3E
:1025D80003930333F5E79DED007B0022002351ECC4
:1025E800170B8DED0A7BFEF7D7F9804650B1012312
:1025F800129A1360219B13B1824B219A1360824B6C
:102608000393E0E7C7F30A5614AA15A958469DEDA7
:102618000A0B30F0ADFD0290002E76D00B9BA6F28F
:10262800FF36CDF84C80C3F3130343F07F53DDE945
:102638000A0143F4401319460022744BFDF78CFD40
:1026480065A3D3E90023FDF73FFF65A3D3E9002382
:10265800FDF784FD04460D463046FDF7CBFE62A328
:10266800D3E90023FDF730FF02460B4620462946F2
:10267800FDF774FD04460D46FEF7D6F9002207461D
:10268800002320462946FEF791F940B13846FDF768
:10269800B1FE22462B46FEF77FF900B9013F162FFF
:1026A80052D85B4B03EBC703DDE90A01D3E90023EA
:1026B800FEF77CF9002849D0013F00231193149BB1
:1026C8009B1B5A1E4CBFC3F101030023079245BF51
:1026D8000693002306930793002F39DB079B109777
:1026E8003B44079300230993089B092B66D8052BC5
:1026F800C5BF043B002401240893089B023B032B1D
:1027080067D8DFE803F02D3A3859DDE914631E4431
:1027180006F23243202BC9BFC3F14003C3F12003A3
:102728009F4006F21243D8BF04FA03F006F1FF36C1
:10273800C4BF24FA03F347EA0300FDF74BFE012266
:10274800A1F1F873139276E70123B7E71190B6E782
:10275800069BDB1B06937B42099300231093C3E778
:1027680000230D930C9B002B56DC012399461A4637
:1027780004930C920CE00123F3E700230D930C9BC8
:10278800FB1803F1010904934B46012BB8BF012341
:10279800DBF824000021042202F114059D423FD9F0
:1027A8004160584630F01CFA039000283BD1194B81
:1027B80002464FF4D571CEE60123DFE7012400235A
:1027C8000D9408934FF0FF33002299460493122387
:1027D800CFE701230D93F5E761436F63A787D23FE6
:1027E800B3C8608B288AC63FFB799F501344D33FF8
:1027F800A6140400BD1404000000F07FA214040015
:102808009914040076140400751404000000F83FBD
:10281800E0510300191504000C9B99460493B7E78F
:1028280001315200B8E7DBF82430B9F10E0F039AF2
:102838001A606FD8002C6DD0002F36DD07F00F021C
:10284800A04BF8054FEA271403EBC20393ED007B76
:102858008DED0E7B17D59C4B04F00F044FF0030849
:10286800D3E90823DDE90A01FDF758FFCDE90001A6
:10287800954D5CB9DDE90E23DDE90001FDF74EFF5A
:10288800CDE900012BE04FF00208F1E7E10709D597
:1028980008F10108DDE90E01D5E90023FDF714FE72
:1028A800CDE90E0164100835E3E700F007817C42AA
:1028B800844B854D4FF0020804F00F02241103EBFE
:1028C800C203DDE90A01D3E90023FDF7FDFD00237A
:1028D800CDE90001002C40F0E580002BD0D1119B00
:1028E800DDE90045002B00F04C810022774B2046A3
:1028F8002946FEF75BF8002800F04381B9F1000F84
:1029080000F03F81049B002B00F3E480DDE90A34EA
:10291800CDE90034159B002B02DB0E2F40F34282D9
:102928000D9A002A40F06782099C0025DDF818807E
:10293800B8F1000F0DD0079B002B0ADD4345069A1E
:10294800A8BF4346D21AA8EB03080692079AD31ADF
:102958000793099B0BB30D9B002B00F0A682002C5C
:1029680000F0A18229462246584630F0A3FA029A7E
:1029780001460546584630F0F3F90299064658468E
:1029880030F06EF9099B1B1B099300F09182099A9C
:102998003146584630F08EFA02900121584630F000
:1029A800C9F9109B0446002B00F084821A460146A0
:1029B800584630F07FFA089B0446012B03DC009B45
:1029C800002B00F07C820026236904EB830318693E
:1029D80031F080FAC0F120001096079B184410F0DF
:1029E8001F0000F09182C0F12003042B40F3818284
:1029F800C0F11C00069B034480440693079B0344D4
:102A08000793069B002B05DD1A460299584630F0BD
:102A1800ABFA0290079B002B05DD21461A46584663
:102A280030F0A2FA0446119B002B00F07682214672
:102A3800029831F09EFA002880F26F8200230A2261
:102A48000299584630F02EF90D9B7E1E0290002BFD
:102A580000F05C82002329460A22584630F022F909
:102A6800049B0546002B03DC089B022B00F35E82C7
:102A7800B8F1000F05DD29464246584630F074FA91
:102A88000546109B002B00F0D0826968584630F04C
:102A9800A7F80746002840F07F820D4B024640F217
:102AA800EA2158E5E20706D508F10108D5E900232F
:102AB800FDF70AFD0123641008350BE74FF0020803
:102AC8000DE700BFE0510300B85103000000F03FDC
:102AD8001915040020460022AC4B2946FDF7F4FCEA
:102AE8007E1E08F10108049CCDE900014046FDF76F
:102AF80081FCDDE90023FDF7E7FCA54B0022FDF78B
:102B08002DFBA1F15073CDE90E010F93002C3BD1A1
:102B18000022A04BDDE90001FDF71EFB02460B4633
:102B2800CDE90023DDE90E23FDF75EFF002840F024
:102B38005781DDE90E2101F10043DDE90001FDF7D0
:102B480035FF00283FF4E2AE002425460C9BDDF853
:102B58000CA0DE434FF000082146584630F080F8BC
:102B6800002D00F0A980B8F1000F05D0A84503D0CA
:102B78004146584630F074F82946584630F070F807
:102B88009AE03E464C46B1E7834B03EBC40353E956
:102B98000201039B1C440D9B002B4AD002460B46A6
:102BA80000207E49FDF7BAFDDDE90E23FDF7D4FAD2
:102BB800DDF80CA0CDE90E01DDE90001FDF734FFD9
:102BC8000546FDF717FC024630350B46DDE90001E6
:102BD800FDF7C2FA0AF8015B02460B46CDE900018F
:102BE800DDE90E01FDF700FF002865D100206C49E2
:102BF800DDE90023FDF7B0FA02460B46DDE90E01D8
:102C0800FDF7F2FE002840F00D81A24500F0EA80B1
:102C180000225E4BDDE90E01FDF756FC00225B4BFE
:102C2800CDE90E01DDE90001FDF74EFCCDE900011B
:102C3800C2E7DDE90E23FDF747FCA046DDF80CA04E
:102C4800CDE90E01DDE90001FDF7EEFE0546FDF7D1
:102C5800D1FB024630350B46DDE90001FDF77CFA71
:102C68000AF8015B02460B46A245CDE900234FF066
:102C7800000223D1494BDDE90E01FDF76FFA024648
:102C88000B46DDE90001FDF7AFFE002840F0CA80E1
:102C980000204249DDE90E23FDF75EFA02460B46A5
:102CA800DDE90001FDF782FE70B1C24608F1FF3888
:102CB8001AF8013C302BF8D0374655E0334BFDF776
:102CC80003FCCDE90001BDE7DDE90A34CDE90034B4
:102CD800159B002BFFF628AE0E2F3FF725AE2E4B87
:102CE80003EBC70393ED007B0C9B002B8DED047B5E
:102CF80002DAB9F1000F64D0DDF80CA0DDE9004577
:102D0800DDE9042320462946FDF708FDFDF78CFE82
:102D18000646FDF76FFBDDE90423FDF7D5FB024608
:102D2800204606F130040B462946FDF715FA0AF845
:102D3800014B039C02460B46AAEB0404A14540F054
:102D48008280FDF70BFA04460D46DDE90423FDF702
:102D58004BFE002865D120462946DDE90423FDF70E
:102D68001BFE08B1F3075CD4029958462FF078FF90
:102D7800002301378AF80030129B1F60219B002B2B
:102D88003FF421ACC3F800A01DE400BF00002440BC
:102D980000001C4000001440E05103000000E03F28
:102DA8000000F03FA24B03EBC70393ED007B0C9BA5
:102DB800002B8DED047B9FDAB9F1000F9CDC7FF4CA
:102DC800C3AE00229B4BDDE90401FDF77DFBDDE985
:102DD8000023FDF7FFFD044600287FF4B5AE3E460C
:102DE8002546B4E0DDE90A34CDE90034159B002B13
:102DF80001DB0E2FD6DD089A012A36DC139A82B33E
:102E080003F23343099CDDF81880069A01215846DD
:102E18001A440692079A1A4407922FF08BFF054628
:102E280086E53E4653469A4613F8012D392A06D1BF
:102E3800039A9A42F7D13022039901360A701A7818
:102E480001321A7038E700227B4BFDF73DFB002268
:102E5800002304460D46FDF79FFD00283FF450AFC0
:102E680082E7149BC3F13603CCE709F1FF34099BD1
:102E7800A34208DBB9F1000FA3EB04040EDBDDF875
:102E880018804B46C1E7099B109AE31A0994DDF8AC
:102E9800188000241A444B461092B6E7069BA3EB11
:102EA80009080023B1E7029E71E5099A029970E5C5
:102EB800029672E5089B012B17DC009BABB9019BBE
:102EC800C3F313039BB9019B23F00046360D360567
:102ED80036B1069B012601330693079B01330793FE
:102EE800109B002B7FF470AD1096012075E500262D
:102EF800F6E73FF486AD1C33069A1A4498440692C6
:102F0800079A1A4407927CE50346F4E7049B002BD2
:102F18002BDC089B022B09DC27E0B9F1000F1DDC34
:102F2800089B022B1ADD3E46CDF81090049B002B1F
:102F38007FF40CAE2146052258462FF0B3FE014619
:102F48000446029831F015F800287FF7FFADDDF848
:102F58000CA0312301360AF8013BFBE50D9B3E46E8
:102F6800CDF81090002B7FF483AD039F2146029883
:102F780030F015FF039B00F13009049A07F8019B14
:102F8800FB1A9A4240F3CB8000230A220299584642
:102F98002FF088FE0290E9E72A6905F10C010C3050
:102FA8000232920030F00EFD0122394658462FF0C9
:102FB800DBFF039BA846054603F1010ADDE903236D
:102FC80013440793009B03F0010309930AF1FF33AD
:102FD80021460298049330F0E2FE4146069000F143
:102FE8003009029830F0C5FF2A4621460746584660
:102FF80030F026F8C268014602B358462FF030FE7A
:10300800002F3ADA0122029958462FF0ADFF2146E7
:10301800029030F0AEFF002803DC29D119F0010F2F
:1030280026D0B9F1390F1DD132E02846C1E700BFDB
:10303800E051030000001440000024400A90029868
:1030480030F097FF0A990C9058462FF009FE0C9A19
:103058005ABB089B53B9099B43B9B9F1390F17D02B
:10306800002F05DD069B03F1310901E0002F2ADA64
:10307800DDF810A00AF8019B6EE5089B3B4304D1DC
:10308800009B03F00103002BBCD0B9F1390F36D1F6
:10309800049F392307F8013BBA46013F1AF8013C5F
:1030A800392B5AD001333B7056E5002F06DB089BBD
:1030B8003B4306D1009B03F0010313B9002AA1DCAE
:1030C800D6E7002AE1DC079B57460AF8019C5345DE
:1030D8002ED000230A22029958462FF0E3FDA84576
:1030E80002904FF000034FF00A02414658460BD1B8
:1030F8002FF0D8FD804605460AF1010A66E7DDF89B
:1031080010A009F10109B5E72FF0CCFD294680464A
:1031180000230A2258462FF0C5FD0546ECE7049B1C
:103128004FF00008002BCCBF1F460127039B1F440C
:103138000122029958462FF017FF2146029030F0DD
:1031480018FF0028A8DC02D119F0010FA4D1BA4653
:1031580017F8013D302BFAD0FEE4039BBB429BD10C
:103168003123039A01361370F6E4219B002B7FF478
:1031780025AA014BFFF744BA99140400704700BF11
:1031880098B170B5144D82B02B685A0710D100233E
:1031980083F31188BFF36F8F0323184602DF0F48AC
:1031A80002B0BDE87040FEF74FBE0C48FEF74CBEBB
:1031B8000446012103460A4A28460CF077FC2B688E
:1031C8005B07E4D0CE26234601212846054A00960F
:1031D8000CF088FCDBE700BF981D0020442000208D
:1031E800A8520300D0520300B0B594B04D4806AFC2
:1031F80015F0CCFF044618B120463837BD46B0BD9F
:1032080040F6CD420023484829F0F2F9044640B17F
:10321800464803685A07EFD00121454A0CF02CFCB8
:10322800EAE7012000F0C6F904460028E4D139464F
:10323800386016F079F9396801295CD13946381DAA
:1032480016F072F93B682BB33B79032B61D8DFE8A2
:1032580003F0392F270207F10C052B46354A07CA18
:1032680003C31A80BB7A05957A791E210492BA792C
:1032780007F118000392FA7902923A7A01927A7A5F
:1032880000922D4A08F030FF2848036803F007032E
:10329800022B19D800F0C6FD20463837BD46B0BD10
:1032A80007F10C052B46254A07CA03C31A80D9E73C
:1032B800234B93E803000B0C07F10C05F8603982E7
:1032C800BB74CFE71F4BF4E76D4688B006AB1E4AC8
:1032D8004FF4007C5A611A4607F1180199611B499D
:1032E800A3F81CC042F8101F00234FF4E6510CF05D
:1032F80019FCAD46CEE70D4803685B0702D16FF0B5
:103308000B0479E701230091114A19460CF0EAFBF6
:10331800F5E707F10C050A2128460E4A08F0E4FEF5
:10332800A0E700BF8931000044200020981D00203C
:10333800F45203009453030058530300A0530300AE
:1033480048530300405303007C530300030000016B
:10335800085303005053030010B50849084829F0E2
:103368000FFC031E00DB10BD064802685207FAD0A6
:10337800BDE810400121044A0CF098BBE84D00203C
:10338800C0210020A01D0020B4530300B0B582B0B6
:10339800174C02AF23685A0720D06D4688B002AB9D
:1033A8004FF400701A46134998835961124999617C
:1033B800124942F8101F00234FF4E25120460CF046
:1033C800B1FB2368AD465B0708D043256FF0730354
:1033D800012120460A4A00950CF084FB002383F360
:1033E8001188BFF36F8F0323184602DFBD46B0BDB7
:1033F800A01D0020C4540300D053030003000001A3
:10340800D0520300F0B585B002AF002141F20100AF
:103418003A1D15F07DFAB8B9786812F085FE324B7E
:1034280018680DF049F8044658B1304D2B685A0712
:1034380039D1002383F31188BFF36F8F0323184614
:1034480002DF0C37BD46F0BD284D2B685C0708D15C
:10345800002383F31188BFF36F8F0323184602DF1D
:10346800DDE76E4688B0044602AB4FF400711A4699
:103478001F48998358611F491F48986142F8101FD7
:1034880000234FF4E25128460CF04CFB2B68B5465C
:103498005907DDD03126234601212846174A0096D0
:1034A8000CF020FBD4E76E4688B002AB4FF40071F5
:1034B8001A460F48998358610E491148986142F895
:1034C800101F00234FF4E25128460CF02BFB2B6809
:1034D800B5465B07ADD03426234601212846074A66
:1034E80000960CF0FFFAA4E7E44D0020A01D002090
:1034F800C454030003000001F4530300D052030036
:10350800105403002DE9F04383B000AF06460D4682
:1035180041F2010000213A1D15F0FAF9044680B97C
:103528007868D0F80C80B8F805303EB11D4E592B9C
:10353800326802F007022BD1022A07D82B8012F03A
:10354800F3FD20460C37BD46BDE8F08398F801002E
:1035580015F050FDE9468AB06B4698F80110B8F8A6
:103568000220C3E906014FF400711A621A469984D1
:103578000D4959610D4B42F8103F4FF43351304615
:1035880023460CF0CFFACD46B8F805307868D5E771
:1035980012B94FF0FF34D4E701213046044A0CF049
:1035A8006BFAF6E7A01D002028540300050000016F
:1035B80064540300002230B585B005460DF10E01B4
:1035C8000120ADF80E20FFF79DFF044600B915B99C
:1035D800204605B030BDFDF74FFC054628B11A4816
:1035E80003685B0726D12C46F2E7224640F6B8303E
:1035F80016490CF097FF164B0028186021DB154878
:1036080029F0AEFB144802234FF48062009013495E
:103618001048FEF785FC1249124829F053FA4FF476
:10362800803000210246CDE900010B460E482AF001
:10363800D3FFCDE701212B460C4A0CF037FA2C4674
:10364800C6E70446C4E700BFA01D0020953300006C
:10365800E44D0020C02100200002002088EE012057
:103668000D340000E84D0020301E00207C5403007B
:1036780000232DE9F0419AB006AFC7E90433C7E942
:103688000C33C7E90633C7E90833C7E90E33C7E97E
:103698001033BB62BB85BB64A7F84C30002800F030
:1036A800A080037804460D46032B00F2A380DFE8D0
:1036B80003F03F484A023E1D3346524A07CA03C335
:1036C8001A80A379059662781E210492A278039243
:1036D800E27802922279019260794B4C00904B4A31
:1036E80007F1100008F000FD236803F00703022B20
:1036F80015D9E84688B006AB4FF4007107F11002FF
:103708009A611A46424899835861424B42F8103FE1
:1037180000234FF4E65120460CF004FAC546002D6C
:103728004AD02B78032B5FD8DFE803F051594B14AC
:10373800394B93E803000B0C3E1D78603981BB724E
:10374800BFE7364BF5E73E1D3346354A07CA03C384
:103758001A80B6E733462B4A07CA03C31A80AB79E7
:1037680005966A781E210492AA7807F13000039220
:10377800EA7802922A7901926D79244A009508F034
:10378800B3FC236803F00703022B15D96C4688B0F5
:1037980006AB4FF400701A4607F130019961214DCC
:1037A8001C495D61988342F8101F00234FF4E651CD
:1037B80015480CF0B7F9A54600205037BD46BDE8BE
:1037C800F0813346164A07CA03C31A80C7E7124B6B
:1037D80093E803000B0C78603981BB72BFE70F4B8D
:1037E800F6E76FF01500E8E70A2130460E4A08F0C0
:1037F8007BFCB4E73E1D0A2130460B4A08F074FCF6
:103808005FE700BF945303009C1D0020585303003A
:10381800B854030003000001405303004853030059
:10382800A0530300C8540300505303002DE9F0418E
:103838008EB000220023B2480DF10B0128F066FC7F
:1038480030B1B04803685C0748D10EB0BDE8F081DC
:10385800AD4828F031FD03AC002200232146AA48D8
:1038680028F054FC9DF80B6020B9A84B1B78002B5E
:1038780000F08180A64B53F82610002900F07B81C8
:103888000023A44AA44D52F8262055F82600009398
:1038980016F02AFE0446002861D1DFF88C8255F81C
:1038A800260058F8263003B39C4B07AF39460894D6
:1038B800079316F0F7FE0446002800F08A80914D21
:1038C8002B685E0740F0138113F0060FBDD002216C
:1038D8002346934A8B480CF0E9F8B6E70121914A50
:1038E8000CF0CAF80EB0BDE8F08107AF394655F8BC
:1038F800260016F04DFD0446002840F09C80014645
:103908000898FFF7B5FE0446002840F094809DF81B
:103918000B207E4B394655F822001C70ADF81C4030
:103928008DF81E4016F00CFE00286BD19DF80B3068
:103938007D4A52F82320002A70D055F8230016F04B
:10394800ADFF0346002800F08D806E4802685207DC
:103958003FF47BAF0121754A0CF0A8F875E7694D73
:103968002B685F07B0D001210346714A28460CF046
:103978009DF82B68A8E7232294E803006D4F664D55
:103988000093ADF818100DF11408090C05908DF886
:103998001A107A6019461A46C7E9023355F8260004
:1039A8003B80BB70C7F8108016F09EFD04460028C7
:1039B80044D0544D2B68580740F0908013F0060F00
:1039C8003FF443AF022123465B4A4E480CF06EF8A1
:1039D8003BE75A4B58F8261053F8262055F826008E
:1039E80016F0D2FE0446002880D0464D2B685807B2
:1039F8003FF46AAF012123462846514A0CF056F895
:103A08002B6861E73F4A136859073FF41EAF01214D
:103A1800034610464B4A0CF049F816E7394C236820
:103A280003F00703022B7FF610AF0321464A3548FF
:103A38000CF022F809E7334B1B6845E7394655F87F
:103A4800260016F0E1FC044658B32E4D2B685907A2
:103A5800B4D00121334628463C4A00940CF042F881
:103A68002B68ABE701269DF80B30394655F8230043
:103A78008DF824300A900022002335488DF81C6008
:103A88001AF082FB1F4C0028C9D023685B0768D155
:103A9800002383F31188BFF36F8F0323184602DFD7
:103AA800BDE707AF394655F8260016F071FC044605
:103AB800002853D141460898FFF7DAFD044600284C
:103AC8004CD180239DF80B208DF81E00394655F8FF
:103AD8002200ADF81C3016F033FD25E701213346EE
:103AE80028461C4A00940BF0FDFF2B6866E701216D
:103AF8000346194A28460BF0D9FF2B68E4E600BFB5
:103B0800B41F00209C1D0020E41F00206AEE012045
:103B1800104E0020084E0020184E00207800A0000B
:103B280038560300E0540300004E0020905603006E
:103B3800B45503000802002074550300F84D002016
:103B48000C56030064560300BC56030030550300AE
:103B5800944A0300F8540300D85503000E4B1B6821
:103B68002CE740F22B150346314620460B4A0095B8
:103B78000BF0B8FF8CE7084D2B685A0702D16FF09D
:103B88000504A1E601212846054A0BF075FF6FF0F0
:103B980005042B6898E600BF9C1D0020D052030046
:103BA800A055030038B504460D4612F065FD0128FE
:103BB80005D92046294612F093FC002038BD6FF045
:103BC8000B0038BD00B59DF804E0B8B1B1B1ABB198
:103BD80084460868904214D20CF830E000200A6845
:103BE8000CEBC20253700B680CEBC30C029BCCF8B5
:103BF80004300B6801330B605DF804FB6FF01500AF
:103C0800FAE76FF00B00F7E710B50A4B53F82000FE
:103C180016F048FE044608B9204610BD0648036859
:103C28005B07F9D001212346044A0BF03FFF2046E9
:103C380010BD00BF184E00209C1D0020E056030058
:103C480070B5134E054656F8200016F017FC30B133
:103C58000446104803685A0712D1204670BD56F82A
:103C6800250016F0DDFC04460028F6D00948036854
:103C78005B07F2D001212346074A0BF017FFECE758
:103C880001212346054A0BF011FF204670BD00BFF5
:103C9800184E00209C1D00202C57030008570300D5
:103CA80030B589B09DF834508DF80700002955D0FB
:103CB800002A7CD09DF80700494C44F82010494957
:103CC80041F82020484A494942F820300C9B484A8C
:103CD80041F82030536838B3464C23F0040353604E
:103CE80004EB800445B3444D0DF10C0C0FCDACE84A
:103CF8000F002B682246414903A8CCF8003016F083
:103D080053FB044600283AD1002200233C480DF119
:103D1800070128F027F900283BD13A4828F074FF1A
:103D28000024204609B030BD324C43F004035360F0
:103D380004EB8004002DD6D1224630492C4816F0D9
:103D480033FB04460028DFD02F4803685A07E8D021
:103D5800012123462D4A0BF0A9FEE2E70C990A43FC
:103D68001ED1EBB91E4BC2B253F82230002BCBD177
:103D7800254803685B072DD16FF00104D1E722487D
:103D880003685907CDD001212346214A0BF08EFE46
:103D9800C7E71D4803685B0712D16FF00B04C0E743
:103DA800194803685D0710D16FF01504B9E7164884
:103DB80003685C07F8D00121164A0BF05DFEF3E7B3
:103DC8000121154A0BF058FEE7E70121134A0BF0D1
:103DD80053FEE9E70121124A0BF04EFECCE700BF83
:103DE800104E0020084E0020004E0020F84D002004
:103DF80008020020184E0020504C03003C580300D5
:103E0800B41F0020204E00209C1D00200C580300E9
:103E1800D0570300B4570300785703009C5703009A
:103E2800545703000149024828F04CBE35380000B9
:103E3800204E00202DE9F84F1C46914600AF03F1B3
:103E48001C08D8E8AF3F012B62DC0023824684F8C7
:103E580020300022002346488B4612F0FBF8054626
:103E6800002867D000F10C0630460D2112F098FAB0
:103E78005A465146304612F0E5FAD8E8EF3F01338A
:103E8800C8E8E23F002AF8D1BB6A7BB92946484610
:103E9800A28919F081FE0646002E10DB0026A389B0
:103EA8000133A3813046BD46BDE8F88F2946484610
:103EB800BB6AA28919F076FE0646002EEEDA16F1E4
:103EC800800F17D02B48036813F0060F12D06C46EA
:103ED80088B06B4604211A46DFF8A0C0C3E906691A
:103EE800C3F814C042F8101F00234FF402510BF01E
:103EF80019FEA546284612F017F9D8E8EF3F013B0E
:103F0800C8E8E23F002AF8D13046BD46BDE8F88F40
:103F180094F8205015B16FF00B06C3E7104618F05F
:103F280089FA1448036813F0060F0DD1012384F8A9
:103F38002030F0E70F48036813F0060FEBD002219A
:103F48000D4A0BF099FDE6E76E4688B06B460321F3
:103F58001A46DFF82CC0C3F81890C3F814C042F80A
:103F6800101F4FF4C4512B460BF0DCFDB546DDE7BE
:103F780068210020941D00209C580300B0580300BD
:103F88006C58030082B02DE9F04F99B002AF07F1E9
:103F9800800484E80C00B44B97F888401B78BC6216
:103FA8003A61002B00F09081002800F0DC80D7F8FF
:103FB8008430B3FBF4F33B62002900F0C2804FF079
:103FC800000C8246E346DFF8C492C7F808C0C7F879
:103FD80014C0C7F81CC0C7F80CC079620DE0A34A2A
:103FE800126812F0060F40F0C1807B6A0BF1010BDA
:103FF8009B450AF10C0A00F09F809AF800609AF835
:1040080002509AF8014006EBC60305EBC502DB0136
:1040180003EB820304EBC40203EB42134B44EA00B4
:10402800FA629B89F2007A63E2003A6313B9DAF81C
:1040380004209383DAF804300421586800F0E6F984
:1040480080460028D1D09AF80830BA6A9342C6D878
:10405800DAF8043007F14001986800F021FA0028E6
:1040680040F01681824A3B6CA2FB03233A6AB2EB0A
:10407800132F40F01A81FB69DAF80420002B68D16D
:10408800D3682421DB68786BFB613B6B30442344A5
:104098005B0103EBC01311FB05334B44BB61BB6AE7
:1040A800012B69D07B699AF80800009339693B6A4B
:1040B80003FB0010BB69396AFFF7BCFE002894D1E6
:1040C8004FF6FF733A6BF96A22442944520102EB16
:1040D8008102796BDAF80400314402EBC11239F835
:1040E8000210994250D007F14403B98707F13C0008
:1040F800194610F099F900285CD17B6BF96A3A6B84
:10410800334422442944DC0104EB8104BB6C04EBF6
:1041180042144C442361B7F8463060612383FB683E
:10412800002B73D07B6A0BF1010B9B45C7F80C8001
:104138000AF10C0A7FF461AFD7F80CC0BCF1000F8C
:104148006AD1002318465C37BD46BDE8F04F02B07F
:104158007047D368F869D968814292D043480368A8
:104168005A0740F0AC806FF01503EBE70221414A93
:104178003E480BF09BFC38E77B690093BB69396AC2
:104188003869FFF757FE99E707F144031946406875
:104198003A607B6018F056F9D7E9002348B33348F2
:1041A800036813F0060F3FF420AF0221324A0BF0E8
:1041B80063FC1AE710F1800F3FF417AF2B4B1A6816
:1041C80012F0060F3FF411AF6C4688B0DAF80420FD
:1041D80002A9C1E906020A460420284D4D6142F8A9
:1041E800100F4FF40251184600230BF09BFCA54614
:1041F800FBE6B86CB9690068C7E9003214F0F0FE54
:10420800D7E9003220BB39F802106EE7FCF700FE50
:104218002369B8607B6185E70124786900237864A5
:10422800B8680022B86407F14401154887F84C4083
:1042380019F0AAFF0346002883D00C48026812F040
:10424800060F3FF47EAF02210E4A0BF02FFC78E7F1
:10425800064A13685B073FF4C8AE012103461046BF
:10426800094A0BF023FCC0E66BEE0120941D0020E8
:104278001F85EB51D858030078590300BC59030037
:10428800D04A0300E859030094590300384E00202F
:1042980003460F48026854073FF454AF01210D4A02
:1042A8007B630BF003FC7B6B4CE7094803685907F9
:1042B8003FF459AF0121084A0BF0DEFB53E7012117
:1042C800064A0BF0D9FB4EE76FF00C033AE700BF44
:1042D800941D0020F8580300185903004C59030096
:1042E80070B51D4B82B01B780190C0F30724C0F352
:1042F80007416BB324234FF0000C04EBC404C2B293
:10430800600113FB010302EBC202144D03EBC2135D
:10431800D4012B44D3E8EF2FC3E8E6CF002EF9D120
:1043280001EBC1014FF6FF7604EB8103034400EB78
:1043380081026046A5F11C0E7344224483F820C014
:104348002EF80260A3F80CC0A3F818C002B070BD24
:104358006FF00C00FAE700BF6BEE0120544E00200E
:10436800114B82B01B780190DBB124239DF8052006
:104378009DF806C002EBC202520113FB0C239DF804
:1043880004100A4801EBC10103EBC1130344D3E84D
:10439800EF1F0139C3E8E21F002AF8D1002002B05C
:1043A80070476FF00C00FAE76BEE0120544E0020C6
:1043B8004FF0000C4FF6FF70624610B4114CA4F594
:1043C8009061A1F590731A7723F8040C1A605A606B
:1043D8001A81DA601A619A8224338B42F3D103F589
:1043E8009071A142EDD1BCF5906F03F5B46402D091
:1043F8004FF4906CE3E70122034B1A705DF8044B0D
:10440800704700BFDC5300206BEE0120D8B110B517
:1044180086B00C4601A918F015F838B99DF80500C2
:10442800001BB0FA80F0400906B010BD07480368C9
:1044380013F0060F02D1002006B010BD0221044A75
:104448000BF01AFBF7E70020704700BFD01D0020D3
:104458007859030010B50C4618F024FA002806DB3A
:10446800C0B218F0E5F90028A4BF2060002010BDF4
:1044780010B50C4618F040FA002806DBC0B218F058
:10448800E3F90028A4BF2060002010BD10B50C4639
:1044980018F09EFA0028A4BF2060002010BD00BFBD
:1044A80070B505460E4618F027FA041E11DBE0B277
:1044B80018F0CAF9041E0CDB284618F089FA0028FF
:1044C80009DB064B93FBF4F3002400FB03F3DB004A
:1044D8003360204670BD0446204670BD40420F0040
:1044E8008378062B09D06D48026812F0060F00D1B8
:1044F800704702216A4A0BF0D9BA2DE9F04385B01A
:1045080004460D4618F0CEF9061E77DBF0B218F017
:104518008FF9061E72DB204618F0EEF9071E74DBD1
:10452800F8B218F091F9071E6FDB204618F050FA20
:10453800B0F1000879DB0121204618F065FAB0F1E6
:1045480000097ADB0022204602A918F0F5F910F1DB
:104558003D0F7AD0002840F08680204603A9FFF757
:104568009FFF002874D14D4C012D236803F00703E9
:1045780000F08480022D00F08980022B42D90321AB
:104588002046484A0BF078FA236803F00703022B09
:1045980038D903213346444A40480BF087FA236848
:1045A80003F00703022B2DD903213B463F4A3B4822
:1045B8000BF07CFA236803F00703022B22D9029B35
:1045C80003213B4A35480BF071FA236803F00703CF
:1045D800022B17D90398032143460090354A2F48E8
:1045E8000BF080FA236803F00703022B0AD9032192
:1045F8004B46314A29480BF059FA03E0274803682B
:104608005F070ED105B0BDE8F083244803685D0755
:10461800F8D001213B46294A05B0BDE8F0430BF02C
:1046280045BA01213346264AF6E71C4803685C0769
:10463800E8D001214346234AEEE7184803685907A2
:10464800E0D001214B46204AE6E70023029384E7A5
:10465800124A13685B07D5D00121034610461B4A4E
:104668000BF024FACEE70D4B1B685A07CAD001217C
:104678000346174A09480BF019FAC3E7022BC1D9B8
:1046880003212046134A0BF0F7F97DE7022BB9D92D
:1046980003212046104A0BF0EFF975E7D01D0020E2
:1046A8000C5C0300705B0300945B0300A85B0300D1
:1046B800BC5B0300D85B0300F85B03009C5A030053
:1046C800745A0300285A0300C05A0300145B0300FD
:1046D800EC5A0300345B0300505B030010B58C46B2
:1046E800864688B08DF808E0BCF800E09CF802C067
:1046F800A42200230F4802A9ADF81CE08DF81EC0C3
:1047080019F042FD60B103460B480268520709D10F
:10471800002383F31188BFF36F8F0323184602DF4A
:1047280008B010BD4F240121044A00940BF0DAF9B7
:10473800EEE700BFBC4A0300441D0020D05203002E
:10474800F8B50F4C00AF236813F0060F03D16FF0D4
:104758001500BD46F8BD6D4688B06B4603211A4664
:10476800084EC3E9056042F8101F002320464FF4A5
:10477800C4510BF0D7F96FF01500AD46BD46F8BD32
:10478800441D00203C5C03002DE9F04F4FF0000869
:10479800DFF89CC104466646E6460D46404685B0AD
:1047A80000AF744500F091807246002301E0944206
:1047B8002BD00133082B02F12802F8D108F5A07894
:1047C800B8F5A06F00F101000EF5A07EE9D1002038
:1047D8000CF5A0639C427BD06246002301E08C422A
:1047E8005DD00133082B02F5A56102F12802F6D14C
:1047F800013004280CF5A07CEAD12046FFF7A0FF81
:1048080040B11437BD46BDE8F08F0022DBB23A73E1
:104818007873BB73DFF81091042007F10C01FFF7E0
:104828005DFFD9F8003003F00703022B3AD897F858
:104838000C80DFF800A11AF80830002BE1D0DFF86F
:10484800F8B05BF82830002BDBD008EB880306EBC8
:104858000325042304357B60002655F8260004212F
:10486800FFF7D4FD0A360028CBD1502EF5D17B684E
:1048780005F5A075013B7B60EED15BF8280019F0C7
:10488800D9FA40BBD9F800307A6803F00703022B45
:104898004BF8282038D800230AF80830B1E701225D
:1048A800DBB2B4E7E84688B06B4604211A461C48D8
:1048B800DD619C61586142F8101F00234FF40351D9
:1048C80048460BF02FF9C546B1E700231A469EE784
:1048D800002301229BE7D9F800305B07DBD06D4647
:1048E80088B06B4604211A46D8610E489C6158610D
:1048F80042F8101F4FF401517B680B480BF012F976
:10490800AD4697F80C80C6E76D4688B06A46032323
:1049180006499461516142F8103F4FF4C651EBE7E4
:10492800505C0300785C0300441D0020A85C030071
:104938000C580020085800204C62002030B54FF079
:10494800000E354CF446214685B088425ED00A46B2
:10495800002301E090422BD00133082B02F12802FA
:10496800F8D10EF5A07EBEF5A06F0CF1010C01F593
:10497800A071EAD14FF0000C04F5A063984248D02A
:104988002246002301E0884231D00133082B02F58A
:10499800A56102F12802F6D10CF1010CBCF1040F5B
:1049A80004F5A074E8D1FFF7CBFE48B105B030BDDF
:1049B8000022DBB28DF80C208DF80DC08DF80E307A
:1049C800052003A9FFF78AFE0398FFF7C9FC002812
:1049D800ECD0124C23685B070CD1002383F31188B9
:1049E800BFF36F8F0323184602DF05B030BD0122E5
:1049F800DBB2DFE70398FFF7B3FC03467425012118
:104A08002046074A00950BF06DF8E6E700231A46A2
:104A1800D0E700230122CDE70C580020441D0020D8
:104A2800D05203004FF0000CF0B5424D0446294621
:104A3800604685B002AF8C4275D00A46002301E07B
:104A480094422AD00133082B02F12802F8D10CF540
:104A5800A07CBCF5A06F00F1010001F5A071EAD1BE
:104A6800002005F5A0639C4260D02A46002301E09F
:104A78008C4237D00133082B02F5A56102F12802D8
:104A8800F6D10130042805F5A075EAD12046FFF7D4
:104A980057FE38B10C37BD46F0BD0022DBB23A7183
:104AA8007871BB717868FFF71BFC234D50B12B68F8
:104AB8005B071AD1002383F31188BFF36F8F032399
:104AC800184602DF0320391DFFF708FE2B6803F0A4
:104AD8000703022B15D80221A068FFF701FD0C3748
:104AE800BD46F0BD0122DBB2D9E77868FFF7F8FBD5
:104AF8000346812601212846104A00960AF0F2FF53
:104B0800D8E76D4688B002AB03211A460C48C3E9C2
:104B1800050442F8101F00234FF4C65106480BF055
:104B280001F8AD46D7E700231A46B8E7002301226B
:104B3800B5E700BF0C580020441D0020D0520300E8
:104B4800C45C03002DE9F04F87B003920022DDE931
:104B5800107801280646059200F2DD801D46002BDC
:104B680000F0D280002F00F0CF80B8F1000F00F0E5
:104B7800CB8003F10B0420468946FBF7F1FF302276
:104B88000346019400923846424605A9FFF71AF8F1
:104B9800044608BBB9F1000F06D1032103A815F09C
:104BA80067FF044600286FD141F65203AB801623F5
:104BB8000093039B3846C3F30722EA711A0C2A7242
:104BC8005D4AAB7113602B1D01934246052305A96D
:104BD800FEF7F8FF044618B1204607B0BDE8F08F8D
:104BE8002B4640F6850223F8092F019319234246E4
:104BF80000933846022305A9FEF7E4FF044600287F
:104C0800EAD141F65602EB6ADFF848911A8009EBBF
:104C180046135B7BD5F82CA076012BB19AF80230AD
:104C280043F001038AF80230D9F80030002B3DD058
:104C38000024DFF80CB123464E4411E0032B2ED09C
:104C4800052B2CD0082B52D0DBF8002012F0060FD1
:104C580054D1D9F800200134E4B29442234625D235
:104C6800726803EB430302EB8302906817F01AFEA5
:104C7800031EE3DADBF800305B07EAD001212F4A94
:104C88002F480AF0F9FEE4E72D48036813F0060FF1
:104C9800A2D0022123462B4A0AF008FF9CE79AF883
:104CA800023043F002038AF80230D2E740F202648D
:104CB800EB6A42469C8000249C7140F60204EB6A31
:104CC8003846A3F8074001245C720624EB6A05A95C
:104CD800DC70EC6AE3780194162404330094FEF740
:104CE80071FF044600287FF477AF059C74E79AF8B3
:104CF800023043F004038AF80230AAE70221124A7C
:104D08000F480AF0D3FEA4E70D4803685A070ED1EE
:104D18006FF0150460E70A4803685907F8D00224C1
:104D280033460121094A00940AF0DCFEF0E701212C
:104D3800074A0AF0A1FEEBE704580020585D03007B
:104D4800441D0020305D0300705D0300E05C03003B
:104D5800105D03000C620020F0B5002485B0012826
:104D6800039435D80D4661B3164652B31F4643B374
:104D7800204B096853F8200019F068F8044630B150
:104D88001D4803685B0714D1204605B0F0BD162402
:104D980029683A468B88096830460191009403A92E
:104DA800FEF710FF04460028EED1039C204605B00C
:104DB800F0BD01212346114A0AF078FE204605B0CD
:104DC800F0BD0D4803685A070FD16FF01504DBE7F3
:104DD800094A13685907F8D00224034601211046EE
:104DE8000094074A0AF07EFEEFE70121054A0AF01F
:104DF80043FEEAE74C620020441D00200C5E0300DD
:104E0800B45D0300E45D0300012803460CD80F4A93
:104E180052F8202062B10E4A00EB800302EB032314
:104E280004215868FFF7F2BA0A480268520701D10C
:104E38000020704710B582B002240121064A009470
:104E48000AF050FE002002B010BD00BF4C620020E6
:104E58000C580020441D00202C5E030030B583B0A0
:104E6800002949D0012804462BD82A4B00EB8002A0
:104E780003EB0223586858B30D460421FFF7C6FA1E
:104E8800B8B9254B294653F8240018F093FF044677
:104E980010B9204603B030BD2048036813F0060F50
:104EA800F7D0022123461E4A0AF000FE204603B02E
:104EB80030BD1A48036813F0060F10D16FF077045D
:104EC800E7E7164803685A070ED16FF01504E0E7C4
:104ED800124803685B0718D16FF08B04D9E70221E9
:104EE800104A0AF0C9FDE9E70225234601210E4AC6
:104EF80000950AF0F7FDE8E7084803685907E4D089
:104F080001210A4A0AF0B8FDDFE70121084A0AF040
:104F1800B3FDE1E70C5800204C620020441D00203E
:104F2800BC5E0300A85E0300705E0300505E0300D1
:104F3800945E030010B5012882B00AD8164B53F8C6
:104F48002030FBB1A9B10020144B1B680B6002B0E4
:104F580010BD134A1368590702D16FF01500F6E720
:104F6800022403460121104600940E4A0AF0BAFDB5
:104F7800F3E70B4803685B07EFD001210A4A0AF000
:104F88007BFDEAE7064803685A07E6D00121074A8D
:104F98000AF072FDE1E700BF4C62002004580020CF
:104FA800441D0020E05E0300245F0300105F03003F
:104FB80082B02DE9F04FE3B06CAC0128814684E85B
:104FC8000C0042D800258A462E4601EB810400EBEE
:104FD8008007284BA40104EB07243F021C4407F177
:104FE800040B0DF10808E31B042153F80B00FFF72D
:104FF8000DFA05EB4502F1B208EB8203013605F123
:10500800010C40B15C6008F8229083F801A0997007
:1050180019725FFA8CF5082E04F12804E3D165B102
:105028006E9B294600936CAB02A80CCBFEF7AAFF37
:1050380063B0BDE8F04F02B070470F48036813F043
:10504800060F09D16FF08B00F2E70B4803685B0786
:1050580007D16FF01500EBE70221084A0AF00CFDB2
:10506800F0E702244B460121054A00940AF03AFD74
:10507800EFE700BF0C580020441D00206C5F0300C0
:10508800485F030070B50128044682B039D8244B24
:1050980000EB800203EB022304215868FFF7B6F9FE
:1050A80080B9204E56F8240028B118F0C3FE0546F2
:1050B800E8B946F8240000231D461B4A1370284609
:1050C80002B070BD01221749184B51F824001A5537
:1050D80018F0A8FE05460028EDD01548036813F01F
:1050E800060FECD00221134A0AF0C6FCE7E7104885
:1050F800036813F0060FE2D002210F4A0AF0BCFC45
:10510800DDE70B4803685B0702D16FF01505D6E7AA
:10511800022523460121094A00950AF0E3FCF4E739
:105128000C5800204C6200206CEE0120085800202A
:10513800441D0020A45F0300C45F0300805F0300D8
:105148002DE9F04F01290C4685B000F23281A34BBE
:1051580005461B78002B00F0D280A14B1B6803F09A
:105168000703022B00F2C4802B79042B00F22D8157
:105178006BB19020296810FB031000230A79903145
:1051880013448142DBB2F9D1082B00F20481954B1C
:1051980004EB840203EB022800214FF4A06240468E
:1051A8002EF037FC2B799049002B53D04FF0000A92
:1051B8000E4640F2053BCDE902418C4FDFF85C9288
:1051C8002B680AEBCA0403EB04131A792401002A9A
:1051D80000F08C804FF0000E48463B464146F446AE
:1051E8000622196098605A602A68283112590C33CF
:1051F80052F82C20A0F800B0C0F802204EEA020EA7
:105208002A680CF1010C2244127906309445E7D340
:10521800C6E900272868714620440830B06017F0B6
:10522800B1FB00286EDB2B68B0682344D98817F0DF
:105238002BFC002877DB2B790AF1010A9A4506F145
:105248000C0607F1180708F5A07809F10C09B7D37F
:10525800DDE90241664E4FEA441946F8093006EB8B
:10526800441359602A680FFA84FA7C329A606A7982
:105278004C461A73AA795A73002A76D156F809301F
:1052880023B34FF0000847465A4DB144D9F80430CB
:105298004FF0000B53F80820434482B15B680BEBD6
:1052A8004B0253F82200294618F06EFCD9F8043056
:1052B8000BF1010B53F8082043445A45EED8D9F8AE
:1052C80000300137BB4208F10C08DFD84A493019D1
:1052D80001EB8A0118F0ACFC0446002831D1012307
:1052E8003E4A1370204605B0BDE8F08F96468FE71A
:1052F800032123463A48414A0AF0D8FB34E7FFF72E
:1053080057F82AE7364B1B6813F0060F24D15A07C3
:1053180006D06FF015030121394A31480AF0C6FB5F
:105328006FF01504DEE72E4B1B6813F0060FEED066
:1053380002210346334A2A480AF0B8FB284B1B6867
:10534800E5E7274B1B685B07CCD0012103462E4AB3
:1053580023480AF0ABFBC5E7022103462B4A204845
:105368000AF0A4FB1E4B1B68D1E7002209F10E01CD
:10537800731872505A609A60DA60D5F807C0D5F889
:105388000B70D5F80F00D5F8132046F801C05F6000
:105398009860DA6072E7124A12685107C0D0082490
:1053A80001211B4A0E4800940AF09CFB0C4B1B6819
:1053B800ADE70B4803685D07B2D002250B46154AD6
:1053C800012100950AF08EFBAAE7054A12685007EA
:1053D800A6D004240121104AE4E700BF6CEE0120A6
:1053E800441D00200C58002044570020A4570020DA
:1053F8000C620020940200204C620020246003000C
:1054080004610300E86003002C610300CC60030022
:1054180084600300E85F03004460030074570020C1
:10542800704700BF2DE9F0430026824B83B0824AC3
:105438008249834800938DF8046024F02BFA814B4D
:105448000446984240F087807F4A8049804823F08C
:1054580071FAA042054640F08580324606211420A4
:105468007C4F0FF0A7FE0121794823F005FB394650
:10547800684622F053FBA84204467DD13978764A23
:10548800764FDFF8088241F00043C7F8C03068461D
:10549800C8F8C030C2F89C3122F05AFBA042054639
:1054A80071D1DFF8EC916846494622F037FBA842F3
:1054B80004466FD199F80010694A41F00043C8F8D2
:1054C800C4306846C7F8C430C2F8803122F040FBC7
:1054D800A042054668D1DFF8BC916846494622F0EB
:1054E8001DFBA842044669D1102099F800105D4AB6
:1054F80041F00043C8F88830C7F88030C2F8A005EA
:105508006846C2F8903122F023FBA04205465FD1DD
:10551800DFF884916846494622F000FBA842044619
:1055280060D199F80030314643F00043C8F8803123
:105538004748C7F88C3023F077FA684699F8001086
:1055480022F006FBA04258D1414823F04BFA002034
:1055580003B0BDE8F083444803685D0758D16FF095
:105568001200F5E7404803685907F8D001212B4697
:105578003E4A0AF09BFAF2E73B4803685A074DD1C6
:105588006FF00B00E4E7384803685B074CD16FF015
:105598000400DDE7344803685F07F1D001212346A2
:1055A800334A0AF083FAEBE72F4803685E07EED028
:1055B80001212B462F4A0AF079FAE8E72A480368BE
:1055C8005D07DDD0012123462B4A0AF06FFAD7E7A1
:1055D800254803685907DAD001212B46274A0AF0E3
:1055E80065FAD4E7204B1B685A07C9D00121034646
:1055F800214A1D480AF05AFAC2E71B4A13685B079A
:10560800C5D00121034610461C4A0AF04FFABEE7EE
:10561800012123461A4A0AF049FAA0E70121234644
:10562800184A0AF043FAABE701212B46164A0AF05A
:105638003DFAACE70070015029540000D002002068
:10564800086303000000AD0BA556000000630300CB
:10565800F862030070EE0120008002500000015043
:1056680000B0015000A00250401D002088610300D6
:105678000C6203005062030094620300C4620300DA
:105688006C610300A0610300D46103000040015075
:105698006FEE01206DEE01206EEE0120052803D18A
:1056A800024A136801331360704700BF6C62002020
:1056B8002DE9F04112F0FC6F0569D0E901766AD155
:1056C800134602F03002302A56D0494A494C1A4053
:1056D800A24242D003F00602042A32D013F4402238
:1056E80007D09C0375D5B2F5402F1BD0424A9A4388
:1056F80015D04FF0010C3C680CFA01FC1CEA040FB1
:1057080023F4801256D02C68DB074CBF4CEA040403
:1057180024EA0C042C603368BDE8F041184783F490
:105728004023E6E7354940F2EF33354A354807F07C
:10573800BDFE354807F0BAFE40F2EF31304807F0B9
:10574800ABFE32492F484FF47A732D4A07F0AEFE6C
:105758004FF47A712A4807F09FFE2D4940F2E5334D
:10576800274A284807F0A2FE2A4807F09FFE40F281
:10577800E531234807F090FE274940F2E133204AFB
:10578800204807F093FE254807F090FE40F2E131EB
:105798001B4807F081FE224940F2DE33184A1948B7
:1057A80007F084FE1F4807F081FE40F2DE311448FE
:1057B80007F072FE1C4940F2FB33114A114807F00A
:1057C80075FE1A4807F072FE40F2FB310C4807F0EC
:1057D80063FE174940F2EB33094A0A4807F066FEB0
:1057E800144807F063FE40F2EB31054807F054FE19
:1057F800020003000200010001001000C865030058
:1058080024630300B86303000C66030010650300FB
:1058180078640300C0640300FC6303003864030079
:1058280058630300D86303003866030078660300F2
:10583800446503008C650300014827F0E5B900BF03
:10584800DC02002008B5074803685B0702D16FF047
:10585800120008BD0121044A0AF00EF96FF0120087
:1058680008BD00BFD41D00208C6603002DE9F0415F
:10587800124E04461546884656F8320025F0C8FEF2
:10588800B8B106EBC50756F8350001250C4A04EBFC
:10589800840404EB080302EB830302EB8404FA8814
:1058A80039795F6042F4B0126570BDE8F041FFF7E6
:1058B800FFBEBDE8F041FFF7C5BF00BF7867030032
:1058C800706200202DE9F041324F00EB800207EBB7
:1058D80082020E465168034608685478426891F877
:1058E80004C0126805697CB9012101FA0CF10A406B
:1058F800002E37D0002A3ED02B68194236D0BDE89A
:10590800F04183681B6918470025012403EB8303D2
:1059180007EB830757F8043F26FA05F218681B7946
:10592800D20704FA03F14368D0F810C01B6803EAF1
:1059380001030ED5FBB1DCF8003019420ED08368A4
:105948001B69984718B90135032DE3D10020BDE83C
:10595800F08183B1DCF800301942F0D08368DB684D
:105968009847EFE73AB12B681942C8D0BDE8F04133
:105978008368DB681847084940F28C63074A08487F
:1059880007F094FD074807F091FD40F28C61034849
:1059980007F082FD7062002038660300246303006C
:1059A800B8630300786603002DE9F047234E82B000
:1059B8003378002B37D000244FF0030A2046A04646
:1059C8001F4D204FDFF8849012E0597CFFF77AFFD3
:1059D80048B1D9F800305A072DD188F31188BFF3A0
:1059E8006F8F504602DF33780134E0B283421BD90F
:1059F80000EB800307EB83031A7C2978002AF2D096
:105A08000029E2D1FFF75EFF0028ECD0D9F800307A
:105A18005B07E2D0CE220346009201210A4A0B48D6
:105A28000AF060F8D9E7064D2B7883F001032B7054
:105A380002B0BDE8F087CB220346EDE773EE012004
:105A480071EE012070620020D0520300D41D0020A6
:105A58000FB430B583B09DF818001E4C00EB8003DE
:105A680004EB83046378A3B1079D07A96A1E062A7D
:105A7800019121D8184AEDB21378D3B12946FFF71E
:105A880021FF08B92074657403B0BDE8304004B044
:105A98007047114B1B7863B10721FFF713FF0028EC
:105AA800F2D14FF4E063238203B0BDE8304004B084
:105AB80070474FF0FF30E7E708480268530702D104
:105AC8006FF01500E0E701212B46054A09F0EEFFCB
