:020000040000FA
:10000000A8300120D90C02008FCD0300C50C0200DE
:10001000C50C0200C50C0200C50C0200C50C020094
:10002000000000000000000000000000790E020047
:10003000C50C020000000000D50D0200C50C020036
:100040008D1002008D1002008D1002008D10020034
:100050008D1002008D1002008D1002008D10020024
:100060008D1002008D1002008D1002008D10020014
:100070008D1002008D1002008D1002008D10020004
:100250008D100200E50404008D1002008D100200D4
:100260008D1002008D100200CF0404008D100200DA
:100270008D1002008D1002008D1002008D10020002
:100280008D1002008D1002008D1002008D100200F2
:100290008D1002008D1002008D1002008D100200E2
:1002A0008D1002008D1002008D1002008D100200D2
:1002B0008D1002008D1002008D1002008D100200C2
:1002C0008D1002008D1002008D1002008D100200B2
:1002D0008D1002008D1002008D1002008D100200A2
:1002E0008D1002008D1002008D1002008D10020092
:1002F0008D1002008D1002008D1002008D10020082
:100300008D1002008D1002008D1002008D10020071
:100310008D1002008D1002008D1002008D10020061
:100320008D1002008D1002008D1002008D10020051
:100330008D1002008D1002008D1002008D10020041
:100340008D1002008D1002008D1002008D10020031
:100350008D1002008D1002008D1002008D10020021
:100360008D1002008D1002008D1002008D10020011
:100370008D1002008D1002008D1002008D10020001
:100380008D1002008D1002008D1002008D100200F1
:100390008D1002008D1002008D1002008D100200E1
:1003A0008D1002008D1002008D1002008D100200D1
:1003B0008D1002008D1002008D1002008D100200C1
:1003C0008D1002008D1002008D1002008D100200B1
:1003D0008D100200B90404008D1002008D1002007F
:1003E0008D1002008D1002008D1002008D10020091
:1003F0008D1002008D1002008D1002008D10020081
:100400008D1002008D1002008D1002008D10020070
:100410008D1002008D1002008D1002008D10020060
:100420008D1002008D1002008D1002008D10020050
:100430008D1002008D1002008D1002008D10020040
:100440008D1002008D1002008D1002008D10020030
:100450008D1002008D1002008D1002008D10020020
:100460008D1002008D1002008D1002008D10020010
:0C0470008D1002008D1002008D100200A3
:10048000084B1B78002B4FF00003836018BF02223B
:10049000036008BF0122044B4360FF23C271037253
:1004A000704700BF5815002028010800064A074B76
:1004B000DB7802604FF43672C37100238280082219
:1004C00003728271704700BFF1B30100581500201C
:1004D000064A074B1B7902604FF4B472C371FF23C5
:1004E0008280082203728271704700BF4DAF010005
:1004F00058150020054A064B9B790260A822C3715B
:100500000123828008220372827170477DE9000016
:1005100058150020064A074B5B7F02604FF490722B
:10052000C371FF238280082203728271704700BF6B
:1005300045BA010058150020044BDA7F0023036000
:100540008360034B4360C271704700BF58150020A1
:1005500000010800064A9378D27813440022826092
:100560000260044A4260C371FF230372704700BFF8
:1005700058150020880008002DE9F743C41D002805
:10058000064624F007040CBF0020204601F070F856
:10059000071E04DA6FF00B0003B0BDE8F0830EB95C
:1005A000FC42F7D4374D6989288903316B7B0330CE
:1005B0002A7B89B280B215F07AF8011EEADB3C444E
:1005C000AB78EA78002E04F10304134408BF00203E
:1005D00024F0030403FB01F118BF204601F0EEF9FB
:1005E00020440EB90028D5DB2B790446B3B1697DD0
:1005F00019446B791944FF29CCDC0330002E2A8A78
:10060000C9B220F003070CBF0020384601F046FABB
:10061000041EBFDB3C440EB9002CBBDB012001F003
:100620001DF8C8B1A97BB9B195F82C300734002B5F
:1006300024F0070715BF402325234FF48172282299
:10064000002E14BF3846002005F046FA041EA1DB38
:100650003C440EB9002C9DDBAB7CE3B12B799BB104
:100660000734002EA97C24F007070CBF0020384671
:100670000AF07EF8041E8DDB3C4466B9002C0ADAD1
:1006800088E700BF58150020012000F0E7FF10B1F7
:10069000AB7B002BE4D1744B1B6893B1A97981B17A
:1006A0000334002EEA7C24F003070CBF00203846F8
:1006B0009847041EFFF66EAF3C4416B9002CFFF6B7
:1006C00069AF6A4B1B688BB1297D79B10334002E69
:1006D00024F003070CBF002038469847041EFFF69D
:1006E00059AF3C4416B9002CFFF654AF604BD3F819
:1006F0000080B8F1000F16D0697DA1B10334002E3F
:100700002B7E24F0030708BF0020009318BF384653
:10071000EB7DAA7DC047041EFFF63CAF3C4416B9F2
:10072000002CFFF637AF072000F098FF98B1A979A9
:1007300089B10334002EAA7E24F003070CBF0020E9
:10074000384601F01DFB041EFFF624AF3C4416B9E9
:10075000002CFFF61FAFB6FA86F895F825004FEA91
:100760005818A0B1E71CEB7F297F27F00707194431
:10077000434647F00407C9B23A4601F043FB041E62
:10078000FFF608AF3C4416B9002CFFF603AF95F80E
:100790002610002959D00734002E2A8D24F007078F
:1007A0000CBF0020384614F097FF041EFFF6F2AE8F
:1007B0003C4416B9002CFFF6EDAE1EB1298D38462B
:1007C00011F0D6FC95F82010002940D095F824307F
:1007D000002B3CD06A8C0734002E02F1240224F056
:1007E00007090CBF0020484692B214F075FF071E9F
:1007F000FFF6D0AE4F4416B9002FFFF6CBAE03374D
:10080000AB7F297F27F0070795F82400194443465A
:1008100047F00407C9B23A4601F0E6FA041EFFF6B3
:10082000B9AE3C4416B9002CFFF6B4AE3EB16A8CAA
:10083000484695F82010083292B211F0DBFE2B6B7F
:100840005BB176B12C630020A6E60F46B5E7002E1B
:10085000F5D0002211461046EFE7002EF3D12046D6
:100860009AE62834FBD595E6AC000020B0000020C5
:10087000B40000201FB572B6194B5D6BE5B9BFF32C
:100880004F8F1849184BCA6802F4E0621343CB60DB
:10089000BFF34F8F00BFFDE7B4FBF6F4D3B20132D4
:1008A000002CF9D103F110026A4402F80C4C0A2220
:1008B00033B901A8A847E2E7044600220A26EDE77B
:1008C000013BDBB203F110040DEB0406B0FBF2F4C4
:1008D00002FB1400303006F80C0C2046E8E700BF9D
:1008E0005815002000ED00E00400FA0513B5114C86
:1008F0006846637B8DF80130237B8DF80030638977
:10090000ADF804302389ADF8023007F0BDFC18B112
:10091000E8219C20FFF7AEFF207E07F011FD08B113
:10092000EB21F6E7E07D07F005FD08B1EC21F0E7EB
:1009300002B010BD5815002037B50546002859D023
:1009400013F09EFF20B94FF0FF34204603B030BDB6
:1009500012F054FCB0F5FA7FF5D8284C28486563AE
:10096000002500F0F5FD2A222946A01C84F8385005
:10097000257084F82C50256384F839501CF0E2FC73
:1009800040F2011301212A4663801B23217108468E
:100990002381638140F20323A176A3810323A37300
:1009A0001F2323824FF40273638244F60113E38210
:1009B000F7236384FB23238594F83B30009394F85A
:1009C0003A3006F01BFB014620B14FF460719C20C9
:1009D000FFF750FF06F038FB044610B140F28531B6
:1009E000F5E7EFF3108572B601F058FA002DACD19F
:1009F00062B6AAE76FF01504A7E700BF58150020FC
:100A0000ED08000037B51446002840F0D7806D4D42
:100A100095F83830032B00F0CE80C1B11AB96FF0D1
:100A2000150003B030BD0139162900F2C780DFE898
:100A300001F00C1D20355F68863B6B6E8041475589
:100A40005A8C8F9DA0A395A6AA001378AB700020A6
:100A5000FFF792FD0028B7BF012302236FF00B00C0
:100A600085F83830A8BF85F83830DAE71378EB70AE
:100A7000EDE71379002BD2D05379002BCFD0128819
:100A8000FB2ACCD81A2A6388C9D91B3BE02BC6D8CD
:100A90002368A288AB604C4B9A80D8E713786A79B8
:100AA0009342BCD32B71D2E713782A799342B6D8FC
:100AB0006B71CCE713782A799342B0D86B75C6E78F
:100AC0001378002BABD05378013BDBB2F82BA6D8C0
:100AD00013889278EB823D4B9A70B8E7107868766D
:100AE0000DF0BEFDB3E71378002B98D0AB76AEE7E0
:100AF000012000F0B3FD237808B1012B8FD9AB732F
:100B0000A5E713882B82A2E71378AB719FE7072034
:100B100000F0A4FD10B92378012B80D9072000F044
:100B20009DFD18B12378002B3FF479AF2378EB7447
:100B30008DE71378082B3FF672AF2B7587E7138884
:100B4000FF2B3FF66CAFAB7481E71378EB767EE753
:100B500013780E2B3FF663AF2B7778E723681C4A98
:100B60002B62636853602389138170E713786B7776
:100B70006DE71378EB776AE71378AB7767E713785D
:100B800085F82A3063E795F83B3095F839200093D3
:100B9000617895F83A30207806F030FA00287FF432
:100BA00040AF6378012B7FF652AF11F0C7FA0028EF
:100BB0007FF44DAF33E74FF0FF3032E76FF02C009A
:100BC0002FE700BF58150020601500206E1500208B
:100BD00078150020F8B50D46064630B329B311F05C
:100BE000070422D1124F97F83830012B02D16FF051
:100BF0000B00F8BD032B02D14FF0FF30F9E700F0F6
:100C000005F90028F8D02846FFF7B6FC0028EEDBEF
:100C10001BF039F93046396B07F0E0FCFFF766FE50
:100C20000323204687F83830E3E76FF01500E0E74C
:100C30005815002010B5074C94F83830032B03D119
:100C400007F0E8FC08F024FE14F0E4FE002084F82D
:100C5000380010BD5815002050B1074B03F11402A5
:100C600053F8041B934240F8041BF9D1002070474D
:100C70006FF01500704700BF38430400074B10B5F4
:100C800093F838403CB907F029FC0320044900F0F0
:100C9000DDFC204610BD4FF0FF30FBE7581500206B
:100CA000D1040000074B10B593F838403CB907F069
:100CB00029FC0220044900F0C9FC204610BD4FF079
:100CC000FF30FBE758150020AD04000038B5094D92
:100CD00095F8384054B907F037FC0120064900F078
:100CE000B5FC0123204685F82C3038BD4FF0FF308D
:100CF000FBE700BF5815002081040000054B10B52C
:100D000093F838401CB907F077FB204610BD4FF030
:100D1000FF30FBE758150020054B10B593F838401D
:100D20001CB917F0FCFE204610BD4FF0FF30FBE76A
:100D300058150020054B10B593F838401CB917F032
:100D4000F1FE204610BD4FF0FF30FBE758150020A4
:100D50000A4B10B593F838406CB907F009FC052030
:100D6000074900F073FC074B074A20461A60074BFF
:100D7000074A1A6010BD4FF0FF30FBE758150020FE
:100D8000F5040000AC0000201DF10000B0000020C0
:100D9000F11C0000094B10B593F838405CB907F01E
:100DA000FFFB07490A2000F051FC0C20054900F028
:100DB0004DFC204610BD4FF0FF30FBE758150020DA
:100DC0001505000039050000074B10B593F83840B1
:100DD0003CB907F01FFB1120044900F037FC204606
:100DE00010BD4FF0FF30FBE75815002055050000FF
:100DF00002680020014B1A60704700BF9415002064
:100E0000014B1B68184700BF94150020024B18685F
:100E1000003818BF0120704794150020F7B504462C
:100E20002D4E071D2C48376008F04AFD0228054664
:100E300006D12949204613F0E8FF284603B0F0BD4B
:100E4000042842D13378092B0AD0262B1ED03146F4
:100E5000204600F043F8B0F5817F2DD3722112E0D7
:100E600005213E2013F0A4FF0028F0D1F37801A95A
:100E70003279684643EA0223ADF8003014F06AF98B
:100E80000028CFD053210820FFF7F4FC1A213E2080
:100E900013F08EFF0028DAD17368694601A8C3F306
:100EA0000F23ADF8043011238DF8063014F0A4F9A7
:100EB0000028B7D06521E6E70028B3D0A1782078D4
:100EC00013F076FF0028B8D1ACE70828B5D1024965
:100ED000204613F0D2FFB0E7981500202DE9F84323
:100EE0000B7805460C46013B832B00F2C782DFE8F6
:100EF00013F09A009E00A2005301C5021B012101BC
:100F000027012D0133013701390149014F018400C7
:100F1000C502A700C502AB003D0143015D016301AD
:100F20005701C5026901C5027C01AC01B201B801DB
:100F3000C502BE01CA01D001C50200020E02620252
:100F4000400254025C0246024E0214021A022002BF
:100F500026022C02320236023A029D02A302B1029C
:100F6000B70268026E028C027402C502C502C50295
:100F7000C502C502C502C502C502C502C502C50239
:100F8000C502C502C502C502C502C502C502C50229
:100F9000C502C502C502C502C502C502C502C50219
:100FA000C502C502C502C502C502C502C502C50209
:100FB000C502C502C502C502C502C502C502C502F9
:100FC000C502C502C502C502C502C502C502C502E9
:100FD000C502C502C502C502C502C502C502C502D9
:100FE000C502C502C502C502C502C502C502C502C9
:100FF000C502C5027A02800286020E23B1F80320E0
:101000000B7042F283039A4209D10623637066781B
:10101000214628460236324613F006FE5AE03521B4
:10102000C720FFF727FC0C230B700823EEE71A23D9
:101030000B700123EAE73E230B700223A370E6E75F
:101040003E230B700B23F9E7292000F071FA28B139
:101050003E232370222363702923EFE70A2000F048
:1010600067FA3E2305F1080204F108012B70A0B3D2
:101070000A23AB70E378EB70A3882B71A3881B0A5B
:101080006B71A379AB71E379EB71A368AB608B886B
:1010900093801F22D4F80E30C5F80E30638A6B821D
:1010A00063696B61238B2B83638BAB76638B1B0A2A
:1010B000EB76A38B2B77A38B1B0A6B77E38BAB773A
:1010C000E38B1B0AEB7794F8203085F820306A70A8
:1010D000023296B23046BDE8F8830123AB70E37864
:1010E000EB70A3882B71A3881B0A6B71A379AB717A
:1010F000E37903F00103EB71A368AB608B88938005
:101100001322638BAB73638B1B0AEB73A38B2B7460
:10111000A38B1B0A6B74E38BAB74E38B1B0AEB741E
:1011200094F820302B75D2E73E230B7004234B70CC
:10113000142383E73E230B700C234B7004237DE7BD
:101140003E230B700A234B70032377E73E230B707B
:101150000D234B70052371E705232370042355E706
:101160000823FAE730230B7003234FE73E230B706D
:101170000B234B70072361E73E230B7006234B7054
:101180000C235BE713230B708B789B0001333DE747
:1011900057230B70022339E73E230B700D234DE7D5
:1011A0003E230B7001234B70112347E73E230B7046
:1011B00006234B70122341E73E230B7009234B702B
:1011C00013233BE73E230370242000F0B1F90028ED
:1011D00015BF24230E2313260F263246A11CE81C1C
:1011E000AB7013F021FD721C71E73E2303702520C4
:1011F00000F09EF9C0B125230A26AB70D4F8023066
:10120000C5F80330D4F80630C5F807306389A5F86F
:101210000B30F01CE27A04F10C01284413F004FDB9
:10122000E27A0132324452E70F230726AB7063881B
:10123000A5F8033023796B716379AB71A379EB71F6
:10124000A37A2B72E37A6B72E3E73E230B700323DE
:101250004B701023F2E63E230B7005234B702023C6
:10126000ECE63E230B7009234B702123E6E63E2378
:101270000370262000F05CF9002815BF26231823F0
:1012800017261326A9E73E230B7004234B70272350
:10129000D4E63E234FF000088146037028234646DB
:1012A0008370D1F8023049F8033FAA795FFA88F3D6
:1012B0009A4205D8721D92B2002A3FF4A8AE06E702
:1012C000B21D331D08F10108A118A25809EB030053
:1012D00049F80320063131F8023C063020F8023C80
:1012E00010F8017C3A46063713F09EFC3E44B6B235
:1012F000DBE73E232A200B7000F01AF918B12B23EC
:1013000063702A239AE61D236370192396E63E2311
:101310000B7007234B701A2390E63E230B7020239B
:101320004B702C238AE63E230B704C234B702D23ED
:1013300084E63E230B7004234B702E237EE63E236F
:101340000B7022234B702F2378E63E230B7016235D
:101350004B70302372E63E230B7031236EE63E2342
:101360000B7032236AE63E230B7002234B7033234B
:1013700064E63E230B7014234B7022235EE63E236B
:101380000B700B7C5B000F334B701D2356E63E2326
:101390000B7003234B701E2350E63E230B700B7D16
:1013A0005B0013334B701B2348E63E230B70032373
:1013B0004B701C2342E63E230B7005234B701F230A
:1013C0003CE6FF230B700B234B70A22336E6FF2372
:1013D0000B7005234B70A32330E6FF230B700D2306
:1013E0004B7080232AE6FF230B700D234B70822362
:1013F00024E6FF230B7002234B7083231EE6FF239A
:101400000B7004234B70842318E6FF23C21C037067
:1014100081238370D1F8033003F1280153F8040BC2
:101420008B4242F8040BF9D1292250E63E230B707F
:101430000C234B70232301E6124B1B78002B14BFA7
:10144000FF233E230B704FF00E034B7014BF852318
:101450003723F3E53E230B700A234B703523EDE56C
:10146000084B1B78002B14BFFF233E230B704FF05B
:10147000FE034B7014BF86232B23DFE540F262216D
:10148000CEE500BF9C160020074B4FF0FF3141F620
:10149000FF72C3E9001205490022C1E900221F21A1
:1014A000C3E90212704700BF40000020A0160020D0
:1014B0003F280CD801380B4BC0F3421200F01F003C
:1014C00053F8223023FA00F000F001007047FF28A3
:1014D00006D04038044BC0F3421200F01F00EFE783
:1014E0000120704740000020A0160020074B014655
:1014F000006849681A4603C240F48C221A6041F021
:10150000107242F4FF625A60704700BF4000002032
:101510000246024B0068516803C37047A0160020C2
:101520000246024B0068516803C370474800002020
:101530000138064BC0F3421200F01F0003EB820398
:101540009B6823FA00F000F0010070474000002083
:10155000014B1860704700BFA816002007B5FFF7C1
:1015600093FF15F0A7FF044B1B6813B10190984738
:10157000019803B05DF804FBA816002070B50C8834
:10158000C27CA6B2C4F30E04931C058804F11802B1
:101590001D44825AADB21A4443882A44013AB2FB30
:1015A000F5F202FB054292B29342044B8BBF3340EB
:1015B000B34313439BB20B8070BD00BF0080FFFF9D
:1015C00008B54B1E062B04D84FF4D1711520FFF738
:1015D00051F90A4B994202D940F2A311F6E719B921
:1015E00000B10160084608BD28B103680022C3E9C4
:1015F00001211A1D1A600431F4E700BFFAFFFF7FD2
:1016000010B5114B00EB41041A786389B3FBF2F378
:1016100003FB0223013A1A44B2F5706F027928BF26
:1016200000231A448378B2FBF3F0194403FB102023
:10163000091AB1FBF3F003FB101313446FEA4343A1
:101640006FEA5343638110BDAC160020024B03EBDD
:1016500080004160704700BFAC160020034B03EBD5
:1016600080004068003818BF01207047AC16002089
:101670002DE9F04F10F0070A85B0054604D040F27E
:1016800061111720FFF7F6F8544F04464FF0010B95
:1016900007F15406B146B04657F8043B8DF80BA04D
:1016A0003BB101A898479DF80A30082B01D9E821E1
:1016B000E7E79DF80B1081BB05B13160B94506F134
:1016C0000406E9D12DB30023DFF814E114221E46ED
:1016D0008EF8003058F82200013A60B190F804A06A
:1016E0008178BAF1FF0F64D14FF000078E42077185
:1016F0003CBFCEB20123511CECD10BB18EF800607F
:10170000142640F6FF6A58F82670002F63D1013E78
:10171000F9D2601B05B0BDE8F08F9DF80AC04A1DE4
:10172000BCF1020FE64604EB420438BF4FF0020E54
:1017300053000EF1FF300444CEF100002040BDF80C
:1017400008406444CCF1000C013C04EA0C04B4F5FC
:10175000803F01D3F82194E775B1C31A33609970C3
:101760001C8083F803B09DF80C201A71019A4FEA8F
:10177000124C1A81A3F806C004FB01049EE758F836
:101780002C90B9F1000F06D099F804B0D34504BFEE
:1017900099F802904F440CF1FF3CBCF1000FEEDAD7
:1017A0003944FF29A2D90BB18EF8006040F227110D
:1017B00067E794460027F0E707EB410309F10109C9
:1017C0003846A3F80AA0FFF71BFF5FFA89F1BB7840
:1017D0008B42F1D89BE74FF00009F6E7B0160020E6
:1017E000AC160020034B03EB8000806D00B18078C5
:1017F000704700BFAC160020F8B54FF6FF730546E2
:101800000380184B03EB8101886DB8B186780379AA
:10181000B3FBF6F206FB1233DBB219460A1D00EBEE
:101820004202B2F902705488002F09DB0131B1FB8A
:10183000F6F206FB1211C9B28B42EFD10020F8BDBF
:10184000FF29FBD0C4F30E03C4782B8024B94FF4D6
:10185000D5711720FFF70EF85380BDE8F84013F05C
:10186000E1BE00BFAC1600201D4B03EB810170B53B
:101870008C6D054644B3030404D54FF4DC71172086
:10188000FEF7F8FF0146204613F0AFFEFF280146A1
:1018900004D02046BDE8704013F0C4BEA078B5FB6C
:1018A000F0F300FB1353DBB219460A1D04EB4206AA
:1018B000B6F90260002E09DB0131B1FBF0F200FB4A
:1018C0001211C9B28B42F0D1002070BDFF29FBD0AC
:1018D0008B4204EB42021CBF0023E3705580D8E723
:1018E000AC160020094B03EB810110B58C6D01464D
:1018F000204613F07AFEFF28014604D02046BDE8BA
:10190000104013F08FBE002010BD00BFAC160020A9
:10191000F8B5104B074603EB81018C6D014620465C
:1019200013F063FEFF28054611D0E688238953EAA9
:10193000064606D00146204613F074FE014638469E
:10194000B04720462946FFF75BFE0020F8BD052082
:10195000FCE700BFAC16002038B50E4B0446827978
:1019600003EB8203986D08B9052038BD8278E179D0
:101970009142F9D24B1CE37100EB41035D89B3F94D
:101980000A30002BF3DBA58013F04CFE2060002012
:10199000EBE700BFAC16002008B5074B03EB810353
:1019A0000146986D13F021FEFF2804D140F21E215C
:1019B0001720FEF75FFF08BDAC16002070B5044687
:1019C00010F003000E4603D04E211820FEF752FF00
:1019D000FFF7F6FD054624B1034831460460FFF7E2
:1019E000EFFD284670BD00BF581700202DE9F347D2
:1019F0001C4C90461E46074622680D469DF828302E
:101A00009DF82CA01AB960211820FEF733FF1A4662
:101A100009214046019313F053FC52461FFA80F906
:101A20000921304613F04CFC80B209EB000120681C
:101A300013F0B0FD019B386018B9286002B0BDE812
:101A4000F08700EB0904414609222C60386813F046
:101A5000EDFB534609223146286802B0BDE8F04745
:101A600013F0E4BB5817002070B50E46044613F07F
:101A70003AFC0546304613F036FC044B2A18214642
:101A80001868BDE8704013F0A9BD00BF58170020CA
:101A9000014B186813F072BD581700201F2AF8B5C3
:101AA00004460ED89200033222F00303B3F5803FC0
:101AB0002ED2194DB4B1A00711D05F210920FEF735
:101AC000D9FEFF2A4FEA420304D9FF329A42A8BF47
:101AD0001A46E8E77C2BB8BF7C231A46E3E7297057
:101AE0006C602B8122F0030228230127120403FBE0
:101AF00001F06B680025120CEEB28E4200D3F8BDE7
:101B000014B126181F705E60104401352833F3E7C6
:101B10004FF0FF30F3E700BF5C170020144A0021AC
:101B200038B553681478C8B2844203D8AB21092071
:101B3000FEF7A0FE1846013128330578002DF2D0BB
:101B400000218170012412898161051D4470920871
:101B5000C16100F12001446821F8022B994245F847
:101B6000044B1444F8D100234361037038BD00BF17
:101B70005C1700200A4B1B89B3F5FF7F4FEA9300E7
:101B800006D25A089B1A9BB2984238BF1846704733
:101B9000B3F5EE6F01D8FF22F4E740F27263F3E78A
:101BA0005C1700202DE9F8434B7880460C4602F084
:101BB000040602F0FB07D3B1DFB12E4BD4F804903A
:101BC0001D89B7BB0123AD084A46211D637004F18E
:101BD000280004F12003A761E76123F8025B984223
:101BE00041F8042B2A44F8D10023636101E0002F5F
:101BF000E3D0FF23A370002E18BF0226A3191B7D7C
:101C0000032B03D1022F1CBF0136F6B2A319012208
:101C10001A7506F10C02002304EB860624F8123034
:101C20007268A3704046C8F80020A8F80430BDE8E8
:101C3000F883002114226170A0181BF083FBB5F516
:101C4000FF7F0FD26B08ED1AADB209EB0502C4F8A5
:101C500004902584A2606384C4F80C90A58422615A
:101C6000E384C6E7B5F5EE6F4FF0FF03EBD940F222
:101C70007265EAE75C170020F7B5D2000B684000F8
:101C8000002502F07802CDF8013000F006008B88C4
:101C90000243ADF805300D4B42F001021E785F683B
:101CA0008DF80020EBB29E4201D800240AE0C5EB7B
:101CB000C5040722694601353C4420461BF019FB48
:101CC0000028EFD1204603B0F0BD00BF6817002008
:101CD000014B1878704700BF68170020034B0021A4
:101CE0001A785868C2EBC2021BF02CBB68170020A0
:101CF00010B50C4650B1830703D020214120FEF7D8
:101D0000B9FD044B58601970FFF7E8FFC4EBC4003D
:101D100010BD00BF68170020F8B504460D461646F2
:101D2000FFF7AAFF38BB154B93F800C05F68034666
:101D3000DAB2944501D807201CE0C3EBC30201339B
:101D4000B85CB918024610F00100F1D1630022F02E
:101D50007F02F60003F0060306F0780643F0010365
:101D6000334313430A4602F8013B2B68C1F80130A4
:101D7000AB889380F8BD1220FCE700BF68170020F5
:101D80002DE9F84305460C46F7200521914613F04E
:101D900097FA061E22DB1DB906FB04F0BDE8F883A6
:101DA00015F0030703D098211920FEF763FDDFF833
:101DB0003480C8F81050A5B2A8F81460BBB29D4298
:101DC000EAD9B8F814C04B46D8F810000522F7211C
:101DD00007FB0C00013713F029FAEFE74FF0FF3053
:101DE000DCE700BF7017002007B5CDE900230B46E4
:101DF00003490246081D13F0BAFD03B05DF804FB69
:101E00008817002013B5064CCDE900230B46024687
:101E100004F1080104F10C0013F0A9FD02B010BD9B
:101E200088170020024BD3E9002113F0C6BD00BF84
:101E300088170020034B1B28D3E9022138BF1B2041
:101E400013F0BBBD88170020024B0146D3E90020E8
:101E500013F0C4BB88170020024B0146D3E90220CF
:101E600013F0BCBB8817002008B54B1E032B03D909
:101E700023219020FEF7FEFC002801F1010114BF90
:101E80000C230523C9B203EB8101034B013121F07F
:101E90000101197008BD00BF981700201E4B0122D8
:101EA0004FF0FF3000211B685A60C3F80803C3F8E5
:101EB0000015C3F80425194B1B685A60C3F80803C2
:101EC000C3F8001540F6FE71154B1648C3F8081507
:101ED00001680BB2002B0BDB01F01F015B098A408C
:101EE0002033114941F82320BFF34F8FBFF36F8F89
:101EF000026813B2002B09DB01215B0902F01F020B
:101F0000603301FA02F2084941F82320044B40F6FD
:101F1000FE72C3F8082570472C27002028270020D0
:101F2000002008504027002000E100E00A46064853
:101F30003C2302F8033BC368C1F8033003695360D4
:101F400043699360704700BFA0170020024B5A8C72
:101F500002435A845B6A1847A0170020014B0021F6
:101F60005B6A1847A017002010B5154C0FF05EFCF7
:101F70000EF002FF208DFFF7F1FF237E63B12246B2
:101F8000104904F1190052F80C3BE3606368536098
:101F9000A368936017F0C4FD0B4B228D93E80300F8
:101FA00008F06EFC236B188808F096FBA36B94F87E
:101FB000341094F835009847002384F83C3010BD65
:101FC000A01700202D1F0000CC170020034B93F812
:101FD0003C300BB1FFF7C8BF704700BFA01700200F
:101FE00070B5254C0646636C256B236495F89430D8
:101FF00094F848000BB1031DD8B295F875102EB9AE
:10200000FF2803D195F874308B4201D00FF096FA77
:1020100095F8943053B3E06C0FF0EAFC94F82C3050
:10202000E16C003B206C18BF012384F87030D5E9C7
:102030003C23C4E918230EF0B7FD5EB995F875305E
:10204000033B012B2B8F94BF28200020184480B223
:102050000FF030FDA88E0FF0E9F995F8741000200C
:102060000FF088FD022384F83C3070BD206C0FF027
:10207000BFFC0EF081FEE0E7A01700200138C0B2DF
:10208000032808B504D94FF48E610620FEF7F2FB51
:10209000014B185C08BD00BF5043040008B5094B54
:1020A00093F83C20022A04D040F231212720FEF789
:1020B000E1FBDA7A42F00102DA72BDE80840FFF78C
:1020C00053BF00BFA017002003280B4B10B50446D8
:1020D00005D19A6FD278022A01D1002010BDD86FA5
:1020E00013F097F90028F9D1032CF6D006F0CEFCB6
:1020F00080F00100C0B2F1E7A017002038B5204CF5
:102100000546D4F88030984708B9012038BD94F8C6
:102110003430002BF9D194F82C301BB9012D03D0A9
:102120000020F3E7002DFBD194F88430DD06C3F3E3
:10213000001005D5A36F187800F00300FFF7C4FF67
:10214000636CD4F888201B78C3F300132AB9B4F861
:102150008C2013B1B2FA82F35B0994F82C10628CD4
:1021600039B1910705D5A36FD878023818BF01207F
:10217000CCE7002AC9D10028D2D183F00100C5E7FD
:10218000A017002010B5094CD4F8883023B940F2CC
:10219000CE412720FEF76EFBB4F88C201846216C48
:1021A000033212F041FD206410BD00BFA0170020D3
:1021B0002DE9F043344C87B006460F4694F83C3086
:1021C000012B5FFA83F904D040F2DC412720FEF7AF
:1021D00051FB256B04A8A16F13F01EFC95F8843009
:1021E0009DF8108053B10021042085F88410FFF77A
:1021F000ADFE94F82C300BB185F88690B8F1030F42
:102200003BD195F88A301BB9A16F0220FFF79EFEE3
:10221000032300E0012385F88A3095F89430D3B188
:1022200094F82C30216B003B94F8482091F875000D
:1022300018BF01230392D5E93C8984F87030C4E9C2
:102240001889FFF71BFF00210346039A0091022023
:102250000E490EF041FC26B107B0BDE8F043FFF790
:1022600083BE002FF8D03046FFF748FF0028F3D197
:1022700007B0BDE8F043FFF7B3BE9DF81430002B64
:10228000C8D00223C7E700BFA0170020F017002026
:102290002DE9F341744C0023256B8DF8053095F83A
:1022A000942094F848300AB10433DBB295F87410E6
:1022B00028B9FF2B03D195F875308B4202D0FF204F
:1022C0000FF03CF995F88A30032B00F2BF80DFE86D
:1022D00003F0023A9CAF94F88E306448ADF80630B3
:1022E000A5F8643006F0A8FB80B1A16F4FF48070B0
:1022F000FFF72CFE0121A36F85F88510DB781B2BDF
:102300001DD105F110000FF053F918E00DF1050291
:102310000DF10601E06F13F00DF8A06798B195F884
:10232000CF3083B99DF805302BB90380012183702C
:10233000A06F17F008FBA36FBDF806205A700123A9
:1023400084F88F3001E04A4BA367A16F95F88B208A
:102350000B78D20003F0030603F0F30302F0080247
:102360003046134395F88C20920002F00402134388
:1023700023F010030B70FFF7A7FE0028A06F14BF17
:1023800010230023027890F801801343037017F0A4
:10239000EBFA95F89330071E18BF0127002B58D091
:1023A000B8F1000F55D0E06C0FF022FB94F82C3000
:1023B000E16CB3FA83F3A06F5B0984F87030D5E960
:1023C0003A23C4E918233A460FF08AFD18B9A16FE1
:1023D000E06C0EF0E9FB304613F03FFBE88E0FF0A7
:1023E00025F895F8751001200FF0C4FBA26F0123AA
:1023F000118884F8E030A4F8841091781D4A84F89C
:102400003C30917002B0BDE8F081B5F864300DF158
:1024100005020DF10601E06FADF8063012F08AFFFB
:10242000A06700288BD140F2D1212720FEF722FAA5
:102430000E4806F001FB10B940F2DB21F5E7A36F6F
:10244000DB781B2B7FF47BAF01215AE740F2E921B7
:10245000EBE7A06F0FF0CCFA0EF08EFC3946A06FC0
:1024600019F086FDB7E700BFA0170020181800205C
:102470003018002024180020064B10B593F83C209B
:1024800002F0FF0422B91C7608F0F2F9204610BDD4
:102490000C24FBE7A01700200A4B0B4A70B5064638
:1024A0000D461A60FFF7E8FF18B1ED212720FEF76F
:1024B000E1F9064C012104F1900017F044FA66643A
:1024C000E56470BDB8000020502C0000A01700206B
:1024D000024B012283F8E120704700BFA0170020C3
:1024E000F0B585B0954C02AE0A9F86E8030094F8DB
:1024F0003C1001F0FF0511B90AB103B127B94FF43F
:10250000BE712720FEF7B6F996E8030004F12C0C03
:1025100084F8E15084F8345084F8E25084F835505F
:1025200084F8E05084F88F50658425856262C4F891
:102530008030A7638CE80300256B0FF05BF80EF08A
:102540001BFC95F97C000FF0B9F8A86A0FF034FA7B
:10255000286A0FF0B9F895F8A4000FF0BFF894F8C6
:102560002C00002840F0A38095F87420744B03EBF6
:10257000820359684FF47A7301F5FA71B1FBF3F1F4
:102580006E310FF03FF96F4B6F4E05F58477186889
:102590000FF018FA6B69E367AB69C4F8E43005F132
:1025A000F8031868083353F8041C3246BB4203C2D0
:1025B0001646F6D15968D5F80801236B634A03C261
:1025C00093F88E2093F87400A2F12601012903D913
:1025D00093F88F10262972D194F82C20002A6BD101
:1025E00093F80A1213F029FA064605F13C07314622
:1025F000384617F057FB314616F07FFDB5F84830E6
:1026000095F87510984228BF184684F88E00384611
:1026100017F00EFB95F8751095F894700429B5F82D
:10262000506008BF032116F068FD0FB9043080B276
:10263000B04228BF3046C6B284F8E86007F058FAC6
:1026400028B107F05BFAB04238BF3046C6B294F802
:102650002C7084F84860002F55D195F893308BB1D9
:10266000012395F8740084F87030D5E93A23C4E961
:102670001823FFF703FDFB2203463349042000978C
:102680000EF02AFA0120FFF703FE002323606360A7
:10269000A360B5F8883063802B88238095F8A43038
:1026A0002371AB6F0BB101221A6005B0F0BD95F834
:1026B0007520C421012064E793F8A21292E7213A21
:1026C000012A0ED824290ED094F82C20B2B193F808
:1026D0002E315A0710D413F0010183D103F0020107
:1026E00080E724290AD194F82C203AB193F82E21BE
:1026F00093F86D301340ECE7042173E7032814BF0F
:102700000646042671E795F8943093B1012395F8B5
:10271000750084F87030D5E93C23C4E91823FFF72D
:10272000ADFC0022034608490092022032460EF01A
:10273000D3F90120FFF754FCA7E700BFA017002042
:1027400050430400B8000020F017002008180020B3
:1027500008B5114B93F83C201AB9BDE80840FFF7C3
:1027600003BC93F82C2042B993F83C30012B12D0D3
:1027700040F20F212720FEF77DF893F83C20022A33
:1027800002D040F21321F5E71B6BD3F8E001BDE85E
:1027900008400FF063B908BDA0170020014B187660
:1027A000704700BFA0170020014B93F8E00070476E
:1027B000A0170020044B93F88F201AB9188DC0F38E
:1027C0000030704701207047A0170020024B188D81
:1027D000C0F3C020704700BFA0170020014B93F842
:1027E000E2007047A01700202DE9FF41324C03465C
:1027F0000E4602A8216C256B13F00EF913F00108A8
:102800009DF80C7003F002002BD0002384F8E9300F
:1028100090B1FFF7B7FC0DF1020201A9D4F8E40072
:1028200012F0A2FE019812F085FE012230603946B6
:10283000D4F8E40012F02DFEB8F1000F0ED0D5E967
:102840003C32013342F10002C5E93C3295F88C304C
:10285000012B0CBF0023012385F88C3004B0BDE8A8
:10286000F08194F8E930032B20D801A252F823F02C
:1028700011280000812800009B2800009B280000F0
:102880000028EBD0FFF77EFC00223946D4F8E400A4
:1028900004B0BDE8F04112F0FCBD0028DED0D4F851
:1028A000E40004B0BDE8F04112F05ABE40F27A41B3
:1028B0002720FDF7DFFF00BFA01700202DE9F04F14
:1028C0000023B24C87B080468A46276BCDE902339D
:1028D00094F83C30022B04D040F25F512720FDF7E2
:1028E000C9FF238D590606D44020FFF737FB238DFF
:1028F00043F040032385216C04A813F08DF89DF864
:10290000146097F89430B8F1000F00F045819DF8FD
:1029100010909DF811B07BB10EF03CFA60B95EB139
:1029200097F88C305B4507D1012384F83530FFF7E9
:102930001BFB07B0BDE8F08FB1B2A4F88C10F9B161
:10294000D4F8E40012F086FDC4F88800238D9DF8C9
:10295000122043F40073238597F88B309A4200F0DD
:10296000BD80256B95F88A30002B40D0022B11D109
:1029700002A9E06F12F000FD28B940F21441ADE762
:10298000C4F88810E2E7D5E93A32013342F1000297
:10299000C5E93A32002194F82C3085F88A103BB111
:1029A00095F8863023B1102085F88610FFF7CEFA0F
:1029B00095F885309BB1002185F8851006F04EF81A
:1029C000002110B940F22B4188E70820FFF7BEFA3A
:1029D000D5E93A32013342F10002C5E93A3295F8BD
:1029E0008B30012B0CBF0023012385F88B30238D06
:1029F000002543F40063238597F88C305B456FD046
:102A0000002648464FF0000913F027F897F8933056
:102A1000B3B194F82C3097F87400B3FA83F35B09E0
:102A200084F87030D7E93A23C4E91823FFF726FB6E
:102A300000220346564900920420FB220EF04CF877
:102A4000BAF1000F00F0D1800FF0F4F8002E40F042
:102A5000F2804FF0010985B194F82C3043B1B4F8FD
:102A60000720B4F805301343B7F88820134304D087
:102A7000B4F809300133A4F80930B8F1000F00F0C0
:102A8000E080B4F805300133A4F80530002384F861
:102A9000E230404807F00EFE029830B112F04AFDD5
:102AA000216B0022027206F04FFF039B33B1216BB2
:102AB00000221A720C22039806F014FFB9F1000FDD
:102AC0007FF435AF238D1B063FF533AF8020FFF732
:102AD00045FA238D43F0800323852AE745468BE79B
:102AE000B9F1020FD4F830B025D8B9F1000F2FD0CA
:102AF00076B3238D9BF894B043F4805323850EF076
:102B0000A5FC042894F8E83007D1BBF1000F14BFEE
:102B10001B221F22934228BF1346B3422AD3D4F864
:102B20008830002B3FF46CAF94F8E13063B3202081
:102B3000FFF714FA64E7B9F1030F09D1238D0120DF
:102B4000216C43F480538BF884002385FFF7FEF952
:102B50009BF88C30013B18BF01238BF88C30002E82
:102B60003FF44EAFDBE93C32013342F10002CBE9E6
:102B70003C3245E794F83430012043F0100384F8E8
:102B8000343010F0DBFB3BE746463AE7A017002065
:102B9000F0170020CC1700200BB10EF00FF994F8BD
:102BA000E230013384F8E230238D43F480632385DF
:102BB00097F87530033B012B0FD8012010F0BEFBB6
:102BC0000EF044FC04280CD11B2E4FF0000694BFDD
:102BD0004FF000094FF0010905E006F089FF0028D9
:102BE000EBD10026B146354610E794F82C2094F836
:102BF000E2303AB1628C120704D5A26FD278022A71
:102C00003FF422AF012B3FF61FAF0120FFF776FA0A
:102C100000287FF419AF1EB103A90120FFF7E4FDDE
:102C20000020FFF735FB002E3FF415AF03A902206B
:102C3000FFF7DAFD0FE703A90320B146FFF7D4FD44
:102C400009E7B4F807300133A4F8073021E700BFE3
:102C50009D200000BD280000B1210000CD1F000014
:102C60002DE9F04F04461E4600230D4690462DEDFB
:102C7000028B8BB090F87570069316F03CF894F8C0
:102C8000C8310B2B04D940F2FB310620FDF7F2FDD1
:102C9000874A32F813B094F88F308344442B1FFADC
:102CA0008BFB3DD00E2B94F88E2039D0443A534202
:102CB0005341039388F001030493B8F1000F5FD1EF
:102CC00094F80C32032B5BD1039B002B58D0B4F843
:102CD000A032AB4254D1D4F814322046B4F8E421E7
:102CE00041F64B59C4F80032E369C4F80432B4F831
:102CF0005A321344C4F808320BF078F9D4F8A832E9
:102D000094F8B4224B458CBF4FF000094FF00109F5
:102D100042B9E26993421BD0208819F090F817E07D
:102D20000123C6E7208819F087F818B940F23E71F0
:102D30003020ABE7B4F8B032C1466386B4F8B232A3
:102D40008381B4F8A032A0F80E804381013B038256
:102D500094F87E30002B41D1B9F1000F41D1D4F865
:102D6000A43284F87E90E362B4F8A2322386D4F8C9
:102D7000A832E361D4F8AC326362022384F80C32E7
:102D8000B4F858A204F50A73B4F88890A5EB0A0ABF
:102D900008EE103AA5EB0909DFF818810FFA8AF35B
:102DA0000FFA89F9002BB8BFD4E9902394F80CA24C
:102DB000ACBF3246C4E994235FFA8AFABFBF00234E
:102DC000012284F823324B46BAF1030F00F2CE8180
:102DD000DFE81AF013002F0172004F01B9F1000F64
:102DE00005D04FF04D13636300232387B7E74FF0FF
:102DF0009613A4F838906363B1E794F8751094F8CB
:102E0000DE0116F0A1F90746E06A5946384410F091
:102E1000A9F95946C4F81002E06910F0A3F994F832
:102E20007E3007A9002B18BF4FF0020A5044C4F8A7
:102E3000140208A80EF006FF079BD4E99401009342
:102E4000DDE908231AF0F2F88146204612F027FE49
:102E5000D4F85C3294F87500D4F82CA006930FF0E7
:102E600037F8069B00F52240D4F81012BB3BB13076
:102E70009A444FF47A73AAEB010A3031B0FBF3F0B5
:102E80005744238EA7EB090703EB41013F1A94F83F
:102E90007500069712F010FED4F85C22069BC8F865
:102EA00000009B1ACC2B66D840F2DE4140E700BF01
:102EB000744304008C180020E36A5946D4F80402D5
:102EC000184410F04FF95946C4F81002E06910F0A8
:102ED00049F994F87E30002B08BF4FF0000A5044A7
:102EE000C4F81402204612F0DAFDB4F8E431E76ABF
:102EF000D4F804A2002B40F09780002E00F09480BC
:102F000094F8750057440EF0E3FF00F52240D4F822
:102F100010324FF47A7BB130BB3FB0FBFBF9FF1AA4
:102F200094F87500D4F848321F44C31ED4E99012B7
:102F3000012BA7EB010774D90EF0CAFF00F2E730AE
:102F4000B0FBFBFBA7EB09075F44D4F81012D4F8E1
:102F50000032D4F80822303194F8750002FB0311D6
:102F6000238E069703EB410112F0A6FD0123C8F85A
:102F7000000084F80C32E7694FF00009D4F81432ED
:102F800004F13C00A7F5A277069984F82892FF1A6D
:102F9000D8F800309F4228BF1F46D4E99432C4F8C5
:102FA000E0715B1842F10002C4E98E3216F03EFE79
:102FB0003844A4F85852C4F82C02D4E98E23C4E94A
:102FC00094230AF001FA20B1D4F82C321E33C4F84D
:102FD0002C32B4F8D01184F830924D1B2DB2002D54
:102FE000C4BF022384F83032039B002B40F0C18021
:102FF000002E40F0BF8094F80C32002B00F0D780F8
:10300000E16918EE100AD4F81432C91A16F044F81F
:1030100080B2002800F0CB80169B03B118800120FD
:10302000D5E04FF03E0B8DE75744D4F81032FF1A2D
:103030008BE7D4F81422E169D4F80872891AD4F81D
:1030400000024B43218E0693B4F8E4319944FB43CC
:103050009944D4F81032303300FB073394F87500EC
:1030600002FB093301EB430112F026FDC8F8000012
:1030700081E7E0695843069056B3B4F8E41139BBD0
:1030800084F82312D4F8141201FB130A94F88E303A
:10309000262BCDF818A003D094F88F30262B09D119
:1030A000B4F8A032EB1A1B0404D494F8A332002B1A
:1030B00018BF1F46D2B3B4F8E431BBBBD4E99023A8
:1030C000D4E9920182428B4108D340F232512FE67B
:1030D00094F8231200297FF44EAFD3E794F87500DB
:1030E000C31E012B3DD90EF0F3FE00F522404FF434
:1030F0007A7BB130B0FBFBF000F1AB0BD4F8483277
:1031000094F87500103BD4E990125A1AC31E012B93
:10311000924429D90EF0DCFE4FF47A7300F2E730C6
:10312000B0FBF3F0AAEB0B0A50440690B4F8E4119C
:103130003846D4F814324944594330314900059196
:1031400012F0BAFC244A94F87E3005991060002BE6
:103150003FF411AF06ABE06916F013F884F82302D0
:1031600009E74FF4897BC9E73E20DBE740F24A518B
:10317000DEE5E6B1B4F8F81119B3B4F8FA2194F821
:10318000FC31501CA4F8FA2102FB033399420EDDF6
:1031900094F830325BB10023A4F8FA0184F830329D
:1031A00006F0B2FC00F00700013084F8FC0118EED4
:1031B000101A94F8240210F04DFF20B940F29351F8
:1031C000B6E50A46DBE7049B84F8203200200BB00A
:1031D000BDEC028BBDE8F08F8C180020F0B50446E2
:1031E00085B018B9AA213020FDF744FB072900F269
:1031F0000681DFE811F008004500450040000401A9
:10320000F000F800020190F8203253B3B0F81E32FB
:10321000B0F8882093421ED1B0F8D421D31AA0F878
:103220008820A0F8D6312046D4E98E23C4E9902323
:103230000AF0FCFD94F8DB31002B00F0CA8018F096
:103240000CF9704B1B68002B00F0C380204605B0C2
:10325000BDE8F04018479A1AA0F8D621A4F88830A3
:10326000E1E7B0F81C32B0F888209B1AA0F8D631FC
:10327000B0F81C32F2E705B0BDE8F0400EF0EEBC4D
:1032800019F065FED4E99023801A61EB030101284F
:1032900071F1000302DA40F21E61A4E76FF001034E
:1032A00083424FF000038B4102DA40F21F619AE73C
:1032B000E5690DB1B0FBF5F594F88F30442B14D0CF
:1032C00094F88E20442A0AD00E2B08D0A2F143068F
:1032D00072427241B4F81E12B4F888303AB1B4F8B0
:1032E0001E320133A4F81E3214E00122F2E72B440F
:1032F0009BB2CA1A150454BF4B1C01339BB2A4F8ED
:103300001E3294F821322BB9B4F81E22B4F8D4310D
:103310009342E6D0B4F85A3202AEB4F88850013382
:10332000394FA4F85A32B4F8C2301D44B4F8C03052
:10333000013DED1AADB23B685BB1B4F81E1200223C
:103340002046013989B29847B4F81E321844A4F8CF
:103350001E02B4F81E126B1A18041ED40023204655
:1033600000961A46FFF77CFC98B3012812D1B4F8F6
:103370001E22B4F8D011BDF808301344521A1204BA
:103380009BB204D5EA1A12F4004F18BF0B46A4F8FA
:103390001E32D0E740F2766125E794F8923030464D
:1033A0000394002B0CBF3E23082384F8B130012383
:1033B0008DF8083006F016FF204618F050F800236C
:1033C00094F8240284F80C3210F0CCFD202384F809
:1033D000243205B0F0BD01200FF0B0FF05B0BDE80C
:1033E000F04012F047BB90F80C32042B01D0D021F2
:1033F000F9E6002380F80C32EBE7D621F3E6DA2178
:10340000F1E600BFBC000020C40000202DE9F0411F
:1034100004460E46154690F8383103F0FF071BB1FD
:103420000C273846BDE8F08101464B4810F074FD8A
:1034300020288046F4D05822394604F5887019F0C7
:1034400081FF84F81081C4F81461FF2384F83831B7
:1034500036B106F071FB00F00700013086F8FC0180
:1034600002234FF00008A4F8483184F840810FF09F
:10347000CFFE493086B2204617F0FFFD0146D8B393
:1034800015F039FC00F5CD6081B228460FF06AFED8
:103490002844C4F8440119F05AFD30184FF00106D1
:1034A000A4F8268041F1000184F81861C4E95401B0
:1034B000204617F0F8FDD0B1A5F2AA4531462046C6
:1034C00017F04EFD2D1AC4F81C514FF0FF326FF06B
:1034D0000043C4E9562304F5A07194F8100110F0DC
:1034E000B9FD70BB40F2CD113020FDF7C3F9304675
:1034F000AE3D17F0D1FEE5E72046DFF8608017F01B
:103500002FFDAE30C4F84401B8F8040048B1E08C97
:1035100038B106F011FBB8F80430B0FBF3F202FB4F
:103520001300064419F013FD361841F10001C4E9F7
:103530005461002DC9D0AE1941F10001C4E95661B2
:10354000C9E7D4E9542300212046C4E94A23C4E949
:103550004C2317F0D1FD64E7875B01008C18002035
:10356000F0B5002385B0CDE9003303238DF8063094
:103570006846FEF7F1F988B11F4E01230027B371A9
:103580000223CDE902778DF80E3002A8FEF7E4F9A8
:103590000546C8B10023B37105B0F0BD009812F024
:1035A000D9FBE5E790F8240210F048FE94F82402D5
:1035B00011F036F894F8240284F80C5210F0D2FC82
:1035C000202384F82432DBE7029B002BDDD093F824
:1035D0002422202AD9D018884FF6FF739842D9D0D8
:1035E0000221FEF77FF904460028DBD14FF49B71DE
:1035F0003020FDF73FF900BF8C180020044B00225B
:10360000DA719A7142F210729A80FFF7A9BF00BF77
:103610008C180020014BD871704700BF8C18002017
:1036200008B50DF035FF044B9A6882422ABF98799D
:10363000002080F0010008BD8C180020F0B5044681
:1036400085B090F8DB3103F0FF05002B6ED190F8C8
:103650000C32032B6AD119F07AFCD4E99023801A3A
:1036600061EB0301012871F100035FDB6FF00103DF
:10367000834275EB010304DA40F2C7513020FDF7B5
:10368000F9F8E269B4F888300AB1B0FBF2F201331C
:1036900013449BB2A4F81C32B4F8D431B4F81C2201
:1036A0009B1A1BB2002B41DD94F8240210F0C6FDDA
:1036B00000283BD0FF2384F82132B4F8C2300DF14A
:1036C0000E07B4F888501A4E1D44B4F8C030013DBE
:1036D000ED1AADB2336863B1B4F81C120022204673
:1036E000013989B29847B4F81C32184480B2A4F862
:1036F0001C02B4F81C32EB1A1B0417D4B4F81C12C9
:1037000000230122204689B20097FFF7A9FA68B189
:10371000012808D1B4F81C32BDF80E2013449BB226
:10372000A4F81C32D6E740F20E61A7E705B0F0BD61
:10373000C40000202DE9F7430446062900F2A480C6
:10374000DFE801F0042714242B309D00504B9B79B7
:1037500003F0FF0253B900920123B0F8D411FFF730
:103760007FFA30B140F2DC61302031E0042384F88C
:103770000C320EF0B7F810F0E7FA0023B4F8882006
:10378000A4F85A32A4F81E2284F8213203B0BDE80E
:10379000F083032380F80C32F8E718F0ABFBC4E9A0
:1037A0009201F3E73B4B1B681BB10246D0E9920143
:1037B000984713212088FEF795F800285DD094F8EB
:1037C0007530022B57D005D8012B08D0CD21B4205D
:1037D000FDF750F8033B012BF8D81E3000E00A300B
:1037E000858894F87530D4F81422033BDFF8A09054
:1037F000012BE36994BF2827002707F58077AF42A4
:1038000034BFED1B0025A9188B428ABF9B1A0025E7
:103810005D1B99F807301BB9E36B9D4228BF1D461D
:10382000D4F8E06104F13C0016F000FA06EB000861
:10383000022010F051FE0221A5EB080626EAE676EA
:10384000864228BF0646304610F08CFE00B9B044D0
:1038500001233A464146204616F071FAD4F8E03189
:10386000C9F80800E069184410F008FE00288DD15E
:1038700040F28A3178E71430B2E79625B1E703B019
:10388000BDE8F04312F00BB94FF4F3616CE700BFF1
:103890008C180020C0000020012A70B505460C4697
:1038A000164615D0022A18D042BB0DF0F1FD324663
:1038B0000146204612F01EFA2A46124994F81001D9
:1038C0000FF02CFD40B940F2AB713020FCF7D2FF75
:1038D0000DF0DEFDC5F85C0270BDD0F85C1201226F
:1038E000204612F007FA2A46064994F810010FF014
:1038F00015FD0028F0D140F2BC71E6E740F2C2713C
:10390000E3E700BFDD310000014B9880704700BF46
:103910008C1800200D4B0321186830B50D4690F827
:10392000A52090F84B400132B2FBF5F303EB4303C3
:10393000D31ADAB244FA03F3DB0703D4013911F0E6
:10394000FF01F0D180F8A52030BD00BF98180020FD
:10395000014B186812F0E1BA9818002008B505F07C
:1039600029FD014B187008BD50000020064B10B413
:103970001C68827C836804F1420194F841005DF880
:10398000044B15F0FFBA00BF981800202DE9F04154
:10399000064690461D460C46D1B9194F386800F1CD
:1039A0005B0390F85A2000F1780190F87E0015F042
:1039B000E9FA7B685B79082B05D03A6892F84E10DB
:1039C000CB1A5C425C413B6893F85630012B03D123
:1039D000B36853B9012404E083B90028F8D1002C5E
:1039E000F6D104F00100BDE8F081B8F1000FF1D18B
:1039F00025B13046FFF7BAFF0446F2E70024F0E7AE
:103A000098180020024B18686C3002F0CDB800BF47
:103A10009818002038B50F4CFFF7F4FF656802F0E6
:103A20007DF863682860186820B940F2EC413220C4
:103A3000FCF720FF12F011FC10B940F2EE41F6E75E
:103A40000DF0D6FF00200EF035F8636804221A71DD
:103A500038BD00BF9818002038B5194D04466B6872
:103A60001B79022B04D940F6F3013220FCF702FF48
:103A70002B68027C83F8A4201A44C168996692F8E6
:103A8000242183F820214268C3F88820037A022B7E
:103A90000ED00DF0AFFD0EF053F80CF083FF094887
:103AA0000DF090FF08480DF087FF08480DF00CFE60
:103AB000637C23B12B685B6E0BB101221A6038BDA9
:103AC00098180020D400002055555500D6BE898E88
:103AD00008B5FFF743FF034B586802F0B1F8012027
:103AE00008BD00BF9818002038B505460C4604F004
:103AF000FDFD420704D4A37803F0E003402B30D04F
:103B000004F0F4FD830704D4A37803F0E003202B32
:103B100027D0237803F03F03242B22D80DF09CFC00
:103B200094F90030A278002B637802F01F02ACBF3A
:103B30001E214FF4967143EA02234B431A1AB2F541
:103B4000877F0ED398420CD8074B294618682388E4
:103B5000A0F82131A37880F82331BDE8384012F075
:103B60008EBE002038BD00BF98180020F0B5044676
:103B700087B0084663785A0671D4227803F01F0391
:103B800052EA03236BD06188052968D9237A6268D9
:103B9000C3F30403134362D0324B1B684BB140B1F3
:103BA000984700285BD0304B01221B68D3F8903037
:103BB0005A762D4E227A3368C2F30402D3F890501D
:103BC000636805F11E008DF81420190A8DF8103075
:103BD0008DF81110190C1B0E8DF8121004A98DF818
:103BE000133015F01CFB638840F2E2425343A27B82
:103BF000AB67D4F809302B60637B43EA0223E27B96
:103C000043EA02436B60238A013BA5F86230237AC2
:103C1000C3F3421385F89230336893F82031EB7583
:103C20006378257813F0200F03F01F0314BF4FF4BF
:103C300096771E2745EA032307FB03F518F05AF988
:103C400033680246D3F89060238A06F1500000954D
:103C500006339BB2CDE901730B4606F075FE07B043
:103C6000F0BD00BFD00000209818002008B5074B19
:103C700093F900207F2A04D140F292313220FCF7E0
:103C8000F9FD02707F221A7008BD00BF50000020AD
:103C900010B504788EB004F00F0404A9224612F087
:103CA0001BFBFFF75BFE042C33D11B4C059A2368EA
:103CB000107893F8781088422BD1507893F87910C7
:103CC000884226D1907893F87A10884221D1D07812
:103CD00093F87B1088421CD1107993F87C108842AD
:103CE00017D1517993F87D20914212D19DF821206E
:103CF00093F87E309A420CD10DF10F00FFF7B6FF1A
:103D00009DF90F3004A90093237B227A606812F09A
:103D1000B6FA03200EB010BD981800202DE9F04F20
:103D2000044689B0062900F2C780DFE811F062007E
:103D3000E9000700C500C500C50028006F4D0DF063
:103D400075FD2F6897F854309E0701D1032036E0A7
:103D50006E68B379002BF9D00DF11F00FFF786FFD5
:103D60009DF91F3002222146029330462B7A01939F
:103D7000FF23009307F1420312F071FAE6E75F4D6B
:103D80006E68B379002B00F097802F6897F8542065
:103D9000900717D50DF11F00FFF768FF9DF91F3041
:103DA00030460622029321462B7A0193FF2300938B
:103DB00007F1420312F053FA002309202B7309B0D4
:103DC000BDE8F08FD10777D5530701D50DF02EFD53
:103DD0000DF11F00FFF74AFF9DF91F202B6802928B
:103DE0002A7A42330192FF22009206222146686815
:103DF000C2E7424D2B6893F85420570737D56968BE
:103E0000CA79002A33D0426893F85B00167886425C
:103E100055D1567893F85C00864250D1967893F845
:103E20005D0086424BD1D67893F85E00864246D13B
:103E3000167993F85F00864241D1507993F860205B
:103E400090423CD1627C93F85A00161A7242724139
:103E500093F8560001284ED0002A4CD193F84E30EA
:103E6000082B02D04A799A4245D00DF0DFFC6E68EB
:103E7000B379002B3DD02F6897F85420900720D5B8
:103E80000DF11F00FFF7F2FE9DF91F3030460022B2
:103E9000029321462B7A0193FF23009307F14203FB
:103EA00012F0DDF9012309202B736B68DA79002AFF
:103EB00085D19B79002B82D10DF0B8FC46E700221A
:103EC000C6E7D10715D5520701D50DF0AFFC0DF1AE
:103ED0001F00FFF7CBFE9DF91F202B6821460292A1
:103EE0002A7A423368680192FF220092002212F07F
:103EF000B6F90320D9E70A20D7E700BF98180020B9
:103F0000644D81686E682A68B379807C0493F37984
:103F100092F84880059311F0A6FF92F8543088F08B
:103F2000010807465B0740F1898092F84D30002B6D
:103F300000F0848092F84E60082E00F081803046B8
:103F400004F03EFF002818BF8046002F7AD030468C
:103F5000A16805F019F906462B6893F841900EB157
:103F600049F0020993F85420500746D5626893F847
:103F70005B101078884267D1507893F85C108842C3
:103F800062D1907893F85D1088425DD1D07893F833
:103F90005E10884258D1107993F85F10884253D14F
:103FA000517993F8602091424ED1617C93F85A2068
:103FB000891AD1F1000B4BEB010B6968497908298B
:103FC00045D093F84E305A1AD2F1000A4AEB020A51
:103FD000002E3FD1B8F1000F3ED02046FFF7C6FCBF
:103FE000059B43B1296891F8561001294DD011B9AC
:103FF0005BEA0A0349D10DF019FC2B6893F85430A1
:104000009B073FF4A3AE0DF011FC049B002B3FF483
:104010009DAE2046FFF7AAFC10B9D5F80080EEB19E
:104020000DF11F00FFF722FE9DF91F202B68029261
:1040300042332A7ACDE900920122D7E676797BE7EE
:10404000002689E73E4687E74FF0000BB5E74FF0C3
:10405000000ABDE70120C3E73046C1E798F85520C4
:10406000023A012A3FF672AE002F3FF46FAE0DF117
:104070001F00FFF7FBFD9DF91F3002932B7A019380
:10408000FE23009308F14203D6E70028B3D00A20AC
:1040900095E600BF981800202DE9F04188B0174C34
:1040A00006460F460DF11F00FFF7E0FD65682B790E
:1040B000032B20D02B79062B0CBF4FF003084FF0B9
:1040C00001082368423305930DF0C0F99DF91F20C4
:1040D0003146059B0292227ACDF80C80CDE9000290
:1040E0003A46284601F0E0FD10B1606801F078FD25
:1040F00008B0BDE8F0814FF00008E2E79818002012
:104100002DE9F041324E88B005460A467468A3791D
:1041100023B90024204608B0BDE8F081376897F83D
:10412000953033B90378002B0CBF0123022387F8A5
:1041300095302379062BD9B225D0072914BF4FF02B
:1041400001084FF002080DF11F000592FFF78EFDE8
:104150000DF07CF99DF91F30059A29460293337AB8
:10416000CDF80C80CDE9000307F14203204601F0B1
:104170009BFD0028CDD06C7814F0100406D1706837
:1041800001F02EFDC6E74FF00308DCE7A969022025
:10419000FFF7AAFC0446B8B10022336883F89620E2
:1041A0006A696AB15178C1F3031183F897101178E5
:1041B000527802F00F0241EA0222A3F89820A9E700
:1041C000FF2283F89720A5E7706801F039FDA1E789
:1041D000981800200D4A536810B51979022904D89F
:1041E0004FF4A5513220FCF745FB1979082902D973
:1041F00041F2A141F6E71B79126903F1804392680D
:10420000033BBDE8104052F82330184798180020AF
:1042100010B5054C637A2BB10DF092FC0CF0C2FB8B
:104220000023637210BD00BF9818002010B5054C24
:1042300023792BB10DF084FC0CF0B4FB0023237127
:1042400010BD00BFD81F002010B5094CFFF7E0FFDC
:10425000012263681A7100232268A2F8213182F8D2
:104260002331FFF7CFFB2068BDE8104012F0D5BC2A
:104270009818002008B5044B586801F0E1FCBDE82F
:10428000084011F052BE00BF98180020062938B52A
:104290001C469DF8105019D908291DD802B1DDB16E
:1042A00043689BB912B94378DB0617D40C4B5B68A3
:1042B000186811F0F3FF00B135B92CB904F0A2FD74
:1042C00000F00104204638BD0120F9E79DF81430C4
:1042D000002C08BF1C46F5E70024F3E70124F1E7B2
:1042E0009818002038B50D1E044614BF0320052081
:1042F000104404F09FFE094B587270B15DB9033C45
:10430000012C94BF552450240CF020FB2046BDE81E
:1043100038400DF009BC4024F6E738BD981800205D
:10432000F8B53E4CFFF76EFB656801F0F7FB63687C
:104330002860186820B940F249413220FCF79AFA07
:1043400011F08BFF054610B940F24B41F5E72368A9
:1043500093F8A6306BB123681A6D93F8A710C3F8D1
:10436000102193F854200A4383F85420002283F844
:10437000A620206890F8A430034493F82471636861
:1043800080F820711A7952B11B79012B07D00021D6
:1043900012F075FA18B9BDE8F840FFF755BF236869
:1043A0001F4A93F8A530D05C0DF098F9236893F874
:1043B000A420134493F82461022E2CD004D8012E9B
:1043C00005D040F2F371B8E7F31E012BF9D801F0E4
:1043D0009FFB314680B20DF0B1F828460DF008FB86
:1043E000314601200DF0A6F97B1E2A463846594277
:1043F0005941FFF777FF626808210023517121724C
:104400002168D3801372E37281F89530A37223730D
:1044100003231371F8BD0D20DBE700BF98180020BF
:104420008C43040010B50A4C0521206812F027FACD
:1044300018B9BDE81040FFF707BF2368012093F8C3
:1044400020110DF097FB63680B221A7110BD00BF9D
:1044500098180020124A10B5536800B931B91846AF
:1044600001F0EEFBBDE81040FFF7EEBE1979082918
:1044700004D841F270413220FCF7FCF919790C297B
:1044800002D941F27141F6E71B79126903F18043C9
:104490005268093BBDE8104052F82330184700BF6E
:1044A00098180020054B1A6892F85420920703D000
:1044B0005B68186801F05CBB586970479818002069
:1044C00070B5304D06466B681A79032A02D01A7906
:1044D000042A09D1186811F0C0FE044638B941F227
:1044E000A8313220FCF7C6F9FFF7DCFFF5E72B68AF
:1044F00093F8543013B941F2AE31F2E776B115F0CA
:10450000EBF930B16B681A79022A0ED841F22E31DC
:10451000E7E7204615F0FBF90028F3D16B681A791C
:10452000022A17D841F28E31DBE71A79082A02D91C
:1045300041F22F31D5E71B7920462A6903F18043E8
:104540001269033B52F8233098470C2812D941F2E4
:10455000C131C6E71A79082A02D941F28F31C0E782
:104560001B792A6903F180435269033B52F82330D7
:104570009847EAE72B69DB68BDE8704053F82030C4
:10458000184700BF9818002038B5FFF78BFF044686
:1045900020B940F213513220FCF76CF90B4DFF208B
:1045A0002B6893F820110CF0C9FF20460DF020FA7B
:1045B0002B6893F82031033B012B94BF2820002067
:1045C0000DF078FA6B6807221A7138BD9818002030
:1045D00010B5074C606801F003FBFFF7BFF92068D6
:1045E0000021A03014F056FBBDE81040FFF72CBEB0
:1045F0009818002010B504468AB0FFF7AFF9237869
:1046000003F00F03072B23D16946204611F0F7FE74
:10461000684611F09AFF9DF80030CBB99DF8013043
:10462000DB0715D50D4C019922689DF8110002F1A8
:10463000780392F87E2014F0A5FC48B1206801218F
:10464000A03014F027FBFF216846FFF759FD08B999
:10465000012000E002200AB010BD00BF9818002021
:10466000F0B5504D85B004460F462B6893F8943052
:104670000BB9002626E043781B07FAD50378002BF8
:10468000F7D12B68D3F89000503016F065F8002869
:10469000EFD12B68D3F89060B27D2AB9636959785D
:1046A000B37AB3EB111FE4D1636873B9002F6DD0F7
:1046B000012FDED16B68186811F0F0FD0028D8D00A
:1046C0006B681E7A304605B0F0BD696848790828E5
:1046D0003CD002AA0DF1070104F066FC064620B9A1
:1046E00040F6CC713220FCF7C5F82B689DF8070026
:1046F000D3F89070BB7DFBB1636902A95A781209A7
:1047000011F020F90028B4D02B680298D3F890203B
:10471000BDF80C10D06011829DF80720D3F89030BE
:10472000DA722B68D3F890200123937463695B7865
:10473000C3F303139372C5E7024602AB07F10C0102
:10474000F87A14F01FFC002893D0EAE7607CFAB1F5
:10475000626919465278120911F0F4F8002888D0DD
:10476000626929685278D1F89030C2F303129A72C4
:1047700062681068D86092881A82D1F89030627CA2
:10478000DA722B680022D3F890309A74012699E7E8
:10479000024606F10C01F07A14F0F4FB0028F0D187
:1047A00067E700BF9818002007292DE9F043064667
:1047B00087B00F4690464568654C23D11DBB002A43
:1047C00048D1D4E9001091F8543013F0030218BF17
:1047D000012213F00403827103D033785A1E53422E
:1047E0005341C37191F894304BB12368D3F89000D2
:1047F000503015F0B1FF10B9636801221A7207B08A
:10480000BDE8F08335B32946707C11F02CFB072FEF
:10481000814664D1637A63B158B1B8F1000F55D0C5
:10482000656814F0F3FB636868715B792372012398
:10483000A37263685879082858D17168707C15F0A4
:10484000A7FD6268054671680532707C04F0E0FAE5
:1048500000285DD0236893F8540010F003000AD0BC
:104860006268394693F84C3030460195927900924F
:104870004246FFF70BFD00F001006268236890716B
:1048800093F8540010F0040009D093F84D303946E5
:1048900001953046D27900924246FFF7F7FC2D4B46
:1048A00000F0010065681B68E8711BB141463046A5
:1048B00098472872726872B3717C236883F87E10FF
:1048C000116899679288A3F87C2024E0236893F804
:1048D00020110129A4D1284604F07EFB6072637A7E
:1048E000002BA6D0B9F1000FA3D099E704AA0DF1CF
:1048F0000F0104F059FB20B94FF43A613220FBF765
:10490000B9FF04A99DF80F0015F042FD0546A1E787
:104910006368D88018726268137AB3B9D388003B91
:1049200018BF0123B06800283FF469AF072F7FF458
:1049300066AF517908293FF462AF002B3FF45FAFB7
:1049400004F068FB0123E37259E70123EAE700BFA3
:1049500098180020CC0000202DE9F74F2F4D9346EA
:1049600007468A462A688168807C92F848800193CD
:1049700011F079FA6C7A88F001080646CCB192F809
:1049800054305B071FD592F84D30E3B192F84E409A
:10499000082C23D0204604F013FA002818BF8046C4
:1049A000002E36D0EB7A73B314F03AFB00230446A2
:1049B000EB72019B8BF800408AF8006083F800805E
:1049C00003B0BDE8F08F7B6813B16B685C79DFE7FB
:1049D0006B68186811F062FC0028F6D1CEB195F82A
:1049E0000A90B9F1000F14D14946B86804F0F4FAFE
:1049F000044668720028DCD014F008FB08280AD0AE
:104A00006B685871D5E72046B96804F0BDFB0446D1
:104A1000CFE70024CDE74C46CBE700BF9818002035
:104A20002DE9F0419E4E88B00546376897F857301B
:104A3000002B00F03381D6F8048098F806303BB99B
:104A400098F8072022B998F80820002A00F026815B
:104A50002C78012C7AD0022C00F0CE80002C40F073
:104A60001D8197F85420910700F0188123B998F818
:104A70000830002B00F012816B7813F0100FC3F395
:104A8000001714BF0822012232EA030340F0068116
:104A90000023AA688DF81C308DF81D308DF81E306B
:104AA000002A4AD00DF11E0307AA0DF11D01284668
:104AB000FFF752FF336893F841409DF81C30002BFC
:104AC00000F0D88044F00204002F3AD00DF11F000E
:104AD0000027FFF7CBF8D6E90038423305930CF0F6
:104AE000B5FC9DF91F202946059B0292327A039757
:104AF000CDE900022246404601F0D6F8002800F039
:104B0000CD80A9690120FEF7EFFF002800F0C680E4
:104B1000336883F896706A69002A69D05178C1F3C6
:104B2000031183F897101178527802F00F0241EACE
:104B30000222A3F89820022494E0FF24C4E7FE2474
:104B4000C2E721462846FFF7A7FAA7E097F82021F9
:104B50006B78022A2DD103F01903192B40F09E80A7
:104B600097F854305A0728D40DF11F00FFF77EF84C
:104B7000D6E90034423305930CF068FC0022059B13
:104B8000294603929DF91F200292327ACDE9000254
:104B9000FF22204601F088F800287FD0A969012073
:104BA000FEF7A2FF002879D03368012283F896200F
:104BB000B1E703F01803182BD0E7696800232846F3
:104BC000B1FA81F11A464909FEF7E0FE002865D0E6
:104BD000AB6932689B7813F0E00304D192F8493056
:104BE000002BC1D15AE0402BBED192F84A30F7E7F2
:104BF000FF2283F897209EE797F854309B074DD00B
:104C00006B7803F01803182B48D10DF11F00FFF744
:104C10002DF80CF01BFC0023FF22294603939DF97D
:104C20001F300293337ACDE9000307F14203404677
:104C300001F03AF890B3A9690120FEF755FF68B377
:104C4000336883F896406A6982B15178C1F30311E1
:104C500083F897101178527802F00F0241EA02228D
:104C6000A3F89820204608B0BDE8F081FF2283F821
:104C70009720F7E72846FEF779FE00287FF424AF57
:104C8000336893F85530023B012B07D89DF81D304F
:104C900023B19DF81C30002B3FF451AF0324E1E712
:104CA0009818002030B505468BB0FEF757FE2C78DB
:104CB00028466946294D04F00F0411F0A0FB2B682B
:104CC000072C16D193F82011684611F0A1FB0022A1
:104CD00021466846FFF768FD2B6893F82031022BC8
:104CE00032D017D8012B1AD041F229213220FBF7FC
:104CF000C1FD93F8542012F0060FE8D093F8A420D9
:104D0000134493F82421012AE1D19621002017F0C1
:104D100002F9DCE7033B012BE6D8072C19E0062C4F
:104D200002D00BD8022C0BD821466846FEF7F6FFBE
:104D30000446FFF76DFA20460BB030BD072C09D0B2
:104D40000CF074FD0324F4E7072CFBD19DF8003030
:104D5000012BF7D16846FFF763FEE9E798180020BA
:104D600038B5174D2C6894F8483013B36FF00043F2
:104D7000D4E920129A4208BFB1F1FF3F19D018F0D0
:104D8000E6F8D4E92023904271EB030311D32B689A
:104D900093F8483073B92D6804F000F9044618F010
:104DA000D6F8084AA4FB0232181842EB0102C5E902
:104DB000200238BD012004F0B3F90028F9D0EAE759
:104DC0009818002040420F0070B51E4D06462A6814
:104DD00092F823115F294FEA511096BF1A4B002415
:104DE0001B1892F8210100F03F0098BFDC780CF00E
:104DF00075FC2B6893F958000CF060FCFEB12B6831
:104E00002246996E01200CF0FDFC2B68214693F898
:104E10009630022B0CBF4020FF200CF08FFBFFF7D9
:104E200041FB2B68064693F8951019B902462046B7
:104E3000FFF758FA3046BDE870400CF0D9BD224665
:104E40007321DFE7981800208C430400F0B52D4C47
:104E5000074685B0226892F823115F294FEA511066
:104E600097BF294B00251B18DD78936E13B10120E5
:104E7000FFF7AAFF2368D3F888000CF0EFFD236842
:104E800093F85420910703D593F89610022905D082
:104E900052070FD593F89620012A0BD1EA1E012A5A
:104EA00026D893F85930012B14BF2946032100203E
:104EB0000CF060FE266863689A361868D7B911F05E
:104EC000EDF963680390186811F0EEF9276802465F
:104ED000039997F8200197F896300090304611F02A
:104EE000E9FA236883F820510023A37205B0F0BDCE
:104EF0002946DCE711F0E4F90146304611F0CFFA1B
:104F0000EFE700BF981800208C43040008B501208B
:104F1000FFF79CFF024B06225B681A7108BD00BFB9
:104F20009818002008B50020FFF790FF024B0522DB
:104F30005B681A7108BD00BF9818002010B50446C0
:104F4000FEF78AFD237A032B0AD1194B1B68986E52
:104F500020B140F638113220FBF78CFCFFF734FF0C
:104F6000237A012B06D003D9023B012B12D910BDA5
:104F7000FEF7D0FC0E4C236893F958000CF09EFB12
:104F80002368002283F89520FFF7CAF9BDE8104096
:104F9000FFF7E6BE064B1B6893F895301BB9BDE8DA
:104FA0001040FFF7BFBFBDE81040FFF7AFBF00BF25
:104FB0009818002008B5044B586800F011FEFEF761
:104FC000CDFC012008BD00BF981800202DE9F84352
:104FD0006F4F0023054689467869D7F80080037033
:104FE00043700CF01FFD064628B9032004F09AFC1C
:104FF0003046BDE8F883032D7C6947D1237823F040
:105000000F0343F0030323700C236370D8F8783048
:105010007869C0F80930B8F87C30A0F80D3098F8FD
:105020007E1014F04AFA0021786916F0A1FF3B685F
:1050300093F8482003F1420493F8418092B193F829
:105040005420520740F1928093F84D20002A00F03E
:105050008D8093F84E0004F0D1F800281CBF044660
:105060004FF00108236841467869C0F80330A388EF
:10507000A0F8073014F014FA464BD3F80C32002B8A
:1050800077D040F234613220FBF7F4FB052DBDD11F
:105090002378222223F02F03627043EA491141F062
:1050A0000501217039680B6D1B6AC4F80F300A6D59
:1050B000936A180AE3741B0C2075637592F87E00DE
:1050C000138E00284CD04FF0640CB3FBFCF3DBB222
:1050D000A375D36A002846D06420B3FBF0F39BB2DB
:1050E00041F27070E3751B0A2376D369A3F57A7CCD
:1050F000844595BF4FF47A7040F2E240B3FBF0F381
:10510000B3FBF0F398BF03F550639BB263761B0AC1
:10511000A376938CE3761B0A2377D38C63771B0AE1
:10512000A377D2F89730C4F81F3092F89B3094F8E8
:10513000242084F823300B6D22F01F0293F8A23054
:1051400003F01F03134384F8243003F0F5FA94F8B6
:10515000243003F01F0343EA401084F8240055E78D
:1051600040F2E24CB1E740F2E240B6E77B685879A2
:1051700071E7052D7FF43CAF3B6821681A6DC2F8DA
:105180000A10A188D1811B6D83F8098030E700BF28
:105190009818002000A0085010B500210320FFF748
:1051A00015FF18B9BDE81040FFF74EB8074C0321B2
:1051B000206811F064FB0028F4D0012108460CF0AF
:1051C000D9FC636809221A7110BD00BF981800202D
:1051D0002DE9F041054692B00E46FEF7BFFB2B7855
:1051E0009B4C03F00F03072B07D00125606800F0EC
:1051F00027FD284612B0BDE8F08108A9284611F025
:10520000FEF8206808A99A3011F071F923689DF81A
:10521000201093F89620914240F05981032E03D13B
:1052200093F89720FF2A16D09DF82120150740F10A
:105230004E810D9A93F897105078B1EB101F40F003
:105240004681127800F00F00B3F8983042EA00204F
:10525000984240F03C8108A832460721FFF7A4FAA3
:105260006068C3881BB9037A002B00F031810023EA
:105270008DF81C308DF81D308DF81E300A9B002BE8
:1052800047D00DF11E0307AA0DF11D0108A8FFF775
:1052900063FB236893F841609DF81C300BB146F026
:1052A00002069DF820509DF81C80012D9DF81D7070
:1052B0009DF81E302FD0022D7FD0002D40F00781A9
:1052C000236893F854309D0730D09DF8213098071B
:1052D00071D5B8F1000F0BD108A8FEF747FB38B91C
:1052E000236893F85530023B012B1FD8F7B1FE26F7
:1052F00063681B7A33B1574B1B681BB10F9808B119
:1053000011999847314608A8FEF7FAFE70B10225B8
:105310003FE0FF26C5E79DF82100226800F0090C58
:1053200092F89A10BCF1090F04D009B9012530E0B8
:105330000007FBD592F85420500711D463689B797D
:10534000002BF3D0236893F854309A07EED09DF8E1
:1053500021309B0716D4FF2108A8FEF79DFEE5E744
:105360006268D279002AE9D0424608A8FEF70EFB0F
:105370000028E3D02068A03013F0AEFC0028DDD078
:105380000C2506E0B8F1000F06D0314608A8FEF75C
:1053900083FEFEF73DFF2CE708A8FEF7E7FA00289A
:1053A000F3D1236893F85530023B012BBED8002F70
:1053B000BCD0FE21D0E7FF269AE7226892F854205D
:1053C0009107B3D0616889790029AFD09DF8215049
:1053D00005F009010929A9D1920705F0020568D550
:1053E000002D39D0B8F1000F2AD00DF11F00FEF7C3
:1053F0003DFC00210320FFF7E9FD0546D4E9003715
:10540000423305930CF022F80122059B08A9039270
:105410009DF91F200292227ACDE9000232463846D9
:1054200000F042FC002D81D000283FF47FAF2068BF
:10543000A03013F051FC00283FF478AF0B25A8E70B
:10544000002BAED008A8FEF791FA0028CDD1A8E72E
:1054500098180020C80000200DF11F00FEF706FC80
:10546000294603200125FFF7B1FD0746D4E900389E
:10547000423305930BF0EAFF9DF91F2008A9059B15
:105480000292227A0395CDE900023246404600F0AE
:105490000BFC002F3FF47DAF00283FF47AAF20686B
:1054A000A03013F019FC0028C8D1606800F098FB08
:1054B0006FE7002D3FF44FAFB8F1000F01D0314638
:1054C0004AE708A8FEF752FA0028F8D169E76068B1
:1054D00000F0B6FB2AE700BFF8B5184F0E460121D1
:1054E00078610020FCF7C0F9054620B940F67C0140
:1054F0003220FBF7BFF94FF49472002117F022FF1E
:1055000001210846FCF7B0F9044620B14FF494722B
:10551000002117F017FF3B6913B940F68601E7E752
:10552000304610F039FD284611F016FA24B1204615
:10553000BDE8F84011F010BAF8BD00BF981800207F
:10554000014B024A1A617047981800206801002038
:10555000034B044A1A60044B044A1A60704700BFA8
:10556000C80000206D3B0000CC0000206146000018
:10557000036810B523B940F667113220FBF77AF9BA
:10558000044A13606C3353601369BDE810401B6814
:10559000184700BF9818002008B5044B586800F061
:1055A0004FFBBDE80840FEF74FBE00BF9818002033
:1055B00038B590F84030044613F0FD0F04F1420175
:1055C00014BF0120002084F8410003F087FA94F80A
:1055D0004030023BDBB2012B94BF0123002384F84F
:1055E000483018D803F0DAFC054617F0B0FC0A4A38
:1055F000A5FB0232181894F8483042EB0102C4E9C6
:10560000200243B1002003F08BFD20B940F60F21AA
:105610003220FBF72FF938BD40420F0001493630E8
:1056200014F078BA8B5E010010B5084C0222636852
:1056300020681A7100F0BEFC38B9206810F073FDC4
:105640002068BDE8104011F0E8BA10BD981800209D
:10565000013808B5C0B20A4B41B1032801D8185C23
:1056600008BD40F2B9113320FBF704F9032802D832
:1056700018440079F4E740F249310620F4E700BF0E
:105680009243040008B510F05FF8054AD2E84F3F96
:105690000133DBB2C2E8413F0029F7D108BD00BFAA
:1056A000B0180020024BA0F108015868FFF7EABFCC
:1056B000B01800202DE9F84F0D461E4600213B4B47
:1056C0009346046801601A789DF828709DF82C8034
:1056D0009DF930909DF834A032B9A4F108015868C2
:1056E000BDE8F84FFFF7CEBF1A2204F1090017F00A
:1056F00029FE0123A372BBF1060F4FD8DFE80BF0A0
:105700000433394E434E3D00E37A23F0130343F054
:105710001303E372012304F10E0241462846237568
:1057200047F6FF7384F81890E38204F10D0310F03C
:1057300068FDE37A5B0736D5BA1E04F11C03012A23
:105740008BBFAA6832681168E2618ABFE161B288E2
:1057500092889A80E7760023237215492046BDE897
:10576000F84F14F0D7B9E37A23F0150343F015038B
:10577000CFE7E37A43F01003CBE7E37A23F0120399
:1057800043F01203C5E7E27A4AF01A0A22F01B023C
:105790000AF01B0A42EA0A02E272BBE740F22B411E
:1057A0003320FBF767F8FF23E376D4E7B018002037
:1057B000B55700002DE9F04705468EB00C46002095
:1057C0000121FCF78FF8064620B940F2C7113320BB
:1057D000FBF750F8A83011F045F818B196F854309E
:1057E000042B2FD1304610F0D1FB58BBB84C04F13C
:1057F000080704F10C08AE6A9EB92846FFF752FF6D
:1058000002238DF80C608DF80D309DF80C300020CF
:1058100063F307009DF80D3063F30F200EB0BDE871
:10582000F087A96A0B68B942AB624FF000030B70B6
:105830004B708B70CB70DED04145DCD06068FFF7D9
:1058400021FFD8E7AE6A36B3A24B9E4226D0043B76
:105850009E4223D006F13B0A4FF0000802F0FEFE04
:105860008146B8F1000F40F02E8104A9504610F097
:10587000C6FDB9F1000F16D004F10D00EF7A17F054
:10588000100713D09DF8207007993A460FF0CCF915
:105890004FF0010828E005F1330ADDE74FF0010879
:1058A0004FF0000ADAE704F11C00E7E7002EEFD022
:1058B0009DF81030022BEBD0014695F83230E522EE
:1058C000504613F087FF95F83230074603445046A0
:1058D00085F8323013F076FF95F83280A8EB000C93
:1058E000DCF1000848EB0C08B9F1000F2CD10423BF
:1058F00005F12301237007F11803AA7A5343E270DC
:10590000221D0233637005F10B0353F8040B8B4225
:1059100042F8040BF9D195F814A095F8159002F00F
:10592000DBFEC1F3402150460191FFF791FE019942
:105930006073B9F1000F03D04846FFF789FEA073EA
:10594000E7762CE0C8460027EB7AD80601D45B2125
:105950003DE75907AA7A95F80DE004F1060005F134
:105960000E0C2FD5E97EFE292CD11123E27084F88C
:1059700005E0237013010233637001232371D5F80E
:105980000E30C4F80630BCF8043083802173EB6914
:10599000C4F80D302B8CA4F811302B7EE3744C4FDF
:1059A00007F1080A56453AD12379022605F1280065
:1059B00066F34613237110F040FC2846FFF772FE91
:1059C00004273FE007F10A030321E27053432170EB
:1059D000023384F805E06370D5F80E30C4F8063061
:1059E000BCF804308380277327442B7E7B73EA7ACC
:1059F00012F0080002D004232371D0E702F0030361
:105A0000032B01D12071CAE7520701D50123F3E727
:105A1000022BF1D00BB92171C1E7A221D7E607F122
:105A20000C094E4515D105F1280010F006FC6A7DE1
:105A30006AB92379042762F34613237102262846A4
:105A4000FFF730FE8DF80C708DF80D60DDE6002755
:105A5000F4E77EB3B8F1000F26D005F128084046E0
:105A600010F0EBFB31467868FFF70CFEAB6A0022C2
:105A7000534585F8322097D04B450BD123794046CA
:105A800062F34613237110F0D8FB28460226FFF775
:105A900009FE95E79DF81030022B05D123790126E8
:105AA00023F0680323718BE72379012666F34613FD
:105AB000237185E7EF7A17F01007C3D0237966F3D7
:105AC00046132371E1E700287FF43CAF07460EE759
:105AD000B0180020BC180020343270B5054692B2D0
:105AE0000C461E460FF0F8FD25B1034A55601474AC
:105AF0005674147070BD00BFB018002010B5034C70
:105B000060680FF00BFE237C237010BDB0180020DE
:105B1000014B587C704700BFB018002038B5134DBA
:105B200068680FF001FE044620B940F247113320A7
:105B3000FAF7A0FED5E84F3F013BDBB2C5E8413F95
:105B40000029F7D104F108033422184617F0FAFBB4
:105B500047F6FF720121E462E283FF22627584F856
:105B60002320E27C61F34612E27438BDB0180020B5
:105B700038B5436A044693B90A4D68680FF0D4FDFE
:105B8000606220B94FF4B0713320FAF773FED5E8A4
:105B90004F3F013BDBB2C5E8423F002AF7D1606AC4
:105BA0003B3038BDB0180020036810B504465BB127
:105BB000596A49B101F10802934204BF002303600E
:105BC000064B5868FFF75EFD216831B1034B083979
:105BD0005868FFF757FD0023236010BDB018002060
:105BE00038B5046805469CB11349204613F09BFF65
:105BF000124B00221A735A739A73DA73EFF31082FE
:105C000072B6A16A0C3399B9A362E36202B962B6B3
:105C10002C68616A49B101F108039C4203D0074B2B
:105C20005868FFF72FFD0023636200232B6038BD07
:105C3000E16A0B60E9E700BFB5570000B01800202B
:105C400070B50668044656B3716A154D41B101F14D
:105C500008039E4202D06868FFF714FD00237362B8
:105C600021684E7DB6B100232B726B72AB72EB7262
:105C7000EFF3108272B6886A0A4B40B98B62CB622E
:105C800002B962B62046BDE87040FFF7A9BFC86AF6
:105C90000360F4E708396868FFF7F4FC266070BD1C
:105CA000B0180020B81800202DE9F047046891468C
