:020000040000FA
:1000000020D40020C9C30100EDFF0300B5C30100E7
:10001000B5C30100B5C30100B5C30100B5C30100FC
:10002000000000000000000000000000BDC501004D
:10003000B5C301000000000041C50100B5C30100C7
:10004000BDC70100BDC70100BDC70100BDC701009C
:10005000BDC70100BDC70100BDC70100BDC701008C
:10006000BDC70100BDC70100BDC70100BDC701007C
:10007000BDC70100BDC70100BDC70100BDC701006C
:10025000BDC7010069370400BDC70100BDC701006B
:10026000BDC70100BDC70100B3370400BDC7010011
:10027000BDC70100BDC70100BDC70100BDC701006A
:10028000BDC70100BDC70100BDC70100BDC701005A
:10029000BDC70100BDC70100BDC70100BDC701004A
:1002A000BDC70100BDC70100BDC70100BDC701003A
:1002B000BDC70100BDC70100BDC70100BDC701002A
:1002C000BDC70100BDC70100BDC70100BDC701001A
:1002D000BDC70100BDC70100BDC70100BDC701000A
:1002E000BDC70100BDC70100BDC70100BDC70100FA
:1002F000BDC70100BDC70100BDC70100BDC70100EA
:10030000BDC70100BDC70100BDC70100BDC70100D9
:10031000BDC70100BDC70100BDC70100BDC70100C9
:10032000BDC70100BDC70100BDC70100BDC70100B9
:10033000BDC70100BDC70100BDC70100BDC70100A9
:10034000BDC70100BDC70100BDC70100BDC7010099
:10035000BDC70100BDC70100BDC70100BDC7010089
:10036000BDC70100BDC70100BDC70100BDC7010079
:10037000BDC70100BDC70100BDC70100BDC7010069
:10038000BDC70100BDC70100BDC70100BDC7010059
:10039000BDC70100BDC70100BDC70100BDC7010049
:1003A000BDC70100BDC70100BDC70100BDC7010039
:1003B000BDC70100BDC70100BDC70100BDC7010029
:1003C000BDC70100BDC70100BDC70100BDC7010019
:1003D000BDC701009D370400BDC70100BDC70100B6
:1003E000BDC70100BDC70100BDC70100BDC70100F9
:1003F000BDC70100BDC70100BDC70100BDC70100E9
:10040000BDC70100BDC70100BDC70100BDC70100D8
:10041000BDC70100BDC70100BDC70100BDC70100C8
:10042000BDC70100BDC70100BDC70100BDC70100B8
:10043000BDC70100BDC70100BDC70100BDC70100A8
:10044000BDC70100BDC70100BDC70100BDC7010098
:10045000BDC70100BDC70100BDC70100BDC7010088
:10046000BDC70100BDC70100BDC70100BDC7010078
:0C047000BDC70100BDC70100BDC70100F1
:100480002DE9F00791E8F807B2E802105B1854EB89
:100490000C04B2E802104D4156EB0C06B2E8021013
:1004A0004F4158EB0C08B2E8021059EB01095AEB26
:1004B0000C0A80E8F80780410130BDE8F00770477A
:1004C0002DE9F00791E8F807B2E802105B1A74EB27
:1004D0000C04B2E802108D4176EB0C06B2E8021073
:1004E0008F4178EB0C08B2E8021079EB01097AEB46
:1004F0000C0A80E8F80780414042BDE8F0077047E9
:100500002DE9F007524290E87800B1E880071740E3
:10051000DB1918EA020854EB080419EA020955EB42
:1005200009051AEA020A56EB0A0678C090E8780034
:10053000B1E8800717407B4118EA020854EB080431
:1005400019EA020955EB09051AEA020A56EB0A06EE
:1005500078C080410130BDE8F00770472DE9F00711
:10056000524290E87800B1E880071740DB1B18EA98
:10057000020874EB080419EA020975EB09051AEA86
:10058000020A76EB0A0678C090E87800B1E88007A6
:100590001740BB4118EA020874EB080419EA020983
:1005A00075EB09051AEA020A76EB0A0678C0804163
:1005B0004042BDE8F00770472DE9F00152424FF08C
:1005C000040890E8300091E8C000A31B1340E41A2F
:1005D000F618EB1B1340ED1AFF1830C0C0C1B8F17C
:1005E0000108EED1BDE8F001704700BF00B592EC04
:1005F000080AB1E8805707EE101A53EC102A56EC9F
:10060000114AA7FB0251A8FB020BE7FB6310E9FBB1
:1006100062B041EC145AA8FB0351EAFB6201E7FB0C
:1006200064B5E7FB6605E8FB661505EE10BAA9FBA5
:1006300003B6EAFB6316ECFB6356E8FB640BE9FBCD
:10064000641BEAFB645BECFB646B05EE900AACFB9D
:10065000023012EE104AEEFB6250E9FB6460EAFBE6
:1006600064B0E7FB6431E8FB645112EE904AE8FBAA
:100670006461E9FB64B1EAFB640106EE103AA7FB92
:10068000043213EE104AE7FB6462E8FB64B2E9FB54
:100690006402EAFB641211EE904AE9FB6453EAFB40
:1006A000646313EE904AE7FB64B3E8FB6403E9FB81
:1006B0006413EAFB642306EE905A17EE109A99E849
:1006C000000610EE108AA9FB0854EAFB68B412EE8B
:1006D000108AECFB6804EEFB6814E9FB6824EAFB73
:1006E000683410EE908AEEFB6865E9FB68B5EAFBBA
:1006F000680512EE908AECFB6815EEFB6825E9FBB5
:100700006835EAFB684507EE106A11EE108AAEFB09
:100710000876E9FB6806EAFB681613EE108AECFB24
:100720006826EEFB6836E9FB6846EAFB685611EE80
:10073000908AECFB68B7EEFB6807E9FB6817EAFBF9
:10074000682713EE908AECFB6837EEFB6847E9FBFD
:100750006857EAFB686700BD2DE9F04F07EE900A85
:10076000FFF744FF17EE908A07EE90BAA8EC084A0C
:1007700088E8FF00BDE8F08F00B591E89857A3FB2B
:100780000352A3FB0401E3FB6420E3FB671042EC8C
:10079000145AA3FB0752E3FB6802E4FB6415E3FB76
:1007A0006805E3FB6925A4FB07B6E3FB6926E3FBC9
:1007B0006A56E4FB670BE4FB682BE3FB6A5BE3FB35
:1007C0006C6B40EC151AA4FB0810E4FB6950E3FBCA
:1007D0006C60E3FB6EB0E7FB6721E4FB6951E4FB6F
:1007E0006A61E3FB6EB1E4FB6E0106EE102AA7FB23
:1007F0000832E4FB6A62E4FB6CB2E4FB6E02E7FBE6
:100800006E12E7FB6853E7FB6963E4FB6CB3E7FB3D
:100810006C03E7FB6E13E8FB6E2306EE905AA7FB12
:100820000954E7FB6AB4E7FB6C04E8FB6C14E8FBD3
:100830006E24E9FB6E34E8FB6865E7FB6AB5E8FB0C
:100840006A05E8FB6C15E9FB6C25E9FB6E35EAFBF4
:100850006E4507EE106AA8FB0976E8FB6A06E9FB1D
:100860006A16E9FB6C26EAFB6C36EAFB6E46ECFB8B
:100870006E56E8FB69B7E9FB6907E9FB6A17EAFB13
:100880006A27EAFB6C37ECFB6C47ECFB6E57EEFB20
:100890006E6700BD2DE9F04F07EE900AFFF76CFF81
:1008A00017EE908A07EE90BAA8EC084A88E8FF0095
:1008B000BDE8F08F30B44FF0000310F8014B11F891
:1008C000015B013A84EA050443EA0403F5D1A3F18C
:1008D00001034FEAD37030BC704700BF4FF00003F4
:1008E00010F8012B013943EA0203F9D1A3F1010306
:1008F0004FEAD370704700BF30B411F8014B12F8C3
:10090000015B6C4000F8014B013BF6D130BC7047F5
:100910002DE9F00791E8F807B2E802105B1854EBF4
:100920000C04B2E802104D4156EB0C06B2E802107E
:100930004F4158EB0C08B2E8021059EB01095AEB91
:100940000C0A8941B3F1FF3374F1FF3475F1FF35BF
:1009500076F1000677F1000778F1000879F10109D6
:100960007AF1FF3A51F100015B184C414D4156F1CB
:10097000000657F1000758F1000859EBD1795AEBFE
:10098000010A80E8F807BDE8F00770472DE9F00795
:1009900091E8F807B2E802105B1A74EB0C04B2E8B5
:1009A00002108D4176EB0C06B2E802108F4178EB15
:1009B0000C08B2E8021079EB01097AEB0C0A8941C4
:1009C0005B184C414D4156F1000657F1000758F1B4
:1009D000000859EBD1795AEB010A80E8F807BDE825
:1009E000F007704718EB040859EB05095AEB060AA3
:1009F0005BEB070B5FF0000C4CF1000C18EB0508EB
:100A000059EB06095AEB070A5BEB070B50EB0C009E
:100A10005FF0000C51EB0C0152EB0C0263414CF106
:100A2000000CB8EB070879F100097AF1000A7BEBBA
:100A3000040BA841B141A241B3416CF1000CBBEBE6
:100A4000050BB041B941AA41BB416CF1000C4CF01F
:100A500001068CF0020718EB060859EB6C095AEBFB
:100A60006C0A7BEB6C0B70EB6C0471EB6C0572EB3E
:100A7000670653EB6C076CEB6C0C18EB0C0059EB36
:100A80000C015AEB0C025BF1000354F1000455F128
:100A9000000556EBDC7657EB0C0770472DE9F04F5D
:100AA00007EE900AFFF7A2FD59EC168A17EE10AA7E
:100AB000FFF798FF59EC148A5BEC15AAFFF792FF39
:100AC00017EE908A88E8FF00BDE8F08F2DE9F04F1F
:100AD00007EE900AFFF750FE59EC168A17EE10AA9F
:100AE000FFF780FF59EC148A5BEC15AAFFF77AFF39
:100AF00017EE908A88E8FF00BDE8F08F064A074BA2
:100B0000DB7802604FF44272C371002382800822B6
:100B100003728271704700BF5B6201009811002070
:100B2000064A074B1B7902604FF4B872C371FF236A
:100B30008280082203728271704700BF755D0100D8
:100B400098110020054A064BDB7D02607822C371B4
:100B50000223828008220372827170477916010095
:100B600098110020064A074B1B7E02604FF4087262
:100B7000C37100238280082203728271704700BF14
:100B8000FD120100981100202DE9F743C41D002833
:100B9000064624F007040CBF0020204600F0F4FDB8
:100BA000071E04DA6FF00B0003B0BDE8F0830EB946
:100BB000FC42F7D4354D297AE879AB7A03316A7A69
:100BC00003300FF0DDFE0028ECDB3C44A978EB7825
:100BD000002E04F10304194424F0030400FB01F186
:100BE0000CBF0020204600F083FF20440EB90028EF
:100BF000D8DB2B790446B3B1697C19446B7919446D
:100C0000FF29CFDC0330002EAA89C9B220F00307E8
:100C10000CBF0020384600F0DBFF041EC2DB3C4462
:100C20000EB9002CBEDB012000F0A4FDC8B1E97AAA
:100C3000B9B195F828300734002B24F0070715BF09
:100C4000402325234FF481722822002E14BF3846FA
:100C5000002002F093FD041EA4DB3C440EB9002CDE
:100C6000A0DBAB7BDBB12B7993B10734002EA97BE2
:100C700024F007070CBF0020384607F04DFA041E89
:100C800090DB3C445EB9002C09DA8BE79811002018
:100C9000012000F06FFD10B1EB7A002BE5D1734B12
:100CA0001B6893B1A97981B10334002EEA7B24F04B
:100CB00003070CBF002038469847041EFFF672AFAA
:100CC0003C4416B9002CFFF66DAF694B1B688BB125
:100CD000297C79B10334002E24F003070CBF0020D7
:100CE00038469847041EFFF65DAF3C4416B9002C09
:100CF000FFF658AF5F4BD3F80080B8F1000F16D065
:100D0000697CA1B10334002E2B7D24F0030708BFBA
:100D10000020009318BF3846EB7CAA7CC047041E15
:100D2000FFF640AF3C4416B9002CFFF63BAF07205E
:100D300000F020FD98B1A97989B10334002EAA7D75
:100D400024F003070CBF0020384601F02FF8041EE2
:100D5000FFF628AF3C4416B9002CFFF623AFB6FAD5
:100D600086F895F821004FEA5818A0B1E71CEB7EF1
:100D7000297E27F007071944434647F00407C9B204
:100D80003A4601F055F8041EFFF60CAF3C4416B984
:100D9000002CFFF607AF95F82210002957D0073432
:100DA000002EAA8C24F007070CBF002038460FF055
:100DB0004CFE041EFFF6F6AE3C4416B9002CFFF6BE
:100DC000F1AE1EB1A98C38460CF08AF9297F0029B2
:100DD0003FD095F82030002B3BD0EA8B0734002E13
:100DE00002F1240224F007090CBF0020484692B209
:100DF0000FF02BFE071EFFF6D5AE4F4416B9002F9D
:100E0000FFF6D0AE0337AB7E297E27F0070795F8B3
:100E100020001944434647F00407C9B23A4600F09F
:100E2000F9FF041EFFF6BEAE3C4416B9002CFFF6D7
:100E3000B9AE36B1EA8B4846297F083292B20CF03F
:100E4000CFFBEB6A5BB176B1EC620020ACE60F46FB
:100E5000B7E7002EF5D0002211461046EFE7002E2E
:100E6000F3D12046A0E62834FBD59BE65C000020A9
:100E700064000020600000201FB572B6194B1D6B86
:100E8000E5B9BFF34F8F1849184BCA6802F4E06206
:100E90001343CB60BFF34F8F00BFFDE7B4FBF6F405
:100EA000D3B20132002CF9D103F110026A4402F8E6
:100EB0000C4C0A2233B901A8A847E2E704460022F5
:100EC0000A26EDE7013BDBB203F110040DEB04064B
:100ED000B0FBF2F402FB1400303006F80C0C204694
:100EE000E8E700BF9811002000ED00E00400FA05DB
:100EF00013B5114C6846A37A8DF80130637A8DF8EA
:100F00000030237AADF80430E379ADF8023005F013
:100F10007DF818B1D9210320FFF7AEFF207D05F041
:100F2000A5F808B1DC21F6E7E07C05F099F808B1F6
:100F3000DD21F0E702B010BD9811002038B505465C
:100F400000284AD00EF00CFC18B94FF0FF342046B0
:100F500038BD16F008FEB0F5FA7FF6D8204C2148CF
:100F60002563002500F0DCFA26222946A01C84F81F
:100F70003450257084F82850E56216F0F2FF40F2F4
:100F8000011301212A4663801B2308462171E37166
:100F900040F21B33A175238140F2023363811F238A
:100FA000A3814FF40273E38144F601136382F723B4
:100FB000E383FB23A38404F091FA044620B140F2BA
:100FC00049310320FFF758FFEFF3108572B600F0A8
:100FD00061FF002DBBD162B6B9E76FF01504B6E72B
:100FE00098110020F10E000038B51446002840F09A
:100FF000C280624D95F83430032B00F0B980B9B14E
:1010000012B96FF0150038BD0139162900F2B3800E
:10101000DFE801F00C1D20305A63813666697B3CA5
:10102000425055878A989B9E90A1A5001378AB707B
:101030000020FFF7A9FD0028B7BF012302236FF0AE
:101040000B0085F83430A8BF85F83430DBE713781F
:10105000EB70EDE79378002BD3D0D378002BD0D072
:1010600013781A2BCDD953781A2BCAD91368C5F81F
:101070000730DDE713786A799342C2D32B71D7E743
:1010800013782A799342BCD86B71D1E713782A7907
:101090009342B6D86B74CBE71378002BB1D053785A
:1010A000013BDBB2F82BACD8138892786B82344BBF
:1010B0009A70BDE7107868750AF046FCB8E71378B7
:1010C000002B9ED0AB75B3E7012000F053FB2378D3
:1010D00008B1012B95D9EB72AAE71388AB81A7E77A
:1010E0001378AB71A4E7072000F044FB10B9237814
:1010F000012B86D9072000F03DFB18B12378002B87
:101100003FF47FAF2378EB7392E71378082B3FF619
:1011100078AF2B748CE71388FF2B3FF672AFAB735D
:1011200086E71378EB7583E713780E2B3FF669AFEC
:101130002B767DE72368134AEB616368536023894C
:10114000138175E713786B7672E71378EB766FE7A8
:101150001378AB766CE7137885F8263068E79278D9
:101160006178207804F0BAF900283FF461AF4AE7CB
:101170004FF0FF3047E76FF02C0044E79811002054
:10118000AA110020B411002070B50C4605460028B5
:101190003BD0002939D04B0737D11D4E96F834305B
:1011A000012B02D16FF00B0070BD032B02D14FF069
:1011B000FF30F9E700F0E8F80028F8D02046FFF704
:1011C000E3FC0028EEDB134BD3F8A828B2F1004F64
:1011D0000ED1114AC3F8A828104AC3F8AC28104A07
:1011E000C3F8B0280F4AC3F8B4280F4AC3F8B82888
:1011F00015F0B4FC2846F16A05F062F8FFF778FEB6
:101200000323002086F83430CEE76FF01500CBE7DB
:101210009811002000A008505F00500308001C0037
:10122000040054011FAAF8000700D00010B5084CB4
:1012300094F83430032B05D105F05EF80BF034FF41
:1012400005F0F0FF0FF08EFD002084F8340010BD93
:101250009811002050B1074B03F1140253F8041BFE
:10126000934240F8041BF9D1002070476FF015003D
:10127000704700BF8D2A0500074B10B593F8344026
:101280003CB904F0C9FF0320044900F06BFA204682
:1012900010BD4FF0FF30FBE798110020210B00003C
:1012A000074B10B593F834403CB904F0C9FF022055
:1012B000044900F057FA204610BD4FF0FF30FBE71D
:1012C00098110020FD0A0000054B10B593F834403A
:1012D0001CB904F045FF204610BD4FF0FF30FBE77E
:1012E00098110020054B10B593F834401CB912F04A
:1012F0007BFC204610BD4FF0FF30FBE7981100202B
:10130000054B10B593F834401CB912F070FC204620
:1013100010BD4FF0FF30FBE798110020054B10B5D2
:1013200093F834401CB911F0E0FF204610BD4FF097
:10133000FF30FBE798110020094B10B593F83440BB
:101340005CB904F09FFF0749082000F00BFA092060
:10135000054900F007FA204610BD4FF0FF30FBE7CB
:1013600098110020450B0000650B0000026800206A
:10137000014B1A60704700BFD0110020014B1B6861
:10138000184700BFD0110020024B1868003818BF62
:1013900001207047D0110020F7B504462D4E071DDF
:1013A0002C48376005F056FF0228054606D129492A
:1013B00020460EF051FC284603B0F0BD042842D16F
:1013C0003378092B0AD0252B1ED0314620460EF04B
:1013D000C1FCB0F5817F2DD3722112E005213E20A2
:1013E0000EF00DFC0028F0D1F37801A9327968469F
:1013F00043EA0223ADF800300FF05DF80028CFD0AB
:1014000053210820FFF738FD1A213E200EF0F7FB8C
:101410000028DAD17368694601A8C3F30F23ADF839
:10142000043011238DF806300FF083F80028B7D070
:101430006521E6E70028B3D0A17820780EF0DFFB25
:101440000028B8D1ACE70828B5D1024920460EF0F3
:101450003BFCB0E7D4110020074B4FF0FF3141F6C1
:10146000FF72C3E9001205490022C1E900221F21D1
:10147000C3E90212704700BF00000020D81200200C
:101480003F280CD801380B4BC0F3421200F01F006C
:1014900053F8223023FA00F000F001007047FF28D3
:1014A00006D04038044BC0F3421200F01F00EFE7B3
:1014B0000120704700000020D8120020074B014691
:1014C000006849681A4603C240F48C221A6041F051
:1014D000107242F4FF625A60704700BF00000020A3
:1014E0000246024B0068516803C37047D8120020BF
:1014F0000246024B0068516803C370470800002091
:101500000138064BC0F3421200F01F0003EB8203C8
:101510009B6823FA00F000F00100704700000020F3
:10152000014B1860704700BFE012002007B5FFF7BD
:1015300093FF11F0B4F9044B1B6813B10190984765
:10154000019803B05DF804FBE012002038B5274B8A
:101550000446D3F8A023D3F8A413013106D1D3F85D
:10156000A8334FF6FF719BB28B423DD0D3073BD5DA
:101570001E4DD5F8A423D5F8A833C4F80120A4F84B
:101580000530C3F3072363F03F03A371D5F890330D
:10159000013323D0D5F8943301331FD0D5F89833D5
:1015A00001331BD0D5F89C33013317D0002005F050
:1015B00007F898B9D5F89003D5F89413D5F898237F
:1015C000D5F89C33C4F80700C4F80B10C4F80F20FA
:1015D000C4F8133001230020237038BD10220021ED
:1015E000E01D16F0BEFCF5E70023F4E700C0FF00A5
:1015F00070B5274D102200210446D5F8A06316F0DF
:10160000B0FC10220021A01816F0ABFCD5F88033F6
:1016100001330BD1D5F88433013307D1D5F88833A2
:10162000013303D1D5F88C3301330BD0D5F88003C7
:10163000D5F88413D5F88823D5F88C3320616161FF
:10164000A261E361002004F0BBFF08B9F3071CD4DA
:101650000F4BD3F8902301320BD1D3F894230132EE
:1016600007D1D3F89823013203D1D3F89C23013258
:101670000BD0D3F89003D3F89413D3F89823D3F86E
:101680009C3320606160A260E360002070BD00BFF9
:1016900000C0FF0070B50C88C27CA6B2C4F30E0473
:1016A000931C058804F114021D44825AADB21A44F9
:1016B00043882A44013AB2FBF5F202FB054292B29A
:1016C0009342044B8BBF3340B34313439BB20B8015
:1016D00070BD00BF0080FFFF08B54B1E062B04D86D
:1016E0004FF4D1711520FFF7C7FB0A4B994202D97D
:1016F00040F2A311F6E719B900B10160084608BD30
:1017000028B103680022C3E901211A1D1A600431BF
:10171000F4E700BFFAFFFF7F10B5114B00EB410467
:101720001A786389B3FBF2F303FB0223013A1A44EC
:10173000B2F5706F027928BF00231A448378B2FB98
:10174000F3F0194403FB1020091AB1FBF3F003FB7B
:10175000101313446FEA43436FEA5343638110BD90
:10176000E4120020024B03EB80004160704700BF91
:10177000E4120020034B03EB80004068003818BFE0
:1017800001207047E41200202DE9F04F10F0070A05
:1017900085B0054604D040F261111720FFF76CFBBD
:1017A000544F04464FF0010B07F14806B146B046CE
:1017B00057F8043B8DF80BA03BB101A898479DF862
:1017C0000A30082B01D9E821E7E79DF80B1081BB0F
:1017D00005B13160B94506F10406E9D12DB3002306
:1017E000DFF814E111221E468EF8003058F822006E
:1017F000013A60B190F804A08178BAF1FF0F64D18A
:101800004FF000078E4207713CBFCEB20123511C3E
:10181000ECD10BB18EF80060112640F6FF6A58F843
:101820002670002F63D1013EF9D2601B05B0BDE8E0
:10183000F08F9DF80AC04A1DBCF1020FE64604EB8A
:10184000420438BF4FF0020E53000EF1FF30044443
:10185000CEF100002040BDF808406444CCF1000CFB
:10186000013C04EA0C04B4F5803F01D3F82194E76D
:1018700075B1C31A336099701C8083F803B09DF86A
:101880000C201A71019A4FEA124C1A81A3F806C073
:1018900004FB01049EE758F82C90B9F1000F06D024
:1018A00099F804B0D34504BF99F802904F440CF165
:1018B000FF3CBCF1000FEEDA3944FF29A2D90BB18D
:1018C0008EF8006040F2271167E794460027F0E7A2
:1018D00007EB410309F101093846A3F80AA0FFF715
:1018E0001BFF5FFA89F1BB788B42F1D89BE74FF081
:1018F0000009F6E7E8120020E4120020034B03EB96
:101900008000C06C00B18078704700BFE4120020F6
:10191000F8B54FF6FF7305460380184B03EB8101C2
:10192000C86CB8B186780379B3FBF6F206FB1233C4
:10193000DBB219460A1D00EB4202B2F9027054886C
:10194000002F09DB0131B1FBF6F206FB1211C9B21F
:101950008B42EFD10020F8BDFF29FBD0C4F30E036A
:10196000C4782B8024B94FF4D5711720FFF784FA7F
:101970005380BDE8F8400EF0D3BF00BFE412002052
:101980001D4B03EB810170B5CC6C054644B30304D9
:1019900004D54FF4DC711720FFF76EFA014620469C
:1019A0000EF0A1FFFF28014604D02046BDE870409C
:1019B0000EF0B6BFA078B5FBF0F300FB1353DBB21B
:1019C00019460A1D04EB4206B6F90260002E09DB37
:1019D0000131B1FBF0F200FB1211C9B28B42F0D120
:1019E000002070BDFF29FBD08B4204EB42021CBFDC
:1019F0000023E3705580D8E7E4120020094B03EB85
:101A0000810110B5CC6C014620460EF06CFFFF281A
:101A1000014604D02046BDE810400EF081BF0020F2
:101A200010BD00BFE4120020F8B5104B074603EBD1
:101A30008101CC6C014620460EF055FFFF2805467B
:101A400011D0E688238953EA064606D0014620468F
:101A50000EF066FF01463846B04720462946FFF79C
:101A60005BFE0020F8BD0520FCE700BFE41200206B
:101A700038B50E4B0446827903EB8203D86C08B963
:101A8000052038BD8278E1799142F9D24B1CE3718F
:101A900000EB41035D89B3F90A30002BF3DBA5802D
:101AA0000EF03EFF20600020EBE700BFE4120020B4
:101AB00008B50E4B03EB8101CA6C22B940F2262116
:101AC0001720FFF7D9F99178831A481DA3EB40033B
:101AD0001088B3FBF0F3002B01DB994202DC40F2EB
:101AE0002921EDE702EB4303588908BDE4120020E9
:101AF00070B5044610F003000E4603D04F211820A5
:101B0000FFF7BAF9FFF7E8FD054624B1034831466F
:101B10000460FFF7E1FD284670BD00BF7813002088
:101B20002DE9F3471C4C90461E46074622680D4699
:101B30009DF828309DF82CA01AB961211820FFF7D4
:101B40009BF91A460921404601930EF053FD524677
:101B50001FFA80F9092130460EF04CFD80B209EBE6
:101B6000000120680EF094FE019B386018B92860CF
:101B700002B0BDE8F08700EB0904414609222C6061
:101B800038680EF0F0FC534609223146286802B04E
:101B9000BDE8F0470EF0E7BC7813002070B50E46A4
:101BA00004460EF03AFD054630460EF036FD044B75
:101BB0002A1821461868BDE870400EF08DBE00BF9F
:101BC00078130020014B18680EF056BE78130020E1
:101BD0001F2AF8B504460ED89200033222F0030300
:101BE000B3F5803F2ED2194DB4B1A00711D05F21BB
:101BF0000920FFF741F9FF2A4FEA420304D9FF32D7
:101C00009A42A8BF1A46E8E77C2BB8BF7C231A4645
:101C1000E3E729706C602B8122F00302282301275F
:101C2000120403FB01F06B680025120CEEB28E4229
:101C300000D3F8BD14B126181F705E601044013542
:101C40002833F3E74FF0FF30F3E700BF7C130020A9
:101C5000144A002138B553681478C8B2844203D8B6
:101C6000AB210920FFF708F9184601312833057820
:101C7000002DF2D000218170012412898161051D9F
:101C800044709208C16100F12001446821F8022BE0
:101C9000994245F8044B1444F8D100234361037082
:101CA00038BD00BF7C1300200A4B1B89B3F5FF7FB2
:101CB0004FEA930006D25A089B1A9BB2984238BF4B
:101CC00018467047B3F5EE6F01D8FF22F4E740F2F3
:101CD0007263F3E77C1300202DE9F8434B788046CC
:101CE0000C4602F0040602F0FB07D3B1DFB12E4B25
:101CF000D4F804901D89B7BB0123AD084A46211DC5
:101D0000637004F1280004F12003A761E76123F860
:101D1000025B984241F8042B2A44F8D10023636106
:101D200001E0002FE3D0FF23A370002E18BF02268E
:101D3000A3191B7D032B03D1022F1CBF0136F6B262
:101D4000A31901221A7506F10C02002304EB860682
:101D500024F812307268A3704046C8F80020A8F832
:101D60000430BDE8F883002114226170A01816F039
:101D7000F8F8B5F5FF7F0FD26B08ED1AADB209EB9D
:101D80000502C4F804902584A2606384C4F80C9012
:101D9000A5842261E384C6E7B5F5EE6F4FF0FF033B
:101DA000EBD940F27265EAE77C1300202DE9F84395
:101DB00005460C46F720052191460EF01BFC061E39
:101DC00022DB1DB906FB04F0BDE8F88315F003071C
:101DD00003D098211920FFF74FF8DFF83480C8F8B6
:101DE0001050A5B2A8F81460BBB29D42EAD9B8F869
:101DF00014C04B46D8F810000522F72107FB0C0051
:101E000001370EF0B0FBEFE74FF0FF30DCE700BF2B
:101E10009013002007B5CDE900230B460349024685
:101E2000081D0EF04CFF03B05DF804FBA813002062
:101E300013B5064CCDE900230B46024604F1080118
:101E400004F10C000EF03BFF02B010BDA8130020FF
:101E5000024BD3E900210EF058BF00BFA8130020A9
:101E6000034B1B28D3E9022138BF1B200EF04DBFC6
:101E7000A8130020024B0146D3E900200EF02CBD30
:101E8000A8130020024B0146D3E902200EF024BD26
:101E9000A8130020124B01224FF0FF3000211B68D5
:101EA0005A60C3F80803C3F80015C3F804250D4BA6
:101EB0001B685A6040F6FE72C3F808034020C3F85E
:101EC0000015094B0949C3F80825C1F88800BFF37C
:101ED0004F8FBFF36F8FC1F88801C3F80825704793
:101EE000502200204C2200200020085000E100E099
:101EF0000A460648382302F8033BC368C1F803309A
:101F00000369536043699360704700BFB8130020B2
:101F1000024B5A8C02435A845B6A1847B81300205C
:101F2000014B00215B6A1847B813002010B5154C0F
:101F30000AF0A6FC09F090FF208DFFF7F1FF237E49
:101F400063B12246104904F1190052F80C3BE360DA
:101F500063685360A368936012F0AEFF0B4B228D51
:101F600093E8030006F060F9236B188806F088F800
:101F7000A36B94F8341094F835009847002384F844
:101F80003C3010BDB8130020F11E0000E413002007
:101F9000034B93F83C300BB1FFF7C8BF704700BF4D
:101FA000B813002070B5224C0646636C256B236481
:101FB00095F8A43094F848000BB1031DD8B295F8F9
:101FC0007D102EB9FF2803D195F87C308B4201D0CB
:101FD0000AF0B0FA95F8A43023B3E06C0AF032FDB1
:101FE00094F82C30E16C003B206C18BF012384F87E
:101FF0007030D5E94223C4E9182309F047FE46B9F9
:1020000095F87D30033B012B94BF282000200AF077
:102010006BFD95F87C1000200AF0C6FD022384F8C1
:102020003C3070BD206C0AF00DFD09F015FFE6E7AD
:10203000B81300200138C0B2032808B504D940F213
:102040002B410620FEF718FF014B185C08BD00BFAE
:10205000BC56040008B5094B93F83C20022A04D072
:1020600040F253212720FEF707FFDA7A42F00102FF
:10207000DA72BDE80840FFF759BF00BFB81300206F
:1020800010B50E4CA26F137803F00303032B04D199
:10209000D378022B01D1002010BDE06F0EF04FFB72
:1020A0000028F9D1A36F1B7803F00303032BF2D0B0
:1020B00004F046FA80F00100C0B2EDE7B81300204A
:1020C00038B51E4C0546D4F88030984708B9012031
:1020D00038BD94F83430002BF9D194F82C301BB96A
:1020E000012D03D00020F3E7002DFBD194F88430BC
:1020F000DD06C3F3001001D5FFF7C2FF636CD4F80F
:1021000088201B78C3F300132AB9B4F88C2013B1CC
:10211000B2FA82F35B0994F82C10628C39B1910702
:1021200005D5A36FD878023818BF0120D0E7002A60
:10213000CDD10028D6D183F00100C9E7B813002023
:102140002DE9F043334C85B006460F4694F83C30F9
:10215000256B012B5FFA83F804D040F2A4412720BD
:10216000FEF78AFE95F8943053B10021042085F8DB
:102170009410FFF7CDFE94F82C300BB185F89680C3
:10218000A16F0B7803F00303032B05D195F89A3068
:1021900013B90220FFF7BCFEA26F137803F003030C
:1021A000032B02D0537833BB012385F89A3095F87E
:1021B000A430D3B194F82C30216B003B94F8482024
:1021C00091F87D0018BF01230392D5E9428984F874
:1021D0007030C4E91889FFF72DFF00210346039AE8
:1021E000009102200C4909F0E9FC36B105B0BDE8C8
:1021F000F043FFF79BBE0223D7E7002FF6D030460F
:10220000FFF75EFF0028F1D105B0BDE8F043FFF70E
:10221000C9BE00BFB81300200814002037B5684CB1
:102220000023256B8DF8053095F8A42094F84830EC
:102230000AB10433DBB295F87C1028B9FF2B03D127
:1022400095F87D308B4202D0FF200AF073F995F8A3
:102250009A30032B00F2AB80DFE803F0023B899C4D
:1022600094F88E305748ADF80630A5F86C3004F07D
:102270003DF980B1A16F4FF48070FFF749FE012155
:10228000A36F85F89510DB781B2B1ED105F110008C
:102290000AF080F919E00DF105020DF10601E06F79
:1022A0000EF0E3F9A067A0B195F8E1308BB99DF885
:1022B00005302BB9038001218370A06F12F0E8FB79
:1022C000BDF80610A06F12F09EFD012384F88F3038
:1022D00001E03D4BA36795F89B30A16FDB0003F055
:1022E00008020B7803F0F303134395F89C20920047
:1022F00002F00402134323F010030B70FFF7C0FE3B
:102300000028A06F14BF102300230278134303702A
:1023100095F8A330002B4DD04378002B4AD0E06CC9
:102320000AF090FB94F82C30A16FB3FA83F3E06CC1
:102330005B0984F87030D5E94023C4E9182309F01B
:10234000A5FCA06F0EF020FD95F87D1001200AF08D
:102350002BFCA26F0123118884F8E030A4F88410CC
:1023600091781A4A84F83C30917003B030BDB5F8CA
:102370006C300DF105020DF10601E06FADF806308D
:102380000EF073F9A06700289FD140F2F3212720B7
:10239000FEF772FD0B4804F0A9F810B940F2FD21D8
:1023A000F5E7A36FDB781B2B8FD101216EE740F29D
:1023B0000B31ECE70AF046FB09F04EFDC1E700BF28
:1023C000B813002030140020481400203C140020D2
:1023D000064B10B593F83C2002F0FF0422B91C769E
:1023E00005F01AFF204610BD0C24FBE7B8130020AF
:1023F0000A4B0B4A70B506460D461A60FFF7E8FF18
:1024000018B1E1212720FEF737FD064C012104F128
:10241000900012F03DFB6664E56470BD780000201A
:1024200068000020B8130020024B012283F8E1204D
:10243000704700BFB8130020F0B585B0AF4D02AEB5
:102440000A9F86E8030095F83C1001F0FF0411B9DB
:102450000AB103B127B940F26F112720FEF70CFD36
:1024600096E8030005F12C0C85F8E14085F834402E
:1024700085F8E24085F8354085F8E04085F88F40E2
:102480006C842C856A62C5F88030AF638CE80300E9
:102490002C6B0AF0A1F809F0DFFC94F980000AF037
:1024A0000FF9A06B0AF0B2FA206A0AF00FF994F85B
:1024B000B4000AF031F995F82C60E26941F64B530B
:1024C000002E40F0C7809A4200F2B3804D2009F000
:1024D000C1FF30460AF086F96E2194F87C20002076
:1024E0000AF0A0F9864B18680AF096FA6369EB6760
:1024F000A369C5F8E43094F88B307BB9D4F8842014
:1025000062B1B4F8CE10B4F898308B4206D1B4F86A
:1025100088100B44A4F8CE300123136004F58873AF
:10252000784E04F590771868083353F8041C324647
:10253000BB4203C21646F6D15968D4F820012B6B72
:10254000714A03C293F89E2093F87C00A2F1260101
:10255000012904D993F89F10262940F0908095F81E
:102560002C20002A40F0888093F84A120EF0FCFBE1
:10257000064604F144073146384612F061FD314603
:1025800011F0D5FEB4F8503094F87D10984228BF71
:10259000184685F88E00384612F018FD94F87D1024
:1025A00094F8A4700429B4F8586008BF032111F00E
:1025B000BEFE0FB9043080B2B04228BF3046C6B26A
:1025C00085F8E86004F054FF10B1492E38BF492661
:1025D00095F82C7085F84860002F75D194F8A330D9
:1025E0008BB1012394F87C0085F87030D4E9402346
:1025F000C5E91823FFF71EFDFB22034641490420CD
:10260000009709F0DBFA0120FFF708FE00232B609A
:102610006B60AB60B4F898306B8023882B8094F8A3
:10262000B4302B71D4F88C300BB101221A6005B094
:10263000F0BD962009F00EFF94F87C20334B03EB9D
:10264000820359684FF47A7301F5FA71B1FBF3F123
:102650006E3142E79A420AD84D2009F0FBFE012074
:102660000AF0C0F89B2194F87D20012038E79620DD
:1026700009F0F0FEC421F6E793F8D61276E7213A86
:10268000012A0FD824290FD095F82C20BAB193F83D
:102690004E315A0711D413F001017FF467AF03F0F4
:1026A000020163E724290AD195F82C203AB193F866
:1026B0004E2193F875301340EBE7042156E70328C9
:1026C00014BF0646042654E794F8A43093B10123BE
:1026D00094F87D0085F87030D4E94223C5E91823C9
:1026E000FFF7A8FC0022034606490092022032466A
:1026F00009F064FA0120FFF755FC87E7B8130020C2
:10270000780000200814002020140020BC5604008B
:1027100008B5114B93F83C201AB9BDE80840FFF703
:1027200005BC93F82C2042B993F83C30012B12D011
:1027300040F231212720FEF79FFB93F83C20022A2C
:1027400002D040F23521F5E71B6BD3F81802BDE843
:1027500008400AF089B908BDB8130020014B18766B
:10276000704700BFB8130020014B93F8E00070479A
:10277000B8130020044B93F88F201AB9188DC0F3BA
:102780000030704701207047B8130020024B188DAD
:10279000C0F3C020704700BFB8130020014B93F86E
:1027A000E2007047B81300202DE9F34182071E4D67
:1027B00006460F462C6B22D5D5F8883023B940F257
:1027C00095412720FEF758FBB5F88C201846296C58
:1027D000033291F8018015F099FB0DF1020201A975
:1027E0002864D5F8E4000EF03DF801980EF024F8C6
:1027F000012238604146D5F8E4000DF0EAFFF30706
:102800000ED5D4E94232013342F10002C4E942322A
:1028100094F89C30012B0CBF0023012384F89C30DA
:1028200002B0BDE8F08100BFB81300202DE9FF47DA
:10283000B54C002380468946276BCDE9023394F8D6
:102840003C30022B04D04FF4A3612720FEF714FB89
:10285000238D590606D44020FFF762FB238D43F0F9
:102860004003238597F8A430B8F1000F00F052819F
:10287000B3B109F01BFB09F0FDFA88B9236C5A7853
:1028800072B11B7897F89C20C3F3C0039A4207D11A
:10289000012384F83530FFF749FB04B0BDE8F08729
:1028A000236C5978A4F88C1009B3D4F8E4000DF027
:1028B00067FFC4F88800238D97F89B2043F40073CA
:1028C0002385236C1B78C3F380039A4200F0C280F7
:1028D000256B95F89A30002B40D0022B11D102A91C
:1028E000E06F0DF0E4FE28B940F20E41ADE7C4F808
:1028F0008810E0E7D5E94032013342F10002C5E932
:102900004032002194F82C3085F89A103BB195F8AC
:10291000963023B1102085F89610FFF7F9FA95F854
:1029200095309BB1002685F8956003F0F1FD10B954
:1029300040F2254189E731460820FFF7E9FAD5E959
:102940004032013342F10002C5E9403295F89B3034
:10295000012B0CBF0023012385F89B30238D4FF002
:10296000000A43F400632385216C97F89C200D78BE
:10297000C5F3C0039A426FD00025206C0EF004FA14
:1029800097F8A330B3B194F82C3097F87C00B3FAE1
:1029900083F35B0984F87030D7E94023C4E9182336
:1029A000FFF748FB00220346584900920420FB220F
:1029B00009F004F9B9F1000F00F0C38001260AF014
:1029C0002BF91DB103A90220FFF7EEFEBAF1000FAB
:1029D00010D094F82C3043B1B4F80720B4F8053087
:1029E0001343B7F89820134304D0B4F809300133E7
:1029F000A4F80930B8F1000F00F0BD80B4F805303C
:102A00000133A4F80530002384F8E230404805F093
:102A100025FB029830B10DF00FFF216B00220272EE
:102A200004F068FC039B33B1216B00221A720C2264
:102A3000039804F02DFC002E7FF42DAF238D1B0690
:102A40003FF52BAF8020FFF76BFA238D43F0800317
:102A5000238522E7C24687E705F00305266B032D91
:102A600014D0F5B996F89C30013B18BF012386F8C5
:102A70009C30236C5B78002B3FF47FAFD6E9423269
:102A8000013342F10002C6E9423276E7238D01208C
:102A9000002543F4805386F894002385FFF738FA25
:102AA000E0E74D78002DDDD0238D96F8A45043F457
:102AB0008053238509F0E8FC042894F8E83006D117
:102AC000002D14BF1B221F22934228BF1346226CE5
:102AD00052789A420BD8D4F88830002B3FF44CAF90
:102AE00094F8E1306BB12020FFF71AFA44E794F82C
:102AF0003430012043F0100384F834300BF088FBAD
:102B00003AE74546AEE700BFB8130020081400209E
:102B1000E41300200BB109F0D7F994F8E230013347
:102B200084F8E230238D43F48063238597F87D3069
:102B3000033B012B02D801200BF06AFB0025AA46BB
:102B40001EE794F82C2094F8E2303AB1628C120718
:102B500004D5A26FD278022A3FF430AF012B3FF6A2
:102B60002DAF0120FFF7ACFA064600287FF426AF10
:102B7000FFF754FB25E7B4F807300133A4F807301A
:102B800044E700BF2DE9F04F04461E4600230D46E2
:102B900090462DED028B8BB090F87D70069311F06E
:102BA000AAF894F806320B2B04D940F2C131062062
:102BB000FEF762F9C64A32F813B094F89F308344A6
:102BC000039388F001031FFA8BFB0493B8F1000F05
:102BD00034D194F84432032B30D1039B0E2B2DD1EA
:102BE000B4F8D432AB4229D1D4F84C322046B4F8F0
:102BF0001C22C4F83832E369C4F83C32B4F892328B
:102C00001344C4F8403208F097FCE269D4F8DC328F
:102C10009A4203D004F1280013F090FFD4F8D83280
:102C2000E363B4F8D632A4F84030D4F8DC32E36180
:102C3000D4F8E0326362022384F84432B4F890A2FC
:102C400004F51873B4F89890A5EB0A0A08EE103A48
:102C5000A5EB0909DFF87C820FFA8AF30FFA89F9EC
:102C6000002BB8BFD4E99E2394F844A2ACBF3246EF
:102C7000C4E9A2235FFA8AFABFBF0023012284F8C5
:102C80005B324B46BAF1030F00F2C481DFE81AF061
:102C9000040024016100450194F87D1094F81602A7
:102CA00011F06CFB0746E06B5946384414F053FFB3
:102CB0005946C4F84802E06914F04DFFE26941F654
:102CC0004B5307A99A4298BF4FF0020A5044C4F8E8
:102CD0004C0208A809F0A8FF079BD4E9A2010093C1
:102CE000DDE9082314F0CEFF814620460EF071F88E
:102CF000D4F8943294F87D00D4F83CA006930AF0FE
:102D0000C5F8069B00F52240D4F84812BB3BB13011
:102D10009A444FF47A73AAEB010A3031B0FBF3F016
:102D20005744B4F84030A7EB090703EB41013F1AC1
:102D300094F87D0006970EF058F8D4F89422069B7C
:102D4000C8F800009B1ACC2B64D840F2C641302052
:102D50002EE7E36B5946D4F83C02184414F0FBFE0E
:102D60005946C4F84802E06914F0F5FE41F64B53A9
:102D7000E2699A4288BF4FF0000A5044C4F84C02FE
:102D800020460EF026F8B4F81C32E76BD4F83CA2CB
:102D9000002B40F09880002E00F0958094F87D0084
:102DA00057440AF073F800F52240D4F848324FF443
:102DB0007A7BB130BB3FB0FBFBF9FF1A94F87D0082
:102DC000D4F880321F44C31ED4E99E12012BA7EB16
:102DD000010775D90AF05AF800F2E730B0FBFBFBA7
:102DE000A7EB09075F44D4F84812D4F83832D4F876
:102DF0004022303194F87D0002FB0311B4F84030DA
:102E0000069703EB41010DF0F0FF0123C8F8000025
:102E100084F84432E7694FF00009D4F84C3204F1E9
:102E20004400A7F5A277069984F86092FF1AD8F8B3
:102E300000309F4228BF1F46D4E9A232C4F818725E
:102E40005B1842F10002C4E99C3212F0BDF838442C
:102E5000A4F89052C4F86402D4E99C23C4E9A223E4
:102E600007F06CFD20B1D4F864321E33C4F864322C
:102E7000B4F8081284F868924D1B2DB2002DC4BF1F
:102E8000022384F86832039B0E2B00F0C680002ECC
:102E900040F0C48094F84432002B00F0DC80E169FB
:102EA00018EE100AD4F84C32C91A11F00FFA80B299
:102EB000002800F0D080169B03B118800120DAE0D2
:102EC0004FF03E0B8CE75744D4F84832FF1A8AE79C
:102ED000D4560400A4140020D4F84C22E169D4F89C
:102EE0004072891AD4F838024B43B4F84010069364
:102EF000B4F81C329944FB439944D4F84832303337
:102F000000FB073394F87D0002FB093301EB43011A
:102F10000DF06BFFC8F800007CE7E06958430690AD
:102F200056B3B4F81C1239BB84F85B12D4F84C12B7
:102F300001FB130A94F89E30262BCDF818A003D07D
:102F400094F89F30262B09D1B4F8D432EB1A1B0425
:102F500004D494F8D732002B18BF1F46D2B3B4F86C
:102F60001C32BBBBD4E99E23D4E9A00182428B4131
:102F700008D340F21A51EAE694F85B1200297FF474
:102F800049AFD3E794F87D00C31E012B3DD909F06A
:102F90007DFF00F522404FF47A7BB130B0FBFBF0AF
:102FA00000F1AB0BD4F8803294F87D00103BD4E9EB
:102FB0009E125A1AC31E012B924429D909F066FFAA
:102FC0004FF47A7300F2E730B0FBF3F0AAEB0B0A90
:102FD00050440690B4F81C123846D4F84C32494498
:102FE00059433031490005910DF0FFFE244A41F666
:102FF0004B5305991060E06998423FF60BAF06AB62
:1030000011F0D9F984F85B0204E74FF4897BC9E732
:103010003E20DBE740F2325199E6E6B1B4F83012D7
:1030200019B3B4F8322294F83432501CA4F8322286
:1030300002FB033399420EDD94F868325BB1002342
:10304000A4F8320284F8683204F018FA00F007009D
:10305000013084F8340218EE101A94F85C020BF078
:1030600031FF20B940F27B5171E60A46DBE7049B51
:1030700084F8583200200BB0BDEC028BBDE8F08F15
:10308000A4140020F0B5044685B018B9A62130205C
:10309000FDF7F2FE072900F20B81DFE811F00800CE
:1030A0003E003E0039000901F500FD00070190F8DF
:1030B00058321BB3B0F85632B0F89820934217D16B
:1030C000B0F80C22D31AA0F89820A0F80E322046AF
:1030D000D4E99C23C4E99E2308F01CF994F8133228
:1030E000002B00F09F8005B0BDE8F04013F0DAB887
:1030F0009A1AA0F80E22A4F89830E8E7B0F85432F3
:10310000B0F898209B1AA0F80E32B0F85432F2E7CB
:1031100005B0BDE8F04009F093BD14F044FDD4E9DA
:103120009E23801A61EB0301012871F1000302DA8A
:1031300040F20661ABE76FF0010383424FF00003FA
:103140008B4102DA40F20761A1E7E3690BB1B0FB02
:10315000F3F394F89F10B4F856220E2942D10132AD
:10316000A4F85622B4F8923202AEB4F89850013363
:10317000504FA4F89232B4F8D4301D44B4F8D23091
:10318000013DED1AADB23B685BB1B4F856120022B6
:103190002046013989B29847B4F856321844A4F849
:1031A0005602B4F856126B1A18043DD40023204678
:1031B00000961A46FFF7E6FC88B301282CD1B4F834
:1031C0005622B4F80812BDF808301344521A1204FB
:1031D0009BB204D5EA1A12F4004F18BF0B46A4F8AC
:1031E0005632D0E7B4F898100B449BB2D11A0D04B4
:1031F00054BF531C01339BB2A4F8563294F8593291
:10320000002BAFD1B4F80C32B4F85622934204BF6D
:103210000133A4F85632A5E740F2546137E7D4F8F9
:103220008430F3B905B0F0BD94F8A2303046039471
:10323000002B0CBF3E23082384F8C13001238DF8F6
:10324000083004F0B3FC204613F02EF8002394F865
:103250005C0284F844320BF0BDFD202384F85C321C
:10326000E0E7B4F8CE20B4F856329B1A1BB2002B1C
:10327000D8DDB4F888100B44013BB3FBF1F303FB3A
:103280000123A4F8CE30CDE701200AF0C1FF05B03C
:10329000BDE8F0400DF088BD90F84432042B01D019
:1032A000C521F4E6002380F84432BBE7CB21EEE6EB
:1032B000CF21ECE6840000202DE9F04104460E46C3
:1032C000154690F8403103F0FF071BB10C27384634
:1032D000BDE8F08101464B480BF05EFD202880469A
:1032E000F4D05822394604F58C7014F03AFE84F874
:1032F0001881C4F81C61FF2384F8403136B104F012
:10330000D5F800F00700013086F8340202234FF0B0
:103310000008A4F8503184F8488114F026FC4930A4
:1033200086B2204612F0BDFD0146D8B310F0E3FC92
:1033300000F5CD6081B2284614F00DFC2844C4F895
:103340004C0114F030FC30184FF00106A4F8268030
:1033500041F1000184F82061C4E95601204612F0D1
:10336000B6FDD0B1A5F594653146204612F00CFDAE
:103370002D1AC4F824514FF0FF326FF00043C4E916
:10338000582304F5A47194F818010BF09BFD70BB51
:1033900040F2C1113020FDF76FFD3046A43D12F020
:1033A00086FEE5E72046DFF8608012F0EDFCA430F1
:1033B000C4F84C01B8F8040048B1E08C38B104F00E
:1033C00075F8B8F80430B0FBF3F202FB13000644C2
:1033D00014F0E9FB361841F10001C4E95661002DF3
:1033E000C9D0AE1941F10001C4E95861C9E7D4E977
:1033F000562300212046C4E94C23C4E94E2312F091
:1034000086FD64E7B90E0100A4140020F0B5002386
:1034100085B0CDE9003303238DF806306846FEF70A
:1034200027FB88B11D4E01230027B3710223CDE98C
:1034300002778DF80E3002A8FEF71AFB0546A8B1F8
:103440000023B37105B0F0BD00980DF01BFEE5E759
:1034500090F85C020CF052F894F85C0284F8445244
:103460000BF0B8FC202384F85C32DFE7029B002BD2
:10347000E1D093F85C22202ADDD018884FF6FF7344
:103480009842DDD00221FEF7B9FA04460028DFD1C8
:1034900040F22B113020FDF7EFFC00BFA4140020F8
:1034A000044B0022DA719A7142F210729A80FFF78F
:1034B000ADBF00BFA4140020014BD871704700BFFE
:1034C000A414002010B5044608F0E4FF074B9A68E6
:1034D000824208D3E16941F64B52914203D998796F
:1034E00080F0010010BD0020FCE700BFA414002004
:1034F000F0B5044685B090F8133203F0FF05002BB9
:103500006ED190F84432032B6AD114F04CFBD4E90D
:103510009E23801A61EB0301012871F100035FDB38
:103520006FF00103834275EB010304DA40F2AF51FF
:103530003020FDF7A1FCE269B4F898300AB1B0FB85
:10354000F2F2013313449BB2A4F85432B4F80C32B3
:10355000B4F854229B1A1BB2002B41DD94F85C0294
:103560000BF0B6FD00283BD0FF2384F85932B4F8A5
:10357000D4300DF10E07B4F898501A4E1D44B4F82B
:10358000D230013DED1AADB2336863B1B4F85412D4
:1035900000222046013989B29847B4F854321844C1
:1035A00080B2A4F85402B4F85432EB1A1B0417D4B6
:1035B000B4F8541200230122204689B20097FFF785
:1035C000E1FA68B1012808D1B4F85432BDF80E20F0
:1035D00013449BB2A4F85432D6E740F2F651A7E761
:1035E00005B0F0BD840000202DE9FF410446062906
:1035F0007ED8DFE801F0042815252C3178003E4BF9
:103600009B7903F0FF025BB900920123B0F80C1222
:10361000FFF7B8FA38B140F2CA613020FDF72CFC50
:10362000042384F8443209F087F90BF0B7FA002339
:10363000B4F89820A4F89232A4F8562284F85932AB
:1036400004B0BDE8F081032380F84432F8E708F0C5
:1036500041FFC4E9A001F3E7284B1B6803B1984779
:1036600094F87D30E569033BDFF88C80012BD4F8BA
:103670004C3294BF282200229D4202F5807288BFFE
:10368000ED1A98F8073098BF00251BB9636C9D426E
:1036900028BF1D46D4F8187204F14400039211F0BB
:1036A00093FC074402200BF07DFE0221EE1B26EA6C
:1036B000E676864228BF064630460BF0B9FE039AEE
:1036C00000B937443946204611F00EFDD4F81832BF
:1036D000C8F80800E06918440BF036FE0028AFD1A6
:1036E00040F2793199E704B0BDE8F0410DF071BBCB
:1036F00040F2657191E700BFA41400207C00002017
:10370000012A70B505460C46164615D0022A18D077
:1037100042BB08F0BFFE3246014620460DF082FC57
:103720002A46124994F818010AF062FD40B94FF494
:10373000EF613020FDF7A0FB08F0ACFEC5F8940265
:1037400070BDD0F89412012220460DF06BFC2A4681
:10375000064994F818010AF04BFD0028F0D140F218
:103760008971E6E740F28F71E3E700BF8530000022
:10377000014B9880704700BFA4140020303270B510
:10378000054692B20C461E460DF05FF935B1044A6B
:1037900000231560147556751471936070BD00BFD9
:1037A000C4140020014B1870704700BF11000020A6
:1037B00038B50A4B0D4653F82040084609F066FB21
:1037C000033D04F58564012D04444FF47A70B4FB85
:1037D000F0F494BF28200020204438BD2C5704006A
:1037E0002DE9F84F05460C46174691F89EB01E4647
:1037F0001BB10121204607F05DFF94F83032032B06
:1038000055D8DFE803F002524C5227B940F2232189
:103810003520FDF731FB01230027204684F83032A4
:103820000DF0E4FCDFF8A4A1DAF80030002B41D061
:1038300031462046984700FB077800F037F9D8BB9F
:103840000221B4F92C0211F074FCB4F82C321B1ACA
:10385000A4F82C32D4E9823218EB030342F10002BF
:103860001B1842EBE070C4E98230C5E90430002344
:103870002B7094F89E9009F0FD030C2B1ED0A9F13B
:103880002603D3F1000949EB0309204612F01BFD82
:1038900010B1B9F1000F14D000232B7217E00323ED
:1038A000D4F8387284F83032BCE7E769BAE740F2FE
:1038B0005D21ADE7B846C0E70020CBE74FF0010936
:1038C000E3E794F83032012BDAB22DD12A720023CB
:1038D00004F144006B7211F077FB6860002E72D027
:1038E000ABF10E0BBBF1010F6DD93946284610F034
:1038F000EDFC86B2204612F0E6FC8346B9F1000FDB
:103900001AD1864218D308FB00F185F80890D4E953
:1039100082325B1842F10002C5E90432B8F1000FAF
:1039200004D140F2A72173E70223B6E739462846BF
:1039300010F0CCFC584486B23146204607F0BAFE5F
:10394000DAF8003063B101212046984747433044FC
:10395000D5E9043286B2DF1942F10002C5E90472EA
:1039600000F0A4F8B0B97100B4F92C02B1F5803FB1
:10397000B4BF89B24FF6FF7111F0DBFBB4F82C3203
:103980001B1AA4F82C32D5E904321B1842EBE07064
:10399000C5E90430D5E90423C4E98223D4F884308E
:1039A0008BB1B4F8CE20B4F898309B1A1BB2002B20
:1039B00009DDB4F888100B44013BB3FBF1F303FBC2
:1039C0000123A4F8CE30BDE8F88F00BF88000020A6
:1039D000014B5870704700BFE014002010B504463A
:1039E00004293FD8DFE801F0031A161E3A00204BE5
:1039F0001B7803F0FF026BB901210DF006FCB4F84F
:103A000098300133A4F8983008F096FFBDE81040D4
:103A10000BF0C4B8042384F83032F5E7032384F8AC
:103A2000303210BDC369D0F85822C0F83832934202
:103A300002D0283013F082F8D4F854322046E363E1
:103A4000B4F85032A4F84030D4F85832E361D4F8D6
:103A50005C3263620DF0CAFB0223E0E7BDE8104070
:103A60000DF0C4BB40F23D313520FDF705FA00BF33
:103A7000E014002010B5D0E906436BB1D0E9022173
:103A80009C611144DA680A44DA6082693AB1D36110
:103A90000023C0E9063310BD034A1460F5E7002B8C
:103AA000F6D0DA60F4E700BFE8140020014B187983
:103AB000704700BFE814002010B50F4C206820B1FB
:103AC000616813F046F900232360A3680BB100235B
:103AD000A360237F022B03D194F82030DB0705D5A8
:103AE00008F0CEFE0023237708F0B6F9636A94F855
:103AF0002000BDE810401847F01400200123F0B565
:103B0000524C85B084F82830E36A1B7A0BB3226BE1
:103B100094F8341092F8E030081E03F1FF3318BF18
:103B200001200229DBB284F85800D2F8D00092F8C4
:103B3000D420C4E9120234BF01220222032B52D83E
:103B4000009204F13801424A0420D35CFB2208F0C1
:103B500035F8236BFF2093F8E01008F0EBFC94F8A5
:103B60006030032B44D10023656EA36094F8343099
:103B70006E78012B56D8314628780DF06AFB6768BD
:103B8000ADF80C00C0F3C002D7F8983097F89C103D
:103B900003F0010161F382004306C7B28DF80C0007
:103BA0005FBF206BD0F8D03090F8D42003F0010232
:103BB00007F05003C7F301079DF80D003B43687001
:103BC00043EA810343EAC2032B70E36A1B7AA3B37F
:103BD0009EB3A06E08F036FF2946A06E05B0BDE882
:103BE000F04008F053B840F22B410620FDF744F9AD
:103BF000012B216B94F8340009D1097F09F09CFA5C
:103C0000A060A56865B94FF4C9714720EEE7D1F807
:103C1000D02091F8D4300090084609F0A7FAEFE7D9
:103C20002035A3E794F860302846032B02D107F033
:103C3000AFFECAE707F08EFEC7E7284608F002FF8E
:103C400005B0BDE8F04008F007B900BFF01400204F
:103C5000405704002DE9F7430D4606467F4CA0B9B6
:103C600094F86030032B14BF62684026E46E1EBFD8
:103C7000536E0133536608F015FC01463046A047E9
:103C800003B0BDE8F043FFF717BF2368002B41D016
:103C9000203394F834205978012A3DD818780DF053
:103CA000D8FA6368ADF80400D3F8982093F89C30F4
:103CB000236B02F00102D3F8D07093F8D4309DF852
:103CC0000430C3F3C00087EA9307C3F3801890421F
:103CD00007F001070CBF0126002645D0B8F1000F00
:103CE0000CBF4FF088094FF00809E36A1B7A002BDC
:103CF0003DD0B8F1000F3AD1C9B3C6B308F0D6F839
:103D000008F0B8F898BB94F8203043F0030384F827
:103D10002030B5E7636EBCE7022A23D19DF804206A
:103D20001B7822F03F0203F03F03134394F8602016
:103D3000032A8DF8043008D103F00303032B0ED0BF
:103D400094F8203043F00103E1E713F0200F0CBF9B
:103D50004FF008094FF00C090027B846C5E74FF0AF
:103D60004809F9E70027B8464FF00809BDE794F87D
:103D7000343013F0FD0F03D108F0ACFBC4E91C0193
:103D800008F090FBE36E0146A0674846984719F09B
:103D9000400F7FF475AFB8F1000F33D16268002E89
:103DA00043D023685BB3E66F83F8008083F801801B
:103DB00083F8028083F80380D4E91C10891940EB52
:103DC000E670C3E90410B4F88010003918BF01216F
:103DD0001976516B81B95363936392F8313023B9EB
:103DE00060681F49293011F061F800232360E36EF9
:103DF0001020A16F984705E0916B0B60ECE7936D85
:103E0000002BF4D01FB1E36E2020A16F9847002D46
:103E100096D194F8343063B1013B012B7FF630AF7B
:103E200040F2B9214720FDF727F8D36E0133D3665E
:103E3000E8E7FFF763FE257F012D0CD108F032FB88
:103E4000E16802232A4601440648237703B0BDE80F
:103E5000F04308F0CDBE03B0BDE8F083F0140020BD
:103E6000116E01000015002073B53D4C0220E36A7D
:103E700084F828001B7A13B394F8341062684D1E3E
:103E800092F8A83018BF0125013B84F85850D2F8A9
:103E90009860DBB292F89C50C4E91265927D1B2AAF
:103EA00038BF1B22814234BF01210146032B46D873
:103EB00000912C49CB5C04F1380107F07FFEE36AE6
:103EC00094F860101A7A032963680CBF0820987D63
:103ED0000AB10430C0B293F8A81008F02BFB94F894
:103EE0006030023B012B2FD9606812F025FF206063
:103EF000256865B36368D3F8982093F89C30C5E9CA
:103F000002232035E36A1B7A1BB3A06E08F09AFDEA
:103F1000A16E284607F0BAFE94F8343003F0FD0392
:103F2000012B1AD1636893F8A830033B012B94BF8F
:103F30002820002002B0BDE8704008F0D5BD40F256
:103F40002B410620FCF798FF00232360D0E7656E25
:103F5000D8E7284608F076FDDEE702B070BD00BF66
:103F6000F01400204057040073B5254C054694F822
:103F70006030032B04D102B0BDE87040FFF79CBD58
:103F8000A26822B940F2D1214720FCF775FF012B2E
:103F90000CD0D4F88430206BD4E91C2100F1D00679
:103FA0009A18009641EBE37313F025FD0023A360FC
:103FB00035B194F8203043F0010384F82030DAE77B
:103FC00094F83430002BD6D0032BD4D0012B11D150
:103FD000FFF74AFF237F012B0FD108F087FAE16832
:103FE00002232A4601440748237702B0BDE8704007
:103FF00008F0FEBD40F2F121C6E702B070BD00BF7F
:10400000F014002000150020034AD2F88430184430
:10401000C2F88400704700BFF0140020044B054A2A
:10402000C3F888200022C3E919011A77704700BF3E
:10403000F01400208C000020034BD866D3F88800D1
:10404000596208F0E9BC00BFF0140020014B0022C7
:104050001A777047F01400202DE9F743494C994630
:104060000F9B1646BDF82C806360109B0E9A23634D
:104070000A9B9DF830E0A4F880804FF00008C4F857
:104080008430137A9DF83470119D94F81CC084F824
:104090003460E26284F82080C4F87C9084F860E0A8
:1040A000C4E91C010BB305F1100304F1380805F154
:1040B00020091868083353F8041CC6464B45AEE87F
:1040C0000300F046F5D1D2F8008020352E490023B8
:1040D00015F8010B28FA03FE083380EA0E00202BA6
:1040E00001F8010BE878C870F2D1BCF1020F24D0BE
:1040F000106808F0EBFA384608F00EFBE36A5868DF
:1041000008F084FC236B93F9E10008F0D9FA94F8E5
:10411000343003F0FD03012B0DBF236B01206368D6
:1041200000200CBF93F8E03093F8A830D4E91C8944
:10413000009342464B4608F089FB032E15D8DFE872
:1041400006F002110211FFF78FFE94F834000128E7
:1041500014D878B1636893F8A81003B0BDE8F043B1
:1041600008F022BDFFF7CAFCEFE740F249314720D3
:10417000FCF782FE236B93F8E010EEE703B0BDE896
:10418000F08300BFF014002040150020074B0022F0
:104190001A7793F82820022A06D1D3E91C21801827
:1041A00041F1000108F08CBC704700BFF014002002
:1041B000044A92F8203043F0010382F82030FFF7E0
:1041C0007BBC00BFF014002070B50B4C9D7DE66AEF
:1041D000367A0EB10435EDB293F8A83056681268FD
:1041E000637600232176E3760123A576E0602377CA
:1041F000C4E9042670BD00BFF0140020F0B5157AA4
:104200009C7B0DB10434E4B2576893F8E060126807
:1042100093F9E150054BC3E90427012219765E7634
:104220009C76DD76D8601A77F0BD00BFF0140020D0
:104230000138C0B2032808B504D940F2173106206E
:10424000FCF71AFE014B185C08BD00BF585704006C
:104250000138C0B2032808B504D940F2173106204E
:10426000FCF70AFE014B185C08BD00BFDC570400D8
:104270000138C0B2032808B504D940F2173106202E
:10428000FCF7FAFD014B185C08BD00BF5058040054
:104290000138C0B2032808B504D940F2173106200E
:1042A000FCF7EAFD014B185C08BD00BFE4580400B0
:1042B000F8B50C46074618B9E1211A20FCF7DCFDD9
:1042C00024230B706FF4F973C518437ACB70B5F8DB
:1042D000B0318B8095F898314B7295F899318B728B
:1042E00095F89A31CB7295F8B531B5F8AE010B75EA
:1042F0000821FDF783FB95F8FC310646002B63D1BE
:1043000008B9F321D9E7D5F8B420EB6890F800E0BC
:104310005FFA82FCD8B2C3F30F21C2F30F27C3F3B5
:104320000743C2F30742BEF1000F31D1A37361739B
:1043300084F80FC062742073277495F8A800FFF703
:1043400077FFA07495F89001FFF772FFE074EB7DA2
:10435000637595F8BF30A375AB7DA4F8193095F857
:10436000BE30A4F81B3040F2E242337CA371737C70
:10437000E371B37C2372737DE375B37D2376736839
:10438000B3FBF2F3A4F81D30012385F81831F8BD12
:10439000637484F80CC0A27321746773E07395F89A
:1043A0009001FFF745FFA07495F8A800FFF740FFC4
:1043B000E07495F8BF306375EB7DA37595F8BE305A
:1043C000A4F81930AB7DCCE778B10378012B0CD180
:1043D00017F8033C4BB11623074907F10A0085F88B
:1043E000063210F060FD4423E37029463046BDE8F4
:1043F000F8400CF0B4BF00BFFF130100054B98421A
:104400009FBF00F53470044B1860002088BF122055
:10441000704700BF00093D0014000020014B1860E8
:10442000704700BF7C150020F8B5224D2E68377804
:10443000002F3CD1D6E91023D6E91446121B63EBBA
:104440000603141843F10003012C73F1000204DA8F
:1044500040F241114220FCF70FFD4FF0FF32A24223
:1044600077EB030302DA4FF4A171F3E7D9B90FF048
:1044700042FC2B6893F862300B2B03D940F2C13118
:104480000620E8E70C4A102632F8131001442046B3
:1044900089B213F060FB30442B685B685B0898427C
:1044A00028BF1846F8BD322102260846EEE7002054
:1044B000F2E700BF801500205C570400006810B5CB
:1044C00007292BD8DFE801F00414140A2A10222748
:1044D000144B1B68BDE810409B681847114B1B68C4
:1044E0005B69BDE8104018470E4B1B681B69F8E775
:1044F0000023037710F8201B19B9BDE8104007F01E
:10450000FBB91946BDE8104007F0D2B940F284511A
:104510004220FCF7B1FC40F28751F9E740F28A51A2
:10452000F6E700BFB8000020F8B505460E4628079C
:1045300033D5324C0123A0682371637190F8C831E0
:10454000022B09D103232E4900F2F31000F82B3C73
:104550000023437210F0A7FCA16842F21070D4E966
:104560000432B1F8B671F31842F10002E7FB0032F1
:104570002768C1E976323B784BB93A7F38460DF06F
:104580000EFB3146024607F1200012F0D3F829064F
:104590005EBFA368012283F8C921EA060CD5174C37
:1045A000A068C17D98300DF02FFDA268002382F82D
:1045B000C931926D02B32376AB061CD50F4CA068AF
:1045C000D0E9626590F8BF1000F5C0700DF01CFDD9
:1045D00023681A784AB9A268D2E962128E4275EB52
:1045E000020202D25868FFF70FFDA268D2F87031BC
:1045F000013BC2F87031F8BD0123DCE780150020D3
:10460000B142000038B50446154608465AB903239E
:1046100004F2F31084F8C83184F8FC510949BDE86C
:10462000384010F040BC0B7853B904F211217430BB
:104630000CF0BBF920B940F27B414220FCF71CFC96
:104640000023E5E7B142000038B5254D2B685C6FCB
:1046500024B36FF404731C44D4F8E03194F8E411EB
:10466000013394F8C12094F8BF0041F100019B1A76
:1046700001F0FF0161F100010133A3FB002341F1CF
:10468000000100FB013304F1B000002BBCBF00228D
:10469000134608F0C3FDD4F81142D9E72868002476
:1046A000203000F8044C12F08FF848B1286801213E
:1046B000047710F8203B7BB9BDE8384007F01CB9FF
:1046C000286810F8203B1BB9BDE8384012F0A2B8AA
:1046D000BDE8384012F08EB8BDE8384007F0E8B8C1
:1046E0008015002070B50E46B0B191F890210C4BAA
:1046F00091F8A80003EB82039D6908F0C7FB4135E0
:104700002C18304604F2E7340DF0EDFA4FF47A73CA
:10471000B4FBF3F4204470BD4CF26204F1E700BF37
:104720005C5704002DE9F04FB14D91B004460246AC
:104730002B680CA80E4619780DF03EFA2B68DDF8B0
:10474000348020461A7F08F1A6010DF083F90F216D
:104750000890B4F8AC01FDF751F90746002867D07E
:1047600094F8900107F01CF907EB4000437E84F8B1
:10477000913104F198012B68204604F1B0091B7FA8
:104780000093637EE27D0DF05EFC2B6894F8BF70B1
:1047900004F5C0711B7F3A4628760093204694F8B2
:1047A000C1300DF050FCD4F8E03194F8E4114846E3
:1047B000013341F10001A3FB073201FB07275A1E19
:1047C00067F10003DBB213F013F9E17D59B1D4F8BE
:1047D000E00194F8E421D4E92813884272EB030342
:1047E0002CBF0121002194F8BF205AB1D4F8E00178
:1047F00094F8E471D4E96223904277EB03032CBF71
:10480000012200222868D4F89C3190F81CC003FBD8
:104810000CFC002900F0C180D4F8E031D4F8A0707D
:10482000DB1BFF2B07D940F2EB114220FCF724FBE6
:1048300098F880309BE7476807FB03C3C3F1000A81
:10484000002A00F0AC80D4F8E071D4F88831A7EBEE
:10485000030EBEF1FF0FE6D8D4F898310769DF1BCD
:10486000A7EB0C0C476807FB1EC700236B710029E0
:1048700000F09E8082F00103297930460993FFF70A
:10488000D3FD29688346099B91F800E0BEF1010F32
:1048900040F0908094F890C1564800EB8C004FF4A3
:1048A0007A7C806900F5FA70B0FBFCFCD1E910015C
:1048B0006E3041F10001801941F100011CEB000054
:1048C00041F1000108F58078089A04F5DC7C059434
:1048D000CDE906984FF00008CDF810C0CDE90232BE
:1048E000CDE9007853467246FFF7B6FB2B68AC6003
:1048F0001B78012B68D094F8A8004FF47A7808F060
:10490000BDFA94F8A8203B4B03EB8203DB6A03F269
:10491000E733B3FBF8F303EB4B0B5844FFF736FCDC
:10492000D5F80080A86898F81830414698F81C20FF
:10493000012B0DF12F0349D10DF055F9044648B371
:1049400001469DF82F2040460DF029F907462046E4
:104950000DF0C9F9EB69384498421BD8224698F803
:1049600000100EA82C620DF027F90F999DF82F204A
:104970002046A631BE1B0DF06DF82B68074604F5E6
:10498000DC721B78012B24D1014604F1B0033046C0
:10499000FFF734FC11B0BDE8F08F8A4650E7036999
:1049A0004768FF1AD4F898313B44A3EB0C075CE747
:1049B000022361E7D1E91001301841F10001B0EBA9
:1049C0000B0061F100017DE74046A7E70DF054F9C7
:1049D000B4E764213046089213F0BDF8851C2346E5
:1049E000089A3946ADB2701BFFF7EEFBD2E700BF65
:1049F000801500205C57040010F0020F2DE9F04FE5
:104A0000754E87B003D0B3683D2283F8F121D6F804
:104A10000090B56899F81C7095F8B5317A1C96F835
:104A200018809A420AD199F800303BB995F8523172
:104A300023B9D5F878310133C5F8783110F0010089
:104A400004D007B0BDE8F04FFFF7FEBD99F818306D
:104A50003A468DF800004946012B28466B464CD15A
:104A60000DF0C1F89DF80030044689F81C3000288C
:104A700000F0A98009F1200011F0A6FE814600286F
:104A800070D0D6F8009009F0D3FB94F8BF3083467D
:104A9000E27D0021D4F89CA16846934238BF1346BA
:104AA0003268013BD46E18220AFB03F3A34238BFDD
:104AB000E41A13F056FA8DF808B004F1E6030193F6
:104AC00099F80030012B1BD104F5AA740194D6E9A2
:104AD000044314EB0A0443F10003CDE90443019BB2
:104AE000694699F82400C9F838300AF0EBF910BB90
:104AF00040F2B6514220FCF7BFF90DF0BDF8B1E726
:104B000099F81C4000210AFB04F42046FFF78CFCB6
:104B1000D9E91023A41800F1A50200F13E0043F1E9
:104B20000003A41A63F10003CDE90443019B03EBE6
:104B300040000190D3E707F0FFFE0AF02FF8394656
:104B400028460CF062FFB8F1000F42D095F83130E2
:104B5000002B3ED1214905F1290007B0BDE8F04FF7
:104B600010F0A4B930682146027F0DF018F8824693
:104B700020460DF0B8F8F369504498423FF661AF13
:104B8000336A9C4201D173791BB9FFF75FFA07F0D2
:104B900077FE51462046FFF7C5FDB8F1000F0BD058
:104BA00095F8313023B90D4905F1290010F07EF94F
:104BB000B9F1000F7FF445AF3946284607B0BDE88C
:104BC000F04F0CF022BFB8F1000F3FF43AAFC146EE
:104BD000E6E707B0BDE8F08F80150020116E0100F8
:104BE0002DE9F74F0B6980460E46D1F814900193DA
:104BF0000CF0CAFFD8F87440054614B16FF4047085
:104C0000044400220127DFF85CB1924694B9002FDA
:104C100040F0A38098F80010002940F09E804046A4
:104C200001920CF0B1FF281A019A40F1848040F201
:104C30004E514EE094F8C811032977D8DFE801F00F
:104C40000F02172E94F8F11101F0FF00002961D036
:104C500094F8F12141462046FFF7D4FC0122D4F814
:104C60001142002CD3D06FF404731C44CEE7D4F867
:104C7000D43194F8F11101F0FF0C0029E8D1D4F8F7
:104C8000E00194F8E411013041F10001984201F093
:104C9000FF0171F100034CD33E22DBE7D4E976013A
:104CA000019B834279EB010316D394F8F1219ABB5F
:104CB000082284F8C8A184F8062298F800207ABB5C
:104CC00004F2112108F174000BF06FFE40BB40F2BA
:104CD0008D414220FCF7D0F8D4F8981094F89C103D
:104CE00001F080000906E0D4D4F8801194F8841112
:104CF00001F0800150EA0103D7D194F8E40100F0FB
:104D0000800051EA0003D0D194F8F11101F0FF00C6
:104D10000029CAD10746A2E794F8F121D2B2C8E728
:104D2000594604F2FD1010F0BEF897E740F23E51EC
:104D3000CFE7674693E7D8F81010884202D340F2D5
:104D40004F51C6E7D6E90415091845EBE075C6E9E9
:104D5000041512B140460CF0DDFF384603B0BDE843
:104D6000F08F00BFFF130100F8B53E4D002306464B
:104D7000446F28602B71002C6FD06FF404733146A0
:104D80001C4420460CF0DCFE0CF0F1FE98B3B6F9A2
:104D900032303046B4F9D211728E5B1A94F8E411B5
:104DA000A4F8D2219BB2D4F8E021D31841F100023B
:104DB000C4F8E03184F8E4210DF00AF8F0B92F6866
:104DC0000220FB6EEB610AF0EDFA0221D7E91B63CA
:104DD0009B1B834228BF0346192B1E4638BF19264A
:104DE00030460AF025FBE8B9EB69B86B3344304430
:104DF000EB61B86316E0D4F81142BCE7337F002BB7
:104E0000DDD106F1200011F0DFFC0028D7D12868A1
:104E1000203011F0D4FC0028D1D12868124920306C
:104E200011F041FD07F0D8FBFFF710F90F491048CA
:104E3000FFF702F909F0DEFFC5E904012868214601
:104E4000027F0CF0ACFE01462046FFF76BFC2868A1
:104E5000BDE8F840203011F0C1BCBDE8F840FFF7D4
:104E6000F3BB00BF80150020BD440000F9490000DD
:104E700029450000014B024A1A607047B800002023
:104E80009C000020014B1868704700BFB80000204C
:104E90002DE9F04144680D4694F89F60002E40F0E3
:104EA000D58001F06DFACA0740F1CE8004F526776F
:104EB000284639460FF0F8FE94F8A430002B40F055
:104EC000A18094F8A330002B40F09C80B4F8985057
:104ED000D4F81C8001F05AFA94F89A32022B02D8C6
:104EE0001BB91E2594E0042BFBD1C0431842C2B26B
:104EF00040F0A88094F89B32022B00F29780002BA0
:104F0000EFD01A4240F09E8094F89D3203F0C00327
:104F1000C02B00F09780B4F8A632002B40F08A80B6
:104F200094F8AE321B07DCD1B4F8A832002B40F065
:104F3000858094F8AE3213F0F00FD2D194F8AA2203
:104F4000531E1E2BCDD894F8AC12012A94F8AB3224
:104F500043EA012394F8AD1243EA014302D0B3F5CA
:104F6000C87FBED3B4F8B12240F2E24151438B4234
:104F7000B7DA94F8AF32002BB3D094F8B032002BEC
:104F8000AFD0043A40F67C4392B29A42A9D894F842
:104F9000B43294F8B32242EA032294F8B53242EADA
:104FA0000342B2F5FA7F9CD390459AD994F8B71290
:104FB00094F8B63243EA012394F8B81243EA014365
:104FC0009A428ED8B4F8B9325B1B1BB2002BB8BF23
:104FD0005B429BB2B3F5804F83D22A231C4904F273
:104FE000F92084F89F300FF061FF94F8E030002240
:104FF0000133A4F8DE20A4F8BC2284F8E030304667
:10500000BDE8F08112F0BCFE00287FF45FAF2525DB
:1050100023220021384612F0A4FF1F2384F82A51CE
:1050200084F82B31322384F89F30DEE7042B3FF4E1
:1050300068AF56E7FB2B7FF677AF52E7FB2B7FF687
:105040007DAF4EE72025E3E71A25E6E70126D6E700
:105050000F1701002DE9FF410546486800230C4663
:1050600001AA69469030CDE900330CF0EEFE20B97C
:1050700040F2DB111320FBF7FFFE6368019FDE693E
:1050800003F14408D7F8A031013E9E4228BF1E46D6
:105090000EF031FE636893F806220B2A03D940F222
:1050A000C1310620E7E7164931F812100144D869EA
:1050B00089B212F050FD044640460FF085FF0444CB
:1050C000D7F8A40102A91034029B6400B44228BF9F
:1050D0003446844238BF0446284664F317030293DB
:1050E000019B8DF80B60C6F30F26B3F8B231ADF813
:1050F0000C60ADF80E300FF04CFE04B0BDE8F0814E
:105100009C570400202973B5044616462ED190F80A
:105110009F302C2B2AD1002501AA69469030CDE979
:1051200000550CF092FE20B94FF4FF711320FBF7ED
:10513000A3FE94F8E03084F89F50013BA4F8DE50C1
:105140005BB2002B84F8E03002DA40F20321EDE795
:10515000019880F8FC610EB180F8C85100F2F3109C
:1051600003490FF0A0FE002002B070BD0220FBE753
:10517000B142000010B490F89F302A2B1BD190F858
:105180000133C3B990F8C632ABB9B0F8BC220139CB
:10519000B0F80E32C4691A440B1992B2B3FBF4F39F
:1051A0009A42A0F8BC2206D3044900F2BE205DF862
:1051B000044B0FF07BBE5DF8044B7047A314010055
:1051C000034608462DE9F0475F688AB097F89F309C
:1051D0002C2B40F07C8106A90FF0EDFD002305AAE1
:1051E00004A907F19000CDE904330CF02EFE20B99C
:1051F00040F26F311320FBF73FFEB7F8983042F2D0
:105200001072BDF825000499C31A1BB2002BB8BF59
:105210005B429BB2B3F5804FFB8C38BF4FF0000868
:1052200002FB03F328BF4FF01E08CB65B8F1000F57
:1052300040F01381BDF820209DF82450DDE905439E
:10524000C4F8B8319DF81F3043EA0223BDF822208C
:1052500042EA05420B61A4F8B201C4F89821079A0A
:10526000C87DC2F31702C4F8A8214A7D0093D1E992
:1052700001130CF0BEFBE060DDE904140B698A7DCC
:10528000C87D0093CB6849680CF0B3FBB7F8983041
:10529000BDF82520F969D21AC4F8B4008D4814B2BB
:1052A00042F3C032A4FB014301FB0232079BC3F36C
:1052B0001703E4186FF07F4342F10002E31842F154
:1052C0000001984278EB0103DDE90403D7E9A09AD5
:1052D00093F8245038BF4FF02008D3F898C1417D8F
:1052E0004668002D49D08568654406FB0155016973
:1052F0001D61BCEB010165EB050511EB09014AEBF2
:105300000505091942EB0505C3E97A15B8F1000F47
:1053100040F0A380002A0ADA721E83F8E481121B8F
:10532000B2FBF6F291B206FB0144C3F8E011203063
:1053300011F0E2F90546DDE90403002D00F0A0803C
:10534000D0F874E0BEF1000F1BD06FF40471D3F8F5
:10535000982103F2112C7144D1F89861B24213D80C
:10536000D1F81152ADB36FF4047605EB060E55F883
:10537000796CB24238D87146F2E74D1E06FB05C57E
:10538000B5E740F2922135E7C3F811E2C0F874C0E6
:105390000CF0C0FCDDE90402436F5BB353F8793CC9
:1053A000D2F898619A1B944227D3F61A4368264490
:1053B000B6FBF3F6B6B285B32030002111F03BFA0C
:1053C000049B93F8240009F083FEC0B940F2C93170
:1053D00010E783F8115283F8125283F8135283F8BE
:1053E0001452C1F811C2D3E7C3F811520025C1F815
:1053F00011C2CDE740F2F521FCE60026DBE7049878
:1054000000234A462030CDE9013350F81C3C03FB11
:1054100016430093534606F0BDF9049B5A8E0132A1
:105420001644059AA2F8D4611A7E012A15D05A6F43
:105430003AB16FF404711068511828B940F2CF21C5
:10544000D8E64FF43371D5E6D1F8982150F8790CAD
:10545000D1F89C11121A8A420FD397F8E030002439
:10546000013B87F89F40A7F8DE405BB2A34287F874
:10547000E0301ADA40F2F631BCE601221A76ECE7A7
:10548000426F03F211231A6043670CF043FC059B43
:1054900001220498A3F8D42120304A4653460094B0
:1054A000CDE9015506F076F9D7E7B8F1000F0AD03B
:1054B0000598094980F8FC81A04680F8C84100F2AF
:1054C000F3100FF0F0FC40460AB0BDE8F0874FF053
:1054D0000208F8E7FF869304B1420000431E032B45
:1054E0000DD84B1E032B0AD8064B01291A7114BF85
:1054F0000A2200229870597000209A7270476FF04B
:10550000150070471E06002010B500880C460E21BD
:10551000FCF774FA90F86C3053B980F86D40FF23B3
:1055200080F8B13003496430BDE810400FF0BBBCD7
:1055300010BD00BF892101002DE9F0410F46063959
:1055400040F67A45BDF8188089B2BDF82460A942BA
:105550003ED8941FA4B2AC428CBF0024012425463F
:10556000002837D11E49097969B15CB96FF45060E0
:105570003918062906D86FF450615418062C8CBFD0
:1055800000240124254605B3974226D803FB06666E
:10559000B6F5FA7F21DCA8F10A0340F676409BB20B
:1055A00083421AD810460CF051FE42F21073704339
:1055B00003FB08F8B8EB400F0FD9BDF81C50BDF83D
:1055C000200085428CBF002501252846BDE8F081DA
:1055D0000024C4E790F88110C6E70025F5E700BF76
:1055E000B8150020304BF0B5B0F870700C4611467D
:1055F0001A88B0F86E6085B097425D8828BF17465C
:10560000964228BF16461B2E2ED0B5F5A47F2DD06E
:1056100040F6480301AA9D4228BF1D460CF03FFEFC
:10562000BDF80A309F4228BF1F46BDF80C30AB4280
:10563000E78028BF2B462381BDF806309E4228BF55
:105640001E46BDF808309D42668028BF1D46A580D5
:10565000FF232370E3881B3B9BB2E02B08D940F269
:10566000F7513920FBF708FC1B2FCED105B0F0BD58
:1056700063881B3B9BB2E02B02D940F2F951F0E763
:10568000238940F64812A3F5A4739BB2934202D932
:1056900040F2FB51E5E7A388A3F5A4739BB29342C4
:1056A000E4D940F2FD51DCE7B8150020114BF7B505
:1056B0009C7E0646DD7E9F8B14B900F067FE044693
:1056C000A5B900F063FE054614B9092003B0F0BD8A
:1056D0000028FAD0304601A98DF804408DF8055015
:1056E000ADF806700EF046FE0020EFE7002CF1D179
:1056F000EBE700BF6C1A002010B503210020FCF777
:105700007DF9044670B90321FCF73AF9044620B943
:1057100040F23D313920FBF7AFFB034B93F95010BA
:1057200010F0E8FA204610BDB815002038B50EF08C
:1057300044FD002501F0ACF81F4C00F035FE0FF0E1
:1057400093FB01F049FB02F0F9FC01F079FB012029
:1057500000F0EEFD194B1A4A29465D831A601B22A0
:10576000DD839A80F9221D841D76164B22835868AA
:10577000154A1B8922601422E06104F1240023846D
:10578000A576A580A57512F0ECFB012342F21072FC
:1057900004F13A0084F8445084F8243084F8393015
:1057A000C4E90A2211F0D0F90022002384F86050E5
:1057B000C4E9162338BD00BFB81500206C1A0020BC
:1057C00003021B00DC5704001B004801044B41F698
:1057D0004C521B215A611974C3E90222FFF7A6BF7C
:1057E0006C1A002073B5384D0446AB6840F8443F4E
:1057F0000BF07FFC064600F0C3FD2B7C10F0200F61
:10580000A4F84E6084F84C30304B0EBF1B22AA889F
:1058100069881B6814BFA4F86E10A4F86E20A4F861
:1058200070201BB194F980102088984728490B7983
:10583000003B18BF012384F88130264B1B6813B14D
:1058400008312088984794F881302046002B41F693
:105850004C5318BF4FF47A73E361FFF727FF0646F6
:1058600048B102212088FCF7DFF840B340F2B9517B
:105870003920FBF701FB184B1B6813B10146208848
:10588000984704F1280011F059F96978AB8804F1C0
:1058900014006A8801910333297803329BB2009186
:1058A00092B204F11801FCF73BF9636913B940F2B5
:1058B000CE51DDE7A3691BB940F2CF51D8E70926E5
:1058C000304602B070BD00BF6C1A0020C00000203E
:1058D000B8150020D4000020D00000202DE9F341AD
:1058E00005460E4610F04BFA002800F0AE80284620
:1058F00010F0D7FA30B1B6F80130013B7F2B01D957
:10590000122404E0284610F0D0FA20B90C242046D6
:1059100002B0BDE8F08128460BF037FC0028F5D135
:10592000284610F0D1F980460028EFD1284604F02F
:10593000C1F80028E4D042F21073B6F80170F17893
:1059400028465F4310F099FA04213078FCF756F8A6
:10595000044606213078FCF751F8002C77D038B196
:1059600041F661113920FBF787FA044690F8BD80B3
:10597000404E3368002B6CD04034204610F000FFBE
:10598000002866D0204610F0B7FE002861D1B8F19B
:10599000000F08D0384B20461B689847002858D085
:1059A00041F67511DEE735494246336820464969BC
:1059B000984700284DD041F67A11D3E7284610F0D9
:1059C00070FA40B902210DF10600FBF7A1FF06466F
:1059D00058B90D249BE7284610F075FA0028F1D13C
:1059E000274B1B79002BEDD18AE7002101F010F93C
:1059F000BDF8063028463146338010F079FA284643
:105A000010F061FAA0B9284610F067FA0146304656
:105A1000FFF7E8FE044600287FF479AF3A463146A6
:105A20002846FDF749FC044620B141F6A61199E746
:105A30000121ECE7124BDB6C002B3FF468AF024610
:105A400006F5A1713046984761E742245FE70028D8
:105A50008BD1284610F01DFA01460028AED13A46F7
:105A60002846FDF729FC044600283FF450AF41F6D4
:105A7000831177E7CC000020C80000206C1A0020BA
:105A8000B8150020B0F90020F8B514B292B202F5B2
:105A9000A0639BB2B3F5206F36D8B0F902301DB2C7
:105AA0009BB203F5A06189B2B1F5206F2CD802F248
:105AB000F64140F2BE5089B2814227D803F2F64146
:105AC00089B2814222D8002C4FF00A00C4BF0932AB
:105AD00014B2002DC8BF093394FBF0F4C8BF1DB247
:105AE00001F082F90A2167B2064695FBF1F13846CA
:105AF00049B201F06BF9074B1B684BB1A01B40B2D8
:105B000008B198470020F8BD3020FCE71120FAE7E3
:105B10001846F8E7C4000020034B5A8802801B781F
:105B200083700020704700BF6C1A00207FB5837817
:105B300006461A2B09D8042B05D9012202FA03F3D1
:105B4000314A134205D112251AE0292B01D03B2BF3
:105B5000F9D13088B0F5706FF5D269460EF07CFB54
:105B600088B9019B93F8402102F0FF05C2B9B278D1
:105B700083F84121FF2283F8402168460FF04DF958
:105B8000284604B070BD09213088FBF737FF044672
:105B9000002837D002A9B0F8AC010EF05DFB08B1C7
:105BA0000C25EDE70821B4F8AE01FBF727FF20B97B
:105BB00040F6E8013920FBF75FF903781BB994F848
:105BC000C831032BECD1039B93F85621002AE7D16F
:105BD00094F8F02102F0FF05002AE1D1B4F8B021D9
:105BE000A3F8582194F8B42183F85A21027D83F850
:105BF0005B21B27883F85C2184F8F021FF2283F8DE
:105C00005621BDE70225BBE7200038040188A1F139
:105C10001B039BB2E02B0CD8428844F24810A2F53B
:105C2000A4739BB2834204D8034B002019805A808E
:105C300070471220704700BFB8150020034B1A8828
:105C40005B88028043800020704700BFB8150020A9
:105C500038B50478427804F00103857804F0020432
:105C600052EA030101D1112038BDBCB9002DFAD090
:105C7000002B08BF144601E00024254620460CF006
:105C8000D3FB0028EFD028460CF0CEFB0028EAD04A
:105C9000054B00209C76DD769883E5E7002BEBD161
:105CA00014461D46EAE700BF6C1A002013B50088B1
