:020000040000FA
:100000002800012029E30100E56B040015E301004D
:1000100015E3010015E3010015E3010015E30100FC
:10002000000000000000000000000000BDE401002E
:1000300015E301000000000025E4010015E30100C4
:10004000B9E60100B9E60100B9E60100B9E6010030
:10005000B9E60100B9E60100B9E60100B9E6010020
:10006000B9E60100B9E60100B9E60100B9E6010010
:10007000B9E60100B9E60100B9E60100B9E6010000
:10025000B9E6010025A80400B9E60100B9E60100ED
:10026000B9E60100B9E601006FA80400B9E6010093
:10027000B9E60100B9E60100B9E60100B9E60100FE
:10028000B9E60100B9E60100B9E60100B9E60100EE
:10029000B9E60100B9E60100B9E60100B9E60100DE
:1002A000B9E60100B9E60100B9E60100B9E60100CE
:1002B000B9E60100B9E60100B9E60100B9E60100BE
:1002C000B9E60100B9E60100B9E60100B9E60100AE
:1002D000B9E60100B9E60100B9E60100B9E601009E
:1002E000B9E60100B9E60100B9E60100B9E601008E
:1002F000B9E60100B9E60100B9E60100B9E601007E
:10030000B9E60100B9E60100B9E60100B9E601006D
:10031000B9E60100B9E60100B9E60100B9E601005D
:10032000B9E60100B9E60100B9E60100B9E601004D
:10033000B9E60100B9E60100B9E60100B9E601003D
:10034000B9E60100B9E60100B9E60100B9E601002D
:10035000B9E60100B9E60100B9E60100B9E601001D
:10036000B9E60100B9E60100B9E60100B9E601000D
:10037000B9E60100B9E60100B9E60100B9E60100FD
:10038000B9E60100B9E60100B9E60100B9E60100ED
:10039000B9E60100B9E60100B9E60100B9E60100DD
:1003A000B9E60100B9E60100B9E60100B9E60100CD
:1003B000B9E60100B9E60100B9E60100B9E60100BD
:1003C000B9E60100B9E60100B9E60100B9E60100AD
:1003D000B9E6010059A80400B9E60100B9E6010038
:1003E000B9E60100B9E60100B9E60100B9E601008D
:1003F000B9E60100B9E60100B9E60100B9E601007D
:10040000B9E60100B9E60100B9E60100B9E601006C
:10041000B9E60100B9E60100B9E60100B9E601005C
:10042000B9E60100B9E60100B9E60100B9E601004C
:10043000B9E60100B9E60100B9E60100B9E601003C
:10044000B9E60100B9E60100B9E60100B9E601002C
:10045000B9E60100B9E60100B9E60100B9E601001C
:10046000B9E60100B9E60100B9E60100B9E601000C
:0C047000B9E60100B9E60100B9E60100A0
:10048000064A074BDB7802604FF43472C3710023D5
:100490008280082203728271704700BF555C0100A0
:1004A000A0160020064A074B1B7902604FF4B47275
:1004B000C371FF238280082203728271704700BFDC
:1004C0008B570100A0160020054A064BDB7E026018
:1004D0007822C371022382800822037282717047DE
:1004E0004D140100A0160020064A074B1B7F026036
:1004F0004FF40872C3710023828008220372827154
:10050000704700BFD1100100A01600202DE9F7436D
:10051000C41D0028064624F007040CBF0020204616
:1005200000F04CFD071E04DA6FF00B0003B0BDE8CD
:10053000F0830EB9FC42F7D4374D6989288903311D
:100540006B7B03302A7B89B280B210F077F9011EF1
:10055000EADB3C44AB78EA78002E04F10304134450
:1005600008BF002024F0030403FB01F118BF20465C
:1005700000F0B8FE20440EB90028D5DB2B790446E4
:10058000B3B1697D19446B791944FF29CCDC033080
:10059000002E2A8AC9B220F003070CBF002038467B
:1005A00000F010FF041EBFDB3C440EB9002CBBDB87
:1005B000012000F0F9FCC8B1A97BB9B195F82C3045
:1005C0000734002B24F0070715BF402325234FF4E1
:1005D00081722822002E14BF3846002002F0F2FC5F
:1005E000041EA1DB3C440EB9002C9DDBAB7CE3B1C7
:1005F0002B799BB10734002EA97C24F007070CBF90
:100600000020384607F07AFA041E8DDB3C4466B9B8
:10061000002C0ADA88E700BFA0160020012000F0B5
:10062000C3FC10B1AB7B002BE4D1744B1B6893B1BE
:10063000A97981B10334002EEA7C24F003070CBFB2
:10064000002038469847041EFFF66EAF3C4416B9AA
:10065000002CFFF669AF6A4B1B688BB1297D79B11D
:100660000334002E24F003070CBF002038469847BF
:10067000041EFFF659AF3C4416B9002CFFF654AFE8
:10068000604BD3F80080B8F1000F16D0697DA1B19E
:100690000334002E2B7E24F0030708BF00200093B4
:1006A00018BF3846EB7DAA7DC047041EFFF63CAF5D
:1006B0003C4416B9002CFFF637AF072000F074FC5D
:1006C00098B1A97989B10334002EAA7E24F00307DA
:1006D0000CBF0020384600F063FF041EFFF624AF75
:1006E0003C4416B9002CFFF61FAFB6FA86F895F811
:1006F00025004FEA5818A0B1E71CEB7F297F27F0AF
:1007000007071944434647F00407C9B23A4600F0C8
:1007100089FF041EFFF608AF3C4416B9002CFFF613
:1007200003AF95F82610002959D00734002E2A8DE2
:1007300024F007070CBF0020384610F094F8041E80
:10074000FFF6F2AE3C4416B9002CFFF6EDAE1EB13A
:10075000298D38460CF07AF995F82010002940D000
:1007600095F82430002B3CD06A8C0734002E02F11F
:10077000240224F007090CBF0020484692B210F072
:1007800072F8071EFFF6D0AE4F4416B9002FFFF6E1
:10079000CBAE0337AB7F297F27F0070795F82400FE
:1007A0001944434647F00407C9B23A4600F02CFF0B
:1007B000041EFFF6B9AE3C4416B9002CFFF6B4AEE9
:1007C0003EB16A8C484695F82010083292B20CF07F
:1007D000BDFB2B6B5BB176B12C630020A6E60F4608
:1007E000B5E7002EF5D0002211461046EFE7002EA7
:1007F000F3D120469AE62834FBD595E6A4000020E4
:10080000AC000020A80000201FB572B6194B5D6B2C
:10081000E5B9BFF34F8F1849184BCA6802F4E0627C
:100820001343CB60BFF34F8F00BFFDE7B4FBF6F47B
:10083000D3B20132002CF9D103F110026A4402F85C
:100840000C4C0A2233B901A8A847E2E7044600226B
:100850000A26EDE7013BDBB203F110040DEB0406C1
:10086000B0FBF2F402FB1400303006F80C0C20460A
:10087000E8E700BFA016002000ED00E00400FA0544
:1008800013B5114C6846637B8DF80130237B8DF8DE
:1008900000306389ADF804302389ADF8023004F0EC
:1008A0009FFF18B1DB210320FFF7AEFF207E04F08D
:1008B000C7FF08B1DE21F6E7E07D04F0BBFF08B119
:1008C000DF21F0E702B010BDA016002070B505468C
:1008D000002850D00EF0AEFD18B94FF0FF3420467E
:1008E00070BD0DF06BF9B0F5FA7FF6D8234C0326F6
:1008F00023486563002500F0D1FA2A222946A01C6E
:1009000084F83850257084F82C50256317F0D3FAFA
:1009100040F2011301212A46A67363801B23084677
:1009200021712381638140F20323A176A3811F23D8
:1009300023824FF40273638244F60113E382F723A8
:100940006384FB23238504F081F920B140F24F3109
:100950003046FFF759FF04F095F9044610B140F214
:100960005231F5E7EFF3108572B600F0A7FE002DC7
:10097000B5D162B6B3E76FF01504B0E7A01600205A
:100980008108000038B51446002840F0D080694D39
:1009900095F83830032B00F0C780B9B112B96FF069
:1009A000150038BD0139162900F2C180DFE801F0D9
:1009B0000C1D20355F68863B6B6E804147555A8C15
:1009C0008F9DA0A395A6AA001378AB700020FFF717
:1009D0009DFD0028B7BF012302236FF00B0085F8AF
:1009E0003830A8BF85F83830DBE71378EB70EDE7D7
:1009F0001379002BD3D05379002BD0D01288FB2A47
:100A0000CDD81A2A6388CAD91B3BE02BC7D82368E4
:100A1000A288AB60484B9A80D8E713786A799342F2
:100A2000BDD32B71D2E713782A799342B7D86B7173
:100A3000CCE713782A799342B1D86B75C6E713785F
:100A4000002BACD05378013BDBB2F82BA7D813882E
:100A50009278EB82394B9A70B8E7107868760AF092
:100A600029FCB3E71378002B99D0AB76AEE70120D1
:100A700000F09AFA237808B1012B90D9AB73A5E75F
:100A800013882B82A2E71378AB719FE7072000F051
:100A90008BFA10B92378012B81D9072000F084FA52
:100AA00018B12378002B3FF47AAF2378EB748DE7ED
:100AB0001378082B3FF673AF2B7587E71388FF2B4E
:100AC0003FF66DAFAB7481E71378EB767EE7137872
:100AD0000E2B3FF664AF2B7778E72368184A2B621A
:100AE000636853602389138170E713786B776DE730
:100AF0001378EB776AE71378AB7767E7137885F8B5
:100B00002A3063E792786178207804F09FF8002813
:100B10007FF447AF6378012B7FF658AF0BF07CFF73
:100B200000287FF453AF3AE74FF0FF3039E76FF01A
:100B30002C0036E7A0160020A8160020B6160020CC
:100B4000C0160020F8B50D46064630B329B311F0A3
:100B5000070422D1124F97F83830012B02D16FF0E1
:100B60000B00F8BD032B02D14FF0FF30F9E700F086
:100B7000C5F80028F8D02846FFF7C8FC0028EEDBAF
:100B800015F0DBFC3046396B04F084FFFFF778FE8C
:100B90000323204687F83830E3E76FF01500E0E7DD
:100BA000A016002010B5074C94F83830032B03D161
:100BB00004F08CFF05F0F4FF0FF0E2FF002084F852
:100BC000380010BDA016002050B1074B03F11402ED
:100BD00053F8041B934240F8041BF9D100207047DE
:100BE0006FF01500704700BFD3D10500074B10B55B
:100BF00093F838403CB904F0F9FE0320044900F0B2
:100C0000CBF9204610BD4FF0FF30FBE7A0160020C7
:100C1000A5040000074B10B593F838403CB904F028
:100C2000F9FE0220044900F0B7F9204610BD4FF04C
:100C3000FF30FBE7A016002081040000054B10B533
:100C400093F838401CB904F075FE204610BD4FF0F3
:100C5000FF30FBE7A0160020054B10B593F8384095
:100C60001CB912F027FE204610BD4FF0FF30FBE705
:100C7000A0160020054B10B593F838401CB912F0AF
:100C80001CFE204610BD4FF0FF30FBE7A0160020F1
:100C9000054B10B593F838401CB912F079F920468D
:100CA00010BD4FF0FF30FBE7A0160020094B10B538
:100CB00093F838405CB904F0CFFE0749082000F0F3
:100CC0006BF90920054900F067F9204610BD4FF087
:100CD000FF30FBE7A0160020C9040000E904000073
:100CE00002680020014B1A60704700BFDC1600202C
:100CF000014B1B68184700BFDC160020024B186828
:100D0000003818BF01207047DC160020F7B50446F4
:100D10002D4E071D2C48376005F05AFF0228054666
:100D200006D1294920460EF091FE284603B0F0BDB9
:100D3000042842D13378092B0AD0262B1ED0314605
:100D400020460EF001FFB0F5817F2DD3722112E015
:100D500005213E200EF04DFE0028F0D1F37801A9C8
:100D60003279684643EA0223ADF800300FF0E9FA21
:100D70000028CFD053210820FFF746FD1A213E203E
:100D80000EF037FE0028DAD17368694601A8C3F374
:100D90000F23ADF8043011238DF806300FF011FB4E
:100DA0000028B7D06521E6E70028B3D0A1782078E5
:100DB0000EF01FFE0028B8D1ACE70828B5D10249D3
:100DC00020460EF07BFEB0E7E0160020074B4FF008
:100DD000FF3141F6FF72C3E9001205490022C1E963
:100DE00000221F21C3E90212704700BF400000200B
:100DF000E41700203F280CD801380B4BC0F34212F7
:100E000000F01F0053F8223023FA00F000F0010038
:100E10007047FF2806D04038044BC0F3421200F060
:100E20001F00EFE70120704740000020E41700207A
:100E3000074B0146006849681A4603C240F48C22F9
:100E40001A6041F0107242F4FF625A60704700BFAE
:100E5000400000200246024B0068516803C37047FF
:100E6000E41700200246024B0068516803C3704734
:100E700048000020FD28084B16BF00F1FF303F203E
:100E8000C0B2420900F01F0003EB82039B6823FA03
:100E900000F000F00100704740000020014B186096
:100EA000704700BFEC17002007B5FFF78FFF11F068
:100EB000FCFA044B1B6813B101909847019803B0EA
:100EC0005DF804FBEC17002070B50C88C27CA6B25C
:100ED000C4F30E04931C058804F118021D44825AC1
:100EE000ADB21A4443882A44013AB2FBF5F202FB40
:100EF000054292B29342044B8BBF3340B34313433A
:100F00009BB20B8070BD00BF0080FFFF08B54B1E79
:100F1000062B04D84FF4D1711520FFF775FC0A4B4E
:100F2000994202D940F2A311F6E719B900B1016064
:100F3000084608BD28B103680022C3E901211A1D33
:100F40001A600431F4E700BFFAFFFF7F10B5114BC0
:100F500000EB41041A786389B3FBF2F303FB02232D
:100F6000013A1A44B2F5706F027928BF00231A447F
:100F70008378B2FBF3F0194403FB1020091AB1FB8C
:100F8000F3F003FB101313446FEA43436FEA534338
:100F9000638110BDF0170020024B03EB800041601D
:100FA000704700BFF0170020034B03EB8000406840
:100FB000003818BF01207047F01700202DE9F04FCE
:100FC00010F0070A85B0054604D040F261111720E1
:100FD000FFF71AFC544F04464FF0010B07F1480687
:100FE000B146B04657F8043B8DF80BA03BB101A8C1
:100FF00098479DF80A30082B01D9E821E7E79DF8CA
:101000000B1081BB05B13160B94506F10406E9D189
:101010002DB30023DFF814E111221E468EF80030B4
:1010200058F82200013A60B190F804A08178BAF132
:10103000FF0F64D14FF000078E4207713CBFCEB264
:101040000123511CECD10BB18EF80060112640F643
:10105000FF6A58F82670002F63D1013EF9D2601B59
:1010600005B0BDE8F08F9DF80AC04A1DBCF1020F23
:10107000E64604EB420438BF4FF0020E53000EF177
:10108000FF300444CEF100002040BDF80840644425
:10109000CCF1000C013C04EA0C04B4F5803F01D310
:1010A000F82194E775B1C31A336099701C8083F8F6
:1010B00003B09DF80C201A71019A4FEA124C1A8164
:1010C000A3F806C004FB01049EE758F82C90B9F180
:1010D000000F06D099F804B0D34504BF99F80290E8
:1010E0004F440CF1FF3CBCF1000FEEDA3944FF290C
:1010F000A2D90BB18EF8006040F2271167E7944641
:101100000027F0E707EB410309F101093846A3F88E
:101110000AA0FFF71BFF5FFA89F1BB788B42F1D879
:101120009BE74FF00009F6E7F4170020F0170020C6
:10113000034B03EB8000C06C00B18078704700BFA8
:10114000F0170020F8B54FF6FF7305460380184BE3
:1011500003EB8101C86CB8B186780379B3FBF6F272
:1011600006FB1233DBB219460A1D00EB4202B2F94C
:1011700002705488002F09DB0131B1FBF6F206FB47
:101180001211C9B28B42EFD10020F8BDFF29FBD06C
:10119000C4F30E03C4782B8024B94FF4D571172003
:1011A000FFF732FB5380BDE8F8400FF017BB00BFDC
:1011B000F01700201D4B03EB810170B5CC6C054688
:1011C00044B3030404D54FF4DC711720FFF71CFB74
:1011D000014620460FF0E5FAFF28014604D02046DC
:1011E000BDE870400FF0FABAA078B5FBF0F300FB51
:1011F0001353DBB219460A1D04EB4206B6F902602E
:10120000002E09DB0131B1FBF0F200FB1211C9B273
:101210008B42F0D1002070BDFF29FBD08B4204EB44
:1012200042021CBF0023E3705580D8E7F01700206E
:10123000094B03EB810110B5CC6C014620460FF041
:10124000B0FAFF28014604D02046BDE810400FF058
:10125000C5BA002010BD00BFF0170020F8B5104B34
:10126000074603EB8101CC6C014620460FF099FA4A
:10127000FF28054611D0E688238953EA064606D0A2
:10128000014620460FF0AAFA01463846B0472046EC
:101290002946FFF75BFE0020F8BD0520FCE700BFF4
:1012A000F017002038B50E4B0446827903EB820319
:1012B000D86C08B9052038BD8278E1799142F9D21D
:1012C0004B1CE37100EB41035D89B3F90A30002B3D
:1012D000F3DBA5800FF082FA20600020EBE700BF6F
:1012E000F017002070B5044610F003000E4603D03E
:1012F0004F211820FFF788FAFFF708FE054624B1B2
:10130000034831460460FFF701FE284670BD00BF68
:10131000841800202DE9F3471C4C90461E460746D2
:1013200022680D469DF828309DF82CA01AB961213D
:101330001820FFF769FA1A460921404601930FF079
:10134000A1F852461FFA80F9092130460FF09AF8A9
:1013500080B209EB000120680FF0F8F9019B3860BA
:1013600018B9286002B0BDE8F08700EB09044146D7
:1013700009222C6038680FF03EF8534609223146A6
:10138000286802B0BDE8F0470FF035B88418002097
:1013900070B50E4604460FF088F8054630460FF04B
:1013A00084F8044B2A1821461868BDE870400FF0F5
:1013B000F1B900BF84180020014B18680FF0BAB9CA
:1013C000841800201F2AF8B504460ED89200033274
:1013D00022F00303B3F5803F2ED2194DB4B1A0071C
:1013E00011D05F210920FFF70FFAFF2A4FEA4203CD
:1013F00004D9FF329A42A8BF1A46E8E77C2BB8BF4F
:101400007C231A46E3E729706C602B8122F00302EB
:1014100028230127120403FB01F06B680025120C3E
:10142000EEB28E4200D3F8BD14B126181F705E6074
:10143000104401352833F3E74FF0FF30F3E700BFE6
:1014400088180020144A002138B553681478C8B2AF
:10145000844203D8AB210920FFF7D6F918460131A1
:1014600028330578002DF2D00021817001241289E3
:101470008161051D44709208C16100F1200144683A
:1014800021F8022B994245F8044B1444F8D100236B
:101490004361037038BD00BF881800200A4B1B89C8
:1014A000B3F5FF7F4FEA930006D25A089B1A9BB20E
:1014B000984238BF18467047B3F5EE6F01D8FF2247
:1014C000F4E740F27263F3E7881800202DE9F8434F
:1014D0004B7880460C4602F0040602F0FB07D3B1BD
:1014E000DFB12E4BD4F804901D89B7BB0123AD08A2
:1014F0004A46211D637004F1280004F12003A7610E
:10150000E76123F8025B984241F8042B2A44F8D1A2
:101510000023636101E0002FE3D0FF23A370002EBE
:1015200018BF0226A3191B7D032B03D1022F1CBF5A
:101530000136F6B2A31901221A7506F10C02002336
:1015400004EB860624F812307268A3704046C8F88F
:101550000020A8F80430BDE8F8830021142261704F
:10156000A01816F0A8FCB5F5FF7F0FD26B08ED1A96
:10157000ADB209EB0502C4F804902584A26063842F
:10158000C4F80C90A5842261E384C6E7B5F5EE6F3C
:101590004FF0FF03EBD940F27265EAE788180020AC
:1015A0002DE9F84305460C46F720052191460EF03B
:1015B00069FF061E22DB1DB906FB04F0BDE8F883B7
:1015C00015F0030703D098211920FFF71DF9DFF864
:1015D0003480C8F81050A5B2A8F81460BBB29D4280
:1015E000EAD9B8F814C04B46D8F810000522F72104
:1015F00007FB0C0001370EF0FEFEEFE74FF0FF3067
:10160000DCE700BF9C18002007B5CDE900230B469E
:1016100003490246081D0FF060FA03B05DF804FBB1
:10162000B418002013B5064CCDE900230B46024642
:1016300004F1080104F10C000FF04FFA02B010BDE4
:10164000B4180020024BD3E900210FF06CBA00BFA0
:10165000B4180020034B1B28D3E9022138BF1B20FC
:101660000FF061BAB4180020024B0146D3E9002004
:101670000FF090B8B4180020024B0146D3E90220C5
:101680000FF088B8B418002008B54B1E032B03D9FF
:1016900023219020FFF7B8F8002801F1010114BFC1
:1016A0000C230523C9B203EB8101034B013121F067
:1016B0000101197008BD00BFC4180020124B01229F
:1016C0004FF0FF3000211B685A60C3F80803C3F8CD
:1016D0000015C3F804250D4B1B685A6040F6FE72D6
:1016E000C3F808034020C3F80015094B0949C3F8A3
:1016F0000825C1F88800BFF34F8FBFF36F8FC1F883
:101700008801C3F8082570471C28002018280020ED
:101710000020085000E100E00A4606483A2302F89B
:10172000033BC368C1F803300369536043699360A6
:10173000704700BFC8180020024B5A8C02435A84DD
:101740005B6A1847C8180020014B00215B6A1847E4
:10175000C818002010B5154C0AF02EFD0AF032F81A
:10176000208DFFF7F1FF237E63B12246104904F17B
:10177000190052F80C3BE36063685360A368936000
:1017800013F0E8F80B4B228D93E8030006F03EFAC5
:10179000236B188806F066F9A36B94F8341094F85C
:1017A00035009847002384F83C3010BDC81800204D
:1017B00019170000F4180020034B93F83C300BB1CC
:1017C000FFF7C8BF704700BFC818002070B5224C93
:1017D0000646636C256B236495F88C3094F84800BA
:1017E0000BB1031DD8B295F86D102EB9FF2803D1A7
:1017F00095F86C308B4201D00AF07AFB95F88C306A
:1018000023B3E06C0AF0BAFD94F82C30E16C003B95
:10181000206C18BF012384F87030D5E93A23C4E95D
:10182000182309F0E9FE46B995F86D30033B012B0A
:1018300094BF282000200AF0E7FD95F86C100020E6
:101840000AF042FE022384F83C3070BD206C0AF09E
:1018500095FD09F0B7FFE6E7C81800200138C0B2CF
:10186000032808B504D940F267410620FEF7CCFFF3
:10187000014B185C08BD00BFDCE5040008B5094B4E
:1018800093F83C20022A04D040F22D212720FEF7B5
:10189000BBFFDA7A42F00102DA72BDE80840FFF7D6
:1018A00059BF00BFC818002010B50E4CA26F1378A6
:1018B00003F00303032B04D1D378022B01D10020C2
:1018C00010BDE06F0EF079FE0028F9D1A36F1B78F0
:1018D00003F00303032BF2D004F01EFB80F00100A1
:1018E000C0B2EDE7C818002038B51E4C0546D4F844
:1018F0008030984708B9012038BD94F83430002B67
:10190000F9D194F82C301BB9012D03D00020F3E756
:10191000002DFBD194F88430DD06C3F3001001D50F
:10192000FFF7C2FF636CD4F888201B78C3F3001361
:101930002AB9B4F88C2013B1B2FA82F35B0994F897
:101940002C10628C39B1910705D5A36FD878023875
:1019500018BF0120D0E7002ACDD10028D6D183F0CE
:101960000100C9E7C81800202DE9F043334C85B0C9
:1019700006460F4694F83C30256B012B5FFA83F83E
:1019800004D040F29D412720FEF73EFF95F87C30C1
:1019900053B10021042085F87C10FFF7CDFE94F8A8
:1019A0002C300BB185F87E80A16F0B7803F0030318
:1019B000032B05D195F8823013B90220FFF7BCFE46
:1019C000A26F137803F00303032B02D0537833BBC9
:1019D000012385F8823095F88C30D3B194F82C30FF
:1019E000216B003B94F8482091F86D0018BF01234B
:1019F0000392D5E93A8984F87030C4E91889FFF771
:101A00002DFF00210346039A009102200C4909F0A2
:101A10008BFD36B105B0BDE8F043FFF79BBE022356
:101A2000D7E7002FF6D03046FFF75EFF0028F1D150
:101A300005B0BDE8F043FFF7C9BE00BFC8180020DD
:101A40001819002037B5724C0023256B8DF805302E
:101A500095F88C2094F848300AB10433DBB295F83D
:101A60006C1028B9FF2B03D195F86D308B4202D052
:101A7000FF200AF03DFA95F88230032B00F2B68081
:101A8000DFE803F0023B94A794F88E306148ADF88C
:101A90000630A5F85C3004F015FA80B1A16F4FF460
:101AA0008070FFF749FE0121A36F85F87D10DB7878
:101AB0001B2B1ED105F110000AF04AFA19E00DF1B6
:101AC00005020DF10601E06F0EF017FDA067A0B151
:101AD00095F8C7308BB99DF805302BB903800121EB
:101AE0008370A06F12F021FDBDF80610A06F12F0F8
:101AF000D8FE012384F88F3001E0474BA36795F8A7
:101B00008330A16FDB0003F008020B7803F0F303CE
:101B1000134395F88420920002F00402134323F04B
:101B200010030B70FFF7C0FE0028A06F14BF102336
:101B3000002302781343037095F88B30002B58D0A4
:101B40004378002B55D0E06C0AF018FC94F82C3048
:101B5000A06FB3FA83F35B0984F87030D5E93823BA
:101B6000C4E9182312F0F6FC021EE16C18BF012232
:101B7000A06F0AF02FFE18B9A16FE06C09F03CFDD0
:101B8000A06F0FF00FF895F86D1001200AF09CFC83
:101B9000A26F0123118884F8E030A4F884109178B2
:101BA0001E4A84F83C30917003B030BDB5F85C300B
:101BB0000DF105020DF10601E06FADF806300EF0F3
:101BC0009CFCA067002894D140F2CD212720FEF78D
:101BD0001BFE104804F076F910B940F2D721F5E762
:101BE000A36FDB781B2B84D1012163E740F2E52151
:101BF000ECE70AF0C3FB09F0E5FDA06F12F0AAFCC8
:101C0000011EA06F18BF012114F00CFDB8E700BF42
:101C1000C818002040190020581900204C19002035
:101C2000064B10B593F83C2002F0FF0422B91C7655
:101C300005F0E4FF204610BD0C24FBE7C818002087
:101C40000A4B0B4A70B506460D461A60FFF7E8FFCF
:101C500018B1DE212720FEF7D7FD064C012104F143
:101C6000900012F062FC6664E56470BDC000002064
:101C7000B0000020C8180020024B012283F8E120A8
:101C8000704700BFC8180020F0B585B09A4C02AE6E
:101C90000A9F86E8030094F83C1001F0FF0511B993
:101CA0000AB103B127B940F26D112720FEF7ACFD50
:101CB00096E8030004F12C0C84F8E15084F83450C9
:101CC00084F8E25084F8355084F8E05084F88F505E
:101CD00065842585C4F880306262A7638CE80300C0
:101CE000256B0AF057F909F06DFD95F974000AF0BB
:101CF000B5F9A86A0AF026FB286A0AF0B5F995F842
:101D00009C000AF0D7F995F87630002B00F0AB80F4
:101D10004D200AF08DF894F82C00002840F0A580A2
:101D200095F86C20754B03EB820359684FF47A7376
:101D300001F5FA71B1FBF3F16E310AF029FA704B3B
:101D4000704E05F5807718680AF002FB6B69E3674F
:101D5000AB69C4F8E43005F1F0031868083353F8B0
:101D6000041C3246BB4203C21646F6D15968D5F868
:101D70000001236B644A03C293F8862093F86C0039
:101D8000A2F12601012903D993F88710262974D1DD
:101D900094F82C20002A6DD193F802120EF0F2FE76
:101DA000064605F134073146384612F095FE3146B5
:101DB00012F00AF8B5F8403095F86D10984228BF37
:101DC000184684F88E00384612F04CFE95F86D10D7
:101DD00095F88C700429B5F8486008BF032111F00C
:101DE000F3FF0FB9043080B2B04228BF3046C6B20C
:101DF00084F8E86005F004F828B105F007F8B0426F
:101E000038BF3046C6B294F82C7084F84860002F72
:101E100057D195F88B308BB1012395F86C0084F87D
:101E20007030D5E93823C4E91823FFF717FDFB22EA
:101E3000034634490420009709F076FB0120FFF7A0
:101E400001FE002323606360A360B5F880306380E7
:101E50002B88238095F89C3023712B6F0BB10122C6
:101E60001A6005B0F0BD962053E795F86D20C421A7
:101E7000012062E793F89A1290E7213A012A0ED8DE
:101E800024290ED094F82C20B2B193F826315A07A9
:101E900010D413F0010181D103F002017EE724295F
:101EA0000AD194F82C203AB193F8262193F86530A2
:101EB0001340ECE7042171E7032814BF064604260B
:101EC0006FE795F88C3093B1012395F86D0084F895
:101ED0007030D5E93A23C4E91823FFF7BFFC00228C
:101EE0000346084900920220324609F01DFB0120FA
:101EF000FFF76CFCA5E700BFC8180020DCE5040074
:101F0000C0000020181900203019002008B5114B1E
:101F100093F83C201AB9BDE80840FFF71BBC93F8C2
:101F20002C2042B993F83C30012B12D040F20B2107
:101F30002720FEF769FC93F83C20022A02D040F2E9
:101F40000F21F5E71B6BD3F8D801BDE808400AF074
:101F50002FBA08BDC8180020014B1876704700BF83
:101F6000C8180020014B93F8E0007047C818002003
:101F7000044B93F88F201AB9188DC0F300307047C6
:101F800001207047C8180020024B188DC0F3C020F4
:101F9000704700BFC8180020014B93F8E20070475B
:101FA000C81800202DE9F34182071E4D06460F4652
:101FB0002C6B22D5D5F8883023B940F28E412720EA
:101FC000FEF722FCB5F88C201846296C033291F8F4
:101FD00001800DF0EBFB0DF1020201A92864D5F898
:101FE000E4000EF09DFB01980EF084FB01223860A6
:101FF0004146D5F8E4000EF02AFBF3070ED5D4E9EC
:102000003A32013342F10002C4E93A3294F88430A2
:10201000012B0CBF0023012384F8843002B0BDE8FB
:10202000F08100BFC81800202DE9FF47B44C002301
:1020300080468946276BCDE9023394F83C30022B69
:1020400004D040F211512720FEF7DEFB238D590604
:1020500006D44020FFF778FB238D43F0400323850F
:1020600097F88C30B8F1000F00F05081A3B109F05F
:10207000B7FB88B9236C5A7872B11B7897F8842023
:10208000C3F3C0039A4207D1012384F83530FFF728
:1020900061FB04B0BDE8F087236C5978A4F88C107C
:1020A00009B3D4F8E4000EF0A9FAC4F88800238D2F
:1020B00097F8832043F400732385236C1B78C3F3C4
:1020C00080039A4200F0C280256B95F88230002B85
:1020D00040D0022B11D102A9E06F0EF030FA28B9DE
:1020E00040F20541AFE7C4F88810E0E7D5E938329F
:1020F000013342F10002C5E93832002194F82C3056
:1021000085F882103BB195F87E3023B1102085F818
:102110007E10FFF711FB95F87D309BB1002685F806
:102120007D6003F0E1FE10B940F21C418BE73146BF
:102130000820FFF701FBD5E93832013342F10002F4
:10214000C5E9383295F88330012B0CBF00230123F9
:1021500085F88330238D4FF0000A43F40063238514
:10216000216C97F884200D78C5F3C0039A426FD094
:102170000025206C0EF016FD97F88B30B3B194F863
:102180002C3097F86C00B3FA83F35B0984F8703055
:10219000D7E93823C4E91823FFF760FB0022034680
:1021A000584900920420FB2209F0BEF9B9F1000F52
:1021B00000F0CA8001260AF0CFF91DB103A9022060
:1021C000FFF7F0FEBAF1000F10D094F82C3043B1B5
:1021D000B4F80720B4F805301343B7F88020134350
:1021E00004D0B4F809300133A4F80930B8F1000F75
:1021F00000F0C480B4F805300133A4F805300023A2
:1022000084F8E230404805F01BFC029830B10EF033
:1022100071FA216B0022027204F01EFD039B33B1A0
:10222000216B00221A720C22039804F0E3FC002EAA
:102230007FF42DAF238D1B063FF52BAF8020FFF7DA
:1022400083FA238D43F08003238522E7C24687E784
:1022500005F00305266B032D14D0F5B996F88430EC
:10226000013B18BF012386F88430236C5B78002B78
:102270003FF47FAFD6E93A32013342F10002C6E9BA
:102280003A3276E7238D0120002543F4805386F807
:102290007C002385FFF750FAE0E74D78002DDDD074
:1022A000238D96F88C5043F48053238509F0D6FD96
:1022B000042894F8E83006D1002D14BF1B221F22F9
:1022C000934228BF1346226C52789A420BD8D4F816
:1022D0008830002B3FF44CAF94F8E1306BB12020F4
:1022E000FFF732FA44E794F83430012043F010034A
:1022F00084F834300BF08EFD3AE74546AEE700BF78
:10230000C818002018190020F41800200BB109F09B
:102310007BFA94F8E230013384F8E230238D43F401
:102320008063238597F86D30033B012B05D800258A
:1023300001200BF06FFDAA461EE704F061FD824606
:102340000028F4D1054617E794F82C2094F8E230E1
:102350003AB1628C120704D5A26FD278022A3FF4F8
:1023600029AF012B3FF626AF0120FFF7BDFA064645
:1023700000287FF41FAFFFF765FB1EE7B4F80730B6
:102380000133A4F807303DE72DE9F04F04461E461F
:1023900000230D4690462DED028B8BB090F86D70AA
:1023A000069311F00EFB94F8C0310B2B04D940F2C8
:1023B000F2310620FEF728FA7C4A32F813B094F87E
:1023C00087308344442B1FFA8BFB3DD00E2B94F8AF
:1023D000862039D0443A53425341039388F0010395
:1023E0000493B8F1000F58D194F80432032B54D160
:1023F000039B002B51D0B4F89832AB424DD1D4F8A6
:102400000C322046B4F8DC2141F64B59C4F8F831BF
:10241000E369C4F8FC31B4F852321344C4F8003212
:1024200008F088FDD4F8A03294F8AC224B458CBF5C
:102430004FF000094FF0010942B9E26993421BD005
:10244000208814F056F817E00123C6E7208814F01E
:102450004DF818B940F232713020ABE7B4F8A83229
:10246000C1466386B4F8AA328381B4F89832A0F8E2
:102470000E804381013B0382D4F89C3284F876902D
:10248000E362B4F89A322386D4F8A032E361D4F838
:10249000A4326362022384F80432B4F850A204F533
:1024A0000873B4F88090A5EB0A0A08EE103AA5EB81
:1024B0000909DFF8FC800FFA8AF30FFA89F9002B7B
:1024C000B8BFD4E98E2394F804A2ACBF3246C4E965
:1024D00092235FFA8AFABFBF0023012284F81B32DD
:1024E0004B46BAF1030F00F2BF81DFE81AF0040097
:1024F00020016300400194F86D1094F8D60111F0AA
:102500008AFC0746E06A594638440BF00DFB5946F1
:10251000C4F80802E0690BF007FB94F8763007A9CD
:10252000002B18BF4FF0020A5044C4F80C0208A850
:102530000AF01AF8079BD4E992010093DDE9082319
:1025400015F025FB814620460EF051FBD4F854329D
:1025500094F86D00D4F82CA006930AF033F9069B8A
:1025600000F52240D4F80812BB3BB1309A444FF436
:102570007A73AAEB010A3031B0FBF3F05744238E93
:10258000A7EB090703EB41013F1A94F86D0006978A
:102590000EF039FBD4F85422069BC8F800009B1AB1
:1025A000CC2B66D840F2D24156E700BFF4E50400D8
:1025B000B4190020E36A5946D4F8FC0118440BF022
:1025C000B3FA5946C4F80802E0690BF0ADFA94F882
:1025D0007630002B08BF4FF0000A5044C4F80C02BC
:1025E00020460EF004FBB4F8DC31E76AD4F8FCA115
:1025F000002B40F09780002E00F0948094F86D003E
:1026000057440AF0DFF800F52240D4F808324FF4BE
:102610007A7BB130BB3FB0FBFBF9FF1A94F86D0039
:10262000D4F840321F44C31ED4E98E12012BA7EB0D
:10263000010774D90AF0C6F800F2E730B0FBFBFBE3
:10264000A7EB09075F44D4F80812D4F8F831D4F89E
:102650000022303194F86D0002FB0311238E06979F
:1026600003EB41010EF0CFFA0123C8F8000084F813
:102670000432E7694FF00009D4F80C3204F1340059
:10268000A7F5A277069984F82092FF1AD8F80030AF
:102690009F4228BF1F46D4E99232C4F8D8715B1814
:1026A00042F10002C4E98C3212F0DAF93844A4F89D
:1026B0005052C4F82402D4E98C23C4E9922307F0D1
:1026C0006DFE20B1D4F824321E33C4F82432B4F89D
:1026D000C81184F828924D1B2DB2002DC4BF0223CF
:1026E00084F82832039B002B40F0C180002E40F07C
:1026F000BF8094F80432002B00F0D780E16918EE17
:10270000100AD4F80C32C91A11F02DFB80B200283F
:1027100000F0CB80169B03B118800120D5E04FF06C
:102720003E0B8DE75744D4F80832FF1A8BE7D4F8F4
:102730000C22E169D4F80072891AD4F8F8014B43ED
:10274000218E0693B4F8DC319944FB439944D4F8C4
:102750000832303300FB073394F86D0002FB093375
:1027600001EB43010EF04FFAC8F8000081E7E06981
:102770005843069056B3B4F8DC1139BB84F81B12E9
:10278000D4F80C1201FB130A94F88630262BCDF8EE
:1027900018A003D094F88730262B09D1B4F89832CA
:1027A000EB1A1B0404D494F89B32002B18BF1F466D
:1027B000D2B3B4F8DC31BBBBD4E98E23D4E99001A9
:1027C00082428B4108D340F2265145E694F81B1211
:1027D00000297FF44EAFD3E794F86D00C31E012BA0
:1027E0003DD909F0EFFF00F522404FF47A7BB1307C
:1027F000B0FBFBF000F1AB0BD4F8403294F86D0065
:10280000103BD4E98E125A1AC31E012B924429D9C7
:1028100009F0D8FF4FF47A7300F2E730B0FBF3F021
:10282000AAEB0B0A50440690B4F8DC113846D4F8F1
:102830000C32494459433031490005910EF0E3F917
:10284000244A94F8763005991060002B3FF411AFBC
:1028500006ABE06911F0FCFA84F81B0209E74FF4BB
:10286000897BC9E73E20DBE740F23E51F4E5E6B163
:10287000B4F8F01119B3B4F8F22194F8F431501C03
:10288000A4F8F22102FB033399420EDD94F82832BA
:102890005BB10023A4F8F20184F8283204F0BCFAFA
:1028A00000F00700013084F8F40118EE101A94F8D3
:1028B0001C020CF02DF920B940F28751CCE50A46F4
:1028C000DBE7049B84F8183200200BB0BDEC028BD0
:1028D000BDE8F08FB4190020F0B5044685B018B9F2
:1028E000A8213020FDF790FF072900F20681DFE8DC
:1028F00011F008004500450040000401F000F80018
:10290000020190F8183253B3B0F81632B0F88020B4
:1029100093421ED1B0F8CC21D31AA0F88020A0F8A1
:10292000CE312046D4E98C23C4E98E2308F022FA64
:1029300094F8D331002B00F0CA8013F0B0F9704B3B
:102940001B68002B00F0C380204605B0BDE8F040B6
:1029500018479A1AA0F8CE21A4F88030E1E7B0F821
:102960001432B0F880209B1AA0F8CE31B0F814329F
:10297000F2E705B0BDE8F04009F002BE15F098F8A6
:10298000D4E98E23801A61EB0301012871F1000361
:1029900002DA40F21261A4E76FF0010383424FF0C4
:1029A00000038B4102DA40F213619AE7E5690DB149
:1029B000B0FBF5F594F88730442B14D094F88620BA
:1029C000442A0AD00E2B08D0A2F14306724272416B
:1029D000B4F81612B4F880303AB1B4F816320133B4
:1029E000A4F8163214E00122F2E72B449BB2CA1A73
:1029F000150454BF4B1C01339BB2A4F8163294F853
:102A000019322BB9B4F81622B4F8CC319342E6D07F
:102A1000B4F8523202AEB4F880500133394FA4F802
:102A20005232B4F8BA301D44B4F8B830013DED1A52
:102A3000ADB23B685BB1B4F81612002220460139F2
:102A400089B29847B4F816321844A4F81602B4F8BC
:102A500016126B1A18041ED40023204600961A463C
:102A6000FFF792FC98B3012812D1B4F81622B4F8FB
:102A7000C811BDF808301344521A12049BB204D591
:102A8000EA1A12F4004F18BF0B46A4F81632D0E72A
:102A900040F26A6125E794F88A3030460394002BAF
:102AA0000CBF3E23082384F8A93001238DF8083099
:102AB00004F064FD204613F0F4F8002394F81C029F
:102AC00084F804320BF0ACFF202384F81C3205B0EC
:102AD000F0BD01200BF09EF905B0BDE8F0400EF00E
:102AE00071B890F80432042B01D0CE21F9E600230E
:102AF00080F80432EBE7D421F3E6D821F1E600BFF9
:102B0000C8000020D00000202DE9F04104460E4608
:102B1000154690F8383103F0FF071BB10C273846F3
:102B2000BDE8F08101464B480BF054FF2028804659
:102B3000F4D05822394604F5887015F0BCF984F8B1
:102B40001081C4F81461FF2384F8383136B104F0E1
:102B50007BF900F00700013086F8F40102234FF002
:102B60000008A4F8483184F840810BF031F849306E
:102B700086B2204612F09FFE0146D8B310F021FF26
:102B800000F5CD6081B228460AF0CEFF2844C4F893
:102B9000440114F08DFF30184FF00106A4F8268090
:102BA00041F1000184F81861C4E95401204612F093
:102BB00098FED0B1A5F2AA453146204612F0EFFDAD
:102BC0002D1AC4F81C514FF0FF326FF00043C4E9D6
:102BD000562304F5A07194F810010BF099FF70BB17
:102BE0004FF4E5713020FDF70FFE3046AE3D12F098
:102BF00071FFE5E72046DFF8608012F0D0FDAE30CF
:102C0000C4F84401B8F8040048B1E08C38B104F0CD
:102C10001BF9B8F80430B0FBF3F202FB13000644D2
:102C200014F046FF361841F10001C4E95461002D4B
:102C3000C9D0AE1941F10001C4E95661C9E7D4E930
:102C4000542300212046C4E94A23C4E94C2312F04E
:102C500071FE64E7D50C0100B4190020F0B5002323
:102C600085B0CDE9003303238DF806306846FEF7C2
:102C700019FB88B11D4E01230027B3710223CDE952
:102C800002778DF80E3002A8FEF70CFB0546A8B1BE
:102C90000023B37105B0F0BD00980EF002F9E5E72E
:102CA00090F81C020CF044FA94F81C0284F80452C8
:102CB0000BF0B6FE202384F81C32DFE7029B002BCA
:102CC000E1D093F81C22202ADDD018884FF6FF733C
:102CD0009842DDD00221FEF7ABFA04460028DFD18E
:102CE0004FF49A713020FDF78FFD00BFB41900201A
:102CF000044B0022DA719A7142F210729A80FFF747
:102D0000ADBF00BFB4190020014BD871704700BFA0
:102D1000B419002008B509F0A7F8044B9A6882425C
:102D20002ABF9879002080F0010008BDB419002066
:102D3000F0B5044685B090F8D33103F0FF05002BC1
:102D40006ED190F80432032B6AD114F0B1FED4E9AD
:102D50008E23801A61EB0301012871F100035FDB10
:102D60006FF00103834275EB010304DA40F2BB51BB
:102D70003020FDF749FDE269B4F880300AB1B0FBBC
:102D8000F2F2013313449BB2A4F81432B4F8CC31FC
:102D9000B4F814229B1A1BB2002B41DD94F81C02DC
:102DA0000BF0BAFF00283BD0FF2384F81932B4F8A7
:102DB000BA300DF10E07B4F880501A4E1D44B4F825
:102DC000B830013DED1AADB2336863B1B4F81412F6
:102DD00000222046013989B29847B4F814321844C9
:102DE00080B2A4F81402B4F81432EB1A1B0417D4FE
:102DF000B4F8141200230122204689B20097FFF78D
:102E0000C3FA68B1012808D1B4F81432BDF80E2015
:102E100013449BB2A4F81432D6E740F20261A7E74C
:102E200005B0F0BDD00000202DE9FF410446062981
:102E300000F28280DFE801F0042815252C317B00A8
:102E40003F4B9B7903F0FF025BB900920123B0F87E
:102E5000CC11FFF799FA38B14FF4DA613020FDF761
:102E6000D3FC042384F8043209F002FA0BF0ACFC22
:102E70000023B4F88020A4F85232A4F8162284F873
:102E8000193204B0BDE8F081032380F80432F8E77A
:102E900013F08AFBC4E99001F3E72A4B1B681BB1CE
:102EA0000246D0E99001984794F86D30E569033BFC
:102EB000DFF88C80012BD4F80C3294BF282200223A
:102EC0009D4202F5807288BFED1A98F8073098BFCE
:102ED00000251BB9636B9D4228BF1D46D4F8D871ED
:102EE00004F13400039211F0BBFD074402200CF002
:102EF00071F80221EE1B26EAE676864228BF0646D6
:102F000030460CF0ADF8039A00B9374439462046F4
:102F100011F032FED4F8D831C8F80800E06918443E
:102F20000CF02AF80028ACD140F27E3196E704B0CC
:102F3000BDE8F0410DF05BBE40F284718EE700BF4A
:102F4000B4190020C4000020012A70B505460C46C3
:102F5000164615D0022A18D042BB08F085FF32462B
:102F6000014620460DF06DFF2A46124994F81001E3
:102F70000AF040FF40B940F297713020FDF744FC61
:102F800008F072FFC5F8540270BDD0F85412012247
:102F900020460DF056FF2A46064994F810010AF023
:102FA00029FF0028F0D14FF4F561E6E740F2AE7159
:102FB000E3E700BFD9280000014B9880704700BFAD
:102FC000B4190020343270B5054692B20C461E4644
:102FD0000DF049FC25B1034A556014745674147001
:102FE00070BD00BFD8190020014B1870704700BF9A
:102FF00051000020014B5870704700BFF0190020AD
:1030000010B5D0E906436BB1D0E902219C611144AF
:10301000DA680A44DA6082693AB1D3610023C0E910
:10302000063310BD034A1460F5E7002BF6D0DA60D2
:10303000F4E700BFF8190020014B1879704700BF72
:10304000F819002010B50F4C206820B1616813F00A
:10305000B9FB00232360A3680BB10023A360237F87
:10306000022B03D194F82030DB0705D509F0A4F832
:103070000023237708F0A6FB636A94F82000BDE8DC
:1030800010401847001A00200123F0B5564C85B0B7
:1030900084F82830E36A1B7AFBB1216B94F8342062
:1030A00091F8D830101E03F1FF3318BF0120022A17
:1030B000DBB234BF0122022284F85800032BD1E98D
:1030C0003201C4E9120159D8009204F13801474A8B
:1030D0000420D35CFB2208F027FA236BFF2093F82F
:1030E000D81008F005FF94F86030032B4BD1002373
:1030F000656EA36094F834306E78012B5BD831464E
:1031000028780DF090FF6368C0F3C002ADF80C00A2
:1031100093F8A03003F0010161F382004306C7B2C7
:103120008DF80C0058BF236B9DF80D0058BF93F825
:10313000C830687058BF03F0010207F05003C7F3AE
:1031400001073B4343EA810343EAC2032B70E36A6E
:103150001B7A002B3AD0002E38D0A06E09F00EF961
:103160000022A16E284609F035FB00283AD12946F5
:10317000A06E05B0BDE8F04008F03EBA40F26741ED
:103180000620FDF741FB012B216B94F8340009D197
:10319000097F09F087FCA060A56855B940F28F113E
:1031A0004720EEE700900846D1E9322309F094FC6D
:1031B000F1E720359EE794F860302846032B02D1D2
:1031C00008F09CF8C3E708F07BF8C0E7284609F050
:1031D000D5F808F0F7FA0021284605B0BDE8F04020
:1031E00013F020BA05B0F0BD001A002064E6040018
:1031F0002DE9F7430F4606467E4CA0B994F860309F
:10320000032B14BF62684026E46E1EBFD36E0133E9
:10321000D36608F031FE01463046A04703B0BDE852
:10322000F043FFF70FBF2368002B36D0203394F80C
:1032300034205978012A32D818780DF0F4FE6368EA
:10324000C0F3C002C0F3801993F8A030ADF80400B9
:1032500003F001039A42236B93F8C8800CBF012648
:10326000002688EA900000F001083FD0B9F1000F75
:103270000CBF88250825E36A1B7ACBB3B9F1000F90
:1032800036D1A9B3A6B308F0ABFA88BB94F82030C6
:1032900043F0030384F82030C0E7636EC7E7022AD7
:1032A00021D19DF804201B7822F03F0203F03F0358
:1032B000134394F86020032A8DF8043008D103F0FA
:1032C0000303032B0DD094F8203043F00103E1E712
:1032D00013F0200F0CBF08250C254FF00008C14645
:1032E000C9E74825F9E74FF00008C1460825C2E7BD
:1032F00094F8343013F0FD0F03D113F055F9C4E9FD
:103300001C0108F0B9FD15F04003014603D0E36E3F
:103310002846984782E7B9F1000F31D15EB32068A3
:1033200010B3A26F45F01005236FB14613EB020CEA
:10333000636F43EBE272B4F87C30003B18BF0123AB
:10334000C0E904C20376B8F1000F01D045F02005B2
:10335000E36E28469847B9F1000F27D023688BB950
:10336000A1214720FDF750FA63681B6E002BEAD1BC
:1033700045F01005E7E76268536F01335367E2E7F2
:103380009946E0E700216268197059709970D97008
:10339000D16BB9B9D363136492F8393023B960683B
:1033A0001549313011F0D0FA00232360002F8AD163
:1033B00094F834304BB1013B012B7FF62FAF40F234
:1033C000CA21CEE7116C0B60E5E7FFF75DFE257FB4
:1033D000012D0CD108F050FDE16802232A4601447A
:1033E0000648237703B0BDE8F04309F0A1B803B065
:1033F000BDE8F083001A002083680100101A002045
:10340000D3B502233A4C94F8601084F82830E36A6C
:1034100003291A7A08BF0820636818BF987F0AB189
:103420000430C0B293F8B01008F062FDE36A1B7A72
:1034300023B3A06E08F0A2FF94F834104B1E18BFFF
:10344000012384F8583063689A7FD3E9286793F89A
:10345000B0301B2A03F1FF3338BF1B220229DBB235
:1034600034BF01210221032BC4E9126730D8009137
:1034700002202049CB5C204908F056F894F86030CF
:10348000023B012B29D9606813F08FF92060206876
:1034900030B363682030D3E9282340E90623E36A88
:1034A0001B7AFBB1A16E08F0A7F894F8343003F052
:1034B000FD03012B19D1636893F8B030033B012B56
:1034C00094BF2820002002B0BDE8D04008F09CBF87
:1034D00040F267410620FDF797F900232360D6E705
:1034E000606EDCE708F04AFFDFE702B0D0BD00BF46
:1034F000001A002064E60400381A002073B5254C39
:10350000054694F86030032B04D102B0BDE870404A
:10351000FFF798BDA26822B940F2E2214720FDF7EB
:1035200073F9012B0CD0D4F88030206BD4E91C2126
:1035300000F1C8069A18009641EBE37313F0C0FF40
:103540000023A36035B194F8203043F0010384F8E0
:103550002030DAE794F83430002BD6D0032BD4D0C7
:10356000012B11D1FFF74CFF237F012B0FD108F066
:103570009BFCE16802232A4601440748237702B0F6
:10358000BDE8704008F0D4BF40F20231C6E702B097
:1035900070BD00BF001A0020101A0020034AD2F8A4
:1035A00080301844C2F88000704700BF001A002025
:1035B000044B054AC3F884200022C3E919011A7795
:1035C000704700BF001A0020D4000020034BD866CB
:1035D000D3F88400596208F0BBBE00BF001A002077
:1035E000014B00221A777047001A00202DE9F341A1
:1035F0000D9F1546404C0C9A6760A3670E9F089B71
:103600002763C4F88030BDF824709DF82830A4F8F2
:103610007C70002784F86030137A0F9E94F81CE0C9
:1036200084F83450E26284F82070C4E91C01A3B12C
:1036300006F1100304F1380C06F12008186808336D
:1036400053F8041C6746434503C7BC46F6D11168CE
:10365000336A4B402365736A6365BEF1020F05D17F
:10366000032D3FD8DFE805F02D3B2D3B106808F017
:10367000FBFC9DF82C0008F01DFDE36A586808F07B
:1036800061FE236B93F9D90008F0E8FC94F834301C
:1036900003F0FD03012B0DBF236B012063680020A5
:1036A0000CBF93F8D83093F8B030D4E91C6700937E
:1036B00032463B4612F096FF0028D1D102B0BDE859
:1036C000F081FFF79DFE94F83400012805D870B111
:1036D000636893F8B01008F0F7FE0120EEE7FFF7FB
:1036E000D3FCF0E740F25E314720FDF78DF8236B05
:1036F00093F8D810EFE700BF001A0020074B002214
:103700001A7793F82820022A06D1D3E91C218018C1
:1037100041F1000112F073BF704700BF001A002092
:10372000044A92F8203043F0010382F82030FFF77A
:1037300089BC00BF001A002070B50B4C9D7FE66A63
:10374000367A0EB10435EDB293F8B030566812688F
:10375000637600232176E3760123A576E060237764
:10376000C4E9042670BD00BF001A0020F0B5157A28
:103770009C7B0DB10434E4B2576893F8D8601268AA
:1037800093F9D950054BC3E90427012219765E76D7
:103790009C76DD76D8601A77F0BD00BF001A002055
:1037A0000138C0B2032808B504D94FF4507106207F
:1037B000FDF72AF8014B185C08BD00BF7CE6040049
:1037C0000138C0B2032808B504D94FF4507106205F
:1037D000FDF71AF8014B185C08BD00BFFEE60400B7
:1037E0000138C0B2032808B504D94FF4507106203F
:1037F000FDF70AF8014B185C08BD00BF74E7040030
:103800000138C0B2032808B504D94FF4507106201E
:10381000FCF7FAFF014B185C08BD00BF4CE8040040
:10382000F8B50C46074618B9E1211A20FCF7ECFF61
:1038300025230B706FF4F973C518437ACB70B5F874
:10384000B0318B8095F898314B7295F899318B7225
:1038500095F89A31CB7295F8B5310B750821B5F80A
:10386000AE01FDF7E5FC95F8FC310646002B40F073
:10387000AD8008B9F521D8E7D5F8BC206B6990F880
:1038800000E05FFA82FCD8B2C3F30F21C2F30F2726
:10389000C3F30743C2F30742BEF1000F5DD1A37328
:1038A000617384F80FC062742073277495F8B000B8
:1038B000FFF776FFA07495F89001FFF771FFE074B1
:1038C000EB7F637595F8C730A375AB7FA4F819300B
:1038D00095F8C630A4F81B30AB8B6384B5F8C430C0
:1038E000A38495F8243084F8263095F8253084F8A0
:1038F000273095F8263084F8283095F8CC3084F8B5
:10390000293095F8CD3084F82A3095F8CE3084F8F7
:103910002B3040F2E242337CA371737CE371B37CC1
:103920002372737DE375B37D23767368B3FBF2F383
:10393000A4F81D3095F89C31E37795F89D3184F813
:10394000203095F89E3184F8213095F82C3084F899
:103950002C30012385F86331F8BD637484F80CC002
:10396000A27321746773E07395F89001FFF718FF55
:10397000A07495F8B000FFF713FFE07495F8C73016
:103980006375EB7FA37595F8C630A4F81930AB7F4B
:10399000A4F81B30B5F8C4306384AB8BA38495F8CE
:1039A000CC3084F8263095F8CD3084F8273095F85F
:1039B000CE3084F8283095F8243084F8293095F8F2
:1039C000253084F82A3095F82630A0E778B10378BE
:1039D000012B0CD117F8033C4BB11623074907F113
:1039E0000A0085F8063210F0ACFF4423E370294644
:1039F0003046BDE8F8400DF09CBB00BFD31101007C
:103A0000054B98429FBF00F53470044B18600020AE
:103A100088BF1220704700BF00093D0054000020FD
:103A2000014B1860704700BF881A0020F8B5224D7E
:103A30002E683778002F3CD1D6E91023D6E91446FA
:103A4000121B63EB0603141843F10003012C73F1FE
:103A5000000204DA4FF4A3714220FCF7D5FE4FF0C8
:103A6000FF32A24277EB030302DA40F24711F3E799
:103A7000D9B90FF0A6FF2B6893F862300B2B03D94E
:103A800040F2F2310620E8E70C4A102632F8131013
:103A90000144204689B20AF047F830442B685B683D
:103AA0005B08984228BF1846F8BD32210226084616
:103AB000EEE70020F2E700BF8C1A002080E6040049
:103AC0002DE9F0410F4686B005460AF0B3F997F8A4
:103AD000C7300446FA7F0021D7F89C81684693429C
:103AE00038BF1346264A013B126808FB03F3D66E23
:103AF0001822B34238BFF61A14F0DDF98DF80840E9
:103B000006F1F00301932B78012B18D106F5AF765F
:103B100001960AF095FFD7F89C31181841F1000181
:103B2000CDE90401019B694695F82400AB630AF0D6
:103B3000EFFFF0B940F2EC514220FCF765FE2C7F1C
:103B4000002108FB04F42046FFF770FFD5E910239D
:103B5000A41800F1A50200F13E0043F10003A41AED
:103B600063F10003CDE90443019B03EB40000190A6
:103B7000D8E708F07DFB0AF027FE06B0BDE8F0812B
:103B80008C1A00202DE9F04104460E4620073ED550
:103B9000384D0123A8682B716B7190F8C831022B46
:103BA00009D10323344900F2F31000F82B3C002321
:103BB000437210F0C6FE0AF043FFAF6842F2107C79
:103BC0000023B7F8B6E13246D5F80080EEFB0C23AF
:103BD000101843EB0101C7E9760198F8003083B96A
:103BE00040460DF0D5FED7F89C2198F81C303146A0
:103BF0005343D7F898219A1A024408F1200012F092
:103C00008EFA21065EBFAB68012283F8C921E20665
:103C10000CD5184DA868C17FA0300EF072F8AA68C4
:103C2000002382F8C931126E0AB32B73A3061CD588
:103C3000104CA068D0E9626590F8C71000F5C0701C
:103C40000EF05FF823681A784AB9A268D2E96212C6
:103C50008E4275EB020202D25868FFF79FFCA26801
:103C6000D2F87031013BC2F87031BDE8F081012318
:103C7000DBE700BF8C1A00202138000038B504466D
:103C8000154608465AB9032304F2F31084F8C831E4
:103C900084F8FC510949BDE8384010F052BE0B7859
:103CA00053B904F21121743013F084FF20B940F2AB
:103CB000AB414220FCF7A8FD0023E5E721380000D6
:103CC00010B50446006807292CD8DFE801F0041479
:103CD000140A2B102328154B1B68BDE810409B6865
:103CE0001847124B1B685B69BDE8104018470F4B23
:103CF0001B681B69F8E70023037710F8201B29B91C
:103D000007F0B0FA638A013B638210BD194607F0E1
:103D100085FAF7E740F2BA514220FCF775FD40F210
:103D2000BD51F9E74FF4B861F6E700BF000100208C
:103D30003B4B2DE9F0411E6807469C68337E357F7A
:103D4000012B3ED14FF0000835E0D4F81142E4B128
:103D50006FF404710C44204631460DF0F5FD0DF072
:103D60000AFE40B3F5B9B6F93230B4F9D211728E09
:103D70005B1AA4F8D2219BB2D4E97821D31841F17F
:103D80000001C4E978313D7018E0B8F1000F14D19A
:103D90000135746FEDB284B16FF404724FF0010815
:103DA0001444D8E7317820460DF0ACFD18B194F8F2
:103DB000B531AB42E7D8002CC7D100242046BDE87E
:103DC000F081013594F8B531EDB2AB4205D93178C7
:103DD00020460DF097FD0028D5D1D4F81142002CD3
:103DE000EBD06FF4047331461C4420460DF0ACFD5B
:103DF0000DF0C1FD0028F0D0B6F93230B4F9D2117F
:103E0000728E5B1AA4F8D2219BB2D4E97821D31820
:103E100041F10001C4E9783100233B70CEE700BFD7
:103E20008C1A002070B50E46B0B191F890210C4B61
:103E300091F8B00003EB82039D6908F0C3FC45359F
:103E40002C18304604F2E7340DF0C4FD4FF47A73B9
:103E5000B4FBF3F4204470BD4CF26204F1E700BF00
:103E600080E604002DE9F04FBA4D044691B0884633
:103E70002F68A86038460DF08BFDD4F89C613B7F1D
:103E80007343D4F898619B1B1E1820460DF0A2FDC9
:103E90002B693044984207D9B8F1000F04D10027AC
:103EA000384611B0BDE8F08F397822460CA80DF0E5
:103EB0007AFD2B68DDF8348020461A7F08F18E01E8
:103EC0000DF0D0FC0F210890B4F8AC01FDF7B0F96B
:103ED0000746002861D094F8900107F017FA07EB25
:103EE0004000437E84F8913104F1A0012B68204604
:103EF00004F1B8091B7F009394F82130E27F0DF0A4
:103F000018FF2B6894F8C77004F5C0711B7F3A4600
:103F100028730093204694F8C9300DF00AFF4846F4
:103F2000D4E978320133A3FB071342F1000207FB07
:103F300002334A1E63F1000313F0BFFAE17F49B177
:103F4000D4E92A13D4E97802884272EB03032CBF28
:103F50000121002194F8C7204AB1D4E97872D4E94C
:103F60006203874272EB03032CBF01220022286800
:103F7000D4F89C3190F81CC003FB0CFC002900F025
:103F8000C180D4F8E031D4F8A870DB1BFF2B07D92F
:103F900040F2F1114220FCF737FC98F87430A1E7A9
:103FA000476807FB03C3C3F1000A002A00F0AC8096
:103FB000D4F8E071D4F88831A7EB030EBEF1FF0FFF
:103FC000E6D8D4F898310769DF1BA7EB0C0C4768DB
:103FD00007FB1EC700236B71002900F09E8082F052
:103FE0000103297930460993FFF720FD29688346AC
:103FF000099B0A78012A40F0928094F890C15648B3
:1040000000EB8C004FF47A7C806900F5FA70B0FB0D
:10401000FCF0D1E910C11CF16E0C41F1000110EB74
:104020000C0041F10001801941F10001059404F5F3
:10403000DC7408F1E0080494089CCDE90234002403
:104040005346CDE90074CDE90698FFF7CFFA07464D
:1040500000283FF424AF2B681B78012B69D0AC6893
:1040600094F8B00008F0A6FB94F8B0203A4B03EBAC
:1040700082034FF47A72DB6A03F2E733B3FBF2F3A5
:1040800003EB4B0B5844FFF739FB0DF12F00FFF703
:104090004FFE804600283FF403AF2C689DF82F9018
:1040A00020460DF075FCD8F89C3103FB09F9D8F8CF
:1040B0009831A9EB0309814440460DF08BFC2B6934
:1040C000484498423FF6ECAE424621780EA8C5F827
:1040D00014800DF068FC0F999DF82F2040468E311A
:1040E000A9EB06060DF0BEFB2B68814608F5DC72D5
:1040F0001B78012B1FD1014608F1B8033046FFF7AA
:1041000035FBCDE68A4650E703694768FF1AD4F8C5
:1041100098313B44A3EB0C075CE7022361E7D1E94C
:104120001001301841F10001B0EB0B0061F100010A
:104130007CE72046A7E764213046089209F0F4FCAA
:10414000841C4346089A4946A4B2301BFFF7F4FA90
:10415000A6E600BF8C1A002080E6040010F0020FD3
:104160002DE9F047474E86B003D0B3683D2283F86F
:10417000F1213768B46897F81C9094F8B53109F1CB
:10418000010296F80C809A4209D13B783BB994F829
:10419000623123B9D4F878310133C4F87831C307D8
:1041A00005D5384606B0BDE8F0470DF018BB0DF157
:1041B0001700FFF7BDFD9DF81730054607F12000F9
:1041C0003B7711F0F6FF824600284DD0B8F1000F82
:1041D0000BD094F8393043B92B4904F13100D4E9BC
:1041E0002823C4E9022310F0AFFB002D41D094F83E
:1041F000B5314A46D4E96078029394F8C730019308
:1042000094F8C930009304F5C073D4E978010DF037
:1042100046FD10B1013748F100083A46434604F123
:10422000B80008F0B1FCBAF1000F03D0294630689D
:10423000FFF746FC06B0BDE8F0877369AB4201D1D9
:1042400073791BB9FFF7CCF907F0B6FF00212846B8
:10425000FFF708FE88B90DF11700FFF769FD336815
:104260009DF8172005461A77002DE6D1B8F1000F0A
:10427000AFD130680DF0B3FADCE7B8F1000FB6D07B
:10428000A7E700BF8C1A0020836801002DE9F74FD3
:104290000B6980460E46D1F8149001930DF078FB1F
:1042A000D8F87440054614B16FF404700444002239
:1042B0000127DFF848B192468CB9002F40F09A8070
:1042C00098F80010002940F09580404601920DF0CA
:1042D0005FFB281A019A7BD540F27E514AE094F8A0
:1042E000C81103296FD8DFE801F00F02172A94F8EC
:1042F000F11101F0FF00002959D094F8F121414655
:104300002046FFF7BBFC0122D4F81142002CD4D088
:104310006FF404731C44CFE7D4F8D43194F8F1114E
:1043200001F0FF0C0029E8D1D4E97810013140F107
:104330000000994270F1000348D33E22DFE7D4E940
:104340007601019B834279EB010316D394F8F121A6
:104350007ABB082284F8C8A184F8062298F80020C5
:104360005ABB04F2112108F1740013F023FC20BBA6
:1043700040F2BD414220FCF747FAD4F8A41001F006
:1043800080000906E2D4D4F8841101F0800150EADB
:104390000103DBD1D4F8E40100F0800051EA00030E
:1043A000D4D194F8F11101F0FF000029CED10746D5
:1043B000AAE794F8F121D2B2CCE7594604F2FD10F5
:1043C00010F0BFFA9FE740F26E51D3E767469BE7D4
:1043D000D8F81010884202D340F27F51CAE7D6E9DC
:1043E0000415091845EBE075C6E9041512B14046FD
:1043F0000DF007FB384603B0BDE8F08FD311010084
:104400002DE9F3410023444E0546446F306033717B
:10441000002C7FD06FF4047329461C4420460DF015
:1044200093FA0DF0A8FA98B3B5F932302846B4F9EA
:10443000D2116A8E5B1AA4F8D2219BB2D4E97821FA
:10444000D31841F10001C4E97831EB6E33610DF00E
:1044500044FB0746F8B9D6F8008002200AF0BAFDFE
:104460000221D8E91B535B1B834228BF0346192B4B
:104470001D4638BF192528460AF0F2FDE8B9336910
:10448000D8F838002B4428443361C8F8380014E0C9
:10449000D4F81142BCE705F1200011F085FE002898
:1044A000D9D13068037F43B9203011F082FE20B9A2
:1044B00030681A49203011F0EBFE07F06BFDFFF772
:1044C0008FF817491748FFF781F839462046FFF75C
:1044D000C9FCC0B90DF10700FFF72AFC9DF80730B1
:1044E00004463068037737B9002CEED102B0BDE83E
:1044F000F0410DF074B9002CF8D0214602B0BDE8AF
:10450000F041FFF7DDBA3068203002B0BDE8F0417D
:1045100011F059BE2846E9E78C1A0020C13C000082
:104520005D410000853B0000014B024A1A60704764
:1045300000010020E4000020014B1868704700BF14
:10454000000100202DE9F84F446806460D4694F816
:104550008770002F40F0458101F0FEFAC80740F156
:104560003E8104F516782846414610F0EBF894F8A1
:104570008C30002B40F0108194F88B30002B40F0F1
:104580000B81B4F88050D4F81C9001F0EBFA94F849
:104590005A32022B02D81BB91E2503E1042BFBD192
:1045A000C0431842C2B240F0188194F85B32022B2B
:1045B00000F20681002BEFD01A4240F00E8194F8F1
:1045C0005DE20EF0C003C02B00F0078194F8613269
:1045D00094F8602242EA032294F8623203F00F0357
:1045E00042EA0342FE2A03D894F86E321907D3D167
:1045F00094F8643294F8630240EA032094F8653238
:1046000003F00F0340EA0340FE2804D894F86E320A
:1046100013F0F00FC0D1B4F866A2BAF1000F40F069
:10462000D38094F86E321B07B6D1B4F86812002913
:1046300040F0CF8094F86E3213F0F00FACD194F8C4
:104640006A3203F1FF3CBCF11E0FA5D894F86CC28E
:10465000012B94F86BB24BEA0C2B94F86DC24BEA29
:104660000C4B02D0BBF5C87F96D3B4F871C240F2B0
:10467000E24303FB0CF39B458EDA94F86FB2BBF177
:10468000000F89D094F870B2BBF1000F84D0ACF168
:10469000040C40F67C4B1FFA8CFCDC453FF67CAFEB
:1046A0001EF0800F3DD194F86EC21CF00F0F1AD08F
:1046B000B3FBF2FE02FB1E32002A7FF46DAF94F8CA
:1046C0005DB294F85C220BF00F0B42EA0B225244CD
:1046D000013A92FBFAF292B20EFB02F20CF00F0ECC
:1046E00072453FF659AF1CF0F00F1AD0B3FBF0F251
:1046F00000FB1233002B7FF44FAF94F85F0294F865
:104700005E3200F00F0043EA00230B44013B93FBB1
:10471000F1F39BB2534394F86E22B3EB121F3FF6B2
:104720003BAF94F8742294F8733243EA022394F86E
:10473000752243EA0243B3F5FA7FFFF42DAF9945A2
:104740007FF62AAF94F8771294F8762242EA012293
:1047500094F8781242EA014293423FF61DAFB4F852
:1047600079325D1B2DB2002DB8BF6D42ADB2B5F5EB
:10477000804FBFF411AF2A231B4904F2C52084F8EF
:10478000873010F0E1F8304610F05AFA0023A4F810
:104790007C323846BDE8F88F13F0C7FA00287FF462
:1047A000F0AE252523220021404613F084FB1F2371
:1047B00084F80A5184F80B31322384F88730E2E719
:1047C000042B3FF4F9AEE7E6BAF1FB0F7FF62DAF0D
:1047D000E2E6FB297FF633AFDEE62025E2E71A2585
:1047E000E5E70127D5E700BFE31401002DE9FF410C
:1047F0000546486800230C4601AA69467830CDE991
:1048000000330DF0A7F920B94FF404711320FBF722
:10481000FBFF6368019FDE6903F13408D7F8A0311C
:10482000013E9E4228BF1E460FF0CBF8636893F806
:10483000C0210B2A03D940F2F2310620E7E71649DE
:1048400031F812100144D86989B209F06DF90446B3
:10485000404610F005F90444D7F8A40102A9103429
:10486000029B6400B44228BF3446844238BF0446E9
:10487000284664F317030293019B8DF80B60C6F37F
:104880000F26B3F8B231ADF80C60ADF80E300FF072
:10489000CEFF04B0BDE8F081C0E604002029F7B5E2
:1048A0000646154628D1476897F887302C2B23D128
:1048B000002401AA694607F17800CDE900440DF013
:1048C00049F920B94FF40D711320FBF79DFF3046D5
:1048D00087F88740A7F8C44010F0C2F9019880F823
:1048E000FC510DB180F8C84100F2F310034910F0FB
:1048F00028F8002003B0F0BD0220FBE721380000BB
:1049000010B490F887302A2B1BD190F8CD32C3B960
:1049100090F88632ABB9B0F87C220139B0F8CE31CC
:10492000C4691A440B1992B2B3FBF4F39A42A0F88B
:104930007C2206D3044900F27E205DF8044B10F07F
:1049400003B85DF8044B7047771201002DE9F04F72
:1049500081468BB00846D9F8048098F887302C2B14
:1049600040F06D8106A90FF074FF002305AA04A989
:1049700008F17800CDE904330DF0ECF820B940F2ED
:10498000A3311320FBF740FFB8F8803042F21072D9
:10499000BDF825000499C31A1BB2002BB8BF5B42B7
:1049A0009BB2B3F5804FB8F8263038BF002702FB22
:1049B00003F328BF1E27CB65002F40F01081BDF800
:1049C00020209DF82450DDE90543C4F8B8319DF856
:1049D0001F3043EA0223BDF8222042EA05420B6160
:1049E000A4F8B201C4F89821079AC87DC2F317024F
:1049F000C4F8A8214A7D0093D1E901130CF0E3FE2D
:104A00006061DDE904140B698A7DC87D0093CB6881
:104A100049680CF0D8FEB8F88030BDF82550D8F8B9
:104A20001C20ED1AC4F8BC0086492CB245F3C035F1
:104A3000A4FB024302FB0535079BC3F31703E418ED
:104A40006FF07F4345F10005E31845F100029942FC
:104A500077EB0203DDE90403D8E990AB93F82C204F
:104A600038BF2027D3F8981190F815C04668002A5F
:104A700045D082680A4406FB0C229A610269891AB1
:104A800062EB020211EB0A014BEB0202091945EB42
:104A90000202C3E97A12002F40F0A180002D08DA4B
:104AA000721E121BB2FBF6F291B206FB0144C3E97F
:104AB0007817203011F015FB0546DDE90402002DC2
:104AC00000F0A880D0F874E0BEF1000F1CD06FF4A5
:104AD0000473D2F8986102F211210EEB030CDCF89A
:104AE00098319E4213D8DCF81152A5B355F8793CA1
:104AF0006FF4047E9E42AE4438D8F446F3E70CF1DE
:104B0000FF3206FB0212B8E740F2C62139E7C2F8CD
:104B100011E241670CF075FFDDE90402436F5BB3FE
:104B200053F8793CD2F898619A1B944227D3F61A2D
:104B300043682644B6FBF3F6B6B285B320300021B5
:104B400011F06EFB049B93F824000AF0E5F8C0B95D
:104B500040F2FD3115E782F8115282F8125282F8C4
:104B6000135282F81452CCF81112D3E7C2F8115242
:104B70000025CCF81112CDE740F2293101E70026DB
:104B8000DBE70498002352462030CDE9013350F88A
:104B90001C3C03FB164300935B4606F0B1FA049BF2
:104BA0005A8E01321644059AA2F8D4611A7E012A5F
:104BB00015D05A6F3AB16FF404711068511828B9C2
:104BC00040F20331DDE64FF44071DAE6D1F8982186
:104BD00050F8790CD1F89C11121A8A4217D300248C
:104BE000484688F88740A8F8C44010F039F857B113
:104BF0000598154980F8FC71274680F8C84100F2F5
:104C0000F3100FF09EFE38460BB0BDE8F08F012286
:104C10001A76E4E7436F02F21122136042670CF048
:104C2000F0FE059B01220498A3F8D42120305246BF
:104C30005B460094CDE9015506F062FACFE7022702
:104C4000E1E700BFFF8693042138000008B5034662
:104C50000138032811D8481E03280ED80848012916
:104C6000417014BF0A2100218370027181721046C5
:104C70001946FCF709FD002008BD6FF01500FBE7A1
:104C8000FA060020054A537A20B143F004030020BD
:104C90005372704703F0FB03F9E700BFFA060020E8
:104CA0002DE9F0410F46063940F67A45BDF81880E7
:104CB00089B2BDF82460A9423ED8941FA4B2AC4288
:104CC0008CBF002401242546002837D11E490979CC
:104CD00069B15CB96FF450603918062906D86FF4D1
:104CE00050615418062C8CBF00240124254605B3BE
:104CF000974226D803FB0666B6F5FA7F21DCA8F1B9
:104D00000A0340F676409BB283421AD810460DF053
:104D1000A4F842F21073704303FB08F8B8EB400F9D
:104D20000FD9BDF81C50BDF8200085428CBF00256E
:104D300001252846BDE8F0810024C4E790F87510ED
:104D4000C6E70025F5E700BFB81A0020304BF0B5E4
:104D5000B0F860700C4611461A88B0F85E6085B0F5
:104D600097425D8828BF1746964228BF16461B2EDD
:104D70002ED0B5F5A47F2DD040F6480301AA9D4260
:104D800028BF1D460DF092F8BDF80A309F4228BF9B
:104D90001F46BDF80C30AB42E78028BF2B4623816D
:104DA000BDF806309E4228BF1E46BDF808309D4221
:104DB000668028BF1D46A580FF232370E3881B3B28
:104DC0009BB2E02B08D940F219613920FBF71CFD9A
:104DD0001B2FCED105B0F0BD63881B3B9BB2E02BEF
:104DE00002D940F21B61F0E7238940F64812A3F58F
:104DF000A4739BB2934202D940F21D61E5E7A388F8
:104E0000A3F5A4739BB29342E4D940F21F61DCE79F
:104E1000B81A00202DE9F341002304460E46174638
:104E200000F10A08CDE900336846FCF73BFA08B107
:104E3000002015E0009DA542F6D03046EB1C0DF099
:104E400006F83946AA780EF006FF0028ECD005F1E6
:104E50000A036A7A4146607A0EF0FDFE0028E3D02C
:104E600002B0BDE8F0810000054A134692F8202008
:104E700053F8211B11F8030BC0F380100EF0EBBEAA
:104E800024200020114BF7B59C7E0646DD7E9F8BCB
:104E900014B900F067FE0446A5B900F063FE0546AC
:104EA00014B9092003B0F0BD0028FAD0304601A99A
:104EB0008DF804408DF80550ADF806700EF0A7FF90
:104EC0000020EFE7002CF1D1EBE700BF7C1F0020B2
:104ED00010B503210020FCF7ABF9044670B903219B
:104EE000FCF768F9044620B940F24D313920FBF750
:104EF0008BFC034B93F9601010F00BFC204610BDA7
:104F0000B81A002038B50EF0A5FE002501F0ACF966
:104F1000234C00F035FE0FF0F5FC01F0FDFB02F034
:104F2000FFFD01F02DFC012000F0EEFD1D4B1E4A9F
:104F300029465D831A601B229D839A80F9229D7702
:104F40001D761A4B22835868194A1B892260142245
:104F5000E06104F12400238484F86150A4F85450E3
:104F6000A576A580A57512F0A6FF012342F2107266
:104F700004F13A0084F8565084F8243084F839302B
:104F8000C4E90A2211F0A8FA04F1440011F0C9FAA8
:104F90000022002384F87050C4E91A2338BD00BFF2
:104FA000B81A00207C1F002003021B00FEE604004C
:104FB0001B004801044B41F64C521B215A611974E5
:104FC000C3E90222FFF79EBF7C1F002073B5394D55
:104FD0000446AB6840F8343F0BF09AFF064600F0F9
:104FE000BBFD2B7C10F0200FE68784F83C30324B61
:104FF0000EBF1B22AA8869881B6814BFA4F85E1024
:10500000A4F85E20A4F860201BB194F974102088E5
:1050100098472A490B79003B18BF012384F8753063
:10502000274B1B6813B108312088984794F87530D6
:105030002046002B41F64C5318BF4FF47A73E361BE
:10504000FFF720FF064648B102212088FCF706F949
:1050500060B340F2D3513920FBF7D6FB01236386BE
:10506000184B1B6813B1014620889847164B1B68E4
:1050700013B1002120889847697804F11400AB88A7
:105080006A8801910333297803329BB2009192B26E
:1050900004F11801FCF73EF9636913B94FF4BE61DE
:1050A000D9E7A3691BB940F2F151D4E7092630468C
:1050B00002B070BD7C1F002008010020B81A00203B
:1050C000200100201C010020180100202DE9F341DF
:1050D00005460E4610F05EFB002800F0AF80284623
:1050E00010F0E9FB30B1B6F80130013B7F2B01D95C
:1050F000122404E0284610F0E2FB20B90C242046DC
:1051000002B0BDE8F08128460BF04EFF0028F5D133
:10511000284610F0E8FA80460028EFD1284604F02F
:1051200025F90028E4D042F21073B6F80170F17846
:1051300028465F4310F0ABFB04213078FCF778F889
:10514000044606213078FCF773F8002C78D038B18B
:1051500041F6F3113920FBF757FB044690F8BD8068
:10516000414E3368002B6DD04034204610F0FDFFD7
:10517000002867D0204610F0B4FF002862D1B8F1B3
:10518000000F08D0394B20461B689847002859D09B
:1051900041F60721DEE73649424633682046496931
:1051A000984700284ED041F60C21D3E7284610F04E
:1051B00082FB40B902210DF10600FBF7C3FF064652
:1051C00058B90D249BE7284610F087FB0028F1D141
:1051D000284B1B79002BEDD18AE7002101F004FA5E
:1051E000BDF8063028463146338010F094FB28463F
:1051F00010F073FBA8B9296A284610F078FB014625
:105200003046FFF7E3FE044600287FF478AF3A46C5
:1052100031462846FDF778FC044620B141F6382196
:1052200098E70121ECE7134BDB6D002B3FF467AFF0
:10523000024606F58D713046984760E742245EE7E6
:1052400000288AD1284610F02EFB01460028ADD157
:105250003A462846FDF758FC044600283FF44FAF75
:1052600041F6152176E700BF14010020100100204F
:105270007C1F0020B81A0020B0F90020F8B514B245
:1052800092B202F5A0639BB2B3F5206F36D8B0F9A5
:1052900002301DB29BB203F5A06189B2B1F5206F57
:1052A0002CD802F2F64140F2BE5089B2814227D892
:1052B00003F2F64189B2814222D8002C4FF00A0055
:1052C000C4BF093214B2002DC8BF093394FBF0F4F7
:1052D000C8BF1DB201F028FA0A2167B2064695FB45
:1052E000F1F1384649B201F011FA074B1B684BB196
:1052F000A01B40B208B198470020F8BD3020FCE761
:105300001120FAE71846F8E70C010020034B5A88F1
:1053100002801B7883700020704700BF7C1F002034
:105320007FB5837806461A2B09D8042B05D90122AC
:1053300002FA03F3314A134205D112251AE0292B50
:1053400001D03B2BF9D13088B0F5706FF5D26946AA
:105350000EF0CFFC88B9019B93F8182102F0FF05ED
:10536000C2B9B27883F81921FF2283F81821684660
:105370000FF0A1FA284604B070BD09213088FBF770
:1053800057FF0446002837D002A9B0F8AC010EF050
:10539000B0FC08B10C25EDE70821B4F8AE01FBF72D
:1053A00047FF20B940F628113920FBF72DFA037882
:1053B0001BB994F8C831032BECD1039B93F82E2131
:1053C000002AE7D194F8F02102F0FF05002AE1D18C
:1053D000B4F8B021A3F8302194F8B42183F8322135
:1053E000027D83F83321B27883F8342184F8F021E8
:1053F000FF2283F82E21BDE70225BBE720003804F9
:105400000188A1F11B039BB2E02B0CD8428844F227
:105410004810A2F5A4739BB2834204D8034B00202A
:1054200019805A8070471220704700BFB81A0020B8
:10543000034B1A885B88028043800020704700BFBE
:10544000B81A002038B50478427804F00103857852
:1054500004F0020452EA030101D1112038BDBCB9A5
:10546000002DFAD0002B08BF144601E00024254689
:1054700020460CF0E0FD0028EFD028460CF0DBFDC4
:105480000028EAD0054B00209C76DD769883E5E77E
:10549000002BEBD114461D46EAE700BF7C1F00201D
:1054A00013B5008869460EF024FC18B1022420468A
:1054B00002B010BD68460CF0BFFE0028F6D001987F
:1054C00090F82A310BB13A24F1E790F8D23003F08A
:1054D000FF04002BF7D190F8C9309B0706D1FF23BA
:1054E00080F82A3168460FF0E6F9E0E70249CA3051
:1054F0000FF030FADBE700BF855101002DE9FF41D5
:10550000077804460E46EF2F04D91226304604B021
:10551000BDE8F081B0F80130ADF80C309DF90C20F9
:105520009DF80C30002AF0DB9DF80D209507ECD19A
:10553000D80660D4990603F0030259D5002AE4D1B5
:105540001D0703D503F06703012BDED1637818072D
:1055500011D42179E278E07942EA0122617942EAC4
:105560000142A17941EA0021207A41EA00418A42C0
:10557000CBD81F2AC9D9627A013A062AC5D8A27A9D
:10558000032AC2D813F0040102D1023A012A03D837
:10559000E27A012AB9D811B9A27C032AB5D813F04E
:1055A0001001227D37D0012AAFD1237E012BACD848
:1055B000002940D06378D90703D500F047FA0028C6
:1055C00040D06378227D03F01803082B4AD1022AC9
:1055D00038D11FFA87F803214046FBF729FE05461C
:1055E000002845D00BF0E0FC00284DD00C268DE7BC
:1055F000032AA5D189E713F0600F86D103F00F02CB
:1056000003F00703052BA1D0931E012B9ED9002A7E
:105610007FF47BAF9AE7022A04D103F06F03092BD2
:105620007FF473AFA37D013B022B3FF66EAFE37DAA
:105630000F2BBAD969E700F095FA820707D4237DCA
:10564000022B01D1112661E7A37D022BFAD000F0D5
:1056500089FA4307AED4237D032BF3D0A37D032B1C
:10566000A8D1EFE7022AB4D0237F002BB1D0E9E71D
:1056700003214046FBF79EFD0546002843D0234BFF
:1056800093F9601010F045F80021384610F042FB05
:1056900028BB284610F004F921463070E0742846F3
:1056A00003F0BCFEE37E0646002B3FF42FAF00283C
:1056B0007FF42CAF0246E96C6846FBF707FF3246E1
:1056C000E86C01210BF04FF9E96C68460422FBF706
:1056D000FDFE32463146E86C0BF045F916E74030E6
:1056E00010F043FD0028D4D0637813F0330F7FF41B
:1056F0000CAFA77D2846296A10F0F9F8FEF760F88C
:105700008742C6D072E7072600E700BFB81A00201C
:1057100030B502798BB00346042A5CD84488B4F5CE
:10572000804F58D82D4800211044ADF800108DF856
:105730000810827C457B42F010028DF81D1042EA71
:105740004502C57D007F42EA850242EAC00202F0BE
:105750001F028DF80020BDF80020ADF809201A883E
:105760008DF80E40240A8DF80B20120A8DF80D10CA
:105770008DF810108DF80C208DF80F405A7BD3F85F
:1057800007008DF811205A79059002A88DF8122093
:105790009A798DF81320B3F80B209B7BADF8182075
:1057A0008DF81A307F238DF81B3001238DF81C30C3
:1057B0008DF81E308DF81F108DF820108DF82310F5
:1057C0008DF824108DF821108DF822106946FFF70E
:1057D00095FE0BB030BD1220FBE700BFFEE60400D3
:1057E0000278034672B1427862B142881A2A09D916
:1057F00082881A2A06D90068034A106000209B8814
:1058000093807047122070477C1F002002680020A0
:10581000014B9A60704700BF7C1F00200378A3F102
:105820000A02112A9BBF024A0020122013747047FB
:105830007C1F0020014B187600207047B81A00200A
:10584000014B587600207047B81A0020024B1B68A5
:1058500003B11847112070470401002038B50388B0
:1058600004469AB20B80B2F5706F3ED28278012A5C
:105870003BD8C078FF2838D02179032901D1237B78
:105880009BBBA57A637A43EA0523E57A43EA05439D
:10589000184DAB4229D850BB032928D182F001050D
:1058A00005F0010572B109212088FBF7C1FC78B928
:1058B0000B212088FBF7BCFC78B12946BDE83840B5
:1058C0000DF05BBE07F050FB0028ECD10C2038BD7A
:1058D0002946BDE838400DF006BE0C212088FBF7B4
:1058E000A7FC0028E9D10220F1E71220EFE7112000
:1058F000EDE700BF00093D0037B5002504460DF176
:1059000006010DF105008DF80550ADF8065007F0C1
:1059100033FB074B28465A8822801B78A370BDF8BA
:105920000630A4F803309DF80530637103B030BD34
:105930007C1F002008B5052000F0F2F805F07CFB84
:10594000014B024ADA6508BDB81A00204D4D00002F
:1059500008B5054A2421054B01201A6001F034FAEC
:10596000BDE8084005F074BB2D22010004010020B1
:1059700008B503F0E1FBFDF7BBF90248BDE80840BC
:1059800003F0C4BB2C1B0020054808B500F584714A
:105990000BF041FD01F0EAFDBDE80840FFF7D8BF7C
:1059A0002C1B002008B50EF053F9064800F5847151
:1059B000FCF746F902200AF028FF0020BDE8084065
:1059C0000AF023BF2C1B002008B50122064B83F8E8
:1059D0000A2203F0B9FB04F0D3FCFFF7E3FFBDE8B4
:1059E000084001F0EDB800BF2C1B002010B5064C9C
:1059F000064904F503700DF07CFF04F504700449BA
:105A0000BDE810400DF075BF2C1B002024010020C4
:105A10002C01002010B5094C094904F503700DF064
:105A200068FF04F5047007490DF063FF04F5057085
:105A30000549BDE810400DF05CBF00BF2C1B0020E5
:105A4000540100205C0100204C010020014B93F820
:105A50000A0270472C1B002010B50A4C1D2000F0D4
:105A60005FF8094904F503700DF043FF04F5047075
:105A700006490DF03EFF04F505700549BDE81040EC
:105A80000DF037BF2C1B0020340100203C0100200A
:105A90004401002038B5094C0D4601F06DF8D4F8EA
:105AA0000C02C4F804510DF01CFFFFF783FA01F05B
:105AB000E3F9012384F8183238BD00BF2C1B002005
:105AC000014B93F8180270472C1B002010B50D4CA9
:105AD000D4F810020DF005FFD4F814020DF001FF08
:105AE000FFF710FA202000F029F82F2000F026F808
:105AF000262000F023F8292000F020F8002384F865
:105B0000183210BD2C1B0020014B83F8190270477E
:105B10002C1B0020014B93F8190270472C1B00200E
:105B2000C2080549012300F0070003FA00F08B5C6E
:105B300018438854704700BF58000020C208054928
:105B400000F0070001238340885C20EA03008854AA
:105B5000704700BF58000020014BD3E90001704797
:105B600058000020054B1868C0F3C022C0F3002085
:105B7000400040EA820040F00100704758000020D9
:105B800008B508F01BF80023074A32F823108142B9
:105B900005D302EB83039B78044A137008BD0133DD
:105BA0000C2BF2D10023F7E744E70400461D002048
:105BB000024B1878072828BF07207047461D002091
:105BC00010B54468238884F87B11A4F87C3194F8DC
:105BD0006C00FDF705FE84F87E0194F86D00FDF77A
:105BE000FFFD054984F87F0104F5B9700EF0B2FE9F
:105BF000002384F8243110BDC739010040680749EB
:105C00000388A0F86E3190F8643080F8703190F815
:105C1000653000F2651003730EF096BEDD390100A9
:105C20002DE9F04F0C4685B0054608460EF073FD91
:105C3000834620460EF067FD804620460EF067FD45
:105C4000064620460EF065FD6C68074694F88730DE
:105C500094F886A0242B2FD104F18709BBF1000F03
:105C600049D006F0070210460DF007FF78B394F80C
:105C70006C3098422BD094F8241101290CBF94F871
:105C8000261194F868100A4235D0BAF1220F1ED0BE
:105C900094F865100A421AD1461EF6B2032E06D8B1
:105CA000013B5E49DBB20E44032B30790BD940F245
