:10000000409801208DA001009D97060079A0010075
:1000100079A0010079A0010079A0010079A0010078
:1000200000000000000000000000000055A20100D8
:1000300079A0010000000000A9A1010079A0010041
:10004000CDA40100CDA40100CDA40100CDA40100E8
:10005000CDA40100CDA40100CDA40100CDA40100D8
:10006000CDA40100CDA40100CDA40100CDA40100C8
:10007000CDA40100CDA40100CDA40100CDA40100B8
:10008000CDA40100CDA40100CDA40100CDA40100A8
:10009000CDA40100CDA40100CDA40100CDA4010098
:1000A000CDA40100CDA40100CDA40100CDA4010088
:1000B000CDA40100CDA40100CDA40100CDA4010078
:1000C000CDA40100CDA40100CDA40100CDA4010068
:1000D000CDA40100CDA40100CDA40100CDA4010058
:1000E000CDA40100CDA40100CDA40100CDA4010048
:1000F000CDA40100CDA40100CDA40100CDA4010038
:10010000CDA40100CDA40100CDA40100CDA4010027
:10011000CDA40100CDA40100CDA40100CDA4010017
:10012000CDA40100CDA40100CDA40100CDA4010007
:10013000CDA40100CDA40100CDA40100CDA40100F7
:10014000CDA40100CDA40100CDA40100CDA40100E7
:04015000CDA4010039
:100158002DE9F14F03F11C0402EB840C4FEA930BD9
:100168008A68CB680868496800F046F93CE9F000FD
:100178006040694072407B400BF1060E4EE083EA16
:10018800134480EA134582EA134746BA96EA344490
:10019800604000F00F1684EA063420F00F1684EA57
:1001A800161054BA94EA0106724002F00F1486EA57
:1001B800043622F00F1486EA14124CBA65406940DE
:1001C80001F00F1485EA043521F00F1485EA1411A3
:1001D8005CBA67407B4003F00F1487EA043723F0CA
:1001E8000F1487EA141344BA44404DBA4D4056BA26
:1001F80056405FBA5F4087EA174886EA174B84EA99
:1002080017464FEA38488BEA1B4485EA1B4788EAB9
:100218001B4580EA3440694072407B4000F07034EE
:1002280000F0803500F00F3040EA440040EAD50085
:1002380080EA900404F0332480EA8400604001F0EE
:10024800703401F0803501F00F3141EA440141EA90
:10025800D50181EA910404F0332481EA84016140E4
:1002680002F0703402F0803502F00F3242EA4402A4
:1002780042EAD50282EA920404F0332482EA840234
:10028800624003F0703403F0803503F00F3343EA23
:10029800440343EAD50383EA930404F0332483EA4E
:1002A80084036340C943DB4381EA000483EA0446CC
:1002B80086EA020183EA014382EA334583EA14436A
:1002C8005C4084EA00077FEA040A8AEA024A8AEA6A
:1002D800010B87EA11488AEA374A80EA060181EA6F
:1002E8001A418AEA030A04EA0A00454088EA040730
:1002F80007EA0B0041408AEA0B0608EA060084EA8E
:1003080034428AEA3A4602EA0603584045404140E8
:1003180087EA37438BEA3B4003EA000985EA090587
:1003280082EA0309464006EA0906714085EA0100A7
:1003380005EA3546464006EA314181EA304181EA1C
:10034800364606EA304686EA354634400F4086EAA5
:10035800010508EA050886EA3640024088EA0208EC
:1003680081EA314213405C4080EA020309EA03094A
:1003780087EA0907674088EA040806EA0A0601EAE4
:100388000B018AEA0B0425408AEA3A44204045409A
:100398008BEA3B4B02EA0B02564084EA0B042340EB
:1003A80059406E40694087EA364080EA384080EA22
:1003B800060380EA104481EA134585EA344585EA54
:1003C80017427D4082EA354180EA05403CE9F00069
:1003D8006040694072407B40BEF1010E3FF6CFAEEF
:1003E80020BC00F05FF828606960AA60EB60BDE897
:1003F800F08F00BF00F000BA80EA101404F0F01487
:1004080080EA0410604081EA111404F0F01481EAD3
:100418000411614082EA121404F0F01482EA041212
:10042800624083EA131404F0F01483EA041363406F
:1004380080EA102404F47F4480EA0420604081EAC2
:10044800112404F47F4481EA0421614082EA1224E1
:1004580004F47F4482EA0422624083EA132404F409
:100468007F4483EA0423634081EA500404F055344E
:1004780080EA4400614083EA520404F0553482EA79
:100488004402634082EA900404F0333480EA840032
:10049800624083EA910404F0333481EA84016340C2
:1004A800704700BF82EA900404F0333480EA840085
:1004B800624083EA910404F0333481EA84016340A2
:1004C80081EA500404F0553480EA4400614083EA2C
:1004D800520404F0553482EA4402634080EA10244E
:1004E80004F47F4480EA0420604081EA112404F483
:1004F8007F4481EA0421614082EA122404F47F44A3
:1005080082EA0422624083EA132404F47F4483EAE3
:100518000423634080EA101404F0F01480EA041005
:10052800604081EA111404F0F01481EA041161407A
:1005380082EA121404F0F01482EA0412624083EA98
:10054800131404F0F01483EA04136340704700BFE7
:100558002DE9F14F94464FEA930B8A68CB680868F7
:100568004968FFF749FF0BF1060E33E083EA1344AD
:1005780080EA134582EA134746BA96EA3444604053
:1005880000F00F1684EA063420F00F1684EA1610DD
:1005980054BA94EA0106724002F00F1486EA04364F
:1005A80022F00F1486EA14124CBA6540694001F033
:1005B8000F1485EA043521F00F1485EA14115CBA8A
:1005C80067407B4003F00F1487EA043723F00F14C9
:1005D80087EA1413BCE8F0006040694072407B4031
:1005E80000F0E03400F0103500F00F3040EA54001D
:1005F80040EAC50080EA900404F0332480EA8400CD
:10060800604001F0E03401F0103501F00F3141EAAB
:10061800540141EAC50181EA910404F0332481EAD6
:100628008401614002F0E03402F0103502F00F322C
:1006380042EA540242EAC50282EA920404F03324F0
:1006480082EA8402624003F0E03403F0103503F0DC
:100658000F3343EA540343EAC50383EA930404F0DF
:10066800332483EA8403634081EA324787EA1345E7
:1006780081EA354690EA060484EA034B82EA1B4283
:1006880080EA044484EA054483EA144A85EA144467
:100698008BEA044B84EA374481EA0B4181EA16412C
:1006A80004EA0A00454082EA04082BEA08004140AF
:1006B8008AEA0B0602EA060084EA34438AEA3A46E2
:1006C80003EA060778404540414088EA38478BEA04
:1006D8003B4007EA000985EA090583EA070946401D
:1006E80006EA0906714085EA010005EA35464640F2
:1006F80006EA314181EA304181EA364606EA304667
:1007080086EA3546344008EA010886EA01052A40A7
:1007180086EA364003405A4081EA31431F407C4014
:1007280080EA030709EA070988EA0908544088EAC1
:10073800020806EA0A0601EA0B018AEA0B021540DA
:100748008AEA3A42104045408BEA3B4003405E400B
:100758004240174079404D404E40E443F64386EA14
:1007680018435D4085EA054083EA134386EA03415E
:1007780083EA384284EA114383EA04435FEA334355
:10078800BEF1010E3FF6F2AE1ED4BCE8F0006040A8
:10079800694072407B4020BCFFF784FE2860696096
:1007A800AA60EB60BDE8F08F2DE9E0414FF2F0025E
:1007B80080EA1031114080EA01304840410882083F
:1007C800C3084FF0000E4FE700F0113001F011316F
:1007D80002F0113203F0113340EA410040EA82008E
:1007E80040EAC3004FF2F00280EA1031114080EA7B
:1007F80001304840BDE8E0812DE9F04F02F11C05C9
:100808000646074600EB850851F8040B043A46F8FB
:10081800040BF9D14FF0010CFFF7C6FF5FEA302057
:1008280080EA0C001ECF41404A4053405C401EC63F
:100838002000464517D04FEA4C0C1CF4807F18BFA7
:10084800ACF1E50C2C2DE7D03C2D06D1FFF7ACFF21
:1008580006CF41404A4006C6100006CF41404A40F4
:1008680006C61000D8E736E90F00FFF7C5FD043DBE
:1008780086E80F00F7D1BDE8F08F00BF2DE9F0073B
:1008880091E8F807B2E802105B1854EB0C04B2E8E0
:1008980002104D4156EB0C06B2E802104F4158EBDE
:1008A8000C08B2E8021059EB01095AEB0C0A80E86F
:1008B800F80780410130BDE8F00770472DE9F007DF
:1008C80091E8F807B2E802105B1A74EB0C04B2E87E
:1008D80002108D4176EB0C06B2E802108F4178EBDE
:1008E8000C08B2E8021079EB01097AEB0C0A80E8EF
:1008F800F80780414042BDE8F00770472DE9F0074E
:10090800524290E87800B1E880071740DB1918EAEE
:10091800020854EB080419EA020955EB09051AEA1A
:10092800020A56EB0A0678C090E87800B1E880071A
:1009380017407B4118EA020854EB080419EA020937
:1009480055EB09051AEA020A56EB0A0678C08041F7
:100958000130BDE8F00770472DE9F007524290E8F2
:100968007800B1E880071740DB1B18EA020874EB2F
:10097800080419EA020975EB09051AEA020A76EB76
:100988000A0678C090E87800B1E880071740BB41B4
:1009980018EA020874EB080419EA020975EB09055C
:1009A8001AEA020A76EB0A0678C080414042BDE89E
:1009B800F00770472DE9F00152424FF0040890E823
:1009C800300091E8C000A31B1340E41AF618EB1B93
:1009D8001340ED1AFF1830C0C0C1B8F10108EED1BC
:1009E800BDE8F001704700BF00B592EC080AB1E815
:1009F800805707EE101A53EC102A56EC114AA7FB41
:100A08000251A8FB020BE7FB6310E9FB62B041EC63
:100A1800145AA8FB0351EAFB6201E7FB64B5E7FB44
:100A28006605E8FB661505EE10BAA9FB03B6EAFBF6
:100A38006316ECFB6356E8FB640BE9FB641BEAFBFB
:100A4800645BECFB646B05EE900AACFB023012EEC3
:100A5800104AEEFB6250E9FB6460EAFB64B0E7FB16
:100A68006431E8FB645112EE904AE8FB6461E9FBEB
:100A780064B1EAFB640106EE103AA7FB043213EEF8
:100A8800104AE7FB6462E8FB64B2E9FB6402EAFB34
:100A9800641211EE904AE9FB6453EAFB646313EEB7
:100AA800904AE7FB64B3E8FB6403E9FB6413EAFBE1
:100AB800642306EE905A17EE109A99E8000610EE95
:100AC800108AA9FB0854EAFB68B412EE108AECFB02
:100AD8006804EEFB6814E9FB6824EAFB683410EE4E
:100AE800908AEEFB6865E9FB68B5EAFB680512EEDB
:100AF800908AECFB6815EEFB6825E9FB6835EAFB94
:100B0800684507EE106A11EE108AAEFB0876E9FB1D
:100B18006806EAFB681613EE108AECFB6826EEFB03
:100B28006836E9FB6846EAFB685611EE908AECFBEA
:100B380068B7EEFB6807E9FB6817EAFB682713EE5E
:100B4800908AECFB6837EEFB6847E9FB6857EAFBDD
:100B5800686700BD2DE9F04F07EE900AFFF744FFE4
:100B680017EE908A07EE90BAA8EC084A88E8FF00CA
:100B7800BDE8F08F00B591E89857A3FB0352A3FB9B
:100B88000401E3FB6420E3FB671042EC145AA3FB67
:100B98000752E3FB6802E4FB6415E3FB6805E3FB2B
:100BA8006925A4FB07B6E3FB6926E3FB6A56E4FB69
:100BB800670BE4FB682BE3FB6A5BE3FB6C6B40ECC5
:100BC800151AA4FB0810E4FB6950E3FB6C60E3FB17
:100BD8006EB0E7FB6721E4FB6951E4FB6A61E3FB64
:100BE8006EB1E4FB6E0106EE102AA7FB0832E4FBA7
:100BF8006A62E4FB6CB2E4FB6E02E7FB6E12E7FB91
:100C08006853E7FB6963E4FB6CB3E7FB6C03E7FB42
:100C18006E13E8FB6E2306EE905AA7FB0954E7FB18
:100C28006AB4E7FB6C04E8FB6C14E8FB6E24E9FB90
:100C38006E34E8FB6865E7FB6AB5E8FB6A05E8FB24
:100C48006C15E9FB6C25E9FB6E35EAFB6E4507EE92
:100C5800106AA8FB0976E8FB6A06E9FB6A16E9FB55
:100C68006C26EAFB6C36EAFB6E46ECFB6E56E8FB3C
:100C780069B7E9FB6907E9FB6A17EAFB6A27EAFB38
:100C88006C37ECFB6C47ECFB6E57EEFB6E6700BDF8
:100C98002DE9F04F07EE900AFFF76CFF17EE908AE8
:100CA80007EE90BAA8EC084A88E8FF00BDE8F08F84
:100CB80030B44FF0000310F8014B11F8015B013A12
:100CC80084EA050443EA0403F5D1A3F101034FEADA
:100CD800D37030BC704700BF4FF0000310F8012BF1
:100CE800013943EA0203F9D1A3F101034FEAD370B2
:100CF800704700BF30B411F8014B12F8015B6C402B
:100D080000F8014B013BF6D130BC70472DE9F04F9C
:100D180090E8F00F00F140004FF0040E59E0F0B4F5
:100D2800826BC36B04680525242687593C444FEA27
:100D3800724787EAF24787EA92273C4442684FEABB
:100D4800F21787EAB24787EAD2073C4440F8044BD7
:100D5800032D08BF6FF01B0687593A444FEA7347C3
:100D680087EAF34787EA93273A4443684FEAF31739
:100D780087EAB34787EAD3073A4440F8042B8759F0
:100D88003B444FEA744787EAF44787EA94273B4491
:100D980044684FEAF41787EAB44787EAD4073B4424
:100DA80040F8043B013DC0D1A0F13C00076A3C4437
:100DB8004FEA724787EAF24787EA92273C4402687B
:100DC8004FEAF21787EAB24787EAD2073C44C4637E
:100DD800F0BC4FF0020288EA781C8CEAF84C0BEB66
:100DE800BC1C8AEA090303EA080383EA0A039C4451
:100DF80050F8043B9C4451F8043B9C44674444EA43
:100E0800050B0BEA060B04EA05034BEA030BE34464
:100E180084EAF42383EA34530BEBB30B87EA771C99
:100E28008CEAF74C0AEBBC1C89EA080303EA0703BF
:100E380083EA09039C4450F8043B9C4451F8043B62
:100E48009C4466444BEA040A0AEA050A0BEA0403CE
:100E58004AEA030AE2448BEAFB2383EA3B530AEBA0
:100E6800B30A86EA761C8CEAF64C09EBBC1C88EAC5
:100E7800070303EA060383EA08039C4450F8043B8B
:100E88009C4451F8043B9C4465444AEA0B0909EA2E
:100E980004090AEA0B0349EA0309E1448AEAFA2346
:100EA80083EA3A5309EBB30985EA751C8CEAF54CD9
:100EB80008EBBC1C87EA060303EA050383EA070379
:100EC8009C4450F8043B9C4451F8043B9C446444C3
:100ED80049EA0A0808EA0B0809EA0A0348EA030883
:100EE800E04489EAF92383EA395308EBB30884EA32
:100EF800741C8CEAF44C07EBBC1C86EA050303EA75
:100F0800040383EA06039C4450F8043B9C4451F8CC
:100F1800043B9C44E34448EA090707EA0A0708EA4D
:100F2800090347EA0307674488EAF82383EA385342
:100F380007EBB3078BEA7B1C8CEAFB4C06EBBC1C6B
:100F480085EA040303EA0B0383EA05039C4450F88B
:100F5800043B9C4451F8043B9C44E24447EA08069D
:100F680006EA090607EA080346EA0306664487EA2A
:100F7800F72383EA375306EBB3068AEA7A1C8CEA2E
:100F8800FA4C05EBBC1C84EA0B0303EA0A0383EA68
:100F980004039C4450F8043B9C4451F8043B9C4493
:100FA800E14446EA070505EA080506EA070345EAB3
:100FB8000305654486EAF62383EA365305EBB30551
:100FC80089EA791C8CEAF94C04EBBC1C8BEA0A030D
:100FD80003EA090383EA0B039C4450F8043B9C444E
:100FE80051F8043B9C44E04445EA060404EA07043B
:100FF80005EA060344EA0304644485EAF52383EA20
:10100800355304EBB304013A7FF4E5AEA0F1400098
:10101800BEF1010E7FF483AEA0F1400C9CE80F00F6
:10102800001949199219DB19ACE80F009CE80F0068
:101038004044494452445B44ACE80F00BDE8F08F9B
:101048002DE9F00791E8F807B2E802105B1854EBB5
:101058000C04B2E802104D4156EB0C06B2E802103F
:101068004F4158EB0C08B2E8021059EB01095AEB52
:101078000C0A8941B3F1FF3374F1FF3475F1FF3580
:1010880076F1000677F1000778F1000879F1010997
:101098007AF1FF3A51F100015B184C414D4156F18C
:1010A800000657F1000758F1000859EBD1795AEBBF
:1010B800010A80E8F807BDE8F00770472DE9F00756
:1010C80091E8F807B2E802105B1A74EB0C04B2E876
:1010D80002108D4176EB0C06B2E802108F4178EBD6
:1010E8000C08B2E8021079EB01097AEB0C0A894185
:1010F8005B184C414D4156F1000657F1000758F175
:10110800000859EBD1795AEB010A80E8F807BDE8E5
:10111800F007704718EB040859EB05095AEB060A63
:101128005BEB070B5FF0000C4CF1000C18EB0508AB
:1011380059EB06095AEB070A5BEB070B50EB0C005F
:101148005FF0000C51EB0C0152EB0C0263414CF1C7
:10115800000CB8EB070879F100097AF1000A7BEB7B
:10116800040BA841B141A241B3416CF1000CBBEBA7
:10117800050BB041B941AA41BB416CF1000C4CF0E0
:1011880001068CF0020718EB060859EB6C095AEBBC
:101198006C0A7BEB6C0B70EB6C0471EB6C0572EBFF
:1011A800670653EB6C076CEB6C0C18EB0C0059EBF7
:1011B8000C015AEB0C025BF1000354F1000455F1E9
:1011C800000556EBDC7657EB0C0770472DE9F04F1E
:1011D80007EE900AFFF708FC59EC168A17EE10AADA
:1011E800FFF798FF59EC148A5BEC15AAFFF792FFFA
:1011F80017EE908A88E8FF00BDE8F08F2DE9F04FE0
:1012080007EE900AFFF7B6FC59EC168A17EE10AAFB
:10121800FFF780FF59EC148A5BEC15AAFFF77AFFF9
:1012280017EE908A88E8FF00BDE8F08F81F0004152
:1012380002E000BF83F0004330B54FEA41044FEAB3
:10124800430594EA050F08BF90EA020F1FBF54EA4E
:10125800000C55EA020C7FEA645C7FEA655C00F0EA
:10126800E2804FEA5454D4EB5555B8BF6D420CDDBB
:101278002C4480EA020281EA030382EA000083EA3E
:10128800010180EA020281EA0303362D88BF30BDDE
:1012980011F0004F4FEA01314FF4801C4CEA113134
:1012A80002D0404261EB410113F0004F4FEA033393
:1012B8004CEA133302D0524263EB430394EA050F1E
:1012C80000F0A780A4F10104D5F1200E0DDB02FA8D
:1012D8000EFC22FA05F2801841F1000103FA0EF221
:1012E800801843FA05F359410EE0A5F120050EF1E7
:1012F800200E012A03FA0EFC28BF4CF0020C43FA18
:1013080005F3C01851EBE37101F0004507D54FF024
:10131800000EDCF1000C7EEB00006EEB0101B1F574
:10132800801F1BD3B1F5001F0CD349085FEA3000BA
:101338004FEA3C0C04F101044FEA445212F5800FC5
:1013480080F09A80BCF1004F08BF5FEA500C50F162
:10135800000041EB045141EA050130BD5FEA4C0C45
:10136800404141EB0101013C28BFB1F5801FE9D2A2
:1013780091F0000F04BF01460020B1FA81F308BFC5
:101388002033A3F10B03B3F120020CDA0C3208DD91
:1013980002F1140CC2F10C0201FA0CF021FA02F16C
:1013A8000CE002F11402D8BFC2F1200C01FA02F1DC
:1013B80020FA0CFCDCBF41EA0C019040E41AA2BF01
:1013C80001EB0451294330BD6FEA04041F3C1CDAC9
:1013D8000C340EDC04F11404C4F1200220FA04F0E9
:1013E80001FA02F340EA030021FA04F345EA030193
:1013F80030BDC4F10C04C4F1200220FA02F001FA55
:1014080004F340EA0300294630BD21FA04F02946D6
:1014180030BD94F0000F83F4801306BF81F480116F
:101428000134013D4EE77FEA645C18BF7FEA655CE2
:1014380029D094EA050F08BF90EA020F05D054EAB4
:10144800000C04BF1946104630BD91EA030F1EBFB9
:101458000021002030BD5FEA545C05D140004941BD
:1014680028BF41F0004130BD14F580043CBF01F5B0
:10147800801130BD01F0004545F0FE4141F4700196
:101488004FF0000030BD7FEA645C1ABF1946104671
:101498007FEA655C1CBF0B46024650EA013406BF72
:1014A80052EA033591EA030F41F4002130BD00BF31
:1014B80090F0000F04BF0021704730B54FF48064EE
:1014C80004F132044FF000054FF0000150E700BF6F
:1014D80090F0000F04BF0021704730B54FF48064CE
:1014E80004F1320410F0004548BF40424FF00001BB
:1014F8003EE700BF42004FEAE2014FEA31014FEAFE
:1015080002701FBF12F07F4393F07F4F81F060514C
:10151800704732F07F4208BF704793F07F4F04BF97
:1015280041F40021704730B54FF4607401F0004574
:1015380021F000411CE700BF50EA010208BF7047D4
:1015480030B54FF000050AE050EA010208BF7047C5
:1015580030B511F0004502D5404261EB41014FF42E
:10156800806404F132045FEA915C3FF4D8AE4FF036
:1015780003025FEADC0C18BF03325FEADC0C18BF19
:10158800033202EBDC02C2F1200300FA03FC20FA6A
:1015980002F001FA03FE40EA0E0021FA02F11444B7
:1015A800BDE600BF70B54FF0FF0C4CF4E06C1CEAD0
:1015B80011541DBF1CEA135594EA0C0F95EA0C0F41
:1015C80000F0DEF82C4481EA030621EA4C5123EAB4
:1015D8004C5350EA013518BF52EA033541F48011E3
:1015E80043F4801338D0A0FB02CE4FF00005E1FB96
:1015F80002E506F00042E0FB03E54FF00006E1FBE0
:1016080003569CF0000F18BF4EF0010EA4F1FF0422
:10161800B6F5007F64F5407404D25FEA4E0E6D4162
:1016280046EB060642EAC62141EA55514FEAC52073
:1016380040EA5E504FEACE2EB4F1FD0C88BFBCF5EF
:10164800E06F1ED8BEF1004F08BF5FEA500E50F1A0
:10165800000041EB045170BD06F0004646EA010166
:1016680040EA020081EA0301B4EB5C04C2BFD4EB98
:101678000C0541EA045170BD41F480114FF0000E91
:10168800013C00F3AB8014F1360FDEBF002001F0FF
:10169800004170BDC4F10004203C35DA0C341BDC79
:1016A80004F11404C4F1200500FA05F320FA04F04B
:1016B80001FA05F240EA020001F0004221F000417F
:1016C80010EBD37021FA04F642EB06015EEA430EF2
:1016D80008BF20EAD37070BDC4F10C04C4F1200522
:1016E80000FA04F320FA05F001FA04F240EA0200D5
:1016F80001F0004110EBD37041F100015EEA430EA6
:1017080008BF20EAD37070BDC4F1200500FA05F2C5
:101718004EEA020E20FA04F301FA05F243EA020344
:1017280021FA04F001F0004121FA04F220EA020053
:1017380000EBD3705EEA430E08BF20EAD37070BD99
:1017480094F0000F0FD101F00046400041EB010179
:1017580011F4801F08BF013CF7D041EA060195F05B
:10176800000F18BF704703F00046520043EB030315
:1017780013F4801F08BF013DF7D043EA0603704702
:1017880094EA0C0F0CEA135518BF95EA0C0F0CD00D
:1017980050EA410618BF52EA4306D1D181EA030153
:1017A80001F000414FF0000070BD50EA410606BF4D
:1017B8001046194652EA430619D094EA0C0F02D192
:1017C80050EA013613D195EA0C0F05D152EA0336D7
:1017D8001CBF104619460AD181EA030101F00041F5
:1017E80041F0FE4141F470014FF0000070BD41F03E
:1017F800FE4141F4780170BD70B54FF0FF0C4CF418
:10180800E06C1CEA11541DBF1CEA135594EA0C0F36
:1018180095EA0C0F00F0A7F8A4EB050481EA030E83
:1018280052EA03354FEA013100F088804FEA03336A
:101838004FF0805545EA131343EA12634FEA022238
:1018480045EA111545EA10654FEA00260EF00041F9
:101858009D4208BF964244F1FD0404F5407402D24B
:101868005B084FEA3202B61A65EB03055B084FEADC
:1018780032024FF480104FF4002CB6EB020E75EBD9
:10188800030E22BFB61A754640EA0C005B084FEA01
:101898003202B6EB020E75EB030E22BFB61A75467E
:1018A80040EA5C005B084FEA3202B6EB020E75EBC9
:1018B800030E22BFB61A754640EA9C005B084FEA41
:1018C8003202B6EB020E75EB030E22BFB61A75464E
:1018D80040EADC0055EA060E18D04FEA051545EA3D
:1018E80016754FEA06164FEAC30343EA52734FEAE6
:1018F800C2025FEA1C1CC0D111F4801F0BD141EA5F
:1019080000014FF000004FF0004CB6E711F4801FC3
:1019180004BF01430020B4F1FD0C88BFBCF5E06FA3
:101928003FF6AFAEB5EB030C04BFB6EB020C5FEAB3
:10193800500C50F1000041EB045170BD0EF0004E08
:101948004EEA113114EB5C04C2BFD4EB0C0541EA3A
:10195800045170BD41F480114FF0000E013C90E637
:1019680045EA060E8DE60CEA135594EA0C0F08BFFB
:1019780095EA0C0F3FF43BAF94EA0C0F0AD150EAFA
:1019880001347FF434AF95EA0C0F7FF425AF10468D
:1019980019462CE795EA0C0F06D152EA03353FF4B5
:1019A800FDAE1046194622E750EA410618BF52EA32
:1019B80043067FF4C5AE50EA41047FF40DAF52EA06
:1019C80043057FF4EBAE12E74FF0FF3C06E000BFA3
:1019D8004FF0010C02E000BF4FF0010C4DF804CDB0
:1019E8004FEA410C7FEA6C5C4FEA430C18BF7FEA70
:1019F8006C5C1BD001B050EA410C0CBF52EA430C9E
:101A080091EA030F02BF90EA020F0020704710F11D
:101A1800000F91EA030F58BF994208BF90422CBFAC
:101A2800D8176FEAE37040F0010070474FEA410CA5
:101A38007FEA6C5C02D150EA013C07D14FEA430CC3
:101A48007FEA6C5CD6D152EA033CD3D05DF8040B34
:101A5800704700BF8446104662468C461946634666
:101A680000E000BF01B5FFF7B7FF002848BF10F13D
:101A7800000F01BD4DF808EDFFF7F4FF0CBF012082
:101A880000205DF808FB00BF4DF808EDFFF7EAFFFE
:101A980034BF012000205DF808FB00BF4DF808EDB9
:101AA800FFF7E0FF94BF012000205DF808FB00BFAE
:101AB8004DF808EDFFF7CEFF94BF012000205DF838
:101AC80008FB00BF4DF808EDFFF7C4FF34BF012045
:101AD80000205DF808FB00BF4FEA410C7FEA6C5C10
:101AE80002D150EA013C0AD14FEA430C7FEA6C5C10
:101AF80002D152EA033C02D14FF0000070474FF088
:101B0800010070474FEA410212F5001215D211D5B3
:101B18006FF47873B3EB625212D94FEAC12343F0E2
:101B2800004343EA505311F0004F23FA02F018BF64
:101B3800404270474FF00000704750EA013005D12D
:101B480011F0004008BF6FF0004070474FF00000F0
:101B5800704700BF4A0011D212F5001211D20DD5FC
:101B68006FF47873B3EB62520ED44FEAC12343F09B
:101B7800004343EA505323FA02F070474FF0000045
:101B8800704750EA013002D14FF0FF3070474FF0F4
:101B9800000070474FEA4102B2F1E04324BFB3F5B9
:101BA800001CDCF1FE5C0DD901F0004C4FEAC002CC
:101BB8004CEA5070B2F1004F40EB830008BF20F0B0
:101BC8000100704711F0804F21D113F13872BCBF6A
:101BD80001F00040704741F480114FEA5252C2F1BF
:101BE8001802C2F1200C10FA0CF320FA02F018BF08
:101BF80040F001004FEAC1234FEAD32303FA0CFC5B
:101C080040EA0C0023FA02F34FEA4303CCE77FEAE9
:101C1800625307D150EA01331EBF4FF0FE4040F433
:101C28004000704701F0004040F0FE4040F40000E2
:101C3800704700BF7BB972B90029BEBF00204FF0C2
:101C4800004106E008BF00281CBF6FF000414FF0BC
:101C5800FF3000F075B8ADF1080C6DE904CE00292D
:101C680009DB002B1ADB00F0E3F8DDF804E0DDE91E
:101C7800022304B07047404261EB4101002B1BDB9B
:101C880000F0D6F8DDF804E0DDE9022304B04042B4
:101C980061EB4101524263EB43037047524263EBED
:101CA800430300F0C5F8DDF804E0DDE9022304B0E1
:101CB800404261EB41017047524263EB430300F03D
:101CC800B7F8DDF804E0DDE9022304B0524263EB23
:101CD8004303704753B94AB9002908BF00281CBFFD
:101CE8004FF0FF314FF0FF3000F02AB8ADF1080C8B
:101CF8006DE904CE00F09CF8DDF804E0DDE902238C
:101D080004B07047D0B500220B4B06460F46FFF7CC
:101D180049FCFFF71FFF0446FFF7CAFB0022074BE9
:101D2800FFF740FC02460B4630463946FFF782FA79
:101D3800FFF710FF2146D0BD0000F03D0000F04144
:101D4800704700BF70B4840746D04C1E002941D0AC
:101D5800D5B2034602E0611EE4B30C4603F8015B0A
:101D68009907F8D1032C2ED9D5B245EA05250F2CB1
:101D780045EA054519D9264603F11001103E0F2EF4
:101D880041F8105C41F80C5C41F8085C41F8045CCF
:101D980001F11001F2D8A4F1100121F00F0104F0B3
:101DA8000F041031032C0B440DD91E46214604396B
:101DB800032946F8045BFAD8211F21F003010431F6
:101DC8000B4404F003042CB1D2B21C4403F8012BD9
:101DD800A342FBD170BC70470C460346C2E710F81B
:101DE800012B11F8013B012A28BF9A42F7D0D01ADB
:101DF8007047034613F8012B002AFBD1181A013843
:101E0800704738B50022002304460D46FFF73CFE14
:101E180028B920462946BDE83840FFF773BF204659
:101E280005F10041FFF76EFF404261EB410138BD0B
:101E38002DE9F04786468C460846089E15467446A6
:101E48001946002B40F0C1808542B2FA82F245D98A
:101E58004AB1C2F1200300FA02FC954094402EFAE0
:101E680003F343EA0C0C4FEA154EA8B2230CBCFB53
:101E7800FEF80EFB18CC08FB00F943EA0C43994521
:101E880028D9EB1808F1FF3704D2994502D9A8F1EF
:101E980002072B44A3EB0903A4B2B3FBFEFC0EFB21
:101EA8001C330CFB00F044EA0344A04214D92C195B
:101EB8000CF1FF3304D2A04202D9ACF102032C4446
:101EC800241A43EA07401EB1D440002334607360EB
:101ED800BDE8F0874746DDE76346F1E792BB431B61
:101EE80001214FEA154EAFB2200CB3FBFEFC0EFBEE
:101EF8001C330CFB07F840EA0343984561D9EB18FB
:101F08000CF1FF3004D2984502D9ACF102002B4401
:101F1800A3EB0803A4B2B3FBFEFC0EFB1C330CFBC3
:101F280007F744EA0344A7424DD92C190CF1FF33B3
:101F380004D2A74202D9ACF102032C44E41B43EAC1
:101F48000040C0E7C2F120039540944020FA03F115
:101F58002EFA03F34FEA154E9040AFB20343B1FB9C
:101F6800FEFC0EFB1C10190C0CFB07F841EA0041A3
:101F7800884522D969180CF1FF3004D2884502D966
:101F8800ACF102002944A1EB08019BB2B1FBFEFCB5
:101F98000EFB1C110CFB07F743EA01439F420ED9C5
:101FA800EB180CF1FF3104D29F4202D9ACF10201C7
:101FB8002B44DB1B41EA004193E76046E3E76146B7
:101FC800F7E76046A4E76346B8E7834206D916B93F
:101FD800002108467CE7C6E900E0F9E7B3FA83F791
:101FE8008FB9834201D3724508D8BEEB020460EB77
:101FF800030301209C461EB9002169E73846FAE729
:10200800C6E9004CF8E7C7F1200CBB400EFA07F50B
:1020180022FA0CF42EFA0CF1BA401C4320FA0CF305
:10202800B8404FEA144901431FFA84FEB3FBF9F89C
:1020380009FB18300B0C08FB0EFA43EA00439A45DB
:1020480040D9E31808F1FF3004D29A4502D9A8F123
:1020580002002344A3EB0A0389B2B3FBF9F809FB96
:10206800183308FB0EFE41EA03418E452CD961184E
:1020780008F1FF3304D28E4502D9A8F102032144A6
:1020880043EA0040A1EB0E01A0FB02984145CE4671
:10209800434602D306D14D4504D20138B9EB020EAE
:1020A80068EB0403002EA7D0B5EB0E0261EB030129
:1020B80001FA0CFC22FA07F3F9404CEA0303C6E9DB
:1020C800003199E74046C5E74346D9E700000000DC
:1020D80010B584460C460C48ACFB000108A3D3E9B4
:1020E80000234FF0070E0EFB0C11FFF7F3FD074B13
:1020F8001B68074A02FB0300204410BDAFF30080B1
:1021080000CA9A3B000000008D49FD1AA4B50020C2
:102118000080841E000000002DE9F04D2DED028B9B
:1021280088B000AF054640688368DB683F21984760
:10213800041EC0F23381686883681B6907F11802BE
:102148001F219847041EC0F22981686883681B69AB
:1021580007F1100221219847041EC0F21F81686808
:1021680083681B6907F1080222219847041EC0F200
:102178001581914B1B6803F00703022B40F2158170
:102188002E68B869FFF7A4F904460D46F869FFF709
:102198009FF987A3D3E90023FFF72EFB02460B46DE
:1021A80020462946FFF748F800220023FFF744F8A5
:1021B80041EC180B3869FFF78BF904460D4678692E
:1021C800FFF786F97AA3D3E90023FFF715FB024648
:1021D8000B4620462946FFF72FF80022774BFFF7DA
:1021E800E1F900220023FFF727F882468B46B868FA
:1021F800FFF76EF904460D46F868FFF769F96CA316
:10220800D3E90023FFF7F8FA02460B462046294691
:10221800FFF712F80022694BFFF7C4F900220023E8
:10222800FFF70AF841EC170B6D4600233B710223B8
:102238007B711C230C2213F0070F02D108320833DC
:1022480004E004320433F6E70432043313F0070FD2
:10225800FAD10832083301E00432043313F00704DA
:10226800FAD102F10A0C6346213222F00702ADEBE3
:10227800020D6A46BCF1000F7AD002F11008BCF1D9
:10228800030F73D9B8F1000F04D0BCF1040F01DDBE
:102298004B4B536100233B7002237B70B8F1000F56
:1022A80003D0BCF1080F00DD96611C210C200B4601
:1022B80011F0070F0DD18646B8F1000F05D0604523
:1022C80003DA08EB000181ED008B0EF1080E0833EC
:1022D80005E004300431EAE70EF1040E0433194630
:1022E80013F0070FF8D17646B8F1000F05D0E64590
:1022F80003DA08EB0E03C3E900AB083601F1080363
:1023080001E00436043313F0070FFAD13346B8F16D
:10231800000F05D0664503DA08EB060181ED007B66
:1023280003F108060A33B8F1000F0DD008EB0601D7
:10233800002007E000F1200EBE441EF820EC01F852
:1023480001EB01300128F5D99C4501DA6FF01B0338
:10235800B8F1000F0CD0C6F387063E7100217971E1
:10236800B9710121F9717868106101E06FF01B0300
:1023780000216FF300016FF341016FF382016FF3E6
:10238800C501032060F3881163F353216FF31F51D4
:1023980010320023084812F087FAAD46204620374D
:1023A800BD46BDEC028BBDE8F08D0024F6E700BF0A
:1023B8000000000080842E41A021002000408F40B2
:1023C8009CE80700000000002DE9F04F8DB009904F
:1023D8000D46174674F0BDFE4B0143EAD063440135
:1023E800241A63EB01039B0043EA9473A4002418A6
:1023F80043EB0101C90041EA5471C4F3103444EAC3
:1024080041444FEAD139012D65D07D6829463C48C1
:10241800FFF7E5FC28B129463A48FFF7E0FC002819
:1024280061D135A3D3E9002320464946FFF702FCD2
:1024380080460A9130A3D3E9002320464946FFF796
:10244800F9FB15461C46304A002328462146FFF76B
:10245800F1FB06460F462C4A002328462146FFF783
:10246800E9FB15461C464EF6602200232846214605
:10247800FFF7E0FB81460B914EF6602200232846C9
:102488002146FFF7D7FB15461C464FF47A72002306
:1024980028462146FFF7CEFB83468A464FF47A72D8
:1024A800002328462146FFF7C5FBCDE90623CDF8D2
:1024B80010B0CDF814A0CDF808900B9A03920096AE
:1024C800019742460A9B1149099866F072FA002062
:1024D8000DB0BDE8F08F22464B460D49099866F0CD
:1024E80068FA0020F4E72A460A49099866F070FA63
:1024F8006FF00400ECE700BF005C26050000000058
:10250800E8FD0700ECFD070080EE360010FE07002E
:10251800D4FD0700F8FD070010B5082140F601407A
:102528001BF0F8F9D8B1044608210C3019F074F8FA
:1025380002460F4B93F8903013F0010F0BD10D4862
:102548004FF0005168F083FC0022214640F601401C
:102558001BF05AFE10BD04A1D1E90001F2E76FF0AB
:102568006800F7E7AFF30080908800020080002041
:10257800C00400201088000230B589B00C9D0028E6
:102588003FD00446002949D0D0F8200110F0010FAF
:1025980051D10020C4F80801C4F80C0104F5887072
:1025A800C4F81001C4F8140104F58C70C4F81801BB
:1025B800C4F81C01002D4BD0287900284AD10120ED
:1025C800C4F820019FED267B8DED067B002004904A
:1025D8000393029001900094234B204642F0E4FAC2
:1025E80055B1296811B1204642F0A6F96B791BB1A3
:1025F800237B43F001032373204643F0A5FB09B076
:1026080030BD1A4C40F2DB2322461949194863F0C1
:10261800D7FF40F2DB2120460DF024FC134C4FF489
:10262800377322461449134863F0CAFF4FF43771D1
:1026380020460DF017FC0D4C40F2DD2322460F49D1
:102648000C4863F0BDFF40F2DD2120460DF00AFC86
:102658000120B5E740F20110B2E700BFAFF30080F8
:10266800FFFFFFFFFFFFFFFFBD3B040000B90800AD
:10267800E8B90800BCA60700F0B90800F8B90800D6
:102688002DE9F04F1F469DB000230C4682460F925D
:1026980018934FF00008984B4FF000091D68284622
:1026A800FFF7A7FB22468346179213782B2B3BD0C4
:1026B8002CD80D2B26D8082B26D8002B2FD000235A
:1026C8000D93179E3378302B74D1737803F0DF03A2
:1026D800582B65D10D9B17A9884A5046019318AB12
:1026E8000297009319AB60F01DFB10F00705044634
:1026F80035D0062D1AD10F9B0BB101361E6042460C
:102708004B4637E0202BDAD10132CDE72D2BD6D13D
:1027180001230D93531C17935378002BD1D10F9B92
:10272800002BECD01C60EAE70023F2E7189A3AB1D4
:1027380035211AA876F0E3FD1899504660F0B2FDED
:10274800013D199A042D06D8DFE805F01903222562
:102758001900DDE91A89210701D549F000490F9BC5
:1027680013B1179B0F9A13600D9B002BC7D04246DD
:1027780009F1004343EC102B1DB0BDE8F08FDDE9F3
:102788001A8302F2334223F4801343EA0259E2E740
:10279800DFF86C91DFE76FF000494FF0FF38DAE7B8
:1027A800179B5A1C17925B78302BF9D0002BD6D088
:1027B800012300E00023002704930A22179BCDE998
:1027C80005770A9317980678A6F13003D9B2092934
:1027D80024D95A46294676F0EEF900282DD0002053
:1027E8003246059D83460346652A01D0452A13D102
:1027F8001DB9049A024392D00025179C621C1792B7
:1028080062782B2A6ED02D2A72D04FF0000CA2F1DC
:10281800300109297AD91794002699E005990130E1
:1028280008291790D7BF069902FB073702FB013327
:102838000693059B01330593C4E7179B03EB0B0233
:10284800179213F80B20059BA3B383461D46A2F1EC
:102858003003092B12D90123C6E7179B01305A1CF4
:1028680017925A78302AF8D0A2F13103082B00F2D7
:10287800EF8483460020179B05460A93303A00F1FF
:10288800010311D09B4400EB050C2B460A2163453C
:1028980012D12B180135082B054419DC06990A2397
:1028A80003FB012306930023179A1846511C17911E
:1028B8005278CCE70598D5E7082B03F1010303DC30
:1028C800069E4E430696E2E7102BD8BF4F43DEE73D
:1028D8000F2BDCBF0A2303FB0727E4E74FF0000BAD
:1028E800012386E74FF0000CA21C1792A2788EE70E
:1028F8004FF0010CF8E700BF1CED0800A8EC080039
:102908000000F07F179A511C17915278302AF9D09D
:10291800A2F1310108293FF67FAF303A0792179AA2
:102928000C92179A561C17965278A2F1300EBEF1E7
:10293800090F38D90C99761A082E44F61F6603DC5D
:1029480007998E42A8BF0E46BCF1000F00D0764210
:10295800002D4FD1049908437FF401AF002B7FF479
:10296800DEAE692A29D026DC492A26D04E2A7FF4F1
:10297800D6AE9B4917A876F040FB00283FF4CFAEAF
:10298800179B1B78282B2FD11AAA964917A876F0DF
:1029980048FB052828D11B9BDDF8688043F0FF49D8
:1029A80049F4E009DBE6079E0A2101FB0621A1F1B3
:1029B80030020792B5E76E2AD9E78B4917A876F057
:1029C8001CFB00283FF4ABAE179B17A88749013BB7
:1029D800179376F012FB10B9179B01331793DFF8A2
:1029E8001C924FF00008BAE6814801F079FA59ECD8
:1029F800108BB4E6A6EB0B0306982C460C93059BAC
:102A0800002B08BF2B46102D0593A8BF1024FEF7F6
:102A18004FFD092D8046894613DC0C9B002B3FF4A3
:102A28009EAE0C9B78DD162B45DC7249424601EBC5
:102A3800C3014B46D1E90001FEF7B4FD8046894643
:102A48008DE66C4B03EBC40353E91223FEF7AAFD92
:102A5800804689463846FEF72BFD02460B4640461F
:102A68004946FEF7E9FB0F2D80468946D5DD2C1B2C
:102A78000C9B1C44002C25DC00F0A280644214F05E
:102A88000F020AD05B4B4046494603EBC203D3E929
:102A98000023FEF7B1FE80468946241100F090809D
:102AA8001F2C40F3B18022234FF000084FF000099B
:102AB800CAF8003053E6C5F125030C9A934219DA97
:102AC8002C1B144414F00F030AD04A49424601EB68
:102AD800C3014B46D1E90001FEF764FD80468946F3
:102AE80034F00F046CD0B4F59A7F41DD2223CAF884
:102AF800003074E7C5F10F053E4C42464B4604EBE7
:102B0800C501D1E90001FEF74DFD0C9B5D1B04EBEF
:102B1800C504D4E900238FE71633A8DBABEB060224
:102B2800344B4046494603EBC203D3E90023FEF782
:102B380063FE83E7002306932223DFF8C0904FF05B
:102B48000008CAF800301899504660F0ABFB0699A7
:102B5800504660F0A7FB0599504660F0A3FB10991A
:102B6800504660F09FFB0799504660F09BFBF6E5E6
:102B780000232411404649461F4F0493012C22DCB0
:102B88000BB180468946049BA9F154791A494246FB
:102B980001EBC3014B46D1E90001FEF703FD174BDA
:102BA8000A4680460B4016498B429FD8A1F58011F2
:102BB8008B4286BFDFF84C904FF0FF3802F1547912
:102BC800002304934BE0E20704D5D7E90023FEF77E
:102BD800E9FC0123049A6410083701320492CDE716
:102BE800F53A090094EC0800ED3A09001F3B09008A
:102BF800D5390900C8A40700A0A407000000F07F89
:102C08000000A07CFFFFEF7F14F010034046494608
:102C1800AA4F18BF6A2304930023E20704D5D7E913
:102C28000023FEF7BFFC0123641007F10807F4D165
:102C38000BB180468946049B43B1C9F30A52494601
:102C4800C2F16B03002B4EDC6A230493002200239D
:102C580040464946FEF70EFF00287FF424AF069B46
:102C68005046059A00932B460A9960F085FB109010
:102C780000283FF43BAF0C9BABEB060B002BB4BF1B
:102C88005B46002311930C9B23EAE3731393002301
:102C980007930593109B5046596860F0C3FA069055
:102CA80000283FF449AF109B0C301A6903F10C015E
:102CB8000232920075F0FFFD1AAA19A9504649EC94
:102CC800108BCDE90A8960F033FE189000283FF494
:102CD80033AF0121504660F099FB03460590D0B907
:102CE8000023059328E71F2B0EDD342B4FF0000837
:102CF800DBBF4FF0FF33C2F14B024FF05C799340DA
:102D0800D8BF03EA01099FE74FF0FF3202FA03F345
:102D180003EA080898E7199C1A9A002CA9BF119B86
:102D2800139BE718139EB8BF1E1B049BB8BF119FC7
:102D3800E41A634B1444C2F13602013C9C4280F20F
:102D4800B0801B1B01251F2BA2EB0302CDBFC4F1D2
:102D58007F449D40002404F57F04C2BF04F57B44F2
:102D6800E23405FA04F407EB020B049B16445F45B2
:102D78001E443B46A8BF5B46B342A8BF3346002B60
:102D8800C2BFABEB030BF61AFF1A119B002B16DD23
:102D98001A460599504660F0F9FB059000289FD027
:102DA8000146189A504660F047FB0E9000283FF401
:102DB800C3AE1899504660F075FA0E9B1893BBF194
:102DC800000F71DC0C9B002B08DD139A5046069906
:102DD80060F0DCFB069000283FF4ACAE002E08DD66
:102DE80032460699504660F02BFC069000283FF4C6
:102DF800A1AE002F08DD3A460599504660F020FC48
:102E0800059000283FF498AE069A5046189960F04D
:102E180083FC079000283FF48FAEC36805990E9392
:102E28000023C36076F01EFA00284BDA0E9B53EAA3
:102E3800080340F0BC80C9F31303002B40F0B780AF
:102E480029F000431B0D1B05B3F1D66F40F2AF808C
:102E5800079B5B6923B9079B1B69012B40F3A7807C
:102E680001220799504660F0EBFB0599079076F030
:102E7800F9F9002840F39B8029F00043049A1B0DC0
:102E88001B05002A79D0B3F1D66F6DD8B3F15C7FFA
:102E980046D84FF000084FF000092223CAF8003046
:102EA80051E6002401255EE75A461899504660F01D
:102EB800C7FB1890002885D13EE600BF78A407001C
:102EC80002FCFFFFCB4640F0A3800E9AC9F3130320
:102ED800002A40D09C4A934258D1049B42467BB971
:102EE800B8F1FF3F40F08980984B99453FF424AEF4
:102EF800974BDDF8108009EA030303F5801922E6F1
:102F0800934B09EA0303B3F1D46F16D918F1010101
:102F18001BD18E4A91453FF40FAE03F580198046C8
:102F28008C4B404649460022FEF73CFB0B46804648
:102F3800894603437FF407AEAFE71E0D4FF0FF311C
:102F4800C6F16B06B1408845E7D0002C5ED014EA84
:102F58000B0FE5D01EE0002B4AD1B8F1000F8BD043
:102F680064B314EA0B0F2BE0A3F580134FF0FF387E
:102F78006FEA13596FEA0959D2E7A3F580134FF0A6
:102F8800FF386FEA13596FEA0959DCE59CB114EA76
:102F9800090F0CD040464946049A75F053FEDDE906
:102FA8000A0153EC102BFEF747F980468946049B2B
:102FB800002BB5D1C7E515EA080FEAE718EA050FAF
:102FC800F5D0049A4046494675F03CFEDDE90A0111
:102FD80053EC102BFEF72EF90022002304460D4671
:102FE800FEF748FD00287FF454AFA046A946DEE767
:102FF800002CB6D115EA080FE2E724B114EA090F4C
:103008003FF4A1ADC6E718EA050FF9E72A42A0E7A1
:103018000599079876F041F900224FF0804355EC66
:10302800104B20462946FEF739FD00286DD00E9B2F
:10303800002B78D1B8F1000F56D1C9F31303002B38
:1030480059D10022444B20462946FEF71DFD002891
:1030580058D1204629460022404BFEF7A3FA0446E1
:103068000D4605F1004308940993394B0BEA030315
:103078001293129A3A4B9A42DDE9086740F0A98008
:10308800ABF1547949EC108B60F0DEFBDDE90823E5
:1030980051EC100BFEF786FA42464B46FEF7CCF889
:1030A8000B462B4980462F4A194091425CD90B9A0E
:1030B800264B9A4203D10A9B01333FF43DADDFF81A
:1030C8008C904FF0FF381899504660F0EBF806994D
:1030D800504660F0E7F80599504660F0E3F8079924
:1030E800504660F0DFF8D5E5B8F1010F03D1B9F12A
:1030F800000F3FF4CEAE0024174D9FED0F7B8DEDF2
:10310800087BB2E70024154DABE7144B204629464F
:103118000022FEF747FA0E9B04460D46002BA0D06E
:10312800CDE90845A1E79FED067B55EC174B8DEDE2
:10313800087B9AE7AFF30080000000000000F0BFB2
:10314800000000000000F03FFFFF0F00FFFFEF7FCF
:103158000000F07F000050390000F03F0000E03F21
:103168000000E07FFFFF9F7C03F15479049B4E46EB
:10317800002BA8D129F00043129A1B0D1B059A4277
:10318800A1D120462946FEF73CFEC9F31306FEF7F7
:10319800DBF90B4602462946204646EA0806FEF7B2
:1031A80049F80E9B04460D461E434BD02EA3D3E987
:1031B8000023FEF769FC00287FF4C5AC20462946A9
:1031C8002BA3D3E90023FEF77DFC00283FF47BAF57
:1031D800B9E4049B13B3129BB3F1D46F1ED82046F5
:1031E800294625A3D3E90023FEF758FC90B12946C8
:1031F8002046FEF7AFFC012838BF0120FEF758F93A
:103208000E9B04460D46D3B901F100431490159363
:10321800DDE9146707F1D663129A9F1A9DED0A0B30
:1032280060F012FB3046394653EC102BFEF7BAF922
:10323800DDE90A23FEF700F88046894696E7CDE9DE
:103248001445E5E70EA3D3E90023FEF71DFCBCE710
:10325800652A3FF443AB452A3FF440AB0123FFF70F
:1032680079BB00BFAFF300809535A094FFFFDF3F27
:1032780035E5AF350000E03F0000C0FFFFFFDF414C
:103288009535A094FFFFCF3F2DE9F04F476A97B0DF
:103298008346209E08910C92129355EC104B8DEDAD
:1032A800000B7FB910205EF05BFD0246CBF82400CE
:1032B80020B9A74BEA21A7485EF00EFDC0E90177C7
:1032C8000760C760DBF82430196859B15A680123D0
:1032D800584693404A608B605FF0E4FFDBF8243087
:1032E80000221A602B1EB7BF23F0004300230122DF
:1032F8000193A8BF3360019F974BB8BF3260BB43AF
:1033080019D142F20F73129A1360C7F313032343C0
:1033180000F0DB85219B53B9904B21E0904B039340
:103328000833219A1360039817B0BDE8F08F8B4BD0
:1033380003930333F5E79DED007B0022002351EC56
:10334800170B8DED0A7BFEF795FB804650B10123E4
:10335800129A1360219B13B1824B219A1360824BFE
:103368000393E0E7C7F30A5614AA15A958469DED3A
:103378000A0B60F0DDFA0290002E76D00B9BA6F2C5
:10338800FF36CDF84C80C3F3130343F07F53DDE9D8
:103398000A0143F4401319460022744BFDF74AFF13
:1033A80065A3D3E90023FEF7FDF865A3D3E900235D
:1033B800FDF742FF04460D463046FEF789F862A342
:1033C800D3E90023FEF7EEF802460B4620462946CD
:1033D800FDF732FF04460D46FEF794FB0022074630
:1033E800002320462946FEF74FFB40B13846FEF73A
:1033F8006FF822462B46FEF73DFB00B9013F162F1A
:1034080052D85B4B03EBC703DDE90A01D3E900237C
:10341800FEF73AFB002849D0013F00231193149B83
:103428009B1B5A1E4CBFC3F101030023079245BFE3
:103438000693002306930793002F39DB079B109709
:103448003B44079300230993089B092B66D8052B57
:10345800C5BF043B002401240893089B023B032BAF
:1034680067D8DFE803F02D3A3859DDE914631E44C4
:1034780006F23243202BC9BFC3F14003C3F1200336
:103488009F4006F21243D8BF04FA03F006F1FF3654
:10349800C4BF24FA03F347EA0300FEF709F8012240
:1034A800A1F1F873139276E70123B7E71190B6E715
:1034B800069BDB1B06937B42099300231093C3E70B
:1034C80000230D930C9B002B56DC012399461A46CA
:1034D80004930C920CE00123F3E700230D930C9B5B
:1034E800FB1803F1010904934B46012BB8BF0123D4
:1034F800DBF824000021042202F114059D423FD983
:10350800416058465FF08EFE039000283BD1194B6E
:1035180002464FF4D571CEE60123DFE701240023EC
:103528000D9408934FF0FF33002299460493122319
:10353800CFE701230D93F5E761436F63A787D23F78
:10354800B3C8608B288AC63FFB799F501344D33F8A
:10355800293B0900403B09000000F07F253B09009A
:103568001C3B0900F93A0900F83A09000000F83F45
:10357800C8A407009C3B09000C9B99460493B7E735
:1035880001315200B8E7DBF82430B9F10E0F039A85
:103598001A606FD8002C6DD0002F36DD07F00F02AF
:1035A800A04BF8054FEA271403EBC20393ED007B09
:1035B8008DED0E7B17D59C4B04F00F044FF00308DC
:1035C800D3E90823DDE90A01FEF716F9CDE9000180
:1035D800954D5CB9DDE90E23DDE90001FEF70CF934
:1035E800CDE900012BE04FF00208F1E7E10709D52A
:1035F80008F10108DDE90E01D5E90023FDF7D2FF46
:10360800CDE90E0164100835E3E700F007817C423C
:10361800844B854D4FF0020804F00F02241103EB90
:10362800C203DDE90A01D3E90023FDF7BBFF00234C
:10363800CDE90001002C40F0E580002BD0D1119B92
:10364800DDE90045002B00F04C810022774B204635
:103658002946FEF719FA002800F04381B9F1000F56
:1036680000F03F81049B002B00F3E480DDE90A347D
:10367800CDE90034159B002B02DB0E2F40F342826C
:103688000D9A002A40F06782099C0025DDF8188011
:10369800B8F1000F0DD0079B002B0ADD4345069AB1
:1036A800A8BF4346D21AA8EB03080692079AD31A72
:1036B8000793099B0BB30D9B002B00F0A682002CEF
:1036C80000F0A1822946224658465FF05FFF029A21
:1036D8000146054658465FF0AFFE02990646584631
:1036E8005FF0E0FD099B1B1B099300F09182099A8A
:1036F800314658465FF04AFF0290012158465FF074
:1037080085FE109B0446002B00F084821A46014671
:1037180058465FF03BFF089B0446012B03DC009BE7
:10372800002B00F07C820026236904EB83031869D0
:1037380075F049FDC0F120001096079B184410F061
:103748001F0000F09182C0F12003042B40F3818216
:10375800C0F11C00069B034480440693079B034466
:103768000793069B002B05DD1A46029958465FF021
:1037780067FF0290079B002B05DD21461A46584635
:103788005FF05EFF0446119B002B00F07682214615
:10379800029875F067FD002880F26F8200230A22E4
:1037A800029958465FF0A0FD0D9B7E1E0290002BEB
:1037B80000F05C82002329460A2258465FF094FDF7
:1037C800049B0546002B03DC089B022B00F35E825A
:1037D800B8F1000F05DD2946424658465FF030FF34
:1037E8000546109B002B00F0D082696858465FF0B0
:1037F80019FD0746002840F07F820D4B024640F233
:10380800EA2158E5E20706D508F10108D5E90023C1
:10381800FDF7C8FE0123641008350BE74FF00208D6
:103828000DE700BFC8A40700A0A407000000F03FF0
:103838009C3B090020460022AC4B2946FDF7B2FE0E
:103848007E1E08F10108049CCDE900014046FDF701
:103858003FFEDDE90023FDF7A5FEA54B0022FDF79D
:10386800EBFCA1F15073CDE90E010F93002C3BD175
:103878000022A04BDDE90001FDF7DCFC02460B4607
:10388800CDE90023DDE90E23FEF71CF9002840F0FE
:103898005781DDE90E2101F10043DDE90001FEF762
:1038A800F3F800283FF4E2AE002425460C9BDDF82F
:1038B8000CA0DE434FF00008214658465FF0F2FCAA
:1038C800002D00F0A980B8F1000F05D0A84503D05D
:1038D800414658465FF0E6FC294658465FF0E2FC50
:1038E8009AE03E464C46B1E7834B03EBC40353E9E9
:1038F8000201039B1C440D9B002B4AD002460B4639
:1039080000207E49FDF778FFDDE90E23FDF792FCE4
:10391800DDF80CA0CDE90E01DDE90001FEF7F2F8B3
:103928000546FDF7D5FD024630350B46DDE90001B9
:10393800FDF780FC0AF8015B02460B46CDE9000161
:10394800DDE90E01FEF7BEF8002865D100206C49BC
:10395800DDE90023FDF76EFC02460B46DDE90E01AA
:10396800FEF7B0F8002840F00D81A24500F0EA808B
:1039780000225E4BDDE90E01FDF714FE00225B4BD1
:10398800CDE90E01DDE90001FDF70CFECDE90001EE
:10399800C2E7DDE90E23FDF705FEA046DDF80CA021
:1039A800CDE90E01DDE90001FEF7ACF80546FDF7AB
:1039B8008FFD024630350B46DDE90001FDF73AFC84
:1039C8000AF8015B02460B46A245CDE900234FF0F9
:1039D800000223D1494BDDE90E01FDF72DFC02461B
:1039E8000B46DDE90001FEF76DF8002840F0CA80BB
:1039F80000204249DDE90E23FDF71CFC02460B4678
:103A0800DDE90001FEF740F870B1C24608F1FF3861
:103A18001AF8013C302BF8D0374655E0334BFDF708
:103A2800C1FDCDE90001BDE7DDE90A34CDE9003487
:103A3800159B002BFFF628AE0E2F3FF725AE2E4B19
:103A480003EBC70393ED007B0C9B002B8DED047BF0
:103A580002DAB9F1000F64D0DDF80CA0DDE9004509
:103A6800DDE9042320462946FDF7C6FEFEF74AF89D
:103A78000646FDF72DFDDDE90423FDF793FD02461B
:103A8800204606F130040B462946FDF7D3FB0AF819
:103A9800014B039C02460B46AAEB0404A14540F0E7
:103AA8008280FDF7C9FB04460D46DDE90423FEF7D5
:103AB80009F8002865D120462946DDE90423FDF7E9
:103AC800D9FF08B1F3075CD4029958465FF0EAFBC6
:103AD800002301378AF80030129B1F60219B002BBE
:103AE8003FF421ACC3F800A01DE400BF000024404F
:103AF80000001C4000001440C8A407000000E03F7C
:103B08000000F03FA24B03EBC70393ED007B0C9B37
:103B1800002B8DED047B9FDAB9F1000F9CDC7FF45C
:103B2800C3AE00229B4BDDE90401FDF73BFDDDE957
:103B38000023FDF7BDFF044600287FF4B5AE3E46DE
:103B48002546B4E0DDE90A34CDE90034159B002BA5
:103B580001DB0E2FD6DD089A012A36DC139A82B3D0
:103B680003F23343099CDDF81880069A0121584670
:103B78001A440692079A1A4407925FF047FC0546D2
:103B880086E53E4653469A4613F8012D392A06D152
:103B9800039A9A42F7D13022039901360A701A78AB
:103BA80001321A7038E700227B4BFDF7FBFC00223C
:103BB800002304460D46FDF75DFF00283FF450AF93
:103BC80082E7149BC3F13603CCE709F1FF34099B64
:103BD800A34208DBB9F1000FA3EB04040EDBDDF808
:103BE80018804B46C1E7099B109AE31A0994DDF83F
:103BF800188000241A444B461092B6E7069BA3EBA4
:103C080009080023B1E7029E71E5099A029970E557
:103C1800029672E5089B012B17DC009BABB9019B50
:103C2800C3F313039BB9019B23F00046360D3605F9
:103C380036B1069B012601330693079B0133079390
:103C4800109B002B7FF470AD1096012075E50026BF
:103C5800F6E73FF486AD1C33069A1A449844069258
:103C6800079A1A4407927CE50346F4E7049B002B65
:103C78002BDC089B022B09DC27E0B9F1000F1DDCC7
:103C8800089B022B1ADD3E46CDF81090049B002BB2
:103C98007FF40CAE2146052258465FF025FB01460D
:103CA8000446029875F0DEFA00287FF7FFADDDF8CC
:103CB8000CA0312301360AF8013BFBE50D9B3E467B
:103CC800CDF81090002B7FF483AD039F2146029816
:103CD80074F0D6FF039B00F13009049A07F8019BA2
:103CE800FB1A9A4240F3CB8000230A2202995846D5
:103CF8005FF0FAFA0290E9E72A6905F10C010C3045
:103D08000232920074F0D7FD0122394658465FF01E
:103D180097FC039BA846054603F1010ADDE9032346
:103D280013440793009B03F0010309930AF1FF333F
:103D380021460298049374F0A3FF4146069000F1CF
:103D48003009029875F08EFA2A46214607465846E9
:103D58005FF0E2FCC268014602B358465FF0A2FA7F
:103D6800002F3ADA0122029958465FF069FC214691
:103D7800029075F077FA002803DC29D119F0010FB9
:103D880026D0B9F1390F1DD132E02846C1E700BF6E
:103D9800C8A4070000001440000024400A900298BC
:103DA80075F060FA0A990C9058465FF07BFA0C9A05
:103DB8005ABB089B53B9099B43B9B9F1390F17D0BE
:103DC800002F05DD069B03F1310901E0002F2ADAF7
:103DD800DDF810A00AF8019B6EE5089B3B4304D16F
:103DE800009B03F00103002BBCD0B9F1390F36D189
:103DF800049F392307F8013BBA46013F1AF8013CF2
:103E0800392B5AD001333B7056E5002F06DB089B4F
:103E18003B4306D1009B03F0010313B9002AA1DC40
:103E2800D6E7002AE1DC079B57460AF8019C534570
:103E38002ED000230A22029958465FF055FAA84569
:103E480002904FF000034FF00A02414658460BD14A
:103E58005FF04AFA804605460AF1010A66E7DDF88E
:103E680010A009F10109B5E75FF03EFA294680463E
:103E780000230A2258465FF037FA0546ECE7049B10
:103E88004FF00008002BCCBF1F460127039B1F449F
:103E98000122029958465FF0D3FB2146029075F043
:103EA800E1F90028A8DC02D119F0010FA4D1BA4623
:103EB80017F8013D302BFAD0FEE4039BBB429BD19F
:103EC8003123039A01361370F6E4219B002B7FF40B
:103ED80025AA014BFFF744BA1C3B0900000000006B
:103EE8009FED010B704700BF000000000000F87F45
:103EF80090B585B000AF4E4B1B6803F00703022B4B
:103F080071D96C4600233B7202237B720122BA727C
:103F18000322FA723B7304237B738CB0EC461CF1CA
:103F280010022DD04FF01A0E2AB1BEF1040F02DD97
:103F3800404BCCF8143000233B7202237B722AB129
:103F4800BEF1080F02DD3C4BCCF818300123BB72E0
:103F58000323FB722AB1BEF10C0F02DD374BCCF8FC
:103F68001C3002233B7304237B73B2B1BEF1100FE4
:103F780002DD334BCCF820300CF1240300210AE099
:103F88006FF0004ED0E701F11000384410F8080C2B
:103F980003F8010B01310529F5D9BEF1190F37DDF9
:103FA8001A234AB10521397100217971B9710321A8
:103FB800F9717868CCF8100000216FF300016FF3F5
:103FC80041016FF382016FF3C501032060F388118B
:103FD800C3F30A0363F353216FF31F5100231448FB
:103FE80010F062FCA546124B1B6803F00703022B76
:103FF80011D8144810F0A0FA044628B90C4B1B68D5
:1040080003F00703022B0CD820461437BD4690BD99
:104018006FF01B03C5E70C4A0321054863F0C9FE8E
:10402800E7E70A4A0321024863F0C3FEECE700BF52
:104038004821002090A5070028A60700DCA5070056
:1040480050A6070074A60700E4A5070000A607000D
:10405800014B1870704700BFD41F002008B10068DA
:10406800704710B5074C40F2D3232246064907484B
:1040780062F0A6FA064862F0A3FA40F2D32120467D
:104088000BF0F0FE78A60700A8A60700BCA607005C
:10409800DCA6070010B582B000238DF80730FFF7C3
:1040A800DDFF04460DF1070004F016FB2378032B0F
:1040B8001CD0062B46D0022B0AD02C4A126812F0CC
:1040C800060F48D02A4A0221284863F07CFE42E0C5
:1040D800264B1B6803F00703022B3CD99DF80730D9
:1040E800244A0321214863F06EFE34E01F4B1B680D
:1040F80003F00703022B19D8606805F0F1FB20B123
:104108001A4B1B6813F0060F16D10221606808F0DD
:104118005FFF0346F8B1154A126812F0070F1AD06C
:10412800154A0121114863F04EFE14E0134A032199
:104138000E4863F03EFEDFE7114A02210B4863F0A8
:1041480038FEE2E7094B1B6803F00703022B04D88B
:10415800606808F021FF02B010BD9DF80730094AD9
:104168000321024863F02FFEF2E700BF7C21002004
:10417800B0A70700F0A6070054A7070018A7070074
:104188002CA7070084A7070010B541F69A12002350
:104198002149224831F07AFF68B10446204B1B6858
:1041A80013F0070F01D1204610BD1E4A01211C48FB
:1041B80063F0FFFDF7E741F69A1200231A491B48FE
:1041C80031F064FF044650B1154B1B6813F0070F1C
:1041D800E9D0174A0121124863F0EBFDE3E741F605
:1041E8009A1200231349144831F050FF044650B185
:1041F8000B4B1B6813F0070FD5D0104A0121084854
:1042080063F0D7FDCFE741F69A1200230C490D4819
:1042180031F03CFFC7E700BF98A0070028A00700BF
:104228007C210020D8A70700B0A0070050A00700F5
:10423800F4A707008CA0070014A0070010A8070027
:10424800A4A007003CA0070010B588B000220023F6
:10425800CDE90623002304930522039202930193D8
:104268000093374B4FF400623649374840F09CFCC6
:10427800364B1860364940F05FFB70B10446354B49
:104288001B6813F0070F02D1204608B010BD324A50
:104298000121304863F08DFDF6E700220023CDE9C7
:1042A80006230023049305220392029301930093AB
:1042B8002A4B4FF400622A492A4840F075FC2A4BE1
:1042C80018602A4940F038FB044650B1214B1B685E
:1042D80013F0070FD8D0264A01211E4863F069FD64
:1042E800D2E700220023CDE9062300230493052208
:1042F80003920293019300931E4B4FF480621E4970
:104308001E4840F051FC1E4B18601E4940F014FB3B
:1043180004460028B8D141F69A1200231A491B48CE
:1043280031F0B4FE04460028AED00A4B1B6813F0E7
:10433800070FA9D0164A0121064863F03AFDA3E702
:10434800CD47000098FB0020002B0020B46A002015
:1043580030A807007C21002040A807005D44000029
:1043680098F30020F8290020B06A002064A807000C
:1043780078A807009D43000098EF0020F02800204F
:10438800AC6A0020A0A80700BCA0070064A0070032
:10439800B8A8070000B585B012E046220092294A65
:1043A8000121294863F01AFD19E04B220092254AA1
:1043B8000121254863F012FD27E0002008F07CFE6B
:1043C8004FF0FF324FF0FF3303A9204831F02EFDA4
:1043D80068B103461C4A126812F0070FDDD10023AA
:1043E80083F31188BFF36F8F0323184602DF40F66B
:1043F800CD42002302A9039831F0CCFC034660B1FA
:10440800114A126812F0070FCFD1002383F31188E5
:10441800BFF36F8F0323184602DF9DF80830012B86
:10442800CBD0022B0AD0084A126812F0060FC7D068
:10443800074A0221044863F0C6FCC1E7002008F0DF
:1044480015FFBDE7DCA807007C210020A4A0070019
:1044580000A9070000B597B023E1D9220092AA4A23
:104468000121AA4863F0BAFC2EE1A94B1B78002B66
:1044780000F017819DF82030012B19D000F02CFF97
:104488000020FFF7E5FD02200AF068FD034600283A
:1044980000F007819D4A126812F0070F0BD1002324
:1044A80083F31188BFF36F8F0323184602DFF8E008
:1044B80000F03AFEE2E7EE220092934A0121934887
:1044C80063F08CFCEBE7924B1B78012B00F0E98042
:1044D8009DF82030012B19D00120FFF7B9FD01F01C
:1044E80017F902200AF002FD0346002800F0D980DF
:1044F800864A126812F0070F0BD1002383F3118844
:10450800BFF36F8F0323184602DFCAE000F014FEE2
:10451800E2E740F2011200927B4A01217B4863F0F6
:104528005DFCEAE7794B1B6813F0060F13D11321E2
:10453800069804F003F90346002800F0B280734A95
:10454800126812F0070F00F0AC80724A01216F4820
:1045580063F039FCA5E0704A02216C4863F029FC3D
:10456800E5E70BA906981EF049FB68B1674B1B6885
:1045780013F0070F01D1002208E0684A01216348BF
:1045880063F017FC002201E0BDF840209DF82030C0
:10459800012B13D014AB15AA9DF82010069808F02B
:1045A800F5FB034648B3594A126812F0060F78D053
:1045B8005B4A0221554863F006FC72E0062AE9D0FE
:1045C8000623ADF80C30ADF80E300023ADF81030EE
:1045D8006423ADF8123003A9069867F025FB03465B
:1045E8000028D7D0494A126812F0060FD2D04D4A97
:1045F8000221464863F0E7FBCCE79DF82030012B09
:1046080017D0022B4DD1149A0021084600F022FE43
:104618000346002845D03D4A126812F0070F27D1FB
:10462800002383F31188BFF36F8F0323184602DF3B
:1046380037E000221599149800F00CFE0346002874
:104648002FD0324A126812F0070F08D1002383F3E3
:104658001188BFF36F8F0323184602DF21E040F271
:104668003B120092284A0121284863F0B7FBEDE786
:1046780040F23F120092244A0121244863F0AEFB25
:10468800CEE700238DF80C308DF82C3003A804F009
:1046980023F89DF82130002B48D19DF80C30002BD1
:1046A80065D04FF0FF324FF0FF33CDE9002305AA64
:1046B80013A91D4831F03AFC70B10346134A126839
:1046C80012F0070F7FF4C9AE002383F31188BFF3FC
:1046D8006F8F0323184602DF9DF814305A1E072AED
:1046E8005CD801A151F822F06B450000A5470000F5
:1046F80073440000CF440000AB460000A54700000B
:104708002D4500008B460000DCA807007C21002016
:10471800D41F002074A9070028A9070090A9070042
:10472800D0A90700A8A90700B0A00700099804F0BD
:1047380031FF0BA804F024FF1E4B1B6803F007038E
:10474800022B09D89DF821209DF82C309A42A4D13B
:10475800002004F01FFFA0E79DF82C309DF82120D1
:104768000092154A0321134863F038FBEAE74FF03B
:1047780080730093002301221946184605F034F887
:10478800034600288DD00B4A126812F0070F88D014
:104798000A4A0121074863F016FB82E7054A1268B6
:1047A80012F0060F3FF47DAF054A0221014863F07D
:1047B8000AFB76E77C210020ECA9070008AA07007D
:1047C80028AA070000B587B04FF0FF324FF0FF333B
:1047D80005A9764831F02AFB68B10346744A126885
:1047E80012F0070F2BD1002383F31188BFF36F8FCB
:1047F8000323184602DF40F6CD42002303A905989B
:1048080031F0C8FA034660B1694A126812F0070F1E
:104818001DD1002383F31188BFF36F8F032318463C
:1048280002DF9DF81030012B19D1039B9A1E042A30
:1048380000F2AF80DFE802F06755219A790069221B
:1048480000925C4A01215A4863F0C8FACBE76E220D
:104858000092584A0121564863F0C0FAD9E7544BF0
:104868001B6813F0060F02D107B05DF804FB524A2B
:1048780002214F4863F09DFAF6E7504B1B7863B16D
:10488800012B1BD04A4A126812F0060F9CD04C4AE2
:104898000221474863F097FA96E7002005F03AFAB4
:1048A8000346002890D0424A126812F0060F8BD0B7
:1048B800444A02213E4863F086FA85E7002005F065
:1048C80013FA034600283FF47FAF394A126812F002
:1048D800060F3FF479AF3C4A0221354863F073FA7A
:1048E80072E760F053FF034600283FF46DAF304A8B
:1048F800126812F0060F3FF467AF344A02212C48C1
:1049080063F061FA60E760F045FF034600283FF472
:104918005BAF274A126812F0060F3FF455AF2C4AD6
:104928000221234863F04FFA4EE7244B1B785BB112
:104938001F4B1B6813F0060F3FF446AF254A0221B0
:104948001B4863F036FA3FE700F038FC03460028BE
:104958003FF43AAF164A126812F0060F3FF434AF2C
:104968001D4A0221124863F02EFA2DE7002004F0B8
:10497800A3FF034600283FF427AF0D4A126812F040
:10498800060F3FF421AF154A0221094863F01BFACC
:104998001AE7074A126812F0060F3FF415AF104ADB
:1049A8000221034863F00FFA0EE700BF98A0070042
:1049B8007C210020DCA8070050AA0700D41F002093
:1049C80090AA070068AA07007CAA0700A8AA0700FF
:1049D800C8AA0700E8AA070000AB070024AB070035
:1049E8003CAB0700014B1878704700BFD41F00206C
:1049F80010B584B0019002918DF80C20164B1B78ED
:104A08000BB104B010BD04AB13E90E00002008F090
:104A1800C7FC044658B1114B1B68834207D010F1FC
:104A28008C0F07D00E4B1B6813F0060F0DD10B4BE4
:104A38001C60E6E70A4B1B6813F0060FF7D0094A1B
:104A48000221074863F0B5F9F1E70346064A022157
:104A5800034863F0B8F9EAE7D41F0020A86A0020E9
:104A68007C21002060AB07007CAB0700F0B585B067
:104A780002AF0BF06FFB68B10346864A126812F06A
:104A8800070F6DD1002383F31188BFF36F8F0323C2
:104A9800184602DFFFF72CFA034660B17D4A126818
:104AA80012F0070F65D1002383F31188BFF36F8FCE
:104AB8000323184602DF03F095FE034660B1754AEA
:104AC800126812F0070F5DD1002383F31188BFF33A
:104AD8006F8F0323184602DF00F02AFF034660B1F8
:104AE8006C4A126812F0070F55D1002383F311881E
:104AF800BFF36F8F0323184602DFFFF7A5FB0546B8
:104B0800002800F08580634B1B6813F0070F72D0F4
:104B18006E4600233B7102237B7188B002AC14F10E
:104B2800100241D00E201AB1042801DD5A4B6361EE
:104B380000233B7002237B70002A38D0082801DD4F
:104B4800564BA36104F11C03002101292FD801F160
:104B5800080CBC441CF808CC03F801CB0131F4E77D
:104B680040F2222200924E4A01214A4863F036F967
:104B780088E740F225220092494A0121454863F01E
:104B88002DF990E74FF40A720092454A01214148F5
:104B980063F024F998E740F22B220092404A012161
:104BA8003C4863F01BF9A0E76FF00040BBE70D2815
:104BB8005FDD0E2342B10321397100217971B9718A
:104BC8000121F9717868206100216FF300016FF30A
:104BD80041016FF382016FF3C501012060F3881171
:104BE800C3F30A0363F353216FF31F5100232948CA
:104BF8000FF05AFEB546274B1B6813F0070F3BD141
:104C0800002383F31188BFF36F8F0323184602DF55
:104C1800FFF7BAFA0546002878D01E4B1B6813F038
:104C2800070F66D06E4600233B7102237B7188B064
:104C380002AC14F1100229D00E201AB1042801DDAB
:104C4800154B636100233B7002237B7062B3082815
:104C580001DD144BA36104F11C030021012923D8B1
:104C680001F1080CBC441CF808CC03F801CB013155
:104C7800F4E76FF01B039DE740F22E2300932B46C9
:104C8800074A0121034863F0A9F8B9E76FF000402B
:104C9800D3E700BF7C21002020640800A8AB0700F0
:104CA800DCA80700D4AB07000D2840F385800E234D
:104CB80042B10321397100217971B9710121F9716A
:104CC8007868206100216FF300016FF341016FF3F1
:104CD80082016FF3C501012060F38811C3F30A0351
:104CE80063F353216FF31F51002351480FF0DCFD8C
:104CF800B5464F4B1B6813F0070F60D1002383F3B1
:104D08001188BFF36F8F0323184602DF02F0F6FF06
:104D1800034660B1464A126812F0070F59D10023C2
:104D280083F31188BFF36F8F0323184602DF04F063
:104D3800EFFD034660B13E4A126812F0070F51D1E9
:104D4800002383F31188BFF36F8F0323184602DF14
:104D580004F0F6FF034660B1354A126812F0070FF7
:104D680049D1002383F31188BFF36F8F03231846BB
:104D780002DF3049002008F08DFB034660B12C4A61
:104D8800126812F0070F3FD1002383F31188BFF395
:104D98006F8F0323184602DF4FF080730093264B72
:104DA80001220021084604F01FFD0446002834D1E2
:104DB80020460C37BD46F0BD6FF01B0378E740F284
:104DC800312300932B461D4A0121194863F006F848
:104DD80094E74FF40D720092184A0121144862F0CA
:104DE800FDFF9CE740F237220092144A0121104847
:104DF80062F0F4FFA4E740F23A2200920F4A012140
:104E08000B4862F0EBFFACE740F23D2200920B4A00
:104E18000121074862F0E2FFB6E7054B1B6813F073
:104E2800070FC5D0064A0121014862F0C2FFBFE75B
:104E38007C210020E175000000AC0700DCA8070019
:104E480014AC0700054B01221A700021D9719A7120
:104E58005A7102225A751A75704700BFEC6A002011
:104E68002DE9F041ADF54A7D02AF0026C7F814637D
:104E7800B0E0002383F31188BFF36F8F0323184634
:104E880002DF07F5487303EB84059B4B1A6855F856
:104E9800481C07F1F80303EB441073F00CFD55F8B8
:104EA800481C964836F006FA01340E2C1DDC4FF0EB
:104EB800FF324FF0FF33CDE900238F4A07F53673F1
:104EC80003EB84018D4836F0C1F903460028D8D099
:104ED8008B4A126812F0070FCBD08C220092894AB5
:104EE8000121874862F07AFFC3E7874B1B7B002BC1
:104EF80061D0864B1B68002B76D107F54573844A31
:104F08004FF4F07107F1F80001F0CAFF04460028D9
:104F180051D07B4B1B6813F0070F3FD06D46002321
:104F28003B7202237B7288B00DF1080C1CF1100251
:104F380000F09D800E2022B1042802DD754BCCF8CC
:104F4800143000233B7102237B71002A40F09280C9
:104F58000D2840F3A2800E234AB1032139720021A3
:104F68007972B9720121F972B868CCF810006FF340
:104F780000086FF341086FF382086FF3C508012139
:104F880061F38818C3F30A0363F353286FF31F58B8
:104F9800002341465A480FF087FCAD46584B1B6822
:104FA80013F0070F7CD1002383F31188BFF36F8FB1
:104FB8000323184602DFB6F57A7F7AD00136524BC2
:104FC8001B7B3BB1504B5A7DD7F81413504B1868D4
:104FD800FFF70EFD4FF0FF324FF0FF3301214E482F
:104FE80042F0AAFA002460E74C4A00924C4AF021A9
:104FF80007F1080035F07CFE034660B1404A1268AC
:1050080012F0070F23D1002383F31188BFF36F8FAA
:105018000323184602DF3B1D009307F1F803102213
:10502800F02107F108006DF027FB034600283FF444
:1050380064AF334A126812F0070F10D1002383F3CC
:105048001188BFF36F8F0323184602DF55E79B22B1
:1050580000922C4A01212A4862F0C0FED3E7A02220
:105068000092284A0121264862F0B8FEE6E76FF070
:10507800004060E7082802DD2A4BCCF818300CF114
:105088001C03002101293FF663AF07F1040E1EF847
:1050980001E003F801EB0131F4E76FF01B035BE774
:1050A800A62300932346174A0121154862F096FE6D
:1050B80079E707F5467207F54771104836F022F987
:1050C800064600283FF47BAF0D4B1B6813F0070F13
:1050D80008D1002686F31188BFF36F8F0323184683
:1050E80002DF6CE7AD2300930346064A012104481A
:1050F80062F074FEEDE700BFC06A00204C08002093
:1051080068200020DCA80700EC6A0020C86A00209C
:10511800B86A00202064080038080020BC6A002013
:10512800CC6A002038AC070008B50021014842F0DD
:1051380077FB08BD0C6B002008B5024872F024F913
:1051480008BD00BF0C6B002010B9184B18607047E1
:1051580000B583B0B7EE000A4FF47A5382B2134910
:10516800134835F06DFE034660B1124A126812F01A
:10517800070F0FD1002383F31188BFF36F8F032329
:10518800184602DF094B1B68202B0BD8002003B000
:105198005DF804FBD4220092074A0121054862F019
:1051A8001DFEE7E76FF00B00F1E700BFC86A0020BB
:1051B800CC6A002068200020DCA8070010B5204B2E
:1051C8001B68A3B91E4B4FF47A721A601C4B1B68FC
:1051D800F3B11C4A126802F00702022A12D8184BCF
:1051E8001868FFF7B1FF0446F0B9204610BDB3F5C3
:1051F8007A6F03D3124B00221A60E7E75B00104A6C
:105208001360E3E7104A03210E4862F0DCFDE6E78D
:105218000C4B1B6803F00703022BE0D90B4A032150
:10522800084862F0C6FDDAE7064B1B6813F0070F63
:10523800DBD0074A0121034862F0BBFDD5E700BF78
:10524800C46A00206820002048AC070060AC070052
:1052580070AC070070B505460E46144660F03FFA7C
:1052680080B11A4B9D61204660F039FAD8B1174BCE
:1052780001221A719C603EB3144B01221A731E61FD
:10528800002022E0002DEED0114B1B6813F0070F11
:1052980002D16FF0150018E02B460E4A01210C4888
:1052A80062F091FDF5E7002CE5D0094B1B6813F07F
:1052B800070F02D16FF0150007E02346054A0121C8
:1052C800034862F080FDF5E7002070BDEC6A00201D
:1052D8006820002090AC0700F0B58BB008AFFFF74E
:1052E800B1FD9B4B93F86430002B44D0994B93F855
:1052F8006430002B00F0B380974C04F110030FCBFF
:105308008DE80F0094E80F0002F06AF805460028BF
:1053180000F06181914B1B6813F0070F00F04E817C
:105328006E4600233B7102237B7188B0344616F128
:10533800100200F009810E201AB1042801DD884B03
:10534800636100233B7002237B70002A00F0128106
:10535800082801DD834BA36104F11C030021012906
:1053680000F2088101F1080CBC441CF808CC03F8D1
:1053780001CB0131F3E7764836F046F805460028B8
:10538800B4D0764B1B6813F0070F4DD06E46002340
:105398003B7102237B7188B0344616F1100212D09B
:1053A8000E201AB1042801DD6D4B636100233B70A8
:1053B80002237B70A2B1082801DD6B4BA36104F1C5
:1053C8001C0300210AE06FF00040EAE701F1080C35
:1053D800BC441CF808CC03F801CB01310129F5D9EC
:1053E8000D282FDD0E2342B1032139710021797177
:1053F800B9710121F9717868206100216FF300010A
:105408006FF341016FF382016FF3C501012060F36F
:105418008811C3F30A0363F353216FF31F51002369
:105428004E480FF041FAB5464C4B1B6813F0070F76
:105438000BD1002383F31188BFF36F8F0323184622
:1054480002DF53E76FF01B03CDE740F281130093AF
:105458002B46464A0121414862F0C0FCE9E73D4835
:1054680035F0D2FF054600283FF446AF3B4B1B689A
:1054780013F0070F4DD06E4600233B7102237B715A
:1054880088B0344616F1100212D00E201AB1042842
:1054980001DD334B636100233B7002237B70A2B1B3
:1054A800082801DD324BA36104F11C0300210AE046
:1054B8006FF00040EAE701F1080CBC441CF808CC86
:1054C80003F801CB01310129F5D90D282FDD0E2371
:1054D80042B10321397100217971B9710121F97142
:1054E8007868206100216FF300016FF341016FF3C9
:1054F80082016FF3C501012060F38811C3F30A0329
:1055080063F353216FF31F51002314480FF0CCF9B4
:10551800B546124B1B6813F0070F0BD1002383F31A
:105528001188BFF36F8F0323184602DFE4E66FF09C
:105538001B03CDE74FF4C37300932B460B4A01219D
:10554800064862F04BFCE9E76FF00040F4E600BF64
:10555800B40800204C080020EC6A002068200020D5
:1055680020640800E8AC0700B0AC0700DCA807001E
:10557800CCAC07000D285DDD0E2342B10321397143
:1055880000217971B9710121F971786820610021D0
:105598006FF300016FF341016FF382016FF3C501EF
:1055A800012060F38811C3F30A0363F353216FF3F7
:1055B8001F51002347480FF077F9B546454B1B6844
:1055C80013F0070F39D1002383F31188BFF36F8FCE
:1055D8000323184602DF404B01221A771B7B1BB1BD
:1055E8003E4B1B68002B32D00AF00EF9034660B11F
:1055F800384A126812F0070F5AD1002383F3118832
:10560800BFF36F8F0323184602DF354801F0AEFB66
:10561800034660B12F4A126812F0070F51D10023D8
:1056280083F31188BFF36F8F0323184602DF0C370B
:10563800BD46F0BD6FF01B039FE74FF4C5730093A1
:105648002B46284A0121234862F0C8FBBBE7002209
:105658000023CDE906230023049303220392029337
:1056680001930093204B42F6F822204920483FF04E
:105678009BFA1A4B18601F493FF05EF90346002851
:10568800B2D0144A126812F0070F08D1002383F32E
:105698001188BFF36F8F0323184602DFA4E74FF486
:1056A800CA7200920F4A01210A4862F097FBEDE79F
:1056B8004FF4CE7200920B4A0121064862F08EFB2D
:1056C8009BE740F29F120092064A0121014862F0CE
:1056D80085FBA4E768200020EC6A00201C6B0020F2
:1056E8004C080020DCA80700694E00009803012040
:1056F800082C002000AD070010B50446FFF7ECFDAC
:105708000249204663F055F9002010BD08AD070096
:10571800F0B587B004AF644B1B7F5BB9634B1B6864
:1057280013F0060F00F0B080614A02215F4862F072
:1057380040FBA9E00AF09EF8034660B15B4A126894
:1057480012F0070F51D1002383F31188BFF36F8F35
:105758000323184602DF01F04BFB034660B1534AAE
:10576800126812F0070F49D1002383F31188BFF3A1
:105778006F8F0323184602DF4B4C04F110030FCB45
:105788008DE80F0094E80F0001F0B6FD05460028EB
:1057980071D0464B1B6813F0070F5FD06E4600238D
:1057A8003B7102237B7188B004AC14F110022ED037
:1057B8000E201AB1042801DD3E4B636100233B70C3
:1057C80002237B7032B3082801DD3B4BA36104F14F
:1057D8001C03002101291DD801F1080CBC441CF848
:1057E80008CC03F801CB0131F4E74FF4D9720092E9
:1057F800324A01212D4862F0F1FAA4E740F2B512CD
:1058080000922E4A0121294862F0E8FAACE76FF0CD
:105818000040CEE70D283ADD0E2342B1032139714D
:1058280000217971B9710121F9717868206100212D
:105838006FF300016FF341016FF382016FF3C5014C
:10584800012060F38811C3F30A0363F353216FF354
:105858001F51002315480FF027F8B546134B1B6856
:1058680013F0070F16D1002383F31188BFF36F8F4E
:105878000323184602DF0C4B00221A77104835F034
:1058880079FD104835F076FD0C37BD46F0BD6FF058
:105898001B03C2E740F2B91300932B46074A0121C4
:1058A800024862F09BFADEE7EC6A002068200020DC
:1058B80020AD0700206408003CAD0700DCA8070005
:1058C8004C080020B408002010B50446FFF720FF5C
:1058D8000249204663F06DF8002010BD54AD070062
:1058E80010B584B000220023CDE9002302AA03A941
:1058F8000C4835F0ABFC38B904460399094835F033
:10590800D9FC204604B010BD074B1B6813F0060FE6
:1059180002D16FF08B04F4E7044A0221024862F0D6
:1059280048FAF6E74C080020682000206CAD070014
:1059380010B501F077FA70B10446114B1B6813F0EB
:10594800070F01D1204610BD03460E4A01210C481D
:1059580062F039FAF6E709F09DFF044658B1084BA2
:105968001B6813F0070FEDD00346074A01210448CE
:1059780062F029FAE6E7054871F001FDE2E700BFA9
:10598800682000208CAD0700B4AD07000C6B002028
:10599800084AB2F88E35B2F88C05834205D38342A3
:1059A80005D9C3F5967318447047C01A704700208C
:1059B800704700BF1C9600200C4B93F8403033B959
:1059C8000A4B012283F84020036000207047074BF0
:1059D80093F841303BB9054B012283F8412020332D
:1059E8000360002070476FF00B007047947400202C
:1059F800074B984203D0074B984204D070470022C7
:105A080083F840207047203B002283F84120F5E7C7
:105A180094740020B4740020034B002283F84020C3
:105A280083F84120704700BF9474002008B5002116
:105A3800034B19704FF4A072024872F063FF08BD5F
:105A480061EF0020DC74002008B502483EF0BAFA85
:105A580008BD00BF2409002008B10068704710B5D0
:105A6800074C40F2D32322460649074860F0A8FDB8
:105A7800064860F0A5FD40F2D32120460AF0F2F96D
:105A880078A60700A8A60700BCA60700DCA60700A2
:105A980008B5401A63EB0303144A904273F1FF32CE
:105AA80002DA013843F1000311490A6801320A6039
:105AB800B0F5FA7043F1FF3341F28932904273F145
:105AC800000300D208BDFFF70BFF18B9084B0022EE
:105AD8001A60F7E7074B1B6813F0060FF2D0064A67
