:020000040000FA
:1000000068D00120C950010007650500B550010006
:10001000B5500100B5500100B5500100B5500100C8
:100020000000000000000000000000001553010067
:10003000B55001000000000085520100B5500100DC
:100040009155010091550100915501009155010014
:100050009155010091550100915501009155010004
:1000600091550100915501009155010091550100F4
:1000700091550100915501009155010091550100E4
:1000800091550100915501009155010091550100D4
:1000900091550100915501009155010091550100C4
:1000A00091550100915501009155010091550100B4
:1000B00091550100915501009155010091550100A4
:1000C0009155010091550100915501009155010094
:1000D0009155010091550100915501009155010084
:1000E0009155010091550100915501009155010074
:1000F0009155010091550100915501009155010064
:100100009155010091550100915501009155010053
:100110009155010091550100915501009155010043
:100120009155010091550100915501009155010033
:100130009155010091550100915501009155010023
:100140009155010091550100915501009155010013
:0401500091550100C4
:1001580081F0004102E000BF83F0004330B54FEA70
:1001680041044FEA430594EA050F08BF90EA020FDD
:100178001FBF54EA000C55EA020C7FEA645C7FEA70
:10018800655C00F0E2804FEA5454D4EB5555B8BF93
:100198006D420CDD2C4480EA020281EA030382EA04
:1001A800000083EA010180EA020281EA0303362D96
:1001B80088BF30BD11F0004F4FEA01314FF4801C69
:1001C8004CEA113102D0404261EB410113F0004F7B
:1001D8004FEA03334CEA133302D0524263EB430332
:1001E80094EA050F00F0A780A4F10104D5F1200ED0
:1001F8000DDB02FA0EFC22FA05F2801841F100012B
:1002080003FA0EF2801843FA05F359410EE0A5F1FE
:1002180020050EF1200E012A03FA0EFC28BF4CF02F
:10022800020C43FA05F3C01851EBE37101F00045E5
:1002380007D54FF0000EDCF1000C7EEB00006EEBF2
:100248000101B1F5801F1BD3B1F5001F0CD349087C
:100258005FEA30004FEA3C0C04F101044FEA4452D3
:1002680012F5800F80F09A80BCF1004F08BF5FEA5A
:10027800500C50F1000041EB045141EA050130BD3A
:100288005FEA4C0C404141EB0101013C28BFB1F54C
:10029800801FE9D291F0000F04BF01460020B1FA97
:1002A80081F308BF2033A3F10B03B3F120020CDA6A
:1002B8000C3208DD02F1140CC2F10C0201FA0CF048
:1002C80021FA02F10CE002F11402D8BFC2F1200CAD
:1002D80001FA02F120FA0CFCDCBF41EA0C01904063
:1002E800E41AA2BF01EB0451294330BD6FEA0404AC
:1002F8001F3C1CDA0C340EDC04F11404C4F1200297
:1003080020FA04F001FA02F340EA030021FA04F3A8
:1003180045EA030130BDC4F10C04C4F1200220FAFF
:1003280002F001FA04F340EA0300294630BD21FA3D
:1003380004F0294630BD94F0000F83F4801306BF03
:1003480081F480110134013D4EE77FEA645C18BFF7
:100358007FEA655C29D094EA050F08BF90EA020F8E
:1003680005D054EA000C04BF1946104630BD91EA86
:10037800030F1EBF0021002030BD5FEA545C05D189
:100388004000494128BF41F0004130BD14F58004C8
:100398003CBF01F5801130BD01F0004545F0FE413C
:1003A80041F470014FF0000030BD7FEA645C1ABF71
:1003B800194610467FEA655C1CBF0B46024650EAA8
:1003C800013406BF52EA033591EA030F41F40021D4
:1003D80030BD00BF90F0000F04BF0021704730B55A
:1003E8004FF4806404F132044FF000054FF000012F
:1003F80050E700BF90F0000F04BF0021704730B5F0
:100408004FF4806404F1320410F0004548BF4042C4
:100418004FF000013EE700BF42004FEAE2014FEA19
:1004280031014FEA02701FBF12F07F4393F07F4FF4
:1004380081F06051704732F07F4208BF704793F0F7
:100448007F4F04BF41F40021704730B54FF460740A
:1004580001F0004521F000411CE700BF50EA01020D
:1004680008BF704730B54FF000050AE050EA0102B6
:1004780008BF704730B511F0004502D5404261EB26
:1004880041014FF4806404F132045FEA915C3FF467
:10049800D8AE4FF003025FEADC0C18BF03325FEA04
:1004A800DC0C18BF033202EBDC02C2F1200300FAB5
:1004B80003FC20FA02F001FA03FE40EA0E0021FADA
:1004C80002F11444BDE600BF70B54FF0FF0C4CF4C8
:1004D800E06C1CEA11541DBF1CEA135594EA0C0F7A
:1004E80095EA0C0F00F0DEF82C4481EA030621EAB5
:1004F8004C5123EA4C5350EA013518BF52EA0335F0
:1005080041F4801143F4801338D0A0FB02CE4FF0A1
:100518000005E1FB02E506F00042E0FB03E54FF0D1
:100528000006E1FB03569CF0000F18BF4EF0010EC9
:10053800A4F1FF04B6F5007F64F5407404D25FEAC5
:100548004E0E6D4146EB060642EAC62141EA555178
:100558004FEAC52040EA5E504FEACE2EB4F1FD0CBA
:1005680088BFBCF5E06F1ED8BEF1004F08BF5FEA38
:10057800500E50F1000041EB045170BD06F00046EA
:1005880046EA010140EA020081EA0301B4EB5C0497
:10059800C2BFD4EB0C0541EA045170BD41F480118F
:1005A8004FF0000E013C00F3AB8014F1360FDEBFB4
:1005B800002001F0004170BDC4F10004203C35DA90
:1005C8000C341BDC04F11404C4F1200500FA05F313
:1005D80020FA04F001FA05F240EA020001F00042B4
:1005E80021F0004110EBD37021FA04F642EB06012A
:1005F8005EEA430E08BF20EAD37070BDC4F10C0454
:10060800C4F1200500FA04F320FA05F001FA04F217
:1006180040EA020001F0004110EBD37041F1000103
:100628005EEA430E08BF20EAD37070BDC4F120050E
:1006380000FA05F24EEA020E20FA04F301FA05F276
:1006480043EA020321FA04F001F0004121FA04F21E
:1006580020EA020000EBD3705EEA430E08BF20EAEE
:10066800D37070BD94F0000F0FD101F00046400028
:1006780041EB010111F4801F08BF013CF7D041EAAA
:10068800060195F0000F18BF704703F000465200AE
:1006980043EB030313F4801F08BF013DF7D043EA7F
:1006A8000603704794EA0C0F0CEA135518BF95EA35
:1006B8000C0F0CD050EA410618BF52EA4306D1D1BC
:1006C80081EA030101F000414FF0000070BD50EADB
:1006D800410606BF1046194652EA430619D094EA65
:1006E8000C0F02D150EA013613D195EA0C0F05D14F
:1006F80052EA03361CBF104619460AD181EA0301A3
:1007080001F0004141F0FE4141F470014FF000005A
:1007180070BD41F0FE4141F4780170BD70B54FF0F5
:10072800FF0C4CF4E06C1CEA11541DBF1CEA135575
:1007380094EA0C0F95EA0C0F00F0A7F8A4EB050457
:1007480081EA030E52EA03354FEA013100F088804E
:100758004FEA03334FF0805545EA131343EA126317
:100768004FEA022245EA111545EA10654FEA0026CC
:100778000EF000419D4208BF964244F1FD0404F585
:10078800407402D25B084FEA3202B61A65EB0305E1
:100798005B084FEA32024FF480104FF4002CB6EB9E
:1007A800020E75EB030E22BFB61A754640EA0C001E
:1007B8005B084FEA3202B6EB020E75EB030E22BF5E
:1007C800B61A754640EA5C005B084FEA3202B6EB9F
:1007D800020E75EB030E22BFB61A754640EA9C005E
:1007E8005B084FEA3202B6EB020E75EB030E22BF2E
:1007F800B61A754640EADC0055EA060E18D04FEAEC
:10080800051545EA16754FEA06164FEAC30343EA8B
:1008180052734FEAC2025FEA1C1CC0D111F4801F58
:100828000BD141EA00014FF000004FF0004CB6E751
:1008380011F4801F04BF01430020B4F1FD0C88BFF0
:10084800BCF5E06F3FF6AFAEB5EB030C04BFB6EBFB
:10085800020C5FEA500C50F1000041EB045170BDEE
:100868000EF0004E4EEA113114EB5C04C2BFD4EB1B
:100878000C0541EA045170BD41F480114FF0000E9F
:10088800013C90E645EA060E8DE60CEA135594EA1B
:100898000C0F08BF95EA0C0F3FF43BAF94EA0C0F1E
:1008A8000AD150EA01347FF434AF95EA0C0F7FF493
:1008B80025AF104619462CE795EA0C0F06D152EAE7
:1008C80003353FF4FDAE1046194622E750EA4106CB
:1008D80018BF52EA43067FF4C5AE50EA41047FF4DC
:1008E8000DAF52EA43057FF4EBAE12E74FF0FF3C41
:1008F80006E000BF4FF0010C02E000BF4FF0010C12
:100908004DF804CD4FEA410C7FEA6C5C4FEA430C8A
:1009180018BF7FEA6C5C1BD001B050EA410C0CBFD9
:1009280052EA430C91EA030F02BF90EA020F00203B
:10093800704710F1000F91EA030F58BF994208BFA2
:1009480090422CBFD8176FEAE37040F0010070475F
:100958004FEA410C7FEA6C5C02D150EA013C07D1B6
:100968004FEA430C7FEA6C5CD6D152EA033CD3D001
:100978005DF8040B704700BF8446104662468C46FB
:100988001946634600E000BF01B5FFF7B7FF00282E
:1009980048BF10F1000F01BD4DF808EDFFF7F4FF57
:1009A8000CBF012000205DF808FB00BF4DF808EDE2
:1009B800FFF7EAFF34BF012000205DF808FB00BF05
:1009C8004DF808EDFFF7E0FF94BF012000205DF827
:1009D80008FB00BF4DF808EDFFF7CEFF94BF0120DC
:1009E80000205DF808FB00BF4DF808EDFFF7C4FFD5
:1009F80034BF012000205DF808FB00BF4FEA410C1E
:100A08007FEA6C5C02D150EA013C0AD14FEA430C00
:100A18007FEA6C5C02D152EA033C02D14FF000003D
:100A280070474FF0010070474FEA410212F500127B
:100A380015D211D56FF47873B3EB625212D94FEA1D
:100A4800C12343F0004343EA505311F0004F23FA07
:100A580002F018BF404270474FF00000704750EA5C
:100A6800013005D111F0004008BF6FF00040704719
:100A78004FF00000704700BF4A0011D212F5001273
:100A880011D20DD56FF47873B3EB62520ED44FEADE
:100A9800C12343F0004343EA505323FA02F070475E
:100AA8004FF00000704750EA013002D14FF0FF309C
:100AB80070474FF0000070474FEA4102B2F1E0433F
:100AC80024BFB3F5001CDCF1FE5C0DD901F0004C2D
:100AD8004FEAC0024CEA5070B2F1004F40EB83007D
:100AE80008BF20F00100704711F0804F21D113F1A9
:100AF8003872BCBF01F00040704741F480114FEAE2
:100B08005252C2F11802C2F1200C10FA0CF320FA6A
:100B180002F018BF40F001004FEAC1234FEAD32387
:100B280003FA0CFC40EA0C0023FA02F34FEA4303F1
:100B3800CCE77FEA625307D150EA01331EBF4FF07A
:100B4800FE4040F44000704701F0004040F0FE4095
:100B580040F40000704700BF7BB972B90029BEBFDE
:100B680000204FF0004106E008BF00281CBF6FF0CE
:100B780000414FF0FF3000F075B8ADF1080C6DE999
:100B880004CE002909DB002B1ADB00F0E3F8DDF8BE
:100B980004E0DDE9022304B07047404261EB410103
:100BA800002B1BDB00F0D6F8DDF804E0DDE90223BA
:100BB80004B0404261EB4101524263EB430370478A
:100BC800524263EB430300F0C5F8DDF804E0DDE9C9
:100BD800022304B0404261EB41017047524263EB8B
:100BE800430300F0B7F8DDF804E0DDE9022304B0C0
:100BF800524263EB4303704753B94AB9002908BF0F
:100C080000281CBF4FF0FF314FF0FF3000F02AB82A
:100C1800ADF1080C6DE904CE00F09CF8DDF804E0B5
:100C2800DDE9022304B07047D0B500220B4B06461D
:100C38000F46FFF749FCFFF71FFF0446FFF7CAFB03
:100C48000022074BFFF740FC02460B463046394668
:100C5800FFF782FAFFF710FF2146D0BD0000F03DF4
:100C68000000F041704700BF70B4840746D04C1EA6
:100C7800002941D0D5B2034602E0611EE4B30C4618
:100C880003F8015B9907F8D1032C2ED9D5B245EAB0
:100C980005250F2C45EA054519D9264603F110010B
:100CA800103E0F2E41F8105C41F80C5C41F8085CCE
:100CB80041F8045C01F11001F2D8A4F1100121F00F
:100CC8000F0104F00F041031032C0B440DD91E46FC
:100CD80021460439032946F8045BFAD8211F21F07C
:100CE800030104310B4404F003042CB1D2B21C44B8
:100CF80003F8012BA342FBD170BC70470C46034696
:100D0800C2E710F8012B11F8013B012A28BF9A42CB
:100D1800F7D0D01A7047034613F8012B002AFBD1ED
:100D2800181A0138704738B50022002304460D46CA
:100D3800FFF73CFE28B920462946BDE83840FFF7B2
:100D480073BF204605F10041FFF76EFF404261EB9B
:100D5800410138BD2DE9F04786468C460846089E75
:100D6800154674461946002B40F0C1808542B2FAF8
:100D780082F245D94AB1C2F1200300FA02FC95403B
:100D880094402EFA03F343EA0C0C4FEA154EA8B22E
:100D9800230CBCFBFEF80EFB18CC08FB00F943EA59
:100DA8000C43994528D9EB1808F1FF3704D2994527
:100DB80002D9A8F102072B44A3EB0903A4B2B3FBA1
:100DC800FEFC0EFB1C330CFB00F044EA0344A0427B
:100DD80014D92C190CF1FF3304D2A04202D9ACF17A
:100DE80002032C44241A43EA07401EB1D4400023CE
:100DF80034607360BDE8F0874746DDE76346F1E796
:100E080092BB431B01214FEA154EAFB2200CB3FB36
:100E1800FEFC0EFB1C330CFB07F840EA0343984525
:100E280061D9EB180CF1FF3004D2984502D9ACF126
:100E380002002B44A3EB0803A4B2B3FBFEFC0EFB99
:100E48001C330CFB07F744EA0344A7424DD92C197D
:100E58000CF1FF3304D2A74202D9ACF102032C44AF
:100E6800E41B43EA0040C0E7C2F1200395409440E8
:100E780020FA03F12EFA03F34FEA154E9040AFB271
:100E88000343B1FBFEFC0EFB1C10190C0CFB07F80E
:100E980041EA0041884522D969180CF1FF3004D293
:100EA800884502D9ACF102002944A1EB08019BB2A4
:100EB800B1FBFEFC0EFB1C110CFB07F743EA0143D8
:100EC8009F420ED9EB180CF1FF3104D29F4202D990
:100ED800ACF102012B44DB1B41EA004193E7604679
:100EE800E3E76146F7E76046A4E76346B8E783426D
:100EF80006D916B9002108467CE7C6E900E0F9E7FB
:100F0800B3FA83F78FB9834201D3724508D8BEEB91
:100F1800020460EB030301209C461EB9002169E727
:100F28003846FAE7C6E9004CF8E7C7F1200CBB40A1
:100F38000EFA07F522FA0CF42EFA0CF1BA401C430B
:100F480020FA0CF3B8404FEA144901431FFA84FE13
:100F5800B3FBF9F809FB18300B0C08FB0EFA43EA4F
:100F680000439A4540D9E31808F1FF3004D29A4566
:100F780002D9A8F102002344A3EB0A0389B2B3FB08
:100F8800F9F809FB183308FB0EFE41EA03418E45C8
:100F98002CD9611808F1FF3304D28E4502D9A8F183
:100FA8000203214443EA0040A1EB0E01A0FB029892
:100FB8004145CE46434602D306D14D4504D20138B9
:100FC800B9EB020E68EB0403002EA7D0B5EB0E02B6
:100FD80061EB030101FA0CFC22FA07F3F9404CEA31
:100FE8000303C6E9003199E74046C5E74346D9E718
:100FF80010B584460C460C48ACFB000108A3D3E9A5
:1010080000234FF0070E0EFB0C11FFF7F5FD074B01
:101018001B68074A02FB0300204410BDAFF30080A1
:1010280000CA9A3B000000008D49FD1A0003012008
:101038000080841E000000002DE9F04D2DED028B8C
:1010480088B000AF054640688368DB683C21984754
:10105800041EC0F23381686883681B6907F11802AF
:101068001F219847041EC0F22981686883681B699C
:1010780007F1100221219847041EC0F21F816868F9
:1010880083681B6907F1080222219847041EC0F2F1
:101098001581914B1B6803F00703022B40F2158161
:1010A8002E68B869FFF7A6F904460D46F869FFF7F8
:1010B800A1F987A3D3E90023FFF730FB02460B46CB
:1010C80020462946FFF74AF800220023FFF746F892
:1010D80041EC180B3869FFF78DF904460D4678691D
:1010E800FFF788F97AA3D3E90023FFF717FB024635
:1010F8000B4620462946FFF731F80022774BFFF7C9
:10110800E3F900220023FFF729F882468B46B868E6
:10111800FFF770F904460D46F868FFF76BF96CA302
:10112800D3E90023FFF7FAFA02460B462046294680
:10113800FFF714F80022694BFFF7C6F900220023D5
:10114800FFF70CF841EC170B6D4600233B710223A7
:101158007B711C230C2213F0070F02D108320833CD
:1011680004E004320433F6E70432043313F0070FC3
:10117800FAD10832083301E00432043313F00704CB
:10118800FAD102F10A0C6346213222F00702ADEBD4
:10119800020D6A46BCF1000F7AD002F11008BCF1CA
:1011A800030F73D9B8F1000F04D0BCF1040F01DDAF
:1011B8004B4B536100233B7002237B70B8F1000F47
:1011C80003D0BCF1080F00DD96611C210C200B46F2
:1011D80011F0070F0DD18646B8F1000F05D0604514
:1011E80003DA08EB000181ED008B0EF1080E0833DD
:1011F80005E004300431EAE70EF1040E0433194621
:1012080013F0070FF8D17646B8F1000F05D0E64580
:1012180003DA08EB0E03C3E900AB083601F1080353
:1012280001E00436043313F0070FFAD13346B8F15E
:10123800000F05D0664503DA08EB060181ED007B57
:1012480003F108060A33B8F1000F0DD008EB0601C8
:10125800002007E000F1200EBE441EF820EC01F843
:1012680001EB01300128F5D99C4501DA6FF01B0329
:10127800B8F1000F0CD0C6F387063E7100217971D2
:10128800B9710121F9717868106101E06FF01B03F1
:1012980000216FF300016FF341016FF382016FF3D7
:1012A800C501032060F3881163F353216FF31F51C5
:1012B8001032002308480EF0E3FEAD4620462037E2
:1012C800BD46BDEC028BBDE8F08D0024F6E700BFFB
:1012D8000000000080842E41D015002000408F407F
:1012E800A0840600000000002DE9F04F8DB00990A1
:1012F8000D46174661F06FFE4B0143EAD063440187
:10130800241A63EB01039B0043EA9473A400241896
:1013180043EB0101C90041EA5471C4F3103444EAB3
:1013280041444FEAD139012D65D07D6829463C48B2
:10133800FFF7E7FC28B129463A48FFF7E2FC002806
:1013480061D135A3D3E9002320464946FFF704FCC1
:1013580080460A9130A3D3E9002320464946FFF787
:10136800FBFB15461C46304A002328462146FFF75A
:10137800F3FB06460F462C4A002328462146FFF772
:10138800EBFB15461C464EF66022002328462146F4
:10139800FFF7E2FB81460B914EF6602200232846B8
:1013A8002146FFF7D9FB15461C464FF47A720023F5
:1013B80028462146FFF7D0FB83468A464FF47A72C7
:1013C800002328462146FFF7C7FBCDE90623CDF8C1
:1013D80010B0CDF814A0CDF808900B9A039200969F
:1013E800019742460A9B1149099853F09BFD00203A
:1013F8000DB0BDE8F08F22464B460D49099853F0D1
:1014080091FD0020F4E72A460A49099853F099FD0E
:101418006FF00400ECE700BF005C26050000000048
:10142800989806009C98060080EE3600C098060042
:1014380084980600A898060010B5082140F60140D7
:1014480017F09AF9D8B1044608210C3015F048F97C
:1014580002460F4B93F8903013F0010F0BD10D4853
:101468004FF0005156F054FB0022214640F601404F
:1014780017F0C2FD10BD04A1D1E90001F2E76FF039
:101488006800F7E7AFF30080908800020080002032
:10149800E00400201088000230B589B00C9D0028B7
:1014A8003FD00446002949D0D0F8200110F0010FA0
:1014B80051D10020C4F80801C4F80C0104F5887063
:1014C800C4F81001C4F8140104F58C70C4F81801AC
:1014D800C4F81C01002D4BD0287900284AD10120DE
:1014E800C4F820019FED267B8DED067B002004903B
:1014F8000393029001900094234B204635F0AEFDF3
:1015080055B1296811B1204635F062FC6B791BB1E1
:10151800237B43F001032373204661F004FC09B0E8
:1015280030BD1A4C40F2DF2322461949194852F0BF
:10153800F8F940F2DF2120460AF02CFA134C4FF458
:10154800387322461449134852F0EBF94FF43871B6
:1015580020460AF01FFA0D4C40F2E12322460F49BB
:101568000C4852F0DEF940F2E12120460AF012FA66
:101578000120B5E740F20110B2E700BFAFF30080E9
:10158800FFFFFFFFFFFFFFFF19630300AC400700E9
:1015980094410700884D06009C410700A4410700BC
:1015A8002DE9F04F1F469DB000230C4682460F924E
:1015B80018934FF00008984B4FF000091D68284613
:1015C800FFF7A9FB22468346179213782B2B3BD0B3
:1015D8002CD80D2B26D8082B26D8002B2FD000234B
:1015E8000D93179E3378302B74D1737803F0DF0393
:1015F800582B65D10D9B17A9884A5046019318AB03
:101608000297009319AB4FF0DDFA10F00705044676
:1016180035D0062D1AD10F9B0BB101361E604246FC
:101628004B4637E0202BDAD10132CDE72D2BD6D12E
:1016380001230D93531C17935378002BD1D10F9B83
:10164800002BECD01C60EAE70023F2E7189A3AB1C5
:1016580035211AA862F04CFA189950464FF032FD1D
:10166800013D199A042D06D8DFE805F01903222553
:101678001900DDE91A89210701D549F000490F9BB6
:1016880013B1179B0F9A13600D9B002BC7D04246CE
:1016980009F1004343EC102B1DB0BDE8F08FDDE9E4
:1016A8001A8302F2334223F4801343EA0259E2E731
:1016B800DFF86C91DFE76FF000494FF0FF38DAE7A9
:1016C800179B5A1C17925B78302BF9D0002BD6D079
:1016D800012300E00023002704930A22179BCDE989
:1016E80005770A9317980678A6F13003D9B2092925
:1016F80024D95A46294661F026FF00282DD000201B
:101708003246059D83460346652A01D0452A13D1F2
:101718001DB9049A024392D00025179C621C1792A7
:1017280062782B2A6ED02D2A72D04FF0000CA2F1CD
:10173800300109297AD91794002699E005990130D2
:1017480008291790D7BF069902FB073702FB013318
:101758000693059B01330593C4E7179B03EB0B0224
:10176800179213F80B20059BA3B383461D46A2F1DD
:101778003003092B12D90123C6E7179B01305A1CE5
:1017880017925A78302AF8D0A2F13103082B00F2C8
:10179800EF8483460020179B05460A93303A00F1F0
:1017A800010311D09B4400EB050C2B460A2163452D
:1017B80012D12B180135082B054419DC06990A2388
:1017C80003FB012306930023179A1846511C17910F
:1017D8005278CCE70598D5E7082B03F1010303DC21
:1017E800069E4E430696E2E7102BD8BF4F43DEE72E
:1017F8000F2BDCBF0A2303FB0727E4E74FF0000B9E
:10180800012386E74FF0000CA21C1792A2788EE7FE
:101818004FF0010CF8E700BFEC730700D473070022
:101828000000F07F179A511C17915278302AF9D08E
:10183800A2F1310108293FF67FAF303A0792179A93
:101848000C92179A561C17965278A2F1300EBEF1D8
:10185800090F38D90C99761A082E44F61F6603DC4E
:1018680007998E42A8BF0E46BCF1000F00D0764201
:10187800002D4FD1049908437FF401AF002B7FF46A
:10188800DEAE692A29D026DC492A26D04E2A7FF4E2
:10189800D6AE9B4917A861F0C0FF00283FF4CFAE31
:1018A800179B1B78282B2FD11AAA964917A861F0E5
:1018B800C8FF052828D11B9BDDF8688043F0FF4945
:1018C80049F4E009DBE6079E0A2101FB0621A1F1A4
:1018D80030020792B5E76E2AD9E78B4917A861F05D
:1018E8009CFF00283FF4ABAE179B17A88749013B24
:1018F800179361F092FF10B9179B01331793DFF824
:101908001C924FF00008BAE6814801F079FA59ECC8
:10191800108BB4E6A6EB0B0306982C460C93059B9C
:10192800002B08BF2B46102D0593A8BF1024FEF7E7
:1019380051FD092D8046894613DC0C9B002B3FF492
:101948009EAE0C9B78DD162B45DC7249424601EBB6
:10195800C3014B46D1E90001FEF7B6FD8046894632
:101968008DE66C4B03EBC40353E91223FEF7ACFD81
:10197800804689463846FEF72DFD02460B4640460E
:101988004946FEF7EBFB0F2D80468946D5DD2C1B1B
:101998000C9B1C44002C25DC00F0A280644214F04F
:1019A8000F020AD05B4B4046494603EBC203D3E91A
:1019B8000023FEF7B3FE80468946241100F090808C
:1019C8001F2C40F3B18022234FF000084FF000098C
:1019D800CAF8003053E6C5F125030C9A934219DA88
:1019E8002C1B144414F00F030AD04A49424601EB59
:1019F800C3014B46D1E90001FEF766FD80468946E2
:101A080034F00F046CD0B4F59A7F41DD2223CAF874
:101A1800003074E7C5F10F053E4C42464B4604EBD7
:101A2800C501D1E90001FEF74FFD0C9B5D1B04EBDE
:101A3800C504D4E900238FE71633A8DBABEB060215
:101A4800344B4046494603EBC203D3E90023FEF773
:101A580065FE83E7002306932223DFF8C0904FF04A
:101A68000008CAF80030189950464FF02BFB069929
:101A780050464FF027FB059950464FF023FB10992D
:101A880050464FF01FFB079950464FF01BFBF6E5F9
:101A980000232411404649461F4F0493012C22DCA1
:101AA8000BB180468946049BA9F154791A494246EC
:101AB80001EBC3014B46D1E90001FEF705FD174BC9
:101AC8000A4680460B4016498B429FD8A1F58011E3
:101AD8008B4286BFDFF84C904FF0FF3802F1547903
:101AE800002304934BE0E20704D5D7E90023FEF76F
:101AF800EBFC0123049A6410083701320492CDE705
:101B0800D8BF0700C0730700D0BF070002C0070096
:101B180096C10700A84B0600804B06000000F07F26
:101B28000000A07CFFFFEF7F14F0100340464946F9
:101B3800AA4F18BF6A2304930023E20704D5D7E904
:101B48000023FEF7C1FC0123641007F10807F4D154
:101B58000BB180468946049B43B1C9F30A524946F2
:101B6800C2F16B03002B4EDC6A230493002200238E
:101B780040464946FEF710FF00287FF424AF069B35
:101B88005046059A00932B460A994FF005FB109092
:101B980000283FF43BAF0C9BABEB060B002BB4BF0C
:101BA8005B46002311930C9B23EAE37313930023F2
:101BB80007930593109B504659684FF043FA0690D7
:101BC80000283FF449AF109B0C301A6903F10C014F
:101BD8000232920061F060FB1AAA19A9504649EC3A
:101BE800108BCDE90A894FF0B3FD189000283FF417
:101BF80033AF012150464FF019FB03460590D0B989
:101C08000023059328E71F2B0EDD342B4FF0000827
:101C1800DBBF4FF0FF33C2F14B024FF05C799340CA
:101C2800D8BF03EA01099FE74FF0FF3202FA03F336
:101C380003EA080898E7199C1A9A002CA9BF119B77
:101C4800139BE718139EB8BF1E1B049BB8BF119FB8
:101C5800E41A634B1444C2F13602013C9C4280F200
:101C6800B0801B1B01251F2BA2EB0302CDBFC4F1C3
:101C78007F449D40002404F57F04C2BF04F57B44E3
:101C8800E23405FA04F407EB020B049B16445F45A3
:101C98001E443B46A8BF5B46B342A8BF3346002B51
:101CA800C2BFABEB030BF61AFF1A119B002B16DD14
:101CB8001A46059950464FF079FB059000289FD0A9
:101CC8000146189A50464FF0C7FA0E9000283FF484
:101CD800C3AE189950464FF0F5F90E9B1893BBF117
:101CE800000F71DC0C9B002B08DD139A50460699F7
:101CF8004FF05CFB069000283FF4ACAE002E08DDE8
:101D08003246069950464FF0ABFB069000283FF448
:101D1800A1AE002F08DD3A46059950464FF0A0FBCA
:101D2800059000283FF498AE069A504618994FF04F
:101D380003FC079000283FF48FAEC36805990E9303
:101D48000023C36061F087FE00284BDA0E9B53EA3C
:101D5800080340F0BC80C9F31303002B40F0B780A0
:101D680029F000431B0D1B05B3F1D66F40F2AF807D
:101D7800079B5B6923B9079B1B69012B40F3A7806D
:101D88000122079950464FF06BFB0599079061F0C7
:101D980062FE002840F39B8029F00043049A1B0D43
:101DA8001B05002A79D0B3F1D66F6DD8B3F15C7FEB
:101DB80046D84FF000084FF000092223CAF8003037
:101DC80051E6002401255EE75A46189950464FF01F
:101DD80047FB1890002885D13EE600BF584B060007
:101DE80002FCFFFFCB4640F0A3800E9AC9F3130311
:101DF800002A40D09C4A934258D1049B42467BB962
:101E0800B8F1FF3F40F08980984B99453FF424AEE4
:101E1800974BDDF8108009EA030303F5801922E6E1
:101E2800934B09EA0303B3F1D46F16D918F10101F2
:101E38001BD18E4A91453FF40FAE03F580198046B9
:101E48008C4B404649460022FEF73EFB0B46804637
:101E5800894603437FF407AEAFE71E0D4FF0FF310D
:101E6800C6F16B06B1408845E7D0002C5ED014EA75
:101E78000B0FE5D01EE0002B4AD1B8F1000F8BD034
:101E880064B314EA0B0F2BE0A3F580134FF0FF386F
:101E98006FEA13596FEA0959D2E7A3F580134FF097
:101EA800FF386FEA13596FEA0959DCE59CB114EA67
:101EB800090F0CD040464946049A61F08BFBDDE9D6
:101EC8000A0153EC102BFEF749F980468946049B1A
:101ED800002BB5D1C7E515EA080FEAE718EA050FA0
:101EE800F5D0049A4046494661F074FBDDE90A01E1
:101EF80053EC102BFEF730F90022002304460D4660
:101F0800FEF74AFD00287FF454AFA046A946DEE755
:101F1800002CB6D115EA080FE2E724B114EA090F3C
:101F28003FF4A1ADC6E718EA050FF9E72A42A0E792
:101F38000599079861F0AAFD00224FF0804355ECFF
:101F4800104B20462946FEF73BFD00286DD00E9B1E
:101F5800002B78D1B8F1000F56D1C9F31303002B29
:101F680059D10022444B20462946FEF71FFD002880
:101F780058D1204629460022404BFEF7A5FA0446D0
:101F88000D4605F1004308940993394B0BEA030306
:101F98001293129A3A4B9A42DDE9086740F0A980F9
:101FA800ABF1547949EC108B4FF05EFBDDE9082367
:101FB80051EC100BFEF788FA42464B46FEF7CEF876
:101FC8000B462B4980462F4A194091425CD90B9AFF
:101FD800264B9A4203D10A9B01333FF43DADDFF80B
:101FE8008C904FF0FF38189950464FF06BF80699CF
:101FF80050464FF067F8059950464FF063F8079937
:1020080050464FF05FF8D5E5B8F1010F03D1B9F1AB
:10201800000F3FF4CEAE0024174D9FED0F7B8DEDE2
:10202800087BB2E70024154DABE7144B2046294640
:102038000022FEF749FA0E9B04460D46002BA0D05D
:10204800CDE90845A1E79FED067B55EC174B8DEDD3
:10205800087B9AE7AFF30080000000000000F0BFA3
:10206800000000000000F03FFFFF0F00FFFFEF7FC0
:102078000000F07F000050390000F03F0000E03F12
:102088000000E07FFFFF9F7C03F15479049B4E46DC
:10209800002BA8D129F00043129A1B0D1B059A4268
:1020A800A1D120462946FEF73EFEC9F31306FEF7E6
:1020B800DDF90B4602462946204646EA0806FEF7A1
:1020C8004BF80E9B04460D461E434BD02EA3D3E976
:1020D8000023FEF76BFC00287FF4C5AC2046294698
:1020E8002BA3D3E90023FEF77FFC00283FF47BAF46
:1020F800B9E4049B13B3129BB3F1D46F1ED82046E6
:10210800294625A3D3E90023FEF75AFC90B12946B6
:102118002046FEF7B1FC012838BF0120FEF75AF926
:102128000E9B04460D46D3B901F100431490159354
:10213800DDE9146707F1D663129A9F1A9DED0A0B21
:102148004FF092FA3046394653EC102BFEF7BCF9A3
:10215800DDE90A23FEF702F88046894696E7CDE9CD
:102168001445E5E70EA3D3E90023FEF71FFCBCE7FF
:10217800652A3FF443AB452A3FF440AB0123FFF700
:1021880079BB00BFAFF300809535A094FFFFDF3F18
:1021980035E5AF350000E03F0000C0FFFFFFDF413D
:1021A8009535A094FFFFCF3F2DE9F04F476A97B0D0
:1021B8008346209E08910C92129355EC104B8DED9E
:1021C800000B7FB910204DF079FF0246CBF82400B0
:1021D80020B9A74BEA21A7484FF018FBC0E90177BF
:1021E8000760C760DBF82430196859B15A680123C1
:1021F800584693404A608B604EF064FFDBF8243009
:1022080000221A602B1EB7BF23F0004300230122CF
:102218000193A8BF3360019F974BB8BF3260BB439F
:1022280019D142F20F73129A1360C7F313032343B1
:1022380000F0DB85219B53B9904B21E0904B039331
:102248000833219A1360039817B0BDE8F08F8B4BC1
:1022580003930333F5E79DED007B0022002351EC47
:10226800170B8DED0A7BFEF797FB804650B10123D3
:10227800129A1360219B13B1824B219A1360824BEF
:102288000393E0E7C7F30A5614AA15A958469DED2B
:102298000A0B4FF05DFA0290002E76D00B9BA6F247
:1022A800FF36CDF84C80C3F3130343F07F53DDE9C9
:1022B8000A0143F4401319460022744BFDF74CFF02
:1022C80065A3D3E90023FEF7FFF865A3D3E900234C
:1022D800FDF744FF04460D463046FEF78BF862A32F
:1022E800D3E90023FEF7F0F802460B4620462946BC
:1022F800FDF734FF04460D46FEF796FB002207461D
:10230800002320462946FEF751FB40B13846FEF728
:1023180071F822462B46FEF73FFB00B9013F162F06
:1023280052D85B4B03EBC703DDE90A01D3E900236D
:10233800FEF73CFB002849D0013F00231193149B72
:102348009B1B5A1E4CBFC3F101030023079245BFD4
:102358000693002306930793002F39DB079B1097FA
:102368003B44079300230993089B092B66D8052B48
:10237800C5BF043B002401240893089B023B032BA0
:1023880067D8DFE803F02D3A3859DDE914631E44B5
:1023980006F23243202BC9BFC3F14003C3F1200327
:1023A8009F4006F21243D8BF04FA03F006F1FF3645
:1023B800C4BF24FA03F347EA0300FEF70BF801222F
:1023C800A1F1F873139276E70123B7E71190B6E706
:1023D800069BDB1B06937B42099300231093C3E7FC
:1023E80000230D930C9B002B56DC012399461A46BB
:1023F80004930C920CE00123F3E700230D930C9B4C
:10240800FB1803F1010904934B46012BB8BF0123C4
:10241800DBF824000021042202F114059D423FD973
:10242800416058464EF00EFE039000283BD1194BF0
:1024380002464FF4D571CEE60123DFE701240023DD
:102448000D9408934FF0FF3300229946049312230A
:10245800CFE701230D93F5E761436F63A787D23F69
:10246800B3C8608B288AC63FFB799F501344D33F7B
:102478000CC0070023C007000000F07F08C0070059
:10248800FFBF0700DCBF0700DBBF07000000F83F05
:10249800A84B06007FC007000C9B99460493B7E73A
:1024A80001315200B8E7DBF82430B9F10E0F039A76
:1024B8001A606FD8002C6DD0002F36DD07F00F02A0
:1024C800A04BF8054FEA271403EBC20393ED007BFA
:1024D8008DED0E7B17D59C4B04F00F044FF00308CD
:1024E800D3E90823DDE90A01FEF718F9CDE900016F
:1024F800954D5CB9DDE90E23DDE90001FEF70EF923
:10250800CDE900012BE04FF00208F1E7E10709D51A
:1025180008F10108DDE90E01D5E90023FDF7D4FF34
:10252800CDE90E0164100835E3E700F007817C422D
:10253800844B854D4FF0020804F00F02241103EB81
:10254800C203DDE90A01D3E90023FDF7BDFF00233B
:10255800CDE90001002C40F0E580002BD0D1119B83
:10256800DDE90045002B00F04C810022774B204626
:102578002946FEF71BFA002800F04381B9F1000F45
:1025880000F03F81049B002B00F3E480DDE90A346E
:10259800CDE90034159B002B02DB0E2F40F342825D
:1025A8000D9A002A40F06782099C0025DDF8188002
:1025B800B8F1000F0DD0079B002B0ADD4345069AA2
:1025C800A8BF4346D21AA8EB03080692079AD31A63
:1025D8000793099B0BB30D9B002B00F0A682002CE0
:1025E80000F0A1822946224658464EF0DFFE029AA4
:1025F8000146054658464EF02FFE029906465846B3
:102608004EF060FD099B1B1B099300F09182099A0B
:10261800314658464EF0CAFE0290012158464EF007
:1026280005FE109B0446002B00F084821A460146E2
:1026380058464EF0BBFE089B0446012B03DC009B6A
:10264800002B00F07C820026236904EB83031869C1
:1026580061F0B2F9C0F120001096079B184410F001
:102668001F0000F09182C0F12003042B40F3818207
:10267800C0F11C00069B034480440693079B034457
:102688000793069B002B05DD1A46029958464EF023
:10269800E7FE0290079B002B05DD21461A465846A7
:1026A8004EF0DEFE0446119B002B00F07682214698
:1026B800029861F0D0F9002880F26F8200230A2284
:1026C800029958464EF020FD0D9B7E1E0290002B6D
:1026D80000F05C82002329460A2258464EF014FD79
:1026E800049B0546002B03DC089B022B00F35E824B
:1026F800B8F1000F05DD2946424658464EF0B0FEB7
:102708000546109B002B00F0D082696858464EF0B1
:1027180099FC0746002840F07F820D4B024640F2A4
:10272800EA2158E5E20706D508F10108D5E90023B2
:10273800FDF7CAFE0123641008350BE74FF00208C5
:102748000DE700BFA84B0600804B06000000F03FD5
:102758007FC0070020460022AC4B2946FDF7B4FE97
:102768007E1E08F10108049CCDE900014046FDF7F2
:1027780041FEDDE90023FDF7A7FEA54B0022FDF78A
:10278800EDFCA1F15073CDE90E010F93002C3BD164
:102798000022A04BDDE90001FDF7DEFC02460B46F6
:1027A800CDE90023DDE90E23FEF71EF9002840F0ED
:1027B8005781DDE90E2101F10043DDE90001FEF753
:1027C800F5F800283FF4E2AE002425460C9BDDF81E
:1027D8000CA0DE434FF00008214658464EF072FC2C
:1027E800002D00F0A980B8F1000F05D0A84503D04E
:1027F800414658464EF066FC294658464EF062FC63
:102808009AE03E464C46B1E7834B03EBC40353E9D9
:102818000201039B1C440D9B002B4AD002460B4629
:1028280000207E49FDF77AFFDDE90E23FDF794FCD1
:10283800DDF80CA0CDE90E01DDE90001FEF7F4F8A2
:102848000546FDF7D7FD024630350B46DDE90001A8
:10285800FDF782FC0AF8015B02460B46CDE9000150
:10286800DDE90E01FEF7C0F8002865D100206C49AB
:10287800DDE90023FDF770FC02460B46DDE90E0199
:10288800FEF7B2F8002840F00D81A24500F0EA807A
:1028980000225E4BDDE90E01FDF716FE00225B4BC0
:1028A800CDE90E01DDE90001FDF70EFECDE90001DD
:1028B800C2E7DDE90E23FDF707FEA046DDF80CA010
:1028C800CDE90E01DDE90001FEF7AEF80546FDF79A
:1028D80091FD024630350B46DDE90001FDF73CFC71
:1028E8000AF8015B02460B46A245CDE900234FF0EA
:1028F800000223D1494BDDE90E01FDF72FFC02460A
:102908000B46DDE90001FEF76FF8002840F0CA80A9
:1029180000204249DDE90E23FDF71EFC02460B4666
:10292800DDE90001FEF742F870B1C24608F1FF3850
:102938001AF8013C302BF8D0374655E0334BFDF7F9
:10294800C3FDCDE90001BDE7DDE90A34CDE9003476
:10295800159B002BFFF628AE0E2F3FF725AE2E4B0A
:1029680003EBC70393ED007B0C9B002B8DED047BE1
:1029780002DAB9F1000F64D0DDF80CA0DDE90045FA
:10298800DDE9042320462946FDF7C8FEFEF74CF88A
:102998000646FDF72FFDDDE90423FDF795FD024608
:1029A800204606F130040B462946FDF7D5FB0AF808
:1029B800014B039C02460B46AAEB0404A14540F0D8
:1029C8008280FDF7CBFB04460D46DDE90423FEF7C4
:1029D8000BF8002865D120462946DDE90423FDF7D8
:1029E800DBFF08B1F3075CD4029958464EF06AFB46
:1029F800002301378AF80030129B1F60219B002BAF
:102A08003FF421ACC3F800A01DE400BF000024403F
:102A180000001C4000001440A84B06000000E03FE6
:102A28000000F03FA24B03EBC70393ED007B0C9B28
:102A3800002B8DED047B9FDAB9F1000F9CDC7FF44D
:102A4800C3AE00229B4BDDE90401FDF73DFDDDE946
:102A58000023FDF7BFFF044600287FF4B5AE3E46CD
:102A68002546B4E0DDE90A34CDE90034159B002B96
:102A780001DB0E2FD6DD089A012A36DC139A82B3C1
:102A880003F23343099CDDF81880069A0121584661
:102A98001A440692079A1A4407924EF0C7FB054655
:102AA80086E53E4653469A4613F8012D392A06D143
:102AB800039A9A42F7D13022039901360A701A789C
:102AC80001321A7038E700227B4BFDF7FDFC00222B
:102AD800002304460D46FDF75FFF00283FF450AF82
:102AE80082E7149BC3F13603CCE709F1FF34099B55
:102AF800A34208DBB9F1000FA3EB04040EDBDDF8F9
:102B080018804B46C1E7099B109AE31A0994DDF82F
:102B1800188000241A444B461092B6E7069BA3EB94
:102B280009080023B1E7029E71E5099A029970E548
:102B3800029672E5089B012B17DC009BABB9019B41
:102B4800C3F313039BB9019B23F00046360D3605EA
:102B580036B1069B012601330693079B0133079381
:102B6800109B002B7FF470AD1096012075E50026B0
:102B7800F6E73FF486AD1C33069A1A449844069249
:102B8800079A1A4407927CE50346F4E7049B002B56
:102B98002BDC089B022B09DC27E0B9F1000F1DDCB8
:102BA800089B022B1ADD3E46CDF81090049B002BA3
:102BB8007FF40CAE2146052258464EF0A5FA014690
:102BC8000446029860F047FF00287FF7FFADDDF864
:102BD8000CA0312301360AF8013BFBE50D9B3E466C
:102BE800CDF81090002B7FF483AD039F2146029807
:102BF80060F00EFD039B00F13009049A07F8019B71
:102C0800FB1A9A4240F3CB8000230A2202995846C5
:102C18004EF07AFA0290E9E72A6905F10C010C30C6
:102C28000232920060F038FB0122394658464EF0D5
:102C380017FC039BA846054603F1010ADDE90323B7
:102C480013440793009B03F0010309930AF1FF3330
:102C580021460298049360F0DBFC4146069000F19F
:102C68003009029860F0F7FE2A4621460746584682
:102C78004EF062FCC268014602B358464EF022FA92
:102C8800002F3ADA0122029958464EF0E9FB214614
:102C9800029060F0E0FE002803DC29D119F0010F52
:102CA80026D0B9F1390F1DD132E02846C1E700BF5F
:102CB800A84B060000001440000024400A90029827
:102CC80060F0C9FE0A990C9058464EF0FBF90C9A30
:102CD8005ABB089B53B9099B43B9B9F1390F17D0AF
:102CE800002F05DD069B03F1310901E0002F2ADAE8
:102CF800DDF810A00AF8019B6EE5089B3B4304D160
:102D0800009B03F00103002BBCD0B9F1390F36D179
:102D1800049F392307F8013BBA46013F1AF8013CE2
:102D2800392B5AD001333B7056E5002F06DB089B40
:102D38003B4306D1009B03F0010313B9002AA1DC31
:102D4800D6E7002AE1DC079B57460AF8019C534561
:102D58002ED000230A22029958464EF0D5F9A845EC
:102D680002904FF000034FF00A02414658460BD13B
:102D78004EF0CAF9804605460AF1010A66E7DDF811
:102D880010A009F10109B5E74EF0BEF929468046C1
:102D980000230A2258464EF0B7F90546ECE7049B93
:102DA8004FF00008002BCCBF1F460127039B1F4490
:102DB8000122029958464EF053FB2146029060F0DA
:102DC8004AFE0028A8DC02D119F0010FA4D1BA46A6
:102DD80017F8013D302BFAD0FEE4039BBB429BD190
:102DE8003123039A01361370F6E4219B002B7FF4FC
:102DF80025AA014BFFF744BAFFBF070000000000F7
:102E08009FED010B704700BF000000000000F87F35
:102E180090B585B000AF624B1B6803F00703022B27
:102E280071D96C4600233B7102237B710122BA7170
:102E38000322FA713B7204237B728CB0EC461CF1BE
:102E480010022DD04FF01A0E2AB1BEF1040F02DD88
:102E5800544BCCF8143000233B7102237B712AB108
:102E6800BEF1080F02DD504BCCF818300123BB71BE
:102E78000323FB712AB1BEF10C0F02DD4B4BCCF8DA
:102E88001C3002233B7204237B72B2B1BEF1100FD7
:102E980002DD474BCCF820300CF1240300210AE076
:102EA8006FF0004ED0E701F11000384410F80C0C18
:102EB80003F8010B01310529F5D9BEF1190F3FDDE2
:102EC8001A234AB10521397000217970B97003219C
:102ED800F9703868CCF8100000216FF300016FF327
:102EE80041016FF382016FF3C501032060F388117C
:102EF800C3F30A0363F353216FF31F5100232848D8
:102F08000DF0BEF8A546264B1B6803F00703022BFD
:102F180019D807F10F0008F02FFDFB7BCBB1012B6F
:102F28002FD124480CF0F4FE044628B91C4B1B682A
:102F380003F00703022B1ED820461437BD4690BD68
:102F48006FF01B03BDE71C4A0321154851F02EFC06
:102F5800DFE71A480CF0DCFE04460028ECD1104BE1
:102F68001B6803F00703022BE6D9154A03210C4816
:102F780051F01CFCE0E7134A0321094851F016FC04
:102F8800DAE7114C382322461049114850F0C9FCA1
:102F9800104850F0C6FC3821204608F0FBFC00BF62
:102FA80078150020704C0600BC4D0600BC4C06008D
:102FB800E44D0600084E0600C44C06000C4E060000
:102FC800E04C0600004D0600204D06006872060021
:102FD800884D0600A84D0600014B1870704700BFC9
:102FE8003414002010B588B000220023CDE9062350
:102FF8000023049305220392029301930093324B1A
:103008004FF400623149324834F028F8314B1860E7
:10301800314933F0DDFE70B10446304B1B6813F0C4
:10302800070F02D1204608B010BD2D4A01212B48B8
:1030380051F0BCFBF6E700220023CDE9062300236C
:10304800049305220392029301930093254B4FF4B6
:1030580000622549254834F001F8254B18602549B8
:1030680033F0B6FE044650B11C4B1B6813F0070F33
:10307800D8D0214A0121194851F098FBD2E7002203
:103088000023CDE90623002304930522039202932B
:1030980001930093194B4FF400621949194833F012
:1030A800DDFF194B1860194933F092FE04460028D9
:1030B800B8D00A4B1B6813F0070FB3D00E4A012192
:1030C800064851F073FBADE79136000068360120E1
:1030D800801F0020D44E0020104E0600AC150020A2
:1030E800204E06009D330000682E0120781E002027
:1030F800D04E0020444E0600584E0600F531000020
:1031080068260120701D0020CC4E0020804E06004D
:1031180010B541F69A1200232749284825F00EF9E0
:1031280068B10446264B1B6813F0070F01D12046EF
:1031380010BD244A0121224851F038FBF7E741F637
:103148009A1200232049214825F0F8F8044650B186
:103158001B4B1B6813F0070FE9D01D4A01211848C3
:1031680051F024FBE3E741F69A12002319491A4863
:1031780025F0E4F8044650B1114B1B6813F0070F13
:10318800D5D0164A01210E4851F010FBCFE741F681
:103198009A1200231249134825F0D0F80446002853
:1031A800C5D0074B1B6813F0070FC0D00E4A01218A
:1031B800034851F0FBFABAE75C47060000470600EF
:1031C800AC150020904E0600684706002847060008
:1031D800AC4E0600804706003C470600C84E060075
:1031E80050470600EC460600E84E060010B58AB0C7
:1031F8002AE04FF4A47200925A4A01215A4851F029
:10320800EAFA33E00799069805F042FE70B1574B89
:103218004FF080721A60544B1B6813F0060F13D0DE
:10322800534A0221504851F0C1FA0DE0079A4F4B1A
:103238001A6009E04C4B1B6803F00703022B33D8D4
:103248009DF82030162B37D14FF0FF324FF0FF3367
:10325800CDE9002302AA09A9464824F0BFFF68B1B6
:103268000346414A126812F0070FC2D1002383F3C4
:103278001188BFF36F8F0323184602DF9DF80830CB
:103288009A1E062A62D801A151F822F05132000094
:10329800513200000D3200003D3200005132000072
:1032A8000B3300002B3300009DF82030324A0321F5
:1032B8002D4851F085FAC3E74FF08073009300233F
:1032C80002221946184604F0F1FB034668B110F1D2
:1032D800780FB9D1244A126812F0070FB4D0274AE0
:1032E8000121214851F06CFAAEE71F4B1B6803F02F
:1032F8000703022BA8D9224A03211B4851F056FA8A
:10330800A2E705F0BDFE034600289DD0164A1268C4
:1033180012F0070F98D01B4A0121134851F050FAB8
:1033280092E7194C204604F089FA206805F00AFE55
:103338000346002888D00C4A126812F0070F83D081
:10334800124A0121084851F03BFA7DE7064A126803
:1033580012F0060F3FF478AF0D4A0221024851F0EF
:103368002FFA71E7044F0600AC1500201007002063
:10337800284F060050470600404F06005C4F0600E5
:103388007C4F0600A04F0600C84E0020CC4F060018
:10339800F04F060000B58DB00AE0C4220092A54A9D
:1033A8000121A54851F017FA14E0A44B1B788BBBF8
:1033B8004FF0FF324FF0FF33CDE9002302AA08A9EE
:1033C8009F4824F00BFF68B103469B4A126812F02D
:1033D800070FE2D1002383F31188BFF36F8F032314
:1033E800184602DF9DF808305A1E062A00F23C8172
:1033F80001A151F822F000BFA93400007136000085
:10340800B33300005F340000B93300002F350000EB
:103418000136000000F004FF0020FFF7DDFD022068
:1034280007F0E2FB03460028C2D0834A126812F074
:10343800070F08D1002383F31188BFF36F8F03238D
:10344800184602DFB4E7D42200927A4A01217A486A
:1034580051F0C1F9EEE7794B1B78012BA8D0012078
:10346800FFF7BAFD01F0F8F8022007F085FB0346E4
:1034780000289DD0704A126812F0070F08D1002367
:1034880083F31188BFF36F8F0323184602DF8FE79A
:10349800E3220092674A0121674851F09CF9EEE760
:1034A8000BAA09A90AA805F0A3FC034658B1624A69
:1034B800126812F0060F3FF47BAF624A02215E48A1
:1034C80051F07EF974E7099A0021084600F066FE7B
:1034D800034660B1584A126812F0070F1BD1002347
:1034E80083F31188BFF36F8F0323184602DF0B980D
:1034F80001F02AFF00287FF45BAF4F4B1B6803F0F5
:103508000703022B7FF654AF0B9B4F4A03214A480F
:1035180051F056F94CE7F6220092464A01214648F6
:1035280051F059F9DBE7444B1B6803F00703022B02
:1035380027D8049803F006FC20B13F4B1B6813F012
:10354800060F24D13D4B1B783BB3404B1B680093BF
:10355800002302221946184604F0A8FA0346002858
:103568003DD010F1780F3FF423AF334A126812F0C0
:10357800070F3FF41DAF364A01212F4851F020F9BB
:1035880016E7344A03212C4851F010F9D1E7324AA2
:103598000221294851F00AF9D4E70120FFF71CFD60
:1035A80001F05AF8022007F0E7FA03460028CCD0C9
:1035B800214A126812F0070F08D1002383F31188FB
:1035C800BFF36F8F0323184602DFBEE740F20D12E8
:1035D8000092184A0121184851F0FDF8EDE7164B02
:1035E8001B6803F00703022B7FF6E2AE1B4A032198
:1035F800114851F0DBF8DBE60F4B1B6813F0060FA0
:1036080011D105F03DFD034600283FF4D1AE0A4A2A
:10361800126812F0070F3FF4CBAE114A0121064899
:1036280051F0CEF8C4E60F4A0221034851F0BEF823
:10363800E7E700BF044F0600AC1500203414002053
:10364800684706001850060034500600100700208E
:103658005C4F060054500600605006007C4F060080
:10366800A04F06007C500600054A126812F0060FAB
:103678003FF49EAE034A0221014851F0A1F897E6B3
:10368800AC150020B850060010B586B0012426E01D
:10369800002383F31188BFF36F8F0323184602DFDB
:1036A80040F6CD42002303A9059824F0CBFC03463D
:1036B80060B1754A126812F0070F28D1002383F30E
:1036C8001188BFF36F8F0323184602DF9DF810306F
:1036D800012B2AD06C4B1B6813F0060F1FD14FF03B
:1036E800FF324FF0FF3305A9684824F0F7FC034682
:1036F8000028D5D0644A126812F0070FC8D05122AA
:103708000092634A0121604851F065F8C0E75622EB
:1037180000925F4A01215C4851F05DF8CEE75D4AAE
:103728000221594851F042F8D9E7039B9A1E042A0E
:1037380000F29D80DFE802F0433303655300564BE7
:103748001B7863B1012B1AD04F4A126812F0060F8A
:10375800C5D0524A02214C4851F032F8BFE705F073
:1037680031FC03460028BAD0474A126812F0060F07
:10377800B5D04B4A0221444851F022F8AFE705F092
:1037880005FC03460028AAD03F4A126812F0060F2B
:10379800A5D0444A02213C4851F012F89FE704F0B2
:1037A80015FE034600289AD0374A126812F0060F11
:1037B80095D03D4A0221344851F002F88FE704F0D1
:1037C80015FE034600288AD02F4A126812F0060F09
:1037D80085D0364A02212C4850F0F2FF7FE705F0E9
:1037E800A1FA034600283FF47AAF274A126812F07C
:1037F800060F3FF474AF2E4A0221234850F0E0FF31
:103808006DE705F03DFC034658B11F4A126812F0F7
:10381800070F3FF464AF274A01211B4850F0D0FF3F
:103828005DE7CCB14FF080730093234B0222002157
:10383800084604F03BF9002400283FF450AF124B2F
:103848001B6813F0060F3FF44AAF03461B4A0221D8
:103858000D4850F0B5FF42E74FF080730093184BC6
:1038680002220021084604F021F90124E4E7064A6F
:10387800126812F0060F3FF432AF124A02210248D2
:1038880050F09EFF2BE700BFAC1500205C470600F8
:10389800044F0600E0500600341400204051060092
:1038A800F85006001C5106005851060078510600D1
:1038B80098510600A04F0600C4510600EC510600BE
:1038C800DC5106001C520600014B1878704700BFF7
:1038D8003414002008B5064B1B6813F0060F00D1FE
:1038E80008BD044A0221024850F060FFF8E700BF13
:1038F800AC15002040520600B0B584B002AF08F005
:10390800E5F968B10346894A126812F0070F70D1C9
:10391800002383F31188BFF36F8F0323184602DF58
:10392800FFF776FA034660B1804A126812F0070F73
:1039380068D1002383F31188BFF36F8F03231846E0
:1039480002DF03F015FA034660B1784A126812F0F4
:10395800070F60D1002383F31188BFF36F8F032310
:10396800184602DF00F060FF034660B16F4A126834
:1039780012F0070F58D1002383F31188BFF36F8F1C
:103988000323184602DFFFF72DFB0446002800F04A
:103998008980664B1B6813F0070F76D06D460023AD
:1039A8003B7102237B7188B00DF1080C1CF11002E9
:1039B80043D00E2022B1042802DD5D4BCCF8143030
:1039C80000233B7002237B70002A39D0082802DDCF
:1039D800584BCCF818300CF11C03002101292FD8C2
:1039E80001F1080EBE441EF808EC03F801EB0131A2
:1039F800F4E740F23A2200924F4A01214B4850F036
:103A0800EAFE85E740F23D2200924B4A01214748F1
:103A180050F0E1FE8DE74FF410720092464A012102
:103A2800424850F0D8FE95E740F243220092424ABD
:103A380001213E4850F0CFFE9DE76FF00040B9E706
:103A48000D2863DD0E234AB10321397100217971F4
:103A5800B9710121F9717868CCF8100000216FF371
:103A680000016FF341016FF382016FF3C50101207B
:103A780060F38811C3F30A0363F353216FF31F51F3
:103A880000232A480CF0FCFAAD46284B1B6813F0BB
:103A9800070F3ED1002383F31188BFF36F8F0323F1
:103AA800184602DFFFF734FB044600287AD01F4B84
:103AB8001B6813F0070F68D06D4600233B71022383
:103AC8007B7188B00DF1080C1CF110022BD00E2070
:103AD80022B1042802DD164BCCF8143000233B70C9
:103AE80002237B7062B3082802DD144BCCF818302F
:103AF8000CF11C030021012922D801F1080EBE4453
:103B08001EF808EC03F801EB0131F4E76FF01B0332
:103B180099E740F2462300932346074A01210348C8
:103B280050F059FEB6E76FF00040D1E7AC15002021
:103B3800006606006C520600044F06009852060004
:103B48000D2863DD0E234AB10321397100217971F3
:103B5800B9710121F9717868CCF8100000216FF370
:103B680000016FF341016FF382016FF3C50101207A
:103B780060F38811C3F30A0363F353216FF31F51F2
:103B88000023A5480CF07CFAAD46A34B1B6813F044
:103B9800070F3ED1002383F31188BFF36F8F0323F0
:103BA800184602DF02F0F2FB0446002870D09A4B58
:103BB8001B6813F0070F5ED06D4600233B7102238C
:103BC8007B7188B00DF1080C1CF110022BD00E206F
:103BD80022B1042802DD914BCCF8143000233B704D
:103BE80002237B7012B3082802DD8D4BCCF8183005
:103BF8000CF11C030021012918D801F1080EBE445C
:103C08001EF808EC03F801EB0131F4E76FF01B0331
:103C180099E740F2492300932346824A01217E48CE
:103C280050F0D9FDB6E76FF00040D1E70D2864DD0C
:103C38000E234AB10321397100217971B97101212B
:103C4800F9717868CCF8100000216FF300016FF368
:103C580041016FF382016FF3C501012060F3881100
:103C6800C3F30A0363F353216FF31F5100236A4818
:103C78000CF006FAAD46684B1B6813F0070F3FD1EE
:103C8800002383F31188BFF36F8F0323184602DFE5
:103C9800654805F041FA0446002870D05E4B1B6861
:103CA80013F0070F5ED06D4600233B7102237B7132
:103CB80088B00DF1080C1CF110022BD00E2022B197
:103CC800042802DD554BCCF8143000233B70022346
:103CD8007B7012B3082802DD544BCCF818300CF175
:103CE8001C030021012918D801F1080EBE441EF852
:103CF80008EC03F801EB0131F4E76FF01B0398E7D8
:103D08004FF4137300932346464A0121424850F06A
:103D180062FDB5E76FF00040D1E70D286BDD0E239B
:103D28004AB10321397100217971B9710121F97101
:103D38007868CCF8100000216FF300016FF341019F
:103D48006FF382016FF3C501012060F38811C3F39B
:103D58000A0363F353216FF31F5100232E480CF01D
:103D68008FF9AD462C4B1B6813F0070F46D1002383
:103D780083F31188BFF36F8F0323184602DF4FF0D8
:103D8800807300932A4B02220021084603F08EFE1E
:103D98000446002800F082801F4B1B6813F0070FB1
:103DA8006FD06D4600233B7102237B7188B00DF103
:103DB800080C1CF110022BD00E2022B1042802DDC1
:103DC800164BCCF8143000233B7002237B709AB357
:103DD800082802DD174BCCF818300CF11C03002121
:103DE800012929D801F1080EBE441EF808EC03F891
:103DF80001EB0131F4E76FF01B0391E740F24F2329
:103E080000932346074A0121034850F0E4FCAEE73B
:103E18006FF00040D1E700BFAC1500200066060037
:103E2800C4520600044F0600115E0000E45206006A
:103E3800DC510600045306000D2833DD0E234AB179
:103E48000321397100217971B9710121F9717868FB
:103E5800CCF8100000216FF300016FF341016FF3FC
:103E680082016FF3C501012060F38811C3F30A03CF
:103E780063F353216FF31F51002311480CF000F92D
:103E8800AD460F4B1B6813F0070F0ED1002383F3C9
:103E98001188BFF36F8F0323184602DF002008370D
:103EA800BD46B0BD6FF01B03C9E740F26223009323
:103EB8002346044A0121024850F08DFCE6E700BF82
:103EC800AC150020044F0600024B01221A709A71AB
:103ED8005A717047484F00202DE9F041ADF5386D13
:103EE80002AF0026C7F86C6BB2E0002383F3118899
:103EF800BFF36F8F0323184602DF04EB440007F675
:103F0800783303EB8405994B1A6855F8341C07F588
:103F1800717303EB80105FF0BFF955F8341C9448B7
:103F280029F06CF90134092C1DDC4FF0FF324FF0F9
:103F3800FF33CDE900238D4A07F6443303EB8401B0
:103F48008B4829F027F903460028D6D0894A1268F9
:103F580012F0070FC9D088220092874A01218548AC
:103F680050F039FCC1E7854B1B7B002B61D0844B9B
:103F78001B68002B76D107F66C33824A4FF4F06148
:103F880007F5717001F0A2FB0446002851D0794B67
:103F98001B6813F0070F3FD06D4600233B710223C7
:103FA8007B7188B002A911F1100200F09D804FF0DA
:103FB8000E0C22B1BCF1040F01DD734B4B610023E1
:103FC8003B7002237B70002A40F09180BCF10D0FFA
:103FD80040F39E800E2342B103203871002078718F
:103FE800B8710120F871786808616FF300086FF301
:103FF80041086FF382086FF3C508012161F388183F
:10400800C3F30A0363F353286FF31F580023414691
:1040180058480CF035F8AD46564B1B6813F0070F9F
:1040280079D1002383F31188BFF36F8F03231846D8
:1040380002DFB6F57A7F77D00136504B1B7B3BB158
:104048004E4B5A7DD7F86C1B4E4B1868FFF742FC55
:104058004FF0FF324FF0FF3301214C4835F020FC80
:10406800002460E74A4A00924A4A4FF47071381DAA
:1040780028F044FE034660B13E4A126812F0070F6A
:1040880022D1002383F31188BFF36F8F03231846CF
:1040980002DF009707F5717310224FF47071381D15
:1040A8005AF05CFA034600283FF465AF314A1268BB
:1040B80012F0070F10D1002383F31188BFF36F8F1D
:1040C8000323184602DF56E7972200922A4A012165
:1040D800284850F080FBD4E79C220092264A012110
:1040E800244850F078FBE6E76FF0004C61E7BCF13C
:1040F800080F01DD284B8B6101F11C03002004E04F
:1041080017F800E003F801EB01300128F8D95DE762
:104118006FF01B035FE7A22300932346164A012191
:10412800144850F058FB7CE707F5376207F67431FE
:104138000F4829F08BF8064600283FF47EAF0D4B58
:104148001B6813F0070F08D1002686F31188BFF308
:104158006F8F0323184602DF6FE7A92300930346F6
:10416800054A0121034850F036FBEDE7E04E0020F8
:1041780028070020C0140020044F0600484F0020E4
:10418800E44E0020D84E00200066060014070020E8
:10419800DC4E0020E84E00202853060070B5054686
:1041A8000E4614464EF029FC80B11A4B9D612046FC
:1041B8004EF023FCD8B1174B01221A719C603EB314
:1041C800144B01221A731E61002022E0002DEED04C
:1041D800114B1B6813F0070F02D16FF0150018E0A0
:1041E8002B460E4A01210C4850F0EAFAF5E7002C5C
:1041F800E5D0094B1B6813F0070F02D16FF01500CB
:1042080007E02346054A0121034850F0D9FAF5E7AB
:10421800002070BD484F0020C0140020385306000D
:10422800F0B58BB008AFFFF74FFE9B4B93F86430A7
:10423800002B44D0994B93F86430002B00F0B380E6
:10424800974C04F110030FCB8DE80F0094E80F0092
:1042580001F0DEFC0546002800F06181914B1B68E7
:1042680013F0070F00F04E816E4600233B710223C6
:104278007B7188B0344616F1100200F009810E20D7
:104288001AB1042801DD884B636100233B700223C7
:104298007B70002A00F01281082801DD834BA3619E
:1042A80004F11C030021012900F2088101F1080C26
:1042B800BC441CF808CC03F801CB0131F3E776487D
:1042C80029F046F805460028B4D0764B1B6813F051
:1042D800070F4DD06E4600233B7102237B7188B0D7
:1042E800344616F1100212D00E201AB1042801DD4E
:1042F8006D4B636100233B7002237B70A2B10828D9
:1043080001DD6B4BA36104F11C0300210AE06FF08F
:104318000040EAE701F1080CBC441CF808CC03F89B
:1043280001CB01310129F5D90D282FDD0E2342B12A
:104338000321397100217971B9710121F971786806
:10434800206100216FF300016FF341016FF38201D7
:104358006FF3C501012060F38811C3F30A0363F307
:1043680053216FF31F5100234E480BF089FEB546C9
:104378004C4B1B6813F0070F0BD1002383F31188F4
:10438800BFF36F8F0323184602DF53E76FF01B0359
:10439800CDE740F27D1300932B46464A0121414860
:1043A80050F019FAE9E73D4828F0D2FF0546002801
:1043B8003FF446AF3B4B1B6813F0070F4DD06E46DA
:1043C80000233B7102237B7188B0344616F110023A
:1043D80012D00E201AB1042801DD334B636100238B
:1043E8003B7002237B70A2B1082801DD324BA36128
:1043F80004F11C0300210AE06FF00040EAE701F134
:10440800080CBC441CF808CC03F801CB0131012985
:10441800F5D90D282FDD0E2342B103213971002172
:104428007971B9710121F9717868206100216FF300
:1044380000016FF341016FF382016FF3C5010120A1
:1044480060F38811C3F30A0363F353216FF31F5119
:10445800002314480BF014FEB546124B1B6813F0EA
:10446800070F0BD1002383F31188BFF36F8F03234A
:10447800184602DFE4E66FF01B03CDE74FF4C17383
:1044880000932B460B4A0121064850F0A4F9E9E7AE
:104498006FF00040F4E600BF9007002028070020D6
:1044A800484F0020C0140020006606009053060004
:1044B80058530600044F0600745306000D285DDDAE
:1044C8000E2342B10321397100217971B97101219B
:1044D800F9717868206100216FF300016FF34101E1
:1044E8006FF382016FF3C501012060F38811C3F3F4
:1044F8000A0363F353216FF31F51002347480BF05E
:10450800BFFDB546454B1B6813F0070F39D1002393
:1045180083F31188BFF36F8F0323184602DF404BE4
:1045280001221A771B7B1BB13E4B1B68002B32D034
:1045380006F0FCFE034660B1384A126812F0070F15
:104548005AD1002383F31188BFF36F8F03231846D2
:1045580002DF354801F00CF8034660B12F4A1268B3
:1045680012F0070F51D1002383F31188BFF36F8F27
:104578000323184602DF0C37BD46F0BD6FF01B035E
:104588009FE74FF4C37300932B46284A0121234821
:1045980050F021F9BBE700220023CDE906230023D0
:1045A800049303220392029301930093204B42F653
:1045B800F8222049204832F051FD1A4B18601F4953
:1045C80032F006FC03460028B2D0144A126812F0F2
:1045D800070F08D1002383F31188BFF36F8F0323DC
:1045E800184602DFA4E74FF4C87200920F4A01216F
:1045F8000A4850F0F0F8EDE74FF4CC7200920B4AFD
:104608000121064850F0E7F89BE740F29B12009220
:10461800064A0121014850F0DEF8A4E7C014002042
:10462800484F0020784F002028070020044F06003C
:10463800E13E0000683E012088200020A8530600C3
:1046480010B50446FFF7ECFD0249204650F06AFC1D
:10465800002010BDB0530600F0B587B004AF644B1E
:104668001B7F5BB9634B1B6813F0060F00F0B0802B
:10467800614A02215F4850F099F8A9E006F084FEEB
:10468800034660B15B4A126812F0070F51D100234C
:1046980083F31188BFF36F8F0323184602DF00F0FE
:1046A800A9FF034660B1534A126812F0070F49D1B7
:1046B800002383F31188BFF36F8F0323184602DFAB
:1046C8004B4C04F110030FCB8DE80F0094E80F005A
:1046D80001F02AFA0546002871D0464B1B6813F0F2
:1046E800070F5FD06E4600233B7102237B7188B0B1
:1046F80004AC14F110022ED00E201AB1042801DDEA
:104708003E4B636100233B7002237B7032B3082861
:1047180001DD3B4BA36104F11C03002101291DD8D5
:1047280001F1080CBC441CF808CC03F801CB01319A
:10473800F4E74FF4D7720092324A01212D4850F025
:104748004AF8A4E740F2B11200922E4A0121294802
:1047580050F041F8ACE76FF00040CEE70D283ADDA5
:104768000E2342B10321397100217971B9710121F8
:10477800F9717868206100216FF300016FF341013E
:104788006FF382016FF3C501012060F38811C3F351
:104798000A0363F353216FF31F51002315480BF0ED
:1047A8006FFCB546134B1B6813F0070F16D1002397
:1047B80083F31188BFF36F8F0323184602DF0C4B76
:1047C80000221A77104828F079FD104828F076FD65
:1047D8000C37BD46F0BD6FF01B03C2E740F2B513BE
:1047E80000932B46074A012102484FF0F4FFDEE709
:1047F800484F0020C0140020C85306000066060079
:10480800E4530600044F0600280700209007002004
:1048180010B50446FFF720FF0249204650F082FBFE
:10482800002010BDFC53060010B500F0FDFE70B16D
:104838000446114B1B6813F0070F01D1204610BD29
:1048480003460E4A01210C484FF0BAFFF6E706F07E
:10485800ABFD044658B1084B1B6813F0070FEDD0A9
:104868000346074A012104484FF0AAFFE6E7054836
:104878005EF0C0FCE2E700BFC0140020145406003C
:104888003C540600684F0020084AB2F80E3AB2F8C5
:104898000C0A834205D3834205D9C3F1780318442F
:1048A8007047C01A70470020704700BF08C4002036
:1048B8000C4B93F8803133B90A4B012283F88021DD
:1048C800036000207047074B93F881313BB9054BD3
:1048D800012283F88121C0330360002070476FF004
:1048E8000B007047C46E0020074B984203D0074B5B
:1048F800984204D07047002283F880217047C03B5B
:10490800002283F88121F5E7C46E0020846F00201F
:10491800034B002283F8802183F88121704700BF70
:10492800C46E002008B50021034B19704FF4707253
:1049380002485EF0D8FC08BD3526012048700020EA
:1049480008B5024831F0CAFE08BD00BF00080020C3
:1049580090B583B000AF394B93F8003C834229D01F
:10496800364B83F8000C364B1B6803F00703022B09
:104978005DD9344B53F820106C4600233B71022359
:104988007B7188B0EC461CF110021ED00E2022B1BB
:10499800042802DD2C4BCCF8143000233B70022392
:1049A8007B70FAB1082801DDCCF818100CF11C0353
:1049B800002115E0224B1B6813F0060F37D0234A5D
:1049C80002211F484FF0F2FE31E06FF00040DEE7B1
:1049D80001F1080EBE441EF808EC03F801EB0131A2
:1049E8000129F5D90D2825DD0E234AB10321397196
:1049F80000217971B9710121F9717868CCF810003A
:104A080000216FF300016FF341016FF382016FF32F
:104A1800C501032060F38811C3F30A0363F353212C
:104A28006FF31F51002306480BF02AFBA5460C37ED
:104A3800BD4690BD6FF01B03D7E700BF08C4002038
:104A4800B8140020BC5C0600545506001C5506002E
:104A580038B54E4BD3F8F82BC3F8F42B93F8003C39
:104A6800032B04D8DFE803F0020B3C6602B938BD1B
:104A7800464BC3F8042C0120FFF76AFFF7E74349C8
:104A8800B1F8023C01339BB2A1F8023C632BEED98A
:104A98000023A1F8023CD1F8043C9B1A03F5C33368
:104AA800A0333B4A02FB03F33A4A82FB0302DB17BB
:104AB800C3EBA21303F51B40A630C1F8080C03F69C
:104AC800CE3341F29C72934206D880B24DF0C7FFB4
:104AD8000220FFF73DFFCAE70020FFF739FFC6E7CE
:104AE8002A49B1F8023C01339BB2A1F8023C632B7E
:104AF800BDD90D460023A1F8023C014610464DF0F1
:104B08008FFF00EBD0704410214B04FB03F3214AC4
:104B180082FB0312DB17C3EBA213D5F8080C184469
:104B280080B24DF09CFF0F341E2CA0D80320FFF755
:104B38000FFF9CE71549B1F8023C01339BB2A1F87D
:104B4800023C632B93D90D460023A1F8023C014691
:104B580010464DF065FF00EBD07044100C4B04FB81
:104B680003F30C4A82FB0312DB17C3EBA213D5F83D
:104B7800080C184480B24DF072FF2034402C7FF6A8
:104B880076AF0020FFF7E4FE71E700BF08C40020FD
:104B980018FCFFFF019D7F31474B93F8103C83427F
:104BA80000F08880B0B584B002AF0446424B83F869
:104BB800100C424B1B6803F00703022B53D9404BE0
:104BC80053F820106D4600233B7102237B7188B097
:104BD8000DF1080C1CF1100213D00E2022B104288C
:104BE80002DD384BCCF8143000233B7002237B7075
:104BF800A2B1082801DDCCF818100CF11C03002123
:104C08000AE06FF00040E9E701F1080EBE441EF823
:104C180008EC03F801EB01310129F5D90D2838DD3D
:104C28000E234AB10321397100217971B97101212B
:104C3800F9717868CCF8100000216FF300016FF368
:104C480041016FF382016FF3C501032060F38811FE
:104C5800C3F30A0363F353216FF31F51002317486B
:104C68000BF00EFAAD46032C16D003204EF03EF89A
:104C780060B1124B1B6813F0070F11D1002383F3A7
:104C88001188BFF36F8F0323184602DF0837BD462C
:104C9800B0BD6FF01B03C4E7032005F06DFFE7E725
:104CA80040F2691300930346074A012103484FF075
:104CB80092FDE3E7704700BF08C40020B814002045
:104CC800AC5C060068550600044F06002DE9F0416B
:104CD8006C4B93F8003C032B10D104460D468AB95F
:104CE800684BD3F8182C291B114493F8103C012B5E
:104CF8001AD0022B5ED06BB1BDE8F0810020FFF71F
:104D08004BFFF9E75F4B0022A3F8122C0220FFF7B4
:104D180043FFE5E75B4B0022A3F8122CC3F8142CE1
:104D28000120FFF739FFE7E7564AB2F8123C581C52
:104D3800A2F8120C092B2FD9524B0022A3F8122CDF
:104D4800D3F8146C504B83FB0623F517C5EBA3056A
:104D580005F2F31240F2E6339A4227D90220FFF710
:104D68001BFF002DC8D016F1090F2FDB05F5FA73CC
:104D7800464A82FB0312DF17C7EBA2174EF64762BB
:104D880093422DDD424A126812F0060F21D13C27CA
:104D9800002F2FDD00263FE01346D2F8142CD3F85D
:104DA800FC0B091A0A44C3F8142CA5E70320FFF7E3
:104DB800F3FED6E7334AB2F8123C591CA2F8121C8B
:104DC8000C2B99D90020FFF7E7FE95E7A5F5FA73B4
:104DD800CEE7304A02212E484FF0F2FC3C27D7E7B5
:104DE8002D4A9342D4DA2A4A126812F0060F06D1E5
:104DF8006FF03B07002FBFF67FAF002236E0254A51
:104E0800022123484FF0DCFC6FF03B07F2E7002358
:104E18001C4AA2F80C3A0136BE42BFF66DAF1F4DD0
:104E280005F5A048B8F80C3A03EB430040010430FC
:104E380005EB4000C022002104305EF054FABA1B92
:104E4800B8F80C3A4FF47A7101FB124203F5B451E9
:104E5800023105EB8105AA60762BD8D801339BB2C5
:104E6800D6E777230749A1F80C3A013ABA427FF707
:104E780043AF044BB3F80C3A002BF2D0013B9BB282
:104E8800F0E700BF08C4002067666666D34D62106D
:104E9800B81400207C550600B911FFFF08740020E3
:104EA80010B5164BB3F80E3A23B3013B9BB2144826
:104EB80000F5A042A2F80E3A03EB43014A0104327E
:104EC80000EB42000430BBB1013B9BB20C4A02F537
:104ED800A041A1F80E3A03EB43035901043102EB58
:104EE8004102141D002104F0CFFE0021204604F0E9
:104EF80085FE10BD7723DAE77723E7E708C40020AB
:104F08000874002010B59AB00446214B0093002382
:104F1800204A602102A827F0F1FE68B103461E4A24
:104F2800126812F0070F20D1002383F31188BFF312
:104F38006F8F0323184602DF03230093602302AA1E
:104F4800C021204627F01EFF034660B1124A1268AE
:104F580012F0070F12D1002383F31188BFF36F8F6C
:104F68000323184602DF1AB010BD4FF40B720092EB
:104F78000A4A012108484FF02EFCD5E74FF40C727D
:104F88000092064A012104484FF025FCE3E700BFE0
:104F9800BC6E002048700020B8140020044F0600A2
:104FA80070B582B0054616461046FFF79DFC4A4B81
:104FB80003F5A042B2F80E4A04F5B451023103EBEE
:104FC80081039B68EB1AC2F8FC3B1EB3762C2DD8E4
:104FD8000134424BB3F80C3AA34232D03F4BA3F80A
:104FE8000E4A3F4B1B783BB13D4B00221A703D4B9C
:104FF8001B6813F0060F1BD104EB4404640104344E
:10500800354B03EB44030433374A1360374B1B78A3
:10501800002B58D10021344B186804F0EFFD2F4BBA
:1050280093F80C3C002B53D102B070BD0024D0E79C
:105038002A4BD3F8F03B2E4A02212A484FF0C0FBF6
:10504800DAE7FEF741FCB0B9254B01221A70234A72
:10505800D2F8F03B0133C2F8F03B264AA2FB031218
:10506800120B41F2883101FB123222B91D4A126833
:1050780012F0060F18D11C48FFF71AFC034660B15E
:10508800184A126812F0070F14D1002383F311880D
:10509800BFF36F8F0323184602DFC0220021124B93
:1050A80018685EF020F9B1E7134A02210D484FF065
:1050B80087FBE0E740F2A7220092104A0121094845
:1050C8004FF089FBE1E7084B1868FFF71BFFA1E7E2
:1050D8002846FFF7BDFCA7E70874002008C4002095
:1050E80034260120B8140020C06E00203526012087
:1050F800B85506005917B7D1DC550600044F06000D
:1051080038B505460024064B83F81C4C2046FFF7AB
:1051180043FD044928464FF005FF204638BD00BF2F
:1051280008C400200856060008B5084B93F80C3C44
:1051380043B1064B012283F81C2C05494FF0F2FEBF
:10514800002008BD03494FF0EDFEF9E708C4002030
:105158002C5606005056060010B504460A4B93F824
:105168001C3C23B109494FF0DDFE002010BD064B61
:10517800002083F80C0CA3F8020CFFF7E9FB0449A4
:1051880020464FF0CFFEF0E708C400208056060006
:10519800B456060008B5044B012283F80C2C0349C9
:1051A8004FF0C0FE002008BD08C40020DC560600F1
:1051B80008B50A4B1B786BB9094B1B6813F0070F2E
:1051C80002D16FF0050008BD064A012104484FF0DE
:1051D800EDFAF6E76FF00F00F5E700BF352601207E
:1051E800B81400200457060008B503485DF06EFFA8
:1051F800024831F073FA08BDF816002000080020B4
:1052080010B50446FFF7F0FF024920464FF08AFE2A
:10521800002010BD205706002DE9F0432DED028B2C
:1052280083B00746042954D11646506803783E4A8D
:10523800D35C13F0040F52D0B3681B783A4AD35C9E
:1052480013F0040F52D00A2200214BF0B1FC04469F
:105258001FFA80F80A220021B0684BF0A9FC054625
:105268001FFA80F90021F0684BF04EFBB0EE408A3F
:10527800B5EEC00AF1EE10FA3FD9F7EE007AB4EEB7
:10528800E70AF1EE10FA38DCA4B2AEB23346224691
:10529800264938464FF046FEB0EE480A4946404691
:1052A800FFF786FF054610F1100F2DD0B5BB18EE9D
:1052B800100AFBF7B1F8CDE90001334622461C4934
:1052C80038464FF02FFE284603B0BDEC028BBDE8F0
:1052D800F08318494FF035FE6FF01505F3E71649CE
:1052E80038464FF02EFE6FF01505ECE713493846A7
:1052F8004FF027FE6FF01505E5E7114938464FF0E6
:1053080020FE6FF01505DEE7FFF76EFFB0EE480AE6
:1053180049464046FFF74CFF0546C7E72A46094974
:1053280038464FF0FFFDC2E7CBBE0700DC5706004A
:10533800185806002C5706007857060094570600A0
:10534800B0570600FC57060008B5A0F6B8324DF66F
:10535800A8639A4204D8114BC3F8180C002008BD62
:105368000F4B1B6813F0060F07D10D4B1B6813F08A
:10537800060F09D16FF01500F1E70346094A02212B
:1053880007484FF01DFAF0E7044BD3F8183C064ADB
:10539800022103484FF014FAECE700BF08C40020CC
:1053A800B81400204C580600745806002DE9F04344
:1053B80085B00E460C9F634991F80180B8F1000F43
:1053C8001AD005461446994620B35F4BD3F8F81B0C
:1053D800A1422AD0002942D0631A43F69722934269
:1053E80031D8A3F51C53063B142B61D901F51C5485
:1053F80010344FF0000834E0544B1B6813F0060FCC
:1054080002D105B0BDE8F083514A02214F484FF060
:10541800CDF9F6E74D4B1B6813F0070FD5D04D4A71
:1054280001214A484FF0C2F9CFE7002CD2D0474BB0
:105438001B6813F0060FE4D02346474A022143486D
:105448004FF0BEF9DDE7414A126802F00702022A6E
:1054580007D9424A03213D484FF0B2F901E04FF025
:105468000008394BC3F8F84B93F81C3C1BBB03AB43
:1054780000933B4B4A463146284600F01FFA034644
:1054880020B1324A126812F0060F1AD1039BB3F505
:10549800F06F1CD02D4A126812F0060FB1D04FF4ED
:1054A800F06200922F4A022128484FF094F9A8E7A9
:1054B8004FF00008D5E7424621463846FFF706FC7C
:1054C800D5E7294A022121484FF07AF9DEE7FFF7AC
:1054D800DBF90A30782804D81B4BB3F80C6A00248F
:1054E8000CE01A4B1B6813F0060F8AD01F4A0221E2
:1054F80016484FF05BF984E700260134092C1DD8C3
:1055080006EB4600400104300E4D05EB40006B6889
:1055180004EB4401C02203EB811104305DF0BCFEB2
:105528004FF47A7303FB047306F5B452023205EBA9
:105538008205AB60762EDFD80136DEE7024BA3F892
:105548000C6A5EE70874002008C40020B814002024
:1055580094580600A8580600C0580600F4580600DB
:105568000C740020485906002C590600785906008A
:1055780010B5A0B1194B1B78F3B1184B5B784BBB36
:10558800164CA06045F6E832002104F10C005DF0ED
:10559800AAFEFFF785FC01236370002010BD104CA4
:1055A8004FF47D7322460F490F484EF0BAF94FF475
:1055B8007D71204606F0EEF90C4B1B6813F0060FC0
:1055C80002D16FF08B00E9E7094A022107484FF042
:1055D800EDF8F6E76FF07700E0E700BF0874002009
:1055E800B0590600F8590600884D0600B814002086
:1055F800105A060038B50B4B5B787BB1094D002477
:105608006C704DF03CFA05F5A045C5F8F84BC5F8A7
:10561800F44B2046FFF7C0FA204638BD6FF07700FC
:10562800FBE700BF0874002010B50D4C45F620427A
:10563800002120465DF057FE0A4804F091FB04F073
:1056480095FB0123237004F5A04484F80C3C84F8EE
:105658001C3C40F6B833C4F8183C002010BD00BF0D
:1056680008740020A94F000010B586B014461A46E9
:105678008C4208D10A9B1A600B9B089A1A60002476
:10568800204606B010BD04940B9B03934FF470732F
:105698000293099B01930091089B022128F01AF8B4
:1056A800044618B90A9B099A1A60E9E7054B1B6872
:1056B80013F0070FE4D00346034A012101484FF0D5
:1056C8007FF8DDE7FC150020CC5C06002DE9F04FE3
:1056D800ADF6247D04AF0446884616461D464FF4B1
:1056E800F0694A46002107F5F2605DF0FCFD4A4684
:1056F800002107F110005DF0F6FD684B1B7B8BB1B4
:10570800664B1B78012B1BD0654A126812F0070FF5
:1057180040F0BC806FF01208404607F61477BD468B
:10572800BDE8F08F5E4B1B6813F0070F02D16FF0D6
:105738000508F1E75B4A012159484FF037F8F6E7C9
:10574800EA46564B1B7D9B00073303F4FF63ADEB22
:10575800030D0DF1100907F10C03019307F53563EB
:10576800009307F5F26310224146204658F064FF83
:10577800804660BB0446494B1B7DA34231DDC4EB28
:10578800041107F1100202EB8113444A926907F1F0
:105798000800039009EB840002900193FB680093D2
:1057A80007F5F26303EB81134BF680314FF4066C77
:1057B8003D480CFB0400FFF757FF834608B9013446
:1057C800D9E7374B1B6813F0070F02D1D846D546E7
:1057D800A2E700902346354A012131484EF0FBFFED
:1057E800F4E7012B09D0022B1DD02D4A126812F0C4
:1057F800070F3FD16FF01208E9E7D9F80000B96840
:10580800BB1D02932A4B01934FF49B730093002313
:105818001A460EF0FDFB002834D1254B3360FB8877
:105828002B60D54678E7D9F80000B968BB1D02930C
:105838001F4B01934FF49B73009300231A460EF0FD
:10584800E7FB08B18046C2E7D9F80400BA1DFB8817
:10585800B9680292164A1A440192C3F59B739BB227
:105868000093012300220EF0D3FB68B9FB885B008C
:10587800FB80D2E70F4A012109484EF0A1FF6FF0E3
:105888001208A4E78046A2E78046A0E70A4A012159
:1058980003484EF095FF6FF012083DE760FA0020CC
:1058A800FC150020F05C0600A0E90020145D06004D
:1058B800A8D70020485D0600745D06002DE9F04F6A
:1058C800ADF62C7D04AF7B608E4B1B7933B3064657
:1058D8000D4690464FF4F0642246002107F5F36028
:1058E8005DF001FD2246002107F118005DF0FBFC88
:1058F80000237B613B61FB60824B1B78012B1BD033
:10590800814A126812F0070F40F0F3806FF012041A
:10591800204607F61C77BD46BDE8F08F7A4B1B681A
:1059280013F0070F02D16FF00504F1E7774A012160
:1059380075484EF03BFFF6E7EA46724B5B799A00F2
:10594800073202F4FF62ADEB020D0DF11009012BD5
:105958000BD0022B56D06C4A126812F0070F40F099
:10596800C0806FF01204D546D2E7CDF8088007F161
:105978000C03019307F5F363009300234FF470724F
:10598800A9B230460EF0B2FB04460028EBD15D4BBD
:10599800996807F110030393CDF8089007F11803ED
:1059A8000193FB68009307F5F3634BF68032584880
:1059B800FFF75AFE044658B1534B1B6813F0070F04
:1059C800D1D00346534A01214F484EF0F9FECAE7A9
:1059D800D9F800004B4BDA79396907F114030193C0
:1059E8004D4B0093102327F06DFA04460028BAD1D6
:1059F8007A69D7F8403F1A60474B7A681360D546F2
:105A0800002485E74FEA550BC5F34F05CDF808800C
:105A180007F10C03019307F5F363009300234FF498
:105A28007072294630460EF061FB044600289AD170
:105A3800CDF8088007F10C03019307F6583300935B
:105A480001234FF47072294606EB0B000EF04EFB53
:105A5800044648B187E700902346304A01212A4886
:105A68004EF0B9FE2AE00134264B5B79A34227DDCC
:105A7800C4EB041307F1180101EB8312214989686B
:105A880007F11000039009EB840002900192FA6874
:105A9800009207F5F36202EB83134BF680324FF462
:105AA80006651B4805FB0400FFF7DEFD05460028D8
:105AB800D9D0154B1B6813F0070FCCD12C4652E7F1
:105AC800D9F80000D9F804103A6907F114030193D2
