:020000040000FA
:10000000C0D00120B557010033700500A157010091
:10001000A1570100A1570100A1570100A1570100FC
:10002000000000000000000000000000015A010074
:10003000A15701000000000071590100A157010003
:100040007D5C01007D5C01007D5C01007D5C010048
:100050007D5C01007D5C01007D5C01007D5C010038
:100060007D5C01007D5C01007D5C01007D5C010028
:100070007D5C01007D5C01007D5C01007D5C010018
:100080007D5C01007D5C01007D5C01007D5C010008
:100090007D5C01007D5C01007D5C01007D5C0100F8
:1000A0007D5C01007D5C01007D5C01007D5C0100E8
:1000B0007D5C01007D5C01007D5C01007D5C0100D8
:1000C0007D5C01007D5C01007D5C01007D5C0100C8
:1000D0007D5C01007D5C01007D5C01007D5C0100B8
:1000E0007D5C01007D5C01007D5C01007D5C0100A8
:1000F0007D5C01007D5C01007D5C01007D5C010098
:100100007D5C01007D5C01007D5C01007D5C010087
:100110007D5C01007D5C01007D5C01007D5C010077
:100120007D5C01007D5C01007D5C01007D5C010067
:100130007D5C01007D5C01007D5C01007D5C010057
:100140007D5C01007D5C01007D5C01007D5C010047
:100150007D5C0100FFFFFFFF81F0004102E000BF76
:1001600083F0004330B54FEA41044FEA430594EA77
:10017000050F08BF90EA020F1FBF54EA000C55EAB2
:10018000020C7FEA645C7FEA655C00F0E2804FEA83
:100190005454D4EB5555B8BF6D420CDD2C4480EA65
:1001A000020281EA030382EA000083EA010180EA95
:1001B000020281EA0303362D88BF30BD11F0004FE3
:1001C0004FEA01314FF4801C4CEA113102D0404219
:1001D00061EB410113F0004F4FEA03334CEA133354
:1001E00002D0524263EB430394EA050F00F0A7806C
:1001F000A4F10104D5F1200E0DDB02FA0EFC22FA67
:1002000005F2801841F1000103FA0EF2801843FA5A
:1002100005F359410EE0A5F120050EF1200E012A4B
:1002200003FA0EFC28BF4CF0020C43FA05F3C01889
:1002300051EBE37101F0004507D54FF0000EDCF102
:10024000000C7EEB00006EEB0101B1F5801F1BD3AB
:10025000B1F5001F0CD349085FEA30004FEA3C0CAF
:1002600004F101044FEA445212F5800F80F09A80A5
:10027000BCF1004F08BF5FEA500C50F1000041EBA9
:10028000045141EA050130BD5FEA4C0C404141EBAD
:100290000101013C28BFB1F5801FE9D291F0000FA8
:1002A00004BF01460020B1FA81F308BF2033A3F157
:1002B0000B03B3F120020CDA0C3208DD02F1140C4E
:1002C000C2F10C0201FA0CF021FA02F10CE002F189
:1002D0001402D8BFC2F1200C01FA02F120FA0CFC82
:1002E000DCBF41EA0C019040E41AA2BF01EB0451CB
:1002F000294330BD6FEA04041F3C1CDA0C340EDCC9
:1003000004F11404C4F1200220FA04F001FA02F30B
:1003100040EA030021FA04F345EA030130BDC4F1C9
:100320000C04C4F1200220FA02F001FA04F340EABE
:100330000300294630BD21FA04F0294630BD94F06F
:10034000000F83F4801306BF81F480110134013D56
:100350004EE77FEA645C18BF7FEA655C29D094EAC7
:10036000050F08BF90EA020F05D054EA000C04BF45
:100370001946104630BD91EA030F1EBF0021002030
:1003800030BD5FEA545C05D14000494128BF41F0CF
:10039000004130BD14F580043CBF01F5801130BD33
:1003A00001F0004545F0FE4141F470014FF00000BE
:1003B00030BD7FEA645C1ABF194610467FEA655C6F
:1003C0001CBF0B46024650EA013406BF52EA033511
:1003D00091EA030F41F4002130BD00BF90F0000FFF
:1003E00004BF0021704730B54FF4806404F132043B
:1003F0004FF000054FF0000150E700BF90F0000FF4
:1004000004BF0021704730B54FF4806404F132041A
:1004100010F0004548BF40424FF000013EE700BFEA
:1004200042004FEAE2014FEA31014FEA02701FBF7A
:1004300012F07F4393F07F4F81F06051704732F0AC
:100440007F4208BF704793F07F4F04BF41F4002103
:10045000704730B54FF4607401F0004521F0004161
:100460001CE700BF50EA010208BF704730B54FF0EB
:1004700000050AE050EA010208BF704730B511F0EC
:10048000004502D5404261EB41014FF4806404F124
:1004900032045FEA915C3FF4D8AE4FF003025FEAAA
:1004A000DC0C18BF03325FEADC0C18BF033202EB2E
:1004B000DC02C2F1200300FA03FC20FA02F001FA88
:1004C00003FE40EA0E0021FA02F11444BDE600BF2B
:1004D00070B54FF0FF0C4CF4E06C1CEA11541DBFDA
:1004E0001CEA135594EA0C0F95EA0C0F00F0DEF8A5
:1004F0002C4481EA030621EA4C5123EA4C5350EA8A
:10050000013518BF52EA033541F4801143F48013DA
:1005100038D0A0FB02CE4FF00005E1FB02E506F06B
:100520000042E0FB03E54FF00006E1FB03569CF0C0
:10053000000F18BF4EF0010EA4F1FF04B6F5007FC6
:1005400064F5407404D25FEA4E0E6D4146EB060638
:1005500042EAC62141EA55514FEAC52040EA5E50C1
:100560004FEACE2EB4F1FD0C88BFBCF5E06F1ED86B
:10057000BEF1004F08BF5FEA500E50F1000041EBA2
:10058000045170BD06F0004646EA010140EA02004F
:1005900081EA0301B4EB5C04C2BFD4EB0C0541EA71
:1005A000045170BD41F480114FF0000E013C00F386
:1005B000AB8014F1360FDEBF002001F0004170BDAA
:1005C000C4F10004203C35DA0C341BDC04F11404C3
:1005D000C4F1200500FA05F320FA04F001FA05F24F
:1005E00040EA020001F0004221F0004110EBD3701C
:1005F00021FA04F642EB06015EEA430E08BF20EA48
:10060000D37070BDC4F10C04C4F1200500FA04F3EA
:1006100020FA05F001FA04F240EA020001F000417C
:1006200010EBD37041F100015EEA430E08BF20EAEF
:10063000D37070BDC4F1200500FA05F24EEA020E37
:1006400020FA04F301FA05F243EA020321FA04F066
:1006500001F0004121FA04F220EA020000EBD3701D
:100660005EEA430E08BF20EAD37070BD94F0000F1D
:100670000FD101F00046400041EB010111F4801F51
:1006800008BF013CF7D041EA060195F0000F18BF02
:10069000704703F00046520043EB030313F4801F3E
:1006A00008BF013DF7D043EA0603704794EA0C0FF8
:1006B0000CEA135518BF95EA0C0F0CD050EA41060E
:1006C00018BF52EA4306D1D181EA030101F000418B
:1006D0004FF0000070BD50EA410606BF10461946B3
:1006E00052EA430619D094EA0C0F02D150EA0136BF
:1006F00013D195EA0C0F05D152EA03361CBF104600
:1007000019460AD181EA030101F0004141F0FE419E
:1007100041F470014FF0000070BD41F0FE4141F422
:10072000780170BD70B54FF0FF0C4CF4E06C1CEA22
:1007300011541DBF1CEA135594EA0C0F95EA0C0FD7
:1007400000F0A7F8A4EB050481EA030E52EA033592
:100750004FEA013100F088804FEA03334FF08055B3
:1007600045EA131343EA12634FEA022245EA1115E0
:1007700045EA10654FEA00260EF000419D4208BF91
:10078000964244F1FD0404F5407402D25B084FEA3E
:100790003202B61A65EB03055B084FEA32024FF4EA
:1007A00080104FF4002CB6EB020E75EB030E22BF47
:1007B000B61A754640EA0C005B084FEA3202B6EB07
:1007C000020E75EB030E22BFB61A754640EA5C00B6
:1007D0005B084FEA3202B6EB020E75EB030E22BF46
:1007E000B61A754640EA9C005B084FEA3202B6EB47
:1007F000020E75EB030E22BFB61A754640EADC0006
:1008000055EA060E18D04FEA051545EA16754FEA67
:1008100006164FEAC30343EA52734FEAC2025FEA85
:100820001C1CC0D111F4801F0BD141EA00014FF014
:1008300000004FF0004CB6E711F4801F04BF0143E5
:100840000020B4F1FD0C88BFBCF5E06F3FF6AFAE01
:10085000B5EB030C04BFB6EB020C5FEA500C50F191
:10086000000041EB045170BD0EF0004E4EEA113114
:1008700014EB5C04C2BFD4EB0C0541EA045170BD1B
:1008800041F480114FF0000E013C90E645EA060E5F
:100890008DE60CEA135594EA0C0F08BF95EA0C0F8D
:1008A0003FF43BAF94EA0C0F0AD150EA01347FF4D5
:1008B00034AF95EA0C0F7FF425AF104619462CE7AC
:1008C00095EA0C0F06D152EA03353FF4FDAE10460F
:1008D000194622E750EA410618BF52EA43067FF460
:1008E000C5AE50EA41047FF40DAF52EA43057FF4F0
:1008F000EBAE12E74FEA410212F5001215D211D504
:100900006FF47873B3EB625212D94FEAC12343F00C
:10091000004343EA505311F0004F23FA02F018BF8E
:10092000404270474FF00000704750EA013005D157
:1009300011F0004008BF6FF0004070474FF000001A
:10094000704700BF4FEA4102B2F1E04324BFB3F564
:10095000001CDCF1FE5C0DD901F0004C4FEAC00236
:100960004CEA5070B2F1004F40EB830008BF20F01A
:100970000100704711F0804F21D113F13872BCBFD4
:1009800001F00040704741F480114FEA5252C2F129
:100990001802C2F1200C10FA0CF320FA02F018BF72
:1009A00040F001004FEAC1234FEAD32303FA0CFCC5
:1009B00040EA0C0023FA02F34FEA4303CCE77FEA54
:1009C000625307D150EA01331EBF4FF0FE4040F49E
:1009D0004000704701F0004040F0FE4040F400004D
:1009E000704700BF7BB972B90029BEBF00204FF02D
:1009F000004106E008BF00281CBF6FF000414FF027
:100A0000FF3000F075B8ADF1080C6DE904CE002997
:100A100009DB002B1ADB00F042F9DDF804E0DDE928
:100A2000022304B07047404261EB4101002B1BDB05
:100A300000F035F9DDF804E0DDE9022304B04042BE
:100A400061EB4101524263EB43037047524263EB57
:100A5000430300F024F9DDF804E0DDE9022304B0EB
:100A6000404261EB41017047524263EB430300F0A7
:100A700016F9DDF804E0DDE9022304B0524263EB2D
:100A80004303704753B94AB9002908BF00281CBF67
:100A90004FF0FF314FF0FF3000F02AB8ADF1080CF5
:100AA0006DE904CE00F0FBF8DDF804E0DDE9022397
:100AB00004B07047D0B500220B4B06460F46FFF737
:100AC00007FD00F09FF80446FFF788FC0022074B63
:100AD000FFF7FEFC02460B4630463946FFF740FB67
:100AE00000F090F82146D0BD0000F03D0000F0413C
:100AF000704700BF4FF0FF3C06E000BF4FF0010C15
:100B000002E000BF4FF0010C4DF804CD4FEA410C5C
:100B10007FEA6C5C4FEA430C18BF7FEA6C5C1BD029
:100B200001B050EA410C0CBF52EA430C91EA030FAA
:100B300002BF90EA020F0020704710F1000F91EA07
:100B4000030F58BF994208BF90422CBFD8176FEAD5
:100B5000E37040F0010070474FEA410C7FEA6C5CA3
:100B600002D150EA013C07D14FEA430C7FEA6C5CAA
:100B7000D6D152EA033CD3D05DF8040B704700BFD6
:100B80008446104662468C461946634600E000BF24
:100B900001B5FFF7B7FF002848BF10F1000F01BDF6
:100BA0004DF808EDFFF7F4FF0CBF012000205DF8C1
:100BB00008FB00BF4DF808EDFFF7EAFF34BF012046
:100BC00000205DF808FB00BF4DF808EDFFF7E0FFDF
:100BD00094BF012000205DF808FB00BF4DF808ED30
:100BE000FFF7CEFF94BF012000205DF808FB00BF97
:100BF0004DF808EDFFF7C4FF34BF012000205DF879
:100C000008FB00BF4A0011D212F5001211D20DD517
:100C10006FF47873B3EB62520ED44FEAC12343F002
:100C2000004343EA505323FA02F070474FF00000AC
:100C3000704750EA013002D14FF0FF3070474FF05B
:100C4000000070474FEA410C7FEA6C5C02D150EA29
:100C5000013C0AD14FEA430C7FEA6C5C02D152EAB4
:100C6000033C02D14FF0000070474FF00100704785
:100C700038B50022002304460D46FFF79BFF28B934
:100C800020462946BDE83840FFF714BF204605F14D
:100C90000041FFF70FFF404261EB410138BD2DE9F4
:100CA000F04786468C460846089E15467446194607
:100CB000002B40F0C1808542B2FA82F245D94AB198
:100CC000C2F1200300FA02FC954094402EFA03F38F
:100CD00043EA0C0C4FEA154EA8B2230CBCFBFEF8FD
:100CE0000EFB18CC08FB00F943EA0C43994528D9C0
:100CF000EB1808F1FF3704D2994502D9A8F1020791
:100D00002B44A3EB0903A4B2B3FBFEFC0EFB1C3384
:100D10000CFB00F044EA0344A04214D92C190CF156
:100D2000FF3304D2A04202D9ACF102032C44241AAE
:100D300043EA07401EB1D440002334607360BDE82D
:100D4000F0874746DDE76346F1E792BB431B01218D
:100D50004FEA154EAFB2200CB3FBFEFC0EFB1C336A
:100D60000CFB07F840EA0343984561D9EB180CF1F6
:100D7000FF3004D2984502D9ACF102002B44A3EB1A
:100D80000803A4B2B3FBFEFC0EFB1C330CFB07F7FD
:100D900044EA0344A7424DD92C190CF1FF3304D285
:100DA000A74202D9ACF102032C44E41B43EA004001
:100DB000C0E7C2F120039540944020FA03F12EFAD7
:100DC00003F34FEA154E9040AFB20343B1FBFEFC74
:100DD0000EFB1C10190C0CFB07F841EA004188457A
:100DE00022D969180CF1FF3004D2884502D9ACF140
:100DF00002002944A1EB08019BB2B1FBFEFC0EFBF3
:100E00001C110CFB07F743EA01439F420ED9EB1874
:100E10000CF1FF3104D29F4202D9ACF102012B4404
:100E2000DB1B41EA004193E76046E3E76146F7E7F1
:100E30006046A4E76346B8E7834206D916B90021A5
:100E400008467CE7C6E900E0F9E7B3FA83F78FB913
:100E5000834201D3724508D8BEEB020460EB030362
:100E600001209C461EB9002169E73846FAE7C6E929
:100E7000004CF8E7C7F1200CBB400EFA07F522FA48
:100E80000CF42EFA0CF1BA401C4320FA0CF3B840D3
:100E90004FEA144901431FFA84FEB3FBF9F809FB3A
:100EA00018300B0C08FB0EFA43EA00439A4540D970
:100EB000E31808F1FF3004D29A4502D9A8F10200E4
:100EC0002344A3EB0A0389B2B3FBF9F809FB1833F7
:100ED00008FB0EFE41EA03418E452CD9611808F14A
:100EE000FF3304D28E4502D9A8F10203214443EA1C
:100EF0000040A1EB0E01A0FB02984145CE464346BF
:100F000002D306D14D4504D20138B9EB020E68EB8D
:100F10000403002EA7D0B5EB0E0261EB030101FA2A
:100F20000CFC22FA07F3F9404CEA0303C6E900314E
:100F300099E74046C5E74346D9E770B4840746D0F1
:100F40004C1E002941D0D5B2034602E0611EE4B335
:100F50000C4603F8015B9907F8D1032C2ED9D5B2C2
:100F600045EA05250F2C45EA054519D9264603F122
:100F70001001103E0F2E41F8105C41F80C5C41F856
:100F8000085C41F8045C01F11001F2D8A4F11001F1
:100F900021F00F0104F00F041031032C0B440DD984
:100FA0001E4621460439032946F8045BFAD8211F5E
:100FB00021F0030104310B4404F003042CB1D2B23C
:100FC0001C4403F8012BA342FBD170BC70470C46B4
:100FD0000346C2E710F8012B11F8013B012A28BF94
:100FE0009A42F7D0D01A7047034613F8012B002A13
:100FF000FBD1181A0138704710B584460C460C48CE
:10100000ACFB000108A3D3E900234FF0070E0EFB51
:101010000C11FFF737FD074B1B68074A02FB030063
:10102000204410BDAFF3008000CA9A3B00000000CE
:101030008D49FD1A440301200080841E0000000039
:101040002DE9F04D2DED028B88B000AF05464068CC
:101050008368DB683C219847041EC0F233816868CE
:1010600083681B6907F118021F219847041EC0F20C
:101070002981686883681B6907F11002212198475C
:10108000041EC0F21F81686883681B6907F10802AB
:1010900022219847041EC0F21581914B1B6803F072
:1010A0000703022B40F215812E68B869FFF7A6F9F5
:1010B00004460D46F869FFF7A1F987A3D3E9002399
:1010C000FFF730FB02460B4620462946FFF74AF859
:1010D00000220023FFF746F841EC180B3869FFF7B0
:1010E0008DF904460D467869FFF788F97AA3D3E9AC
:1010F0000023FFF717FB02460B4620462946FFF761
:1011000031F80022774BFFF7E3F900220023FFF7C5
:1011100029F882468B46B868FFF770F904460D46F9
:10112000F868FFF76BF96CA3D3E90023FFF7FAFA2D
:1011300002460B4620462946FFF714F80022694B69
:10114000FFF7C6F900220023FFF70CF841EC170B5C
:101150006D4600233B7102237B711C230C2213F08C
:10116000070F02D10832083304E004320433F6E7F3
:101170000432043313F0070FFAD10832083301E0C8
:101180000432043313F00704FAD102F10A0C634667
:10119000213222F00702ADEB020D6A46BCF1000FCE
:1011A0007AD002F11008BCF1030F73D9B8F1000F27
:1011B00004D0BCF1040F01DD4B4B536100233B70A5
:1011C00002237B70B8F1000F03D0BCF1080F00DDE3
:1011D00096611C210C200B4611F0070F0DD186469D
:1011E000B8F1000F05D0604503DA08EB000181ED8E
:1011F000008B0EF1080E083305E004300431EAE7F5
:101200000EF1040E0433194613F0070FF8D1764699
:10121000B8F1000F05D0E64503DA08EB0E03C3E989
:1012200000AB083601F1080301E00436043313F083
:10123000070FFAD13346B8F1000F05D0664503DA3F
:1012400008EB060181ED007B03F108060A33B8F1D3
:10125000000F0DD008EB0601002007E000F1200E82
:10126000BE441EF820EC01F801EB01300128F5D94D
:101270009C4501DA6FF01B03B8F1000F0CD0C6F3E8
:1012800087063E7100217971B9710121F971786881
:10129000106101E06FF01B0300216FF300016FF399
:1012A00041016FF382016FF3C501032060F38811E0
:1012B00063F353216FF31F511032002308480FF0DE
:1012C00059FAAD4620462037BD46BDEC028BBDE83D
:1012D000F08D0024F6E700BF0000000080842E415E
:1012E000D015002000408F40F49006000000000060
:1012F0002DE9F04F8DB009900D46174662F085FB41
:101300004B0143EAD0634401241A63EB01039B00C1
:1013100043EA9473A400241843EB0101C90041EA95
:101320005471C4F3103444EA41444FEAD139012DD9
:1013300065D07D6829463C48FFF74CFE28B1294618
:101340003A48FFF747FE002861D135A3D3E90023CF
:1013500020464946FFF746FB80460A9130A3D3E971
:10136000002320464946FFF73DFB15461C46304A00
:10137000002328462146FFF735FB06460F462C4A38
:10138000002328462146FFF72DFB15461C464EF646
:101390006022002328462146FFF724FB81460B915B
:1013A0004EF66022002328462146FFF71BFB154618
:1013B0001C464FF47A72002328462146FFF712FBA1
:1013C00083468A464FF47A72002328462146FFF767
:1013D00009FBCDE90623CDF810B0CDF814A0CDF867
:1013E00008900B9A03920096019742460A9B114976
:1013F000099854F031FB00200DB0BDE8F08F224673
:101400004B460D49099854F027FB0020F4E72A4683
:101410000A49099854F02FFB6FF00400ECE700BF75
:10142000005C260500000000ECA40600F0A4060005
:1014300080EE360014A50600D8A40600FCA4060021
:1014400010B5082140F6014017F010FDD8B1044650
:1014500008210C3015F0BEFC02460F4B93F890307B
:1014600013F0010F0BD10D484FF0005157F0EAF87F
:101470000022214640F6014018F03AF910BD04A1BF
:10148000D1E90001F2E76FF06800F7E7AFF3008001
:101490009088000200800020E004002010880002F4
:1014A00030B589B00C9D00283FD00446002949D0B2
:1014B000D0F8200110F0010F51D10020C4F808012C
:1014C000C4F80C0104F58870C4F81001C4F81401C4
:1014D00004F58C70C4F81801C4F81C01002D4BD021
:1014E000287900284AD10120C4F820019FED267BED
:1014F0008DED067B002004900393029001900094F0
:10150000234B204636F05CFB55B1296811B12046CB
:1015100036F010FA6B791BB1237B43F00103237380
:10152000204662F01AF909B030BD1A4C40F2DF23B0
:1015300022461949194852F08EFF40F2DF21204619
:101540000AF0A2FD134C4FF4387322461449134895
:1015500052F081FF4FF4387120460AF095FD0D4C92
:1015600040F2E12322460F490C4852F074FF40F24A
:10157000E12120460AF088FD0120B5E740F2011084
:10158000B2E700BFAFF30080FFFFFFFFFFFFFFFFE9
:10159000756E0300F04C0700D84D0700B8570600E1
:1015A000E04D0700E84D07009FED010B704700BFBD
:1015B000000000000000F87F2DE9F04F1F469DB0AD
:1015C00000230C4682460F9218934FF00008984B68
:1015D0004FF000091D682846FFF706FD22468346A6
:1015E000179213782B2B3BD02CD80D2B26D8082BF9
:1015F00026D8002B2FD000230D93179E3378302B45
:1016000074D1737803F0DF03582B65D10D9B17A9B4
:10161000884A5046019318AB0297009319AB50F0DB
:1016200031FC10F00705044635D0062D1AD10F9B6A
:101630000BB101361E6042464B4637E0202BDAD113
:101640000132CDE72D2BD6D101230D93531C1793D7
:101650005378002BD1D10F9B002BECD01C60EAE714
:101660000023F2E7189A3AB135211AA862F064FF14
:101670001899504650F086FE013D199A042D06D85F
:10168000DFE805F0190322251900DDE91A89210791
:1016900001D549F000490F9B13B1179B0F9A1360B6
:1016A0000D9B002BC7D0424609F1004343EC102BA1
:1016B0001DB0BDE8F08FDDE91A8302F2334223F456
:1016C000801343EA0259E2E7DFF86C91DFE76FF03D
:1016D00000494FF0FF38DAE7179B5A1C17925B78E6
:1016E000302BF9D0002BD6D0012300E000230027B7
:1016F00004930A22179BCDE905770A931798067879
:10170000A6F13003D9B2092924D95A46294662F0F4
:101710003EFC00282DD000203246059D834603461E
:10172000652A01D0452A13D11DB9049A024392D0EB
:101730000025179C621C179262782B2A6ED02D2AE6
:1017400072D04FF0000CA2F1300109297AD9179418
:10175000002699E00599013008291790D7BF06990E
:1017600002FB073702FB01330693059B0133059308
:10177000C4E7179B03EB0B02179213F80B20059B92
:10178000A3B383461D46A2F13003092B12D90123CE
:10179000C6E7179B01305A1C17925A78302AF8D0A6
:1017A000A2F13103082B00F2EF8483460020179B3F
:1017B00005460A93303A00F1010311D09B4400EB37
:1017C000050C2B460A21634512D12B180135082B35
:1017D000054419DC06990A2303FB01230693002321
:1017E000179A1846511C17915278CCE70598D5E7FF
:1017F000082B03F1010303DC069E4E430696E2E745
:10180000102BD8BF4F43DEE70F2BDCBF0A2303FBAF
:101810000727E4E74FF0000B012386E74FF0000CA9
:10182000A21C1792A2788EE74FF0010CF8E700BFD8
:10183000748307005C8307000000F07F179A511C37
:1018400017915278302AF9D0A2F1310108293FF6D8
:101850007FAF303A0792179A0C92179A561C179638
:101860005278A2F1300EBEF1090F38D90C99761AD0
:10187000082E44F61F6603DC07998E42A8BF0E4669
:10188000BCF1000F00D07642002D4FD104990843DF
:101890007FF401AF002B7FF4DEAE692A29D026DC6D
:1018A000492A26D04E2A7FF4D6AE9B4917A862F06B
:1018B000D8FC00283FF4CFAE179B1B78282B2FD1E4
:1018C0001AAA964917A862F0E0FC052828D11B9BAC
:1018D000DDF8688043F0FF4949F4E009DBE6079E44
:1018E0000A2101FB0621A1F130020792B5E76E2A19
:1018F000D9E78B4917A862F0B4FC00283FF4ABAEDF
:10190000179B17A88749013B179362F0AAFC10B9EF
:10191000179B01331793DFF81C924FF00008BAE6CB
:101920008148FFF741FE59EC108BB4E6A6EB0B03A0
:1019300006982C460C93059B002B08BF2B46102DB8
:101940000593A8BF1024FEF749FD092D804689465E
:1019500013DC0C9B002B3FF49EAE0C9B78DD162B0A
:1019600045DC7249424601EBC3014B46D1E9000117
:10197000FEF7AEFD804689468DE66C4B03EBC40353
:1019800053E91223FEF7A4FD804689463846FEF748
:1019900025FD02460B4640464946FEF7E3FB0F2D68
:1019A00080468946D5DD2C1B0C9B1C44002C25DC75
:1019B00000F0A280644214F00F020AD05B4B404654
:1019C000494603EBC203D3E90023FEF7ABFE804692
:1019D0008946241100F090801F2C40F3B18022230F
:1019E0004FF000084FF00009CAF8003053E6C5F187
:1019F00025030C9A934219DA2C1B144414F00F039C
:101A00000AD04A49424601EBC3014B46D1E90001E5
:101A1000FEF75EFD8046894634F00F046CD0B4F5C5
:101A20009A7F41DD2223CAF8003074E7C5F10F0523
:101A30003E4C42464B4604EBC501D1E90001FEF79E
:101A400047FD0C9B5D1B04EBC504D4E900238FE725
:101A50001633A8DBABEB0602344B4046494603EB9A
:101A6000C203D3E90023FEF75DFE83E7002306935C
:101A70002223DFF8C0904FF00008CAF80030189910
:101A8000504650F07FFC0699504650F07BFC05997B
:101A9000504650F077FC1099504650F073FC07996F
:101AA000504650F06FFCF6E50023241140464946AD
:101AB0001F4F0493012C22DC0BB180468946049B06
:101AC000A9F154791A49424601EBC3014B46D1E9C9
:101AD0000001FEF7FDFC174B0A4680460B401649F5
:101AE0008B429FD8A1F580118B4286BFDFF84C90C6
:101AF0004FF0FF3802F15479002304934BE0E207E2
:101B000004D5D7E90023FEF7E3FC0123049A64100F
:101B1000083701320492CDE71CCC07004883070048
:101B200014CC070046CC0700DACD0700D8550600D4
:101B3000B05506000000F07F0000A07CFFFFEF7FA3
:101B400014F0100340464946AA4F18BF6A23049375
:101B50000023E20704D5D7E90023FEF7B9FC0123EF
:101B6000641007F10807F4D10BB180468946049B45
:101B700043B1C9F30A524946C2F16B03002B4EDC54
:101B80006A2304930022002340464946FFF708F8E1
:101B900000287FF424AF069B5046059A00932B46FD
:101BA0000A9950F059FC109000283FF43BAF0C9B71
:101BB000ABEB060B002BB4BF5B46002311930C9BD1
:101BC00023EAE3731393002307930593109B504676
:101BD000596850F097FB069000283FF449AF109BDE
:101BE0000C301A6903F10C010232920062F078F8AD
:101BF0001AAA19A9504649EC108BCDE90A8950F070
:101C000007FF189000283FF433AF0121504650F0F1
:101C10006DFC03460590D0B90023059328E71F2BE0
:101C20000EDD342B4FF00008DBBF4FF0FF33C2F165
:101C30004B024FF05C799340D8BF03EA01099FE75C
:101C40004FF0FF3202FA03F303EA080898E7199C01
:101C50001A9A002CA9BF119B139BE718139EB8BFBB
:101C60001E1B049BB8BF119FE41A634B1444C2F1BE
:101C70003602013C9C4280F2B0801B1B01251F2BC9
:101C8000A2EB0302CDBFC4F17F449D40002404F5C4
:101C90007F04C2BF04F57B44E23405FA04F407EB89
:101CA000020B049B16445F451E443B46A8BF5B469F
:101CB000B342A8BF3346002BC2BFABEB030BF61AEF
:101CC000FF1A119B002B16DD1A460599504650F05D
:101CD000CDFC059000289FD00146189A504650F040
:101CE0001BFC0E9000283FF4C3AE1899504650F0EC
:101CF00049FB0E9B1893BBF1000F71DC0C9B002B72
:101D000008DD139A5046069950F0B0FC0690002862
:101D10003FF4ACAE002E08DD32460699504650F036
:101D2000FFFC069000283FF4A1AE002F08DD3A46E4
:101D30000599504650F0F4FC059000283FF498AE09
:101D4000069A5046189950F057FD079000283FF426
:101D50008FAEC36805990E930023C36062F09FFBAA
:101D600000284BDA0E9B53EA080340F0BC80C9F30D
:101D70001303002B40F0B78029F000431B0D1B0517
:101D8000B3F1D66F40F2AF80079B5B6923B9079B25
:101D90001B69012B40F3A78001220799504650F0A0
:101DA000BFFC0599079062F07AFB002840F39B8006
:101DB00029F00043049A1B0D1B05002A79D0B3F1CA
:101DC000D66F6DD8B3F15C7F46D84FF000084FF066
:101DD00000092223CAF8003051E6002401255EE7FD
:101DE0005A461899504650F09BFC1890002885D10F
:101DF0003EE600BF8855060002FCFFFFCB4640F0E0
:101E0000A3800E9AC9F31303002A40D09C4A934240
:101E100058D1049B42467BB9B8F1FF3F40F089801E
:101E2000984B99453FF424AE974BDDF8108009EAB2
:101E3000030303F5801922E6934B09EA0303B3F188
:101E4000D46F16D918F101011BD18E4A91453FF488
:101E50000FAE03F5801980468C4B40464946002260
:101E6000FEF736FB0B468046894603437FF407AEF8
:101E7000AFE71E0D4FF0FF31C6F16B06B14088454C
:101E8000E7D0002C5ED014EA0B0FE5D01EE0002B4B
:101E90004AD1B8F1000F8BD064B314EA0B0F2BE0DA
:101EA000A3F580134FF0FF386FEA13596FEA095911
:101EB000D2E7A3F580134FF0FF386FEA13596FEAAA
:101EC0000959DCE59CB114EA090F0CD0404649469B
:101ED000049A62F0A3F8DDE90A0153EC102BFEF737
:101EE00041F980468946049B002BB5D1C7E515EA28
:101EF000080FEAE718EA050FF5D0049A404649466C
:101F000062F08CF8DDE90A0153EC102BFEF728F99A
:101F10000022002304460D46FEF742FE00287FF40F
:101F200054AFA046A946DEE7002CB6D115EA080F4B
:101F3000E2E724B114EA090F3FF4A1ADC6E718EABD
:101F4000050FF9E72A42A0E70599079862F0C2FA5F
:101F500000224FF0804355EC104B20462946FEF7F7
:101F600033FE00286DD00E9B002B78D1B8F1000F06
:101F700056D1C9F31303002B59D10022444B2046FC
:101F80002946FEF717FE002858D120462946002290
:101F9000404BFEF79DFA04460D4605F100430894B8
:101FA0000993394B0BEA03031293129A3A4B9A4264
:101FB000DDE9086740F0A980ABF1547949EC108B5A
:101FC00050F0B2FCDDE9082351EC100BFEF780FA6B
:101FD00042464B46FEF7C6F80B462B4980462F4A31
:101FE000194091425CD90B9A264B9A4203D10A9B25
:101FF00001333FF43DADDFF88C904FF0FF38189976
:10200000504650F0BFF90699504650F0BBF905997B
:10201000504650F0B7F90799504650F0B3F9D5E55E
:10202000B8F1010F03D1B9F1000F3FF4CEAE002497
:10203000174D9FED0F7B8DED087BB2E70024154D0A
:10204000ABE7144B204629460022FEF741FA0E9BCF
:1020500004460D46002BA0D0CDE90845A1E79FED31
:10206000067B55EC174B8DED087B9AE7AFF30080AC
:10207000000000000000F0BF000000000000F03F82
:10208000FFFF0F00FFFFEF7F0000F07F00005039DF
:102090000000F03F0000E03F0000E07FFFFF9F7C7A
:1020A00003F15479049B4E46002BA8D129F000433C
:1020B000129A1B0D1B059A42A1D120462946FEF714
:1020C000D7FDC9F31306FEF7D5F90B46024629469C
:1020D000204646EA0806FEF743F80E9B04460D46E6
:1020E0001E434BD02EA3D3E90023FEF763FD002847
:1020F0007FF4C5AC204629462BA3D3E90023FEF785
:1021000077FD00283FF47BAFB9E4049B13B3129B27
:10211000B3F1D46F1ED82046294625A3D3E9002366
:10212000FEF752FD90B129462046FEF76BFD0128CF
:1021300038BF0120FEF752F90E9B04460D46D3B975
:1021400001F1004314901593DDE9146707F1D6639C
:10215000129A9F1A9DED0A0B50F0E6FB3046394665
:1021600053EC102BFEF7B4F9DDE90A23FDF7FAFF73
:102170008046894696E7CDE91445E5E70EA3D3E905
:102180000023FEF717FDBCE7652A3FF443AB452A61
:102190003FF440AB0123FFF779BB00BFAFF30080F2
:1021A0009535A094FFFFDF3F35E5AF350000E03FF8
:1021B0000000C0FFFFFFDF419535A094FFFFCF3F38
:1021C0002DE9F04F476A97B08346209E08910C9204
:1021D000129355EC104B8DED000B7FB910204FF092
:1021E000CDF80246CBF8240020B9A74BEA21A74836
:1021F00050F066FCC0E901770760C760DBF8243067
:10220000196859B15A680123584693404A608B6057
:1022100050F0B8F8DBF8243000221A602B1EB7BF4C
:1022200023F00043002301220193A8BF3360019FE4
:10223000974BB8BF3260BB4319D142F20F73129A69
:102240001360C7F31303234300F0DB85219B53B9CD
:10225000904B21E0904B03930833219A136003982D
:1022600017B0BDE8F08F8B4B03930333F5E79DED7B
:10227000007B0022002351EC170B8DED0A7BFEF74B
:102280008FFC804650B10123129A1360219B13B139
:10229000824B219A1360824B0393E0E7C7F30A56FF
:1022A00014AA15A958469DED0A0B50F0B1FB0290F7
:1022B000002E76D00B9BA6F2FF36CDF84C80C3F3F0
:1022C000130343F07F53DDE90A0143F44013194639
:1022D0000022744BFDF744FF65A3D3E90023FEF70A
:1022E000F7F865A3D3E90023FDF73CFF04460D464C
:1022F0003046FEF783F862A3D3E90023FEF7E8F83F
:1023000002460B4620462946FDF72CFF04460D46A3
:10231000FEF7F0FA00220746002320462946FEF782
:1023200049FC40B13846FEF769F822462B46FEF7D5
:1023300037FC00B9013F162F52D85B4B03EBC703A4
:10234000DDE90A01D3E90023FEF734FC002849D077
:10235000013F00231193149B9B1B5A1E4CBFC3F1DA
:1023600001030023079245BF0693002306930793BA
:10237000002F39DB079B10973B44079300230993F9
:10238000089B092B66D8052BC5BF043B00240124FC
:102390000893089B023B032B67D8DFE803F02D3A34
:1023A0003859DDE914631E4406F23243202BC9BFBD
:1023B000C3F14003C3F120039F4006F21243D8BF8C
:1023C00004FA03F006F1FF36C4BF24FA03F347EA28
:1023D0000300FEF703F80122A1F1F873139276E7E8
:1023E0000123B7E71190B6E7069BDB1B06937B4200
:1023F000099300231093C3E700230D930C9B002B3C
:1024000056DC012399461A4604930C920CE00123F2
:10241000F3E700230D930C9BFB1803F101090493D0
:102420004B46012BB8BF0123DBF824000021042216
:1024300002F114059D423FD9416058464FF062FFBA
:10244000039000283BD1194B02464FF4D571CEE6DC
:102450000123DFE7012400230D9408934FF0FF339D
:102460000022994604931223CFE701230D93F5E749
:1024700061436F63A787D23FB3C8608B288AC63F8A
:10248000FB799F501344D33F50CC070067CC070023
:102490000000F07F4CCC070043CC070020CC0700A5
:1024A0001FCC07000000F83FD8550600C3CC07003A
:1024B0000C9B99460493B7E701315200B8E7DBF86B
:1024C0002430B9F10E0F039A1A606FD8002C6DD02A
:1024D000002F36DD07F00F02A04BF8054FEA271456
:1024E00003EBC20393ED007B8DED0E7B17D59C4B68
:1024F00004F00F044FF00308D3E90823DDE90A01D3
:10250000FEF710F9CDE90001954D5CB9DDE90E2328
:10251000DDE90001FEF706F9CDE900012BE04FF0FF
:102520000208F1E7E10709D508F10108DDE90E012C
:10253000D5E90023FDF7CCFFCDE90E016410083585
:10254000E3E700F007817C42844B854D4FF00208A1
:1025500004F00F02241103EBC203DDE90A01D3E901
:102560000023FDF7B5FF0023CDE90001002C40F06A
:10257000E580002BD0D1119BDDE90045002B00F058
:102580004C810022774B20462946FEF713FB00289A
:1025900000F04381B9F1000F00F03F81049B002B54
:1025A00000F3E480DDE90A34CDE90034159B002B0B
:1025B00002DB0E2F40F342820D9A002A40F0678220
:1025C000099C0025DDF81880B8F1000F0DD0079B9D
:1025D000002B0ADD4345069AA8BF4346D21AA8EB52
:1025E00003080692079AD31A0793099B0BB30D9B16
:1025F000002B00F0A682002C00F0A1822946224682
:10260000584650F033F8029A0146054658464FF0B6
:1026100083FF0299064658464FF0B4FE099B1B1BE8
:10262000099300F09182099A3146584650F01EF8FD
:102630000290012158464FF059FF109B0446002B91
:1026400000F084821A460146584650F00FF8089B65
:102650000446012B03DC009B002B00F07C8200264B
:10266000236904EB8303186961F0CAFEC0F12000FE
:102670001096079B184410F01F0000F09182C0F1E3
:102680002003042B40F38182C0F11C00069B03440D
:1026900080440693079B03440793069B002B05DDAC
:1026A0001A460299584650F03BF80290079B002BBF
:1026B00005DD21461A46584650F032F80446119B73
:1026C000002B00F076822146029861F0E8FE002897
:1026D00080F26F8200230A22029958464FF074FE5E
:1026E0000D9B7E1E0290002B00F05C820023294689
:1026F0000A2258464FF068FE049B0546002B03DC77
:10270000089B022B00F35E82B8F1000F05DD29461D
:102710004246584650F004F80546109B002B00F046
:10272000D082696858464FF0EDFD0746002840F01A
:102730007F820D4B024640F2EA2158E5E20706D5BA
:1027400008F10108D5E90023FDF7C2FE012364105A
:1027500008350BE74FF002080DE700BFD85506001B
:10276000B05506000000F03FC3CC07002046002211
:10277000AC4B2946FDF7ACFE7E1E08F10108049C17
:10278000CDE900014046FDF739FEDDE90023FDF704
:102790009FFEA54B0022FDF7E5FCA1F15073CDE9AA
:1027A0000E010F93002C3BD10022A04BDDE900016C
:1027B000FDF7D6FC02460B46CDE90023DDE90E23EA
:1027C000FEF716FA002840F05781DDE90E2101F1ED
:1027D0000043DDE90001FEF7EDF900283FF4E2AE29
:1027E000002425460C9BDDF80CA0DE434FF00008CA
:1027F000214658464FF0C6FD002D00F0A980B8F1E3
:10280000000F05D0A84503D0414658464FF0BAFD09
:10281000294658464FF0B6FD9AE03E464C46B1E791
:10282000834B03EBC40353E90201039B1C440D9B40
:10283000002B4AD002460B4600207E49FDF772FF6E
:10284000DDE90E23FDF78CFCDDF80CA0CDE90E01CF
:10285000DDE90001FEF74EF80546FDF7CFFD024623
:1028600030350B46DDE90001FDF77AFC0AF8015B23
:1028700002460B46CDE90001DDE90E01FEF7B8F98D
:10288000002865D100206C49DDE90023FDF768FCD4
:1028900002460B46DDE90E01FEF7AAF9002840F0DA
:1028A0000D81A24500F0EA8000225E4BDDE90E01B9
:1028B000FDF70EFE00225B4BCDE90E01DDE90001C4
:1028C000FDF706FECDE90001C2E7DDE90E23FDF7C5
:1028D000FFFDA046DDF80CA0CDE90E01DDE9000109
:1028E000FEF708F80546FDF789FD024630350B4630
:1028F000DDE90001FDF734FC0AF8015B02460B46F6
:10290000A245CDE900234FF0000223D1494BDDE978
:102910000E01FDF727FC02460B46DDE90001FEF73C
:1029200067F9002840F0CA8000204249DDE90E2303
:10293000FDF716FC02460B46DDE90001FEF73AF909
:1029400070B1C24608F1FF381AF8013C302BF8D0BC
:10295000374655E0334BFDF7BBFDCDE90001BDE740
:10296000DDE90A34CDE90034159B002BFFF628AED3
:102970000E2F3FF725AE2E4B03EBC70393ED007BE5
:102980000C9B002B8DED047B02DAB9F1000F64D0B3
:10299000DDF80CA0DDE90045DDE9042320462946E9
:1029A000FDF7C0FEFDF7A6FF0646FDF727FDDDE9B2
:1029B0000423FDF78DFD0246204606F130040B4648
:1029C0002946FDF7CDFB0AF8014B039C02460B4656
:1029D000AAEB0404A14540F08280FDF7C3FB044646
:1029E0000D46DDE90423FEF703F9002865D12046F2
:1029F0002946DDE90423FEF7D3F808B1F3075CD4D8
:102A0000029958464FF0BEFC002301378AF8003087
:102A1000129B1F60219B002B3FF421ACC3F800A048
:102A20001DE400BF0000244000001C4000001440D2
:102A3000D85506000000E03F0000F03FA24B03EB3A
:102A4000C70393ED007B0C9B002B8DED047B9FDA7D
:102A5000B9F1000F9CDC7FF4C3AE00229B4BDDE993
:102A60000401FDF735FDDDE90023FEF7B7F8044664
:102A700000287FF4B5AE3E462546B4E0DDE90A34D1
:102A8000CDE90034159B002B01DB0E2FD6DD089A13
:102A9000012A36DC139A82B303F23343099CDDF832
:102AA0001880069A012158461A440692079A1A4439
:102AB00007924FF01BFD054686E53E4653469A4673
:102AC00013F8012D392A06D1039A9A42F7D1302200
:102AD000039901360A701A7801321A7038E7002219
:102AE0007B4BFDF7F5FC0022002304460D46FEF764
:102AF00057F800283FF450AF82E7149BC3F1360328
:102B0000CCE709F1FF34099BA34208DBB9F1000FC0
:102B1000A3EB04040EDBDDF818804B46C1E7099BEC
:102B2000109AE31A0994DDF8188000241A444B46E1
:102B30001092B6E7069BA3EB09080023B1E7029EBB
:102B400071E5099A029970E5029672E5089B012BDE
:102B500017DC009BABB9019BC3F313039BB9019B2B
:102B600023F00046360D360536B1069B01260133AB
:102B70000693079B01330793109B002B7FF470ADE6
:102B80001096012075E50026F6E73FF486AD1C336C
:102B9000069A1A4498440692079A1A4407927CE5CA
:102BA0000346F4E7049B002B2BDC089B022B09DC7B
:102BB00027E0B9F1000F1DDC089B022B1ADD3E4611
:102BC000CDF81090049B002B7FF40CAE214605221B
:102BD00058464FF0F9FB01460446029861F05FFC4D
:102BE00000287FF7FFADDDF80CA0312301360AF88D
:102BF000013BFBE50D9B3E46CDF81090002B7FF48A
:102C000083AD039F2146029861F026FA039B00F1F1
:102C10003009049A07F8019BFB1A9A4240F3CB80D3
:102C200000230A22029958464FF0CEFB0290E9E7B2
:102C30002A6905F10C010C300232920061F050F863
:102C40000122394658464FF06BFD039BA8460546C6
:102C500003F1010ADDE9032313440793009B03F00A
:102C6000010309930AF1FF3321460298049361F0AE
:102C7000F3F94146069000F13009029861F00FFC2B
:102C80002A462146074658464FF0B6FDC26801461F
:102C900002B358464FF076FB002F3ADA0122029930
:102CA00058464FF03DFD2146029061F0F8FB0028A8
:102CB00003DC29D119F0010F26D0B9F1390F1DD14C
:102CC00032E02846C1E700BFD85506000000144096
:102CD000000024400A90029861F0E1FB0A990C90F0
:102CE00058464FF04FFB0C9A5ABB089B53B9099BAF
:102CF00043B9B9F1390F17D0002F05DD069B03F159
:102D0000310901E0002F2ADADDF810A00AF8019B52
:102D10006EE5089B3B4304D1009B03F00103002BAD
:102D2000BCD0B9F1390F36D1049F392307F8013BE4
:102D3000BA46013F1AF8013C392B5AD001333B7097
:102D400056E5002F06DB089B3B4306D1009B03F0B2
:102D5000010313B9002AA1DCD6E7002AE1DC079BB6
:102D600057460AF8019C53452ED000230A220299A7
:102D700058464FF029FBA84502904FF000034FF052
:102D80000A02414658460BD14FF01EFB80460546CD
:102D90000AF1010A66E7DDF810A009F10109B5E7BB
:102DA0004FF012FB2946804600230A2258464FF076
:102DB0000BFB0546ECE7049B4FF00008002BCCBF53
:102DC0001F460127039B1F440122029958464FF0DA
:102DD000A7FC2146029061F062FB0028A8DC02D12A
:102DE00019F0010FA4D1BA4617F8013D302BFAD0E3
:102DF000FEE4039BBB429BD13123039A013613703F
:102E0000F6E4219B002B7FF425AA014BFFF744BA7F
:102E100043CC070090B585B000AF624B1B6803F050
:102E20000703022B71D96C4600233B7102237B718F
:102E30000122BA710322FA713B7204237B728CB0B7
:102E4000EC461CF110022DD04FF01A0E2AB1BEF143
:102E5000040F02DD544BCCF8143000233B710223E5
:102E60007B712AB1BEF1080F02DD504BCCF818304F
:102E70000123BB710323FB712AB1BEF10C0F02DDEC
:102E80004B4BCCF81C3002233B7204237B72B2B153
:102E9000BEF1100F02DD474BCCF820300CF12403BB
:102EA00000210AE06FF0004ED0E701F11000384435
:102EB00010F80C0C03F8010B01310529F5D9BEF10E
:102EC000190F3FDD1A234AB10521397000217970AD
:102ED000B9700321F9703868CCF8100000216FF345
:102EE00000016FF341016FF382016FF3C50103200D
:102EF00060F38811C3F30A0363F353216FF31F5187
:102F0000002328480DF036FCA546264B1B6803F02D
:102F10000703022B19D807F10F0009F0A7F8FB7B74
:102F2000CBB1012B2FD124480DF06CFA044628B9FF
:102F30001C4B1B6803F00703022B1ED820461437D6
:102F4000BD4690BD6FF01B03BDE71C4A0321154829
:102F500052F0C6F9DFE71A480DF054FA044600288B
:102F6000ECD1104B1B6803F00703022BE6D9154A7E
:102F700003210C4852F0B4F9E0E7134A0321094851
:102F800052F0AEF9DAE7114C3823224610491148C5
:102F900051F061FA104851F05EFA3821204609F0EC
:102FA00073F800BF78150020A0560600EC57060005
:102FB000EC5606001458060038580600F456060071
:102FC0003C580600105706003057060050570600C0
:102FD000BC7E0600B8570600D8570600014B187093
:102FE000704700BF3414002030B599B004460D4638
:102FF0002C2200210DA860F09AFE4FF0FF331693AB
:10300000238913F0010F01D163890BB919B030BDC9
:103010000DAA2549284615F00BF89DF85C30002BC9
:10302000F4D0224B1B68169A9A42EFD0204A1360C4
:10303000204B1B6813F0070F27D11F4819F084FCA1
:1030400019F03EFC09238DF80830169A1B4B1A60C4
:103050001B4D20686168A268E3680FC50022002349
:1030600002A9184825F03AFD03460028CED0114A9F
:10307000126812F0070F0ED1002383F31188BFF3FB
:103080006F8F0323184602DFC0E70F4A012109486A
:1030900052F026F9D1E7612200920C4A012105483D
:1030A00052F033F9E8E700BF697900000807002013
:1030B00024070020AC150020CC4E0020D84E002064
:1030C000DC4E00201C5106004058060058580600EF
:1030D00000B595B02C22002109A860F028FE124B03
:1030E0001B681293114A126812F0060F16D10121C3
:1030F000002008F003F9EC460DF1300EBEE80F0099
:10310000ACE80F009EE80F008CE80F0009AB0ECB77
:10311000074804F0E1FD15B05DF804FB054A022103
:10312000024852F0E7F8E2E7D84E0020AC15002044
:10313000DC4E00207C58060010B58EB0CEE040F288
:10314000891200928E4A01218E4852F0DEF8D8E0B2
:103150008C4B1B6803F00703022B25D807990698B0
:1031600006F0DCF968B3874B1B6813F0060F22D119
:10317000079B0093002302221946184604F0D8FF4B
:103180000346002800F0AA8010F1780F00F0F580C7
:103190007C4A126812F0070F00F0A0807A4A0121E1
:1031A000784852F0A7F899E0079B784A03217548C0
:1031B00052F0A0F8D2E7764A0221724852F090F815
:1031C000D6E7079B734A13606E4A126812F0060F27
:1031D00000F08480704A02216A4852F08BF87DE04A
:1031E000684B1B6803F00703022B2BD86B4819F0C0
:1031F000ABFB19F065FB674B6FF07F421A609DF8DF
:103200002030162B6AD05F4B1B6813F0060F21D1BC
:103210004FF080730093002302221946184604F0F1
:1032200087FF0346E0B110F1780F00F0A680554A01
:10323000126812F0070F51D0534A0121514852F041
:1032400059F84BE09DF82030554A03214D4852F083
:1032500051F8CBE7534A02214A4852F041F8D7E7E8
:10326000484B1B6803F00703022B37D94E4A032152
:10327000444852F035F831E006F048FA034668B3A6
:10328000404A126812F0070F28D0484A01213D48F1
:1032900052F030F822E0464C204604F001FE20684F
:1032A00006F096F90346C8B1364A126812F0070FC5
:1032B00014D0404A0121334852F01CF80EE0314B43
:1032C0001B6813F0060F3DD106F020FA03460028D4
:1032D00044D02C4A126812F0070F39D14FF0FF3258
:1032E0004FF0FF33CDE9002302AA0DA9324825F0A3
:1032F0002BFD70B10346234A126812F0070F7FF4CA
:103300001EAF002383F31188BFF36F8F032318468A
:1033100002DF9DF808309A1E072A23D801A151F830
:1033200022F000BFDD320000DD320000513100002C
:10333000E1310000DD3200007932000097320000F8
:10334000BF3200001D4A02210E4851F0C9FFBBE701
:10335000164A01210B4851F0CDFFBFE7184833F062
:103360006FFFBBE7074A126812F0060FB6D0154A86
:103370000221044851F0BEFFB0E70EB010BD00BFFF
:1033800058580600AC150020DC580600B05806005E
:10339000C458060008070020FC580600CC4E002048
:1033A000205906003C590600605906008459060061
:1033B000C84E0020B059060080510600D4590600BE
:1033C000F8060020E45906002DE9F04788B002AF66
:1033D0004FF0010A3DE084220092A74A0121A7484C
:1033E00051F093FF45E089220092A34A0121A348AE
:1033F00051F08BFF54E06FF000416BE013297EDD4C
:1034000014213AB10520387100207871B871F87133
:10341000786818616FF300046FF341046FF382045E
:103420006FF3C504032363F38814C1F30A0161F346
:1034300053246FF31F540023214690480DF09AF94E
:10344000B5463B7B012B5DD08C4B1B6813F0060F00
:1034500065D14FF0FF324FF0FF3307F11401884878
:1034600025F0F2FB034660B1844A126812F0070FA0
:10347000B1D1002383F31188BFF36F8F0323184664
:1034800002DF40F6CD42002307F10801786925F0FC
:103490008FFB034660B1794A126812F0070FA2D180
:1034A000002383F31188BFF36F8F0323184602DFD5
:1034B000724B1B6803F00703022BC2D9D7F80880B0
:1034C00097F80CE03D696E468AB002AB13F110022A
:1034D00091D01421002A91D00846042903DDDFF899
:1034E000D491C3F81490082801DDC3F818800C2883
:1034F00001DDC3F81CE0102880DD1D627EE76FF05F
:103500001B017EE73B69002B9ED1BB689A1E042AF3
:1035100000F2D280DFE802F04F3D09736100594AA2
:103520000221564851F0DCFE93E7574B1B7863B1FC
:10353000012B1CD0514A126812F0060F89D0534A51
:1035400002214E4851F0D6FE83E706F081F803468B
:1035500000283FF47EAF494A126812F0060F3FF48C
:1035600078AF4B4A0221454851F0C4FE71E706F09E
:1035700053F8034600283FF46CAF404A126812F03B
:10358000060F3FF466AF434A02213C4851F0B2FEB9
:103590005FE705F05BFA034600283FF45AAF374A6D
:1035A000126812F0060F3FF454AF3B4A0221334831
:1035B00051F0A0FE4DE705F059FA034600283FF40C
:1035C00048AF2E4A126812F0060F3FF442AF334A5A
:1035D00002212A4851F08EFE3BE705F0E9FE034642
:1035E00000283FF436AF254A126812F0060F3FF468
:1035F00030AF2B4A0221214851F07CFE29E719F017
:103600005FF906F083F8034658B11C4A126812F0BD
:10361000070F3FF41EAF234A0121184851F06AFEFC
:1036200017E7BAF1000F1AD04FF0807300931E4BCA
:1036300002220021084604F07BFD4FF0000A00281A
:103640003FF407AF0D4B1B6813F0060F3FF401AFBB
:103650000346164A0221094851F04CFEF9E64FF0A4
:1036600080730093124B02220021084604F060FD93
:103670004FF0010AE3E700BF58580600AC150020E0
:103680008C510600485A060034140020A85A06003F
:10369000605A0600845A0600C05A0600E05A060026
:1036A000005B0600845906002C5B0600585B060090
:1036B000445B06000C5A0600054A126812F0060F19
:1036C0003FF4C7AE034A0221014851F013FEC0E6A1
:1036D000AC150020885B060010B588B000220023DE
:1036E000CDE906230023049305220392029301935C
:1036F0000093324B4FF400623149324834F060FAA3
:10370000314B1860314934F015F970B10446304B33
:103710001B6813F0070F02D1204608B010BD2D4AD8
:1037200001212B4851F0DCFDF6E700220023CDE912
:10373000062300230493052203920293019300932E
:10374000254B4FF400622549254834F039FA254BC2
:103750001860254934F0EEF8044650B11C4B1B6844
:1037600013F0070FD8D0214A0121194851F0B8FDB4
:10377000D2E700220023CDE906230023049305228B
:103780000392029301930093194B4FF4006219497D
:10379000194834F015FA194B1860194934F0CAF871
:1037A00004460028B8D00A4B1B6813F0070FB3D0AB
:1037B0000E4A0121064851F093FDADE7C9330000E0
:1037C000C0360120801F0020F44E0020AC5B0600B4
:1037D000AC150020BC5B060025390000C02E01207E
:1037E000781E0020F04E0020E05B0600F45B06002F
:1037F00039310000C0260120701D0020EC4E002051
:103800001C5C060010B541F69A120023274928488F
:1038100025F04AFB68B10446264B1B6813F0070FDE
:1038200001D1204610BD244A0121224851F058FD03
:10383000F7E741F69A1200232049214825F034FB8E
:10384000044650B11B4B1B6813F0070FE9D01D4A0B
:103850000121184851F044FDE3E741F69A12002394
:1038600019491A4825F020FB044650B1114B1B683A
:1038700013F0070FD5D0164A01210E4851F030FD44
:10388000CFE741F69A1200231249134825F00CFBAA
:1038900004460028C5D0074B1B6813F0070FC0D0A3
:1038A0000E4A0121034851F01BFDBAE78C51060076
:1038B00030510600AC1500202C5C06009851060023
:1038C00058510600485C0600B05106006C510600D5
:1038D000645C0600805106001C510600845C0600F2
:1038E00010B586B000248DF80440012302932023F4
:1038F000ADF80C30ADF80E30ADF81040ADF8124018
:10390000ADF814400548064B036018F0FFFF214650
:1039100001A818F08DFF06B010BD00BFCC4E0020EE
:10392000E92F000010B58CB00AE0F7220092A54AFA
:103930000121A54851F0E9FC14E0A44B1B788BBB96
:103940004FF0FF324FF0FF33CDE9002302AA08A960
:103950009F4825F0F9F968B103469B4A126812F0B6
:10396000070FE2D1002383F31188BFF36F8F032386
:10397000184602DF9DF808305A1E062A00F25981C7
:1039800001A151F822F000BF373A0000333C00009B
:103990003B390000EB39000041390000BF3A00001C
:1039A000F93B000000F006FE0020FFF717FB0220A5
:1039B00007F0A4FC034660B1834A126812F0070FB7
:1039C0000AD1002383F31188BFF36F8F03231846B6
:1039D00002DFFFF785FFB3E740F207120092794A52
:1039E0000121794851F091FCEBE7784B1B78012BD2
:1039F000A6D00120FFF7F2FA00F0F8FF022007F04E
:103A000045FC034600289BD06F4A126812F0070F4E
:103A100008D1002383F31188BFF36F8F0323184667
:103A200002DF8DE74FF48C720092664A01216648EE
:103A300051F06BFCEDE70BAA09A90AA805F01EFDE1
:103A4000034658B1604A126812F0060F3FF478AF8F
:103A5000604A02215C4851F04DFC71E7099A00214F
:103A6000084600F065FD034660B1574A126812F03F
:103A7000070F1BD1002383F31188BFF36F8F03233C
:103A8000184602DF0B9801F0B5FE00287FF458AF0E
:103A90004D4B1B6803F00703022B7FF651AF0B9BC6
:103AA0004D4A0321484851F025FC49E740F22B12CA
:103AB0000092444A0121444851F027FCDAE7424B86
:103AC0001B6803F00703022B2ED818F0F9FE0498A8
:103AD00003F08EFB20B13C4B1B6813F0060F29D17D
:103AE0003A4B1B7863B3384B1B6813F0060F49D170
:103AF0003A4B1B680093002302221946184604F033
:103B000017FB0446002850D010F1780F42D02E4BFE
:103B10001B6813F0070F3FF413AF2346304A01210F
:103B2000294851F0E7FB0BE72E4A0321264851F0C4
:103B3000D7FBCAE72C4A0221234851F0D1FBCFE73B
:103B40000120FFF74BFA00F051FF022007F09EFB27
:103B500003460028C7D01C4A126812F0070F08D18C
:103B6000002383F31188BFF36F8F0323184602DF0E
:103B7000B9E74FF4A1720092124A0121124851F0A4
:103B8000C4FBEDE7154B1B68184A02210E4851F0A3
:103B9000B1FBADE70C4B1B6813F0060FB7D0144A0E
:103BA0000221094851F09CFBB1E7074B1B6803F069
:103BB0000703022B7FF6C4AE0E4A0321024851F0E0
:103BC0008FFBBDE658580600AC15002034140020C9
:103BD00098510600A05C0600BC5C0600240700208B
:103BE000DC580600DC5C0600E85C0600045D0600AC
:103BF0001C5D060060590600144B1B6813F0060F8D
:103C000011D105F083FD034600283FF499AE0F4A19
:103C1000126812F0070F3FF493AE0D4A01210B48D2
:103C200051F068FB8CE60B4A0221084851F058FB22
:103C3000E7E7064A126812F0060F3FF481AE064A23
:103C40000221024851F056FB7AE600BFAC15002075
:103C5000845906003C5D0600785D0600014B18782B
:103C6000704700BF3414002008B5064B1B6813F0E2
:103C7000060F00D108BD044A0221024851F030FB72
:103C8000F8E700BFAC150020A05D0600B0B584B019
:103C900002AF08F095FB68B10346894A126812F03A
:103CA000070F70D1002383F31188BFF36F8F0323B5
:103CB000184602DFFFF7AEF8034660B1804A12688B
:103CC00012F0070F68D1002383F31188BFF36F8FC1
:103CD0000323184602DF03F0A1FA034660B1784AD5
:103CE000126812F0070F60D1002383F31188BFF32D
:103CF0006F8F0323184602DF00F088FF034660B190
:103D00006F4A126812F0070F58D1002383F311880D
:103D1000BFF36F8F0323184602DFFFF7DDFC044675
:103D2000002800F08980664B1B6813F0070F76D0DF
:103D30006D4600233B7102237B7188B00DF1080CA6
:103D40001CF1100243D00E2022B1042802DD5D4B8D
:103D5000CCF8143000233B7002237B70002A39D04A
:103D6000082802DD584BCCF818300CF11C03002158
:103D700001292FD801F1080EBE441EF808EC03F803
:103D800001EB0131F4E74FF4247200924F4A012114
:103D90004B4851F0BAFA85E740F2932200924B4A21
:103DA0000121474851F0B1FA8DE740F29622009286
:103DB000464A0121424851F0A8FA95E740F299227B
:103DC0000092424A01213E4851F09FFA9DE76FF070
:103DD0000040B9E70D2863DD0E234AB10321397194
:103DE00000217971B9710121F9717868CCF810005E
:103DF00000216FF300016FF341016FF382016FF354
:103E0000C501012060F38811C3F30A0363F3532152
:103E10006FF31F5100232A480CF0ACFCAD46284B31
:103E20001B6813F0070F3ED1002383F31188BFF303
:103E30006F8F0323184602DFFFF7E4FC04460028D7
:103E40007AD01F4B1B6813F0070F68D06D46002314
:103E50003B7102237B7188B00DF1080C1CF110023C
:103E60002BD00E2022B1042802DD164BCCF81430E2
:103E700000233B7002237B7062B3082802DD144BE1
:103E8000CCF818300CF11C030021012922D801F1D3
:103E9000080EBE441EF808EC03F801EB0131F4E70C
:103EA0006FF01B0399E74FF4277300932346074AEB
:103EB0000121034851F029FAB6E76FF00040D1E73D
:103EC000AC15002054720600CC5D06005858060060
:103ED000F85D06000D2863DD0E234AB10321397118
:103EE00000217971B9710121F9717868CCF810005D
:103EF00000216FF300016FF341016FF382016FF353
:103F0000C501012060F38811C3F30A0363F3532151
:103F10006FF31F510023A5480CF02CFCAD46A34BBA
:103F20001B6813F0070F3ED1002383F31188BFF302
:103F30006F8F0323184602DF02F07EFC0446002840
:103F400070D09A4B1B6813F0070F5ED06D460023AC
:103F50003B7102237B7188B00DF1080C1CF110023B
:103F60002BD00E2022B1042802DD914BCCF8143066
:103F700000233B7002237B7012B3082802DD8D4BB7
:103F8000CCF818300CF11C030021012918D801F1DC
:103F9000080EBE441EF808EC03F801EB0131F4E70B
:103FA0006FF01B0399E740F29F2300932346824A58
:103FB00001217E4851F0A9F9B6E76FF00040D1E742
:103FC0000D2864DD0E234AB1032139710021797176
:103FD000B9710121F9717868CCF8100000216FF3F4
:103FE00000016FF341016FF382016FF3C5010120FE
:103FF00060F38811C3F30A0363F353216FF31F5176
:1040000000236A480CF0B6FBAD46684B1B6813F002
:10401000070F3FD1002383F31188BFF36F8F032372
:10402000184602DF654805F0BDFB0446002870D045
:104030005E4B1B6813F0070F5ED06D4600233B718B
:1040400002237B7188B00DF1080C1CF110022BD0FB
:104050000E2022B1042802DD554BCCF81430002389
:104060003B7002237B7012B3082802DD544BCCF85E
:1040700018300CF11C030021012918D801F1080E99
:10408000BE441EF808EC03F801EB0131F4E76FF0D1
:104090001B0398E740F2A22300932346464A0121DE
:1040A000424851F032F9B5E76FF00040D1E70D28F2
:1040B0006BDD0E234AB10321397100217971B97189
:1040C0000121F9717868CCF8100000216FF300012C
:1040D0006FF341016FF382016FF3C501012060F3BB
:1040E0008811C3F30A0363F353216FF31F510023B5
:1040F0002E480CF03FFBAD462C4B1B6813F0070F0E
:1041000046D1002383F31188BFF36F8F0323184632
:1041100002DF4FF0807300932A4B022200210846F1
:1041200004F006F80446002800F082801F4B1B684C
:1041300013F0070F6FD06D4600233B7102237B7194
:1041400088B00DF1080C1CF110022BD00E2022B10A
:10415000042802DD164BCCF8143000233B700223F8
:104160007B709AB3082802DD174BCCF818300CF19D
:104170001C030021012929D801F1080EBE441EF8B4
:1041800008EC03F801EB0131F4E76FF01B0391E752
:1041900040F2A52300932346074A0121034851F02A
:1041A000B4F8AEE76FF00040D1E700BFAC150020D7
:1041B00054720600245E060058580600B5620000DE
:1041C000445E0600445B0600645E06000D2833DD95
:1041D0000E234AB10321397100217971B97101218E
:1041E000F9717868CCF8100000216FF300016FF3CB
:1041F00041016FF382016FF3C501012060F3881163
:10420000C3F30A0363F353216FF31F5100231148D3
:104210000CF0B0FAAD460F4B1B6813F0070F0ED130
:10422000002383F31188BFF36F8F0323184602DF47
:1042300000200837BD46B0BD6FF01B03C9E74FF43F
:104240002E7300932346044A0121024851F05DF881
:10425000E6E700BFAC15002058580600024B0122CB
:104260001A709A715A717047684F00202DE9F04119
:10427000ADF5386D02AF0026C7F86C6BB2E00023D5
:1042800083F31188BFF36F8F0323184602DF04EB1B
:10429000440007F6783303EB8405994B1A6855F808
:1042A000341C07F5717303EB80105FF019FD55F8AE
:1042B000341C944829F05EFD0134092C1DDC4FF0BC
:1042C000FF324FF0FF33CDE900238D4A07F6443328
:1042D00003EB84018B4829F019FD03460028D6D052
:1042E000894A126812F0070FC9D088220092874AC3
:1042F0000121854851F009F8C1E7854B1B7B002B54
:1043000061D0844B1B68002B76D107F66C33824A50
:104310004FF4F06107F5717001F02EFC044600289F
:1043200051D0794B1B6813F0070F3FD06D46002327
:104330003B7102237B7188B002A911F1100200F0D9
:104340009D804FF00E0C22B1BCF1040F01DD734BC8
:104350004B6100233B7002237B70002A40F0918068
:10436000BCF10D0F40F39E800E2342B10320387143
:1043700000207871B8710120F871786808616FF3D6
:1043800000086FF341086FF382086FF3C50801213D
:1043900061F38818C3F30A0363F353286FF31F58BC
:1043A0000023414658480CF0E5F9AD46564B1B68D2
:1043B00013F0070F79D1002383F31188BFF36F8FB8
:1043C0000323184602DFB6F57A7F77D00136504BCB
:1043D0001B7B3BB14E4B5A7DD7F86C1B4E4B18687C
:1043E000FFF742FC4FF0FF324FF0FF3301214C4802
:1043F00036F008F8002460E74A4A00924A4A4FF42F
:104400007071381D29F036FA034660B13E4A1268D1
:1044100012F0070F22D1002383F31188BFF36F8FAF
:104420000323184602DF009707F5717310224FF43B
:104430007071381D5AF0B4FD034600283FF465AF93
:10444000314A126812F0070F10D1002383F311884C
:10445000BFF36F8F0323184602DF56E797220092BF
:104460002A4A0121284850F050FFD4E79C220092AC
:10447000264A0121244850F048FFE6E76FF0004C3F
:1044800061E7BCF1080F01DD284B8B6101F11C03D2
:10449000002004E017F800E003F801EB01300128E8
:1044A000F8D95DE76FF01B035FE7A2230093234673
:1044B000164A0121144850F028FF7CE707F53762BF
:1044C00007F674310F4829F07DFC064600283FF4BA
:1044D0007EAF0D4B1B6813F0070F08D1002686F343
:1044E0001188BFF36F8F0323184602DF6FE7A923FC
:1044F00000930346054A0121034850F006FFEDE70B
:10450000004F00203C070020C0140020585806002F
:10451000684F0020044F0020F84E0020547206001F
:1045200028070020FC4E0020084F0020885E06006F
:1045300070B505460E4614464FF011F880B11A4B7F
:104540009D6120464FF00BF8D8B1174B01221A712C
:104550009C603EB3144B01221A731E61002022E0BE
:10456000002DEED0114B1B6813F0070F02D16FF036
:10457000150018E02B460E4A01210C4850F0BAFEF7
:10458000F5E7002CE5D0094B1B6813F0070F02D1AB
:104590006FF0150007E02346054A0121034850F05B
:1045A000A9FEF5E7002070BD684F0020C014002070
:1045B000985E0600F0B58BB008AFFFF74FFE9B4B3F
:1045C00093F86430002B44D0994B93F86430002B5F
:1045D00000F0B380974C04F110030FCB8DE80F006F
:1045E00094E80F0001F06AFD0546002800F06181A3
:1045F000914B1B6813F0070F00F04E816E460023AD
:104600003B7102237B7188B0344616F1100200F032
:1046100009810E201AB1042801DD884B6361002353
:104620003B7002237B70002A00F01281082801DD14
:10463000834BA36104F11C030021012900F20881CE
:1046400001F1080CBC441CF808CC03F801CB013183
:10465000F3E7764829F038FC05460028B4D0764BBD
:104660001B6813F0070F4DD06E4600233B710223E9
:104670007B7188B0344616F1100212D00E201AB1A8
:10468000042801DD6D4B636100233B7002237B70C6
:10469000A2B1082801DD6B4BA36104F11C030021CA
:1046A0000AE06FF00040EAE701F1080CBC441CF896
:1046B00008CC03F801CB01310129F5D90D282FDDF4
:1046C0000E2342B10321397100217971B9710121A1
:1046D000F9717868206100216FF300016FF34101E7
:1046E0006FF382016FF3C501012060F38811C3F3FA
:1046F0000A0363F353216FF31F5100234E480CF05C
:1047000039F8B5464C4B1B6813F0070F0BD100234B
:1047100083F31188BFF36F8F0323184602DF53E73B
:104720006FF01B03CDE740F27D1300932B46464A02
:104730000121414850F0E9FDE9E73D4829F0C4FB7B
:10474000054600283FF446AF3B4B1B6813F0070FAC
:104750004DD06E4600233B7102237B7188B03446F6
:1047600016F1100212D00E201AB1042801DD334BCD
:10477000636100233B7002237B70A2B1082801DD36
:10478000324BA36104F11C0300210AE06FF00040EA
:10479000EAE701F1080CBC441CF808CC03F801CB93
:1047A00001310129F5D90D282FDD0E2342B1032156
:1047B000397100217971B9710121F971786820612D
:1047C00000216FF300016FF341016FF382016FF37A
:1047D000C501012060F38811C3F30A0363F3532179
:1047E0006FF31F51002314480BF0C4FFB546124B62
:1047F0001B6813F0070F0BD1002383F31188BFF35D
:104800006F8F0323184602DFE4E66FF01B03CDE74A
:104810004FF4C17300932B460B4A0121064850F018
:1048200074FDE9E76FF00040F4E600BFA407002044
:104830003C070020684F0020C0140020547206007E
:10484000F05E0600B85E060058580600D45E06000A
:104850000D285DDD0E2342B10321397100217971EC
:10486000B9710121F9717868206100216FF30001AD
:104870006FF341016FF382016FF3C501012060F313
:104880008811C3F30A0363F353216FF31F5100230D
:1048900047480BF06FFFB546454B1B6813F0070FF9
:1048A00039D1002383F31188BFF36F8F0323184698
:1048B00002DF404B01221A771B7B1BB13E4B1B686A
:1048C000002B32D007F0ACF8034660B1384A1268CA
:1048D00012F0070F5AD1002383F31188BFF36F8FB3
:1048E0000323184602DF354801F098F8034660B10B
:1048F0002F4A126812F0070F51D1002383F3118859
:10490000BFF36F8F0323184602DF0C37BD46F0BD9F
:104910006FF01B039FE74FF4C37300932B46284AA5
:104920000121234850F0F1FCBBE700220023CDE930
:10493000062300230493032203920293019300931E
:10494000204B42F6F8222049204833F039F91A4B1F
:1049500018601F4932F0EEFF03460028B2D0144A17
:10496000126812F0070F08D1002383F31188BFF3F8
:104970006F8F0323184602DFA4E74FF4C87200923A
:104980000F4A01210A4850F0C0FCEDE74FF4CC7209
:1049900000920B4A0121064850F0B7FC9BE740F219
:1049A0009B120092064A0121014850F0AEFCA4E798
:1049B000C0140020684F0020984F00203C070020C2
:1049C000585806006D420000C03E0120882000209B
:1049D000085F060010B50446FFF7ECFD02492046CB
:1049E00051F03AF8002010BD105F0600F0B587B016
:1049F00004AF644B1B7F5BB9634B1B6813F0060F5E
:104A000000F0B080614A02215F4850F069FCA9E0E3
:104A100007F034F8034660B15B4A126812F0070FE2
:104A200051D1002383F31188BFF36F8F03231846FE
:104A300002DF01F035F8034660B1534A126812F004
:104A4000070F49D1002383F31188BFF36F8F03232E
:104A5000184602DF4B4C04F110030FCB8DE80F001A
:104A600094E80F0001F0B6FA0546002871D0464BD5
:104A70001B6813F0070F5FD06E4600233B710223C3
:104A80007B7188B004AC14F110022ED00E201AB144
:104A9000042801DD3E4B636100233B7002237B70E1
:104AA00032B3082801DD3B4BA36104F11C03002154
:104AB00001291DD801F1080CBC441CF808CC03F8EE
:104AC00001CB0131F4E74FF4D7720092324A012151
:104AD0002D4850F01AFCA4E740F2B11200922E4A81
:104AE0000121294850F011FCACE76FF00040CEE7FF
:104AF0000D283ADD0E2342B103213971002179716D
:104B0000B9710121F9717868206100216FF300010A
:104B10006FF341016FF382016FF3C501012060F370
:104B20008811C3F30A0363F353216FF31F5100236A
:104B300015480BF01FFEB546134B1B6813F0070F0B
:104B400016D1002383F31188BFF36F8F0323184618
:104B500002DF0C4B00221A77104829F06BF910483D
:104B600029F068F90C37BD46F0BD6FF01B03C2E7B2
:104B700040F2B51300932B46074A0121024850F03A
:104B8000C4FBDEE7684F0020C0140020285F060049
:104B900054720600445F0600585806003C07002087
:104BA000A407002010B50446FFF720FF0249204665
:104BB00050F052FF002010BD5C5F060010B584B0BD
:104BC00000220023CDE9002302AA03A90C4829F002
:104BD0009DF838B904460399094829F0CBF82046D6
:104BE00004B010BD074B1B6813F0060F02D16FF025
:104BF0008B04F4E7044A0221024850F071FBF6E707
:104C00003C070020C0140020745F060010B500F0BF
:104C100061FF70B10446114B1B6813F0070F01D1FF
:104C2000204610BD03460E4A01210C4850F062FB9D
:104C3000F6E706F033FF044658B1084B1B6813F043
:104C4000070FEDD00346074A0121044850F052FBFC
:104C5000E6E705485EF0E8FFE2E700BFC014002089
:104C6000945F0600BC5F0600884F00200C4B93F851
:104C7000803133B90A4B012283F880210360002080
:104C80007047074B93F881313BB9054B012283F8FC
:104C90008121C0330360002070476FF00B00704724
:104CA000E86E0020074B984203D0074B984204D08F
:104CB0007047002283F880217047C03B002283F8B0
:104CC0008121F5E7E86E0020A86F0020034B002249
:104CD00083F8802183F88121704700BFE86E0020AF
:104CE00008B50021034B19704FF4707202485FF051
:104CF0001EF808BD892601206C70002008B5024806
:104D000032F09EFA08BD00BF1408002008B1006808
:104D1000704710B5074C40F29D23224606490748CC
:104D20004FF099FB06484FF096FB40F29D2120463C
:104D300007F0AAF99C600600CC600600B857060090
:104D4000E060060090B583B000AF394B93F8003CAB
:104D5000834229D0364B83F8000C364B1B6803F096
:104D60000703022B5DD9344B53F820106C46002307
:104D70003B7102237B7188B0EC461CF110021ED0FF
:104D80000E2022B1042802DD2C4BCCF81430002375
:104D90003B7002237B70FAB1082801DDCCF81810B3
:104DA0000CF11C03002115E0224B1B6813F0060FC9
:104DB00037D0234A02211F4850F092FA31E06FF0B9
:104DC0000040DEE701F1080EBE441EF808EC03F8CF
:104DD00001EB01310129F5D90D2825DD0E234AB15A
:104DE0000321397100217971B9710121F971786854
:104DF000CCF8100000216FF300016FF341016FF355
:104E000082016FF3C501032060F38811C3F30A0325
:104E100063F353216FF31F51002306480BF0AAFCE4
:104E2000A5460C37BD4690BD6FF01B03D7E700BF0A
:104E30002CC40020B8140020E86806002C6106008D
:104E4000F460060038B54E4BD3F8F82BC3F8F42BBA
:104E500093F8003C032B04D8DFE803F0020B3C6618
:104E600002B938BD464BC3F8042C0120FFF76AFF96
:104E7000F7E74349B1F8023C01339BB2A1F8023C89
:104E8000632BEED90023A1F8023CD1F8043C9B1A15
:104E900003F5C333A0333B4A02FB03F33A4A82FBD8
:104EA0000302DB17C3EBA21303F51B40A630C1F8C6
:104EB000080C03F6CE3341F29C72934206D880B2BE
:104EC0004EF07FFB0220FFF73DFFCAE70020FFF70F
:104ED00039FFC6E72A49B1F8023C01339BB2A1F879
:104EE000023C632BBDD90D460023A1F8023C0146CC
:104EF00010464EF047FB00EBD0704410214B04FBF2
:104F000003F3214A82FB0312DB17C3EBA213D5F88C
:104F1000080C184480B24EF054FB0F341E2CA0D85D
:104F20000320FFF70FFF9CE71549B1F8023C01335E
:104F30009BB2A1F8023C632B93D90D460023A1F844
:104F4000023C014610464EF01DFB00EBD0704410B1
:104F50000C4B04FB03F30C4A82FB0312DB17C3EB7D
:104F6000A213D5F8080C184480B24EF02AFB203466
:104F7000402C7FF676AF0020FFF7E4FE71E700BF1C
:104F80002CC4002018FCFFFF019D7F3108B5401A9A
:104F900063EB0303144A904273F1FF3202DA0138E3
:104FA00043F1000311490A6801320A60B0F5FA7052
:104FB00043F1FF3341F28932904273F1000300D292
:104FC00008BDFFF7FBFD18B9084B00221A60F7E790
:104FD000074B1B6813F0060FF2D0064A0221044863
:104FE00050F07EF9ECE700BF01000080E46E002085
:104FF000B81400204061060008B5FFF787FE02687C
:105000004168007A0B4B5B7843B10B4BC3F8F42B30
:1050100048B142B11046FFF7B9FF04E0074B1B68E7
:1050200013F0060F00D108BD054A0221034850F0D5
:1050300057F9F8E72C7400202CC40020B814002085
:1050400060610600474B93F8103C834200F0888073
:10505000B0B584B002AF0446424B83F8100C424B0B
:105060001B6803F00703022B53D9404B53F8201061
:105070006D4600233B7102237B7188B00DF1080C53
:105080001CF1100213D00E2022B1042802DD384B8F
:10509000CCF8143000233B7002237B70A2B10828A7
:1050A00001DDCCF818100CF11C0300210AE06FF0B0
:1050B0000040E9E701F1080EBE441EF808EC03F8D1
:1050C00001EB01310129F5D90D2838DD0E234AB154
:1050D0000321397100217971B9710121F971786861
:1050E000CCF8100000216FF300016FF341016FF362
:1050F00082016FF3C501032060F38811C3F30A0333
:1051000063F353216FF31F51002317480BF032FB59
:10511000AD46032C16D003204EF082FB60B1124B3B
:105120001B6813F0070F11D1002383F31188BFF31D
:105130006F8F0323184602DF0837BD46B0BD6FF0FE
:105140001B03C4E7032006F0A1F8E7E740F25B1376
:1051500000930346074A0121034850F0D6F8E3E7DD
:10516000704700BF2CC40020B8140020D868060087
:1051700094610600585806002DE9F0416C4B93F8F5
:10518000003C032B10D104460D468AB9684BD3F876
:10519000182C291B114493F8103C012B1AD0022B18
:1051A0005ED06BB1BDE8F0810020FFF74BFFF9E75F
:1051B0005F4B0022A3F8122C0220FFF743FFE5E724
:1051C0005B4B0022A3F8122CC3F8142C0120FFF72C
:1051D00039FFE7E7564AB2F8123C581CA2F8120C05
:1051E000092B2FD9524B0022A3F8122CD3F8146CA0
:1051F000504B83FB0623F517C5EBA30505F2F3120D
:1052000040F2E6339A4227D90220FFF71BFF002D18
:10521000C8D016F1090F2FDB05F5FA73464A82FB59
:105220000312DF17C7EBA2174EF6476293422DDD3C
:10523000424A126812F0060F21D13C27002F2FDDC1
:1052400000263FE01346D2F8142CD3F8FC0B091AC1
:105250000A44C3F8142CA5E70320FFF7F3FED6E7B2
:10526000334AB2F8123C591CA2F8121C0C2B99D9E3
:105270000020FFF7E7FE95E7A5F5FA73CEE7304A81
:1052800002212E4850F036F83C27D7E72D4A9342AA
:10529000D4DA2A4A126812F0060F06D16FF03B07E3
:1052A000002FBFF67FAF002236E0254A02212348B7
:1052B00050F020F86FF03B07F2E700231C4AA2F8F9
:1052C0000C3A0136BE42BFF66DAF1F4D05F5A04842
:1052D000B8F80C3A03EB43004001043005EB400002
:1052E000C022002104305EF022FDBA1BB8F80C3A4F
:1052F0004FF47A7101FB124203F5B451023105EB10
:105300008105AA60762BD8D801339BB2D6E77723E4
:105310000749A1F80C3A013ABA427FF743AF044B70
:10532000B3F80C3A002BF2D0013B9BB2F0E700BF80
:105330002CC4002067666666D34D6210B814002046
:10534000A8610600B911FFFF2C74002010B5164BA0
:10535000B3F80E3A23B3013B9BB2144800F5A042C8
:10536000A2F80E3A03EB43014A01043200EB42007B
:105370000430BBB1013B9BB20C4A02F5A041A1F83D
:105380000E3A03EB43035901043102EB4102141DB1
:10539000002104F0BFFF0021204604F075FF10BD7E
:1053A0007723DAE77723E7E72CC400202C7400206A
:1053B00010B59AB00446214B00930023204A602187
:1053C00002A828F057FA68B103461E4A126812F084
:1053D000070F20D1002383F31188BFF36F8F0323BE
:1053E000184602DF03230093602302AAC02120464F
:1053F00028F084FA034660B1124A126812F0070FCF
:1054000012D1002383F31188BFF36F8F0323184653
:1054100002DF1AB010BD40F21D2200920A4A01219B
:1054200008484FF072FFD5E740F221220092064A69
:10543000012104484FF069FFE3E700BFDC6E002064
:105440006C700020B81400205858060070B582B067
:10545000054616461046FFF725FC4A4B03F5A042C9
:10546000B2F80E4A04F5B451023103EB81039B6894
:10547000EB1AC2F8FC3B1EB3762C2DD80134424BFC
:10548000B3F80C3AA34232D03F4BA3F80E4A3F4B3D
:105490001B783BB13D4B00221A703D4B1B6813F04B
:1054A000060F1BD104EB440464010434354B03EBB9
:1054B00044030433374A1360374B1B78002B58D111
:1054C0000021344B186804F0DFFE2F4B93F80C3C9E
:1054D000002B53D102B070BD0024D0E72A4BD3F883
:1054E000F03B2E4A02212A484FF004FFDAE7FEF78C
:1054F000B5FBB0B9254B01221A70234AD2F8F03B14
:105500000133C2F8F03B264AA2FB0312120B41F210
:10551000883101FB123222B91D4A126812F0060FBF
:1055200018D11C48FFF7A2FB034660B1184A126865
:1055300012F0070F14D1002383F31188BFF36F8F8C
:105540000323184602DFC0220021124B18685EF0C8
:10555000EEFBB1E7134A02210D484FF0CBFEE0E726
:105560004FF426720092104A012109484FF0CDFEF7
:10557000E1E7084B1868FFF71BFFA1E72846FFF794
:1055800061FCA7E72C7400202CC400208826012091
:10559000B8140020E06E002089260120E461060096
:1055A0005917B7D1086206005858060038B50546A5
:1055B0000024064B83F81C4C2046FFF743FD0449AA
:1055C000284650F049FA204638BD00BF2CC40020C0
:1055D0003462060008B5084B93F80C3C43B1064B07
:1055E000012283F81C2C054950F036FA002008BD32
:1055F000034950F031FAF9E72CC400205862060044
:105600007C62060010B504460A4B93F81C3C23B19B
:10561000094950F021FA002010BD064B002083F804
:105620000C0CA3F8020CFFF78DFB0449204650F048
:1056300013FAF0E72CC40020AC620600E06206001A
:1056400008B5044B012283F80C2C034950F004FAEE
:10565000002008BD2CC400200863060008B50A4BD2
:105660001B786BB9094B1B6813F0070F02D16FF061
:10567000050008BD064A012104484FF031FEF6E757
:105680006FF00F00F5E700BF89260120B814002055
:105690003063060008B503485EF032FA024831F084
:1056A000CFFD08BDF81600201408002010B50446F0
:1056B000FFF7F0FF0249204650F0CEF9002010BD60
:1056C0004C6306002DE9F0432DED028B83B00746B5
:1056D000042954D11646506803783E4AD35C13F02F
:1056E000040F52D0B3681B783A4AD35C13F0040F0E
:1056F00052D00A2200214CF0BBFB04461FFA80F86E
:105700000A220021B0684CF0B3FB05461FFA80F96D
:105710000021F0684CF058FAB0EE408AB5EEC00AAD
:10572000F1EE10FA3FD9F7EE007AB4EEE70AF1EEA7
:1057300010FA38DCA4B2AEB23346224626493846C7
:1057400050F08AF9B0EE480A49464046FFF786FF16
:10575000054610F1100F2DD0B5BB18EE100AFAF760
:105760005FFECDE90001334622461C49384650F021
:1057700073F9284603B0BDEC028BBDE8F0831849ED
:1057800050F079F96FF01505F3E71649384650F0F7
:1057900072F96FF01505ECE71349384650F06BF9D4
:1057A0006FF01505E5E71149384650F064F96FF0E0
:1057B0001505DEE7FFF76EFFB0EE480A49464046A2
:1057C000FFF74CFF0546C7E72A460949384650F01F
:1057D00043F9C2E70FCB07000864060044640600E3
:1057E00058630600A4630600C0630600DC6306007D
:1057F0002864060008B5A0F6B8324DF6A8639A42B0
:1058000004D8114BC3F8180C002008BD0F4B1B68BF
:1058100013F0060F07D10D4B1B6813F0060F09D1CB
:105820006FF01500F1E70346094A022107484FF0DF
:1058300061FDF0E7044BD3F8183C064A0221034807
:105840004FF058FDECE700BF2CC40020B814002036
:1058500078640600A06406002DE9F04385B00E468A
:105860000C9F634991F80180B8F1000F1AD00546EA
:105870001446994620B35F4BD3F8F81BA1422AD0B7
:10588000002942D0631A43F69722934231D8A3F5F8
:105890001C53063B142B61D901F51C5410344FF0F6
:1058A000000834E0544B1B6813F0060F02D105B01A
:1058B000BDE8F083514A02214F484FF011FDF6E751
:1058C0004D4B1B6813F0070FD5D04D4A01214A48B4
:1058D0004FF006FDCFE7002CD2D0474B1B6813F0EA
:1058E000060FE4D02346474A022143484FF002FD09
:1058F000DDE7414A126802F00702022A07D9424A4C
:1059000003213D484FF0F6FC01E04FF00008394B11
:10591000C3F8F84B93F81C3C1BBB03AB00933B4B09
:105920004A463146284600F01FFA034620B1324A63
:10593000126812F0060F1AD1039BB3F5F06F1CD05A
:105940002D4A126812F0060FB1D04FF4F0620092A7
:105950002F4A022128484FF0D8FCA8E74FF0000852
:10596000D5E7424621463846FFF706FCD5E7294AE7
:10597000022121484FF0BEFCDEE71E4BB3F80C5A63
:10598000B3F80E3AEB1A6E2B01DC00240CE01A4B34
:105990001B6813F0060F8AD01F4A022116484FF0E9
:1059A0009FFC84E700250134092C1DD805EB450038
:1059B000400104300E4E06EB4000736804EB4401D6
:1059C000C02203EB811104305EF08AF94FF47A7340
:1059D00003FB047305F5B452023206EB8206B36092
:1059E000762DDFD80135DEE7024BA3F80C5A5EE7CF
:1059F0002C7400202CC40020B8140020C0640600C1
:105A0000D4640600EC6406002065060030740020B3
:105A10007465060058650600A465060010B5A0B1BF
:105A2000194B1B78F3B1184B5B784BBB164CA0603D
:105A300045F6E832002104F10C005EF078F9FFF73A
:105A400085FC01236370002010BD104C40F2E6334A
:105A500022460F490F484EF0FEFC40F2E631204648
:105A600006F012FB0C4B1B6813F0060F02D16FF00F
:105A70008B00E9E7094A022107484FF031FCF6E7BD
:105A80006FF07700E0E700BF2C740020DC650600B3
:105A900024660600B8570600B81400203C660600CD
:105AA00038B50B4B5B787BB1094D00246C704DF021
:105AB00097FD05F5A045C5F8F84BC5F8F44B204611
:105AC000FFF7C0FA204638BD6FF07700FBE700BF54
:105AD0002C74002010B50D4C45F6204200212046C4
