:10000000D8D60120D167010095BE0500BD6701006B
:10001000BD670100BD670100BD670100BD6701004C
:100020000000000000000000000000001D6A010048
:10003000BD670100000000008D690100BD6701007F
:10004000996C0100996C0100996C0100996C010098
:10005000996C0100996C0100996C0100996C010088
:10006000996C0100996C0100996C0100996C010078
:10007000996C0100996C0100996C0100996C010068
:10008000996C0100996C0100996C0100996C010058
:10009000996C0100996C0100996C0100996C010048
:1000A000996C0100996C0100996C0100996C010038
:1000B000996C0100996C0100996C0100996C010028
:1000C000996C0100996C0100996C0100996C010018
:1000D000996C0100996C0100996C0100996C010008
:1000E000996C0100996C0100996C0100996C0100F8
:1000F000996C0100996C0100996C0100996C0100E8
:10010000996C0100996C0100996C0100996C0100D7
:10011000996C0100996C0100996C0100996C0100C7
:10012000996C0100996C0100996C0100996C0100B7
:10013000996C0100996C0100996C0100996C0100A7
:10014000996C0100996C0100996C0100996C010097
:04015000996C0100A5
:04015400FFFFFFFFAB
:1001580081F0004102E000BF83F0004330B54FEA70
:1001680041044FEA430594EA050F08BF90EA020FDD
:100178001FBF54EA000C55EA020C7FEA645C7FEA70
:10018800655C00F0E2804FEA5454D4EB5555B8BF93
:100198006D420CDD2C4480EA020281EA030382EA04
:1001A800000083EA010180EA020281EA0303362D96
:1001B80088BF30BD11F0004F4FEA01314FF4801C69
:1001C8004CEA113102D0404261EB410113F0004F7B
:1001D8004FEA03334CEA133302D0524263EB430332
:1001E80094EA050F00F0A780A4F10104D5F1200ED0
:1001F8000DDB02FA0EFC22FA05F2801841F100012B
:1002080003FA0EF2801843FA05F359410EE0A5F1FE
:1002180020050EF1200E012A03FA0EFC28BF4CF02F
:10022800020C43FA05F3C01851EBE37101F00045E5
:1002380007D54FF0000EDCF1000C7EEB00006EEBF2
:100248000101B1F5801F1BD3B1F5001F0CD349087C
:100258005FEA30004FEA3C0C04F101044FEA4452D3
:1002680012F5800F80F09A80BCF1004F08BF5FEA5A
:10027800500C50F1000041EB045141EA050130BD3A
:100288005FEA4C0C404141EB0101013C28BFB1F54C
:10029800801FE9D291F0000F04BF01460020B1FA97
:1002A80081F308BF2033A3F10B03B3F120020CDA6A
:1002B8000C3208DD02F1140CC2F10C0201FA0CF048
:1002C80021FA02F10CE002F11402D8BFC2F1200CAD
:1002D80001FA02F120FA0CFCDCBF41EA0C01904063
:1002E800E41AA2BF01EB0451294330BD6FEA0404AC
:1002F8001F3C1CDA0C340EDC04F11404C4F1200297
:1003080020FA04F001FA02F340EA030021FA04F3A8
:1003180045EA030130BDC4F10C04C4F1200220FAFF
:1003280002F001FA04F340EA0300294630BD21FA3D
:1003380004F0294630BD94F0000F83F4801306BF03
:1003480081F480110134013D4EE77FEA645C18BFF7
:100358007FEA655C29D094EA050F08BF90EA020F8E
:1003680005D054EA000C04BF1946104630BD91EA86
:10037800030F1EBF0021002030BD5FEA545C05D189
:100388004000494128BF41F0004130BD14F58004C8
:100398003CBF01F5801130BD01F0004545F0FE413C
:1003A80041F470014FF0000030BD7FEA645C1ABF71
:1003B800194610467FEA655C1CBF0B46024650EAA8
:1003C800013406BF52EA033591EA030F41F40021D4
:1003D80030BD00BF90F0000F04BF0021704730B55A
:1003E8004FF4806404F132044FF000054FF000012F
:1003F80050E700BF90F0000F04BF0021704730B5F0
:100408004FF4806404F1320410F0004548BF4042C4
:100418004FF000013EE700BF42004FEAE2014FEA19
:1004280031014FEA02701FBF12F07F4393F07F4FF4
:1004380081F06051704732F07F4208BF704793F0F7
:100448007F4F04BF41F40021704730B54FF460740A
:1004580001F0004521F000411CE700BF50EA01020D
:1004680008BF704730B54FF000050AE050EA0102B6
:1004780008BF704730B511F0004502D5404261EB26
:1004880041014FF4806404F132045FEA915C3FF467
:10049800D8AE4FF003025FEADC0C18BF03325FEA04
:1004A800DC0C18BF033202EBDC02C2F1200300FAB5
:1004B80003FC20FA02F001FA03FE40EA0E0021FADA
:1004C80002F11444BDE600BF70B54FF0FF0C4CF4C8
:1004D800E06C1CEA11541DBF1CEA135594EA0C0F7A
:1004E80095EA0C0F00F0DEF82C4481EA030621EAB5
:1004F8004C5123EA4C5350EA013518BF52EA0335F0
:1005080041F4801143F4801338D0A0FB02CE4FF0A1
:100518000005E1FB02E506F00042E0FB03E54FF0D1
:100528000006E1FB03569CF0000F18BF4EF0010EC9
:10053800A4F1FF04B6F5007F64F5407404D25FEAC5
:100548004E0E6D4146EB060642EAC62141EA555178
:100558004FEAC52040EA5E504FEACE2EB4F1FD0CBA
:1005680088BFBCF5E06F1ED8BEF1004F08BF5FEA38
:10057800500E50F1000041EB045170BD06F00046EA
:1005880046EA010140EA020081EA0301B4EB5C0497
:10059800C2BFD4EB0C0541EA045170BD41F480118F
:1005A8004FF0000E013C00F3AB8014F1360FDEBFB4
:1005B800002001F0004170BDC4F10004203C35DA90
:1005C8000C341BDC04F11404C4F1200500FA05F313
:1005D80020FA04F001FA05F240EA020001F00042B4
:1005E80021F0004110EBD37021FA04F642EB06012A
:1005F8005EEA430E08BF20EAD37070BDC4F10C0454
:10060800C4F1200500FA04F320FA05F001FA04F217
:1006180040EA020001F0004110EBD37041F1000103
:100628005EEA430E08BF20EAD37070BDC4F120050E
:1006380000FA05F24EEA020E20FA04F301FA05F276
:1006480043EA020321FA04F001F0004121FA04F21E
:1006580020EA020000EBD3705EEA430E08BF20EAEE
:10066800D37070BD94F0000F0FD101F00046400028
:1006780041EB010111F4801F08BF013CF7D041EAAA
:10068800060195F0000F18BF704703F000465200AE
:1006980043EB030313F4801F08BF013DF7D043EA7F
:1006A8000603704794EA0C0F0CEA135518BF95EA35
:1006B8000C0F0CD050EA410618BF52EA4306D1D1BC
:1006C80081EA030101F000414FF0000070BD50EADB
:1006D800410606BF1046194652EA430619D094EA65
:1006E8000C0F02D150EA013613D195EA0C0F05D14F
:1006F80052EA03361CBF104619460AD181EA0301A3
:1007080001F0004141F0FE4141F470014FF000005A
:1007180070BD41F0FE4141F4780170BD70B54FF0F5
:10072800FF0C4CF4E06C1CEA11541DBF1CEA135575
:1007380094EA0C0F95EA0C0F00F0A7F8A4EB050457
:1007480081EA030E52EA03354FEA013100F088804E
:100758004FEA03334FF0805545EA131343EA126317
:100768004FEA022245EA111545EA10654FEA0026CC
:100778000EF000419D4208BF964244F1FD0404F585
:10078800407402D25B084FEA3202B61A65EB0305E1
:100798005B084FEA32024FF480104FF4002CB6EB9E
:1007A800020E75EB030E22BFB61A754640EA0C001E
:1007B8005B084FEA3202B6EB020E75EB030E22BF5E
:1007C800B61A754640EA5C005B084FEA3202B6EB9F
:1007D800020E75EB030E22BFB61A754640EA9C005E
:1007E8005B084FEA3202B6EB020E75EB030E22BF2E
:1007F800B61A754640EADC0055EA060E18D04FEAEC
:10080800051545EA16754FEA06164FEAC30343EA8B
:1008180052734FEAC2025FEA1C1CC0D111F4801F58
:100828000BD141EA00014FF000004FF0004CB6E751
:1008380011F4801F04BF01430020B4F1FD0C88BFF0
:10084800BCF5E06F3FF6AFAEB5EB030C04BFB6EBFB
:10085800020C5FEA500C50F1000041EB045170BDEE
:100868000EF0004E4EEA113114EB5C04C2BFD4EB1B
:100878000C0541EA045170BD41F480114FF0000E9F
:10088800013C90E645EA060E8DE60CEA135594EA1B
:100898000C0F08BF95EA0C0F3FF43BAF94EA0C0F1E
:1008A8000AD150EA01347FF434AF95EA0C0F7FF493
:1008B80025AF104619462CE795EA0C0F06D152EAE7
:1008C80003353FF4FDAE1046194622E750EA4106CB
:1008D80018BF52EA43067FF4C5AE50EA41047FF4DC
:1008E8000DAF52EA43057FF4EBAE12E74FEA41023F
:1008F80012F5001215D211D56FF47873B3EB62526A
:1009080012D94FEAC12343F0004343EA505311F090
:10091800004F23FA02F018BF404270474FF0000022
:10092800704750EA013005D111F0004008BF6FF060
:10093800004070474FF00000704700BF4FEA410287
:10094800B2F1E04324BFB3F5001CDCF1FE5C0DD925
:1009580001F0004C4FEAC0024CEA5070B2F1004F6F
:1009680040EB830008BF20F00100704711F0804F72
:1009780021D113F13872BCBF01F00040704741F437
:1009880080114FEA5252C2F11802C2F1200C10FA3B
:100998000CF320FA02F018BF40F001004FEAC1231F
:1009A8004FEAD32303FA0CFC40EA0C0023FA02F3C3
:1009B8004FEA4303CCE77FEA625307D150EA013399
:1009C8001EBF4FF0FE4040F44000704701F0004069
:1009D80040F0FE4040F40000704700BF7BB972B998
:1009E8000029BEBF00204FF0004106E008BF0028E4
:1009F8001CBF6FF000414FF0FF3000F075B8ADF14B
:100A0800080C6DE904CE002909DB002B1ADB00F085
:100A180042F9DDF804E0DDE9022304B07047404202
:100A280061EB4101002B1BDB00F035F9DDF804E038
:100A3800DDE9022304B0404261EB4101524263EB1D
:100A480043037047524263EB430300F024F9DDF897
:100A580004E0DDE9022304B0404261EB4101704744
:100A6800524263EB430300F016F9DDF804E0DDE9D8
:100A7800022304B0524263EB4303704753B94AB9A7
:100A8800002908BF00281CBF4FF0FF314FF0FF308E
:100A980000F02AB8ADF1080C6DE904CE00F0FBF8BF
:100AA800DDF804E0DDE9022304B07047D0B5002288
:100AB8000B4B06460F46FFF707FD00F09FF804466C
:100AC800FFF788FC0022074BFFF7FEFC02460B46A7
:100AD80030463946FFF740FB00F090F82146D0BD7C
:100AE8000000F03D0000F041704700BF4FF0FF3CB0
:100AF80006E000BF4FF0010C02E000BF4FF0010C10
:100B08004DF804CD4FEA410C7FEA6C5C4FEA430C88
:100B180018BF7FEA6C5C1BD001B050EA410C0CBFD7
:100B280052EA430C91EA030F02BF90EA020F002039
:100B3800704710F1000F91EA030F58BF994208BFA0
:100B480090422CBFD8176FEAE37040F0010070475D
:100B58004FEA410C7FEA6C5C02D150EA013C07D1B4
:100B68004FEA430C7FEA6C5CD6D152EA033CD3D0FF
:100B78005DF8040B704700BF8446104662468C46F9
:100B88001946634600E000BF01B5FFF7B7FF00282C
:100B980048BF10F1000F01BD4DF808EDFFF7F4FF55
:100BA8000CBF012000205DF808FB00BF4DF808EDE0
:100BB800FFF7EAFF34BF012000205DF808FB00BF03
:100BC8004DF808EDFFF7E0FF94BF012000205DF825
:100BD80008FB00BF4DF808EDFFF7CEFF94BF0120DA
:100BE80000205DF808FB00BF4DF808EDFFF7C4FFD3
:100BF80034BF012000205DF808FB00BF4A0011D275
:100C080012F5001211D20DD56FF47873B3EB62525E
:100C18000ED44FEAC12343F0004343EA505323FA6A
:100C280002F070474FF00000704750EA013002D1DF
:100C38004FF0FF3070474FF0000070474FEA410C0B
:100C48007FEA6C5C02D150EA013C0AD14FEA430CBE
:100C58007FEA6C5C02D152EA033C02D14FF00000FB
:100C680070474FF00100704738B500220023044652
:100C78000D46FFF79BFF28B920462946BDE83840B6
:100C8800FFF714BF204605F10041FFF70FFF404270
:100C980061EB410138BD2DE9F04786468C46084690
:100CA800089E154674461946002B40F0C1808542BF
:100CB800B2FA82F245D94AB1C2F1200300FA02FC25
:100CC800954094402EFA03F343EA0C0C4FEA154E74
:100CD800A8B2230CBCFBFEF80EFB18CC08FB00F9ED
:100CE80043EA0C43994528D9EB1808F1FF3704D299
:100CF800994502D9A8F102072B44A3EB0903A4B232
:100D0800B3FBFEFC0EFB1C330CFB00F044EA03446F
:100D1800A04214D92C190CF1FF3304D2A04202D9F5
:100D2800ACF102032C44241A43EA07401EB1D44014
:100D3800002334607360BDE8F0874746DDE763460B
:100D4800F1E792BB431B01214FEA154EAFB2200CCD
:100D5800B3FBFEFC0EFB1C330CFB07F840EA034315
:100D6800984561D9EB180CF1FF3004D2984502D9A7
:100D7800ACF102002B44A3EB0803A4B2B3FBFEFCC6
:100D88000EFB1C330CFB07F744EA0344A7424DD97A
:100D98002C190CF1FF3304D2A74202D9ACF102039B
:100DA8002C44E41B43EA0040C0E7C2F1200395400D
:100DB800944020FA03F12EFA03F34FEA154E9040BF
:100DC800AFB20343B1FBFEFC0EFB1C10190C0CFB6D
:100DD80007F841EA0041884522D969180CF1FF302B
:100DE80004D2884502D9ACF102002944A1EB0801DC
:100DF8009BB2B1FBFEFC0EFB1C110CFB07F743EA90
:100E080001439F420ED9EB180CF1FF3104D29F42E7
:100E180002D9ACF102012B44DB1B41EA004193E704
:100E28006046E3E76146F7E76046A4E76346B8E74C
:100E3800834206D916B9002108467CE7C6E900E0D6
:100E4800F9E7B3FA83F78FB9834201D3724508D81B
:100E5800BEEB020460EB030301209C461EB900218F
:100E680069E73846FAE7C6E9004CF8E7C7F1200C0D
:100E7800BB400EFA07F522FA0CF42EFA0CF1BA4030
:100E88001C4320FA0CF3B8404FEA144901431FFAF7
:100E980084FEB3FBF9F809FB18300B0C08FB0EFABB
:100EA80043EA00439A4540D9E31808F1FF3004D2D9
:100EB8009A4502D9A8F102002344A3EB0A0389B298
:100EC800B3FBF9F809FB183308FB0EFE41EA0341AE
:100ED8008E452CD9611808F1FF3304D28E4502D90A
:100EE800A8F10203214443EA0040A1EB0E01A0FB54
:100EF80002984145CE46434602D306D14D4504D219
:100F08000138B9EB020E68EB0403002EA7D0B5EB4D
:100F18000E0261EB030101FA0CFC22FA07F3F94017
:100F28004CEA0303C6E9003199E74046C5E7434662
:100F3800D9E770B4840746D04C1E002941D0D5B2F9
:100F4800034602E0611EE4B30C4603F8015B99070F
:100F5800F8D1032C2ED9D5B245EA05250F2C45EA40
:100F6800054519D9264603F11001103E0F2E41F808
:100F7800105C41F80C5C41F8085C41F8045C01F134
:100F88001001F2D8A4F1100121F00F0104F00F04B0
:100F98001031032C0B440DD91E4621460439032970
:100FA80046F8045BFAD8211F21F0030104310B44F1
:100FB80004F003042CB1D2B21C4403F8012BA34261
:100FC800FBD170BC70470C460346C2E710F8012BF2
:100FD80011F8013B012A28BF9A42F7D0D01A70476E
:100FE800034613F8012B002AFBD1181A0138704761
:100FF80010B584460C460C48ACFB000108A3D3E9A5
:1010080000234FF0070E0EFB0C11FFF737FD074BBF
:101018001B68074A02FB0300204410BDAFF30080A1
:1010280000CA9A3B000000008D49FD1A940801206F
:101038000080841E000000002DE9F04D2DED028B8C
:1010480088B000AF054640688368DB683C21984754
:10105800041EC0F23381686883681B6907F11802AF
:101068001F219847041EC0F22981686883681B699C
:1010780007F1100221219847041EC0F21F816868F9
:1010880083681B6907F1080222219847041EC0F2F1
:101098001581914B1B6803F00703022B40F2158161
:1010A8002E68B869FFF7A6F904460D46F869FFF7F8
:1010B800A1F987A3D3E90023FFF730FB02460B46CB
:1010C80020462946FFF74AF800220023FFF746F892
:1010D80041EC180B3869FFF78DF904460D4678691D
:1010E800FFF788F97AA3D3E90023FFF717FB024635
:1010F8000B4620462946FFF731F80022774BFFF7C9
:10110800E3F900220023FFF729F882468B46B868E6
:10111800FFF770F904460D46F868FFF76BF96CA302
:10112800D3E90023FFF7FAFA02460B462046294680
:10113800FFF714F80022694BFFF7C6F900220023D5
:10114800FFF70CF841EC170B6D4600233B710223A7
:101158007B711C230C2213F0070F02D108320833CD
:1011680004E004320433F6E70432043313F0070FC3
:10117800FAD10832083301E00432043313F00704CB
:10118800FAD102F10A0C6346213222F00702ADEBD4
:10119800020D6A46BCF1000F7AD002F11008BCF1CA
:1011A800030F73D9B8F1000F04D0BCF1040F01DDAF
:1011B8004B4B536100233B7002237B70B8F1000F47
:1011C80003D0BCF1080F00DD96611C210C200B46F2
:1011D80011F0070F0DD18646B8F1000F05D0604514
:1011E80003DA08EB000181ED008B0EF1080E0833DD
:1011F80005E004300431EAE70EF1040E0433194621
:1012080013F0070FF8D17646B8F1000F05D0E64580
:1012180003DA08EB0E03C3E900AB083601F1080353
:1012280001E00436043313F0070FFAD13346B8F15E
:10123800000F05D0664503DA08EB060181ED007B57
:1012480003F108060A33B8F1000F0DD008EB0601C8
:10125800002007E000F1200EBE441EF820EC01F843
:1012680001EB01300128F5D99C4501DA6FF01B0329
:10127800B8F1000F0CD0C6F387063E7100217971D2
:10128800B9710121F9717868106101E06FF01B03F1
:1012980000216FF300016FF341016FF382016FF3D7
:1012A800C501032060F3881163F353216FF31F51C5
:1012B8001032002308480FF005FFAD4620462037BE
:1012C800BD46BDEC028BBDE8F08D0024F6E700BFFB
:1012D8000000000080842E414819002000408F4003
:1012E800FCEC0600000000002DE9F04F8DB00990DD
:1012F8000D46174667F0F2FF4B0143EAD0634401FD
:10130800241A63EB01039B0043EA9473A400241896
:1013180043EB0101C90041EA5471C4F3103444EAB3
:1013280041444FEAD139012D65D07D6829463C48B2
:10133800FFF74CFE28B129463A48FFF747FE002838
:1013480061D135A3D3E9002320464946FFF746FB80
:1013580080460A9130A3D3E9002320464946FFF787
:101368003DFB15461C46304A002328462146FFF718
:1013780035FB06460F462C4A002328462146FFF730
:101388002DFB15461C464EF66022002328462146B2
:10139800FFF724FB81460B914EF660220023284676
:1013A8002146FFF71BFB15461C464FF47A720023B3
:1013B80028462146FFF712FB83468A464FF47A7285
:1013C800002328462146FFF709FBCDE90623CDF87F
:1013D80010B0CDF814A0CDF808900B9A039200969F
:1013E800019742460A9B1149099859F051FA002081
:1013F8000DB0BDE8F08F22464B460D49099859F0CB
:1014080047FA0020F4E72A460A49099859F04FFAA2
:101418006FF00400ECE700BF005C26050000000048
:10142800440207004802070080EE36006C020700FD
:10143800300207005402070010B5082140F60140A9
:1014480018F0ECFFD8B1044608210C3016F0CCFC9B
:1014580002460F4B93F8903013F0010F0BD10D4853
:101468004FF000515CF047F80022214640F6014059
:1014780019F050FC10BD04A1D1E90001F2E76FF0AA
:101488006800F7E7AFF30080908800020080002032
:10149800100500201088000230B589B00C9D002886
:1014A8003FD00446002949D0D0F8200110F0010FA0
:1014B80051D10020C4F80801C4F80C0104F5887063
:1014C800C4F81001C4F8140104F58C70C4F81801AC
:1014D800C4F81C01002D4BD0287900284AD10120DE
:1014E800C4F820019FED267B8DED067B002004903B
:1014F8000393029001900094234B20463AF086FB18
:1015080055B1296811B120463AF03AFA6B791BB106
:10151800237B43F001032373204667F073FD09B072
:1015280030BD1A4C40F2DF2322461949194857F0BA
:1015380087F840F2DF2120460BF04EF8134C4FF4A9
:10154800387322461449134857F07AF84FF4387123
:1015580020460BF041F80D4C40F2E12322460F499A
:101568000C4857F06DF840F2E12120460BF034F8B2
:101578000120B5E740F20110B2E700BFAFF30080E9
:10158800FFFFFFFFFFFFFFFFC9AE030090B3070097
:1015980078B40700A8B1060080B4070088B4070033
:1015A8009FED010B704700BF000000000000F87FAE
:1015B8002DE9F04F1F469DB000230C4682460F923E
:1015C80018934FF00008984B4FF000091D68284603
:1015D800FFF706FD22468346179213782B2B3BD044
:1015E8002CD80D2B26D8082B26D8002B2FD000233B
:1015F8000D93179E3378302B74D1737803F0DF0383
:10160800582B65D10D9B17A9884A5046019318ABF2
:101618000297009319AB54F0BBFC10F00705044681
:1016280035D0062D1AD10F9B0BB101361E604246EC
:101638004B4637E0202BDAD10132CDE72D2BD6D11E
:1016480001230D93531C17935378002BD1D10F9B73
:10165800002BECD01C60EAE70023F2E7189A3AB1B5
:1016680035211AA868F0D1FB1899504654F010FF9C
:10167800013D199A042D06D8DFE805F01903222543
:101688001900DDE91A89210701D549F000490F9BA6
:1016980013B1179B0F9A13600D9B002BC7D04246BE
:1016A80009F1004343EC102B1DB0BDE8F08FDDE9D4
:1016B8001A8302F2334223F4801343EA0259E2E721
:1016C800DFF86C91DFE76FF000494FF0FF38DAE799
:1016D800179B5A1C17925B78302BF9D0002BD6D069
:1016E800012300E00023002704930A22179BCDE979
:1016F80005770A9317980678A6F13003D9B2092915
:1017080024D95A46294668F0B9F800282DD0002077
:101718003246059D83460346652A01D0452A13D1E2
:101728001DB9049A024392D00025179C621C179297
:1017380062782B2A6ED02D2A72D04FF0000CA2F1BD
:10174800300109297AD91794002699E005990130C2
:1017580008291790D7BF069902FB073702FB013308
:101768000693059B01330593C4E7179B03EB0B0214
:10177800179213F80B20059BA3B383461D46A2F1CD
:101788003003092B12D90123C6E7179B01305A1CD5
:1017980017925A78302AF8D0A2F13103082B00F2B8
:1017A800EF8483460020179B05460A93303A00F1E0
:1017B800010311D09B4400EB050C2B460A2163451D
:1017C80012D12B180135082B054419DC06990A2378
:1017D80003FB012306930023179A1846511C1791FF
:1017E8005278CCE70598D5E7082B03F1010303DC11
:1017F800069E4E430696E2E7102BD8BF4F43DEE71E
:101808000F2BDCBF0A2303FB0727E4E74FF0000B8D
:10181800012386E74FF0000CA21C1792A2788EE7EE
:101828004FF0010CF8E700BF14EA0700FCE90700D5
:101838000000F07F179A511C17915278302AF9D07E
:10184800A2F1310108293FF67FAF303A0792179A83
:101858000C92179A561C17965278A2F1300EBEF1C8
:10186800090F38D90C99761A082E44F61F6603DC3E
:1018780007998E42A8BF0E46BCF1000F00D07642F1
:10188800002D4FD1049908437FF401AF002B7FF45A
:10189800DEAE692A29D026DC492A26D04E2A7FF4D2
:1018A800D6AE9B4917A868F053F900283FF4CFAE8D
:1018B800179B1B78282B2FD11AAA964917A868F0CE
:1018C8005BF9052828D11B9BDDF8688043F0FF49A8
:1018D80049F4E009DBE6079E0A2101FB0621A1F194
:1018E80030020792B5E76E2AD9E78B4917A868F046
:1018F8002FF900283FF4ABAE179B17A88749013B87
:10190800179368F025F910B9179B01331793DFF87F
:101918001C924FF00008BAE68148FFF741FE59ECE7
:10192800108BB4E6A6EB0B0306982C460C93059B8C
:10193800002B08BF2B46102D0593A8BF1024FEF7D7
:1019480049FD092D8046894613DC0C9B002B3FF48A
:101958009EAE0C9B78DD162B45DC7249424601EBA6
:10196800C3014B46D1E90001FEF7AEFD804689462A
:101978008DE66C4B03EBC40353E91223FEF7A4FD79
:10198800804689463846FEF725FD02460B46404606
:101998004946FEF7E3FB0F2D80468946D5DD2C1B13
:1019A8000C9B1C44002C25DC00F0A280644214F03F
:1019B8000F020AD05B4B4046494603EBC203D3E90A
:1019C8000023FEF7ABFE80468946241100F0908084
:1019D8001F2C40F3B18022234FF000084FF000097C
:1019E800CAF8003053E6C5F125030C9A934219DA78
:1019F8002C1B144414F00F030AD04A49424601EB49
:101A0800C3014B46D1E90001FEF75EFD80468946D9
:101A180034F00F046CD0B4F59A7F41DD2223CAF864
:101A2800003074E7C5F10F053E4C42464B4604EBC7
:101A3800C501D1E90001FEF747FD0C9B5D1B04EBD6
:101A4800C504D4E900238FE71633A8DBABEB060205
:101A5800344B4046494603EBC203D3E90023FEF763
:101A68005DFE83E7002306932223DFF8C0904FF042
:101A78000008CAF800301899504654F009FD069934
:101A8800504654F005FD0599504654F001FD109953
:101A9800504654F0FDFC0799504654F0F9FCF6E521
:101AA80000232411404649461F4F0493012C22DC91
:101AB8000BB180468946049BA9F154791A494246DC
:101AC80001EBC3014B46D1E90001FEF7FDFC174BC2
:101AD8000A4680460B4016498B429FD8A1F58011D3
:101AE8008B4286BFDFF84C904FF0FF3802F15479F3
:101AF800002304934BE0E20704D5D7E90023FEF75F
:101B0800E3FC0123049A6410083701320492CDE7FC
:101B1800BC320800E8E90700B4320800E6320800E1
:101B28007A340800C8AF0600A0AF06000000F07FB6
:101B38000000A07CFFFFEF7F14F0100340464946E9
:101B4800AA4F18BF6A2304930023E20704D5D7E9F4
:101B58000023FEF7B9FC0123641007F10807F4D14C
:101B68000BB180468946049B43B1C9F30A524946E2
:101B7800C2F16B03002B4EDC6A230493002200237E
:101B880040464946FFF708F800287FF424AF069B33
:101B98005046059A00932B460A9954F0E3FC10909E
:101BA80000283FF43BAF0C9BABEB060B002BB4BFFC
:101BB8005B46002311930C9B23EAE37313930023E2
:101BC80007930593109B5046596854F021FC0690E2
:101BD80000283FF449AF109B0C301A6903F10C013F
:101BE8000232920067F0F3FC1AAA19A9504649EC90
:101BF800108BCDE90A8954F091FF189000283FF422
:101C080033AF0121504654F0F7FC03460590D0B994
:101C18000023059328E71F2B0EDD342B4FF0000817
:101C2800DBBF4FF0FF33C2F14B024FF05C799340BA
:101C3800D8BF03EA01099FE74FF0FF3202FA03F326
:101C480003EA080898E7199C1A9A002CA9BF119B67
:101C5800139BE718139EB8BF1E1B049BB8BF119FA8
:101C6800E41A634B1444C2F13602013C9C4280F2F0
:101C7800B0801B1B01251F2BA2EB0302CDBFC4F1B3
:101C88007F449D40002404F57F04C2BF04F57B44D3
:101C9800E23405FA04F407EB020B049B16445F4593
:101CA8001E443B46A8BF5B46B342A8BF3346002B41
:101CB800C2BFABEB030BF61AFF1A119B002B16DD04
:101CC8001A460599504654F057FD059000289FD0B4
:101CD8000146189A504654F0A5FC0E9000283FF48F
:101CE800C3AE1899504654F0D3FB0E9B1893BBF122
:101CF800000F71DC0C9B002B08DD139A50460699E7
:101D080054F03AFD069000283FF4ACAE002E08DDF2
:101D180032460699504654F089FD069000283FF453
:101D2800A1AE002F08DD3A460599504654F07EFDD5
:101D3800059000283FF498AE069A5046189954F03A
:101D4800E1FD079000283FF48FAEC36805990E9314
:101D58000023C36068F00CF800284BDA0E9B53EAA6
:101D6800080340F0BC80C9F31303002B40F0B78090
:101D780029F000431B0D1B05B3F1D66F40F2AF806D
:101D8800079B5B6923B9079B1B69012B40F3A7805D
:101D980001220799504654F049FD0599079067F0CC
:101DA800E7FF002840F39B8029F00043049A1B0DAD
:101DB8001B05002A79D0B3F1D66F6DD8B3F15C7FDB
:101DC80046D84FF000084FF000092223CAF8003027
:101DD80051E6002401255EE75A461899504654F00A
:101DE80025FD1890002885D13EE600BF78AF060093
:101DF80002FCFFFFCB4640F0A3800E9AC9F3130301
:101E0800002A40D09C4A934258D1049B42467BB951
:101E1800B8F1FF3F40F08980984B99453FF424AED4
:101E2800974BDDF8108009EA030303F5801922E6D1
:101E3800934B09EA0303B3F1D46F16D918F10101E2
:101E48001BD18E4A91453FF40FAE03F580198046A9
:101E58008C4B404649460022FEF736FB0B4680462F
:101E6800894603437FF407AEAFE71E0D4FF0FF31FD
:101E7800C6F16B06B1408845E7D0002C5ED014EA65
:101E88000B0FE5D01EE0002B4AD1B8F1000F8BD024
:101E980064B314EA0B0F2BE0A3F580134FF0FF385F
:101EA8006FEA13596FEA0959D2E7A3F580134FF087
:101EB800FF386FEA13596FEA0959DCE59CB114EA57
:101EC800090F0CD040464946049A67F01EFDDDE92B
:101ED8000A0153EC102BFEF741F980468946049B12
:101EE800002BB5D1C7E515EA080FEAE718EA050F90
:101EF800F5D0049A4046494667F007FDDDE90A0136
:101F080053EC102BFEF728F90022002304460D4657
:101F1800FEF742FE00287FF454AFA046A946DEE74C
:101F2800002CB6D115EA080FE2E724B114EA090F2C
:101F38003FF4A1ADC6E718EA050FF9E72A42A0E782
:101F48000599079867F02FFF00224FF0804355EC62
:101F5800104B20462946FEF733FE00286DD00E9B15
:101F6800002B78D1B8F1000F56D1C9F31303002B19
:101F780059D10022444B20462946FEF717FE002877
:101F880058D1204629460022404BFEF79DFA0446C8
:101F98000D4605F1004308940993394B0BEA0303F6
:101FA8001293129A3A4B9A42DDE9086740F0A980E9
:101FB800ABF1547949EC108B54F03CFDDDE9082372
:101FC80051EC100BFEF780FA42464B46FEF7C6F876
:101FD8000B462B4980462F4A194091425CD90B9AEF
:101FE800264B9A4203D10A9B01333FF43DADDFF8FB
:101FF8008C904FF0FF381899504654F049FA0699DA
:10200800504654F045FA0599504654F041FA07995C
:10201800504654F03DFAD5E5B8F1010F03D1B9F1B6
:10202800000F3FF4CEAE0024174D9FED0F7B8DEDD2
:10203800087BB2E70024154DABE7144B2046294630
:102048000022FEF741FA0E9B04460D46002BA0D055
:10205800CDE90845A1E79FED067B55EC174B8DEDC3
:10206800087B9AE7AFF30080000000000000F0BF93
:10207800000000000000F03FFFFF0F00FFFFEF7FB0
:102088000000F07F000050390000F03F0000E03F02
:102098000000E07FFFFF9F7C03F15479049B4E46CC
:1020A800002BA8D129F00043129A1B0D1B059A4258
:1020B800A1D120462946FEF7D7FDC9F31306FEF73E
:1020C800D5F90B4602462946204646EA0806FEF799
:1020D80043F80E9B04460D461E434BD02EA3D3E96E
:1020E8000023FEF763FD00287FF4C5AC204629468F
:1020F8002BA3D3E90023FEF777FD00283FF47BAF3D
:10210800B9E4049B13B3129BB3F1D46F1ED82046D5
:10211800294625A3D3E90023FEF752FD90B12946AD
:102128002046FEF76BFD012838BF0120FEF752F963
:102138000E9B04460D46D3B901F100431490159344
:10214800DDE9146707F1D663129A9F1A9DED0A0B11
:1021580054F070FC3046394653EC102BFEF7B4F9B6
:10216800DDE90A23FDF7FAFF8046894696E7CDE9BF
:102178001445E5E70EA3D3E90023FEF717FDBCE7F6
:10218800652A3FF443AB452A3FF440AB0123FFF7F0
:1021980079BB00BFAFF300809535A094FFFFDF3F08
:1021A80035E5AF350000E03F0000C0FFFFFFDF412D
:1021B8009535A094FFFFCF3F2DE9F04F476A97B0C0
:1021C8008346209E08910C92129355EC104B8DED8E
:1021D800000B7FB9102053F057F90246CBF82400C2
:1021E80020B9A74BEA21A74854F0F0FCC0E90177D1
:1021F8000760C760DBF82430196859B15A680123B1
:10220800584693404A608B6054F042F9DBF824301A
:1022180000221A602B1EB7BF23F0004300230122BF
:102228000193A8BF3360019F974BB8BF3260BB438F
:1022380019D142F20F73129A1360C7F313032343A1
:1022480000F0DB85219B53B9904B21E0904B039321
:102258000833219A1360039817B0BDE8F08F8B4BB1
:1022680003930333F5E79DED007B0022002351EC37
:10227800170B8DED0A7BFEF78FFC804650B10123CA
:10228800129A1360219B13B1824B219A1360824BDF
:102298000393E0E7C7F30A5614AA15A958469DED1B
:1022A8000A0B54F03BFC0290002E76D00B9BA6F252
:1022B800FF36CDF84C80C3F3130343F07F53DDE9B9
:1022C8000A0143F4401319460022744BFDF744FFFA
:1022D80065A3D3E90023FEF7F7F865A3D3E9002344
:1022E800FDF73CFF04460D463046FEF783F862A32F
:1022F800D3E90023FEF7E8F802460B4620462946B4
:10230800FDF72CFF04460D46FEF7F0FA00220746BB
:10231800002320462946FEF749FC40B13846FEF71F
:1023280069F822462B46FEF737FC00B9013F162F05
:1023380052D85B4B03EBC703DDE90A01D3E900235D
:10234800FEF734FC002849D0013F00231193149B69
:102358009B1B5A1E4CBFC3F101030023079245BFC4
:102368000693002306930793002F39DB079B1097EA
:102378003B44079300230993089B092B66D8052B38
:10238800C5BF043B002401240893089B023B032B90
:1023980067D8DFE803F02D3A3859DDE914631E44A5
:1023A80006F23243202BC9BFC3F14003C3F1200317
:1023B8009F4006F21243D8BF04FA03F006F1FF3635
:1023C800C4BF24FA03F347EA0300FEF703F8012227
:1023D800A1F1F873139276E70123B7E71190B6E7F6
:1023E800069BDB1B06937B42099300231093C3E7EC
:1023F80000230D930C9B002B56DC012399461A46AB
:1024080004930C920CE00123F3E700230D930C9B3B
:10241800FB1803F1010904934B46012BB8BF0123B4
:10242800DBF824000021042202F114059D423FD963
:102438004160584653F0ECFF039000283BD1194BFC
:1024480002464FF4D571CEE60123DFE701240023CD
:102458000D9408934FF0FF330022994604931223FA
:10246800CFE701230D93F5E761436F63A787D23F59
:10247800B3C8608B288AC63FFB799F501344D33F6B
:10248800F0320800073308000000F07FEC32080043
:10249800E3320800C0320800BF3208000000F83FED
:1024A800C8AF0600633308000C9B99460493B7E74E
:1024B80001315200B8E7DBF82430B9F10E0F039A66
:1024C8001A606FD8002C6DD0002F36DD07F00F0290
:1024D800A04BF8054FEA271403EBC20393ED007BEA
:1024E8008DED0E7B17D59C4B04F00F044FF00308BD
:1024F800D3E90823DDE90A01FEF710F9CDE9000167
:10250800954D5CB9DDE90E23DDE90001FEF706F91A
:10251800CDE900012BE04FF00208F1E7E10709D50A
:1025280008F10108DDE90E01D5E90023FDF7CCFF2C
:10253800CDE90E0164100835E3E700F007817C421D
:10254800844B854D4FF0020804F00F02241103EB71
:10255800C203DDE90A01D3E90023FDF7B5FF002333
:10256800CDE90001002C40F0E580002BD0D1119B73
:10257800DDE90045002B00F04C810022774B204616
:102588002946FEF713FB002800F04381B9F1000F3C
:1025980000F03F81049B002B00F3E480DDE90A345E
:1025A800CDE90034159B002B02DB0E2F40F342824D
:1025B8000D9A002A40F06782099C0025DDF81880F2
:1025C800B8F1000F0DD0079B002B0ADD4345069A92
:1025D800A8BF4346D21AA8EB03080692079AD31A53
:1025E8000793099B0BB30D9B002B00F0A682002CD0
:1025F80000F0A18229462246584654F0BDF8029AB6
:1026080001460546584654F00DF8029906465846C4
:1026180053F03EFF099B1B1B099300F09182099A16
:102628003146584654F0A8F802900121584653F014
:10263800E3FF109B0446002B00F084821A460146F3
:10264800584654F099F8089B0446012B03DC009B7C
:10265800002B00F07C820026236904EB83031869B1
:1026680067F037FBC0F120001096079B184410F064
:102678001F0000F09182C0F12003042B40F38182F7
:10268800C0F11C00069B034480440693079B034447
:102698000793069B002B05DD1A460299584654F00D
:1026A800C5F80290079B002B05DD21461A465846BF
:1026B80054F0BCF80446119B002B00F076822146AA
:1026C800029867F055FB002880F26F8200230A22E7
:1026D8000299584653F0FEFE0D9B7E1E0290002B79
:1026E80000F05C82002329460A22584653F0F2FE85
:1026F800049B0546002B03DC089B022B00F35E823B
:10270800B8F1000F05DD29464246584654F08EF8C8
:102718000546109B002B00F0D0826968584653F09C
:1027280077FE0746002840F07F820D4B024640F2B4
:10273800EA2158E5E20706D508F10108D5E90023A2
:10274800FDF7C2FE0123641008350BE74FF00208BD
:102758000DE700BFC8AF0600A0AF06000000F03FBD
:102768006333080020460022AC4B2946FDF7ACFE37
:102778007E1E08F10108049CCDE900014046FDF7E2
:1027880039FEDDE90023FDF79FFEA54B0022FDF78A
:10279800E5FCA1F15073CDE90E010F93002C3BD15C
:1027A8000022A04BDDE90001FDF7D6FC02460B46EE
:1027B800CDE90023DDE90E23FEF716FA002840F0E4
:1027C8005781DDE90E2101F10043DDE90001FEF743
:1027D800EDF900283FF4E2AE002425460C9BDDF815
:1027E8000CA0DE434FF000082146584653F050FE37
:1027F800002D00F0A980B8F1000F05D0A84503D03E
:102808004146584653F044FE2946584653F040FE88
:102818009AE03E464C46B1E7834B03EBC40353E9C9
:102828000201039B1C440D9B002B4AD002460B4619
:1028380000207E49FDF772FFDDE90E23FDF78CFCD1
:10284800DDF80CA0CDE90E01DDE90001FEF74EF838
:102858000546FDF7CFFD024630350B46DDE90001A0
:10286800FDF77AFC0AF8015B02460B46CDE9000148
:10287800DDE90E01FEF7B8F9002865D100206C49A2
:10288800DDE90023FDF768FC02460B46DDE90E0191
:10289800FEF7AAF9002840F00D81A24500F0EA8071
:1028A80000225E4BDDE90E01FDF70EFE00225B4BB8
:1028B800CDE90E01DDE90001FDF706FECDE90001D5
:1028C800C2E7DDE90E23FDF7FFFDA046DDF80CA009
:1028D800CDE90E01DDE90001FEF708F80546FDF730
:1028E80089FD024630350B46DDE90001FDF734FC71
:1028F8000AF8015B02460B46A245CDE900234FF0DA
:10290800000223D1494BDDE90E01FDF727FC024601
:102918000B46DDE90001FEF767F9002840F0CA80A0
:1029280000204249DDE90E23FDF716FC02460B465E
:10293800DDE90001FEF73AF970B1C24608F1FF3847
:102948001AF8013C302BF8D0374655E0334BFDF7E9
:10295800BBFDCDE90001BDE7DDE90A34CDE900346E
:10296800159B002BFFF628AE0E2F3FF725AE2E4BFA
:1029780003EBC70393ED007B0C9B002B8DED047BD1
:1029880002DAB9F1000F64D0DDF80CA0DDE90045EA
:10299800DDE9042320462946FDF7C0FEFDF7A6FF22
:1029A8000646FDF727FDDDE90423FDF78DFD024608
:1029B800204606F130040B462946FDF7CDFB0AF800
:1029C800014B039C02460B46AAEB0404A14540F0C8
:1029D8008280FDF7C3FB04460D46DDE90423FEF7BC
:1029E80003F9002865D120462946DDE90423FEF7CE
:1029F800D3F808B1F3075CD40299584653F048FD60
:102A0800002301378AF80030129B1F60219B002B9E
:102A18003FF421ACC3F800A01DE400BF000024402F
:102A280000001C4000001440C8AF06000000E03F52
:102A38000000F03FA24B03EBC70393ED007B0C9B18
:102A4800002B8DED047B9FDAB9F1000F9CDC7FF43D
:102A5800C3AE00229B4BDDE90401FDF735FDDDE93E
:102A68000023FEF7B7F8044600287FF4B5AE3E46CB
:102A78002546B4E0DDE90A34CDE90034159B002B86
:102A880001DB0E2FD6DD089A012A36DC139A82B3B1
:102A980003F23343099CDDF81880069A0121584651
:102AA8001A440692079A1A44079253F0A5FD054660
:102AB80086E53E4653469A4613F8012D392A06D133
:102AC800039A9A42F7D13022039901360A701A788C
:102AD80001321A7038E700227B4BFDF7F5FC002223
:102AE800002304460D46FEF757F800283FF450AF80
:102AF80082E7149BC3F13603CCE709F1FF34099B45
:102B0800A34208DBB9F1000FA3EB04040EDBDDF8E8
:102B180018804B46C1E7099B109AE31A0994DDF81F
:102B2800188000241A444B461092B6E7069BA3EB84
:102B380009080023B1E7029E71E5099A029970E538
:102B4800029672E5089B012B17DC009BABB9019B31
:102B5800C3F313039BB9019B23F00046360D3605DA
:102B680036B1069B012601330693079B0133079371
:102B7800109B002B7FF470AD1096012075E50026A0
:102B8800F6E73FF486AD1C33069A1A449844069239
:102B9800079A1A4407927CE50346F4E7049B002B46
:102BA8002BDC089B022B09DC27E0B9F1000F1DDCA8
:102BB800089B022B1ADD3E46CDF81090049B002B93
:102BC8007FF40CAE21460522584653F083FC01469B
:102BD8000446029867F0CCF800287FF7FFADDDF8CF
:102BE8000CA0312301360AF8013BFBE50D9B3E465C
:102BF800CDF81090002B7FF483AD039F21460298F7
:102C080066F0A1FE039B00F13009049A07F8019BC6
:102C1800FB1A9A4240F3CB8000230A2202995846B5
:102C280053F058FC0290E9E72A6905F10C010C30D1
:102C38000232920066F0CBFC01223946584653F026
:102C4800F5FD039BA846054603F1010ADDE90323C8
:102C580013440793009B03F0010309930AF1FF3320
:102C680021460298049366F06EFE4146069000F1F4
:102C78003009029867F07CF82A46214607465846EC
:102C880053F040FEC268014602B3584653F000FCB8
:102C9800002F3ADA01220299584653F0C7FD21461F
:102CA800029067F065F8002803DC29D119F0010FBC
:102CB80026D0B9F1390F1DD132E02846C1E700BF4F
:102CC800C8AF060000001440000024400A90029893
:102CD80067F04EF80A990C90584653F0D9FB0C9AB5
:102CE8005ABB089B53B9099B43B9B9F1390F17D09F
:102CF800002F05DD069B03F1310901E0002F2ADAD8
:102D0800DDF810A00AF8019B6EE5089B3B4304D14F
:102D1800009B03F00103002BBCD0B9F1390F36D169
:102D2800049F392307F8013BBA46013F1AF8013CD2
:102D3800392B5AD001333B7056E5002F06DB089B30
:102D48003B4306D1009B03F0010313B9002AA1DC21
:102D5800D6E7002AE1DC079B57460AF8019C534551
:102D68002ED000230A220299584653F0B3FBA845F7
:102D780002904FF000034FF00A02414658460BD12B
:102D880053F0A8FB804605460AF1010A66E7DDF81C
:102D980010A009F10109B5E753F09CFB29468046CC
:102DA80000230A22584653F095FB0546ECE7049B9E
:102DB8004FF00008002BCCBF1F460127039B1F4480
:102DC80001220299584653F031FD2146029066F0DF
:102DD800CFFF0028A8DC02D119F0010FA4D1BA4610
:102DE80017F8013D302BFAD0FEE4039BBB429BD180
:102DF8003123039A01361370F6E4219B002B7FF4EC
:102E080025AA014BFFF744BAE332080090B585B014
:102E180000AF624B1B6803F00703022B71D96C46A5
:102E280000233B7102237B710122BA710322FA71DC
:102E38003B7204237B728CB0EC461CF110022DD03F
:102E48004FF01A0E2AB1BEF1040F02DD544BCCF834
:102E5800143000233B7102237B712AB1BEF1080FA5
:102E680002DD504BCCF818300123BB710323FB71F2
:102E78002AB1BEF10C0F02DD4B4BCCF81C300223FB
:102E88003B7204237B72B2B1BEF1100F02DD474BD7
:102E9800CCF820300CF1240300210AE06FF0004E3A
:102EA800D0E701F11000384410F80C0C03F8010BBE
:102EB80001310529F5D9BEF1190F3FDD1A234AB1B1
:102EC8000521397000217970B9700321F9703868CB
:102ED800CCF8100000216FF300016FF341016FF38C
:102EE80082016FF3C501032060F38811C3F30A035D
:102EF80063F353216FF31F51002328480EF0E2F8C3
:102F0800A546264B1B6803F00703022B19D807F1C7
:102F18000F0009F053FBFB7BCBB1012B2FD12448C9
:102F28000DF018FF044628B91C4B1B6803F0070373
:102F3800022B1ED820461437BD4690BD6FF01B03E8
:102F4800BDE71C4A0321154856F082FFDFE71A48FF
:102F58000DF000FF04460028ECD1104B1B6803F06D
:102F68000703022BE6D9154A03210C4856F070FFD7
:102F7800E0E7134A0321094856F06AFFDAE7114CE3
:102F8800382322461049114855F05AFB104855F08D
:102F980057FB3821204609F01FFB00BFF01800201E
:102FA80090B00600DCB10600DCB0060004B20600F2
:102FB80028B20600E4B006002CB2060000B10600F4
:102FC80020B1060040B10600C4DA0600A8B1060028
:102FD800C8B10600014B1870704700BF8417002065
:102FE80030B599B004460D462C2200210DA866F094
:102FF80015FB4FF0FF331693238913F0010F01D10E
:1030080063890BB919B030BD0DAA2549284616F0B9
:10301800A1FA9DF85C30002BF4D0224B1B68169A5D
:103028009A42EFD0204A1360204B1B6813F0070F19
:1030380027D11F481BF042F81AF0FCFF09238DF82E
:103048000830169A1B4B1A601B4D20686168A268ED
:10305800E3680FC50022002302A9184829F02AFCBA
:1030680003460028CED0114A126812F0070F0ED17D
:10307800002383F31188BFF36F8F0323184602DF01
:10308800C0E70F4A0121094856F0E2FED1E7612264
:1030980000920C4A0121054856F0EFFEE8E700BF10
:1030A800557A00007407002090070020241900209A
:1030B800FC530020085400200C54002004AB0600E8
:1030C80030B2060048B2060000B595B02C220021A7
:1030D80009A866F0A3FA124B1B681293114A1268EA
:1030E80012F0060F16D10121002008F0AFFBEC46C4
:1030F8000DF1300EBEE80F00ACE80F009EE80F009F
:103108008CE80F0009AB0ECB074804F0BDFF15B0E3
:103118005DF804FB054A0221024856F0A3FEE2E7E7
:1031280008540020241900200C5400206CB206001A
:1031380010B58EB0CEE040F2891200928E4A01217D
:103148008E4856F09AFED8E08C4B1B6803F00703B4
:10315800022B25D80799069806F04EFC68B3874BD2
:103168001B6813F0060F22D1079B0093002302224D
:103178001946184605F0D2F90346002800F0AA803F
:1031880010F1780F00F0F5807C4A126812F0070FF2
:1031980000F0A0807A4A0121784856F063FE99E051
:1031A800079B784A0321754856F05CFED2E7764AB9
:1031B8000221724856F04CFED6E7079B734A13600B
:1031C8006E4A126812F0060F00F08480704A0221DD
:1031D8006A4856F047FE7DE0684B1B6803F007031A
:1031E800022B2BD86B481AF069FF1AF023FF674BA4
:1031F8006FF07F421A609DF82030162B6AD05F4B23
:103208001B6813F0060F21D14FF080730093002341
:1032180002221946184605F081F90346E0B110F17B
:10322800780F00F0A680554A126812F0070F51D0A7
:10323800534A0121514856F015FE4BE09DF82030C5
:10324800554A03214D4856F00DFECBE7534A02215B
:103258004A4856F0FDFDD7E7484B1B6803F00703C3
:10326800022B37D94E4A0321444856F0F1FD31E08C
:1032780006F0BAFC034668B3404A126812F0070F1A
:1032880028D0484A01213D4856F0ECFD22E0464C42
:10329800204604F0DDFF206806F008FC0346C8B1AC
:1032A800364A126812F0070F14D0404A01213348F9
:1032B80056F0D8FD0EE0314B1B6813F0060F3DD1D8
:1032C80006F092FC0346002844D02C4A126812F0FB
:1032D800070F39D14FF0FF324FF0FF33CDE900230C
:1032E80002AA0DA9324829F01BFC70B10346234AF3
:1032F800126812F0070F7FF41EAF002383F31188C2
:10330800BFF36F8F0323184602DF9DF808309A1E1B
:10331800072A23D801A151F822F000BFDD320000AE
:10332800DD32000051310000E1310000DD320000E3
:103338007932000097320000BF3200001D4A022196
:103348000E4856F085FDBBE7164A01210B4856F09A
:1033580089FDBFE7184837F099FFBBE7074A1268AD
:1033680012F0060FB6D0154A0221044856F07AFD2D
:10337800B0E70EB010BD00BF48B206002419002007
:10338800CCB20600A0B20600B4B206007407002052
:10339800ECB20600FC53002010B306002CB3060064
:1033A80050B3060074B3060058530020A0B30600BB
:1033B80068AB0600C4B3060064070020D4B3060057
:1033C8002DE9F04788B002AF4FF0010A3DE08422B2
:1033D8000092A74A0121A74856F04FFD45E08922EF
:1033E8000092A34A0121A34856F047FD54E06FF02C
:1033F80000416BE013297EDD14213AB105203871B4
:1034080000207871B871F871786818616FF300045A
:103418006FF341046FF382046FF3C504032363F36E
:103428008814C1F30A0161F353246FF31F54002376
:10343800214690480DF046FEB5463B7B012B5DD0FA
:103448008C4B1B6813F0060F65D14FF0FF324FF01D
:10345800FF3307F11401884829F0E2FA034660B106
:10346800844A126812F0070FB1D1002383F3118840
:10347800BFF36F8F0323184602DF40F6CD420023C7
:1034880007F10801786929F07FFA034660B1794AA3
:10349800126812F0070FA2D1002383F31188BFF33B
:1034A8006F8F0323184602DF724B1B6803F0070374
:1034B800022BC2D9D7F8088097F80CE03D696E4610
:1034C8008AB002AB13F1100291D01421002A91D0D6
:1034D8000846042903DDDFF8D491C3F814900828BE
:1034E80001DDC3F818800C2801DDC3F81CE01028A2
:1034F80080DD1D627EE76FF01B017EE73B69002BD4
:103508009ED1BB689A1E042A00F2D280DFE802F03E
:103518004F3D09736100594A0221564856F098FCFC
:1035280093E7574B1B7863B1012B1CD0514A1268A3
:1035380012F0060F89D0534A02214E4856F092FCE9
:1035480083E706F0F3FA034600283FF47EAF494AC2
:10355800126812F0060F3FF478AF4B4A0221454833
:1035680056F080FC71E706F0C5FA034600283FF4E0
:103578006CAF404A126812F0060F3FF466AF434A38
:1035880002213C4856F06EFC5FE754F023F90346ED
:1035980000283FF45AAF374A126812F0060F3FF47A
:1035A80054AF3B4A0221334856F05CFC4DE754F0D7
:1035B80015F9034600283FF448AF2E4A126812F066
:1035C800060F3FF442AF334A02212A4856F04AFC1C
:1035D8003BE706F05BF9034600283FF436AF254A7F
:1035E800126812F0060F3FF430AF2B4A022121482F
:1035F80056F038FC29E71AF01DFD06F0F5FA0346E7
:1036080058B11C4A126812F0070F3FF41EAF234A44
:103618000121184856F026FC17E7BAF1000F1AD016
:103628004FF0807300931E4B02220021084604F0DD
:1036380075FF4FF0000A00283FF407AF0D4B1B68D9
:1036480013F0060F3FF401AF0346164A022109485A
:1036580056F008FCF9E64FF080730093124B0222F3
:103668000021084604F05AFF4FF0010AE3E700BFC3
:1036780048B206002419002074AB060038B40600CE
:103688008417002098B4060050B4060074B40600ED
:10369800B0B40600D0B40600F0B4060074B3060057
:1036A8001CB506004CB5060034B50600FCB3060090
:1036B800054A126812F0060F3FF4C7AE034A02210A
:1036C800014856F0CFFBC0E6241900207CB506005F
:1036D80010B588B000220023CDE906230023049307
:1036E80005220392029301930093324B4FF4006238
:1036F8003149324838F08AFA314B1860314938F08C
:103708003FF970B10446304B1B6813F0070F02D124
:10371800204608B010BD2D4A01212B4856F098FBD1
:10372800F6E700220023CDE90623002304930522AF
:103738000392029301930093254B4FF400622549AD
:10374800254838F063FA254B1860254938F018F9F0
:10375800044650B11C4B1B6813F0070FD8D0214A00
:103768000121194856F074FBD2E700220023CDE965
:1037780006230023049305220392029301930093E6
:10378800194B4FF400621949194838F03FFA194BA0
:103798001860194938F0F4F804460028B8D00A4BE4
:1037A8001B6813F0070FB3D00E4A0121064856F0E4
:1037B8004FFBADE7C9330000D83C0120102300209F
:1037C80024540020A0B5060024190020B0B5060036
:1037D800F5390000D83401200822002020540020A8
:1037E800D4B50600E8B5060039310000D82C012010
:1037F800002100201C54002010B6060010B541F628
:103808009A1200232749284829F03AFA68B1044651
:10381800264B1B6813F0070F01D1204610BD244A20
:103828000121224856F014FBF7E741F69A120023CB
:103838002049214829F024FA044650B11B4B1B6843
:1038480013F0070FE9D01D4A0121184856F000FB74
:10385800E3E741F69A12002319491A4829F010FAA9
:10386800044650B1114B1B6813F0070FD5D0164A08
:1038780001210E4856F0ECFACFE741F69A120023E0
:103888001249134829F0FCF904460028C5D0074B13
:103898001B6813F0070FC0D00E4A0121034856F0E9
:1038A800D7FABAE774AB060018AB06002419002053
:1038B80020B6060080AB060040AB06003CB606000A
:1038C80098AB060054AB060058B6060068AB060075
:1038D80004AB060078B60600F8B504460E4617464F
:1038E800032303702A48036863604FF6586153F056
:1038F8003BFF70B10546274B1B6813F0070F01D13A
:103908002846F8BD0346244A0121224856F0AAFA5F
:10391800F6E71F4805F04CFF051E10DB1C4853F066
:1039280061FF0546B8B11B4B1B6813F0070FE7D0C2
:1039380003461A4A0121174856F094FAE0E7154B56
:103948001B6813F0070FDBD02B46154A01211148DD
:1039580056F088FAD4E7711EC9B204F1080005F0E0
:103968004BFF061E05DB0136094B9B8863703E60E2
:10397800C6E7084B1B6813F0070F01D13546BFE7B0
:103988003346084A0121034856F06CFAF6E700BFAF
:10399800580700202419002094B60600F0B6060047
:1039A800C4B606001CB7060010B586B000248DF812
:1039B8000440012302932023ADF80C30ADF80E30FB
:1039C800ADF81040ADF81240ADF814400548064B6C
:1039D80003601AF055FB214601A81AF0E3FA06B075
:1039E80010BD00BFFC530020E92F000010B58CB0BB
:1039F8000AE0F7220092A54A0121A54856F03DFAAF
:103A080014E0A44B1B788BBB4FF0FF324FF0FF3311
:103A1800CDE9002302AA08A99F4829F081F868B1D6
:103A280003469B4A126812F0070FE2D1002383F382
:103A38001188BFF36F8F0323184602DF9DF8083003
:103A48005A1E062A00F2598101A151F822F000BF3E
:103A5800073B0000033D00000B3A0000BB3A0000A2
:103A6800113A00008F3B0000C93C000000F0E2FD65
:103A78000020FFF7AFFA022007F0E8FE034660B126
:103A8800834A126812F0070F0AD1002383F31188C2
:103A9800BFF36F8F0323184602DFFFF785FFB3E7F5
:103AA80040F207120092794A0121794856F0E5F967
:103AB800EBE7784B1B78012BA6D00120FFF78AFA99
:103AC80000F0D4FF022007F089FE034600289BD0AF
:103AD8006F4A126812F0070F08D1002383F3118888
:103AE800BFF36F8F0323184602DF8DE74FF48C7204
:103AF8000092664A0121664856F0BFF9EDE70BAA25
:103B080009A90AA805F028FF034658B1604A1268B7
:103B180012F0060F3FF478AF604A02215C4856F075
:103B2800A1F971E7099A0021084600F041FD034612
:103B380060B1574A126812F0070F1BD1002383F3B4
:103B48001188BFF36F8F0323184602DF0B9801F02B
:103B580091FE00287FF458AF4D4B1B6803F0070314
:103B6800022B7FF651AF0B9B4D4A0321484856F074
:103B780079F949E740F22B120092444A012144485E
:103B880056F07BF9DAE7424B1B6803F00703022B78
:103B98002ED81AF04FFA049803F092FB20B13C4B50
:103BA8001B6813F0060F29D13A4B1B7863B3384BC7
:103BB8001B6813F0060F49D13A4B1B68009300238A
:103BC80002221946184604F0A9FC0446002850D0E1
:103BD80010F1780F42D02E4B1B6813F0070F3FF4FB
:103BE80013AF2346304A0121294856F03BF90BE729
:103BF8002E4A0321264856F02BF9CAE72C4A0221FF
:103C0800234856F025F9CFE70120FFF7E3F900F044
:103C18002DFF022007F0E2FD03460028C7D01C4A0A
:103C2800126812F0070F08D1002383F31188BFF33D
:103C38006F8F0323184602DFB9E74FF4A172009291
:103C4800124A0121124856F018F9EDE7154B1B6886
:103C5800184A02210E4856F005F9ADE70C4B1B68CF
:103C680013F0060FB7D0144A0221094856F0F0F8AD
:103C7800B1E7074B1B6803F00703022B7FF6C4AEBE
:103C88000E4A0321024856F0E3F8BDE648B20600A2
:103C9800241900208417002080AB06004CB70600CA
:103CA80068B7060090070020CCB2060088B7060067
:103CB80094B70600B0B70600C8B7060050B30600B0
:103CC800144B1B6813F0060F11D105F08DFF034646
:103CD80000283FF499AE0F4A126812F0070F3FF41C
:103CE80093AE0D4A01210B4856F0BCF88CE60B4AFE
:103CF8000221084856F0ACF8E7E7064A126812F0C5
:103D0800060F3FF481AE064A0221024856F0AAF88F
:103D18007AE600BF2419002074B30600E8B706004D
:103D280024B80600014B1878704700BF841700209C
:103D380008B5064B1B6813F0060F00D108BD044AEE
:103D48000221024856F084F8F8E700BF2419002041
:103D58004CB80600B0B584B002AF08F0D9FD68B120
:103D68000346894A126812F0070F70D1002383F3C3
:103D78001188BFF36F8F0323184602DFFFF746F859
:103D8800034660B1804A126812F0070F68D1002319
:103D980083F31188BFF36F8F0323184602DF03F004
:103DA800A5FA034660B1784A126812F0070F60D18D
:103DB800002383F31188BFF36F8F0323184602DFB4
:103DC80000F064FF034660B16F4A126812F0070FF3
:103DD80058D1002383F31188BFF36F8F032318464C
:103DE80002DFFFF775FC0446002800F08980664B67
:103DF8001B6813F0070F76D06D4600233B71022332
:103E08007B7188B00DF1080C1CF1100243D00E2014
:103E180022B1042802DD5D4BCCF8143000233B703E
:103E280002237B70002A39D0082802DD584BCCF8D1
:103E380018300CF11C03002101292FD801F1080EBC
:103E4800BE441EF808EC03F801EB0131F4E74FF427
:103E5800247200924F4A01214B4856F00EF885E72C
:103E680040F2932200924B4A0121474856F005F848
:103E78008DE740F296220092464A0121424855F0C9
:103E8800FCFF95E740F299220092424A01213E4800
:103E980055F0F3FF9DE76FF00040B9E70D2863DDAB
:103EA8000E234AB10321397100217971B9710121B9
:103EB800F9717868CCF8100000216FF300016FF3F6
:103EC80041016FF382016FF3C501012060F388118E
:103ED800C3F30A0363F353216FF31F5100232A48E6
:103EE8000DF0F0F8AD46284B1B6813F0070F3ED1D4
:103EF800002383F31188BFF36F8F0323184602DF73
:103F0800FFF77CFC044600287AD01F4B1B6813F08F
:103F1800070F68D06D4600233B7102237B7188B080
:103F28000DF1080C1CF110022BD00E2022B1042830
:103F380002DD164BCCF8143000233B7002237B7053
:103F480062B3082802DD144BCCF818300CF11C03BE
:103F58000021012922D801F1080EBE441EF808EC00
:103F680003F801EB0131F4E76FF01B0399E74FF415
:103F7800277300932346074A0121034855F07DFF24
:103F8800B6E76FF00040D1E724190020CCCD060039
:103F980078B8060048B20600A4B806000D2863DD0C
:103FA8000E234AB10321397100217971B9710121B8
:103FB800F9717868CCF8100000216FF300016FF3F5
:103FC80041016FF382016FF3C501012060F388118D
:103FD800C3F30A0363F353216FF31F510023B1485E
:103FE8000DF070F8AD46AF4B1B6813F0070F3ED1CC
:103FF800002383F31188BFF36F8F0323184602DF72
:1040080002F05AFC0446002870D0A64B1B6813F037
:10401800070F5ED06D4600233B7102237B7188B089
:104028000DF1080C1CF110022BD00E2022B104282F
:1040380002DD9D4BCCF8143000233B7002237B70CB
:1040480012B3082802DD994BCCF818300CF11C0388
:104058000021012918D801F1080EBE441EF808EC09
:1040680003F801EB0131F4E76FF01B0399E740F225
:104078009F23009323468E4A01218A4855F0FDFE6E
:10408800B6E76FF00040D1E70D2864DD0E234AB192
:104098000321397100217971B9710121F9717868A9
:1040A800CCF8100000216FF300016FF341016FF3AA
:1040B80082016FF3C501012060F38811C3F30A037D
:1040C80063F353216FF31F51002376480CF0FAFF76
:1040D800AD46744B1B6813F0070F3FD1002383F3E1
:1040E8001188BFF36F8F0323184602DF714805F06C
:1040F800C7FD0446002870D06A4B1B6813F0070FF1
:104108005ED06D4600233B7102237B7188B00DF1B0
:10411800080C1CF110022BD00E2022B1042802DD5D
:10412800614BCCF8143000233B7002237B7012B330
:10413800082802DD604BCCF818300CF11C03002174
:10414800012918D801F1080EBE441EF808EC03F83E
:1041580001EB0131F4E76FF01B0398E740F2A2236B
:1041680000932346524A01214E4855F086FEB5E792
:104178006FF00040D1E70D2874DD0E234AB103210A
:10418800397100217971B9710121F9717868CCF818
:10419800100000216FF300016FF341016FF38201FA
:1041A8006FF3C501012060F38811C3F30A0363F3B9
:1041B80053216FF31F5100233A480CF083FFAD469B
:1041C800384B1B6813F0070F4FD1002383F3118876
:1041D800BFF36F8F0323184602DF00237B6004F0D0
:1041E8004DF804F0BDFD034660B12E4A126812F086
:1041F800070F44D1002383F31188BFF36F8F032384
:10420800184602DF3A1D14212C48FFF765FB0346C8
:1042180060B1244A126812F0070F39D1002383F3E2
:104228001188BFF36F8F0323184602DF7A680123D2
:104238000193002000900346204904F01FFC034628
:1042480060B1184A126812F0070F39D1002383F3BE
:104258001188BFF36F8F0323184602DF0020083749
:10426800BD46B0BD6FF01B0388E740F2A52300935D
:1042780023460F4A01210B4855F0FFFDA5E740F200
:10428800AE2200920A4A0121064855F0F6FDB1E730
:1042980040F2B1220092064A0121024855F0EDFD94
:1042A800BCE700BF24190020CCCD0600D0B806001A
:1042B80048B206003D630000F0B806005C530020D9
:1042C8004FF42D720092034A0121034855F0D5FDA1
:1042D800BCE700BF48B2060024190020024B0122A7
:1042E8001A709A715A717047985400202DE9F0415C
:1042F800ADF5386D02AF0026C7F86C6BB2E000234D
:1043080083F31188BFF36F8F0323184602DF04EB92
:10431800440007F6783303EB8405994B1A6855F87F
:10432800341C07F5717303EB801065F050F955F8EC
:10433800341C94482DF006FD0134092C1DDC4FF087
:10434800FF324FF0FF33CDE900238D4A07F644339F
:1043580003EB84018B482DF0C1FC03460028D6D01E
:10436800894A126812F0070FC9D088220092874A3A
:104378000121854855F081FDC1E7854B1B7B002B4A
:1043880061D0844B1B68002B76D107F66C33824AC8
:104398004FF4F06107F5717001F02EFC0446002817
:1043A80051D0794B1B6813F0070F3FD06D4600239F
:1043B8003B7102237B7188B002A911F1100200F051
:1043C8009D804FF00E0C22B1BCF1040F01DD734B40
:1043D8004B6100233B7002237B70002A40F09180E0
:1043E800BCF10D0F40F39E800E2342B103203871BB
:1043F80000207871B8710120F871786808616FF34E
:1044080000086FF341086FF382086FF3C5080121B4
:1044180061F38818C3F30A0363F353286FF31F5833
:104428000023414658480CF04DFEAD46564B1B68DC
:1044380013F0070F79D1002383F31188BFF36F8F2F
:104448000323184602DFB6F57A7F77D00136504B42
:104458001B7B3BB14E4B5A7DD7F86C1B4E4B1868F3
:10446800FFF766FC4FF0FF324FF0FF3301214C4855
:104478003AF04EF8002460E74A4A00924A4A4FF45C
:104488007071381D2DF0DEF9034660B13E4A12689E
:1044980012F0070F22D1002383F31188BFF36F8F27
:1044A8000323184602DF009707F5717310224FF4B3
:1044B8007071381D60F0B1F9034600283FF465AF0C
:1044C800314A126812F0070F10D1002383F31188C4
:1044D800BFF36F8F0323184602DF56E79722009237
:1044E8002A4A0121284855F0C8FCD4E79C220092AA
:1044F800264A0121244855F0C0FCE6E76FF0004C3D
:1045080061E7BCF1080F01DD284B8B6101F11C0349
:10451800002004E017F800E003F801EB013001285F
:10452800F8D95DE76FF01B035FE7A22300932346EA
:10453800164A0121144855F0A0FC7CE707F53762BC
:1045480007F674310F482DF025FC064600283FF485
:104558007EAF0D4B1B6813F0070F08D1002686F3BA
:104568001188BFF36F8F0323184602DF6FE7A92373
:1045780000930346054A0121034855F07EFCEDE708
:1045880030540020A80700201018002048B2060068
:10459800985400203454002028540020CCCD060024
:1045A800940700202C5400203854002018B9060025
:1045B80070B505460E46144653F057F880B11A4BAD
:1045C8009D61204653F051F8D8B1174B01221A715A
:1045D8009C603EB3144B01221A731E61002022E036
:1045E800002DEED0114B1B6813F0070F02D16FF0AE
:1045F800150018E02B460E4A01210C4855F032FCF4
:10460800F5E7002CE5D0094B1B6813F0070F02D122
:104618006FF0150007E02346054A0121034855F0CD
:1046280021FCF5E7002070BD9854002010180020E8
:1046380028B90600F0B58BB008AFFFF74FFE9B4BCB
:1046480093F86430002B44D0994B93F86430002BD6
:1046580000F0B380974C04F110030FCB8DE80F00E6
:1046680094E80F0001F06AFD0546002800F061811A
:10467800914B1B6813F0070F00F04E816E46002324
:104688003B7102237B7188B0344616F1100200F0AA
:1046980009810E201AB1042801DD884B63610023CB
:1046A8003B7002237B70002A00F01281082801DD8C
:1046B800834BA36104F11C030021012900F2088146
:1046C80001F1080CBC441CF808CC03F801CB0131FB
:1046D800F3E776482DF0E0FB05460028B4D0764B8A
:1046E8001B6813F0070F4DD06E4600233B71022361
:1046F8007B7188B0344616F1100212D00E201AB120
:10470800042801DD6D4B636100233B7002237B703D
:10471800A2B1082801DD6B4BA36104F11C03002141
:104728000AE06FF00040EAE701F1080CBC441CF80D
:1047380008CC03F801CB01310129F5D90D282FDD6B
:104748000E2342B10321397100217971B971012118
:10475800F9717868206100216FF300016FF341015E
:104768006FF382016FF3C501012060F38811C3F371
:104778000A0363F353216FF31F5100234E480CF0D3
:10478800A1FCB5464C4B1B6813F0070F0BD1002357
:1047980083F31188BFF36F8F0323184602DF53E7B3
:1047A8006FF01B03CDE740F27D1300932B46464A7A
:1047B8000121414855F061FBE9E73D482DF06CFBCC
:1047C800054600283FF446AF3B4B1B6813F0070F24
:1047D8004DD06E4600233B7102237B7188B034466E
:1047E80016F1100212D00E201AB1042801DD334B45
:1047F800636100233B7002237B70A2B1082801DDAE
:10480800324BA36104F11C0300210AE06FF0004061
:10481800EAE701F1080CBC441CF808CC03F801CB0A
:1048280001310129F5D90D282FDD0E2342B10321CD
:10483800397100217971B9710121F97178682061A4
:1048480000216FF300016FF341016FF382016FF3F1
:10485800C501012060F38811C3F30A0363F35321F0
:104868006FF31F51002314480CF02CFCB546124B73
:104878001B6813F0070F0BD1002383F31188BFF3D4
:104888006F8F0323184602DFE4E66FF01B03CDE7C2
:104898004FF4C17300932B460B4A0121064855F08B
:1048A800ECFAE9E76FF00040F4E600BF10080020DA
:1048B800A80700209854002010180020CCCD06002E
:1048C80080B9060048B9060048B2060064B9060077
:1048D8000D285DDD0E2342B1032139710021797164
:1048E800B9710121F9717868206100216FF3000125
:1048F8006FF341016FF382016FF3C501012060F38B
:104908008811C3F30A0363F353216FF31F51002384
:1049180047480CF0D7FBB546454B1B6813F0070F0B
:1049280039D1002383F31188BFF36F8F032318460F
:1049380002DF404B01221A771B7B1BB13E4B1B68E1
:10494800002B32D007F014FB034660B1384A1268D6
:1049580012F0070F5AD1002383F31188BFF36F8F2A
:104968000323184602DF354801F098F8034660B182
:104978002F4A126812F0070F51D1002383F31188D0
:10498800BFF36F8F0323184602DF0C37BD46F0BD17
:104998006FF01B039FE74FF4C37300932B46284A1D
:1049A8000121234855F069FABBE700220023CDE92D
:1049B8000623002304930322039202930193009396
:1049C800204B42F6F8222049204837F01FF91A4BAD
:1049D80018601F4936F0D4FF03460028B2D0144AA5
:1049E800126812F0070F08D1002383F31188BFF370
:1049F8006F8F0323184602DFA4E74FF4C8720092B2
:104A08000F4A01210A4855F038FAEDE74FF4CC7205
:104A180000920B4A0121064855F02FFA9BE740F215
:104A28009B120092064A0121014855F026FAA4E794
:104A38001018002098540020C8540020A80700200F
:104A480048B20600F5420000D8440120182400208E
:104A580098B9060010B50446FFF7ECFD0249204658
:104A680055F016FF002010BDA0B90600F0B587B0BC
:104A780004AF644B1B7F5BB9634B1B6813F0060FD5
:104A880000F0B080614A02215F4855F0E1F9A9E0E1
:104A980007F09CFA034660B15B4A126812F0070FF0
:104AA80051D1002383F31188BFF36F8F0323184676
:104AB80002DF01F035F8034660B1534A126812F07C
:104AC800070F49D1002383F31188BFF36F8F0323A6
:104AD800184602DF4B4C04F110030FCB8DE80F0092
:104AE80094E80F0001F0B6FA0546002871D0464B4D
:104AF8001B6813F0070F5FD06E4600233B7102233B
:104B08007B7188B004AC14F110022ED00E201AB1BB
:104B1800042801DD3E4B636100233B7002237B7058
:104B280032B3082801DD3B4BA36104F11C030021CB
:104B380001291DD801F1080CBC441CF808CC03F865
:104B480001CB0131F4E74FF4D7720092324A0121C8
:104B58002D4855F092F9A4E740F2B11200922E4A7E
:104B68000121294855F089F9ACE76FF00040CEE7FC
:104B78000D283ADD0E2342B10321397100217971E4
:104B8800B9710121F9717868206100216FF3000182
:104B98006FF341016FF382016FF3C501012060F3E8
:104BA8008811C3F30A0363F353216FF31F510023E2
:104BB80015480CF087FAB546134B1B6813F0070F1E
:104BC80016D1002383F31188BFF36F8F0323184690
:104BD80002DF0C4B00221A7710482DF013F9104809
:104BE8002DF010F90C37BD46F0BD6FF01B03C2E77E
:104BF80040F2B51300932B46074A0121024855F0AD
:104C08003CF9DEE79854002010180020B8B90600D7
:104C1800CCCD0600D4B9060048B20600A80700208B
:104C28001008002010B50446FFF720FF024920466F
:104C380055F02EFE002010BDECB9060010B584B06A
:104C480000220023CDE9002302AA03A90C482DF075
:104C580045F838B90446039909482DF073F82046F9
:104C680004B010BD074B1B6813F0060F02D16FF09C
:104C78008B04F4E7044A0221024855F0E9F8F6E704
:104C8800A80700201018002004BA060010B500F08C
:104C980061FF70B10446114B1B6813F0070F01D177
:104CA800204610BD03460E4A01210C4855F0DAF89B
:104CB800F6E707F09BF9044658B1084B1B6813F058
:104CC800070FEDD00346074A0121044855F0CAF8FA
:104CD800E6E7054864F011FCE2E700BF1018002081
:104CE80024BA06004CBA0600B85400200C4B93F8BE
:104CF800803133B90A4B012283F8802103600020F8
:104D08007047074B93F881313BB9054B012283F873
:104D18008121C0330360002070476FF00B0070479B
:104D280018740020074B984203D0074B984204D0D0
:104D38007047002283F880217047C03B002283F827
:104D48008121F5E718740020D8740020034B002255
:104D580083F8802183F88121704700BF18740020F0
:104D680008B50021034B19704FF47072024864F0C3
:104D780055FC08BDA12C01209C75002008B50248EF
:104D880036F084FA08BD00BF8008002008B100682A
:104D9800704710B5074C40F29D2322460649074844
:104DA80053F04EFC064853F04BFC40F29D21204640
:104DB80007F012FC2CBB06005CBB0600A8B106007D
:104DC80070BB060090B583B000AF394B93F8003C38
:104DD800834229D0364B83F8000C364B1B6803F00E
:104DE8000703022B5DD9344B53F820106C4600237F
:104DF8003B7102237B7188B0EC461CF110021ED077
:104E08000E2022B1042802DD2C4BCCF814300023EC
:104E18003B7002237B70FAB1082801DDCCF818102A
:104E28000CF11C03002115E0224B1B6813F0060F40
:104E380037D0234A02211F4855F00AF831E06FF0B5
:104E48000040DEE701F1080EBE441EF808EC03F846
:104E580001EB01310129F5D90D2825DD0E234AB1D1
:104E68000321397100217971B9710121F9717868CB
:104E7800CCF8100000216FF300016FF341016FF3CC
:104E880082016FF3C501032060F38811C3F30A039D
:104E980063F353216FF31F51002306480CF012F9F6
:104EA800A5460C37BD4690BD6FF01B03D7E700BF82
:104EB8005CC900200818002078C30600BCBB0600A7
:104EC80084BB060038B54E4BD3F8F82BC3F8F42B47
:104ED80093F8003C032B04D8DFE803F0020B3C6690
:104EE80002B938BD464BC3F8042C0120FFF76AFF0E
:104EF800F7E74349B1F8023C01339BB2A1F8023C01
:104F0800632BEED90023A1F8023CD1F8043C9B1A8C
:104F180003F5C333A0333B4A02FB03F33A4A82FB4F
:104F28000302DB17C3EBA21303F51B40A630C1F83D
:104F3800080C03F6CE3341F29C72934206D880B235
:104F480052F0C5FB0220FFF73DFFCAE70020FFF73C
:104F580039FFC6E72A49B1F8023C01339BB2A1F8F0
:104F6800023C632BBDD90D460023A1F8023C014643
:104F7800104652F08DFB00EBD0704410214B04FB1F
:104F880003F3214A82FB0312DB17C3EBA213D5F804
:104F9800080C184480B252F09AFB0F341E2CA0D88B
:104FA8000320FFF70FFF9CE71549B1F8023C0133D6
:104FB8009BB2A1F8023C632B93D90D460023A1F8BC
:104FC800023C0146104652F063FB00EBD0704410DF
:104FD8000C4B04FB03F30C4A82FB0312DB17C3EBF5
:104FE800A213D5F8080C184480B252F070FB203494
:104FF800402C7FF676AF0020FFF7E4FE71E700BF94
:105008005CC9002018FCFFFF019D7F3108B5401ADC
:1050180063EB0303144A904273F1FF3202DA01385A
:1050280043F1000311490A6801320A60B0F5FA70C9
:1050380043F1FF3341F28932904273F1000300D209
:1050480008BDFFF7FBFD18B9084B00221A60F7E707
:10505800074B1B6813F0060FF2D0064A02210448DA
:1050680054F0F6FEECE700BF010000801474002045
:1050780008180020D0BB060008B5FFF787FE0268B5
:105088004168007A0B4B5B7843B10B4BC3F8F42BA8
:1050980048B142B11046FFF7B9FF04E0074B1B685F
:1050A80013F0060F00D108BD054A0221034854F049
:1050B800CFFEF8E75C7900205CC9002008180020C2
:1050C800F0BB0600474B93F8103C834200F0888001
:1050D800B0B584B002AF0446424B83F8100C424B83
:1050E8001B6803F00703022B53D9404B53F82010D9
:1050F8006D4600233B7102237B7188B00DF1080CCB
:105108001CF1100213D00E2022B1042802DD384B06
:10511800CCF8143000233B7002237B70A2B108281E
:1051280001DDCCF818100CF11C0300210AE06FF027
:105138000040E9E701F1080EBE441EF808EC03F848
:1051480001EB01310129F5D90D2838DD0E234AB1CB
:105158000321397100217971B9710121F9717868D8
:10516800CCF8100000216FF300016FF341016FF3D9
:1051780082016FF3C501032060F38811C3F30A03AA
:1051880063F353216FF31F51002317480BF09AFF65
:10519800AD46032C16D0032052F037FC60B1124BF9
:1051A8001B6813F0070F11D1002383F31188BFF395
:1051B8006F8F0323184602DF0837BD46B0BD6FF076
:1051C8001B03C4E7032006F009FBE7E740F25B1383
:1051D80000930346074A0121034854F04EFEE3E7D3
:1051E800704700BF5CC900200818002068C306008B
:1051F80024BC060048B206002DE9F0416C4B93F838
:10520800003C032B10D104460D468AB9684BD3F8ED
:10521800182C291B114493F8103C012B1AD0022B8F
:105228005ED06BB1BDE8F0810020FFF74BFFF9E7D6
:105238005F4B0022A3F8122C0220FFF743FFE5E79B
:105248005B4B0022A3F8122CC3F8142C0120FFF7A3
:1052580039FFE7E7564AB2F8123C581CA2F8120C7C
:10526800092B2FD9524B0022A3F8122CD3F8146C17
:10527800504B83FB0623F517C5EBA30505F2F31284
:1052880040F2E6339A4227D90220FFF71BFF002D90
:10529800C8D016F1090F2FDB05F5FA73464A82FBD1
:1052A8000312DF17C7EBA2174EF6476293422DDDB4
:1052B800424A126812F0060F21D13C27002F2FDD39
:1052C80000263FE01346D2F8142CD3F8FC0B091A39
:1052D8000A44C3F8142CA5E70320FFF7F3FED6E72A
:1052E800334AB2F8123C591CA2F8121C0C2B99D95B
:1052F8000020FFF7E7FE95E7A5F5FA73CEE7304AF9
:1053080002212E4854F0AEFD3C27D7E72D4A9342A0
:10531800D4DA2A4A126812F0060F06D16FF03B075A
:10532800002FBFF67FAF002236E0254A022123482E
:1053380054F098FD6FF03B07F2E700231C4AA2F8EF
:105348000C3A0136BE42BFF66DAF1F4D05F5A048B9
:10535800B8F80C3A03EB43004001043005EB400079
:10536800C0220021043064F059F9BA1BB8F80C3A8D
:105378004FF47A7101FB124203F5B451023105EB87
:105388008105AA60762BD8D801339BB2D6E777235C
:105398000749A1F80C3A013ABA427FF743AF044BE8
:1053A800B3F80C3A002BF2D0013B9BB2F0E700BFF8
:1053B8005CC9002067666666D34D62100818002035
:1053C80038BC0600B911FFFF5C79002010B5164BF8
:1053D800B3F80E3A23B3013B9BB2144800F5A04240
:1053E800A2F80E3A03EB43014A01043200EB4200F3
:1053F8000430BBB1013B9BB20C4A02F5A041A1F8B5
:105408000E3A03EB43035901043102EB4102141D28
:10541800002105F027FA0021204605F0DDF910BD2E
:105428007723DAE77723E7E75CC900205C79002077
:1054380010B59AB00446214B00930023204A6021FE
:1054480002A82CF0FFF968B103461E4A126812F050
:10545800070F20D1002383F31188BFF36F8F032335
:10546800184602DF03230093602302AAC0212046C6
:105478002CF02CFA034660B1124A126812F0070F9A
:1054880012D1002383F31188BFF36F8F03231846CB
:1054980002DF1AB010BD40F21D2200920A4A012113
:1054A800084854F0EAFCD5E740F221220092064A67
:1054B8000121044854F0E1FCE3E700BF0C7400202C
:1054C8009C7500200818002048B2060070B582B00C
:1054D800054616461046FFF725FC4A4B03F5A04241
:1054E800B2F80E4A04F5B451023103EB81039B680C
:1054F800EB1AC2F8FC3B1EB3762C2DD80134424B74
:10550800B3F80C3AA34232D03F4BA3F80E4A3F4BB4
:105518001B783BB13D4B00221A703D4B1B6813F0C2
:10552800060F1BD104EB440464010434354B03EB30
:1055380044030433374A1360374B1B78002B58D188
:105548000021344B186805F047F92F4B93F80C3CB1
:10555800002B53D102B070BD0024D0E72A4BD3F8FA
:10556800F03B2E4A02212A4854F07CFCDAE7FEF789
:10557800D9FBB0B9254B01221A70234AD2F8F03B67
:105588000133C2F8F03B264AA2FB0312120B41F288
:10559800883101FB123222B91D4A126812F0060F37
:1055A80018D11C48FFF7A2FB034660B1184A1268DD
:1055B80012F0070F14D1002383F31188BFF36F8F04
:1055C8000323184602DFC0220021124B186864F03A
:1055D80025F8B1E7134A02210D4854F043FCE0E7EF
:1055E8004FF426720092104A0121094854F045FCF4
:1055F800E1E7084B1868FFF71BFFA1E72846FFF70C
:1056080061FCA7E75C7900205CC90020A02C012080
:105618000818002010740020A12C012074BC06007A
:105628005917B7D198BC060048B2060038B50546E8
:105638000024064B83F81C4C2046FFF743FD044921
:10564800284655F025F9204638BD00BF5CC9002022
:10565800C4BC060008B5084B93F80C3C43B1064B94
:10566800012283F81C2C054955F012F9002008BDC9
:10567800034955F00DF9F9E75CC90020E8BC0600BC
:105688000CBD060010B504460A4B93F81C3C23B128
:10569800094955F0FDF8002010BD064B002083F89D
:1056A8000C0CA3F8020CFFF78DFB0449204655F0BB
:1056B800EFF8F0E75CC900203CBD060070BD0600AD
:1056C80008B5044B012283F80C2C034955F0E0F887
:1056D800002008BD5CC9002098BD060008B50A4B2B
:1056E8001B786BB9094B1B6813F0070F02D16FF0D9
:1056F800050008BD064A0121044854F0A9FBF6E755
:105708006FF00F00F5E700BFA12C0120081800205A
:10571800C0BD060008B5034863F05BFE024835F0DB
:10572800B5FD08BD781A00208008002010B5044691
:10573800FFF7F0FF0249204655F0AAF8002010BDF7
:10574800DCBD06002DE9F0432DED028B83B0074642
:10575800042954D11646506803783E4AD35C13F0A6
:10576800040F52D0B3681B783A4AD35C13F0040F85
:1057780052D00A22002150F001FC04461FFA80F89A
:105788000A220021B06850F0F9FB05461FFA80F99B
:105798000021F06850F09EFAB0EE408AB5EEC00ADB
:1057A800F1EE10FA3FD9F7EE007AB4EEE70AF1EE1F
:1057B80010FA38DCA4B2AEB233462246264938463F
:1057C80055F066F8B0EE480A49464046FFF786FFAE
:1057D800054610F1100F2DD0B5BB18EE100AFAF7D8
:1057E8001BFECDE90001334622461C49384655F0D8
:1057F8004FF8284603B0BDEC028BBDE8F08318498A
:1058080055F055F86FF01505F3E71649384655F089
:105818004EF86FF01505ECE71349384655F047F890
:105828006FF01505E5E71149384655F040F86FF077
:105838001505DEE7FFF76EFFB0EE480A4946404619
:10584800FFF74CFF0546C7E72A460949384655F091
:105858001FF8C2E7AF31080098BE0600D4BE0600A4
:10586800E8BD060034BE060050BE06006CBE060049
:10587800B8BE060008B5A0F6B8324DF6A8639A423D
:1058880004D8114BC3F8180C002008BD0F4B1B6837
:1058980013F0060F07D10D4B1B6813F0060F09D143
:1058A8006FF01500F1E70346094A0221074854F052
:1058B800D9FAF0E7044BD3F8183C064A022103480A
:1058C80054F0D0FAECE700BF5CC9002008180020AB
:1058D80008BF060030BF06002DE9F04385B00E462C
:1058E8000C9F634991F80180B8F1000F1AD0054662
:1058F8001446994620B35F4BD3F8F81BA1422AD02F
:10590800002942D0631A43F69722934231D8A3F56F
:105918001C53063B142B61D901F51C5410344FF06D
:10592800000834E0544B1B6813F0060F02D105B091
:10593800BDE8F083514A02214F4854F089FAF6E74E
:105948004D4B1B6813F0070FD5D04D4A01214A482B
:1059580054F07EFACFE7002CD2D0474B1B6813F0E7
:10596800060FE4D02346474A0221434854F07AFA06
:10597800DDE7414A126802F00702022A07D9424AC3
:1059880003213D4854F06EFA01E04FF00008394B0E
:10599800C3F8F84B93F81C3C1BBB03AB00933B4B81
:1059A8004A463146284600F01FFA034620B1324ADB
:1059B800126812F0060F1AD1039BB3F5F06F1CD0D2
:1059C8002D4A126812F0060FB1D04FF4F06200921F
:1059D8002F4A0221284854F050FAA8E74FF000084F
:1059E800D5E7424621463846FFF706FCD5E7294A5F
:1059F8000221214854F036FADEE71E4BB3F80C5A60
:105A0800B3F80E3AEB1A6E2B01DC00240CE01A4BAB
:105A18001B6813F0060F8AD01F4A0221164854F05B
:105A280017FA84E700250134092C1DD805EB450039
:105A3800400104300E4E06EB4000736804EB44014D
:105A4800C02203EB8111043063F0C1FD4FF47A7377
:105A580003FB047305F5B452023206EB8206B36009
:105A6800762DDFD80135DEE7024BA3F80C5A5EE746
:105A78005C7900205CC900200818002050BF06008F
:105A880064BF06007CBF0600B0BF06006079002036
:105A980004C00600E8BF060034C0060010B5A0B177
:105AA800194B1B78F3B1184B5B784BBB164CA060B5
:105AB80045F6E832002104F10C0063F0AFFDFFF772
:105AC80085FC01236370002010BD104C40F2E633C2
