:020000040000FA
:10000000084B0020996400000FEB0100856400009C
:100010008564000085640000856400000000000025
:100020000000000000000000000000006966000001
:100030008564000000000000356600008564000053
:1000400019680000FB5402001968000019680000DC
:10005000196800001968000019680000196800009C
:10006000196800001968000019680000196800008C
:10007000196800001968000019680000196800007C
:10008000196800001968000019680000196800006C
:10009000196800001968000019680000196800005C
:1000A000196800001968000019680000196800004C
:1000B000196800001968000053B94AB9002908BF3F
:1000C00000281CBF4FF0FF314FF0FF3000F00CB89C
:1000D000ADF1080C6DE904CE00F008F8DDF804E09D
:1000E000DDE9022304B07047704700BF2DE9F047F7
:1000F00086468C460846089E154674461946002BCF
:1001000040F0C2808542B2FA82F245D94AB1C2F1CA
:10011000200300FA02FC2EFA03F3954043EA0C0C8C
:1001200094404FEA154EA8B2BCFBFEF8230C0EFB20
:1001300018CC08FB00F943EA0C43994528D9EB1881
:1001400008F1FF3704D2994502D9A8F102072B44E0
:10015000A3EB0903A4B2B3FBFEFC0EFB1C330CFBA8
:1001600000F044EA0344A04214D92C190CF1FF33E7
:1001700004D2A04202D9ACF102032C44241A43EA6F
:1001800007401EB1D440002334607360BDE8F0879F
:100190004746DDE76346F1E792BB431B01214FEA87
:1001A000154EAFB2B3FBFEFC200C0EFB1C330CFB58
:1001B00007F840EA0343984562D9EB180CF1FF3089
:1001C00004D2984502D9ACF102002B44A3EB0803FA
:1001D000A4B2B3FBFEFC0EFB1C330CFB07F744EA96
:1001E0000344A7424ED92C190CF1FF3304D2A74285
:1001F00002D9ACF102032C44E41B43EA0040C0E7FF
:10020000C2F1200320FA03F1954090402EFA03F347
:1002100003434FEA154EAFB2B1FBFEFC0EFB1C10C0
:10022000190C0CFB07F841EA0041884504FA02F476
:1002300022D969180CF1FF3004D2884502D9ACF1FB
:1002400002002944A1EB08019BB2B1FBFEFC0EFBAE
:100250001C110CFB07F743EA01439F420ED9EB1830
:100260000CF1FF3104D29F4202D9ACF102012B44C0
:10027000DB1B41EA004192E76046E3E76146F7E7AE
:100280006046A3E76346B7E7834206D916B9002163
:1002900008467BE7C6E900E0F9E7B3FA83F78FB9D0
:1002A000834201D3724508D8BEEB020460EB03031E
:1002B00001209C461EB9002168E73846FAE7C6E9E6
:1002C000004CF8E7C7F1200CBB4022FA0CF41C43A9
:1002D0002EFA0CF120FA0CF3B84001434FEA14490E
:1002E0000EFA07F5B3FBF9F81FFA84FE09FB183084
:1002F0000B0C08FB0EFA43EA00439A4502FA07F298
:1003000040D9E31808F1FF3004D29A4502D9A8F188
:1003100002002344A3EB0A0389B2B3FBF9F809FBFB
:10032000183308FB0EFE41EA03418E452CD96118B3
:1003300008F1FF3304D28E4502D9A8F1020321440B
:1003400043EA0040A0FB0298A1EB0E014145CE46D6
:10035000434602D306D14D4504D2B9EB020E68EBF9
:1003600004030138002EA6D0B5EB0E0261EB0301A9
:1003700001FA0CFC22FA07F34CEA0303F940C6E940
:10038000003198E74046C5E74346D9E70000000042
:1003900073B5002101AA40F6034007F0B9FD0446F9
:1003A000002864D1019AD3681B787BB9A54B184605
:1003B0001EF02EFEBFF35B8F00F0090053E8001F14
:1003C00043E80004002CF9D1BFF35B8F104606F020
:1003D00005FD01AA002141F2030007F099FD044642
:1003E000002844D1019D9848E968082201311EF097
:1003F00084FC284606F0F2FC214601AA41F20100E5
:1004000007F086FD044690BB0198904DC3685A786A
:1004100085F880205A88A5F882201A7985F88120ED
:10042000B3F80720A5F88420B3F80530A5F8863086
:1004300006F0D4FC214601AA41F2020007F068FD53
:100440000446A0B9019EF1684022013105F19000F7
:100450001EF053FC05F190001EF005FD304606F03D
:10046000BDFC95F88C305B0604D46FF01204204676
:1004700002B070BD214601AA42F2030007F048FD18
:1004800004460028F3D1019EF1680822013105F1EC
:10049000E8001EF032FC304606F0A0FC214601AA1E
:1004A00042F2020007F034FD04460028DFD1019C2F
:1004B000E368B3F8012091B249B1D97839B1A5F810
:1004C0001421DA78114605F58C7026F0B4FB20462D
:1004D00006F084FC95F88C601F2316F02006A5F822
:1004E000303118D1022140F66D4007F0B9FB0446C7
:1004F000002800F09E8002210C3006F049FD012307
:10050000037046702146324640F66D4007F000FD0C
:1005100004460028ABD195F8AC301E0712D501AACD
:10052000002142F21C0007F0F3FC044600289ED193
:100530000198C368D3F80120D3F80530C5E93C23FE
:1005400006F04CFC95F8E8305C060FD501AA0021B6
:1005500042F22A0007F0DCFC0446002887D101980B
:10056000C3685B7885F8323106F038FC082142F226
:10057000010007F075FB044600285AD008210C3012
:1005800006F006FD95F8E81011F0400F024640F223
:10059000022308BF032388074CBF43F02C0043F01D
:1005A0000C0095F8E93013F0090F95F8B23018BF38
:1005B00040F4006003F00603CE0748BF40F010008F
:1005C000062B08BF40F4C07000211EF0B9FD214683
:1005D000002242F2010007F09BFC044600287FF451
:1005E00046AF95F88C30B5F81411980624D4C9B9E3
:1005F00001AA41F2050007F08BFC044600287FF4B5
:1006000036AFB5F81431019C4BB9E368B3F801205B
:10061000A5F814219A880E48114626F00CFB2046B6
:1006200006F0DCFB082140F6014007F019FB044608
:1006300080B96FF068041AE70029F3D16FF0040461
:1006400015E700BFE4000020880000200000002023
:100650001801002008210C3006F09AFC95F8E830CB
:10066000D907024657D430484FF000511EF068FDBC
:100670002146002240F6014007F04AFC04460028CB
:100680007FF4F5AE014601AA4FF6014007F040FCA9
:10069000044648BB019806F0A1FB214601AA4FF68B
:1006A000024007F035FC0446F0B9019E1F48F1688E
:1006B000022201311EF021FB304606F08FFB95F837
:1006C000D1305B0710D501AA21464FF6034007F051
:1006D0001FFC48B9019C1648E168012211441EF034
:1006E0000CFB204606F07AFB1FF051F80446002868
:1006F0007FF4BDAE09F060FD044600287FF4B7AE7C
:100700006B7D002B3FF4B3AE08210A481EF089FC34
:1007100007F074FBABE602A1D1E90001A6E700BF38
:10072000908800020080002010880002D100002084
:10073000D0000020E40000202DE9F0478846D0E9F1
:100740000691D0F820A01A4D01EB0A042F34A145E0
:10075000174615A3D3E9002315D8A1FB0501FFF720
:10076000ABFC11A3D3E90023A4EB090420F07F46DE
:10077000A4FB0501FFF7A0FC20F07F40C8F8006053
:100780003860BDE8F087A9FB0501FFF795FC20F074
:100790007F4608480A2104A3D3E90023EAFB0501A8
:1007A000E8E700BFAFF300808D49FD1A07000000A5
:1007B00000CA9A3B00166BF12DE9F04F8DB020B9BD
:1007C0000DB0BDE8F04F10F055BBC34D95F86A4031
:1007D00014F0010440F04D8195F82500FF2300F04E
:1007E000030085F8263011F0FFFD95F86A004107F7
:1007F0000DD5224605F16B01C0F3C00011F010FFCA
:10080000FF2885F8260002D0204611F007FE95F853
:10081000293005EB8303DF6A95F8353005EB830358
:10082000D3F838A057B1AC48394622F024FA3B78C7
:100830005A060ED4A848514622F01DFA3B7813F010
:100840000E0F40F097802B6A53B10C200DB0BDE81D
:10085000F08F062121F02CFC0028EBD11220F5E7C7
:100860000EF0DEFA804630B10EF04CFB814620B926
:1008700040460EF0DBFA0720E8E710F087FC04465C
:1008800018B948460EF044FBF2E74FF6FF730385B4
:10089000C36E00F11C0B13B900F16403C36604F1CD
:1008A000600204F15C01E06E21F00DFC94F87230FE
:1008B00023F0070384F87230B4F8583023F4EF6360
:1008C00023F0070343F48C7343F00103A4F858307A
:1008D00094F8393003F03F0363F07F0384F8393034
:1008E00094F83C3023F00703002684F83C304FF4A2
:1008F000C023C4F870312046C4E91266E666A4F845
:100900007060E685266384F83B602665A4F876610E
:10091000A4F86C6123F033F984F83861C4F83C81A1
:1009200010F046FD94F87C3160F3020384F87C31CA
:1009300010F044FD94F87C3160F3C50384F87C31F9
:1009400094F8683166F3410384F8683104F1B80023
:1009500022F0D9FFC5E91889C5F820B0C4E90566B9
:100960002670E46112F0A4FD20B15B4822F000F98A
:1009700003206BE795F824300121C3F342030DF106
:100980002B008DF82B3021F0CAFB0246002800F026
:1009900094809AF80110384622F01EF90024312381
:1009A0004E492C70C5E902344D4B6C60A0FB01012F
:1009B000C01841F1070146A3D3E90023C5E9054466
:1009C000FFF77AFBB5F86860286121F0B3FE00F10B
:1009D00009082EB93C7804F00F04631E5C425C41A8
:1009E00095F824702B693F4ADFF8FCA03F4964F377
:1009F000000785F824704FF0020917F001070BACCF
:100A0000CDF82C9037D000201060CDE90431CDE92D
:100A10000842CDE900030321CDE9065ACDE90200E1
:100A200043464A4621F04CFE21460EF0BDFB00280D
:100A300043D12F4A06954AF2D833CDE904020093F8
:100A4000CDE907A4CDE9020001904346012203212C
:100A5000CDF82C9021F03BFE21460EF0A5FB60BBAB
:100A600095F86A30012043F0010385F86A3011F0EF
:100A7000ADFC0020EAE603F2471010601D48CDE906
:100A800004314FF0910CA6FB00014FF6FF73CDE946
:100A90000842CDE902730CFB06110DA3D3E9002334
:100AA000CDE9065AFFF708FB4346CDE900704A46F8
:100AB0000321384621F004FECEE72B6A002B3FF4D9
:100AC000C4AE054822F054F8BFE600BFAFF3008083
:100AD0008D49FD1A07000000DC26002000CA9A3B61
:100AE0008C49FD1AD026002015EE0000990B01005C
:100AF000E10A0100002AE78470B590F824308AB03A
:100B0000C3F342030D46044601210DF123001646AE
:100B10008DF8233021F003FB71780246284622F03D
:100B20005BF81D49A0FB01311C48181841F1070171
:100B300017A3D3E90023FFF7BFFA216905468D42C9
:100B400020D2481B0021164A02230993A21A7423BB
:100B5000B2FBF3F2134B059309AE00230232CDE949
:100B60000110CDE90333032106960093D2B2184653
:100B700021F0C8FD31460EF017FB38B92561002081
:100B80000AB070BDFBD9691A0020DCE70C20F7E73A
:100B90008D49FD1A0700000000CA9A3B8C49FD1AD6
:100BA000DC26002015EE00002DE9F04F06468BB044
:100BB0008A46012002219946154624F0F2FF0022C0
:100BC0000221804601200DF0FBF9304610F0EAFAD0
:100BD000C71CFFB2304B00963A46012100200EF0B0
:100BE00005F810F0FD0F07D0002383F31188BFF341
:100BF0006F8F0323184602DF284CA5FB044524A36E
:100C0000D3E9002320462946FFF756FA244B0896DD
:100C1000CDE90663234B0593336904934FF6FE73C6
:100C20000393214B20F07F46A6FB03310722E01AF5
:100C300002FB061165EB01014FF47A720023FFF706
:100C40003BFA4FF0000BCDE90160CDF800A04B4618
:100C50003A460121584621F03AFD10F0FD0F06D02A
:100C60008BF31188BFF36F8F0323184602DFB8F1AF
:100C7000000F07D00122022110460BB0BDE8F04F53
:100C80000DF09EB90BB0BDE8F08F00BFAFF3008050
:100C90008D49FD1A07000000F32D020000CA9A3B9F
:100CA000C12D02001D1F01008D49FD1A000000002A
:100CB0002DE9F0438468228D4FF6FF739A428DB080
:100CC000804600F0A780204623F0E4F898F814301E
:100CD000012B2ED0022B32D00BBB94F8723003F0D4
:100CE0001803182B1BD1A18DB4F86E218B1D9A42CD
:100CF000C4BF931F5B1AB4F86A11CCBF9BB21346F2
:100D0000994208D0A4F86A31B4F86A31A4F86C3179
:100D1000A4F8702103E0B4F87031002BF4D094F8FB
:100D2000386186B1314620460DB0BDE8F04310F081
:100D300095BB0023A4F87031A4F86C31EFE73D2394
:100D400084F83831EBE7E58D278E5DB33D44002311
:100D5000CDE90A33B8F81030ADB2DBB194F93930CF
:100D6000002B14DA40460AAA0BA904F1B809FFF7D0
:100D7000E3FC484622F002FE10B9FF2010F03CFBD5
:100D8000484622F0FBFD024670B100232386002373
:100D9000A4F8723198F81230D90711D50023A4F8BD
:100DA000763115E07D1CD2E7D4E9170121F0A0F9D6
:100DB0000028EAD194F83C305807E8D5A38DE5E740
:100DC000B4F872314BB3AB4220D95B1BA4F872313B
:100DD000B4F876317BB1AB423ED95B1B9BB20022AB
:100DE000062BA4F87631228604D994F9393093423F
:100DF00001DA27B301260DF127022946204622F009
:100E0000F4FE74302AD19DF8271000E03E212046E0
:100E100010F024FB0DB0BDE8F083B4F87631002B60
:100E2000D6D1628D40F2E2435A43B4F8743142F2B3
:100E3000107101FB0323013BB3FBF2F3AFE7D4F8DE
:100E400060215308D20702D4C4F86031D3E743F0DD
:100E50000043C4F86031CDE70821D8E7B4F8703119
:100E6000A3B1AB4203D95B1BA4F870310EE00EF0C6
:100E700053F9014600284BD00023A4F87031238D8C
:100E8000C3801B230371006821F029FDB4F86C3185
:100E900023B1AB423ED95B1BA4F86C31258E0EB951
:100EA000AF423ED00135ADB294F8B53013F0010138
:100EB00039D1DDE90A23002B40F0928012B9002DD0
:100EC00000F08A8000210F460B46228D4848D4F856
:100ED0001C80019103320A990091CDE90460CDE9AB
:100EE0000275CDF81880D2B20121002021F00AFC51
:100EF00010F0FD0F8ED00EF07FF980458AD00023D0
:100F000083F31188BFF36F8F0323184602DF81E755
:100F10000123A9E70023A4F86C31204622F0C7FE84
:100F2000BCE73546C0E76FF3000384F8B53094F9A9
:100F30003930002B47DA94F85900012100F00700FE
:100F400024F04BFB94F8583094F85910DFF8A4C003
:100F5000294F03F003022832C3F34003D200DA40E2
:100F600001F003032833C1F34001DB00CB40B3F5AC
:100F7000A07F38BF4FF4A073B2F5A07F2CBF9B18A1
:100F800003F5A07303F2D51318440721E0FB0C719D
:100F900015A3D3E900233846FFF78EF82769DDE96A
:100FA0000A2320F07F40874235BFC11B3F1A00272C
:100FB00000212061002B88D10A4386D1002F3FF405
:100FC0007EAF194681E794F85800C0F3C00100F0E5
:100FD000070024F000FBB5E7002E7FF473AF19E79C
:100FE0000F4672E7AFF300808D49FD1A070000003D
:100FF000372E020000CA9A3B8C49FD1A00000000FF
:101000002DE9F04F85B00446BDF844900393CDE937
:101010000112BDF838A022F0ACF8A368D4F8F4604F
:10102000A0EB0905002B8346ADB209DAE1686268DE
:1010300023F0004391422CBF7618B618A360F61A2D
:10104000638D5D4F13FB05F39BB2B3FBFAF11AFB03
:1010500001F080B283421FFA81F840F2E24280F050
:101060009080C01A5043A0FB070151A3D3E900238D
:10107000FFF722F820F07F400644E38DB4F8FC200F
:101080001344994494F83930A9EB0B09C14440F258
:10109000E24BDB09A4F82E900BFB0AF97ED0226C00
:1010A000A36C02FB1533A36424F0C3FA054694F83D
:1010B0005C01C0F3420012F049FA029A3F4B05442A
:1010C0000BFB02F209FB05F5226505F57425A26C00
:1010D00005F23F25B5FBF3F54FEA590305FB08F090
:1010E000963B0244256463649A4294BFA264A3645D
:1010F000A0FB07012EA3D3E90023FEF7DDFF039B2E
:10110000361AB3FBFBF00BFB00F0A0FB070128A392
:10111000D3E90023FEF7D0FFA9EB050520F07F47B8
:10112000BDF83C30A385BDF84030A4F87431494681
:101130002046A4F82AA010F08DFCA18D204A881D1D
:101140004A44B2FBF9F293B29842A4F86E313EBF22
:101150005B1A063B9BB2A4F86A31019B13B10023D2
:10116000A4F8763133462A4639462046FFF71CFD5F
:1011700094F8683143F0010384F8683105B0BDE8A4
:10118000F08F0AFB113080B25043A0FB070108A387
:10119000D3E90023FEF790FF361A6EE7002787F3A6
:1011A0001188BFF36F8F0323184602DF4D46B7E760
:1011B0008D49FD1A0700000000CA9A3B40420F000B
:1011C0007FC3C901000000002DE9F04F0B681668CD
:1011D000D3F800A0037F95B00F46C3F3801300F14E
:1011E0001E010446154612A806228DF83F301DF058
:1011F00084FD97F811B0BBF1FF0F57D010AA0DF185
:101200003F01584611F062F89DF83F3002338DF8E7
:101210003F302146032251F82E3B0B9305F1080085
:101220001DF06BFD2B1D1846042204F12A0105F167
:1012300018080C931DF061FD052204F13A014046A7
:101240001DF05BFD0521404620F069FF6B7F00F03B
:101250003F0060F305036B7794F83F30C3F304025B
:10126000AA77A28EEA81012803F01F0391B205D963
:101270001B3303F01F030B2B00D8E9B90022CAF877
:10128000142095F820300B9862F3000385F8203085
:10129000E5680126214626710DF012FF28682E719F
:1012A000294621F01CFB15B0BDE8F08F062212A9DB
:1012B00010A81DF022FDACE73B6800215960E38EC9
:1012C0002B82638EB5F80E800C93304622F0C2FC60
:1012D00094F83F3096F85C215B0963F3430286F88B
:1012E0005C2124F0A6F90D9096F85C01C0F3420051
:1012F00012F02CF90D9B40F2E24909FB08F8184462
:1013000008FB00F000F57420B54B00F23F20B0FB65
:10131000F3F04FEA5803963B6862AB6294F83130C1
:1013200009FB03F3AB63238FA6F8743141463046C3
:1013300010F090FBAB4BC6F87831AB4B4344B3FB9A
:10134000F8F39AB2A6F86E21298A881D82421346C4
:10135000C1BFC1F57F43FA33D21892B2A6F86A2111
:101360000422A91806F5B0701DF0C7FC234613F837
:101370001C9FDA07C9F3401907D5002383F31188AE
:10138000BFF36F8F0323184602DF4FF48073A383EC
:101390009AF8260011F04CFB0146062204F12B00BE
:1013A000002900F0118104F124011DF0A6FCBBF11D
:1013B000FF0F04F125004FF0060200F0088112A98A
:1013C0001DF09BFC9DF83F30A377062210A904F185
:1013D0001F001DF092FCEB8963862B8AA386B6F86A
:1013E0007431E38696F85C31C3F3420384F83830F5
:1013F00030460FF0D7FEA881E080D7F804B00B98F4
:1014000021460DF05DFEAB89ABF806301C23DBF8FE
:1014100000408BF80430B9F1000F09D06B7F43F026
:1014200040036B77281D24F030F84FF00109E88362
:101430008BF81C905946204621F051FA95F83D0052
:1014400095F83C4000F007090121484624F0C5F812
:1014500009F003032833834604F00704C9F340006E
:10146000DB00C34004F003002830C4F34004C00094
:10147000E040B0F5A47F38BF4FF4A470B3F5A47F6B
:101480002CBFC01800F5A470584CDFF864C100F2FE
:10149000D51058440721E0FB04C14FF00009312367
:1014A0006046C6E90193C6F80C904BA3D3E900232C
:1014B000FEF702FE20F07F403061F9680C9A6D6AF9
:1014C00040F2E2430120A8EB050503FB02184A465F
:1014D00002210CF075FD50460FF0AAFC08F2B3484B
:1014E000A8EB0B083CA3D3E900238346A8FB040127
:1014F000FEF7E2FDBB683F49009120F07F483A3B90
:101500000BF102024344D2B20121CDF804A04846B7
:101510000DF0A6FB514623F03DFF9AF82430DB077F
:1015200007D50122CDF800904B46114648460DF0F4
:101530005DFB30460FF036FEA5FB045426A3D3E92D
:101540000023814621462846FEF7B6FDBB68A3F17D
:101550003A0A40F2D1130893274BCDE90663274B93
:10156000059333690493264B20F07F46A6FB033195
:101570000722E81A02FB061164EB010109F10307D7
:101580004FF47A724FF000090023CDF80C90FEF76B
:1015900093FDFFB2CDE90160CDF8008053463A4695
:1015A0000121484621F093F810F0FD0F06D089F391
:1015B0001188BFF36F8F0323184602DF0122022137
:1015C00010460CF0FDFC6EE61DF0A2FBEFE60021DC
:1015D0001DF09EFBF6E600BF8D49FD1A07000000D6
:1015E00040420F00404B4C007FC3C90100CA9A3BE8
:1015F0008C49FD1A95530200B75302001D1F0100CC
:101600008D49FD1A000000002DE9F04F8FB0DFF882
:10161000E8800B900DF137010DF1360021F066F9ED
:10162000364F9DF836A09DF837B021F083F8D8F8F2
:1016300000400A90A4FB07542DA3D3E90023002601
:1016400021462846FEF738FD0B9B0693CDE9076639
:101650002B4B05938146D8F8040025A3D3E900233A
:10166000A0FB0701FEF728FD264B29F07F47A7FBCB
:10167000033120F07F400722CDE9036002FB071110
:10168000E81A64EB01014FF47A720023FEF714FDAF
:101690000A9B0096CDE901705A460321504621F07D
:1016A00016F810F0FD041ED1174845F6B3120023BA
:1016B00019F0A8F878B19DF837209DF8360000940D
:1016C000234603210DF092FA10F0FD0F08D00F48C9
:1016D000E4211AF022FFD8F80C000FB0BDE8F08F1B
:1016E0006FF07300F9E76FF08B00F6E7AFF300805F
:1016F0008D49FD1A07000000AC2A002000CA9A3B61
:10170000012C01008D49FD1A942A00202B92020021
:1017100038B50F4D044621F00DF8A96821F00CF8FA
:101720006968B0FBF4F404440A4807A3D3E9002332
:10173000A1FB0001FEF7C0FC20F07F40844294BF73
:101740000020012038BD00BF8D49FD1A07000000B0
:10175000AC2A002000CA9A3B08B504F06DFB58B9CA
:10176000102004F0DBFA08B1044B4360044B8360A3
:101770000023037304F02CFB002008BD18A702000F
:1017800070A9020008B5074B42689A4206D1037A55
:10179000022B06D904481C211AF0BFFE00231B7A35
:1017A000FFDE08BD98A50200658102002DE9F04129
:1017B0001C4B42689A42A2B004462FD103691BB960
:1017C000194814211AF0A9FEC36801938368009395
:1017D000037D164A802102A805F0B6F9431E7E2B30
:1017E000054618D86FF01207DFF8448004F114069C
:1017F0003F1B2269BB199A420DD902A816F8013F76
:101800004246C5F18001284405F09EF9002802DB1C
:1018100005447F2DEDDD22B0BDE8F08100231B697A
:10182000FFDE00BFA0A60200EE8102002E820200B1
:101830004982020010B50446102004F06FFA08B186
:10184000044B4360044B83600473BDE8104004F014
:10185000BFBA00BF18A7020074A902002DE9F8431F
:10186000D0E900458768204625F0B0F8002838D137
:101870006FF01200BDE8F883136823EA00031360D9
:10188000DCF800304FF40032204698470028F1D1B0
:10189000626815F83910126858F8393006FA01F103
:1018A000114202D140F22F6115E0BBB1A368DB68A1
:1018B0002046984709F101094F45DBD015F839104A
:1018C0006368D4F808C01B68226906FA01F0184260
:1018D000D2D140F2ED3106481AF01FFEA3681B6911
:1018E000E6E74FF000094846012605F10408E3E762
:1018F0001783020008B50448FFF7B0FF00B10320CA
:10190000BDE80840FFF796BF2876020008B51A4ADE
:10191000436893420CD18268184B9A4213D1037BDF
:101920008BB9174B1B784BB16D2116481AF0F5FD9A
:10193000154A934209D1124B1B7823B9104B01224F
:101940001A70FFF7D7FF002008BD104A934211D14B
:10195000027A002AF7D10A4B19780029F3D00C48F3
:101960001A70FFF77BFF18B10320FFF763FFEAE768
:101970000120FAE79321D8E718A7020070A9020016
:101980008031002048830200C0A7020078A702002F
:101990001C76020007B5084B186801900748836859
:1019A0009B682BB1064A01A9984703B05DF804FB78
:1019B0006FF05700F9E700BFB475020084730200AE
:1019C000951E000010B50446102004F0A7F908B1D8
:1019D000044B4360044B83600473BDE8104004F083
:1019E000F7B900BF18A7020078A902000F4B53F8FF
:1019F0002030863310B417D0EFF31184202383F303
:101A00001288BFF36F8F0A4B03EB800251605A6A52
:101A1000012181400A435A6284F31188BFF36F8F1A
:101A2000044810BC18F0CABE10BC704748760200CB
:101A3000C41600204C0900202DE9F743DFF8489038
:101A400005460E4617469846012459F8041F2846B5
:101A50001DF023F998B904220DEB02014046B84766
:101A6000042809D1042E07D1013C084B0199E4B2A6
:101A7000185DFFF7BBFF002003B0BDE8F083013421
:101A8000052CE2D1F7E700BF34760200E8830200BC
:101A90002DE9F04385B05B4824F098FF002800F062
:101AA000A380EFF31181202383F31288BFF36F8F9C
:101AB000554D2A78AB788AB1012A15D081F3118867
:101AC000BFF36F8FFFF766FF10F1100F044610D0C1
:101AD00008B9FFF777FF4D4E4A4F83E013B1032358
:101AE0002B70EBE70223FBE70BB10523F8E7062396
:101AF000F6E70021012019F09FFDE3E70A60EFF30C
:101B00001184202383F31288BFF36F8F2B78042B6B
:101B100001D103232B70FFF73DFF84F31188BFF33E
:101B20006F8F4FF0FF324FF0FF33304618F06AFEF0
:101B3000EFF31182202383F31288BFF36F8F2B788A
:101B4000042B4FF0000308BF95F801906B7018BF8D
:101B5000994682F31188BFF36F8FD7F80880294820
:101B6000D8F80C303C2198470446002844D1254839
:101B7000D8F810306A4625219847044600283BD102
:101B80002048D8F8103002AA262198470446002899
:101B900032D1B9F1000F15D0009B029A1C491A43AB
:101BA00028D10B68092BA9D801330C200B6004F055
:101BB000B5F808B1174B4360009B0381029B43813A
:101BC00004F006F9EFF31188202383F31288BFF3A2
:101BD0006F8F2B78042B01D0FFF7DCFE88F3118880
:101BE000BFF36F8F002C9CD0032005B0BDE8F043FD
:101BF000FFF7E8BE0346D8E714F13D0F3FF47FAF8F
:101C0000E0E700BF84730200C41600204C090020E6
:101C1000C016002030A7020007B5064B18680190D7
:101C2000054883689B6813B1002201A9984703B057
:101C30005DF804FBB47502008473020030B5884A75
:101C40004368934289B019D1037B012B01D00A2B41
:101C500054D1EFF31184202383F31288BFF36F8FE5
:101C6000804B1A78042A04D101225A707E4818F059
:101C7000A5FD84F31188BFF36F8F3FE07B4A934249
:101C80004BD1037B012B01D00A2B37D1754D437B00
:101C9000AC78EBB1FF2C04D140F2332174481AF038
:101CA0003CFC0134E4B280210720AC70FFF79EFEBB
:101CB000EFF31182202383F31288BFF36F8F2B7809
:101CC000023B042B13D8DFE803F00F1C1C20240078
:101CD00014B940F23621E1E7013C14F0FF0414BFCF
:101CE00080214FF40071DFE70CB103232B7082F3E6
:101CF0001188BFF36F8F5C4818F060FD002009B0B9
:101D000030BD002CF3D10223F0E7002CEFD10623E5
:101D1000ECE7002CEBD00523E8E7564A934246D186
:101D20008268554B9A42E9D1037B002BE6D14D4B9B
:101D30001C7814B140F26A21B0E7204640F202411B
:101D4000FFF754FE4FF480710220FFF74FFE4FF46F
:101D5000A0410320FFF74AFE4FF4A0410420FFF703
:101D600045FE20210520FFF741FE40210620FFF718
:101D70003DFE4FF400710720FFF738FE01210846B1
:101D8000FFF734FE00220023CDE90623CDE903440A
:101D9000CDE90144394B3A4900944FF40072394877
:101DA00019F048F93849374824F0DEFFA6E7374AEA
:101DB0002C4C934222D1EFF31185202383F3128818
:101DC000BFF36F8F23785A1F012A10D8FFF724FF23
:101DD0002378052B0BBF4FF48273022323802370DB
:101DE000214818F0EBFC0020FFF7ECFD03E0012B8D
:101DF00004BF0023237085F311883CE7244A9342F3
:101E00002BD1EFF31185202383F31288BFF36F8F5B
:101E10002378062B1ED801A252F823F03D1E0000A5
:101E2000F71D0000391E0000391E0000391E000099
:101E3000F71D0000F71D0000FFF7ACFD2378022B13
:101E400006D0002B0CBF0123052323700220CBE713
:101E50000623FAE740F2B62120E74FF432711DE77E
:101E6000B8A60200C41600204C090020E8A6020013
:101E70009083020018A7020070A90200911A0000C6
:101E800040330020B00A0020DA830200C0A702001D
:101E900078A7020010B5EFF31184202383F3128892
:101EA000BFF36F8FFFF7B8FE114B1A78062A1DD8C3
:101EB000DFE802F018180704180F0F004FF48272C1
:101EC0001A800C4818F07AFC84F31188BFF36F8FE6
:101ED00010BD082003F022FF08B1074B436003F058
:101EE00077FFF1E7D72105481AF017FBDB21FAE766
:101EF000C41600204C090020C0A7020090830200F5
:101F000070B5D0E901639D692DB302F4C003B3F548
:101F1000C00F04D140F2733110481AF0FEFA13B921
:101F200040F27731F8E702F0C863B3F5800F02D1D1
:101F300040F28131F0E7346801238B40234202D123
:101F400040F28B31E8E7064BAC461340BDE87040E9
:101F500002F0B07260476FF0570070BD1783020047
:101F600040000006002808B503DA4C2104481AF0A6
:101F7000D4FA400901D05F21F8E7024808BD00BF4C
:101F80001C840200AC72020010B50446102003F05D
:101F9000C5FE08B1044B4360044B83600473BDE885
:101FA000104003F015BF00BF18A702007CA9020073
:101FB00037B5EFF31183202282F31288BFF36F8FBE
:101FC000184A1278022A03D0174870211AF0A5FA8D
:101FD00083F31188BFF36F8F144CA5682421EB683D
:101FE00020469847C8B924212B696A46204698475D
:101FF00098B90C2003F092FE08B10D4B4360009B92
:10200000B3F5F06F0BDA5B420F2293FBF2F37F2BF9
:10201000A8BF7F23038103F0DBFE03B030BD6FF068
:102020007F03F7E7813100201C8402006C730200FB
:10203000D8A7020010B50C4C237833B90B4883683D
:102040009B684BB96FF0570005E00848012102F08A
:1020500073FF0028F2D010BD054A064998470028B2
:10206000F9D102232370F6E7813100206C7302005E
:10207000B11F00003C8002002DE9F7431D4F0546CB
:10208000002657F8044B2046FFF76CFF002C8146D2
:1020900003DA194866211AF040FA04F01F03984643
:1020A00025B301249C4043681B681C4203D113489C
:1020B00040F2DA51EFE7836801A95B68984700288E
:1020C0000DD1019B1C420ED04FF010724146484684
:1020D000FFF716FF26B901260028D2D000E0F3DA78
:1020E00003B0BDE8F0834FF08862EFE74FF40012D1
:1020F0001946EDE7687602001C840200178302008F
:1021000010B5EFF31184202383F31288BFF36F8F90
:102110000020FFF7B1FF10BB134B1B78012B05D03C
:10212000032B0FD01148D4211AF0F7F9FFF782FFE3
:1021300084F31188BFF36F8F80B1BDE81040032096
:10214000FFF722BF082003F0E9FD08B1084B436008
:1021500003F03EFE84F31188BFF36F8F10BD84F34C
:102160001188BFF36F8FE8E7813100201C840200E3
:10217000C0A702002DE9F8437F4A436893424DD13E
:1021800082687E4B9A425CD1037B002B59D17C4BF9
:102190001D7825B140F25B117A481AF0BEF97A48F1
:1021A00024F014FC20B3794F794E57F8044B2046A5
:1021B000FFF7D8FE002C804601DA6621ECE724F018
:1021C00005FCA8B104F01F044FF00109714B7360C6
:1021D00009FA04F4B460D8F80830DB6943B14A4620
:1021E0003146404698472DB90C364D460028DCD084
:1021F000032010E00028FBD1EFF31184202383F3A8
:102200001288BFF36F8FFFF715FF84F31188BFF3B8
:102210006F8F0028ECD1FFF7B7FE12E05E4A584DF1
:10222000934222D1EFF31184202383F31288BFF36A
:102230006F8F2B78022B07D8A3B184F31188BFF3DB
:102240006F8F0020BDE8F883032B0BD10020FFF730
:1022500013FF28B9FFF7EEFE10B9FFF795FEECE784
:102260000320FAE740F2B31196E74C4A93427FD13C
:10227000EFF31187202383F31288BFF36F8F2B783E
:10228000022B06D0032B69D0012B6ED103232B70B8
:1022900064E03D4CA3689B68002B64D04049002259
:1022A00020469847014600285DD1204602F044FEB2
:1022B000002858D13B4CD4E9016133682269980564
:1022C00003D440F2ED31384867E7136823F4007314
:1022D00013600B684FF4003209212046984700280C
:1022E00041D133689B0502D440F22F61EBE7A3682C
:1022F0002C481B694FF400719847044698BB234E45
:102300004FF0010856F8049B4846FFF72BFEB9F141
:10231000000FFFF652AF09F01F0211464368D0F8D4
:1023200008E01B68D0F810C008FA02F21A42C8D0C0
:10233000DCF8003023EA0203CCF80030DEF800308D
:102340004FF48032984770B95CB10120FFF794FEDA
:1023500048B903232B700220FFF716FE87F311887C
:102360006DE70124CEE70320F6E74FF4EB7113E7A6
:102370004FF4F07110E700BF18A7020070A9020027
:10238000813100201C8402006C7302006876020018
:10239000EC16002001210000C0A7020078A702006F
:1023A0003C800200AC7202001783020010B50446A4
:1023B000102003F0B3FC08B1044B4360044B83606E
:1023C0000473BDE8104003F003BD00BF18A702006E
:1023D00080A9020070B52E4D2B782BBB2D4C2E48BA
:1023E0002378CBB183682D4A9B682D49984708B95B
:1023F00001232B702B4BBFF35B8F1B68BFF35B8FED
:1024000013B92C78002C39D0BDE87040264841F231
:102410008832002318F058BD8368204A9B682349FE
:10242000984701232370E2E721480022002301217D
:1024300019F04EFC04460028DCD11E4B28701B8886
:102440004FF4166213FB02F31B4A934214D8B3F500
:102450007A1F07D31B0B0522A3F2E633B3FBF2F37B
:10246000164AD45C0C2003F059FC08B1144B4360AD
:10247000047203F0ADFCBDE76424F3E70A4818F0EA
:1024800029FD104B1C70BDE870400220FFF78EBF85
:1024900085310020823100200C7302005C02002094
:1024A0008476020004170020300B002070760200B2
:1024B0004802002024310020FF0F6400BA8402008B
:1024C00080A502008431002038B5474B42689A420B
:1024D0003BD18268454B9A4231D1037B7BBB444B55
:1024E0001A7822B14FF4857142481AF016F8012586
:1024F0001D70414C204624F069FA10B3A3683F498F
:102500001B68204698470446D8B93D493D4818F015
:1025100055FC3D4B3B481D7041F28832002318F0BA
:10252000D3FC2046FFF742FFBFF35B8F374B53E8E6
:10253000002F43E800510029F9D1BFF35B8F002041
:1025400046E00320FFF732FFF9E7314B9A422F4B69
:102550001BD1BFF35B8F1C68BFF35B8F002CEED1E8
:10256000BFF35B8F012253E8001F43E800200028DF
:10257000F9D1BFF35B8F244B22481A7041F28832A5
:10258000002318F0A1FC2046DCE722498A4228D12A
:10259000BFF35B8F1A681C4CBFF35B8FBAB1BFF3FC
:1025A0005B8F002253E8001F43E800200028F9D188
:1025B000BFF35B8F184B1D785DB1237813B940F2E0
:1025C000311191E70F480022002318F07DFC20789C
:1025D00038BD0C4818F07EFC02202570FFF7E6FE9F
:1025E000F5E740F23F117FE718A7020070A902004B
:1025F00083310020648402000C73020040800200DA
:10260000D5230000300B0020843100200417002067
:10261000C0A7020078A7020085310020044B1B7878
:10262000073B032B86BF034B18780120704700BF80
:102630008C3100208B310020064B1B781A1F012A99
:10264000054A02D9093B012B01D850787047105C2C
:10265000704700BF8C310020873100202DE9F04108
:102660000C461A49804616461F461CF016FB0546C6
:1026700088B9012CDFF8588002D088F8005007E0B4
:10268000144922463846B047012819D188F800007D
:102690000020BDE8F081104940461CF0FEFA0546D6
:1026A0000028F5D1022CDFF83480E6D10C4922460F
:1026B0003846B047022803D1012388F80030E7E705
:1026C00088F8005000EAE070E3E700BF8C85020064
:1026D0008A3100208B3100203C85020086310020A9
:1026E0008731002008B50C2003F018FB08B1014B1E
:1026F000436008BD10A6020010B5164C164818F02D
:10270000E9FBFFF7EFFF2278052A014612D00A2ADB
:1027100015D105230372FFF781FF07234872237049
:10272000FFF77CFFFFF788FF8872BDE8104008467E
:1027300003F04EBB0272FFF771FF0223EEE707239F
:102740000372093AFFF76AFF012A94BF07230223A5
:10275000E4E700BF8C310020600B00207FB50A4BFE
:102760006A4603F11006154618685968144603C4F2
:102770000833B3422246F7D104490222284602F028
:1027800093FC04B070BD00BF338502008731002088
:1027900008B5084B1B781A1F022A07D9093B012BE1
:1027A00004D905484FF41B7119F0B7FEBDE8084085
:1027B000FFF7A2BF8C3100204385020010B504460C
:1027C000102003F0ABFA08B1044B4360044B836064
:1027D0000473BDE8104003F0FBBA00BF18A7020065
:1027E00084A9020070B51F4C2378E0B91A1F022A91
:1027F00002D9093B012B33D8BDE87040FFF77CBFFD
:10280000194B00221A70FFF76DFF05720146FFF7A2
:1028100005FF4872FFF702FFFFF70EFF88720846B8
:1028200003F0D6FA12E0022BE0D1062818D10425D5
:102830002570FFF7F3FEFFF7FFFE0022114606F0BA
:102840001FF80028DCDA0320FFF7B8FF0523237008
:10285000BDE87040054847F23052002318F034BB01
:1028600070BD00BF8C31002089310020600B00203A
:10287000F0B59E4A436893428BB0044640F0B38063
:1028800082689B4B9A4240F0D880037B002B40F03B
:10289000D480984C2378012B04D940F253419648B8
:1028A00019F03BFE002B14BF0323022393499448E5
:1028B000237018F083FA032301A902A8019305F0FD
:1028C00087FF019B53B940F28D21E8E7019B9842B5
:1028D00002D040F29721E2E701300190019B022BE8
:1028E00008D80021084605F085FF0028EEDA03200D
:1028F000FFF764FF834F844A3B78844E53B1844B87
:102900001B783BB113782BB93378022B02D873783C
:10291000022B25D90023137033708DF804307D4BC2
:102920000222727003F1100C02AA18685968154649
:1029300003C5083363452A46F7D11B782B70012263
:1029400001A902A802F0B0FB18B9FFF707FF014682
:1029500058B30320FFF732FF6D4A01233B70137019
:102960007078002105F0B8F910B10320FFF726FFB9
:102970002378072B2DD102232370FFF7B3FE012507
:1029800005720146FFF74AFE4872FFF747FEFFF760
:1029900053FE8872084603F01BFA0020FFF70EFF73
:1029A0002378032B49D1012045E005F095F9054630
:1029B0000028CED102460146012005F061FF002823
:1029C000C7DB2A462946022005F05AFF0028C3DA51
:1029D000BFE7082B01D10323CEE7023B012BCCD963
:1029E00040F231215BE74C4A934240F09B80414DDD
:1029F0002B78052B01D00A2B1FD1237A022B12D161
:102A0000464824F0D6FA41F28733984215D8444C10
:102A1000237893B93A4841F28832002318F054FAE7
:102A20000123237009E0032B07D1E06802A907F016
:102A3000A1FA28B10320FFF7C1FE00200BB0F0BDC2
:102A4000FFF7ECFD0146FFF7F7FD9DF80A608642AF
:102A500008D0E068132106F0F9FF0028EDD080309F
:102A6000EBD0E7E72B78052B03D00A2B01D0FF2111
:102A700015E7264C2378194311F0FF0122D10846AF
:102A800005F02AF9E0B10320FFF798FE2B780A2B16
:102A900014BF022307232B70FFF724FE06230372C3
:102AA0000146FFF7BBFD4872FFF7B8FDFFF7C4FD15
:102AB0008872084603F08CF9114818F00BFABCE74D
:102AC00001232370FFF7AAFD235C62786370FFF790
:102AD000A5FD2254FFF742FE01460028D3D16078BD
:102AE00005F0FAF80028D1D0CDE700BF18A7020002
:102AF000B4A902008C310020438502009127000018
:102B0000600B0020863100208B31002087310020AF
:102B10008A31002083850200F8A50200700B002096
:102B200089310020384A934213D10389022B84D182
:102B3000364B1B78002B80D024F05BFA41F26F7388
:102B40009842A07A02D8022808BF0620FFF74AFE62
:102B500073E72F4A2D4C934228D123780A2B22D891
:102B600001A252F823F000BF212A00003B2A0000F6
:102B7000992B00003B2A0000952B0000952B0000AC
:102B8000952B0000A32B00003B2A00009F2B000088
:102B90009F2B0000FFF7B0FD0323237003E7FFF72F
:102BA000ABFD0823F9E740F2194178E6194A934250
:102BB00027D123780A2B21D801A252F823F000BF95
:102BC0003B2A0000ED2B00003B2A0000F12B000007
:102BD0003B2A00003B2A00003B2A00003B2A000061
:102BE000F92B00003B2A00003B2A0000002318E7D5
:102BF0000223237000201EE70723FAE740F2444136
:102C00004DE640F283414AE658A602008C3100208E
:102C100078A70200C0A7020007B53E4A4368934266
:102C20001AD182683C4B9A4212D1037B83B93B494B
:102C30003B4818F0C3F83B493B4818F0BFF83B4B02
:102C40001A781AB1E5213A4819F067FC01221A7086
:102C5000002003B05DF804FB364A934230D1037A7A
:102C6000022B0AD0032B25D0002BF1D1324AC068A9
:102C70001168884214D0FB21E5E72F4BC06818602B
:102C80004FF006124FF0C8736946CDE900231DF0DE
:102C90001CF8234842F21072002318F015F9D7E708
:102CA0001360264A2048137018F014F91C4818F0D5
:102CB00011F9CDE7214A137843F010031370F5E7BB
:102CC0001F4A934222D1037D002BC1D08389C18941
:102CD000994201D0B221B6E7184A11F4506F137827
:102CE000018A14BF43F0080303F0F70349B923F046
:102CF000020343F0010313700B4841F288320023B2
:102D0000CBE723F0010308481370D0E740F23F11EE
:102D100099E700BF18A7020070A90200ED2D00007E
:102D2000C00B0020452D0000900B00208D310020AD
:102D30009D850200F8A50200081700208E310020B2
:102D4000E0A5020030B5254C237803F00C020C2AD4
:102D50008BB003D19721224819F0DFFBD90608D4A4
:102D6000204841F2883200230BB0BDE8304018F013
:102D7000ABB89A0703D523F002032370F0E71A4D8E
:102D800002A9286807F0F6F828BB9DF80930012B46
:102D900001D05F21DFE7BDF81E30632B1BD0BDF8EB
:102DA0001C30286813F4506F18BF0623ADF80030AC
:102DB000ADF802306323ADF804306946BDF8203029
:102DC000ADF806301CF081FF08B1783003D12378CC
:102DD00023F0010323700BB030BD00BF8E31002003
:102DE0009D850200900B00200817002008B50E4BAF
:102DF000186818B90D48332119F08FFB132106F01C
:102E000025FE78B180300DD0102002F087FF08B188
:102E1000074B4360074B836003230373BDE80840FF
:102E200002F0D6BF08BD00BF081700209D85020034
:102E300018A7020088A9020008B5034602689B682B
:102E4000002A13BF0122002201200020003B18BFEE
:102E500001239A4203D00248F82119F05EFB08BD15
:102E6000EC85020008B520B906484FF4DE7119F070
:102E700054FB054B5B5C012B9ABF00EB0310083041
:102E8000002008BDEC850200903100200A2809D0FE
:102E90000B2808BF0220044B1B5C0448002B18BF02
:102EA000002070470120F6E79C3100200C1700201D
:102EB0002DE9F041224BDA6B93F84070DC6CDD6D4C
:102EC00093F85680064693F8460012B3A64208D1FE
:102ED0001C4A91422DD02FBB1B484FF4836119F03F
:102EE0001CFB1A4B9C4203D1FFF7D0FF8642EFD068
:102EF0000024B542224609D0144B9D4209D14046D8
:102F0000FFF7C4FF864204D1BC4202D8104B99425D
:102F100004D11046BDE8F0813C46EDE7A742DBD086
:102F20000B4AF6E7B542F7D102F110039942D3D12B
:102F3000EFE7B5424FF00004F0D02246DCE700BFD7
:102F40000C17002050170020EC8502009876020034
:102F5000601700202DE9F04103464678144621B958
:102F60004FF4FE71384819F0D8FA90F80080B8F1A3
:102F7000000F02D140F2FD11F4E712B94FF40071D5
:102F8000F0E7851C07270022B818401005EB800EDB
:102F900035F820C0A1EB0C0CBCF1000F45D0B4BF3C
:102FA00000F1FF37421C9742EEDA002C24DA0020B1
:102FB00004E00139597025F8202001205A78B242E6
:102FC00018D000210E4601310C463246082C23D180
:102FD000B2420BD005EB82045F88B3F9046055F868
:102FE00022C0C3F802C025F822706680082903F1C8
:102FF0000403E7D1BDE8F081B045D8D9C6F1070296
:1030000003EB8202508810B14FF40A71AAE7518095
:103010009480721C5A70D0E735F824C035F82270BD
:10302000BC4538BF22460134D0E7BEF80220224416
:1030300012B2AEF80220002ABFD159780029B8D1C7
:103040004FF404718EE700BFEC8502002DE9F74FC5
:103050000C469846054638B909B18D6B45B900272D
:10306000384603B0BDE8F08F11B98468002CF6D063
:103070003AB12B782BB9B8F1000FF0D001232B73A4
:10308000EDE7AB78033B012B00F21B814FF0010908
:103090001AE1AB78013B04F1200C0A2B00F2FA8014
:1030A000DFE813F010000B009C009C00F800F80013
:1030B000F800F800F8009F000B0040F23E21854820
:1030C00019F02BFAB4F93030834AB4F9321040F2D7
:1030D000FF769E42A8BF1E46964240F2FE70B8BFE1
:1030E00016468142628E06DD0BB19B1B23867A4F0A
:1030F0003A4462860FE07948814205DA0BB19B1BA6
:10310000238640F2FF77F3E757423FB20BB19B1B98
:103110002386002FECD1B4F9343013F1FD0F13DB0B
:10312000FD2B14DC03EBD372521002D0A3EB42034D
:10313000A386204600214388B0F904E0B3B1082BF0
:1031400007D94FF42971BAE76FF07E02EEE77F22CC
:10315000ECE7BEF1000F02DC40F2A521AFE7013B36
:103160004FF0010E0EFA03F30B43D9B2043084453D
:10317000E1D11A20CDE9001202F0D0FDDDE9001204
:1031800018B10623C0F804B00361C0F808A06B684A
:103190001B68C36095F802C0C675FBB2C6F3032670
:1031A00046EA0316C7F307271B0943EA07134376CA
:1031B00080F814C041758275067602F009FE236B13
:1031C00023B9A38E01339BB2022B61D901232B7348
:1031D0006B78FF2B61D140F28E3170E740F21D31E8
:1031E0006DE7B4F93220B4F93030B4F934107F2AE5
:1031F00003F3070707DD0BB1DB1B23866FF07F06A8
:10320000324462860EE012F17E0F04DA0BB1DB1B52
:1032100023867F26F4E7564276B20BB1DB1B23866A
:10322000002EEDD109B10023A38621460022012002
:103230004B88B1F904E07BB1082B02D94FF43C7103
:103240003DE7BEF1000F02DC40F2F12137E7013B20
:1032500000FA03F31343DAB204318C45E8D11820A5
:10326000009202F05BFD009A18B10423C0F804B08C
:103270000361C0F808A06B681B68C360AB78037576
:1032800042758775C67502F0A3FD236B002B9DD197
:1032900000239CE740F28A3111E76A6801336B70C2
:1032A000D3790133D3710127697849451CD30029AB
:1032B00060D1B8F1000F3FF4D3AE002F7FF4D0AE51
:1032C000DCE66B6893F80590DFF814A0DFF814B023
:1032D0000027E9E7EC85020001F8FFFF02F8FFFF95
:1032E0000C170020A0A602006A68D079927990425B
:1032F000DDD2224B9C422BD004F124030093009892
:10330000FFF79AFDF8B9666A002E30D0A16A3268DC
:1033100062628E4200D1A262E26A013AE262B6F9CA
:103320000620B1882046FFF715FE0246A06B0192E9
:10333000017B002908BF11460173304623F04DFF81
:10334000019A002ADBD0A26B127B002A7FF4A1AE87
:103350002A7B002A7FF49DAEB8F1000F7FF499AE6E
:103360006A78002A3FF47CAE02222A7078E64FF495
:103370005171A4E602222A709BE700BF98760200F2
:103380002DE9F041944942688A42034615D1934A97
:10339000507868B992491C890A8E22440A865B8952
:1033A0004A8E13444B8601231A46FFF74FFE31E045
:1033B00040F293518B4819F0B0F88B498A4253D1AF
:1033C000017B477B86489B68C26B9A4222D190F86A
:1033D000434090F84260631E80F843303C30FFF772
:1033E00041FD054610B940F2B331E3E70378A3B1DC
:1033F000437813B940F2B631DCE7013BDBB24370EE
:103400000BB90123037047B1A868836B9D4204D1B7
:1034100018F0C8FD0020BDE8F081B44207D1734B1D
:1034200005F110049C4203D1A5F1100400E02C46E4
:103430006E4E237833B9A542ECD01034B442F8D1A3
:10344000203CF6E76378002BF5D1A3689B6B9C4288
:1034500001D0002BEFD100231A4619462046FFF772
:10346000F5FD0028E7D0D5E761498A420BD15B4AD8
:10347000507828B95A491B898A8E13448B8692E763
:1034800040F2A45196E75B498A4269D15A4E0789B6
:10349000022100204FF0060C421852100CFB02F4DF
:1034A000A519345B3C1B002C00F08881B4BF02F1ED
:1034B000FF31501C8842EFDDACE7494CA56B45B1AC
:1034C0002D7835B104F12400FFF7B6FC00283AD17D
:1034D000012523F08EFD0146484818F0F2FCE36A0E
:1034E0000B2B03D955B13E4818F05CFD0C2023F09E
:1034F0007BFE0546A8B940F211115BE7656ADFF86B
:10350000FC801DB9E36A0B2BF0D9ECE7A9684046B3
:1035100001F5FA7118F0D5FCE36A0B2BE6D92D689A
:10352000EFE78680C78023F064FD0023A8602B604E
:10353000A36A2BB9C4E90955E36A0133E36269E779
:103540001D60A562F8E73A4631462046FFF702FDC6
:1035500000283FF45FAF012300222146002024E72A
:1035600027498A4273D1C67B81681D4AFEB1007B20
:103570005C7B9B7B10B940F2AE411BE714B940F273
:10358000AF4117E76BB94FF4966113E782F8423009
:103590000023D16382F8400082F8414082F8433032
:1035A00038E7D56B002DF1D04FF4986102E7D36B6B
:1035B00099427FF42FAFD46C02F1440524BB264618
:1035C000103516B9AC680126F4B9282200210D483F
:1035D0001BF09EFB1EE700BF30A702009C310020BD
:1035E0000C170020EC850200B8A60200701700201E
:1035F000D8A7020040A60200488002003017002031
:10360000D0A6020048170020AB78013B0A2B02D954
:1036100040F2DA41CEE6A36BAB42D1D1204600277F
:1036200018F0C0FCAF6029462046FFF741FCA842D5
:10363000A06302D140F2E141BCE60028C0D00123E2
:1036400084601A4621463846FFF700FDB8E7664910
:103650008A427FD1654F467BFA6B8168047B002EDE
:103660004ED091427FF4D6AE07F13C06214630465B
:10367000FFF7F8FB054610B940F256419AE60123E0
:103680008470466003702046FFF700FC044610B9C2
:1036900040F25E418EE6A860866B9EB9A56304F198
:1036A00024052846FFF7C8FB28B923F0A2FC0146F1
:1036B000284618F006FC0622002104F130001BF019
:1036C00027FB48E7B54202D140F2634172E67368D6
:1036D0001A7997F840309A42BFF49CAE002787636E
:1036E00018F060FC424BB36001223B46327339460E
:1036F0003046FFF7ABFCA36B002B7FF48BAECDE71E
:1037000091427FF487AE214607F13C00FFF7AAFB08
:10371000044610B940F292414CE685684660068046
:103720008660AB6B98427FF475AE284618F03AFC81
:1037300021462846FFF7BCFB8442A86302D140F231
:103740009F4137E600283FF465AE012385601A46A5
:10375000294603E727498A422DD18168264A9142AA
:103760007FF458AE037B002B7FF454AE234B1A78C2
:1037700012B14FF4C2611DE6214A012119701046B1
:10378000002301330C2B02F8011BFAD11D4A002340
:103790001146022401330C2B02F8014BFAD100230D
:1037A00043704B70114B08221A70032283F83620A5
:1037B00001238B722EE640F24361FBE56E88002EFA
:1037C0003FF428AE9B7A0E4A002B2B7912F8038027
:1037D0000CBF4FF0FF370127B8F1000F3FF46DAE7B
:1037E00040F22951E6E500BFE8A602000C170020D0
:1037F0009876020018A7020070A902008F310020FD
:103800009C3100209031002008B5094B42689A4253
:1038100003D00848122118F080FE082002F07EFA3A
:1038200008B1054B436002F0D3FA002008BD00BF89
:10383000A0A602003786020000A702004B1E5942D4
:103840005941014B19707047A931002010B51F4B29
:1038500044689C4286B017D11D4C037A23701D4BDF
:103860001B7873B10021182268461BF051FA1A4BDD
:103870006946CDE9013400200123ADF80C3008F091
:1038800031FE002006B010BD144B9C421BD1826853
:10389000134B9A42F5D1037B002BF2D1114B1A78CE
:1038A0001AB14E21104818F038FE012210201A706B
:1038B00002F034FA00B144600C4B836000230373C0
:1038C00002F086FADDE75721ECE700BF80A5020091
:1038D00004080020A9310020E876020018A70200A1
:1038E000A0A90200A83100208886020094A9020045
:1038F0002DE9F041054686B016461F460C4619B91B
:103900000C48192118F009FE0DF110084046082155
:1039100000F00EFA0823CDE90183BDF830300093A2
:1039200032463B46214628461DF032FB06B0BDE834
:10393000F08100BFC78602001FB519B927210948C9
:1039400018F0EBFDCC680CB92821F8E701240294AB
:10395000054C0194BDF8184000941DF019FB04B00B
:1039600010BD00BFC7860200AA31002070B5054611
:1039700010200E46144602F0D1F908B1044B436002
:10398000067385604473BDE8704002F021BA00BF41
:10399000B8A6020038B5054610200C4602F0BEF964
:1039A00008B1064B436040F201238381FF23856009
:1039B0008373C473BDE8384002F00ABAD0A602008F
:1039C00038B505460C4651B1114BA0F10A04012C43
:1039D0001B788CBF00240124E31A5C425C410D4B30
:1039E0005A5DA24212D00C4A12787AB110205C556E
:1039F00002F094F908B1094B4360094B05731B6849
:103A000044738360BDE8384002F0E2B938BD00BFBE
:103A1000AD310020AF310020AE310020E8A6020019
:103A20007017002038B560B101280ED0084D002471
:103A3000E0B215F8011B0134FFF7C2FF0C2CF7D1DF
:103A400038BD044B01221A70F0E7024B0022FAE75E
:103A5000BB310020AD31002038B505460C200C46A6
:103A600002F05CF908B1054B4360B4FA84F14909EE
:103A700005724172BDE8384002F0AAB988A602007A
:103A8000F0B5944B45689D429FB0044655D1924E87
:103A90003068E8B1E36898421AD1236923B940F24B
:103AA000AB118E4818F039FD257D0B2D02D940F25F
:103AB000AF11F6E78A4A52F8251011B94FF4D871C0
:103AC000EFE7884A525D32B901222946FFF74EFFDF
:103AD00000201FB0F0BD844F0A2D3F7804F115027D
:103AE00003F1FF330ED00B2D1ED067B9DBB200936C
:103AF00013467E4A019112F8252001467C4819F0B0
:103B000040FD0EE01FB9306801222946DEE7019131
:103B100094F917300093014694F91630744819F05F
:103B2000C7FD0028EFD1D3E7002FECD000919BB266
:103B300001466F4819F045FEF3E76E4B9D4265D193
:103B4000037A042B5FD801A252F823F0A53B0000B2
:103B5000913B0000613B0000DB3B0000D13A0000DC
:103B60005D4B1A6812B140F209219AE7624DC168B3
:103B70005F48196001F0B2FE2B7813B140F21121B9
:103B80008FE7E0680121FFF705FF01232B709FE716
:103B9000594D2B78002B9BD0C0680021FFF7FAFE0F
:103BA0000023F3E74C4DC1682B68994202D04FF4D3
:103BB000087176E7504E4E4801F0C2FE33782BB1C3
:103BC000E0680021FFF7E6FE002333704B4A002334
:103BD0001370454A2B6013707AE73F4BC2681B682D
:103BE0009A4202D040F23E215BE7444B444D012211
:103BF0001A700024E0B215F8011B0134FFF7E0FE53
:103C00000C2CF7D164E740F24E214AE73D4B9D4230
:103C10000FD1007A617A0B2801D9832141E72E4B1D
:103C20001B68002B3FF454AF354B1954FFF7C8FE07
:103C30004EE7354B9D4249D18268344B9A427FF41E
:103C400047AF037B002B7FF443AF314B1E7816B197
:103C500040F26D2125E7012431466A220DF10E0064
:103C60001C701BF055F840F20113ADF80C30032323
:103C70008DF80F30274B1693274B1D481B68ADF866
:103C80005C3005238DF83F30244B1293244B119365
:103C9000164B8DF83C405E60224B1A9303A9224BD1
:103CA0008DF84C408DF87440189301F05BFE0028AD
:103CB0007FF40EAF102002F031F800B145601B4BCD
:103CC00083600023037302F083F801E740F28B2145
:103CD000E7E600BFA0A60200701700202A870200B6
:103CE00088770200AF310020AD310020741700202A
:103CF000B0020020F8A50200AB310020AE31002058
:103D0000BB31002088A6020018A7020070A902009B
:103D1000AC310020278102001876020043C0010068
:103D2000668702003BC00100253A000098A9020006
:103D3000072908B503D80D21054818F0EEFB082126
:103D400022F0A7F8082801D01021F5E708BD00BF30
:103D50006C87020010B5094C0A44914200D110BD95
:103D600011F8013B584003090001E35CC0B2434035
:103D700018091B01205CDBB25840EEE7A587020062
:103D800070B539B30668304618F097F9012201463C
:103D90000446304618F059F9C30703D4AF210E4842
:103DA00018F0BBFB2146304618F065F92518294666
:103DB0000022304618F049F92D1AAC4201D0B72143
:103DC000EDE72146304618F05CF92146BDE8704029
:103DD00018F098BA70BD00BFB58702002DE9F8430E
:103DE00006681446B2680F464B1EB2F5004F34BF4A
:103DF000042108213B4010D0C7F1000909EA070956
:103E0000494503F1FF3028BF494618420CD11F46EF
:103E10008CB900252846BDE8F8838F4209D8214691
:103E2000BDE8F84318F0B0BA29484FF4A27118F071
:103E300074FB9946ECE7B2EBD40FEAD9E319591AAF
:103E4000104618F044F90146304618F09AF98046B9
:103E50000028DED0B368B3F5004F34BF0423082335
:103E600009EBC0051D4435447B1E1D44B5FBF7F529
:103E70007D43A5EB09052946304618F01EF92C4470
:103E8000073424F00704A41B804507464FEAE404E6
:103E900008D202464146304618F0ADF94146304658
:103EA00018F0EEF93946304618F0E5F83844844207
:103EB00008D239463046224618F09DF92146304650
:103EC00018F0DEF901223946304618F0DAF8A1E799
:103ED000B5870200B2F5802FF8B506D2042A14D8AF
:103EE0004FF4F971314818F018FB0823D21ACC1D91
:103EF000114424F0070421F00701091B17294FEA98
:103F0000D10604D840F2FB11ECE70423EEE70027CA
:103F100004603146A660E760304618F0E1F8012100
:103F200085000246304618F0D2F81B35ED082844CB
:103F3000B04234D804F10C013B4638469A4231DA9B
:103F40002A462046002118F0B4F800231A461946E4
:103F5000204618F085F8771B19462046012218F0F4
:103F600090F83A46294618F0A4F82B460022294634
:103F7000204618F075F83146204618F09AF83B466E
:103F800031462046002218F06BF8314620460122C7
:103F900018F077F82946BDE8F84018F071B94FF4E9
:103FA00003719FE741F8040F0133C7E7B5870200AB
:103FB000014B1B68184700BFA803002007B50B463C
:103FC000002102460091034800F01CF803B05DF8A0
:103FD00004FB00BFB13F000030B587B00025CDE93C
:103FE00003010446009503A90548059500F00AF869
:103FF000DDE904309842B8BF255407B030BD00BF9A
:10400000F1C301002DE9F04F95B0824603911746A8
:104010001C460025387808B9284660E3252809D0D1
:104020000399D0470028C0F25A837B1C01350493C2
:10403000049FEFE7182200210EA81AF069FE7B7892
:10404000252B7DD00023781C98469E469C461E4614
:10405000014610F8012B2B2A00F0A18000F2988075
:10406000202A00F09F80232A00F09F802BB19DF82A
:10407000403043F040038DF84030B8F1000F05D0D8
:104080009DF8403043F020038DF84030BEF1000F22
:1040900005D09DF8403043F010038DF84030BCF15E
:1040A000000F05D09DF8403043F008038DF84030F4
:1040B0002EB19DF8403043F004038DF840309DF858
:1040C000403003F04400442803D16FF386138DF889
:1040D00040309DF840302A2A43F080038DF840306C
:1040E0007FD19DF8412042F001024B1C8DF8412008
:1040F0001A782E2A9DF841200CBF0121002161F37E
:1041000041028DF8412078D15A782A2A6ED00133A5
:1041100000224FF00A0C194611F8010BA0F13006ED
:10412000092E40F295809DF840101292C1F3400094
:1041300040EAD2700A4660F341028DF840205CE00C
:104140008DF84330BB1C04939DF84130DA0740F1F1
:104150002E8154F8048BB8F1000F07DA9DF8402047
:1041600042F004028DF84020C8F100085E0740F1DB
:10417000278154F804BBBBF1000F80F226819DF823
:1041800041306FF341038DF841304FF0FF3B1CE1AC
:104190002D2A0DD0302A7FF469AF012358E74FF064
:1041A000010C55E74FF0010E52E74FF001084FE7C1
:1041B00001264DE70EFB0262303A0346184610F81E
:1041C000016BA6F1300CBCF1090FF3D999428FD0E5
:1041D0009DF840101192D20F62F341018DF840100A
:1041E00086E70B4600224FF00A0EE7E79DF84120D4
:1041F00042F004028DF8412002331A786C2A47D02D
:104200002BD8682A31D06A2A4BD04C2A51D01A4672
:1042100012F8013B0492782B9DF841208DF8433031
:1042200000F2BE806D2B51D8692B00F2B980572B5C
:1042300067D8412B03D0453B022B00F2B1809DF89B
:104240004230042262F302038DF84230012373E00E
:104250000CFB0202303A0B465DE7742A25D07A2A1D
:10426000D5D19DF8412006210CE05A78682A9DF8A6
:10427000412006D1012161F3C6028DF841200233AD
:10428000C5E7022161F3C6028DF841200133BEE784
:104290005A786C2A9DF8412001D10421EBE70321D3
:1042A000F0E79DF841200521ECE79DF8412007212A
:1042B000E8E7BDF8402022F4F04222F0020242F486
:1042C000804242F00202ADF84020DFE76E3BD9B2F7
:1042D00001238B4040F282410B4237D113F0240F6F
:1042E00051D1D8075CD59DF84230032161F3020318
:1042F0008DF8423002F07803A3F140014B424B416C
:104300001AE0A3F15801C9B2012000FA01F111F439
:10431000624F94D140F6010631421DD111F4043FA1
:104320003ED09DF8423060F3020302F07802402A4A
:104330008DF8423034D000239DF84020C2F3400174
:104340000B4363F341028DF84020FDE69DF84230B7
:10435000022161F30203E8E79DF84210022002F017
:10436000780260F30201402A8DF8421002BF9DF8E6
:10437000401041F001018DF84010632BDBD1131E7A
:1043800018BF0123D8E79DF84230032161F30203EF
:1043900012F0780F8DF8423014BF01230023CBE7D1
:1043A0009DF8403043F001038DF84030C3E79DF99C
:1043B0004020002AB4BFDDF844804FF0FF38D5E636
:1043C00098077FF5E2AEDDF848B09DF84110002374
:1043D000CDE911339DF8423003F00703012BC1F3FF
:1043E000C30132D1CB1E042B04D8DFE803F02045F3
:1043F00045202000236801294FEAE372CDE90E32FF
:104400001BD19DF93830DA17CDE90E3204349DF80E
:10441000403013F003064FD0049B03993A465046B0
:1044200018F064F80028C0F25A81054400E654F8F8
:10443000043BDA17CDE90E32E9E70229E6D11AB2D8
:1044400043F3C033CDE90E23E0E7022B24D1CB1E8A
:10445000042B04D8DFE803F0181010181800012905
:1044600054F8043B4FF0000214D00229CDE90E327B
:10447000CDD19BB20E93CAE7073424F00704F4E8C9
:104480000223CDE90E23C2E754F8043B0E93002328
:104490000F93BCE7DBB2CDE7042B08D1073424F03F
:1044A0000704D4E900230834CDE90E23AFE7032B3A
:1044B000ADD154F8043BDDE79DF8430078283FF682
:1044C000B7AD62281DD825284ED058287FF4B0AD4E
:1044D0000DF136030093DDE90E0108AB10AA17F0C9
:1044E000BDFFBBF1000F074680F2C280002F3FF4F2
:1044F0009FAD0DF13609A9EB0700002E49D0013020
:1045000047E0633815283FF693AD01A252F820F03A
:1045100033460000454600003140000031400000B5
:1045200031400000314000004546000031400000AD
:104530003140000031400000314000009146000051
:104540006B460000F34500003140000031400000A0
:1045500077450000314000006B460000314000000C
:10456000314000006B4600000399D0470028C0F29C
:10457000B68001355CE5BBF1000F0E9F35DB594677
:1045800038461AF0DBFB07EB0009002F3FF450AD73
:1045900000269DF8423013F01002059200F0928040
:1045A00002305B06DDF844B048BF129B584448BF58
:1045B000C018B8F1000F40F39F809DF84020A8EB91
:1045C0000008C2F380035007069300F1958051065E
:1045D00040F188803EB103993046D04700287EDB09
:1045E000069B01351E4630227DE038461AF04EFB10
:1045F000C9E70E9800285FD00DF1360908ABCDF859
:10460000009010AA002117F029FFBDF8423003F0F6
:10461000EF0343F4F04343F01003BBF1000F0746F0
:10462000ADF8423023DA00283FF402ADA9EB0000D8
:10463000AEE70E9B8DF82030002608AF0DF1210962
:104640000120A6E719075CBFC3F300135E01DDE993
:104650000E2348BF2B26002BBFF63AAF524263EB26
:104660004303CDE90E232D2632E7002630E700264E
:104670009DF840200DF13603DB1B6FF386129B453E
:104680008DF840207FF632AFABEB030311932DE79B
:104690000E9B07293FF6CCACDFE801F00C04060CBA
:1046A00008080C0C1D70C3E41D80C1E4EA17C3E9BF
:1046B0000052BDE41D60BBE42E4F064607F105091C
:1046C000052066E71A0748BF01306AE707931046DE
:1046D00006920399D0470028DDE9062304DA15B0D5
:1046E000BDE8F08F202243461946002903F1FF332D
:1046F000ECDC45446D1A98462EB103993046D047FC
:104700000028ECDB01359DF84230DA0601D41B07A6
:1047100005D503993020D0470028E0DB0135059B03
:1047200033B103999DF84300D0470028D7DB01350A
:10473000AB4405E003993020D0470028CFDB01359A
:10474000ABEB0503002BF5DC03994B463A4650468C
:1047500017F0CCFE0028C2DB0544A844A8EB0503F3
:10476000002B7FF765AC03992020D0470028B6DBEB
:104770000135F3E7D887020008B50446EFF311834B
:10478000202383F31288BFF36F8F12F0E7FB2046DC
:1047900001F0ACFE024817F03DFE1AF0CAF9FCE742
:1047A000DE8702002DE9F0471646028B044610070B
:1047B00012D4022902F007025BD1204617F054FF01
:1047C00088B10138042800F2D380DFE810F05200ED
:1047D000D1006E009A00B50001290CBF42F0100212
:1047E00042F02002228386F31188BFF36F8FBDE869
:1047F000F08703F00701481F01281ED80020062972
:104800002768C4E9000014D1394603E0608B013009
:10481000608309680029F9D123F0070343F00201FE
:104820002183204617F020FF90B341F0200121831F
:104830002EE023F0070399B2F2E7042930D123F0E8
:10484000070399B22183204617F00EFF10B141F003
:1048500020012183238B03F00709914540F08B80D1
:10486000228BD10640F1B08022F01003238302F0A6
:104870000702D4F81480238BB8F1000FB9DA0021B5
:10488000276823F00703C4E9001143F001032383E1
:10489000238B03F00709914500F09F8000251EE05F
:1048A00040F21B11584817F038FE12B14FF4AB71AB
:1048B000F8E7236813B940F25711F3E723691D683D
:1048C00015B94FF4AD71EDE7238B23F0070343F0E7
:1048D00006039BB22383174690464FF00609A26851
:1048E000002A4BD1002F7CD1002DB9D043F0080312
:1048F000238386F31188BFF36F8F44492046A8476E
:1049000056E0022A02D040F25D11CBE7678B17B167
:104910004FF4AF71C6E723695D6815B940F26111C4
:10492000C0E7238B23F0070343F004039BB22383E8
:10493000B8464FF00409D2E7012A02D04FF4B27111
:10494000B0E7236813B940F26511ABE723699D68AE
:1049500015B94FF4B471A5E7238B23F0070343F097
:1049600005039BB200272383B8464FF00509B6E73D
:1049700040F26B1196E700273D46B0E743F008038D
:10498000238386F31188BFF36F8FA16881B30E680C
:1049900071B3D1F804A043464A462046D0471EB121
:1049A000336831461E46F3E73346FAE7002DA4D1BB
:1049B000EFF31186202383F31288BFF36F8F238BCD
:1049C00023F0080323834BE793067FF50CAF22F017
:1049D0002003238302F00702EFE6002F3FF440AFED
:1049E000002543F00803238386F31188BFF36F8FFC
:1049F000002FDBD03E68394643464A46204617F032
:104A00005FFE3746F4E700BF07880200EDC60100ED
:104A100070B505460E4617F043FE041E14DBEFF397
:104A20001182202383F31288BFF36F8F6B8B2C8B43
:104A30004FF6FF718B4204F0070407D182F311880F
:104A4000BFF36F8F6FF00A04204670BD022C0CD1AB
:104A500001336B8382F31188BFF36F8F00232246EB
:104A60003146284617F02CFEEEE7062C11D8DFE879
:104A700004F004181010041F0400002333606B6856
:104A800063B9C5E90066D4B902212846FFF78AFE5A
:104A9000DAE70D484FF4E47117F03FFD1E606E60D9
:104AA000F1E782F31188BFF36F8F6FF00404CBE757
:104AB00082F31188BFF36F8F6FF08504C4E782F330
:104AC0001188BFF36F8FBFE70788020010B5EFF3BF
:104AD0001182202383F31288BFF36F8F048B04F0BD
:104AE0000704022C0AD0012C0CBF6FF004006FF0F9
:104AF000850082F31188BFF36F8F0EE0438B23B9DB
:104B0000074840F2EF1117F008FD013B9BB24383C9
:104B100023B92146FFF746FE204610BD2046E8E7B0
:104B20000788020038B5E0B1D9B1EFF31185202232
:104B300082F31288BFF36F8F048B17F07AFD48B1B0
:104B400004F00700031F022B06D9074840F22D216D
:104B500017F0E3FC6FF0770085F31188BFF36F8FD8
:104B600038BD6FF01500FBE70788020008B5426802
:104B7000816002F00302022A03460AD0032A4FF0A2
:104B8000000103D0012A0AD1596006E01868596073
:104B900008BD186800225A6028B90020F8E70348C9
:104BA000452117F0BAFC17F003F9F6E72C8802004C
:104BB0002DE9F7430F4606460821C06ADFF85090FA
:104BC00017F031FE3C68241A80463C6004EA09056F
:104BD000AC4203D8002003B0BDE8F08308236A4646
:104BE0002146304617F0B7FD0028F4D1694630461B
:104BF00017F023FE40B1BDF80230BDF804203C6040
:104C000005EA090513441D44A4EB0804E0E700BFCE
:104C10000000FFFF73B504460821C06A124E17F06A
:104C200002FE4FF6FF726368ADF800208DF8062093
:104C3000A289191833401344181A00256060684689
:104C4000ADF80210ADF8045017F0E4FD69462046B7
:104C500017F0B4FE2046211D17F0B6FD6368284604
:104C60003340A36002B070BD0000FFFF2DE9F047A4
:104C7000044688B000F11407384621F020FFA06AEE
:104C80008368DB689847E06228B96FF0150528460D
:104C900008B0BDE8F087A06A8368DB6898470368BE
:104CA000013B1F2BF1D8A06A216805AA21F095F8D5
:104CB0000028EAD1A589002DE7D0069BB5FBF3F2C9
:104CC00003FB1255002DE0D1E389012BDDD9E36A06
:104CD000009593F805904FF0FF334FF0FF323846C0
:104CE00015F074FCE06A082117F09DFDA846064601
:104CF000E3891FFA85FA534508D8E389434523D150
:104D0000384615F0E3FC6FF02C05C0E7A1892B04B1
:104D1000891B13FA81F14A4608232046009117F0B7
:104D200028FD78B16946204617F04EFD08F10108CC
:104D3000009908234A4620461FFA88F817F019FD03
:104D40000028DAD00135D3E753450BD10099082369
:104D50004A46891B204617F00CFD18B969462046C3
:104D600017F032FD69462046FFF722FF054618B1CD
:104D7000384615F0ABFC8AE7009B63604FEA1348A6
:104D80004FEA0848C4F80880D4E9011399420FD3C8
:104D9000082301AA204617F0DEFC05460028E7D1CB
:104DA00001AB13F8012B914533D10135082DF8D112
:104DB00063681B0C1B0469462046009317F004FD32
:104DC000A38900994A46204617F0D3FC051ECFDB85
:104DD000636876D006EB03084FF6FF79A389CDF818
:104DE00000801FFA88F29B1B9A422ED30023616831
:104DF000002B43D0090C090400912046694617F0A6
:104E0000E3FC0099204617F0ECFC0546002D74D019
:104E1000AEE701A9204617F010FD626810B9921B99
:104E20006260B1E7BDF80850BDF80610E06AC4F84A
:104E30000880294417F0F7FC40449042A060EED16E
:104E4000002DECD06FF01C0568E0082303AA414652
:104E5000204617F080FC0546002889D103A920468A
:104E600017F0EBFC30B1BDF80C304B4502D1BDF86A
:104E700010300BB1B044B1E70123B8E7204617F07A
:104E8000B0FC054600287FF473AF6368264AA18909
:104E900013400B44A3EB460363601340A36020461A
:104EA00017F0B4FDB1E75B1A4A46204617F061FCE3
:104EB000051EFFF65DAF08D0E26AA36812681344CE
:104EC000A360D4E901318B42EDD86168A38901EB7D
:104ED00046029A429AD1DFF85080A26801EA08039C
:104EE0009A4293D0204617F07CFC054600287FF4B8
:104EF0003FAF636803EA0803A360A389A288A3EB1A
:104F000046039A4206D0384615F0E0FB012323748D
:104F10000025BCE6204617F062FD0546384615F030
:104F2000D5FB002DF2D0B2E60000FFFF014B03607D
:104F300000207047B877020070B544690D46002C18
:104F40003FD0244A2379565CB3423DD0224A525C7A
:104F50009A423CD1A3689847002814DA022D10D059
:104F6000032D0FD110F1860F0BD0BFF35B8F54E8E8
:104F7000003F43F0020344E80032002AF7D1BFF3B8
:104F80005B8F267170BD022D267101D00020F9E7DC
:104F9000BFF35B8F54E8003F23F0040344E8003282
:104FA000002AF7D1BFF35B8FBFF35B8F54E8003F5C
:104FB00023F0020344E80032002AF7D1BFF35B8FED
:104FC000E4E76FF05700DDE76FF07700DAE76FF0A6
:104FD0008500D7E7568802005288020070B5114B51
:104FE0001C680D46DCB1104B196800238B4202DBB4
:104FF0006FF0010070BD224612F8106B864202D09D
:1050000001331446F2E7E06810B96FF01200F1E7DF
:1050100021F0DCFC0028F8D02C600020EAE76FF0DB
:105020000C00E7E7F80300206478020070B588B050
:1050300005460C46C0B269461646FFF7CFFF00286A
:105040001BDB0098C8B1436802938368226801950E
:10505000CDE903360023CDE906230593C56817F093
:1050600000FF6DB12846084901AA20F0BAFE079852
:1050700008B9059B236008B070BD6FF01500FAE712
:105080006FF01200F7E700BF65CE01001FB50724DF
:105090000294044C0194BDF8184000941BF078FF72
:1050A00004B010BD160800202DE9F0410F4B1C681C
:1050B00005460E461746ACB14FF0FF324FF0FF33B6
:1050C0000B4815F083FA63683246D3F80880294606
:1050D0003B462046C0470446054815F0F7FA2046EF
:1050E000BDE8F0816FF00104F9E700BF201900204E
:1050F0000809002000230360044B5A6812B9C3E971
:105100000000704710605860704700BF24190020ED
:10511000014B1860704700BF2019002030B585B0E2
:1051200000230546CDE9023301904FF0FF330C48D0
:105130004FF0FF3215F04AFA0A4B1C684CB928466A
:1051400000F04EF80446064815F0C0FA204605B0B7
:1051500030BD636820461B6801A998472468EDE7C5
:105160000809002024190020024B0022C3E9002274
:10517000704700BF241900202DE9F74307460C466D
:1051800009B100230B60134DDFF84C9000264D450C
:105190001BD91248942117F0C0F9D5F8008001AA54
:1051A0004146384617F0A3FE50B116B954B92E4601
:1051B00006E031680022404617F099FE0028F5D13C
:1051C0001435E4E7019B2360F1E7E6D3304603B0F2
:1051D000BDE8F083D8740200787502008788020069
:1051E000F8B5104C104F06460025BC4216D90F48A2
:1051F000F42117F092F92EB9E3685BB9284614340C
:105200000546F2E720680022314617F070FE0028BC
:10521000F2D1F3E79847002DF0D1F0E7EBD3284621
:10522000F8BD00BFD87402007875020087880200BC
:1052300038B50C4D0C484FF0FF334FF0FF3215F0EE
:10524000C5F92B783BB917F050FE00F06DF8044615
:1052500010B901232B700024034815F037FA2046BB
:1052600038BD00BFC7310020080900202DE9F047F4
:10527000048FDFF8B0A0013498B006468946A4B286
:1052800000F10807651EADB2B5F5004F47D04A23BF
:1052900005AA2946384617F0B9FD04F57F543F3476
:1052A000A4B28046214601230DF10B02384617F0C7
:1052B000ADFDB8F1000F014610DC002810DC338F83
:1052C000AB4209D132466B1E22F8383F4FF4004101
:1052D0000223384617F067FC2C46D3E7002808DC89
:1052E0002946384617F02EFD2146384617F02AFD8C
:1052F000E5E708F160030DEB0308002308F84C3CD8
:105300005246CDF8009003AB05A80397ADF81040C6
:1053100017F023FE0028DFD018B0BDE8F08700208A
:10532000FAE700BFC9CF01007FB5012569462846CD
:105330000195FFF753FE044660BB02AA01A9284667
:10534000FFF774FE044610B110F10C0F22D103993F
:10535000B1F5803F23D2009A002394681846084490
:1053600084421AD30133082BF9D10E4DA982EB8266
:105370005368AB602846D368EB6317F0BDFE044664
:1053800040B9094E6E602846FFF7B4FE28466E60AD
:10539000FFF7BEFE204604B070BD9BB2E5E76FF09C
:1053A0002004F7E72C190020C4030020F8B5026898
:1053B00003460AB14268CAB90E485D2117F0ADF83C
:1053C00005FA00F25C68BFF35B8F54E8006F46EAB1
:1053D000020744E8007CBCF1000FF6D1BFF35B8FFD
:1053E000324202D001308842EAD1F8BD00200125C6
:1053F000F9E700BFB9880200F8B50C78012C064621
:105400000D4616D0022C19D0DCB90F4F0A213846B0
:10541000FFF7CCFF092802D96FF00B00F8BD3B68FD
:1054200003EB800030600422294619F066FC204618
:10543000F4E706480021FFF7B9FFEDE70448002133
:10544000F9E76FF01500E9E7E00300207419002088
:105450006C19002008B5094B984203D303F13802B8
:10546000904203D30648A52117F057F8C01A054B00
:10547000C1085868BDE8084017F073BE80190020C5
:10548000B9880200D803002013B500220192044617
:10549000E8B10268DAB1D1B14268C3689A4219D260
:1054A00001A8FFF7A9FF80B9D4E900135A1C626074
:1054B00014225343094CCC50CA18094BC2E901309D
:1054C000019BD3604FF48033136102B010BD6FF0C5
:1054D0001500FAE76FF01B00F7E700BFB28002008B
:1054E000C70D02002DE9F3470023894615460193B5
:1054F000044600284BD00368002B48D0002A46D031
:105500004368C2680233934244D8254E072130468F
:10551000FFF74CFF062807463FD8D6F800A02968B9
:105520000AEBC00801A8FFF767FF064630B1404606
:10553000FFF790FF304602B0BDE8F087DDF804E0E9
:105540004AF837E0A8F8040088F80690D4E9000388
:1055500014215A1C4B43134F6260C750C218124BA0
:10556000C2F80C80C2E901364FF480331361D4E9EC
:1055700000835A1C62602C4601FB03FC0FCC08EB35
:105580000C070FC723683B6048F80CE0D2E76FF0C8
:105590001506CFE76FF01B06CCE76FF00B06C9E7E7
:1055A000D8030020AE800200F90F0200F7B50023F7
:1055B0000C460193054620B96FF01506304603B03E
:1055C000F0BD0368002BF7D00029F5D017492068FB
:1055D00019F085FC0028EFD01549206819F07FFCF0
:1055E0000028E9D01349206819F079FC0028E3D09D
:1055F0006A68EB689A4216D2216801A8FFF7FCFEA0
:1056000006460028DAD1D5E900C77B1C6B6014235D
:105610005F430FCC0CEB07050FC523682B60019B84
:105620004CF80730CAE76FF01B06C7E7B2800200EC
:10563000AE800200AA80020030B5B8B10568ADB1F5
:10564000A1B19AB14368C468A34212D25C1C446001
:1056500014204343EC180848606008486282C4E99B
:105660000201074A00202082EA5030BD6FF0150089
:10567000FBE76FF01B00F8E7190E020031B90000DC
:10568000AA80020038B504460D4619B91421104805
:1056900016F043FF08B91521F9E74FF0FF33806892
:1056A0004FF0FF3217F071FD63685BB923684BB9A7
:1056B000E06800220023214614F0F0FE10B92068B3
:1056C000656038BDA06817F062FD0020F9E700BFF3
:1056D000E688020038B504460D4619B93B21114849
:1056E00016F01BFF08B93C21F9E74FF0FF33806843
:1056F0004FF0FF3217F049FD63689D420BD12168DE
:10570000E068002514F00EFFA068C4E9005517F00A
:105710003EFD284638BDA06817F039FD6FF0150032
:10572000F8E700BFE688020038B504460D4619B90F
:105730006F210B4816F0F1FE08B97021F9E74FF020
:10574000FF3380684FF0FF3217F01FFD63689D4202
:1057500001D1206838BDA06817F019FD0020F9E7D5
:10576000E688020010B5044618B987210A4816F0E9
:10577000D4FE09B18821F9E780684FF0FF324FF07D
:10578000FF3317F002FD204664681CB9806817F0EB
:10579000FEFC204610BD00BFE688020008B518B91F
:1057A0009921084816F0B9FE31B99A21F9E7BDE808
:1057B0000840806817F0EBBC03689942F7D0A62137
:1057C000EFE700BFE68802002DE9F74F012819BF77
:1057D000204D214C214D224C0C9E994613681746B2
:1057E0002A1BB3EBA20F884630D3042200210DEB15
:1057F000020019F08DFA4FF0000AAC42A34609D31B
:105800000422C7F800A00DEB0201304619F075FA2A
:10581000002018E004220021304619F079FADBF864
:1058200000303246494608EBCA000434984740B974
:105830003368019A9A422CBF019201930AF1010A3E
:10584000DBE7831CD9D003B0BDE8F08F6FF0150003
:10585000F9E700BF70A9020064A9020070A9020064
:1058600070A90200024B0348C01A8010704700BFA5
:1058700064A9020070A90200024B0348C01A8010FC
:10588000704700BF70A9020070A90200074A09789A
:10589000137841B143F00203137040F20113038007
:1058A00042600020704703F0FD03F5E71D0800206B
:1058B0000B7810B504465BB119F03EFD064A6260F4
:1058C000030A537040F2192310702380002010BD8A
:1058D0006FF00100FBE700BFC831002038B5054676
:1058E00019B93A21154816F018FE08B93B21F9E715
:1058F000D0F8E400FFF7C6FE0446E0B1D5F8E43086
:10590000DB6800215A6919F003FA2346012203F8E3
:10591000202BC4E9053395F84C201AB195F83F20A7
:105920001344A361A369E361D5F8E4002146FFF7BE
:1059300035FF002038BD6FF00B00FBE71289020035
:1059400008B519B96821064816F0E7FD08B96921BC
:10595000F9E7BDE80840D0F8E400FFF7BBBE00BFA0
:10596000128902002DE9F043B1F85030B3F5007F01
:1059700087B004460D4600F2C9814B6DC0F8D030A7
:105980008B6DC0F8D83000238DF8043001A941F6A2
:105990001203ADF80630FFF777FD20B140F28731F2
:1059A000BC4816F0BAFD42F64E23ADF80230BA4BB1
:1059B0000293BA4B039304F1D0038DF800000493D3
:1059C00001AA4FF4402306212046CDF804D00593C8
:1059D000FFF788FD074610B140F28A31E0E795F8FD
:1059E0004030012B02D940F2F321D9E704F110082D
:1059F0004022291D404619F080F994F84C30002BC4
:105A000055D094F841608DF8007042F64D2316F0A1
:105A10001506ADF80230A24BCDF804D008BF04261D
:105A2000122101AA2046CDE90237CDF81080ADF849
:105A30001470ADF81660FFF755FD4FEA46090146B0
:105A400010B14FF44371ABE7636884F84000013B49
:105A500084F83E3084F83D002C22404619F058F975
:105A6000904B236346EA0902D2B241462046FFF733
:105A7000E3FD10B140F2163192E742F60813ADF89B
:105A80000230894B8DF80000CDE90230ADF81400EA
:105A900004F13C0301A92046CDF804D00493ADF8ED
:105AA0001660FFF783FD10B14FF4467178E795F863
:105AB000443013B140F2223172E7042205F144016F
:105AC00004F1500019F019F995F8487017B14FF426
:105AD000547165E7042205F1480104F1C80604F198
