:020000040000FA
:10000000D81000206D050000B5270000590500003C
:1000100059050000590500005905000000000000C6
:1000200000000000000000000000000021060000A9
:1000300059050000000000005905000059050000A6
:1000400000000000000000000000000000000000B0
:1000500000000000000000000000000000000000A0
:100060000000000000000000000000000000000090
:100070000000000000000000000000000000000080
:100080000000000000000000000000000000000070
:100090000000000000000000000000000000000060
:1000A0000000000000000000000000000000000050
:1000B0000000000000000000000000000000000040
:1000C0000000000000000000000000000000000030
:1000D0000000000000000000000000000000000020
:1000E0000000000000000000000000000000000010
:1000F0000000000000000000000000000000000000
:1001000000000000000000000000000000000000EF
:1001100000000000000000000000000000000000DF
:1001200000000000000000000000000000000000CF
:1001300000000000000000000000000000000000BF
:1001400000000000000000000000000000000000AF
:10015000000000000000000000000000000000009F
:10016000000000000000000000000000000000008F
:10017000000000000000000000000000000000007F
:10018000000000000000000000000000000000006F
:10019000000000000000000000000000000000005F
:1001A000000000000000000000000000000000004F
:1001B000000000000000000000000000000000003F
:1001C000000000000000000000000000000000002F
:1001D000000000000000000000000000000000001F
:1001E000000000000000000000000000000000000F
:1001F00000000000000000000000000000000000FF
:10020000DEE61E284CBBCE8F023400003C0000000E
:10021000CC300000010000000000000000000000E1
:10022000FFFF02910000000000000000000000003D
:1002300000000000000000000000000030B44FF09B
:10024000000310F8014B11F8015B013A84EA050440
:1002500043EA0403F5D1A3F101034FEAD37030BCA4
:10026000704700BF4FF0000310F8012B013943EA3B
:100270000203F9D1A3F101034FEAD370704700BF25
:1002800030B411F8014B12F8015B6C4000F8014BDF
:10029000013BF6D130BC70472DE9F043DFF83890D0
:1002A000DFF8388085B00746002601AD98E80700E2
:1002B00059F8044B3C4485E807000C2229462046A7
:1002C00002F08FFA00B91CB90136072EEED10024D6
:1002D000204605B0BDE8F083702E0000242E0000FB
:1002E000014802F09BB800BF8C2E000030BFFFF722
:1002F000FDBF00BF134B9A6A12F0007F9A6A14BFC9
:100300001E201D2012F0807F9A6A18BF1F2012F451
:10031000002F9A6A18BF212012F4802F9A6A18BF02
:10032000222012F4003F9A6A18BF232012F4803F63
:100330009A6A6FEA02426FEA12429A6218BF242058
:10034000704700BF00ED00E010B5184B0246986AF8
:100350009C6A10F4805F14BF1720162014F4006FFD
:100360009C6A18BF1820A40508D5986A000404D513
:100370001AB19A6A22F400429A6219200B4B9A6AC7
:1003800012F4806F9A6A18BF1A20D2050CD49B6AA7
:1003900013F4005F18BF1C20044A936A43F47F43A0
:1003A000936200230B7010BD1B20F5E700ED00E009
:1003B00010B51C4B0246986A9C6A10F0100F14BFCF
:1003C0001120102014F0080F9C6A18BF1220A407F7
:1003D00009D5586B986A000604D51AB19A6A22F0BA
:1003E00080029A6213200F4B9A6A12F0010F9A6AE8
:1003F00018BF142012F0200F9A6A18BF1520D406D7
:1004000058BF9B6A074B9A6A920642BF5A6A22F407
:1004100000525A629A6A42F0FF029A6200230B70FD
:1004200010BD00BF00ED00E070B5444B5B688AB0C2
:100430000646C3F30803002585F31188BFF36F8FC9
:1004400002F07F40B0F17F4F11D102F00C0008287C
:100450000DD010074CBF0E4601250022033B8DF83E
:100460000720032B05D8DFE803F01E5C60592E46F9
:10047000F3E700249DF807309BB92022314602A8FB
:1004800002F0BFF9099B002D53D0C3F3080222B933
:100490006FEA53236FEA4323099302A9204602F02F
:1004A0007FF90AB070BD254BDA6A9107E1D4DA6AA8
:1004B000002ADEDBDA6A5200DBD55A69B16942F400
:1004C00080725A61BFF34F8FBFF36F8F5A6931F853
:1004D000021C22F480725A61BFF34F8FBFF36F8FFB
:1004E0004DF60272914209D09A6AD2B242B10DF130
:1004F00007010120FFF75CFF0446BBE73468B9E75A
:100500009A6A12F47F4F05D00DF107010120FFF721
:100510001BFFF1E79B6AB3F5803FAAD3FFF7EAFE22
:10052000EAE70DF107010020E4E70DF107010020E3
:10053000EDE723F4FF7323F00103ADE700ED00E0E6
:10054000044B5A6942F010025A615A6922F00802BB
:100550005A61704700ED00E0EFF30880EFF3098186
:1005600001B57246FFF760FF01BD00BF002080F3B8
:100570001488BFF36F8F00F0A3FB00200D490860C3
:10058000BFF34F8F0C4880F3088800F019F8202043
:1005900080F3118809484FF40061401880F30988FE
:1005A000EFF314800221084380F31488BFF36F8FA8
:1005B00000F046F894ED00E0D8100020D8000020AC
:1005C00072B6002383F31388144B4FF0FF32C3F845
:1005D0008020C3F88420C3F88820C3F88C20C3F897
:1005E0009020C3F89420C3F89820C3F89C20C3F847
:1005F0008021C3F88421C3F88821C3F88C21C3F873
:100600009021C3F89421C3F89821C3F89C2162B6C5
:10061000BFF34F8FBFF36F8F704700BF00E100E063
:100620001EF0040F0CBFEFF30880EFF3098081691F
:1006300011F8021C0229FFD001B502F0B7F801BD84
:10064000144A08B5144B22F07F029A60BFF34F8F13
:10065000BFF36F8FD3F8882022F47002C3F888208C
:10066000D3F8882042F4A002C3F888204FF040421B
:10067000C3F83422BFF34F8FBFF36F8F0023E1EE37
:10068000103A00F023FC00F065FC00F029F800F0BF
:1006900029FC00BF0000000000ED00E080B5154619
:1006A00006460C460022E1EE102A074F87F3098820
:1006B0004FF0000005498847204629461A46B047B2
:1006C00003488047FEE700BFD8100020C527000080
:1006D000D3270000014B10221A61704700ED00E0A3
:1006E000044800232021C2180133302B82F8001364
:1006F000F9D1704700E100E0044A0123C2F8403517
:100700004FF080420020C2F87835704700E0014089
:1007100030B50C490C4D0B680246002405EB031064
:10072000D0F80808C0B218B904B10B60002007E087
:100730000133072B4FF00104F0D90B606FF01B0061
:10074000136030BD6000002000E0014038B54FF478
:10075000805104464FF4A04002F0A6F8002859D179
:100760004FF080424FF0FF33C2F80833BFF36F8F72
:1007700072B6294AC2F88030C2F88430C2F8883094
:10078000C2F88C30C2F89030C2F89430C2F8983079
:10079000C2F89C30C2F88031C2F88431C2F8883186
:1007A000C2F88C31C2F89031C2F89431C2F8983155
:1007B000C2F89C314FF0E0231861D3F8042D42F0C9
:1007C0000072C3F8042DD3F8242D22F4E02203F59F
:1007D00050635A62EFF31482920707D5EFF3148245
:1007E00022F0020282F31488BFF36F8FBFF34F8FA2
:1007F000BFF36F8FA2699A6001212046A56900F0BE
:10080000CDF938B12B6883F30888002383F3098876
:100810006B68984738BD00BF00E100E0024B012241
:10082000C3F80025704700BF00A00250024B002211
:10083000C3F80025704700BF00A0025070B5094DF5
:100840002B780BB1002070BD074C0126C4F8006561
:1008500000F07CFD18B92E70C4F80005F2E76FF0C7
:100860000D00F0E7D000002000A0025090B5B1F1DB
:10087000005F83B002AF1FD2BBB16C46ADF5007D07
:1008800002AB00934FF4007302F08BF8A5460E4BB9
:10089000984213D00A33984213D00C3B984208BFB9
:1008A0006FF015000437BD4690BD084B00934FF420
:1008B000004302F076F8EAE70023F7E76FF015004F
:1008C000F0E76FF08500EDE70202F000D81000209D
:1008D00008B500F099FC034B984208BF6FF0150073
:1008E00008BD00BF0002F0001FB5084A044607CA51
:1008F00001AB83E807000C221946204601F071FF86
:1009000000280CBF2046002004B010BD302E00008F
:1009100070B5064E0546002456F8040B2844FFF730
:10092000E3FF10B90134072CF6D170BD942E0000FE
:100930002DE9F04F804689B01046D2F80C90176927
:100940000E4614469A46FFF7CFFF18B9002009B0AB
:10095000BDE8F08FA3694345F8D1BAF1000F01D18A
:100960004645F3D13046FFF7D3FF8442EED1226AE9
:10097000464B9A42EAD10DF10E0002F098F8002899
:1009800042D00023ADF80E302569B5F5F82FDDD83B
:10099000E3689D42DAD314EB0909D7D2BB19D5D24B
:1009A000A642D3D8A342D1D909F1FF394E45CDD8BB
:1009B0004B45CBD917EB0807E3692CBF4FF0010972
:1009C0004FF00009C2D24345C0D3BB42BED233442C
:1009D000A3EB08035B684345B8D3BB42B6D23544AA
:1009E000DFF8B48005F1050B04AF98E8070087E84D
:1009F00007000C223946284601F0F3FE00B94DB934
:100A000001355D45F1D1A1E76269BDF80E309A422A
:100A10009CD3B9E7EA68A3699A4297D1D4F810B099
:100A200001F079FF002891D102F064F80446002813
:100A30008CD1174A174BBAF1000F0CBF904698465D
:100A400002F054F8844281D23946204602F07BF805
:100A5000102804D016307FF479AF0134F0E7CDF8D8
:100A600000B0334605F17002394605F13000C04749
:100A700048B94C4501D1012069E7484600F032F8F9
:100A800009F10109F5E76530E5E700BFFFFF0291D5
:100A900025290000372900003C2E00004FF4A04318
:100AA0001B6B984216D21423434345F23402D158AB
:100AB0000A4A0B4B42EA00628A4243EA006309D0C9
:100AC0008B4209D0002383F31188BFF36F8F042377
:100AD000184602DF00207047012070470000FA50DE
:100AE000FFFFFA5010B50446FFF7D8FF48B11420B5
:100AF00045F2340300FB04300249BDE8104000F029
:100B0000A7B910BD0000FFFF2DE9F0432148224F97
:100B100085B002F0D1F81F4BD3F838800446002688
:100B200001ADB04503D8002005B0BDE8F08397E8DB
:100B30000700636AD3F8009085E807000C22294675
:100B4000484601F04EFE98B9B9F1000F10D0636A23
:100B500021691B681A6991420AD19A69A169914277
:100B600006D8E169914203D962695B699A4309D069
:100B7000236A5BB1002383F31188BFF36F8F0423D3
:100B8000184602DFE36801361C44CAE7626A136054
:100B9000F8E700BF00020000482E00002DE9F04FEA
:100BA0000F4687B00646A0B302F086F84FF0000863
:100BB0000446B36B43454ED9DFF8C0B04FF000098F
:100BC0005BF8043B0093294B4FF0000A53F8045B99
:100BD0000193009B1D44264B93E8070003AB83E879
:100BE000070019460C22284601F0FBFD019B00B9C5
:100BF0009DB90AF1010ABAF1070FE7D11D4B09F1BE
:100C000001099945DCD317B1636A00221A60236A8F
:100C100033B3002007B0BDE8F08F2B6A164A934229
:100C2000ECD1AE42EAD0696B05F13C038842E5D0D5
:100C300025691A6995420AD19A69A569954206D82B
:100C4000E569954203D962695D69AA4305D0DA680E
:100C500001301344EAE70120DCE70FB1626A136058
:100C6000E36808F101081C44A3E700BFB02E0000B0
:100C7000542E000001000000FFFF029164300000CC
:100C8000026A044B9A4203D10349203000F0E0B8D5
:100C9000704700BFFFFF02910000FFFF4FF080533D
:100CA000D3F83021082A06D1D3F83431052B02D8E5
:100CB000024AD05C70470020704700BF5D300000E2
:100CC00008B54FF08053D3F83021082A4ED14FF0A9
:100CD00080420021C2F80C11C2F81011C2F8381578
:100CE00002F54042D3F80414C2F82015D3F80814D2
:100CF000C2F82415D3F80C14C2F82815D3F8101430
:100D0000C2F82C15D3F81414C2F83015D3F81814FF
:100D1000C2F83415D3F81C14C2F84015D3F82014C7
:100D2000C2F84415D3F82414C2F84815D3F828148F
:100D3000C2F84C15D3F82C14C2F85015D3F830145F
:100D4000C2F85415D3F83414C2F86015D3F8381427
:100D5000C2F86415D3F83C14C2F86815D3F84014EF
:100D6000C2F86C15D3F84434C2F87035FFF796FF1B
:100D700018B12B4B2B4AC3F88C26FFF78FFF18B105
:100D8000294BFB22C3F81825FFF788FF70B14FF0FD
:100D900080414FF08053D1F8E42ED3F8583222F03E
:100DA0000F0203F00F031343C1F8E43EFFF776FF91
:100DB00020B11E4B4FF40072C3F840264FF0805311
:100DC000D3F83031082B09D14FF08043D3F80024F9
:100DD000D20744BF6FF00102C3F80024144AD2F8CE
:100DE000883043F47003C2F88830BFF34F8FBFF3ED
:100DF0006F8F4FF08053D3F83021082A0ED1D3F8EB
:100E00003431052B02D80B4AD35C3BB14FF0102391
:100E1000D3F808224FF08043C3F8582508BD00BF1F
:100E2000005000404881030000F000400090024064
:100E300000ED00E057300000044AD2F80034DB0730
:100E4000FBD50160BFF35F8F704700BF00E001403A
:100E500010B5054C0123C4F80435FFF7EDFF00235E
:100E6000C4F8043510BD00BF00E0014038B5094B9F
:100E700053F82040013053F82050A54200D838BD27
:100E8000636823B1204601F072FF0834F5E7236858
:100E90009847FAE7CC2E000008B50A4B0122032040
:100EA0001A70FFF7E3FF01F07FFF01F07CFF0420E1
:100EB000FFF7DCFF01F046FC034A137B23F001033C
:100EC000137308BDD10000206400002008B503485A
:100ED000034A0021121A01F062FF08BD60000020E1
:100EE000D400002008B50020FFF7C0FF164B83F3A5
:100EF0000888164C636943F4007363610025E0239E
:100F000084F82230E57725766576A57684F820503A
:100F1000636A43F4E023636284F82350FFF710FB15
:100F2000FFF7D8FB4FF0FF33A362E36201F03DFF10
:100F30000120FFF79BFF0220FFF798FF04482B4694
:100F40002A462946FFF7AAFBD808002000ED00E05A
:100F5000990E000008B50648064A0749121A01F022
:100F600020FFBDE80840054A0549064801F019BFC1
:100F70000000002060000020683000000000000039
:100F8000683000000000002030B10268034B0448C4
:100F90009A4208BF0020704702487047DD55AABB3F
:100FA0008208F0007108F00038B50D460446B0B173
:100FB000A0220021043001F012FF95B10822294639
:100FC00004F1640001F011FF082205F1200104F191
:100FD000840001F00AFF044B2360002038BD034861
:100FE000FCE70348FAE700BFDD55AABB7108F00033
:100FF0008308F0002DE9F74305460E469946114651
:10100000FFF7C2FF0446002840F08480002E00F065
:101010008580002900F08480B9F1200F40F08280A3
:1010200005F14404082205F10408204601F0DDFE24
:1010300005F1240708223146404601F0D6FE06F1AC
:1010400020010822384601F0D0FE02A94FF480703A
:1010500041F8049D01F0BDFE002865D1334A4FF4EC
:1010600080731360012193600823314A00F02EFB46
:101070000121084605232F4A00F028FB0823424699
:1010800001211C2000F022FB08233A460121032005
:1010900000F01CFB224608230121022000F016FB71
:1010A0000823254A01211A2000F010FB0523234ABA
:1010B00001211B2000F00AFB0823214A01211420F2
:1010C00000F004FB08231F4A0121152000F0FEFA5E
:1010D000082305F164020121162000F0F7FA082325
:1010E00005F184020121172000F0F0FA0823164AC6
:1010F00001210B2000F0EAFA00F044FB04460198BD
:1011000000F0D2FA114B002C18BF1C46A42128462F
:1011100001F067FE204603B0BDE8F0830C4CF9E710
:101120000C4CF7E70C4CF5E7084CEFE790B0025099
:10113000242F00009C2F0000E42E0000882F0000C8
:10114000482F0000682F0000042F00008408F000E2
:101150007608F0008008F0008108F0000C4BC269AE
:101160001A60826943F8042C426943F8082C02692A
:1011700043F80C2CC26843F8102C826843F8142CF6
:10118000426843F8182C026843F81C2C704700BFD3
:101190005CB602500C4B1B68C3610C4B1B6883612F
:1011A0000B4B1B6843610B4B1B6803610A4B1B68AD
:1011B000C3600A4B1B688360094B1B684360094B83
:1011C0001B680360704700BF5CB6025058B60250FF
:1011D00054B6025050B602504CB6025048B60250B7
:1011E00044B6025040B6025030B10268034B044886
:1011F0009A4208BF0020704702487047DD55AABBDD
:101200000202F0000002F00038B5044668B1051D86
:101210007021284601F0E5FD28462022044901F00E
:10122000DCFD044B2360002038BD0348FCE700BF11
:10123000B02F0000DD55AABB0002F0002DE9F043FD
:10124000284B04460E4615460FCB85B06F4687E8FF
:101250000F002DB94FF00009484605B0BDE8F083F6
:101260002046FFF7C1FF81460028F5D1231D0193D9
:10127000636AA3BB236F8BB1C3F14008A84528BFA5
:10128000A84604F1300031461844424601F0A5FD5D
:10129000236F434446442367A5EB0805226F402A89
:1012A00006D104F13001384600F0AEFB002323677D
:1012B00005F03F0835F03F0505D031462A4638464F
:1012C00000F0A2FB2E44B8F1000FC3D042463146D5
:1012D00004F1300001F081FDC4F87080BCE7DFF854
:1012E0000890B9E7602E00000C02F0002DE9FF41E4
:1012F000144B04460E460FCB6F4687E80F0020467E
:10130000FFF772FF8046B0B9CEB1636A251D019523
:101310003BB901236362226F04F13001384600F0CB
:1013200073FB2B46043E243453F8042B12BAA34219
:1013300046F8042FF8D1404604B0BDE8F081DFF84C
:101340000880F8E7602E00000502F000084B1B68DB
:101350001B0EF02B08D1074B1A68074B9A4205D198
:10136000064B002018607047052070470620704724
:1013700028B9025024BA02500000E0200CBA0250F2
:10138000002230B549001346023840F6FC7502F1E0
:10139000A05404F52C44A400904202F10102CABFFB
:1013A000236025605B181E2AF1D1044A13600B44A8
:1013B0005360034B034A1A6030BD00BF78B002503F
:1013C00084B0025020F80F0030B51E4B85B01A468D
:1013D000196800910099CC07FAD500F1A05000F5EA
:1013E0002C408000016813680193019BD807FAD54F
:1013F000154B164C1868164D1F30202390FBF3F048
:101400000138002810DA00230130400153B1A0F167
:1014100020014FF00042134204D1013888424FEAC4
:101420005202F8D105B030BD13680393039BDB076C
:10143000FAD5431823602B680293029B002BE3D15B
:101440000138DEE7B4B00250ACB00250E4B0025054
:10145000DCB00250F0B51D6885B001F01F040DB975
:101460001F2C25D1154D2E462F680197019FFF0790
:10147000FAD500F1A05000F52C40800000683568D6
:101480000395039DED07FAD50D4D00EB6110286023
:101490000C48006802901F2C18BFC94302980FBF68
:1014A000106001F01F0100FA01F1116000211960C4
:1014B00010684300C00F136005B0F0BDB4B0025017
:1014C000E4B00250DCB002500C4B18603F3020F00A
:1014D0003F008901403058609960D96019615961B5
:1014E00099611C330648196082B002680192019A22
:1014F000D207FAD5196002B0704700BF90B0025011
:10150000B4B0025038B5A0F12003B3F5426F0546E0
:101510002CD88F2826D800F1470300F16604DB069B
:101520004FEA541400D0013464013F34A40901345B
:1015300011B1A1421AD30C46E3004FF48050B0FB26
:10154000F3F0202828BF202002B11060084B0122B0
:101550001A602146FFF714FF28462146FFF7B4FF23
:10156000002038BD00F11F046409DDE70148F8E7F9
:101570001CB802502221F000F0B5454B89B01D4641
:101580001C680194019CE407FAD5424BDFF80CE19A
:10159000DFF80CC113449B0000241A680B181E2BA3
:1015A00088BFC0F11E011F320B1852095343B3F517
:1015B000806F82BF4FF48061B1FBF2F1091A00F134
:1015C000A05000F52C402746A14233DC2B68049341
:1015D000049BDB07FAD5304B1B68296805910599F8
:1015E000CF07FAD52D4C2E49236000231E46934287
:1015F00003F1010040D120F00102294819460026DC
:101600008A423CD8296806910699CE07FAD5254921
:101610000968286807900798C007FAD52160204814
:1016200000210C468B422DD11D4900209A422CD816
:1016300009B0F0BD2B680293029BDB07FAD50319B2
:101640009B001B682E680396039EF607FAD5CEF81A
:1016500000300023934203F1010306D1164623F024
:101660000103B34204D80134AEE7CCF80070F1E7CF
:10167000CCF800700136F4E70E600346B7E7066069
:101680000131BDE704600131CCE708600133CDE7EB
:10169000B4B0025024AC00147CB00250D4B002505C
:1016A000D8B0025078B0025008B540B120280146A9
:1016B0004FF0070228BF20210020FFF75DFF024BFB
:1016C00000221A6008BD00BF1CB80250F0B5294DB9
:1016D00085B02C462E680096009EF607FAD500F1DC
:1016E000A05000F52C40800005682068019001980A
:1016F000C707FAD52048214F056002EB8306B242A6
:1017000029D15A1C1D4E22F0010200279A4227D8E7
:1017100023680293029BDE07FAD5194B0B449B000A
:101720001B681F335B099A4213D221680391039906
:10173000C907FAD5154400219B1A104A05600846CE
:101740008B4210D85A1C0D4922F0010200209A4207
:101750000CD805B0F0BD52F804CBC7F800C0CEE7F6
:1017600037600133D2E710600131E9E708600133E7
:10177000EDE700BFB4B00250D4B00250D8B0025070
:1017800024AC00142DE9F041814B1D68986820338A
:10179000A0B01E461A680192019AD707FAD57D4B70
:1017A0007D4A1A6032680292029AD407FAD57B4ABF
:1017B0001A607B4A1446116803910399C907FAD548
:1017C000784A1168C1F3402137680497049FFF07E6
:1017D000FAD5754F1F6027680597059FFF07FAD553
:1017E0001768002900F0CF80B90540F1CC8031683E
:1017F00006910699CF07FAD56C49196021680791BF
:101800000799C907FAD51168C1F3402137680897CD
:10181000089FFF07FAD5664F1F6027680997099F41
:10182000FF07FAD51268002900F0AF80910540F15A
:10183000AC8032680A920A9AD207FAD5564A1A60E0
:1018400032680B920B9AD707FAD55A4A1A60316858
:101850000C910C99CC07FAD55749196031680D9154
:101860000D99C907FAD55549196031680E910E993D
:10187000CF07FAD55249196031680F910F99CC07FB
:10188000FAD550491960504B1E46196810911099AD
:10189000C907FAD53F4C4D4B236033681193119B18
:1018A000DB07FAD54A4B236033681293129BDF079C
:1018B000FAD5484B23603A4B98461968139113990F
:1018C000C907FAD5324F386033681493149BDB078D
:1018D000FAD5226033681593159BD807FAD53E4B8D
:1018E000236033681693169BD907FAD53B4B2360C8
:1018F00033681793179BDA07FAD5394B236033689F
:101900001893189BDB07FAD5364B2360336819937D
:10191000199BD807FAD5344B236033681A931A9B66
:10192000D907FAD5314B236033681B931B9BDA0729
:10193000FAD52F4B236000F01DFC08BBD8F800300F
:101940001C931C9BDB07F9D53D6033681D931D9BE1
:10195000D907FAD5274B236033681E931E9BDA07FD
:10196000FAD5254B2360D8F800301F931F9BDB0767
:10197000F9D50C4B1B6813F4805F204B08BF184649
:1019800020B0BDE8F0811E48FAE71E48F8E700BF26
:1019900090B0025080B0025000100251C01F722956
:1019A000B4B0025088B00250C0CF0129C01F0E2928
:1019B000C03F002940010249003184A800001649B7
:1019C000400108A180440888B0B00250C04470882B
:1019D00080077A41C0077E4100006A4980061649A7
:1019E00040006E4900020021008220214082202117
:1019F0008082242140A161A100C861510308F10047
:101A00000108F1000208F1002DE9F74F314B44685D
:101A10008046924699461A68002AFCD12E4B9B4676
:101A20001A68002AFCD14FF0FF30019100F094FCBD
:101A3000802000F097FC294D294A2A4F2A4E012385
:101A400007202B60A2F59E72C2F83C011360636A06
:101A50003B60A36A3360D8F8003042F8043CD8F801
:101A60000830204698470199D9F80030002BFBD167
:101A7000BAF1000F20D11D4B04221A60D9F80030B2
:101A8000002BFBD1DBF800A0BAF1000FFAD1D8F897
:101A90000C30204698473B6863623368A362144B5E
:101AA000C3F800A0C3F844A1D9F80030002BFBD143
:101AB0002B6003B0BDE8F08F236A012B04BF0C4AF2
:101AC00013600C4B40201960C3F804A000F050FCD8
:101AD000D4E700BF10B9025020BC025018B8025021
:101AE00000B90250CCB70250D0B70250C8B702506C
:101AF00084B6025028BC025010B5544B98B0194619
:101B00001A680192019AD207FAD5514B514A1A60CC
:101B10000A680292029AD407FAD54F4A1A600A68F4
:101B20000392039AD007FAD54C4818600A680492C9
:101B3000049AD207FAD54A4A1A600A680592059AA9
:101B4000D407FAD5474A1A600A680692069AD2075D
:101B5000FAD5454A1A600A680792079AD407FAD557
:101B6000424A1A600A680892089AD207FAD5404A8F
:101B70001A600A680992099AD407FAD53D4A1A6090
:101B80000A680A920A9AD207FAD53B4A1A600A688A
:101B90000B920B9AD407FAD5384A1A600A680C924D
:101BA0000C9AD207FAD5364A1A600A680D920D9A35
:101BB000D407FAD5334A1A600A680E920E9AD207F1
:101BC000FAD5314A1A600A680F920F9AD407FAD5EB
:101BD0002E4A1A600A681092109AD207FAD52C4A37
:101BE0001A601A4B19461C681194119CE407FAD527
:101BF000174B1860086812901298C407FAD51A603B
:101C00000A681392139AD007FAD5124A1A600A6822
:101C10001492149AD207FAD51E4A1A600A681592CD
:101C2000159AD407FAD51C4A1A600A681692169AB1
:101C3000D007FAD5194A1A600A681792179AD2077C
:101C4000FAD5174A1A6018B010BD00BFB0B00250E4
:101C500080B0025000936521000431904096659059
:101C60000083612100C3302100C364900081619032
:101C700000461021008111210041442100C3202988
:101C80000C4610C80086312100C3602140C12829BC
:101C9000409665210013319040962529594614C875
:101CA0004004324910B5494B94B019461A68009265
:101CB000009AD207FAD5464B464A1A600A68019242
:101CC000019AD407FAD5444A1A600A680292029A25
:101CD000D007FAD5414818600A680392039AD207E0
:101CE000FAD53F4A1A600A680492049AD407FAD5D2
:101CF0003C4A1A600A680592059AD207FAD53A4A10
:101D00001A600A680692069AD407FAD5374A1A600A
:101D10000A680792079AD207FAD5354A1A600A6804
:101D20000892089AD407FAD5324A1A600A680992CA
:101D3000099AD207FAD5304A1A600A680A920A9AB2
:101D4000D407FAD52D4A1A600A680B920B9AD2076B
:101D5000FAD52B4A1A600A680C920C9AD407FAD565
:101D6000284A1A600A680D920D9AD207FAD5264AB7
:101D70001A600A680E920E9AD407FAD5234A1A609E
:101D80000A680F920F9AD207FAD5214A1A600F4BB0
:101D900019461C681094109CE407FAD50C4B186087
:101DA000086811901198C407FAD51A600A6812924F
:101DB000129AD007FAD5174A1A600A681392139A32
:101DC000D207FAD5144A1A6014B010BDB0B0025050
:101DD00080B0025080906521000409904096659083
:101DE00080806121802008218020649000816190A2
:101DF000004610210081112100414421802020292A
:101E0000024610C80086092180206021402128292F
:101E10004096652140962529594614C810B5504B67
:101E200096B01C461A680192019AD207FAD54D4B1A
:101E30004D4A1A6022680292029AD207FAD54B4A9A
:101E40001A604B4A42EA804022680392039AD20702
:101E5000FAD5186022680492049AD007FAD5454A48
:101E60001A60A2F5800242EA814122680592059A31
:101E7000D207FAD5196022680692069AD007FAD5D9
:101E80003D4A1A6022680792079AD107FAD53B4A61
:101E90001A6022680892089AD207FAD5384A1A605E
:101EA00022680992099AD007FAD5364A1A60226840
:101EB0000A920A9AD107FAD5334A1A6022680B921D
:101EC0000B9AD207FAD5314A1A6022680C920C9A02
:101ED000D007FAD52E4A1A6022680D920D9AD107C2
:101EE000FAD52C4A1A6022680E920E9AD207FAD5B9
:101EF000294A1A6022680F920F9AD007FAD5274A0A
:101F00001A60216810911099C907FAD51A60144B0C
:101F10001A46196811911199C807FAD5114B204931
:101F20001960116812911299C907FAD51D491960F3
:101F3000116813911399CC07FAD50B4919601168F0
:101F400014911499C807FAD51749196011681591A9
:101F50001599C907FAD5154A1A6016B010BD00BF09
:101F6000B0B0025080B00250400441900086292950
:101F7000D81001C840144190401421294014652113
:101F80000034409000310C90C0400C90C0302029AB
:101F900040960D9000416090031645C800861121BF
:101FA00000416021594644C84014459040142D908A
:101FB00070B5264888B0054604680094009CE60782
:101FC000FAD52348234C0460234C44EA83432C680D
:101FD0000194019CE407FAD50360930143EA82422D
:101FE00042F0104444F4C0442B680293029BDE0785
:101FF000FAD504602B680393039BDB07FAD5174BD4
:1020000003608B0143EA814141F0104343F4C04334
:102010002E680496049EF607FAD503602B68059394
:10202000059BDE07FAD5046041F058412B68069302
:10203000069BDC07FAD5016042F058422B680793F3
:10204000079BDB07FAD5026008B070BDB0B0025044
:1020500080B00250C02102298071009880611890E0
:10206000354B8EB019461A680092009AD207FAD5FD
:10207000324B334A1A600A680192019AD007FAD5A6
:10208000304A1A600A680292029AD207FAD52E4A9A
:102090001A600A680392039AD007FAD52B4A1A608D
:1020A0000A680492049AD207FAD5294A1A600A6883
:1020B0000592059AD007FAD5264A1A600A68069250
:1020C000069AD207FAD5244A1A600A680792079A34
:1020D000D007FAD5214A1A600A680892089AD207EE
:1020E000FAD51F4A1A600A680992099AD007FAD5E8
:1020F0001C4A1A600A680A920A9AD207FAD51A4A42
:102100001A6008680B900B98C007FAD51A600A6825
:102110000C920C9AD007FAD5144A1A600A680D92EC
:102120000D9AD207FAD5124A1A600E210D230F22FA
:1021300000200EB0FFF73CBFB0B0025080B002509C
:102140008043012940633921807001298020542176
:1021500000D13490C0403490C0302029C0530D903D
:1021600000413890832308C880E3102100413821C2
:10217000CF4308C82DE9F041012392B0CDE90333E4
:10218000624B1D461A680592059AD207FAD5604C33
:10219000604B2360604B19461A680692069AD7076F
:1021A000FAD55E4B1A68D60400F1A8802A68079217
:1021B000079AD007FAD55A4A22600A680892089A04
:1021C000D207FAD51E68C6F30036002E40F098807C
:1021D0001220FFF7F9F807461320FFF7F5F88742BA
:1021E0008CBF12201320FFF7EFF8471EFFF738FFD0
:1021F00003AB01AA39461220FFF72CF904AB804645
:1022000002AA39461320FFF725F900EB48000228FF
:1022100032D003283ED0012874D12B680993099B42
:10222000DB07FAD53F4B23602B680A930A9BD8073C
:10223000FAD53D4B23602B680F930F9BD907FAD536
:102240003A4B23602B681093109BDA07FAD5384B72
:1022500023602B681193119BDB07FAD5354B236064
:10226000013F25D51023192218210020FFF7A0FED9
:10227000304612B0BDE8F0812B680B930B9BD90759
:10228000FAD52D4B23602B680C930C9BDA07FAD5FB
:102290002A4BCFE72B680D930D9BDB07FAD5284B14
:1022A00023602B680E930E9BD807FAD5254BC1E708
:1022B00003AB01AA39461220FFF7CCF804AB044661
:1022C00002AA39461320FFF7C5F810EB440402D1E7
:1022D000FFF712FCC4E7FFF7E5FC022C08D0032C43
:1022E00009D0012C10D117211620FFF797FDB7E771
:1022F00015211420F9E70F210E20F6E7124EB7E75B
:10230000124EB5E7124EB3E7124EB1E7B0B002502D
:1023100080B0025000084A51B4B0025088B0025058
:1023200000084E5100065A4940065E4900044241E9
:102330000014424940042E490006524940065649BD
:1023400000063A4940063E490608F1000708F10038
:102350000408F1000508F100014B1860704700BF48
:1023600008BA0250014B1860704700BF04BA02500F
:10237000034A13681842FCD0024A1060184670479E
:1023800000BA025008BA025010B50A4C23681BB1BB
:1023900001232360002010BD00F048F80028F7D08A
:1023A0000138062803D8044B53F8200010BD034819
:1023B00010BD00BFB8000020D02F0000FE8FFFFF2F
:1023C000BFF34F8F0549064BCA6802F4E06213431E
:1023D000CB60BFF34F8F00BFFDE700BF00ED00E013
:1023E0000400FA0510B40A4B0A490B4C4FF0FE32B8
:1023F000C3F800244968C3F80424C3F80824C3F8C8
:102400000C240023C4F800355DF8044B084700BFD6
:1024100000B002500000002000A00250D0E90012DD
:10242000014BC3E9001270470000002038B500F0EE
:102430002FF820B1032400F063F8204638BD00F0E7
:1024400031F898B900F0ACF898B90F4DD5F82839A3
:102450001B0EF02B08D1D5F8242A0C4B9A420AD037
:10246000072400F017F8E6E70624FAE704242046DC
:1024700038BD0024F5E7012000F092F8044600285A
:10248000F7D1C5F80C0AD8E700B002500000E020F0
:102490000020704700207047014BC3F8040A7047C2
:1024A00000B0025010B5114800F048F800B110BD5E
:1024B0000F4800F043F80028F9D10E4C204600F0F8
:1024C0003DF80028F3D10C4B0C481C6000F036F8A6
:1024D00001460028EBD100F02DF8044608B1204653
:1024E00010BD00F03FF82046FAE700BF18000020BA
:1024F0001400002010000020080000200C00002024
:1025000008B5084800F024F8074800F021F807480B
:1025100000F01EF8064800F01BF8BDE8084000F087
:102520000BB800BF1800002014000020100000208D
:102530000C00002000207047704700BF08B5034B17
:1025400002681B6810689847002008BD3000002012
:1025500008B5034B02685B6810689847002008BD07
:102560003000002070B5094C094D2069AB689847D0
:1025700018B1084B08485B689847084AEB6820691F
:1025800000211160BDE87040184700BF1C0000200A
:102590003000002000000020EC2F0000BC000020D4
:1025A000F8B51A4D1A4E0446B26828699047E8B942
:1025B000184F3B684CB1A3B1012B19D0013B3B60D4
:1025C0002869F36898470020F8BD43B9124A0121F1
:1025D000C2F800151149D1F81029002AFBD10133A6
:1025E0003B60F368286998470020F8BD0C48F8BDA7
:1025F0000A4AD2F81039002BFBD1074A6FF07E400F
:10260000C2F80035FFF748FF3B68D7E71C00002001
:1026100030000020BC00002000A0025000B002509A
:10262000E98FFFFF10B5044650B1636813F0685F8F
:1026300005D0064A934202D000232360626010BD99
:10264000034B04485B689847EFE700BF2C5F5CA929
:10265000000000200C300000C8B143680D4A9342CE
:1026600013D013F0685F0ED0012350E8002F1946F5
:1026700040E8001C9CF0000FF7D1012AF5D0BFF311
:102680005F8F0020704704487047044870476FF41C
:10269000E04070472C5F5CA9E98FFFFFEA8FFFFFE6
:1026A00080B14368094A93420AD013F0685F05D0AD
:1026B000BFF35F8F002303601846704704487047DC
:1026C000044870476FF4E040704700BF2C5F5CA97E
:1026D000E98FFFFFEA8FFFFF10B5044620B1044BDE
:1026E00063600022226010BD0248FFF77BFEF6E720
:1026F0003A00003A34300000704737B50D460446C2
:10270000F0B10146806900F0E4F928B9204603B031
:10271000BDE83040FEF7B4BA0DF1060000F0C7F98D
:1027200010B10023ADF806306069BDF8063098425C
:1027300003D9294680B200F0A0F92046FEF706F83A
:1027400003B030BD70B54FF4A041002000F0ACF8EC
:102750000646D0B900F0C2F9044600F0C3F90546B8
:102760002046FDF799FD04462846FDF795FD0546F0
:1027700018B1626943699A4209D300212046FFF7E4
:10278000BCFF01212846FFF7B8FF002070BD0121E2
:10279000FFF7B3FF31462046F5E77047FEE7704785
:1027A000012801D1EFF3058300F0D2BA0146006899
:1027B000FFF7F6BF08B5FDF799FDBDE8084000F04A
:1027C00000B8704761B662B680F31188BFF36F8FAF
:1027D0007047EFF31180202383F31288BFF36F8FCC
:1027E000704710B55AB10139841810F8012B11F84F
:1027F000013FA04201D09A42F7D0D01A10BD104636
:10280000FCE710B5431E0A44914200D110BD11F8F7
:10281000014B03F8014FF7E7C9B202440346934264
:1028200000D1704703F8011BF9E773B5054601A80D
:102830000C461646FDF76CFF70BB4FF080531969CC
:10284000B5FBF1F201FB125242BB1969B4FBF1F284
:1028500001FB124212BB1A695B695343A3421DD3A9
:10286000E4B1019B1B0103F1804101F5F031C1F896
:102870000058C1F80448C1F80868D1F8002895420A
:102880000FD1D1F8042894420BD1D1F80838DBB22B
:10289000B34218BF6FF00D0002B070BD6FF01500AD
:1028A000FAE76FF00D00F7E70222FFF7BEBF2DE950
:1028B000F04190B004469DF85C60884615461F467E
:1028C00001463346402208A800F0C0F838B910226B
:1028D00008A94046FDF7B2FC20B96FF0640010B0C3
:1028E000BDE8F081169A33463946684600F0AEF8E6
:1028F0000028F4D12022334669460DEB020000F097
:10290000A5F80028EBD120212B4622460DEB010033
:1029100000F01CF8E3E708B500F016F808B900F07D
:1029200077F808BD13B500240194049C0094FFF7C8
:10293000BEFF02B010BD13B501240194049C0094A5
:10294000FFF7B5FF02B010BDFDF778BFF0B5ADB031
:10295000144606460F461D46FDF760FF33462146E6
:102960002A46009703A800F021FA0446FDF75EFF0F
:10297000A4F57003A3F676030E2B0DD8DFE803F061
:10298000080C0C0C0C0C0C0C0C0C08080C080E00A1
:102990006FF015002DB0F0BD2046FBE76FF065002D
:1029A000F8E72DE9F84F9A42154692468046894647
:1029B0001E4628BF9A46FDF731FFAB460027AF42BF
:1029C00005D30024FDF732FF2046BDE8F88F0A9BAF
:1029D00009EB070133B10AF10304A40800239C4268
:1029E0000FD10A9952464046FEF728FC04460028BB
:1029F000E8D1ABEB0A0B5E45B246374428BFDA4656
:102A0000DDE70A9A51F8230042F823000133E6E794
:102A1000FDF714BF38B504460D46FDF7FFFE294605
:102A20002046FEF763FC0446FDF700FFA4F57003A3
:102A3000A3F50073052B04D8252222FA03F3DB0744
:102A400001D4204638BD6FF01500FBE7F0B59FB00C
:102A5000044601A80D4616461F46FDF739FF50B93A
:102A60003B463246294601A8FDF700FF18B921462A
:102A700001A8FFF7CFFF1FB0F0BD37B505460C46E4
:102A800001200DF1060100F0B6F858B9BDF8063086
:102A900053B1B4FA84F1490941EA450189B20120F0
:102AA00000F0EEF803B030BD6FF01500FAE713B593
:102AB000044658B10DF10601012000F0DEF818B906
:102AC000BDF806305B08238002B010BD6FF0150022
:102AD000FAE70A4600230146FDF72ABF4FF4A04358
:102AE000986A70474FF4A043D86A70474FF4A043E8
:102AF000186B70472DE9F0414FF4A0473B6B102B4A
:102B00001BD845F2480500244FF6FF783B6B9C42EA
:102B100002D30020BDE8F0812046FDF7BFFF48B199
:102B2000A5F11006304600F000F9404508D0023605
:102B3000AE42F7D101341435E8E76FF01500E9E74C
:102B40006FF07000E6E770B504460D46FDF7A6FF8E
:102B5000C0B14FF4A0431B6B9C4216D2142345F224
:102B60003802002003FB042216582918002326FAF5
:102B700003F40833202B01F8014BF8D1043010285E
:102B8000F2D170BD6FF01500FBE76FF00D00F8E7B4
:102B900010B54FF4A04314221B6B45F2340402FB22
:102BA0000344204600F0C1F801280CBF2046002055
:102BB00010BD2DE9F0410746FFF7EAFF18B90024E0
:102BC0002046BDE8F081041D4FF00008861C304609
:102BD00000F0ABF84045F2D9A01C00F0A6F805467D
:102BE000204600F0A2F88742EAD0023504EB450403
:102BF00008F10108EBE710B50C46FFF7DAFF58B112
:102C000054B1023000F091F84FF6FF729042034643
:102C10004FF0000003D120806FF0150010BD23801D
:102C2000FCE72DE9F8430D461646FFF7C2FF0446C0
:102C300000B3FDB1023000F078F80027814604347B
:102C4000B846BBB2994507D8002406B13460A5F850
:102C500000800020BDE8F883204600F066F8C343FA
:102C60009BB20137A21C002BEFD0984538BF984685
:102C70001446E6E76FF01500ECE70022FFF7D1BF3E
:102C800037B50D4601AA0DF10201FFF7CAFF044650
:102C900048B9BDF80230AB4208D2019848B1E943C7
:102CA00089B200F032F8204603B030BD6FF0150451
:102CB000F9E76FF00B04F6E703463C305A6B00234C
:102CC0009A4200D17047C16801330844F8E7FFF722
:102CD0005BBB08B5FDF704FBFFF761FDBDE80840ED
:102CE000FFF752BB82B04FF0FF33019300F00300B7
:102CF00001AB03440A44914202D1019802B07047EB
:102D000011F8010B03F8010BF5E713B50222ADF83A
:102D100006100DF106010446FFF7E4FF014624F01A
:102D20000300FEF795F802B010BD20F00303820700
:102D30001B680CBF98B2180C7047EFF31183202367
:102D400083F31288BFF36F8FFEE708B5FFF7F5FF37
:102D500010B5EFF31184202383F31288BFF36F8F34
:102D6000FFF7F3FF84F31188BFF36F8F10BD10B529
:102D7000D0E9003433B90020E268537843F001030E
:102D8000537010BD204698470028F4D00028B8BFE3
:102D90004042E368FF28A8BFFF201870ECE7FFF768
:102DA0003BBDFFF72EBD7047704770472DE9F041DE
:102DB000069F044615461E46FEF7F6F838B93B4610
:102DC000324629462046BDE8F041FEF713B9BDE87A
:102DD000F0810A460021FEF795BBFFF712BDFFF711
:102DE0001BBD0A460021FFF717BD01EB8202043824
:102DF0008A4201D10020704752F8043D1BBA40F8C6
:102E0000043FF5E7F906000000000000CF2C0000A9
:102E100000000000D32C000000000000090B00009F
:102E200000000000DEE61E284CBBCE8F02340000FE
:102E3000DEE61E284CBBCE8F02340000DEE61E28E4
:102E40008384518602340100DEE61E28EAAC45B8D0
:102E500002340000DEE61E284CBBCE8F0234000098
:102E600002000000000000005D110000951100004C
:102E70000000000000020000000400000006000046
:102E800000080000000E000000100000000000001C
:102E90009D27000000000000000200000004000068
:102EA0000006000000080000000E000000100000F6
:102EB0000000000000020000000400000006000006
:102EC00000080000000E000000100000042E0000AA
:102ED000042E0000142E0000142E0000242E0000EA
:102EE000242E0000FFFFFFFFFFFFFFFFFFFFFFFF9C
:102EF00000000000000000000000000001000000D1
:102F0000FFFFFFFFFCFFFFFFFFFFFFFFFFFFFFFFD4
:102F100000000000000000000000000001000000B0
:102F2000FFFFFFFF512563FCC2CAB9F3849E17A7B8
:102F3000ADFAE6BCFFFFFFFFFFFFFFFF0000000050
:102F4000FFFFFFFF0000000096C298D84539A1F4AA
:102F5000A033EB2D817D0377F240A463E5E6BCF856
:102F600047422CE1F2D1176BF551BF376840B6CB21
:102F7000CE5E316B5733CE2B169E0F7C4AEBE78E1D
:102F80009B7F1AFEE242E34FFFFFFFFF7F0000003E
:102F9000800000000000000000000000FFFFFFFFB5
:102FA0007F00000080000000000000000000000022
:102FB00067E6096A85AE67BB72F36E3C3AF54FA5CA
:102FC0007F520E518C68059BABD9831F19CDE05BF6
:102FD000FF8FFFFFFF8FFFFFFE8FFFFFFE8FFFFFC3
:102FE000FD8FFFFFFC8FFFFFFC8FFFFF436F756CB2
:102FF00064206E6F74206C6F636B20706F776572E6
:103000002073617665206D75746578006D757465E3
:10301000785F667265652063616C6C6564207769B2
:103020007468204E554C4C20706172616D657465FA
:103030007200000043616E277420696E69746961D3
:103040006C697A65206D757465782C2077617320C2
:103050004E554C4C0D0A000000000000010100001C
:10306000000000000000000000000000C12300007C
:10307000100000202C000020240000202000002050
:103080001C000020580000205000002048000020B4
:103090000000000040000020D92600002526000086
:1030A00059260000A1260000C00000203A00003A86
:1030B000C40000203A00003AC80000203A00003A5C
:0C30C000CC0000203A00003A15E015E0BA
:10502800006000000020080001000000FFFFFA50A7
:105038003F1C0AF7971363EEB16EAF5431EF3CCAC9
:10504800010001000100F000FFFFFFFFFFFFFFFF6D
:10505800FFFFFFFFFFFFFFFFFFFFFFFFFFFFFFFF58
:10506800FFFFFFFFFFFFFFFFFFFFFFFFFFFFFFFF48
:10507800FFFFFFFFFFFFFFFFFFFFFFFFFFFFFFFF38
:10508800FFFFFFFFFFFFFFFFFFFFFFFFFFFFFFFF28
:10509800FFFFFFFFFFFFFFFFFFFFFFFFFFFFFFFF18
:1050A800FFFFFFFFFFFFFFFFFFFFFFFFFFFFFFFF08
:1050B800FFFFFFFFFFFFFFFFFFFFFFFFFFFFFFFFF8
:1050C800FFFFFFFFFFFFFFFFFFFFFFFFFFFFFFFFE8
:1050D800FFFFFFFFFFFFFFFFFFFFFFFFFFFFFFFFD8
:1050E800FFFFFFFFFFFFFFFFFFFFFFFFFFFFFFFFC8
:1050F800FFFFFFFFFFFFFFFFFFFFFFFFFFFFFFFFB8
:10510800FFFFFFFFFFFFFFFFFFFFFFFFFFFFFFFFA7
:10511800FFFFFFFFFFFFFFFFFFFFFFFFFFFFFFFF97
:10512800FFFFFFFFFFFFFFFFFFFFFFFFFFFFFFFF87
:10513800FFFFFFFFFFFFFFFFFFFFFFFFFFFFFFFF77
:10514800FFFFFFFFFFFFFFFFFFFFFFFFFFFFFFFF67
:10515800FFFFFFFFFFFFFFFFFFFFFFFFFFFFFFFF57
:10516800FFFFFFFFFFFFFFFFFFFFFFFFFFFFFFFF47
:10517800FFFFFFFFFFFFFFFFFFFFFFFFFFFFFFFF37
:10518800FFFFFFFFFFFFFFFFFFFFFFFFFFFFFFFF27
:10519800FFFFFFFFFFFFFFFFFFFFFFFFFFFFFFFF17
:1051A800FFFFFFFFFFFFFFFFFFFFFFFFFFFFFFFF07
:1051B800FFFFFFFFFFFFFFFFFFFFFFFFFFFFFFFFF7
:1051C800FFFFFFFFFFFFFFFFFFFFFFFFFFFFFFFFE7
:1051D800FFFFFFFFFFFFFFFFFFFFFFFFFFFFFFFFD7
:1051E800FFFFFFFFFFFFFFFFFFFFFFFFFFFFFFFFC7
:1051F800FFFFFFFFFFFFFFFFFFFFFFFFFFFFFFFFB7
:10520800FFFFFFFFFFFFFFFFFFFFFFFFFFFFFFFFA6
:10521800FFFFFFFFFFFFFFFFFFFFFFFFFFFFFFFF96
:08522800FFFFFFFFFFFFFFFF86
:1060000048AC00202DC40200D9BD020019C4020012
:1060100019C4020019C4020019C4020000000000E3
:1060200000000000000000000000000005C60200A3
:1060300019C4020000000000D1C5020019C402000A
:1060400045C802008566040045C8020045C8020034
:1060500045C8020045C8020045C8020045C8020004
:106060005166040045C8020045C802006D66040080
:1060700045C8020045C8020045C8020045C80200E4
:1060800045C8020045C8020045C8020045C80200D4
:1060900045C8020045C8020045C8020045C80200C4
:1060A00045C8020045C8020045C8020045C80200B4
:1060B00045C8020045C8020045C8020045C80200A4
:1060C00045C8020045C8020045C8020045C8020094
:1060D00045C8020045C8020045C8020045C8020084
:1060E00045C8020045C8020045C8020045C8020074
:1060F00045C8020045C8020045C8020045C8020064
:10610000000000000000000000000000000000008F
:10611000000000000000000000000000000000007F
:10612000000000000000000000000000000000006F
:10613000000000000000000000000000000000005F
:10614000000000000000000000000000000000004F
:10615000000000000000000000000000000000003F
:10616000000000000000000000000000000000002F
:10617000000000000000000000000000000000001F
:10618000000000000000000000000000000000000F
:1061900000000000000000000000000000000000FF
:1061A00000000000000000000000000000000000EF
:1061B00000000000000000000000000000000000DF
:1061C00000000000000000000000000000000000CF
:1061D00000000000000000000000000000000000BF
:1061E00000000000000000000000000000000000AF
:1061F000000000000000000000000000000000009F
:10620000DEE61E284CBBCE8F023400003C000000AE
:10621000D4A1050001000000006000000060000043
:10622000FFFF0291000000000000000000000000DD
:0C62300000000000000000000000000062
:106240002DE9F00791E8F807B2E802105B1854EB6B
:106250000C04B2E802104D4156EB0C06B2E80210F5
:106260004F4158EB0C08B2E8021059EB01095AEB08
:106270000C0A80E8F80780410130BDE8F00770475C
:106280002DE9F00791E8F807B2E802105B1A74EB09
:106290000C04B2E802108D4176EB0C06B2E8021055
:1062A0008F4178EB0C08B2E8021079EB01097AEB28
:1062B0000C0A80E8F80780414042BDE8F0077047CB
:1062C0002DE9F007524290E87800B1E880071740C6
:1062D000DB1918EA020854EB080419EA020955EB25
:1062E00009051AEA020A56EB0A0678C090E8780017
:1062F000B1E8800717407B4118EA020854EB080414
:1063000019EA020955EB09051AEA020A56EB0A06D0
:1063100078C080410130BDE8F00770472DE9F007F3
:10632000524290E87800B1E880071740DB1B18EA7A
:10633000020874EB080419EA020975EB09051AEA68
:10634000020A76EB0A0678C090E87800B1E8800788
:106350001740BB4118EA020874EB080419EA020965
:1063600075EB09051AEA020A76EB0A0678C0804145
:106370004042BDE8F00770472DE9F00152424FF06E
:10638000040890E8300091E8C000A31B1340E41A11
:10639000F618EB1B1340ED1AFF1830C0C0C1B8F15E
:1063A0000108EED1BDE8F001704700BF00B592E8EA
:1063B000DC072DE9DC07B1E8805702B4A7FB0251E6
:1063C0000A95A8FB020BE7FB6310E9FB62B00B9197
:1063D000A8FB0351EAFB6201E7FB64B5E7FB660536
:1063E000E8FB6615CDF830B0A9FB03B6EAFB6316EF
:1063F000ECFB6356E8FB640BE9FB641BEAFB645BA4
:10640000ECFB646B0D90ACFB0230059CEEFB625024
:10641000E9FB6460EAFB64B0E7FB6431E8FB6451CC
:10642000069CE8FB6461E9FB64B1EAFB64010E933E
:10643000A7FB0432079CE7FB6462E8FB64B2E9FB5C
:106440006402EAFB6412049CE9FB6453EAFB6463A4
:10645000089CE7FB64B3E8FB6403E9FB6413EAFB15
:1064600064230F955DF8049B99E80006DDF8008031
:10647000A9FB0854EAFB68B4DDF81080ECFB680463
:10648000EEFB6814E9FB6824EAFB6834DDF804805D
:10649000EEFB6865E9FB68B5EAFB6805DDF814808A
:1064A000ECFB6815EEFB6825E9FB6835EAFB6845FF
:1064B0000F96DDF80880AEFB0876E9FB6806EAFB7C
:1064C0006816DDF81880ECFB6826EEFB6836E9FB01
:1064D0006846EAFB6856DDF80C80ECFB68B7EEFB1B
:1064E0006807E9FB6817EAFB6827DDF81C80ECFB0E
:1064F0006837EEFB6847E9FB6857EAFB686708B056
:1065000000BD00BF2DE9F14F87B0FFF74FFFDDF869
:106510001C8008F1200888E8FF00FFBC87E87F089E
:10652000BDE8F08F00B591E89857A3FB03520195A1
:10653000A3FB0401E3FB6420E3FB67100292A3FBCF
:106540000752E3FB6802E4FB6415E3FB6805E3FB29
:1065500069250391A4FB07B6E3FB6926E3FB6A56B2
:10656000E4FB670BE4FB682BE3FB6A5BE3FB6C6B10
:106570000490A4FB0810E4FB6950E3FB6C60E3FBB0
:106580006EB0E7FB6721E4FB6951E4FB6A61E3FB62
:106590006EB1E4FB6E010592A7FB0832E4FB6A6270
:1065A000E4FB6CB2E4FB6E02E7FB6E12E7FB6853A0
:1065B000E7FB6963E4FB6CB3E7FB6C03E7FB6E137B
:1065C000E8FB6E230695A7FB0954E7FB6AB4E7FBDB
:1065D0006C04E8FB6C14E8FB6E24E9FB6E34E8FB0A
:1065E0006865E7FB6AB5E8FB6A05E8FB6C15E9FB43
:1065F0006C25E9FB6E35EAFB6E450796A8FB09762C
:10660000E8FB6A06E9FB6A16E9FB6C26EAFB6C36D6
:10661000EAFB6E46ECFB6E56E8FB69B7E9FB6907DF
:10662000E9FB6A17EAFB6A27EAFB6C37ECFB6C476D
:10663000ECFB6E57EEFB6E6700BD00BF2DE9F14F1E
:1066400087B0FFF76FFFDDF81C8008F1200888E8AD
:10665000FF00FFBC87E87F08BDE8F08F30B44FF043
:10666000000310F8014B11F8015B013A84EA0504BC
:1066700043EA0403F5D1A3F101034FEAD37030BC20
:10668000704700BF4FF0000310F8012B013943EAB7
:106690000203F9D1A3F101034FEAD370704700BFA1
:1066A00030B411F8014B12F8015B6C4000F8014B5B
:1066B000013BF6D130BC70472DE9F00791E8F807AF
:1066C000B2E802105B1854EB0C04B2E802104D4122
:1066D00056EB0C06B2E802104F4158EB0C08B2E83A
:1066E000021059EB01095AEB0C0A8941B3F1FF334F
:1066F00074F1FF3475F1FF3576F1000677F100078C
:1067000078F1000879F101097AF1FF3A51F10001BD
:106710005B184C414D4156F1000657F1000758F106
:10672000000859EBD1795AEB010A80E8F807BDE877
:10673000F00770472DE9F00791E8F807B2E802107A
:106740005B1A74EB0C04B2E802108D4176EB0C0678
:10675000B2E802108F4178EB0C08B2E8021079EB36
:1067600001097AEB0C0A89415B184C414D4156F105
:10677000000657F1000758F1000859EBD1795AEBA0
:10678000010A80E8F807BDE8F007704718EB040835
:1067900059EB05095AEB060A5BEB070B5FF0000C9F
:1067A0004CF1000C18EB050859EB06095AEB070AE7
:1067B0005BEB070B50EB0C005FF0000C51EB0C0196
:1067C00052EB0C0263414CF1000CB8EB070879F175
:1067D00000097AF1000A7BEB040BA841B141A24108
:1067E000B3416CF1000CBBEB050BB041B941AA41C0
:1067F000BB416CF1000C4CF001068CF0020718EB69
:10680000060859EB6C095AEB6C0A7BEB6C0B70EBCE
:106810006C0471EB6C0572EB670653EB6C076CEB69
:106820006C0C18EB0C0059EB0C015AEB0C025BF1F1
:10683000000354F1000455F1000556EBDC7657EBEC
:106840000C0770472DE9F14F87B0FFF7AFFDDDF87A
:106850001080DDF81490DDF818A0FFF797FFBDE871
:10686000000FFFF793FF03B05DF8048B88E8FF008B
:10687000BDE8F08F2DE9F14F87B0FFF753FEDDF84B
:106880001080DDF81490DDF818A0FFF77FFFBDE859
:10689000000FFFF77BFF03B05DF8048B88E8FF0073
:1068A000BDE8F08F064B074ADB7802604FF4427276
:1068B0008280C3710822002382710372704700BF77
:1068C000B8210020F3850100064B074A1B790260BE
:1068D0004FF4B8728280C3710822FF238271037261
:1068E000704700BFB8210020A98101002DE9F341C4
:1068F000C41D002824F00704064614BF20460020CB
:1069000000F0D8FC071E04DA6FF00B0002B0BDE8FF
:10691000F0810EB9FC42F7D4354D297AE879AB7A8B
:106920006A7A033103300EF06DFE0028ECDBA978A3
:10693000EB783C440334002E194424F0030400FB9C
:1069400001F114BF2046002000F040FE20440EB9A3
:106950000028D9DB2B790446B3B1697C19446B79E3
:106960001944FF29D0DC0330002E20F0030414BFAB
:1069700020460020AA89C9B200F098FE0028C3DB97
:1069800004440EB9002CBFDB012000F089FCC8B123
:10699000E97AB9B195F828300734002B15BF4023A8
:1069A00025234FF48172282224F00704002E14BFFF
:1069B0002046002003F032FA0028A5DB04440EB97B
:1069C000002CA1DBAB7BE3B12B799BB10734002E0C
:1069D00024F0070414BF20460020A97B05F066FEC2
:1069E000002891DB044466B9002C0ADA8CE700BF6A
:1069F000B8210020012000F053FC10B1EB7A002BED
:106A0000E4D1714B1B6893B1A97981B10334002E95
:106A100024F0030414BF20460020EA7B9847002896
:106A2000FFF672AF044416B9002CFFF66DAF674B4A
:106A30001B688BB1297C79B10334002E24F0030448
:106A400014BF2046002098470028FFF65DAF04449D
:106A500016B9002CFFF658AF5D4B1F68AFB1697CCB
:106A600099B10334002E2B7D009324F0030414BF4E
:106A700020460020EB7CAA7CB8470028FFF644AFF4
:106A8000044416B9002CFFF63FAF072000F008FCC5
:106A900098B1A97989B10334002E24F0030414BFFE
:106AA00020460020AA7D00F0EFFE0028FFF62CAF64
:106AB000044416B9002CFFF627AF95F82100B6FA6A
:106AC00086F77F09A0B1EB7E297E033424F007040A
:106AD000194444F004043B462246C9B200F016FFB4
:106AE0000028FFF611AF044416B9002CFFF60CAFD6
:106AF00095F82210002957D00734002E24F00708FB
:106B000014BF40460020AA8C0EF091FD041EFFF633
:106B1000FBAE444416B9002CFFF6F6AE1EB1A98CAC
:106B2000404609F051FF297F00293FD095F82030D9
:106B3000002B3BD0EA8B0734002E24F0070802F12B
:106B4000240214BF4046002092B20EF070FD041ED5
:106B5000FFF6DAAE444416B9002CFFF6D5AEAB7E94
:106B6000297E95F82000033424F00704194444F0EA
:106B700004043B462246C9B200F0BAFE0028FFF6E4
:106B8000C3AE044416B9002CFFF6BEAE36B1EA8B94
:106B9000297F083292B2404609F01CFFEB6A5BB1D4
:106BA00076B1EC620020B1E68846B7E7002EF5D05A
:106BB000002211461046EFE7002EF3D12046A5E64D
:106BC0002834FBD5A0E600BF1C11002024110020B2
:106BD000201100201FB572B6184B1D6BE5B9BFF32D
:106BE0004F8F1749174BCA6802F4E0621343CB601A
:106BF000BFF34F8F00BFFDE7B2FBF6F2DCB201330B
:106C0000002AF9D104F110036B4403F80C2C0A227A
:106C100034B901A8A847E2E7024600230A26EDE7B7
:106C2000631E04AEDCB256FA83F3B0FBF2F602FB4D
:106C30001600303003F80C0C3046E9E7B82100208C
:106C400000ED00E00400FA0513B5114CA37A8DF8AD
:106C50000130637A8DF80030237AADF8043068464D
:106C6000E379ADF8023003F075FE18B1D9210320A5
:106C7000FFF7B0FF207D03F09DFE08B1DC21F6E7B1
:106C8000E07C03F091FE08B1DD21F0E702B010BD19
:106C9000B821002038B5054600283ED00DF042F955
:106CA00010B94FF0FF3038BD11F0C4FDB0F5FA7FD8
:106CB000F7D81C4C1C482563002500F06BFA2622EF
:106CC0002946A01C84F83450257084F82850E562C9
:106CD0000DF034FD1B22E27140F21B3240F2011331
:106CE000228140F202326380628101231F222371DC
:106CF000A281A3754FF40272F723E281E38344F685
:106D00000112FB236282A384EFF3108472B600F0B9
:106D10000DFE2CB962B62046C5E76FF01500C2E73C
:106D20002846C0E7B8210020496C000038B5144659
:106D3000002840F0B3805B4D95F83430032B00F011
:106D4000AA80B1B112B96FF0150038BD013914290C
:106D500000F2A480DFE801F00B1C1F2F59627F3581
:106D60006568793B414F54858896999C8E001378CD
:106D7000AB700020FFF7BAFD0028B7BF0123022344
:106D800085F834306FF00B00A8BF85F83430DCE7AD
:106D90001378EB70EDE79378002BD4D0D378002BE9
:106DA000D1D013781A2BCED953781A2BCBD913689C
:106DB000C5F80730DDE713786A799342C3D32B71A6
:106DC000D7E713782A799342BDD86B71D1E713784E
:106DD0002A799342B7D86B74CBE71378002BB2D0E3
:106DE0005378013BDBB2F82BADD813886B822E4B66
:106DF00092789A70BDE71078687507F0E3FEB8E7FF
:106E00001378002B9FD0AB75B3E7012000F048FA50
:106E1000237808B1012B96D9EB72AAE71388AB81CE
:106E2000A7E71378AB71A4E7072000F039FA10B98F
:106E30002378012B87D9072000F032FA10B123788C
:106E4000002B80D02378EB7393E71378082B3FF661
:106E50007AAF2B748DE71388FF2B3FF674AFAB73BB
:106E600087E71378EB7584E713780E2B3FF66BAF4B
:106E70002B767EE723680D4AEB61636853602389B4
:106E8000138176E713786B7673E71378EB7670E708
:106E90001378AB766DE74FF0FF3056E76FF02C00BC
:106EA00053E700BFB8210020CA210020D4210020D0
:106EB000F8B50D46064630B329B311F0070422D1C8
:106EC000124F97F83430012B02D16FF00B00F8BD50
:106ED000032B02D14FF0FF30F9E700F08FF80028C4
:106EE000F8D02846FFF702FD0028EEDB11F011FC78
:106EF0003046F96A03F0D2FDFFF7A6FE032387F8B8
:106F000034302046E3E76FF01500E0E7B8210020B9
:106F100010B5074C94F83430032B03D103F0DAFD9D
:106F200004F01EFD0EF0ACFC002084F8340010BD0F
:106F3000B821002050B1074B03F1140253F8041B91
:106F400040F8041B9342F9D1002070476FF0150000
:106F5000704700BFD4EA050010B5074B93F83440E2
:106F60003CB903F065FD0320044900F091F9204687
:106F700010BD4FF0FF30FBE7B8210020C9680000CA
:106F800010B5074B93F834403CB903F065FD02207F
:106F9000044900F07DF9204610BD4FF0FF30FBE7BB
:106FA000B8210020A568000010B5054B93F83440C7
:106FB0001CB90FF04EFB204610BD4FF0FF30FBE731
:106FC000B821002010B5054B93F834401CB90FF0E0
:106FD00043FB204610BD4FF0FF30FBE7B8210020F7
:106FE000024B02681A600020704700BFF0210020A9
:106FF000014B1B68184700BFF0210020024B1868A6
:10700000003818BF01207047F0210020F7B52E4E40
:107010000446071D2C48376004F0BAFC02280546D8
:1070200006D1294920460DF054FC284603B0F0BD96
:10703000042842D13378092B0AD0252B1ED03146A3
:1070400020460DF0ABFCB0F5817F2DD3722112E00C
:1070500005213E200DF010FC0028F0D1F3783279A4
:1070600001A943EA02236846ADF800300EF0A8F803
:107070000028CFD053210820FFF7ACFD1A213E2075
:107080000DF0FAFB0028DAD17368C3F30F23ADF8D3
:1070900004306946112301A88DF806300EF0AAF8D5
:1070A0000028B7D06521E6E70028B3D0A178207882
:1070B0000DF0E2FB0028B8D1ACE70828B5D10249B1
:1070C00020460DF035FCB0E7F4210020074B4FF0CF
:1070D000FF3141F6FF72C3E9001205490022C1E900
:1070E00000221F21C3E90212704700BFC010002018
:1070F000F82200203F280CD801380B4BC0F3421275
:1071000000F01F0053F8223023FA00F000F00100D5
:107110007047FF2806D04038C0F34212034B00F0FE
:107120001F00EFE701207047C0100020F822002068
:107130000146074B006849681A4603C240F48C2296
:107140001A6041F0107242F4FF625A60704700BF4B
:10715000C01000200246024B0068516803C370470C
:10716000F82200200246024B0068516803C37047B2
:10717000C81000200138064BC0F3421203EB820313
:1071800000F01F009B6823FA00F000F00100704738
:10719000C0100020014B1860704700BF0023002082
:1071A00010B5FFF793FF0EF030FD034B1B6804464C
:1071B00003B19847204610BD002300200B880288A9
:1071C000F0B5C3F30E049EB204F11403C57CC35A98
:1071D00002352A442B4497B213FA82F3013B4288CA
:1071E000B3FBF7F313FB07439BB29A42044A93BFE6
:1071F00022EA0603324013439BB20B80F0BD00BF6E
:107200000080FFFF4A1E062A08B50346084604D838
:107210004FF4D1711520FFF7DDFC094A914202D9E4
:1072200040F2A311F6E711B903B1196008BD2BB103
:107230001B680022C3E901211A1D1A600430F5E71A
:10724000FAFFFF7F10B5114B00EB41041A786389F8
:10725000B3FBF2F303FB0223013A1A44B2F5706F59
:10726000027928BF00231A448378B2FBF3F0194453
:1072700003FB1020091AB1FBF3F003FB10131344B6
:107280006FEA43436FEA5343638110BD0423002038
:10729000024B03EB80035960704700BF04230020BA
:1072A000034B03EB80035868003818BF0120704778
:1072B000042300202DE9F04F10F0070A85B00546A1
:1072C00004D040F261111720FFF784FC554F07F1FD
:1072D0004006B1460446B0464FF0010B57F8043B58
:1072E0008DF80BA03BB101A898479DF80A30082BF8
:1072F00001D9E821E7E79DF80B1081BB05B13160AA
:10730000B94506F10406E9D12DB3DFF81CE10023ED
:107310008EF800301E460F2258F82200013A60B164
:1073200090F804A08178BAF1FF0F66D14FF0000702
:107330008E4207713CBFCEB20123511CECD10BB180
:107340008EF800600F2640F6FF6A58F82670002F6E
:1073500065D1013EF9D2601B05B0BDE8F08F9DF804
:107360000AC0BCF1020FE64601F1050238BF4FF03A
:10737000020E0EF1FF3004EB42040444CEF1000093
:107380002040BDF808406444013CCCF1000C04EA04
:107390000C04B4F5803F4FEA420301D3F82192E791
:1073A00075B1C31A336099701C8083F803B09DF8DF
:1073B0000C201A71019A1A814FEA124CA3F806C0E8
:1073C00004FB01049CE758F82C90B9F1000F06D09B
:1073D00099F804B0D34504BF99F802904F440CF1DA
:1073E000FF3CBCF1000FEEDA3944FF29A0D90BB104
:1073F0008EF8006040F2271165E794460027F0E719
:1074000007EB41033846A3F80AA0FFF71BFF09F179
:107410000109BB785FFA89F18B42F1D899E74FF007
:107420000009F6E70823002004230020F8B54FF6F2
:10743000FF730380184B03EB81030546586CB8B10A
:1074400086780379B3FBF6F206FB1233DBB21946FA
:107450000A1D00EB4202B2F902705488002F09DBCA
:107460000131B1FBF6F206FB1211C9B28B42EFD12A
:107470000020F8BDFF29FBD0C4F30E03C4782B8095
:1074800024B94FF4D5711720FFF7A4FB5380BDE852
:10749000F8400EF096B800BF042300201D4B03EB0C
:1074A000810370B55C6C054644B3030404D54FF406
:1074B000DC711720FFF78EFB014620460EF063F8C3
:1074C000FF28014604D02046BDE870400EF079B890
:1074D000A078B5FBF0F300FB1353DBB219460A1D8D
:1074E00004EB4206B6F90260002E09DB0131B1FB64
:1074F000F0F200FB1211C9B28B42F0D1002070BD36
:10750000FF29FBD08B4204EB42021CBF0023E37037
:107510005580D8E704230020094B03EB810310B505
:107520005C6C014620460EF02EF8FF28014604D080
:107530002046BDE810400EF044B8002010BD00BF4A
:1075400004230020F8B5104B03EB810307465C6C65
:10755000014620460EF017F8FF28054611D0E688B0
:10756000238953EA064606D0014620460EF029F844
:1075700001463846B04720462946FFF763FE002003
:10758000F8BD0520FCE700BF0423002038B50E4BF2
:10759000827903EB82030446586C08B9052038BD94
:1075A0008278E1799142F9D24B1CE37100EB4103FF
:1075B0005D89B3F90A30002BF3DBA5800EF001F8EA
:1075C00020600020EBE700BF0423002070B50446D4
:1075D00010F003000E4603D04F211820FFF7FAFAEF
:1075E000FFF710FE054624B1034831460460FFF75B
:1075F00009FE284670BD00BF882300202DE9F14F09
:10760000DFF870B09DF828A09DF82C901E46DBF89E
:10761000003007460D4690461BB961211820FFF740
:10762000D9FA5246092140460DF033FE4A4684B24B
:10763000092130460DF02DFE14FA80F1DBF8000030
:107640000DF076FF386018B9286001B0BDE8F08F02
:1076500004442C6038685346414609220DF0D2FD9F
:1076600028684B460922314601B0BDE8F04F0DF0C5
:10767000C9BD00BF8823002070B50E4604460DF03A
:107680001BFE054630460DF017FE044B2A18214616
:107690001868BDE870400DF06FBF00BF8823002060
:1076A000014B18680DF038BF882300201F2AF8B559
:1076B000044613460ED89200033222F00303B3F5BA
:1076C000803F2DD2184DACB1A00710D05F2109200A
:1076D000FFF780FAFF2B4FEA420204D9FF339A42A8
:1076E000A8BF1A46E8E77C2AB8BF7C22E4E72970E5
:1076F0006C602B8122F0030201EB81031204D8009D
:1077000001276B68120C0025EEB28E4200D3F8BD43
:1077100014B126181F705E60104401352833F3E75A
:107720004FF0FF30F3E700BF8C23002038B5144A38
:10773000147853680021C8B2844203D8AB210920D1
:10774000FFF748FA1846013105782833002DF2D0AA
:107750000021817001241289447044688161C161F3
:10776000920800F12001051D21F8022B994245F8ED
:10777000044B1444F8D100234361037038BD00BFAB
:107780008C2300200A4B1B89B3F5FF7F4FEA93003F
:1077900006D25A089B1A9BB2984238BF18467047C7
:1077A000B3F5EE6F01D8FF22F4E740F27263F3E71E
:1077B0008C2300202DE9F8434B7880460C4602F0DC
:1077C000040602F0FB07D3B1DFB12E4BD4F80490CE
:1077D0001D89B7BB01236370AD08A761E76104F1A0
:1077E00020034A46211D04F1280023F8025B984239
:1077F00041F8042B2A44F8D10023636101E0002FF3
:10780000E3D0FF23A370002E18BF0226A3191B7D0F
:10781000032B03D1022F1CBF0136F6B2A31901229C
:107820001A7506F10C0204EB8606002324F81230C8
:107830007268A370C8F80020A8F804304046BDE87C
:10784000F883002114226170A0180CF077FFB5F5C1
:10785000FF7F0FD26B08ED1AADB209EB0502C4F839
:1078600004902584A2606384C4F80C90A5842261EE
:10787000E384C6E7B5F5EE6F4FF0FF03EBD940F2B6
:107880007265EAE78C2300202DE9F84305460C4693
:10789000F720052191460DF0FCFC061E22DB1DB9E8
:1078A00014FB06F0BDE8F88315F0030703D0982118
:1078B0001920FFF78FF9DFF83480C8F81050A8F8C6
:1078C0001460A5B2BBB29D42EAD9B8F814C0D8F88A
:1078D00010004B4607FB0C000522F7210DF092FC2F
:1078E0000137EFE74FF0FF30DCE700BFA0230020B7
:1078F00007B5CDE900230B4603490246081D0DF0EC
:1079000099FF03B05DF804FBB823002013B5064CC3
:10791000CDE900230B46024604F1080104F10C00F6
:107920000DF088FF02B010BDB8230020134B0122D8
:1079300000214FF0FF309A60C3F80012C3F808032B
:10794000C3F80015C3F804259A60C3F80803C3F808
:107950000015C3F804250A490A4A03F580334FF499
:107960000040C3F80825C1F88000BFF34F8FBFF374
:107970006F8FC1F88001C3F80825704700F0004000
:1079800000E100E00000F63F8C46302300B50CF823
:10799000033B054B8E4607CBCEF80300CCF8041012
:1079A000CCF808205DF804FBD423002010B5154C5A
:1079B00008F064F907F094FA636A608C0021984734
:1079C000237E9BB9104B628C93E8030004F0F8FE11
:1079D000E36A188804F01EFE636B94F8301094F884
:1079E00031009847002384F8383010BD94E8070030
:1079F00004F10C0383E80700044904F119000FF0B7
:107A000097FDDFE7C8230020F023002089790000DC
:107A1000034B93F8383003B97047FFF7C7BF00BF77
:107A2000C823002008B540F22B410620FFF7D2F80A
:107A300008B5094B93F83820022A07D1DA7A42F0C8
:107A40000102DA72BDE80840FFF7B0BF40F25321EF
:107A50002720FFF7BFF800BFC823002070B5364EBF
:107A600096F8283005460BB1012825D001292AD8DF
:107A7000336C28469847044628B396F8303013BB39
:107A800096F8283013B31DBB96F84420D106C2F3F4
:107A900000152DD4F26C316D1278C2F3001201B3CF
:107AA00082F00104BBB1738F9A0715D5F36BDC78B4
:107AB000023C18BF012407E0738F1807D6D5F36B7B
:107AC000DB78022BD2D10124204670BD012DDBD002
:107AD0000024204670BD738F002BF4D1002DF3D00D
:107AE000F6E7B6F854100029DAD0002BF3D0DAE725
:107AF000F16B0A7802F00302032A02D1CA78022A43
:107B000018D0B06C0DF06BFC48B9F36B1B7803F028
:107B10000303032B06D196F828300546BAE796F8FA
:107B20002830B7E703F0EEF880F0010596F828302A
:107B3000EDB2AFE70025ADE7C823002070B5254CB6
:107B4000E56AE26C95F8A430A265064694F85C00FC
:107B50000BB10430C0B295F87D100EB9FF282FD0BC
:107B600007F07EFD95F8A43023B3206E08F0A2F94B
:107B700094F82830216EA06D003B18BF012384F8D3
:107B80008030D5E94223C4E91E2307F04DF946B9F8
:107B900095F87D30033B012B94BF2820002008F08E
:107BA000F7F995F87C10002008F05AFA022384F8BF
:107BB000383070BDA06D08F07DF907F091F9E6E767
:107BC00095F87C208A42CFD007F04AFD95F8A43082
:107BD000CAE700BFC82300202DE9F0413B4C94F8D0
:107BE0003830E56A012B82B069D15FFA83F895F8E5
:107BF000943006460F4673B1638F002143F00403AF
:107C0000638785F89410636A0420984794F82830B5
:107C10000BB185F89680E16B0B7803F00303032B1F
:107C20002ED04B7843B3022385F89A3095F8A430D0
:107C3000DBB1E36A93F87D10D5E94223C4E91E2342
:107C400094F8283094F85C200139003BC9B218BF81
:107C50000123032984F8803036D81D4B00205B5C5B
:107C600000901C49012007F067F806B9E7B902B097
:107C7000BDE8F041FFF79ABE012385F89A30D5E7B9
:107C800095F89A3063B9638F43F00203638702204B
:107C9000636A9847E16B0B7803F00303032BC0D1B1
:107CA000032385F89A30C1E731463046FFF7D6FE08
:107CB0000028DCD102B0BDE8F041FFF73FBF40F241
:107CC000A4412720FEF786FFFFF7ACFEC823002063
:107CD000180805003024002070B5814CE56A94F83E
:107CE0005C3095F8A42082B000218DF805100AB10F
:107CF0000433DBB295F87C1010B9FF2B00F0AF8095
:107D0000FF2007F0ADFC95F89A30032B00F2E380DA
:107D1000DFE803F0021C807094F8C230ADF8063042
:107D20007048A5F86C3002F0C7FF002840F09D8035
:107D3000A06C0DF105020DF106010DF0E5FAE0630E
:107D400020B195F8E130002B00F0A7806648E06391
:107D500095F89B200378D20002F0080203F0F303A9
:107D6000134395F89C20920002F00402134303F0A1
:107D7000EF0203F00303032B027002D1C378022B3E
:107D800011D0A06C0DF02BFB48B9E06B027802F02B
:107D90000303032B07D002F0B5FF002876D1E06B78
:107DA000027842F01002027095F8A33013B14378C4
:107DB000002B41D108F07EF807F092F8E66B03F053
:107DC000DBFE20B1337803F00303032B61D095F879
:107DD0007D10012008F044F9E36B444A1888997833
:107DE000A4F84400012384F8C430917084F838303A
:107DF00002B070BD3B4802F05FFF002861D0E06B2D
:107E0000C3781B2B14D1012105F1100007F05AFC97
:107E1000E06B0DE0B5F86C30A06CADF806300DF1FC
:107E200005020DF106010DF06FFAE06300284DD058
:107E3000012384F8C3308BE7206E08F03BF894F8F8
:107E40002860E16B206ED5E94023B6FA86F6760904
:107E5000C4E91E2384F8806006F0E6FFAEE795F8DB
:107E60007D308B427FF44CAF4DE7638FE16B626AEC
:107E700043F480734FF4807063879047E06B012177
:107E800085F89510C3781B2BD2D1BDE7E06B027843
:107E900089E7012009F03CFC99E79DF8053043B1E2
:107EA000BDF806100FF0EBFA0123E06B84F8C33045
:107EB0004EE703808370E06B01210FF0F0F9E06B77
:107EC000EEE740F2FD212720FEF784FE40F2F32189
:107ED0002720FEF77FFE40F20B312720FEF77AFEC7
:107EE000C823002004240020582400200C24002053
:107EF0002DE9F04FB84C94F83830E66A87B000228C
:107F0000022B049240F01282638C884613F04001E9
:107F1000074606D1636A40209847638C43F04003CC
:107F20006384002F5CD096F8A430002B40F05C8175
:107F3000D4F858A09AF8013099B2A4F85410002946
:107F400040F06A81002323659AF80050638C96F80C
:107F50009B10C5F3800243F400739142638400F0E8
:107F6000F080D4F82C9099F89A20FAB1022A00F007
:107F7000B78194F82830002189F89A1023B199F834
:107F80009630002B40F0A28199F89530002B40F0FC
:107F90007F8199F89B30D4F858A0012B0CBF0023A7
:107FA000012389F89B309AF80050638C96F89C1056
:107FB000C5F3C00243F40063914263844FF00009AB
:107FC00000F0C780002503F0D7FDF0B19AF800302B
:107FD00003F00303032B18D1012009F099FB14E0EF
:107FE00096F8A420002A40F0F38043F48063638471
:107FF00096F87D3094F8CE20033B0132012B84F8B3
:10800000CE2040F2D4800025A94696F8A33003B3D1
:1080100094F8283096F87C10F069B3FA83F35B0982
:1080200084F8803041F64B53984294BF04200020DE
:108030000139D6E94023C9B20329C4E91E2300F25D
:108040007A81664B00225B5C00926549FB2206F058
:1080500073FEB8F1000F08D194F8CE100120FFF79D
:10806000FDFC8046002800F0DF8008F035F84FF076
:108070000108002D3BD1B9F1000F09D094F8283048
:10808000002B40F09A80B4F809300133A4F809308D
:10809000002F4BD0B4F8053000220133A4F805308E
:1080A00084F8CE204F4804F0A3FA049830B10DF0C4
:1080B00013FAE16A0022027203F0BAFC35B1E16AF8
:1080C00000232B720C22284603F080FCB8F1000F2D
:1080D00032D1638C1B0607D4636A414680209847DF
:1080E000638C43F08003638407B0BDE8F08FA16D1B
:1080F000236D4D78002B00F02081B4F854201846F1
:1081000003320CF0A3FA0DF10E0205A9A065D4F814
:10811000C8000DF0F7F905980DF0DEF929460122A7
:108120000546D4F8C8000DF0A4F9A4E7B4F8073068
:108130000133A4F80730B5E7FFF738FC07B0BDE816
:10814000F08F96F89C10C5F3C0029142B9467FF4B7
:1081500039AF05F00305032DD4F82CB06AD143F4F0
:1081600080536384638F012043F00103514663878A
:108170008BF89400636A9847D4F858A000259BF8C0
:108180009C30013B18BF01238BF89C309AF80130DA
:10819000002B3FF418AFDBF808310133CBF808317E
:1081A000DBF80C3143F10003CBF80C310BE7012075
:1081B000002509F0ADFAA94627E7B4F80530B4F870
:1081C0000710B6F898200B4313433FF461AF5AE70A
:1081D00006F0F8FE638C08E7C823002018080500A5
:1081E00030240020F023002006F0B2FE06F094FEBA
:1081F000D4F858A09AF8013000287FF49DAE002BE7
:1082000061D09AF8002096F89C10C2F3C002914207
:1082100077D099B2A4F85410D4F8C8000DF000F942
:10822000D4F858A020658FE6FFF756FD002D3FF4E7
:1082300022AF5CE7002DA2D09AF80150002D9ED00D
:1082400043F4805363849BF8A45007F0D9F90428C1
:1082500094F8CC3006D1002D14BF1B221F2293426C
:1082600028BF1346D4F858A09AF801209A424ED855
:10827000256D002D3FF4A7AE94F8CD30002B53D0E0
:10828000636A0021202098470025D4F858A09AE678
:10829000002589F8955002F01FFD002852D0638F09
:1082A00043F0080363872946636A08209847D9F892
:1082B00000310133C9F80031D9F8043143F100032A
:1082C000C9F8043165E6A4F854303BE6638F89F8B9
:1082D000961043F0100363871020636A984753E6B3
:1082E000A06C04A90DF033F888B3D9F8003101333C
:1082F000C9F80031D9F8043143F10003C9F8043159
:1083000037E6012384F83130FFF750FBECE694F8B0
:108310003030012043F0100384F83030002509F09C
:10832000F7F9D4F858A04EE63D4628E74FF4A3618C
:108330002720FEF74FFCFFF775FB40F29541272001
:10834000FEF748FC40F225412720FEF743FC40F2AF
:108350000E412720FEF73EFC70B50D4B0D4C0E4A2A
:108360001A6094F838301BB1E1212720FEF732FC67
:1083700003F0FF0206460D46227604F019FA0121A9
:1083800004F190000EF08BFFE664256670BD00BF1F
:1083900028110020C82300209088000010B5074A4B
:1083A00092F8383013B10C24204610BD03F0FF04BE
:1083B000147604F0FDF9204610BD00BFC82300204C
:1083C000024B012283F8CD20704700BFC823002054
:1083D000F0B5BF4C85B002AD85E8030094F83800D5
:1083E0000A9E002840F0BD81002A00F0BA81002BCF
:1083F00000F0B781002E00F0B48100F0FF0184F896
:10840000CD1084F8301084F8CE1084F8311084F840
:10841000C41084F8C3106187618495E80300236465
:1084200004F1280383E80300E56A6262666307F0EB
:10843000A9F906F055FD95F9800007F0ABFAA86B95
:1084400007F01CFD286A07F0ABFA95F8B40007F0B6
:10845000B1FA94F82860EA6941F64B53002E00F017
:10846000C2809A4200F20D814D2007F0AFF8012042
:1084700007F0C8FBE36A93F800327426002B40F043
:108480000A8195F87D203146012007F0E3FB914BEE
:10849000186807F0F9FCD5E90523A264C4F8C830D0
:1084A00095F88B304BB9D5F8843033B1B5F8CE1090
:1084B000B5F898208A4200F00281D5F81411D5F859
:1084C0001821D5F81C31844ED5F810010FC6D5F807
:1084D0002031C4F88130E36AD5F82421C6F80D2094
:1084E00093F89E20A2F12601012940F28B8093F897
:1084F0009F10262900F08680213A012A40F20F8140
:10850000242900F0EF8093F87C60032E08BF042636
:1085100005F14407314638460FF073F831460EF046
:10852000FDFBB5F8503095F87D100246934228BF08
:108530001346384684F8C2300FF030F895F87D10B5
:1085400095F8A470B5F85860042908BF03210EF00F
:10855000E5FB0FB9043080B2B04228BF3046C6B246
:1085600084F8CC6003F008FB10B12B2E38BF2B260B
:1085700094F8280084F85C6000285ED195F8A33058
:10858000DBB1012384F88030D5E94023C4E91E2300
:10859000EA6941F64B539A4298BF042095F87C3023
:1085A000013BDBB2032B00F2E1804C4A0021D35C9B
:1085B0000091FB22484906F0BFFB0120FFF78CFB2E
:1085C0000023C4E90033A360D5F88C302988B5F8BE
:1085D000980095F8B4206080218022710BB10122AF
:1085E0001A6005B0F0BD9A4258D84D2006F0EEFF53
:1085F000304607F007FB95F87C206E21002007F03D
:1086000029FB44E794F82820002A33D193F842222A
:1086100093F87C60002A3FF47BAFF31E012B40F2FD
:108620008B80D31E012B40F28780012E3FF470AF68
:10863000012A14BF022601266AE795F8A430ABB1DF
:1086400095F87D10D5E942230139C9B201200329EB
:10865000C4E91E2384F8800000F288801F4B5B5C15
:108660000021009132461C4906F066FB0120FFF70D
:1086700065FAA5E793F8D62293F87C60002ACCD15E
:1086800046E7962006F0A2FFE36A93F800329D26A3
:10869000002B3FF4F6AE07F063F8F2E6962006F002
:1086A00095FF95F87C200D4B0D4803EB420399880C
:1086B00001F5FA71A0FB013189096E319EE7B5F829
:1086C00088100A440121A5F8CE201960F5E600BF04
:1086D000C82300202811002030240020180805009D
:1086E000D34D621094F82820002A3FF40CAF93F881
:1086F0004E2193F8751093F87C6002EA01035A0743
:108700001AD413F0010220D19B077FF501AFF31EAD
:10871000DBB2012B10D9012E18BF0226F8E624295E
:10872000E0D094F82820002A3FF4EDAE93F84E21D3
:1087300093F87C60500701D50426E9E612F00103A6
:1087400009D191077FF5E4AEE1E7033E012E8CBF2E
:1087500016460426DCE6033E012E8CBF1E46042688
:10876000D6E640F26F112720FEF734FAFFF75AF9E8
:1087700008B5124B93F8382092B193F8282022B90B
:1087800093F83830012B14D108BD93F83820022A11
:108790000AD1DB6AD3F81802BDE8084007F0C4BB71
:1087A000BDE80840FFF702B940F235212720FEF767
:1087B00011FA40F231212720FEF70CFAC8230020DD
:1087C000FFF7F4B8014B1876704700BFC8230020AC
:1087D000014B93F8C4007047C8230020034B93F863
:1087E000C30010B9588CC0F300307047C823002074
:1087F000024B588CC0F3C020704700BFC823002034
