:020000040000FA
:10000000087E0120F93201009B3B0400E53201002B
:10001000E5320100E5320100E5320100E532010080
:100020000000000000000000000000004535010055
:10003000E532010000000000B5340100E5320100A6
:10004000C1370100C1370100C1370100C1370100CC
:10005000C1370100C1370100C1370100C1370100BC
:10006000C1370100C1370100C1370100C1370100AC
:10007000C1370100C1370100C1370100C13701009C
:10008000C1370100C1370100C1370100C13701008C
:10009000C1370100C1370100C1370100C13701007C
:1000A000C1370100C1370100C1370100C13701006C
:1000B000C1370100C1370100C1370100C13701005C
:1000C000C1370100C1370100C1370100C13701004C
:1000D000C1370100C1370100C1370100C13701003C
:1000E000C1370100C1370100C1370100C13701002C
:1000F000C1370100C1370100C1370100C13701001C
:10010000C1370100C1370100C1370100C13701000B
:10011000C1370100C1370100C1370100C1370100FB
:10012000C1370100C1370100C1370100C1370100EB
:10013000C1370100C1370100C1370100C1370100DB
:10014000C1370100C1370100C1370100C1370100CB
:10015000C1370100FFFFFFFF81F0004102E000BF57
:1001600083F0004330B54FEA41044FEA430594EA77
:10017000050F08BF90EA020F1FBF54EA000C55EAB2
:10018000020C7FEA645C7FEA655C00F0E2804FEA83
:100190005454D4EB5555B8BF6D420CDD2C4480EA65
:1001A000020281EA030382EA000083EA010180EA95
:1001B000020281EA0303362D88BF30BD11F0004FE3
:1001C0004FEA01314FF4801C4CEA113102D0404219
:1001D00061EB410113F0004F4FEA03334CEA133354
:1001E00002D0524263EB430394EA050F00F0A7806C
:1001F000A4F10104D5F1200E0DDB02FA0EFC22FA67
:1002000005F2801841F1000103FA0EF2801843FA5A
:1002100005F359410EE0A5F120050EF1200E012A4B
:1002200003FA0EFC28BF4CF0020C43FA05F3C01889
:1002300051EBE37101F0004507D54FF0000EDCF102
:10024000000C7EEB00006EEB0101B1F5801F1BD3AB
:10025000B1F5001F0CD349085FEA30004FEA3C0CAF
:1002600004F101044FEA445212F5800F80F09A80A5
:10027000BCF1004F08BF5FEA500C50F1000041EBA9
:10028000045141EA050130BD5FEA4C0C404141EBAD
:100290000101013C28BFB1F5801FE9D291F0000FA8
:1002A00004BF01460020B1FA81F308BF2033A3F157
:1002B0000B03B3F120020CDA0C3208DD02F1140C4E
:1002C000C2F10C0201FA0CF021FA02F10CE002F189
:1002D0001402D8BFC2F1200C01FA02F120FA0CFC82
:1002E000DCBF41EA0C019040E41AA2BF01EB0451CB
:1002F000294330BD6FEA04041F3C1CDA0C340EDCC9
:1003000004F11404C4F1200220FA04F001FA02F30B
:1003100040EA030021FA04F345EA030130BDC4F1C9
:100320000C04C4F1200220FA02F001FA04F340EABE
:100330000300294630BD21FA04F0294630BD94F06F
:10034000000F83F4801306BF81F480110134013D56
:100350004EE77FEA645C18BF7FEA655C29D094EAC7
:10036000050F08BF90EA020F05D054EA000C04BF45
:100370001946104630BD91EA030F1EBF0021002030
:1003800030BD5FEA545C05D14000494128BF41F0CF
:10039000004130BD14F580043CBF01F5801130BD33
:1003A00001F0004545F0FE4141F470014FF00000BE
:1003B00030BD7FEA645C1ABF194610467FEA655C6F
:1003C0001CBF0B46024650EA013406BF52EA033511
:1003D00091EA030F41F4002130BD00BF90F0000FFF
:1003E00004BF0021704730B54FF4806404F132043B
:1003F0004FF000054FF0000150E700BF90F0000FF4
:1004000004BF0021704730B54FF4806404F132041A
:1004100010F0004548BF40424FF000013EE700BFEA
:1004200042004FEAE2014FEA31014FEA02701FBF7A
:1004300012F07F4393F07F4F81F06051704732F0AC
:100440007F4208BF704793F07F4F04BF41F4002103
:10045000704730B54FF4607401F0004521F0004161
:100460001CE700BF50EA010208BF704730B54FF0EB
:1004700000050AE050EA010208BF704730B511F0EC
:10048000004502D5404261EB41014FF4806404F124
:1004900032045FEA915C3FF4D8AE4FF003025FEAAA
:1004A000DC0C18BF03325FEADC0C18BF033202EB2E
:1004B000DC02C2F1200300FA03FC20FA02F001FA88
:1004C00003FE40EA0E0021FA02F11444BDE600BF2B
:1004D00070B54FF0FF0C4CF4E06C1CEA11541DBFDA
:1004E0001CEA135594EA0C0F95EA0C0F00F0DEF8A5
:1004F0002C4481EA030621EA4C5123EA4C5350EA8A
:10050000013518BF52EA033541F4801143F48013DA
:1005100038D0A0FB02CE4FF00005E1FB02E506F06B
:100520000042E0FB03E54FF00006E1FB03569CF0C0
:10053000000F18BF4EF0010EA4F1FF04B6F5007FC6
:1005400064F5407404D25FEA4E0E6D4146EB060638
:1005500042EAC62141EA55514FEAC52040EA5E50C1
:100560004FEACE2EB4F1FD0C88BFBCF5E06F1ED86B
:10057000BEF1004F08BF5FEA500E50F1000041EBA2
:10058000045170BD06F0004646EA010140EA02004F
:1005900081EA0301B4EB5C04C2BFD4EB0C0541EA71
:1005A000045170BD41F480114FF0000E013C00F386
:1005B000AB8014F1360FDEBF002001F0004170BDAA
:1005C000C4F10004203C35DA0C341BDC04F11404C3
:1005D000C4F1200500FA05F320FA04F001FA05F24F
:1005E00040EA020001F0004221F0004110EBD3701C
:1005F00021FA04F642EB06015EEA430E08BF20EA48
:10060000D37070BDC4F10C04C4F1200500FA04F3EA
:1006100020FA05F001FA04F240EA020001F000417C
:1006200010EBD37041F100015EEA430E08BF20EAEF
:10063000D37070BDC4F1200500FA05F24EEA020E37
:1006400020FA04F301FA05F243EA020321FA04F066
:1006500001F0004121FA04F220EA020000EBD3701D
:100660005EEA430E08BF20EAD37070BD94F0000F1D
:100670000FD101F00046400041EB010111F4801F51
:1006800008BF013CF7D041EA060195F0000F18BF02
:10069000704703F00046520043EB030313F4801F3E
:1006A00008BF013DF7D043EA0603704794EA0C0FF8
:1006B0000CEA135518BF95EA0C0F0CD050EA41060E
:1006C00018BF52EA4306D1D181EA030101F000418B
:1006D0004FF0000070BD50EA410606BF10461946B3
:1006E00052EA430619D094EA0C0F02D150EA0136BF
:1006F00013D195EA0C0F05D152EA03361CBF104600
:1007000019460AD181EA030101F0004141F0FE419E
:1007100041F470014FF0000070BD41F0FE4141F422
:10072000780170BD70B54FF0FF0C4CF4E06C1CEA22
:1007300011541DBF1CEA135594EA0C0F95EA0C0FD7
:1007400000F0A7F8A4EB050481EA030E52EA033592
:100750004FEA013100F088804FEA03334FF08055B3
:1007600045EA131343EA12634FEA022245EA1115E0
:1007700045EA10654FEA00260EF000419D4208BF91
:10078000964244F1FD0404F5407402D25B084FEA3E
:100790003202B61A65EB03055B084FEA32024FF4EA
:1007A00080104FF4002CB6EB020E75EB030E22BF47
:1007B000B61A754640EA0C005B084FEA3202B6EB07
:1007C000020E75EB030E22BFB61A754640EA5C00B6
:1007D0005B084FEA3202B6EB020E75EB030E22BF46
:1007E000B61A754640EA9C005B084FEA3202B6EB47
:1007F000020E75EB030E22BFB61A754640EADC0006
:1008000055EA060E18D04FEA051545EA16754FEA67
:1008100006164FEAC30343EA52734FEAC2025FEA85
:100820001C1CC0D111F4801F0BD141EA00014FF014
:1008300000004FF0004CB6E711F4801F04BF0143E5
:100840000020B4F1FD0C88BFBCF5E06F3FF6AFAE01
:10085000B5EB030C04BFB6EB020C5FEA500C50F191
:10086000000041EB045170BD0EF0004E4EEA113114
:1008700014EB5C04C2BFD4EB0C0541EA045170BD1B
:1008800041F480114FF0000E013C90E645EA060E5F
:100890008DE60CEA135594EA0C0F08BF95EA0C0F8D
:1008A0003FF43BAF94EA0C0F0AD150EA01347FF4D5
:1008B00034AF95EA0C0F7FF425AF104619462CE7AC
:1008C00095EA0C0F06D152EA03353FF4FDAE10460F
:1008D000194622E750EA410618BF52EA43067FF460
:1008E000C5AE50EA41047FF40DAF52EA43057FF4F0
:1008F000EBAE12E74FEA410212F5001215D211D504
:100900006FF47873B3EB625212D94FEAC12343F00C
:10091000004343EA505311F0004F23FA02F018BF8E
:10092000404270474FF00000704750EA013005D157
:1009300011F0004008BF6FF0004070474FF000001A
:10094000704700BF4FEA4102B2F1E04324BFB3F564
:10095000001CDCF1FE5C0DD901F0004C4FEAC00236
:100960004CEA5070B2F1004F40EB830008BF20F01A
:100970000100704711F0804F21D113F13872BCBFD4
:1009800001F00040704741F480114FEA5252C2F129
:100990001802C2F1200C10FA0CF320FA02F018BF72
:1009A00040F001004FEAC1234FEAD32303FA0CFCC5
:1009B00040EA0C0023FA02F34FEA4303CCE77FEA54
:1009C000625307D150EA01331EBF4FF0FE4040F49E
:1009D0004000704701F0004040F0FE4040F400004D
:1009E000704700BF7BB972B90029BEBF00204FF02D
:1009F000004106E008BF00281CBF6FF000414FF027
:100A0000FF3000F075B8ADF1080C6DE904CE002997
:100A100009DB002B1ADB00F042F9DDF804E0DDE928
:100A2000022304B07047404261EB4101002B1BDB05
:100A300000F035F9DDF804E0DDE9022304B04042BE
:100A400061EB4101524263EB43037047524263EB57
:100A5000430300F024F9DDF804E0DDE9022304B0EB
:100A6000404261EB41017047524263EB430300F0A7
:100A700016F9DDF804E0DDE9022304B0524263EB2D
:100A80004303704753B94AB9002908BF00281CBF67
:100A90004FF0FF314FF0FF3000F02AB8ADF1080CF5
:100AA0006DE904CE00F0FBF8DDF804E0DDE9022397
:100AB00004B07047D0B500220B4B06460F46FFF737
:100AC00007FD00F09FF80446FFF788FC0022074B63
:100AD000FFF7FEFC02460B4630463946FFF740FB67
:100AE00000F090F82146D0BD0000F03D0000F0413C
:100AF000704700BF4FF0FF3C06E000BF4FF0010C15
:100B000002E000BF4FF0010C4DF804CD4FEA410C5C
:100B10007FEA6C5C4FEA430C18BF7FEA6C5C1BD029
:100B200001B050EA410C0CBF52EA430C91EA030FAA
:100B300002BF90EA020F0020704710F1000F91EA07
:100B4000030F58BF994208BF90422CBFD8176FEAD5
:100B5000E37040F0010070474FEA410C7FEA6C5CA3
:100B600002D150EA013C07D14FEA430C7FEA6C5CAA
:100B7000D6D152EA033CD3D05DF8040B704700BFD6
:100B80008446104662468C461946634600E000BF24
:100B900001B5FFF7B7FF002848BF10F1000F01BDF6
:100BA0004DF808EDFFF7F4FF0CBF012000205DF8C1
:100BB00008FB00BF4DF808EDFFF7EAFF34BF012046
:100BC00000205DF808FB00BF4DF808EDFFF7E0FFDF
:100BD00094BF012000205DF808FB00BF4DF808ED30
:100BE000FFF7CEFF94BF012000205DF808FB00BF97
:100BF0004DF808EDFFF7C4FF34BF012000205DF879
:100C000008FB00BF4A0011D212F5001211D20DD517
:100C10006FF47873B3EB62520ED44FEAC12343F002
:100C2000004343EA505323FA02F070474FF00000AC
:100C3000704750EA013002D14FF0FF3070474FF05B
:100C4000000070474FEA410C7FEA6C5C02D150EA29
:100C5000013C0AD14FEA430C7FEA6C5C02D152EAB4
:100C6000033C02D14FF0000070474FF00100704785
:100C700038B50022002304460D46FFF79BFF28B934
:100C800020462946BDE83840FFF714BF204605F14D
:100C90000041FFF70FFF404261EB410138BD2DE9F4
:100CA000F04786468C460846089E15467446194607
:100CB000002B40F0C1808542B2FA82F245D94AB198
:100CC000C2F1200300FA02FC954094402EFA03F38F
:100CD00043EA0C0C4FEA154EA8B2230CBCFBFEF8FD
:100CE0000EFB18CC08FB00F943EA0C43994528D9C0
:100CF000EB1808F1FF3704D2994502D9A8F1020791
:100D00002B44A3EB0903A4B2B3FBFEFC0EFB1C3384
:100D10000CFB00F044EA0344A04214D92C190CF156
:100D2000FF3304D2A04202D9ACF102032C44241AAE
:100D300043EA07401EB1D440002334607360BDE82D
:100D4000F0874746DDE76346F1E792BB431B01218D
:100D50004FEA154EAFB2200CB3FBFEFC0EFB1C336A
:100D60000CFB07F840EA0343984561D9EB180CF1F6
:100D7000FF3004D2984502D9ACF102002B44A3EB1A
:100D80000803A4B2B3FBFEFC0EFB1C330CFB07F7FD
:100D900044EA0344A7424DD92C190CF1FF3304D285
:100DA000A74202D9ACF102032C44E41B43EA004001
:100DB000C0E7C2F120039540944020FA03F12EFAD7
:100DC00003F34FEA154E9040AFB20343B1FBFEFC74
:100DD0000EFB1C10190C0CFB07F841EA004188457A
:100DE00022D969180CF1FF3004D2884502D9ACF140
:100DF00002002944A1EB08019BB2B1FBFEFC0EFBF3
:100E00001C110CFB07F743EA01439F420ED9EB1874
:100E10000CF1FF3104D29F4202D9ACF102012B4404
:100E2000DB1B41EA004193E76046E3E76146F7E7F1
:100E30006046A4E76346B8E7834206D916B90021A5
:100E400008467CE7C6E900E0F9E7B3FA83F78FB913
:100E5000834201D3724508D8BEEB020460EB030362
:100E600001209C461EB9002169E73846FAE7C6E929
:100E7000004CF8E7C7F1200CBB400EFA07F522FA48
:100E80000CF42EFA0CF1BA401C4320FA0CF3B840D3
:100E90004FEA144901431FFA84FEB3FBF9F809FB3A
:100EA00018300B0C08FB0EFA43EA00439A4540D970
:100EB000E31808F1FF3004D29A4502D9A8F10200E4
:100EC0002344A3EB0A0389B2B3FBF9F809FB1833F7
:100ED00008FB0EFE41EA03418E452CD9611808F14A
:100EE000FF3304D28E4502D9A8F10203214443EA1C
:100EF0000040A1EB0E01A0FB02984145CE464346BF
:100F000002D306D14D4504D20138B9EB020E68EB8D
:100F10000403002EA7D0B5EB0E0261EB030101FA2A
:100F20000CFC22FA07F3F9404CEA0303C6E900314E
:100F300099E74046C5E74346D9E770B4840746D0F1
:100F40004C1E002941D0D5B2034602E0611EE4B335
:100F50000C4603F8015B9907F8D1032C2ED9D5B2C2
:100F600045EA05250F2C45EA054519D9264603F122
:100F70001001103E0F2E41F8105C41F80C5C41F856
:100F8000085C41F8045C01F11001F2D8A4F11001F1
:100F900021F00F0104F00F041031032C0B440DD984
:100FA0001E4621460439032946F8045BFAD8211F5E
:100FB00021F0030104310B4404F003042CB1D2B23C
:100FC0001C4403F8012BA342FBD170BC70470C46B4
:100FD0000346C2E710F8012B11F8013B012A28BF94
:100FE0009A42F7D0D01A7047034613F8012B002A13
:100FF000FBD1181A0138704710B584460C460C48CE
:10100000ACFB000108A3D3E900234FF0070E0EFB51
:101010000C11FFF737FD074B1B68074A02FB030063
:10102000204410BDAFF3008000CA9A3B00000000CE
:101030008D49FD1AB4DB00200080841E00000000F2
:101040002DE9F04D2DED028B88B000AF05464068CC
:101050008368DB683C219847041EC0F233816868CE
:1010600083681B6907F118021F219847041EC0F20C
:101070002981686883681B6907F11002212198475C
:10108000041EC0F21F81686883681B6907F10802AB
:1010900022219847041EC0F21581914B1B6803F072
:1010A0000703022B40F215812E68B869FFF7A6F9F5
:1010B00004460D46F869FFF7A1F987A3D3E9002399
:1010C000FFF730FB02460B4620462946FFF74AF859
:1010D00000220023FFF746F841EC180B3869FFF7B0
:1010E0008DF904460D467869FFF788F97AA3D3E9AC
:1010F0000023FFF717FB02460B4620462946FFF761
:1011000031F80022774BFFF7E3F900220023FFF7C5
:1011100029F882468B46B868FFF770F904460D46F9
:10112000F868FFF76BF96CA3D3E90023FFF7FAFA2D
:1011300002460B4620462946FFF714F80022694B69
:10114000FFF7C6F900220023FFF70CF841EC170B5C
:101150006D4600233B7102237B711C230C2213F08C
:10116000070F02D10832083304E004320433F6E7F3
:101170000432043313F0070FFAD10832083301E0C8
:101180000432043313F00704FAD102F10A0C634667
:10119000213222F00702ADEB020D6A46BCF1000FCE
:1011A0007AD002F11008BCF1030F73D9B8F1000F27
:1011B00004D0BCF1040F01DD4B4B536100233B70A5
:1011C00002237B70B8F1000F03D0BCF1080F00DDE3
:1011D00096611C210C200B4611F0070F0DD186469D
:1011E000B8F1000F05D0604503DA08EB000181ED8E
:1011F000008B0EF1080E083305E004300431EAE7F5
:101200000EF1040E0433194613F0070FF8D1764699
:10121000B8F1000F05D0E64503DA08EB0E03C3E989
:1012200000AB083601F1080301E00436043313F083
:10123000070FFAD13346B8F1000F05D0664503DA3F
:1012400008EB060181ED007B03F108060A33B8F1D3
:10125000000F0DD008EB0601002007E000F1200E82
:10126000BE441EF820EC01F801EB01300128F5D94D
:101270009C4501DA6FF01B03B8F1000F0CD0C6F3E8
:1012800087063E7100217971B9710121F971786881
:10129000106101E06FF01B0300216FF300016FF399
:1012A00041016FF382016FF3C501032060F38811E0
:1012B00063F353216FF31F511032002308480CF0E1
:1012C0008DFBAD4620462037BD46BDEC028BBDE808
:1012D000F08D0024F6E700BF0000000080842E415E
:1012E000D811002000408F40641605000000000067
:1012F0002DE9F04F8DB009900D4617464BF0C8FE12
:101300004B0143EAD0634401241A63EB01039B00C1
:1013100043EA9473A400241843EB0101C90041EA95
:101320005471C4F3103444EA41444FEAD139012DD9
:1013300065D07D6829463C48FFF74CFE28B1294618
:101340003A48FFF747FE002861D135A3D3E90023CF
:1013500020464946FFF746FB80460A9130A3D3E971
:10136000002320464946FFF73DFB15461C46304A00
:10137000002328462146FFF735FB06460F462C4A38
:10138000002328462146FFF72DFB15461C464EF646
:101390006022002328462146FFF724FB81460B915B
:1013A0004EF66022002328462146FFF71BFB154618
:1013B0001C464FF47A72002328462146FFF712FBA1
:1013C00083468A464FF47A72002328462146FFF767
:1013D00009FBCDE90623CDF810B0CDF814A0CDF867
:1013E00008900B9A03920096019742460A9B114976
:1013F000099841F05BFB00200DB0BDE8F08F22465C
:101400004B460D49099841F051FB0020F4E72A466C
:101410000A49099841F059FB6FF00400ECE700BF5E
:10142000005C260500000000682E05006C2E0500FB
:1014300080EE3600902E0500542E0500782E050013
:1014400030B589B00C9D00283FD00446002949D012
:10145000D0F8200110F0010F51D10020C4F808018C
:10146000C4F80C0104F58870C4F81001C4F8140124
:1014700004F58C70C4F81801C4F81C01002D4BD081
:10148000287900284AD10120C4F820019FED267B4D
:101490008DED067B00200490039302900190009450
:1014A000234B20462AF012FC55B1296811B1204681
:1014B0002AF0C6FA6B791BB1237B43F00103237337
:1014C00020464BF08DFC09B030BD1A4C40F2DF23B2
:1014D0002246194919483FF079FE40F2DF212046A3
:1014E00007F0B4FE134C4FF43873224614491348E6
:1014F0003FF06CFE4FF43871204607F0A7FE0D4C0C
:1015000040F2E12322460F490C483FF05FFE40F2D3
:10151000E121204607F09AFE0120B5E740F20110D4
:10152000B2E700BFAFF30080FFFFFFFFFFFFFFFF49
:1015300025B30200CCBB0500B4BC05005CEC040084
:10154000BCBC0500C4BC05009FED010B704700BF8B
:10155000000000000000F87F2DE9F04F1F469DB00D
:1015600000230C4682460F9218934FF00008984BC8
:101570004FF000091D682846FFF736FD22468346D6
:10158000179213782B2B3BD02CD80D2B26D8082B59
:1015900026D8002B2FD000230D93179E3378302BA5
:1015A00074D1737803F0DF03582B65D10D9B17A915
:1015B000884A5046019318AB0297009319AB3DF04F
:1015C000BDFB10F00705044635D0062D1AD10F9B40
:1015D0000BB101361E6042464B4637E0202BDAD174
:1015E0000132CDE72D2BD6D101230D93531C179338
:1015F0005378002BD1D10F9B002BECD01C60EAE775
:101600000023F2E7189A3AB135211AA84CF0D7FA1C
:10161000189950463DF012FE013D199A042D06D846
:10162000DFE805F0190322251900DDE91A892107F1
:1016300001D549F000490F9B13B1179B0F9A136016
:101640000D9B002BC7D0424609F1004343EC102B01
:101650001DB0BDE8F08FDDE91A8302F2334223F4B6
:10166000801343EA0259E2E7DFF86C91DFE76FF09D
:1016700000494FF0FF38DAE7179B5A1C17925B7846
:10168000302BF9D0002BD6D0012300E00023002717
:1016900004930A22179BCDE905770A9317980678D9
:1016A000A6F13003D9B2092924D95A4629464BF06C
:1016B000B1FF00282DD000203246059D8346034609
:1016C000652A01D0452A13D11DB9049A024392D04C
:1016D0000025179C621C179262782B2A6ED02D2A47
:1016E00072D04FF0000CA2F1300109297AD9179479
:1016F000002699E00599013008291790D7BF06996F
:1017000002FB073702FB01330693059B0133059368
:10171000C4E7179B03EB0B02179213F80B20059BF2
:10172000A3B383461D46A2F13003092B12D901232E
:10173000C6E7179B01305A1C17925A78302AF8D006
:10174000A2F13103082B00F2EF8483460020179B9F
:1017500005460A93303A00F1010311D09B4400EB97
:10176000050C2B460A21634512D12B180135082B95
:10177000054419DC06990A2303FB01230693002381
:10178000179A1846511C17915278CCE70598D5E75F
:10179000082B03F1010303DC069E4E430696E2E7A5
:1017A000102BD8BF4F43DEE70F2BDCBF0A2303FB10
:1017B0000727E4E74FF0000B012386E74FF0000C0A
:1017C000A21C1792A2788EE74FF0010CF8E700BF39
:1017D00080EE050068EE05000000F07F179A511CAE
:1017E00017915278302AF9D0A2F1310108293FF639
:1017F0007FAF303A0792179A0C92179A561C179699
:101800005278A2F1300EBEF1090F38D90C99761A30
:10181000082E44F61F6603DC07998E42A8BF0E46C9
:10182000BCF1000F00D07642002D4FD1049908433F
:101830007FF401AF002B7FF4DEAE692A29D026DCCD
:10184000492A26D04E2A7FF4D6AE9B4917A84CF0E1
:101850004BF800283FF4CFAE179B1B78282B2FD1D5
:101860001AAA964917A84CF053F8052828D11B9BB3
:10187000DDF8688043F0FF4949F4E009DBE6079EA4
:101880000A2101FB0621A1F130020792B5E76E2A79
:10189000D9E78B4917A84CF027F800283FF4ABAEE6
:1018A000179B17A88749013B17934CF01DF810B9F7
:1018B000179B01331793DFF81C924FF00008BAE62C
:1018C0008148FFF741FE59EC108BB4E6A6EB0B0301
:1018D00006982C460C93059B002B08BF2B46102D19
:1018E0000593A8BF1024FEF779FD092D804689468F
:1018F00013DC0C9B002B3FF49EAE0C9B78DD162B6B
:1019000045DC7249424601EBC3014B46D1E9000177
:10191000FEF7DEFD804689468DE66C4B03EBC40383
:1019200053E91223FEF7D4FD804689463846FEF778
:1019300055FD02460B4640464946FEF713FC0F2D67
:1019400080468946D5DD2C1B0C9B1C44002C25DCD5
:1019500000F0A280644214F00F020AD05B4B4046B4
:10196000494603EBC203D3E90023FEF7DBFE8046C2
:101970008946241100F090801F2C40F3B18022236F
:101980004FF000084FF00009CAF8003053E6C5F1E7
:1019900025030C9A934219DA2C1B144414F00F03FC
:1019A0000AD04A49424601EBC3014B46D1E9000146
:1019B000FEF78EFD8046894634F00F046CD0B4F5F6
:1019C0009A7F41DD2223CAF8003074E7C5F10F0584
:1019D0003E4C42464B4604EBC501D1E90001FEF7FF
:1019E00077FD0C9B5D1B04EBC504D4E900238FE756
:1019F0001633A8DBABEB0602344B4046494603EBFB
:101A0000C203D3E90023FEF78DFE83E7002306938C
:101A10002223DFF8C0904FF00008CAF80030189970
:101A200050463DF00BFC069950463DF007FC0599E9
:101A300050463DF003FC109950463DF0FFFB0799DE
:101A400050463DF0FBFBF6E5002324114046494695
:101A50001F4F0493012C22DC0BB180468946049B66
:101A6000A9F154791A49424601EBC3014B46D1E929
:101A70000001FEF72DFD174B0A4680460B40164924
:101A80008B429FD8A1F580118B4286BFDFF84C9026
:101A90004FF0FF3802F15479002304934BE0E20742
:101AA00004D5D7E90023FEF713FD0123049A64103F
:101AB000083701320492CDE71437060054EE0500D2
:101AC0000C3706003E370600D238060068EA0400EC
:101AD00040EA04000000F07F0000A07CFFFFEF7FE1
:101AE00014F0100340464946AA4F18BF6A230493D6
:101AF0000023E20704D5D7E90023FEF7E9FC012320
:101B0000641007F10807F4D10BB180468946049BA5
:101B100043B1C9F30A524946C2F16B03002B4EDCB4
:101B20006A2304930022002340464946FFF738F811
:101B300000287FF424AF069B5046059A00932B465D
:101B40000A993DF0E5FB109000283FF43BAF0C9B59
:101B5000ABEB060B002BB4BF5B46002311930C9B31
:101B600023EAE3731393002307930593109B5046D6
:101B700059683DF023FB069000283FF449AF109BC5
:101B80000C301A6903F10C01023292004BF0EBFBAE
:101B90001AAA19A9504649EC108BCDE90A893DF0E3
:101BA00093FE189000283FF433AF012150463DF0DA
:101BB000F9FB03460590D0B90023059328E71F2BB6
:101BC0000EDD342B4FF00008DBBF4FF0FF33C2F1C6
:101BD0004B024FF05C799340D8BF03EA01099FE7BD
:101BE0004FF0FF3202FA03F303EA080898E7199C62
:101BF0001A9A002CA9BF119B139BE718139EB8BF1C
:101C00001E1B049BB8BF119FE41A634B1444C2F11E
:101C10003602013C9C4280F2B0801B1B01251F2B29
:101C2000A2EB0302CDBFC4F17F449D40002404F524
:101C30007F04C2BF04F57B44E23405FA04F407EBE9
:101C4000020B049B16445F451E443B46A8BF5B46FF
:101C5000B342A8BF3346002BC2BFABEB030BF61A4F
:101C6000FF1A119B002B16DD1A46059950463DF0D0
:101C700059FC059000289FD00146189A50463DF027
:101C8000A7FB0E9000283FF4C3AE189950463DF0D4
:101C9000D5FA0E9B1893BBF1000F71DC0C9B002B47
:101CA00008DD139A504606993DF03CFC069000284A
:101CB0003FF4ACAE002E08DD3246069950463DF0AA
:101CC0008BFC069000283FF4A1AE002F08DD3A46B9
:101CD000059950463DF080FC059000283FF498AEF1
:101CE000069A504618993DF0E3FC079000283FF40F
:101CF0008FAEC36805990E930023C3604BF012FFAB
:101D000000284BDA0E9B53EA080340F0BC80C9F36D
:101D10001303002B40F0B78029F000431B0D1B0577
:101D2000B3F1D66F40F2AF80079B5B6923B9079B85
:101D30001B69012B40F3A7800122079950463DF013
:101D40004BFC059907904BF0EDFE002840F39B807B
:101D500029F00043049A1B0D1B05002A79D0B3F12A
:101D6000D66F6DD8B3F15C7F46D84FF000084FF0C6
:101D700000092223CAF8003051E6002401255EE75D
:101D80005A46189950463DF027FC1890002885D1F6
:101D90003EE600BF18EA040002FCFFFFCB4640F01D
:101DA000A3800E9AC9F31303002A40D09C4A9342A1
:101DB00058D1049B42467BB9B8F1FF3F40F089807F
:101DC000984B99453FF424AE974BDDF8108009EA13
:101DD000030303F5801922E6934B09EA0303B3F1E9
:101DE000D46F16D918F101011BD18E4A91453FF4E9
:101DF0000FAE03F5801980468C4B404649460022C1
:101E0000FEF766FB0B468046894603437FF407AE28
:101E1000AFE71E0D4FF0FF31C6F16B06B1408845AC
:101E2000E7D0002C5ED014EA0B0FE5D01EE0002BAB
:101E30004AD1B8F1000F8BD064B314EA0B0F2BE03A
:101E4000A3F580134FF0FF386FEA13596FEA095971
:101E5000D2E7A3F580134FF0FF386FEA13596FEA0A
:101E60000959DCE59CB114EA090F0CD040464946FB
:101E7000049A4BF016FCDDE90A0153EC102BFEF737
:101E800071F980468946049B002BB5D1C7E515EA58
:101E9000080FEAE718EA050FF5D0049A40464946CC
:101EA0004BF0FFFBDDE90A0153EC102BFEF758F96C
:101EB0000022002304460D46FEF772FE00287FF440
:101EC00054AFA046A946DEE7002CB6D115EA080FAC
:101ED000E2E724B114EA090F3FF4A1ADC6E718EA1E
:101EE000050FF9E72A42A0E7059907984BF035FE60
:101EF00000224FF0804355EC104B20462946FEF758
:101F000063FE00286DD00E9B002B78D1B8F1000F36
:101F100056D1C9F31303002B59D10022444B20465C
:101F20002946FEF747FE002858D1204629460022C0
:101F3000404BFEF7CDFA04460D4605F100430894E8
:101F40000993394B0BEA03031293129A3A4B9A42C4
:101F5000DDE9086740F0A980ABF1547949EC108BBA
:101F60003DF03EFCDDE9082351EC100BFEF7B0FA22
:101F700042464B46FEF7F6F80B462B4980462F4A61
:101F8000194091425CD90B9A264B9A4203D10A9B85
:101F900001333FF43DADDFF88C904FF0FF381899D6
:101FA00050463DF04BF9069950463DF047F90599EA
:101FB00050463DF043F9079950463DF03FF9D5E5CD
:101FC000B8F1010F03D1B9F1000F3FF4CEAE0024F8
:101FD000174D9FED0F7B8DED087BB2E70024154D6B
:101FE000ABE7144B204629460022FEF771FA0E9B00
:101FF00004460D46002BA0D0CDE90845A1E79FED92
:10200000067B55EC174B8DED087B9AE7AFF300800C
:10201000000000000000F0BF000000000000F03FE2
:10202000FFFF0F00FFFFEF7F0000F07F000050393F
:102030000000F03F0000E03F0000E07FFFFF9F7CDA
:1020400003F15479049B4E46002BA8D129F000439C
:10205000129A1B0D1B059A42A1D120462946FEF774
:1020600007FEC9F31306FEF705FA0B46024629469A
:10207000204646EA0806FEF773F80E9B04460D4616
:102080001E434BD02EA3D3E90023FEF793FD002877
:102090007FF4C5AC204629462BA3D3E90023FEF7E5
:1020A000A7FD00283FF47BAFB9E4049B13B3129B58
:1020B000B3F1D46F1ED82046294625A3D3E90023C7
:1020C000FEF782FD90B129462046FEF79BFD0128D0
:1020D00038BF0120FEF782F90E9B04460D46D3B9A6
:1020E00001F1004314901593DDE9146707F1D663FD
:1020F000129A9F1A9DED0A0B3DF072FB304639464D
:1021000053EC102BFEF7E4F9DDE90A23FEF72AF879
:102110008046894696E7CDE91445E5E70EA3D3E965
:102120000023FEF747FDBCE7652A3FF443AB452A91
:102130003FF440AB0123FFF779BB00BFAFF3008052
:102140009535A094FFFFDF3F35E5AF350000E03F58
:102150000000C0FFFFFFDF419535A094FFFFCF3F98
:102160002DE9F04F476A97B08346209E08910C9264
:10217000129355EC104B8DED000B7FB910203CF005
:1021800059F80246CBF8240020B9A74BEA21A7480A
:102190003DF0F2FBC0E901770760C760DBF824304F
:1021A000196859B15A680123584693404A608B60B8
:1021B0003DF044F8DBF8243000221A602B1EB7BF34
:1021C00023F00043002301220193A8BF3360019F45
:1021D000974BB8BF3260BB4319D142F20F73129ACA
:1021E0001360C7F31303234300F0DB85219B53B92E
:1021F000904B21E0904B03930833219A136003988E
:1022000017B0BDE8F08F8B4B03930333F5E79DEDDB
:10221000007B0022002351EC170B8DED0A7BFEF7AB
:10222000BFFC804650B10123129A1360219B13B169
:10223000824B219A1360824B0393E0E7C7F30A565F
:1022400014AA15A958469DED0A0B3DF03DFB0290DE
:10225000002E76D00B9BA6F2FF36CDF84C80C3F350
:10226000130343F07F53DDE90A0143F44013194699
:102270000022744BFDF774FF65A3D3E90023FEF73A
:1022800027F965A3D3E90023FDF76CFF04460D464B
:102290003046FEF7B3F862A3D3E90023FEF718F93E
:1022A00002460B4620462946FDF75CFF04460D46D4
:1022B000FEF720FB00220746002320462946FEF7B2
:1022C00079FC40B13846FEF799F822462B46FEF7D6
:1022D00067FC00B9013F162F52D85B4B03EBC703D5
:1022E000DDE90A01D3E90023FEF764FC002849D0A8
:1022F000013F00231193149B9B1B5A1E4CBFC3F13B
:1023000001030023079245BF06930023069307931A
:10231000002F39DB079B10973B4407930023099359
:10232000089B092B66D8052BC5BF043B002401245C
:102330000893089B023B032B67D8DFE803F02D3A94
:102340003859DDE914631E4406F23243202BC9BF1D
:10235000C3F14003C3F120039F4006F21243D8BFEC
:1023600004FA03F006F1FF36C4BF24FA03F347EA88
:102370000300FEF733F80122A1F1F873139276E718
:102380000123B7E71190B6E7069BDB1B06937B4260
:10239000099300231093C3E700230D930C9B002B9C
:1023A00056DC012399461A4604930C920CE0012353
:1023B000F3E700230D930C9BFB1803F10109049331
:1023C0004B46012BB8BF0123DBF824000021042277
:1023D00002F114059D423FD9416058463CF0EEFEA3
:1023E000039000283BD1194B02464FF4D571CEE63D
:1023F0000123DFE7012400230D9408934FF0FF33FE
:102400000022994604931223CFE701230D93F5E7A9
:1024100061436F63A787D23FB3C8608B288AC63FEA
:10242000FB799F501344D33F483706005F370600BF
:102430000000F07F443706003B37060018370600DF
:10244000173706000000F83F68EA0400BB370600B3
:102450000C9B99460493B7E701315200B8E7DBF8CB
:102460002430B9F10E0F039A1A606FD8002C6DD08A
:10247000002F36DD07F00F02A04BF8054FEA2714B6
:1024800003EBC20393ED007B8DED0E7B17D59C4BC8
:1024900004F00F044FF00308D3E90823DDE90A0133
:1024A000FEF740F9CDE90001954D5CB9DDE90E2359
:1024B000DDE90001FEF736F9CDE900012BE04FF030
:1024C0000208F1E7E10709D508F10108DDE90E018D
:1024D000D5E90023FDF7FCFFCDE90E0164100835B6
:1024E000E3E700F007817C42844B854D4FF0020802
:1024F00004F00F02241103EBC203DDE90A01D3E962
:102500000023FDF7E5FF0023CDE90001002C40F09A
:10251000E580002BD0D1119BDDE90045002B00F0B8
:102520004C810022774B20462946FEF743FB0028CA
:1025300000F04381B9F1000F00F03F81049B002BB4
:1025400000F3E480DDE90A34CDE90034159B002B6B
:1025500002DB0E2F40F342820D9A002A40F0678280
:10256000099C0025DDF81880B8F1000F0DD0079BFD
:10257000002B0ADD4345069AA8BF4346D21AA8EBB2
:1025800003080692079AD31A0793099B0BB30D9B76
:10259000002B00F0A682002C00F0A18229462246E2
:1025A00058463CF0BFFF029A0146054658463CF0AB
:1025B0000FFF0299064658463CF040FE099B1B1B44
:1025C000099300F09182099A314658463CF0AAFFDF
:1025D0000290012158463CF0E5FE109B0446002B7A
:1025E00000F084821A46014658463CF09BFF089B47
:1025F0000446012B03DC009B002B00F07C820026AC
:10260000236904EB830318694BF03DFAC0F1200005
:102610001096079B184410F01F0000F09182C0F143
:102620002003042B40F38182C0F11C00069B03446D
:1026300080440693079B03440793069B002B05DD0C
:102640001A46029958463CF0C7FF0290079B002BA0
:1026500005DD21461A4658463CF0BEFF0446119B54
:10266000002B00F07682214602984BF05BFA00289E
:1026700080F26F8200230A22029958463CF000FE45
:102680000D9B7E1E0290002B00F05C8200232946E9
:102690000A2258463CF0F4FD049B0546002B03DC5F
:1026A000089B022B00F35E82B8F1000F05DD29467E
:1026B000424658463CF090FF0546109B002B00F028
:1026C000D082696858463CF079FD0746002840F002
:1026D0007F820D4B024640F2EA2158E5E20706D51B
:1026E00008F10108D5E90023FDF7F2FE012364108B
:1026F00008350BE74FF002080DE700BF68EA040059
:1027000040EA04000000F03FBB37060020460022EC
:10271000AC4B2946FDF7DCFE7E1E08F10108049C47
:10272000CDE900014046FDF769FEDDE90023FDF734
:10273000CFFEA54B0022FDF715FDA1F15073CDE9A9
:102740000E010F93002C3BD10022A04BDDE90001CC
:10275000FDF706FD02460B46CDE90023DDE90E2319
:10276000FEF746FA002840F05781DDE90E2101F11D
:102770000043DDE90001FEF71DFA00283FF4E2AE58
:10278000002425460C9BDDF80CA0DE434FF000082A
:10279000214658463CF052FD002D00F0A980B8F1CA
:1027A000000F05D0A84503D0414658463CF046FDF1
:1027B000294658463CF042FD9AE03E464C46B1E779
:1027C000834B03EBC40353E90201039B1C440D9BA1
:1027D000002B4AD002460B4600207E49FDF7A2FF9F
:1027E000DDE90E23FDF7BCFCDDF80CA0CDE90E0100
:1027F000DDE90001FEF77EF80546FDF7FFFD024624
:1028000030350B46DDE90001FDF7AAFC0AF8015B53
:1028100002460B46CDE90001DDE90E01FEF7E8F9BD
:10282000002865D100206C49DDE90023FDF798FC04
:1028300002460B46DDE90E01FEF7DAF9002840F00A
:102840000D81A24500F0EA8000225E4BDDE90E0119
:10285000FDF73EFE00225B4BCDE90E01DDE90001F4
:10286000FDF736FECDE90001C2E7DDE90E23FDF7F5
:102870002FFEA046DDF80CA0CDE90E01DDE9000138
:10288000FEF738F80546FDF7B9FD024630350B4630
:10289000DDE90001FDF764FC0AF8015B02460B4626
:1028A000A245CDE900234FF0000223D1494BDDE9D9
:1028B0000E01FDF757FC02460B46DDE90001FEF76D
:1028C00097F9002840F0CA8000204249DDE90E2334
:1028D000FDF746FC02460B46DDE90001FEF76AF90A
:1028E00070B1C24608F1FF381AF8013C302BF8D01D
:1028F000374655E0334BFDF7EBFDCDE90001BDE771
:10290000DDE90A34CDE90034159B002BFFF628AE33
:102910000E2F3FF725AE2E4B03EBC70393ED007B45
:102920000C9B002B8DED047B02DAB9F1000F64D013
:10293000DDF80CA0DDE90045DDE904232046294649
:10294000FDF7F0FEFDF7D6FF0646FDF757FDDDE982
:102950000423FDF7BDFD0246204606F130040B4678
:102960002946FDF7FDFB0AF8014B039C02460B4686
:10297000AAEB0404A14540F08280FDF7F3FB044676
:102980000D46DDE90423FEF733F9002865D1204622
:102990002946DDE90423FEF703F908B1F3075CD407
:1029A000029958463CF04AFC002301378AF800306F
:1029B000129B1F60219B002B3FF421ACC3F800A0A9
:1029C0001DE400BF0000244000001C400000144033
:1029D00068EA04000000E03F0000F03FA24B03EB78
:1029E000C70393ED007B0C9B002B8DED047B9FDADE
:1029F000B9F1000F9CDC7FF4C3AE00229B4BDDE9F4
:102A00000401FDF765FDDDE90023FEF7E7F8044664
:102A100000287FF4B5AE3E462546B4E0DDE90A3431
:102A2000CDE90034159B002B01DB0E2FD6DD089A73
:102A3000012A36DC139A82B303F23343099CDDF892
:102A40001880069A012158461A440692079A1A4499
:102A500007923CF0A7FC054686E53E4653469A465B
:102A600013F8012D392A06D1039A9A42F7D1302260
:102A7000039901360A701A7801321A7038E7002279
:102A80007B4BFDF725FD0022002304460D46FEF793
:102A900087F800283FF450AF82E7149BC3F1360358
:102AA000CCE709F1FF34099BA34208DBB9F1000F21
:102AB000A3EB04040EDBDDF818804B46C1E7099B4D
:102AC000109AE31A0994DDF8188000241A444B4642
:102AD0001092B6E7069BA3EB09080023B1E7029E1C
:102AE00071E5099A029970E5029672E5089B012B3F
:102AF00017DC009BABB9019BC3F313039BB9019B8C
:102B000023F00046360D360536B1069B012601330B
:102B10000693079B01330793109B002B7FF470AD46
:102B20001096012075E50026F6E73FF486AD1C33CC
:102B3000069A1A4498440692079A1A4407927CE52A
:102B40000346F4E7049B002B2BDC089B022B09DCDB
:102B500027E0B9F1000F1DDC089B022B1ADD3E4671
:102B6000CDF81090049B002B7FF40CAE214605227B
:102B700058463CF085FB0146044602984AF0D2FFD5
:102B800000287FF7FFADDDF80CA0312301360AF8ED
:102B9000013BFBE50D9B3E46CDF81090002B7FF4EA
:102BA00083AD039F214602984AF099FD039B00F1F3
:102BB0003009049A07F8019BFB1A9A4240F3CB8034
:102BC00000230A22029958463CF05AFB0290E9E79A
:102BD0002A6905F10C010C30023292004AF0C3FB65
:102BE0000122394658463CF0F7FC039BA8460546AF
:102BF00003F1010ADDE9032313440793009B03F06B
:102C0000010309930AF1FF332146029804934AF025
:102C100066FD4146069000F1300902984AF082FFB5
:102C20002A462146074658463CF042FDC268014606
:102C300002B358463CF002FB002F3ADA0122029917
:102C400058463CF0C9FC214602904AF06BFF002830
:102C500003DC29D119F0010F26D0B9F1390F1DD1AC
:102C600032E02846C1E700BF68EA040000001440D3
:102C7000000024400A9002984AF054FF0A990C90F0
:102C800058463CF0DBFA0C9A5ABB089B53B9099B97
:102C900043B9B9F1390F17D0002F05DD069B03F1B9
:102CA000310901E0002F2ADADDF810A00AF8019BB3
:102CB0006EE5089B3B4304D1009B03F00103002B0E
:102CC000BCD0B9F1390F36D1049F392307F8013B45
:102CD000BA46013F1AF8013C392B5AD001333B70F8
:102CE00056E5002F06DB089B3B4306D1009B03F013
:102CF000010313B9002AA1DCD6E7002AE1DC079B17
:102D000057460AF8019C53452ED000230A22029907
:102D100058463CF0B5FAA84502904FF000034FF03A
:102D20000A02414658460BD13CF0AAFA80460546B5
:102D30000AF1010A66E7DDF810A009F10109B5E71B
:102D40003CF09EFA2946804600230A2258463CF071
:102D500097FA0546ECE7049B4FF00008002BCCBF28
:102D60001F460127039B1F440122029958463CF04D
:102D700033FC214602904AF0D5FE0028A8DC02D19F
:102D800019F0010FA4D1BA4617F8013D302BFAD043
:102D9000FEE4039BBB429BD13123039A013613709F
:102DA000F6E4219B002B7FF425AA014BFFF744BAE0
:102DB0003B37060090B585B000AF4E4B1B6803F063
:102DC0000703022B71D96C4600233B7202237B72EE
:102DD0000122BA720322FA723B7304237B738CB014
:102DE000EC461CF110022DD04FF01A0E2AB1BEF1A4
:102DF000040F02DD404BCCF8143000233B72022359
:102E00007B722AB1BEF1080F02DD3C4BCCF81830C2
:102E10000123BB720323FB722AB1BEF10C0F02DD4A
:102E2000374BCCF81C3002233B7304237B73B2B1C5
:102E3000BEF1100F02DD334BCCF820300CF124032F
:102E400000210AE06FF0004ED0E701F11000384495
:102E500010F8080C03F8010B01310529F5D9BEF172
:102E6000190F37DD1A234AB1052139710021797113
:102E7000B9710321F9717868CCF8100000216FF363
:102E800000016FF341016FF382016FF3C50103206D
:102E900060F38811C3F30A0363F353216FF31F51E7
:102EA000002314480AF09AFDA546124B1B6803F054
:102EB0000703022B11D814480AF0D8FB044628B99E
:102EC0000C4B1B6803F00703022B0CD82046143769
:102ED000BD4690BD6FF01B03C5E70C4A03210548B2
:102EE0003FF0DCF8E7E70A4A032102483FF0D6F852
:102EF000ECE700BF7C11002030EB0400C8EB0400BD
:102F00007CEB0400F0EB040014EC040084EB040000
:102F1000A0EB0400014B1870704700BF5C1000204C
:102F200008B10068704710B5074C40F29D23224657
:102F3000064907483EF04AF906483EF047F940F294
:102F40009D21204606F082F918EC040048EC0400AC
:102F50005CEC04007CEC040010B5FFF7E1FF0378A3
:102F6000012B05D0164A126812F0060F21D110BDB0
:102F70000446134B1B6803F00703022B13D8E168C8
:102F8000104B1960207A04F0E5F903460028EED0D2
:102F90000B4A126812F0070FE9D00B4A01210848CA
:102FA0003FF086F8E3E7094A032105483FF076F849
:102FB000E5E7074A022102483FF07AF8D7E700BF69
:102FC000B0110020C8450020A0EC040090EC0400E3
:102FD000C0EC040010B541F69A1200231D491E48AA
:102FE00018F038F968B104461C4B1B6813F0070F42
:102FF00001D1204610BD1A4A012118483FF04EF871
:10300000F7E741F69A1200231649174818F022F9FB
:10301000044650B1114B1B6813F0070FE9D0134A57
:1030200001210E483FF03AF8E3E741F69A120023F7
:103030000F49104818F00EF904460028D9D0074B64
:103040001B6813F0070FD4D00B4A012103483FF04F
:1030500025F8CEE7D4E7040064E70400B0110020AF
:10306000E8EC0400E0E704008CE7040004ED040051
:10307000C8E7040050E7040020ED040010B588B054
:1030800000220023CDE906230023049305220392A6
:103090000293019300932A4B4FF4006229492A4876
:1030A00028F014FE294B1860294928F0C9FC70B19A
:1030B0000446284B1B6813F0070F02D1204608B0C6
:1030C00010BD254A012123483EF0E8FFF6E7002223
:1030D0000023CDE9062300230493052203920293E3
:1030E000019300931D4B4FF400621D491D4828F0C9
:1030F000EDFD1D4B18601D4928F0A2FC044650B19F
:10310000144B1B6813F0070FD8D0194A012111483E
:103110003EF0C4FFD2E741F69A1200231549164843
:1031200018F098F804460028C8D00A4B1B6813F022
:10313000070FC3D0114A012106483EF0AFFFBDE79B
:103140009133000048090120C01A0020D04500201A
:1031500040ED0400B011002050ED04007132000079
:1031600048010120B8190020CC45002074ED04006E
:1031700088ED0400ECE70400A0E70400B0ED0400D3
:103180002DE9F04383B081460C4616461F46264D76
:103190000FCDC4F80B00C4F80F10C4F81320C4F806
:1031A00017302A88AB78A4F81B2063770323337089
:1031B00023681B6873604FF6586120683DF03FF943
:1031C000804658B1194B1B6813F0070F19D00346FE
:1031D000174A012115483EF06BFF12E0013F0197AD
:1031E00006F1080300932346124A0021484603F0E3
:1031F00089FF051E09DB013523689B8873700A9BD4
:103200001D60404603B0BDE8F083084B1B6813F017
:10321000070F01D1A846F4E72B46074A01210348CE
:103220003EF046FFF6E700BFD4ED0400B0110020E9
:10323000E8ED04005634120018EE040010B504F056
:103240002DF8041E04DB029B1C600024204610BDE8
:10325000054B1B6813F0070FF8D02346034A0121E2
:1032600001483EF025FFF1E7B01100204CEE0400CC
:1032700000B58BB00CE0DE220092404A01214048AC
:103280003EF021FF16E000F083FE3E4B1B7863BB4F
:103290004FF0FF324FF0FF33CDE9002303AA09A915
:1032A000394817F027FF68B10346354A126812F013
:1032B000070FE0D1002383F31188BFF36F8F03233F
:1032C000184602DF9DF80C30042B2FD0052BDFD0E1
:1032D000032BD8D02A4A126812F0060FD8D02B4AF6
:1032E000022127483EF0E4FED2E700F029FF00204B
:1032F000FFF710FE022005F02BFB03460028C7D085
:103300001F4A126812F0070F08D1002383F31188B7
:10331000BFF36F8F0323184602DFB9E7F022009254
:10332000164A012116483EF0CEFEEEE700F038FEC8
:10333000144B1B78012BABD00120FFF7EBFD01F004
:1033400003F9022005F0CCFA03460028A0D00C4A6D
:10335000126812F0070F08D1002383F31188BFF31E
:103360006F8F0323184602DF92E740F201120092AA
:10337000024A012102483EF0A6FEEDE780EE04007D
:10338000B01100205C100020E0E70400A4EE04006F
:1033900000B587B058E07E220092574A0121574875
:1033A0003EF091FE5FE083220092534A0121534890
:1033B0003EF089FE6DE0514B1B6813F0060F02D101
:1033C00007B05DF804FB4E4A02214C483EF066FE11
:1033D000F6E74C4B1B7863B1012B1AD0474A1268B1
:1033E00012F0060F30D0484A022144483EF060FEF9
:1033F0002AE0002004F024F8034628B33F4A12686C
:1034000012F0060F20D0414A02213C483EF050FE07
:103410001AE03F4B1968002003F09CFF034698B167
:10342000364A126812F0060F0ED03A4A022133488B
:103430003EF03EFE08E0334B1B78002B4BD02F4B69
:103440001B6813F0060F40D14FF0FF324FF0FF33EF
:1034500005A9314817F0CEFD68B10346274A126826
:1034600012F0070F97D1002383F31188BFF36F8FFA
:103470000323184602DF40F6CD42002302A9059837
:1034800017F06CFD034660B11C4A126812F0070F7A
:1034900089D1002383F31188BFF36F8F032318466C
:1034A00002DF9DF80C30012B85D1029B042B90D0BC
:1034B000062BC0D0114A126812F0060FC4D0174A6A
:1034C00002210E483EF0F4FDBEE7154A02210B48EA
:1034D0003EF0E4FDB8E700F0A5FD03460028B3D0B8
:1034E000064A126812F0060FAED00E4A02210348B7
:1034F0003EF0DEFDA8E700BF80EE0400B011002022
:10350000CCEE04005C10002004EF0400E4EE0400A4
:10351000C8450020A0EC0400D4E7040058EF0400E4
:103520001CEF040034EF040010B586B00390049142
:103530008DF81420174B1B780BB106B010BD059BFE
:10354000009303AB0CCB0021084603F0DBFF0446DD
:1035500058B1114B1B68834207D010F18C0F07D074
:103560000E4B1B6813F0060F0DD10B4B1C60E4E7EC
:103570000A4B1B6813F0060FF7D0094A02210748CF
:103580003EF08CFDF1E70346064A022103483EF077
:103590008FFDEAE75C10002044440020B0110020B9
:1035A0007CEF040098EF0400F0B585B002AF05F0A1
:1035B000C5FF68B10346864A126812F0070F6DD145
:1035C000002383F31188BFF36F8F0323184602DFB4
:1035D000FFF7F0FB034660B17D4A126812F0070F57
:1035E00065D1002383F31188BFF36F8F032318463F
:1035F00002DF01F083FE034660B1754A126812F0E3
:10360000070F5DD1002383F31188BFF36F8F03236E
:10361000184602DF01F04EF8034660B16C4A1268AA
:1036200012F0070F55D1002383F31188BFF36F8F7A
:103630000323184602DFFFF721FD0546002800F0AE
:103640008580634B1B6813F0070F72D06E46002312
:103650003B7102237B7188B002AC14F1100241D09F
:103660000E201AB1042801DD5A4B636100233B7020
:1036700002237B70002A38D0082801DD564BA36155
:1036800004F11C03002101292FD801F1080CBC44CE
:103690001CF808CC03F801CB0131F4E740F24D22CD
:1036A00000924E4A01214A483EF00DFD88E74FF452
:1036B00014720092494A012145483EF004FD90E70A
:1036C00040F253220092454A012141483EF0FBFC62
:1036D00098E740F256220092404A01213C483EF0D1
:1036E000F2FCA0E76FF00040BBE70D285FDD0E2382
:1036F00042B10321397100217971B9710121F97148
:103700007868206100216FF300016FF341016FF3CE
:1037100082016FF3C501012060F38811C3F30A032E
:1037200063F353216FF31F51002329480AF056F920
:10373000B546274B1B6813F0070F3BD1002383F3DB
:103740001188BFF36F8F0323184602DFFFF742FC97
:103750000546002877D01E4B1B6813F0070F65D075
:103760006E4600233B7102237B7188B002AC14F1DA
:10377000100229D00E201AB1042801DD154B636117
:1037800000233B7002237B7062B3082801DD144BD9
:10379000A36104F11C030021012923D801F1080CC5
:1037A000BC441CF808CC03F801CB0131F4E76FF0FE
:1037B0001B039DE740F2592300932B46074A012142
:1037C00003483EF080FCB9E76FF00040D3E700BF4C
:1037D000B0110020E0FB0400C4EF040080EE040000
:1037E000F0EF04000D2865DD0E2342B1032139718D
:1037F00000217971B9710121F97178682061002186
:103800006FF300016FF341016FF382016FF3C501A4
:10381000012060F38811C3F30A0363F353216FF3AC
:103820001F51002367480AF0D9F8B546654B1B685D
:1038300013F0070F41D1002383F31188BFF36F8F7B
:103840000323184602DF604C204603F0D9FE002116
:10385000204603F0F9FE054600286CD0594B1B6842
:1038600013F0070F5AD06E4600233B7102237B7181
:1038700088B002AC14F1100229D00E201AB104282D
:1038800001DD524B636100233B7002237B700AB35E
:10389000082801DD4E4BA36104F11C03002101291E
:1038A00018D801F1080CBC441CF808CC03F801CB73
:1038B0000131F4E76FF01B0397E74FF417730093A0
:1038C0002B46444A01213F483EF0FDFBB3E76FF031
:1038D0000040D3E70D2865DD0E2342B10321397185
:1038E00000217971B9710121F97178682061002195
:1038F0006FF300016FF341016FF382016FF3C501B4
:10390000012060F38811C3F30A0363F353216FF3BB
:103910001F5100232B480AF061F8B546294B1B685C
:1039200013F0070F41D1002383F31188BFF36F8F8A
:103930000323184602DF052016F094F900224FF405
:103940007A4100F0BBFB0546002879D01D4B1B686F
:1039500013F0070F67D06E4600233B7102237B7183
:1039600088B002AC14F1100229D00E201AB104283C
:1039700001DD164B636100233B7002237B706AB349
:10398000082801DD144BA36104F11C030021012967
:1039900024D801F1080CBC441CF808CC03F801CB76
:1039A0000131F4E76FF01B0397E740F262230093C5
:1039B0002B46084A012103483EF085FBB3E76FF030
:1039C0000040D3E7B0110020E8430020E0FB0400F2
:1039D0001CF0040080EE04003CF004000D2840F3CD
:1039E00097800E2342B10321397100217971B97199
:1039F0000121F9717868206100216FF300016FF3F4
:103A000041016FF382016FF3C501012060F388115A
:103A1000C3F30A0363F353216FF31F5100239A4842
:103A200009F0DCFFB546984B1B6813F0070F72D105
:103A3000002383F31188BFF36F8F0323184602DF3F
:103A4000924B00931423924A92490020FFF798FB6F
:103A5000034660B18C4A126812F0070F65D100234B
:103A600083F31188BFF36F8F0323184602DF8A4B5D
:103A700000930123894A8A490020FFF7DFFB0346B0
:103A800060B1814A126812F0070F57D1002383F307
:103A90001188BFF36F8F0323184602DF7B4B1A6830
:103AA000002001907C4B1B6800937C4B784902F00E
:103AB00075F9054600287ED0734B1B6813F0070F7D
:103AC0006CD06E4600233B7102237B7188B002AC40
:103AD00014F110023BD00E201AB1042801DD714B05
:103AE000636100233B7002237B709AB3082801DDD9
:103AF0006D4BA36104F11C03002101292AD801F1B7
:103B0000080CBC441CF808CC03F801CB0131F4E7E5
:103B10006FF01B0366E740F2672300932B46634A6E
:103B2000012159483EF0CFFA82E74FF41B72009210
:103B30005E4A012154483EF0C6FA90E740F26F22F7
:103B400000925A4A012150483EF0BDFA9EE76FF0BC
:103B50000040C1E70D2851DD0E2342B10321397128
:103B600000217971B9710121F97178682061002112
:103B70006FF300016FF341016FF382016FF3C50131
:103B8000012060F38811C3F30A0363F353216FF339
:103B90001F5100233C4809F021FFB5463A4B1B68F2
:103BA00013F0070F2DD1002383F31188BFF36F8F1C
:103BB0000323184602DF344B1B6803F00703022B74
:103BC0005BD96D4600233B7102237B7188B002AC48
:103BD00014F110021FD00E201AB1042801DD344B5D
:103BE000636100233B7002237B7012B3082801DD60
:103BF000304BA36104F11C03002118E06FF01B039C
:103C0000ABE740F2752300932B46284A01211E485A
:103C10003EF059FAC7E76FF00040DDE701F1080612
:103C200006EB070C1CF808CC03F801CB0131012985
:103C3000F4D90D2825DD0E2342B10321397100216D
:103C40007971B9710121F9717868206100216FF3F0
:103C500000016FF341016FF382016FF3C50103208F
:103C600060F38811C3F30A0363F353216FF31F5109
:103C70000023054809F0B2FEAD4600200C37BD46D2
:103C8000F0BD6FF01B03D7E7B01100207444002093
:103C900088440020D0060020704400207844002092
:103CA000C8060020E0FB040060F0040080EE040081
:103CB00084F00400D4ED0400034B01221A700222A8
:103CC0005A751A75704700BF484600202DE9F0412B
:103CD000ADF5386D02AF0026C7F86C6BB2E000237B
:103CE00083F31188BFF36F8F0323184602DF04EBC1
:103CF000440007F6783303EB8405994B1A6855F8AE
:103D0000341C07F5717303EB801049F02CFB55F858
:103D1000341C94481EF050FD0134092C1DDC4FF07A
:103D2000FF324FF0FF33CDE900238D4A07F64433CD
:103D300003EB84018B481EF00BFD03460028D6D010
:103D4000894A126812F0070FC9D088220092874A68
:103D5000012185483EF0B7F9C1E7854B1B7B002B5D
:103D600061D0844B1B68002B76D107F66C33824AF6
:103D70004FF4F06107F5717000F056FF044600281B
:103D800051D0794B1B6813F0070F3FD06D460023CD
:103D90003B7102237B7188B002A911F1100200F07F
:103DA0009D804FF00E0C22B1BCF1040F01DD734B6E
:103DB0004B6100233B7002237B70002A40F091800E
:103DC000BCF10D0F40F39E800E2342B103203871E9
:103DD00000207871B8710120F871786808616FF37C
:103DE00000086FF341086FF382086FF3C5080121E3
:103DF00061F38818C3F30A0363F353286FF31F5862
:103E000000234146584809F0E9FDAD46564B1B6872
:103E100013F0070F79D1002383F31188BFF36F8F5D
:103E20000323184602DFB6F57A7F77D00136504B70
:103E30001B7B3BB14E4B5A7DD7F86C1B4E4B186821
:103E4000FFF772FB4FF0FF324FF0FF3301214C4878
:103E50002AF09AFB002460E74A4A00924A4A4FF44B
:103E60007071381D1EF098FA034660B13E4A126820
:103E700012F0070F22D1002383F31188BFF36F8F55
:103E80000323184602DF009707F5717310224FF4E1
:103E90007071381D44F0A7FC034600283FF465AF5D
:103EA000314A126812F0070F10D1002383F31188F2
:103EB000BFF36F8F0323184602DF56E79722009265
:103EC0002A4A012128483EF0FEF8D4E79C220092BD
:103ED000264A012124483EF0F6F8E6E76FF0004C50
:103EE00061E7BCF1080F01DD284B8B6101F11C0378
:103EF000002004E017F800E003F801EB013001288E
:103F0000F8D95DE76FF01B035FE7A2230093234618
:103F1000164A012114483EF0D6F87CE707F53762CF
:103F200007F674310F481EF06FFC064600283FF478
:103F30007EAF0D4B1B6813F0070F08D1002686F3E8
:103F40001188BFF36F8F0323184602DF6FE7A923A1
:103F500000930346054A012103483EF0B4F8EDE71B
:103F6000DC45002084070020E810002080EE0400DB
:103F700048460020E4450020D4450020E0FB040032
:103F800070070020D8450020E8450020ACF0040070
:103F900008B5002101482AF06BFC08BD68460020E6
:103FA00008B5024849F088F908BD00BF68460020FE
:103FB00010B9184B1860704700B583B0B7EE000A0F
:103FC0004BF6803382B2134913481EF019FA0346A8
:103FD00060B1124A126812F0070F0FD1002383F369
:103FE0001188BFF36F8F0323184602DF094B1B684C
:103FF000602B0BD8002003B05DF804FBD0220092A8
:10400000074A012105483EF05EF8E7E76FF00B0034
:10401000F1E700BFE4450020E8450020E81000205B
:1040200080EE040010B5204B1B68A3B91E4B4FF463
:104030007A721A601C4B1B68F3B11C4A126802F0BA
:104040000702022A12D8184B1868FFF7B1FF04467E
:10405000F0B9204610BDB3F57A6F03D3124B00229E
:104060001A60E7E75B00104A1360E3E7104A032198
:104070000E483EF01DF8E6E70C4B1B6803F0070303
:10408000022BE0D90B4A032108483EF007F8DAE793
:10409000064B1B6813F0070FDBD0074A01210348CA
:1040A0003DF0FCFFD5E700BFE0450020E810002010
:1040B000BCF00400D4F00400E4F0040070B5054640
:1040C0000E4614463CF0A7F980B11A4B9D6120467C
:1040D0003CF0A1F9D8B1174B01221A719C603EB394
:1040E000144B01221A731E61002022E0002DEED035
:1040F000114B1B6813F0070F02D16FF0150018E089
:104100002B460E4A01210C483DF0D2FFF5E7002C6A
:10411000E5D0094B1B6813F0070F02D16FF01500B3
:1041200007E02346054A012103483DF0C1FFF5E7BA
:10413000002070BD48460020E810002004F1040073
:10414000F0B58BB008AFFFF7B7FD9B4B93F8643029
:10415000002B44D0994B93F86430002B00F0B380CF
:10416000974C04F110030FCB8DE80F0094E80F007B
:1041700000F0C6FE0546002800F06181914B1B68E7
:1041800013F0070F00F04E816E4600233B710223AF
:104190007B7188B0344616F1100200F009810E20C0
:1041A0001AB1042801DD884B636100233B700223B0
:1041B0007B70002A00F01281082801DD834BA36187
:1041C00004F11C030021012900F2088101F1080C0F
:1041D000BC441CF808CC03F801CB0131F3E7764866
:1041E0001EF094FB05460028B4D0764B1B6813F0F4
:1041F000070F4DD06E4600233B7102237B7188B0C0
:10420000344616F1100212D00E201AB1042801DD36
:104210006D4B636100233B7002237B70A2B10828C1
:1042200001DD6B4BA36104F11C0300210AE06FF078
:104230000040EAE701F1080CBC441CF808CC03F884
:1042400001CB01310129F5D90D282FDD0E2342B113
:104250000321397100217971B9710121F9717868EF
:10426000206100216FF300016FF341016FF38201C0
:104270006FF3C501012060F38811C3F30A0363F3F0
:1042800053216FF31F5100234E4809F0A7FBB54699
:104290004C4B1B6813F0070F0BD1002383F31188DD
:1042A000BFF36F8F0323184602DF53E76FF01B0342
:1042B000CDE740F27D1300932B46464A0121414849
:1042C0003DF001FFE9E73D481EF020FB05460028D0
:1042D0003FF446AF3B4B1B6813F0070F4DD06E46C3
:1042E00000233B7102237B7188B0344616F1100223
:1042F00012D00E201AB1042801DD334B6361002374
:104300003B7002237B70A2B1082801DD324BA36110
:1043100004F11C0300210AE06FF00040EAE701F11C
:10432000080CBC441CF808CC03F801CB013101296E
:10433000F5D90D282FDD0E2342B10321397100215B
:104340007971B9710121F9717868206100216FF3E9
:1043500000016FF341016FF382016FF3C50101208A
:1043600060F38811C3F30A0363F353216FF31F5102
:104370000023144809F032FBB546124B1B6813F0BA
:10438000070F0BD1002383F31188BFF36F8F032333
:10439000184602DFE4E66FF01B03CDE74FF4C1736C
:1043A00000932B460B4A012106483DF08CFEE9E7BD
:1043B0006FF00040F4E600BFEC0700208407002007
:1043C00048460020E8100020E0FB04005CF10400F7
:1043D00024F1040080EE040040F104000D284CDDBF
:1043E0000E2342B10321397100217971B971012184
:1043F000F9717868206100216FF300016FF34101CA
:104400006FF382016FF3C501012060F38811C3F3DC
:104410000A0363F353216FF31F5100233A4809F055
:10442000DDFAB546384B1B6813F0070F28D100237F
:1044300083F31188BFF36F8F0323184602DF334BDA
:1044400001221A771B7B13B1314B1B6813B331491F
:10445000314803F03FFB034660B12B4A126812F06B
:10446000070F48D1002383F31188BFF36F8F032315
:10447000184602DF0C37BD46F0BD6FF01B03B0E7F6
:104480004FF4C37300932B46244A01211E483DF08C
:104490001AFECCE700220023CDE906230023049373
:1044A000032203920293019300931D4B42F6F822DC
:1044B0001C491D4827F00AFC154B18601B4927F0C2
:1044C000BFFA03460028C2D00F4A126812F0070F45
:1044D00008D1002383F31188BFF36F8F032318469D
:1044E00002DFB4E74FF4C87200920C4A012106487B
:1044F0003DF0E9FDEDE740F295120092074A0121F7
:1045000001483DF0E0FDADE7E810002048460020FE
:104510007846002084070020EC07002080EE04008D
:10452000CD3C000048110120C81B002074F104009C
:1045300010B50446FFF704FE024920463EF0B6FAE5
:10454000002010BD7CF10400F0B587B004AF4B4BE8
:104550001B7F53B94A4B1B6813F0060F7DD0494AA5
:10456000022147483DF09AFD77E003F0C5FA434C3D
:1045700004F110030FCB8DE80F0094E80F0000F05A
:104580004BFC054600285FD03D4B1B6813F0070F1E
:104590004DD06E4600233B7102237B7188B004AC82
:1045A00014F110021CD00E201AB1042801DD364B84
:1045B000636100233B7002237B70A2B1082801DDF8
:1045C000324BA36104F11C03002101290BD801F136
:1045D000080CBC441CF808CC03F801CB0131F4E70B
:1045E0006FF00040E0E70D283ADD0E2342B10321D1
:1045F000397100217971B9710121F97178682061EF
:1046000000216FF300016FF341016FF382016FF33B
:10461000C501012060F38811C3F30A0363F353213A
:104620006FF31F510023164809F0D8F9B546144B13
:104630001B6813F0070F16D1002383F31188BFF313
:104640006F8F0323184602DF0C4B00221A771048A5
:104650001EF012F90F481EF00FF90C37BD46F0BDE1
:104660006FF01B03C2E740F2B51300932B460A4AD2
:10467000012103483DF027FDDEE700BF484600204A
:10468000E810002094F10400E0FB0400B0F1040005
:1046900084070020EC07002080EE040010B50446DB
:1046A000FFF752FF024920463EF000FA002010BDFD
:1046B000C8F1040010B503F031FA044658B1084BB4
:1046C0001B6813F0070F09D00346064A012104486E
:1046D0003DF0EEFC02E0044848F0E9FD204610BD44
:1046E000E8100020E0F104006846002008B5002131
:1046F000034B19704FF47072024848F05BFE08BD1E
:104700001A010120C065002008B5024826F0D6FF36
:1047100008BD00BF5C080020474B93F8103C834263
:1047200000F08880B0B584B002AF0446424B83F8F5
:10473000100C424B1B6803F00703022B53D9404B6C
:1047400053F820106D4600233B7102237B7188B023
:104750000DF1080C1CF1100213D00E2022B1042818
:1047600002DD384BCCF8143000233B7002237B7001
:10477000A2B1082801DDCCF818100CF11C030021AF
:104780000AE06FF00040E9E701F1080EBE441EF8B0
:1047900008EC03F801EB01310129F5D90D2838DDCA
:1047A0000E234AB10321397100217971B9710121B8
:1047B000F9717868CCF8100000216FF300016FF3F5
:1047C00041016FF382016FF3C501032060F388118B
:1047D000C3F30A0363F353216FF31F5100231748F8
:1047E00009F0FCF8AD46032C16D003203BF00EFF79
:1047F00060B1124B1B6813F0070F11D1002383F334
:104800001188BFF36F8F0323184602DF0837BD46B8
:10481000B0BD6FF01B03C4E7032004F061F8E7E7C5
:1048200040F25B1300930346074A012103483DF021
:104830004AFCE3E7704700BF80B90020E010002089
:10484000C0F70400BCF2040080EE040090B583B011
:1048500000AF394B93F8003C834229D0364B83F8A4
:10486000000C364B1B6803F00703022B5DD9344B59
:1048700053F820106C4600233B7102237B7188B0F3
:10488000EC461CF110021ED00E2022B1042802DDDD
:104890002C4BCCF8143000233B7002237B70FAB110
:1048A000082801DDCCF818100CF11C03002115E0DC
:1048B000224B1B6813F0060F37D0234A02211F48F2
:1048C0003DF0ECFB31E06FF00040DEE701F1080E57
:1048D000BE441EF808EC03F801EB01310129F5D9BB
:1048E0000D2825DD0E234AB103213971002179718C
:1048F000B9710121F9717868CCF8100000216FF3CB
:1049000000016FF341016FF382016FF3C5010320D2
:1049100060F38811C3F30A0363F353216FF31F514C
:104920000023064809F05AF8A5460C37BD4690BD4D
:104930006FF01B03D7E700BF80B90020E010002014
:10494000D0F7040008F30400D0F2040038B505469F
:104950000024064B83F81C4C2046FFF7DDFE04497B
:1049600028463EF0A3F8204638BD00BF80B900209D
:104970001CF3040008B5084B93F80C3C43B1064BFC
:10498000012283F81C2C05493EF090F8002008BD58
:1049900003493EF08BF8F9E780B9002040F30400AA
:1049A00064F3040010B504460A4B93F81C3C23B191
:1049B00009493EF07BF8002010BD064B002083F82B
:1049C0000C0CA3F8020CFFF741FF044920463EF00F
:1049D0006DF8F0E780B9002094F30400C8F30400F8
:1049E00008B5044B012283F80C2C03493EF05EF815
:1049F000002008BD80B90020F0F3040030B583B07A
:104A0000144B1B781BBB02460C464BF680331249F5
:104A100012481DF0F5FC054618B92CB90D4B0122C2
:104A20001A70284603B030BDE0034FF47A720023B9
:104A300000F2E7300021FCF725F802460B46002083
:104A40000021CDE90001064829F04CFAE6E76FF0B5
:104A50000F05E6E71A010120BC650020C0650020B3
:104A6000E012002008B5034848F08DFB024826F00C
:104A700025FE08BDE01200205C08002010B50446A9
:104A8000FFF7F0FF024920463EF010F8002010BD6D
:104A900018F404002DE9F0432DED028B83B0074696
:104AA000042954D11646506803783E4AD35C13F06B
:104AB000040F52D0B3681B783A4AD35C13F0040F4A
:104AC00052D00A2200213AF02FF904461FFA80F84A
:104AD0000A220021B0683AF027F905461FFA80F94A
:104AE0000021F06839F0CCFFB0EE408AB5EEC00A84
:104AF000F1EE10FA3FD9F7EE007AB4EEE70AF1EEE4
:104B000010FA38DCA4B2AEB2334622462649384603
:104B10003DF0CCFFB0EE480A49464046FFF76EFF35
:104B2000054610F1100F2DD0B5BB18EE100AFBF79B
:104B300077FCCDE90001334622461C4938463DF05A
:104B4000B5FF284603B0BDEC028BBDE8F0831849E1
:104B50003DF0BBFF6FF01505F3E7164938463DF011
:104B6000B4FF6FF01505ECE7134938463DF0ADFF93
:104B70006FF01505E5E7114938463DF0A6FF6FF0E7
:104B80001505DEE7FFF76EFFB0EE480A49464046DE
:104B9000FFF734FF0546C7E72A46094938463DF086
:104BA00085FFC2E707360600D4F4040010F50400C0
:104BB00024F4040070F404008CF40400A8F404004D
:104BC000F4F4040010B586B014461A468C4208D19D
:104BD0000A9B1A600B9B089A1A600024204606B0B4
:104BE00010BD04940B9B03934FF470730293099BC5
:104BF00001930091089B02211EF04AF8044618B95F
:104C00000A9B099A1A60E9E7054B1B6813F0070F26
:104C1000E4D00346034A012101483DF049FADDE7AB
:104C200004120020E0F704002DE9F04FADF6247DDA
:104C300004AF0446884616461D464FF4F0694A46BE
:104C4000002107F5F26048F0B5FB4A46002107F164
:104C5000100048F0AFFB684B1B7B8BB1664B1B7899
:104C6000012B1BD0654A126812F0070F40F0BC8080
:104C70006FF01208404607F61477BD46BDE8F08F86
:104C80005E4B1B6813F0070F02D16FF00508F1E7C8
:104C90005B4A012159483DF001FAF6E7EA46564BD6
:104CA0001B7D9B00073303F4FF63ADEB030D0DF198
:104CB000100907F10C03019307F53563009307F51D
:104CC000F26310224146204643F0C4FD804660BB9B
:104CD0000446494B1B7DA34231DDC4EB041107F1AF
:104CE000100202EB8113444A926907F10800039015
:104CF00009EB840002900193FB68009307F5F263CF
:104D000003EB81134BF680314FF4066C3D480CFBEE
:104D10000400FFF757FF834608B90134D9E7374B42
:104D20001B6813F0070F02D1D846D546A2E70090C2
:104D30002346354A012131483DF0C5F9F4E7012BFE
:104D400009D0022B1DD02D4A126812F0070F3FD157
:104D50006FF01208E9E7D9F80000B968BB1D0293AB
:104D60002A4B01934FF49B73009300231A460DF0D6
:104D7000ABFA002834D1254B3360FB882B60D54635
:104D800078E7D9F80000B968BB1D02931F4B019367
:104D90004FF49B73009300231A460DF095FA08B167
:104DA0008046C2E7D9F80400BA1DFB88B9680292B0
:104DB000164A1A440192C3F59B739BB200930123D8
:104DC00000220DF081FA68B9FB885B00FB80D2E716
:104DD0000F4A012109483DF06BF96FF01208A4E772
:104DE0008046A2E78046A0E70A4A012103483DF039
:104DF0005FF96FF012083DE798D7002004120020F9
:104E000004F80400D8C6002028F80400A0C500203B
:104E10005CF8040088F8040084B008B50DF1080CB3
:104E20008CE80F00304B1B789DF8082093420BD183
:104E3000012B17D02D4A126812F0070F4CD1002019
:104E4000BDE8084004B07047284B1B6813F0070FFB
:104E500002D16FF01200F3E7254A012123483DF00B
:104E60001DF9F6E79DF814304BB11F4B1B7BBBB10E
:104E70000DF098FA0028E3D11B4B00221A739DF81D
:104E80000C304BB1184B1B79C3B10DF0B9FA0028A7
:104E9000D6D1154B00221A710020134B1877CFE79B
:104EA000124B1B6813F0070F02D16FF07700C7E7B2
:104EB000104A01210D483DF0F1F8F6E70B4B1B6855
:104EC00013F0060F02D16FF07700B9E70A4A02210A
:104ED00006483DF0E3F8F6E7084A012103483DF0B3
:104EE000E7F80020ACE700BF98D7002004120020AC
:104EF000A0F80400D8F8040010F9040088F80400B1
:104F000084B010B584B006AC84E80F009DF818306A
:104F1000012B0AD0384A126812F0070F65D1002021
:104F200004B0BDE8104004B07047344B1B78012B2F
:104F30000DD19DF824304BB3304B1B7BB3B12E4BBE
:104F40001B6813F0060F0BD16FF07700E8E742F211
:104F50001072002108460DF081FA0028E9D0DFE741
:104F6000274A022124483DF099F8EDE70DF10E03A0
:104F700001939DF82D3000930A9B42F2107210218C
:104F8000BDF830000DF096FA0028C9D19DF81C300C
:104F90006BB11A4B1B79D3B99DF81E3042F21072D7
:104FA0001021BDF820000DF04FFB0028B8D1134CA4
:104FB000A4460DF1180EBEE80F00ACE80F009EE805
:104FC0000F008CE80F00012323770020A8E70A4B8D
:104FD0001B6813F0060F02D16FF07700A0E7094AB3
:104FE000022105483DF05AF8F6E7074A0121024838
:104FF0003DF05EF8002093E70412002098D70020CF
:1050000048F9040070F9040088F8040010B582B073
:1050100090B10446134B1B6813F0070F11D1114BCD
:105020001B6813F0070F13D1002383F31188BFF31C
:105030006F8F0323184602DF0B4825F08DFF02B067
:1050400010BD0346094A012106483DF031F8E6E764
:10505000CD2300932346064A012102483DF033F850
:10506000E2E700BF48110020BC150020B4F904009D
:1050700080EE040010B54FF47F03D3F80432B3F18F
:10508000FF3F08D14FF47F03D3F808329BB24FF6AD
:10509000FF7293422BD04FF47F02D2F804321B48A8
:1050A0004370C3F307218170190CC1701B0E03718B
:1050B000D2F808324371C3F30723837163F03F03CF
:1050C000837101230370002112F0B6F9041E02DB84
:1050D0000024204610BD0E4B1B6813F0070FF8D0BC
:1050E00023460C4A01210A483CF0E2FFF1E7084B55
:1050F0001B6813F0060F01D10024EAE7064A0221DB
:1051000003483CF0CBFF0024E3E700BFB8D7002002
:1051100048110020DCF90400F4F90400F0B58BB06C
:1051200004460D4616460378032B38D8DFE803F013
:1051300002212B311D4B93E803000790ADF820109E
:10514000090C8DF8221063792279E178A0786778CC
:105150000DF11C0CCDF814C004970390029101923C
:105160000093A379124A314628463BF0DEFD0BB08E
:10517000F0BD104B93E803000790ADF82010090C28
:105180008DF82210DFE70C4A07AB07CA03C31A8069
:10519000D9E70A4A07AB07CA03C31A80D3E7084A0C
:1051A0000A2107A83BF0C1FDCDE700BF10FA0400BB
:1051B00028FA040018FA04004CFA040058FA040013
:1051C00020FA0400F0B591B002AF0020786307F137
:1051D000340112F01BF97B6B012B07D107F134016D
:1051E00007F12C0012F012F900243EE0404A126848
:1051F00012F0070F02D16FF00B0076E0009301234D
:105200003C4A19463A483CF05EFFF4E76FF0004C28
:105210004AE000233B7102237B71002A4CD1BCF190
:105220000D0F5EDD0E2342B103203872002078722C
:10523000B8720120F872B86808616FF300056FF367
:1052400041056FF382056FF3C505032161F38815EE
:10525000C3F30A0363F353256FF31F550023294655
:10526000234808F0BBFBB54601347B6B9C423BD224
:10527000C4EBC4001E2207F10C0107F12C031844F3
:10528000FFF74CFF1A4B1B6803F00703022BEBD907
:105290006E4600233B7202237B7288B002A911F193
:1052A0001002B3D04FF00E0C002AB2D0BCF1040FA4
:1052B000AFDD114B4B61ACE7BCF1080F02DD07F12C
:1052C0000C038B6101F11C03002007E000F1380E94
:1052D000BE441EF834EC03F801EB01300128F5D987
:1052E0009DE76FF01B039EE700203C37BD46F0BDF5
:1052F0004811002064FA04009CFA040010B5FFF77E
:10530000B9FE044608B1204610BD134811F016FE40
:1053100004460028F7D140F6CD4200230F4825F07F
:1053200061FE044650B10E4B1B6813F0070FEAD024
:105330000C4A01210A483CF0B1FEE4E7012000F0EC
:1053400055FA04460028DED1FFF73CFF044600284A
:10535000D9D100F003FED6E70D500000BC150020A7
:1053600048110020B4FA040008B50949094847F07B
:10537000FFFC031E00DB08BD074A126812F0070F8E
:10538000F9D0064A012104483CF092FEF3E700BF41
:10539000F0D70020D01C002050110020D0FA0400CB
:1053A00090B585B002AF3A4B1B6813F0070F51D090
:1053B0006C4600233B7102237B7188B00DF1080C11
:1053C0001CF1100214D00E2022B1042802DD314B52
:1053D000CCF8143000233B7002237B70AAB108285C
:1053E00002DD2D4BCCF818300CF11C0300210AE033
:1053F0006FF00040E8E701F1080EBE441EF808EC2B
:1054000003F801EB01310129F5D90D2832DD0E2316
:105410004AB10321397100217971B9710121F97102
:105420007868CCF8100000216FF300016FF34101A0
:105430006FF382016FF3C501012060F38811C3F39C
:105440000A0363F353216FF31F510023104808F040
:10545000C5FAA5460E4B1B6813F0070F0DD10023AC
:1054600083F31188BFF36F8F0323184602DF0C37D5
:10547000BD4690BD6FF01B03CAE7432300936FF056
:105480007303064A012102483CF01DFEE7E700BF16
:1054900050110020E0FB0400ECFA040080EE040050
:1054A0002DE9F04385B000AF0446884607F10C02B1
:1054B000002141F2010011F051FA064698B9FB684B
:1054C000DD684CB1B5F80530592B78D1434B1B68DA
:1054D00003F00703022B0BD8B5F80530A8F800300D
:1054E000F8680FF039F830461437BD46BDE8F08350
:1054F000687811F095F895F8019069886C4600235A
:105500003B7202237B728AB0EC461CF110021FD062
:105510004FF0160E2AB1BEF1040F02DD304BCCF86D
:10552000143000233B7102237B71F2B17346BEF14C
:10553000080F01DDCCF818000C2B01DDCCF81C9015
:10554000102B01DDCCF820100CF1240300210AE01F
:105550006FF0004EDEE701F11000384410F80C0C3B
:1055600003F8010B01310129F5D9BEF1150F23DD37
:1055700016234AB10521397200217972B9720121CD
:10558000F972B868CCF8100000216FF300016FF3D6
:1055900041016FF382016FF3C501032060F38811AD
:1055A000C3F30A0363F353216FF31F5100230B4826
:1055B00008F014FAA5468FE76FF01B03D9E7074BF5
:1055C0001B6813F0070F02D14FF0FF368BE7054A37
:1055D000012102483CF062FDF6E700BF50110020B7
:1055E00010FB04004CFB0400B0B586B002AF0020F5
:1055F000F88107F10E01FFF753FF002864D004463D
:10560000744B1B6813F0070F51D06D4600233B729B
:1056100002237B7288B00DF1080C1CF110021ED021
:105620000E2022B1042802DD6B4BCCF8143000238D
:105630003B7102237B71AAB1082802DD674BCCF8CD
:1056400018300CF11C03002101290BD801F1100EB8
:10565000BE441EF80CEC03F801EB0131F4E76FF0E7
:105660000040DEE70D2865DD0E234AB103213972C3
:1056700000217972B9720121F972B868CCF8100072
:1056800000216FF300016FF341016FF382016FF3AB
:10569000C501012060F38811C3F30A0363F35321AA
:1056A0006FF31F5100234B4808F098F9AD46494B62
:1056B0001B6813F0070F40D1002383F31188BFF359
:1056C0006F8F0323184602DF454B186808F014FE5D
:1056D000044600286FD03F4B1B6813F0070F5DD0C6
:1056E0006D4600233B7202237B7288B00DF1080CDB
:1056F0001CF110022AD00E2022B1042802DD364B04
:10570000CCF8143000233B7102237B710AB30828C4
:1057100002DD344BCCF818300CF11C0300210129B8
:1057200017D801F1100EBE441EF80CEC03F801EB83
:105730000131F4E76FF01B0397E731230093234611
:10574000294A012123483CF0BEFCB5E76FF0004038
:10575000D2E70D2832DD0E234AB103213972002130
:105760007972B9720121F972B868CCF81000002181
:105770006FF300016FF341016FF382016FF3C50115
:10578000012060F38811C3F30A0363F353216FF31D
:105790001F5100230F4808F021F9AD460D4B1B683F
:1057A00013F0070F0DD1002383F31188BFF36F8F20
:1057B0000323184602DF1037BD46B0BD6FF01B0350
:1057C000CAE7342300932346074A012101483CF0ED
:1057D0007AFCE8E750110020E0FB040064FB0400C1
:1057E000ECD7002080FB040080EE040030B585B0CB
:1057F00004460023ADF80E300DF10E010120FFF735
:105800004FFE054600B914B9284605B030BD08F072
:1058100035FD054658B1194B1B6813F0070FF3D03F
:105820000346174A012115483CF042FCECE70022F0
:10583000144940F6B83008F095FD134B1860002865
:1058400019DB124C204625F0E7FF114B0093022391
:105850004FF480620F492046FBF7F2FD0E490F48D6
:1058600025F056FE4FF480320023CDE900230C488A
:1058700028F038FBC8E70546C6E700BF50110020F6
:1058800098FB0400A1530000ECD70020D01C00209E
:1058900094080020403C0120E9550000F0D700208A
:1058A00070120020F0B58BB004460D461646037802
:1058B000032B38D8DFE803F002212B311D4B93E88E
:1058C00003000790ADF82010090C8DF822106379C1
:1058D0002279E178A07867780DF11C0CCDF814C01E
:1058E00004970390029101920093A379124A3146E2
:1058F00028463BF01AFA0BB0F0BD104B93E80300BA
:105900000790ADF82010090C8DF82210DFE70C4A43
:1059100007AB07CA03C31A80D9E70A4A07AB07CA0D
:1059200003C31A80D3E7084A0A2107A83BF0FDF910
:10593000CDE700BF10FA040028FA040018FA0400AA
:105940004CFA040058FA040020FA0400B0B592B0F2
:1059500000AF0023BB62FB623B637B63BB63FB6303
:105960003B64A7F84430BB60FB603B617B61BB617B
:10597000FB613B62BB84002800F0C3800C461E2202
:1059800007F12801FFF78EFF624B1B6803F0070346
:10599000022B51D96D4600233B7102237B7188B0E5
:1059A000EC461CF1100215D00E2022B1042802DDB5
:1059B000594BCCF8143000233B7002237B70B2B1FA
:1059C000082803DD07F12803CCF818300CF11C037C
:1059D00000210AE06FF00040E7E701F1480EBE4405
:1059E0001EF848EC03F801EB01310129F5D90D2827
:1059F0004EDD0E234AB10321397100217971B9714D
:105A00000121F9717868CCF8100000216FF30001D2
:105A10006FF341016FF382016FF3C501032060F35F
:105A20008811C3F30A0363F353216FF31F5100235B
:105A3000384807F0D3FFAD46002C65D01E2207F191
:105A400008012046FFF72EFF324B1B6803F00703C7
:105A5000022B5DD96D4600233B7102237B7188B018
:105A60006C4614F1100216D00E201AB1042801DD84
:105A70002A4B636100233B7002237B70C2B108286C
:105A800002DD07F10803A36104F11C0300210DE00E
:105A90006FF01B03AEE76FF00040E6E701F1480C42
:105AA000BC441CF848CC03F801CB01310129F5D9DD
:105AB0000D2823DD0E2342B10321397100217971B4
:105AC000B9710121F9717868206100216FF300013B
:105AD0006FF341016FF382016FF3C501032060F39F
