:1000000070480220256A0100EDF40500116A010024
:10001000116A0100116A0100116A0100116A0100F0
:10002000000000000000000000000000ED6B010077
:10003000116A010000000000416B0100116A01001B
:100040001D6E01001D6E01001D6E01001D6E010080
:100050001D6E01001D6E01001D6E01001D6E010070
:100060001D6E01001D6E01001D6E01001D6E010060
:100070001D6E01001D6E01001D6E01001D6E010050
:100080001D6E01001D6E01001D6E01001D6E010040
:100090001D6E01001D6E01001D6E01001D6E010030
:1000A0001D6E01001D6E01001D6E01001D6E010020
:1000B0001D6E01001D6E01001D6E01001D6E010010
:1000C0001D6E01001D6E01001D6E01001D6E010000
:1000D0001D6E01001D6E01001D6E01001D6E0100F0
:1000E0001D6E01001D6E01001D6E01001D6E0100E0
:1000F0001D6E01001D6E01001D6E01001D6E0100D0
:100100001D6E01001D6E01001D6E01001D6E0100BF
:100110001D6E01001D6E01001D6E01001D6E0100AF
:100120001D6E01001D6E01001D6E01001D6E01009F
:100130001D6E01001D6E01001D6E01001D6E01008F
:100140001D6E01001D6E01001D6E01001D6E01007F
:040150001D6E01001F
:100158002DE9F14F03F11C0402EB840C4FEA930BD9
:100168008A68CB680868496800F046F93CE9F000FD
:100178006040694072407B400BF1060E4EE083EA16
:10018800134480EA134582EA134746BA96EA344490
:10019800604000F00F1684EA063420F00F1684EA57
:1001A800161054BA94EA0106724002F00F1486EA57
:1001B800043622F00F1486EA14124CBA65406940DE
:1001C80001F00F1485EA043521F00F1485EA1411A3
:1001D8005CBA67407B4003F00F1487EA043723F0CA
:1001E8000F1487EA141344BA44404DBA4D4056BA26
:1001F80056405FBA5F4087EA174886EA174B84EA99
:1002080017464FEA38488BEA1B4485EA1B4788EAB9
:100218001B4580EA3440694072407B4000F07034EE
:1002280000F0803500F00F3040EA440040EAD50085
:1002380080EA900404F0332480EA8400604001F0EE
:10024800703401F0803501F00F3141EA440141EA90
:10025800D50181EA910404F0332481EA84016140E4
:1002680002F0703402F0803502F00F3242EA4402A4
:1002780042EAD50282EA920404F0332482EA840234
:10028800624003F0703403F0803503F00F3343EA23
:10029800440343EAD50383EA930404F0332483EA4E
:1002A80084036340C943DB4381EA000483EA0446CC
:1002B80086EA020183EA014382EA334583EA14436A
:1002C8005C4084EA00077FEA040A8AEA024A8AEA6A
:1002D800010B87EA11488AEA374A80EA060181EA6F
:1002E8001A418AEA030A04EA0A00454088EA040730
:1002F80007EA0B0041408AEA0B0608EA060084EA8E
:1003080034428AEA3A4602EA0603584045404140E8
:1003180087EA37438BEA3B4003EA000985EA090587
:1003280082EA0309464006EA0906714085EA0100A7
:1003380005EA3546464006EA314181EA304181EA1C
:10034800364606EA304686EA354634400F4086EAA5
:10035800010508EA050886EA3640024088EA0208EC
:1003680081EA314213405C4080EA020309EA03094A
:1003780087EA0907674088EA040806EA0A0601EAE4
:100388000B018AEA0B0425408AEA3A44204045409A
:100398008BEA3B4B02EA0B02564084EA0B042340EB
:1003A80059406E40694087EA364080EA384080EA22
:1003B800060380EA104481EA134585EA344585EA54
:1003C80017427D4082EA354180EA05403CE9F00069
:1003D8006040694072407B40BEF1010E3FF6CFAEEF
:1003E80020BC00F05FF828606960AA60EB60BDE897
:1003F800F08F00BF00F000BA80EA101404F0F01487
:1004080080EA0410604081EA111404F0F01481EAD3
:100418000411614082EA121404F0F01482EA041212
:10042800624083EA131404F0F01483EA041363406F
:1004380080EA102404F47F4480EA0420604081EAC2
:10044800112404F47F4481EA0421614082EA1224E1
:1004580004F47F4482EA0422624083EA132404F409
:100468007F4483EA0423634081EA500404F055344E
:1004780080EA4400614083EA520404F0553482EA79
:100488004402634082EA900404F0333480EA840032
:10049800624083EA910404F0333481EA84016340C2
:1004A800704700BF82EA900404F0333480EA840085
:1004B800624083EA910404F0333481EA84016340A2
:1004C80081EA500404F0553480EA4400614083EA2C
:1004D800520404F0553482EA4402634080EA10244E
:1004E80004F47F4480EA0420604081EA112404F483
:1004F8007F4481EA0421614082EA122404F47F44A3
:1005080082EA0422624083EA132404F47F4483EAE3
:100518000423634080EA101404F0F01480EA041005
:10052800604081EA111404F0F01481EA041161407A
:1005380082EA121404F0F01482EA0412624083EA98
:10054800131404F0F01483EA04136340704700BFE7
:100558002DE9F14F94464FEA930B8A68CB680868F7
:100568004968FFF749FF0BF1060E33E083EA1344AD
:1005780080EA134582EA134746BA96EA3444604053
:1005880000F00F1684EA063420F00F1684EA1610DD
:1005980054BA94EA0106724002F00F1486EA04364F
:1005A80022F00F1486EA14124CBA6540694001F033
:1005B8000F1485EA043521F00F1485EA14115CBA8A
:1005C80067407B4003F00F1487EA043723F00F14C9
:1005D80087EA1413BCE8F0006040694072407B4031
:1005E80000F0E03400F0103500F00F3040EA54001D
:1005F80040EAC50080EA900404F0332480EA8400CD
:10060800604001F0E03401F0103501F00F3141EAAB
:10061800540141EAC50181EA910404F0332481EAD6
:100628008401614002F0E03402F0103502F00F322C
:1006380042EA540242EAC50282EA920404F03324F0
:1006480082EA8402624003F0E03403F0103503F0DC
:100658000F3343EA540343EAC50383EA930404F0DF
:10066800332483EA8403634081EA324787EA1345E7
:1006780081EA354690EA060484EA034B82EA1B4283
:1006880080EA044484EA054483EA144A85EA144467
:100698008BEA044B84EA374481EA0B4181EA16412C
:1006A80004EA0A00454082EA04082BEA08004140AF
:1006B8008AEA0B0602EA060084EA34438AEA3A46E2
:1006C80003EA060778404540414088EA38478BEA04
:1006D8003B4007EA000985EA090583EA070946401D
:1006E80006EA0906714085EA010005EA35464640F2
:1006F80006EA314181EA304181EA364606EA304667
:1007080086EA3546344008EA010886EA01052A40A7
:1007180086EA364003405A4081EA31431F407C4014
:1007280080EA030709EA070988EA0908544088EAC1
:10073800020806EA0A0601EA0B018AEA0B021540DA
:100748008AEA3A42104045408BEA3B4003405E400B
:100758004240174079404D404E40E443F64386EA14
:1007680018435D4085EA054083EA134386EA03415E
:1007780083EA384284EA114383EA04435FEA334355
:10078800BEF1010E3FF6F2AE1ED4BCE8F0006040A8
:10079800694072407B4020BCFFF784FE2860696096
:1007A800AA60EB60BDE8F08F2DE9E0414FF2F0025E
:1007B80080EA1031114080EA01304840410882083F
:1007C800C3084FF0000E4FE700F0113001F011316F
:1007D80002F0113203F0113340EA410040EA82008E
:1007E80040EAC3004FF2F00280EA1031114080EA7B
:1007F80001304840BDE8E0812DE9F04F02F11C05C9
:100808000646074600EB850851F8040B043A46F8FB
:10081800040BF9D14FF0010CFFF7C6FF5FEA302057
:1008280080EA0C001ECF41404A4053405C401EC63F
:100838002000464517D04FEA4C0C1CF4807F18BFA7
:10084800ACF1E50C2C2DE7D03C2D06D1FFF7ACFF21
:1008580006CF41404A4006C6100006CF41404A40F4
:1008680006C61000D8E736E90F00FFF7C5FD043DBE
:1008780086E80F00F7D1BDE8F08F00BF2DE9F0073B
:1008880091E8F807B2E802105B1854EB0C04B2E8E0
:1008980002104D4156EB0C06B2E802104F4158EBDE
:1008A8000C08B2E8021059EB01095AEB0C0A80E86F
:1008B800F80780410130BDE8F00770472DE9F007DF
:1008C80091E8F807B2E802105B1A74EB0C04B2E87E
:1008D80002108D4176EB0C06B2E802108F4178EBDE
:1008E8000C08B2E8021079EB01097AEB0C0A80E8EF
:1008F800F80780414042BDE8F00770472DE9F0074E
:10090800524290E87800B1E880071740DB1918EAEE
:10091800020854EB080419EA020955EB09051AEA1A
:10092800020A56EB0A0678C090E87800B1E880071A
:1009380017407B4118EA020854EB080419EA020937
:1009480055EB09051AEA020A56EB0A0678C08041F7
:100958000130BDE8F00770472DE9F007524290E8F2
:100968007800B1E880071740DB1B18EA020874EB2F
:10097800080419EA020975EB09051AEA020A76EB76
:100988000A0678C090E87800B1E880071740BB41B4
:1009980018EA020874EB080419EA020975EB09055C
:1009A8001AEA020A76EB0A0678C080414042BDE89E
:1009B800F00770472DE9F00152424FF0040890E823
:1009C800300091E8C000A31B1340E41AF618EB1B93
:1009D8001340ED1AFF1830C0C0C1B8F10108EED1BC
:1009E800BDE8F001704700BF00B592EC080AB1E815
:1009F800805707EE101A53EC102A56EC114AA7FB41
:100A08000251A8FB020BE7FB6310E9FB62B041EC63
:100A1800145AA8FB0351EAFB6201E7FB64B5E7FB44
:100A28006605E8FB661505EE10BAA9FB03B6EAFBF6
:100A38006316ECFB6356E8FB640BE9FB641BEAFBFB
:100A4800645BECFB646B05EE900AACFB023012EEC3
:100A5800104AEEFB6250E9FB6460EAFB64B0E7FB16
:100A68006431E8FB645112EE904AE8FB6461E9FBEB
:100A780064B1EAFB640106EE103AA7FB043213EEF8
:100A8800104AE7FB6462E8FB64B2E9FB6402EAFB34
:100A9800641211EE904AE9FB6453EAFB646313EEB7
:100AA800904AE7FB64B3E8FB6403E9FB6413EAFBE1
:100AB800642306EE905A17EE109A99E8000610EE95
:100AC800108AA9FB0854EAFB68B412EE108AECFB02
:100AD8006804EEFB6814E9FB6824EAFB683410EE4E
:100AE800908AEEFB6865E9FB68B5EAFB680512EEDB
:100AF800908AECFB6815EEFB6825E9FB6835EAFB94
:100B0800684507EE106A11EE108AAEFB0876E9FB1D
:100B18006806EAFB681613EE108AECFB6826EEFB03
:100B28006836E9FB6846EAFB685611EE908AECFBEA
:100B380068B7EEFB6807E9FB6817EAFB682713EE5E
:100B4800908AECFB6837EEFB6847E9FB6857EAFBDD
:100B5800686700BD2DE9F04F07EE900AFFF744FFE4
:100B680017EE908A07EE90BAA8EC084A88E8FF00CA
:100B7800BDE8F08F00B591E89857A3FB0352A3FB9B
:100B88000401E3FB6420E3FB671042EC145AA3FB67
:100B98000752E3FB6802E4FB6415E3FB6805E3FB2B
:100BA8006925A4FB07B6E3FB6926E3FB6A56E4FB69
:100BB800670BE4FB682BE3FB6A5BE3FB6C6B40ECC5
:100BC800151AA4FB0810E4FB6950E3FB6C60E3FB17
:100BD8006EB0E7FB6721E4FB6951E4FB6A61E3FB64
:100BE8006EB1E4FB6E0106EE102AA7FB0832E4FBA7
:100BF8006A62E4FB6CB2E4FB6E02E7FB6E12E7FB91
:100C08006853E7FB6963E4FB6CB3E7FB6C03E7FB42
:100C18006E13E8FB6E2306EE905AA7FB0954E7FB18
:100C28006AB4E7FB6C04E8FB6C14E8FB6E24E9FB90
:100C38006E34E8FB6865E7FB6AB5E8FB6A05E8FB24
:100C48006C15E9FB6C25E9FB6E35EAFB6E4507EE92
:100C5800106AA8FB0976E8FB6A06E9FB6A16E9FB55
:100C68006C26EAFB6C36EAFB6E46ECFB6E56E8FB3C
:100C780069B7E9FB6907E9FB6A17EAFB6A27EAFB38
:100C88006C37ECFB6C47ECFB6E57EEFB6E6700BDF8
:100C98002DE9F04F07EE900AFFF76CFF17EE908AE8
:100CA80007EE90BAA8EC084A88E8FF00BDE8F08F84
:100CB80030B44FF0000310F8014B11F8015B013A12
:100CC80084EA050443EA0403F5D1A3F101034FEADA
:100CD800D37030BC704700BF4FF0000310F8012BF1
:100CE800013943EA0203F9D1A3F101034FEAD370B2
:100CF800704700BF30B411F8014B12F8015B6C402B
:100D080000F8014B013BF6D130BC70472DE9F04F9C
:100D180090E8F00F00F140004FF0040E59E0F0B4F5
:100D2800826BC36B04680525242687593C444FEA27
:100D3800724787EAF24787EA92273C4442684FEABB
:100D4800F21787EAB24787EAD2073C4440F8044BD7
:100D5800032D08BF6FF01B0687593A444FEA7347C3
:100D680087EAF34787EA93273A4443684FEAF31739
:100D780087EAB34787EAD3073A4440F8042B8759F0
:100D88003B444FEA744787EAF44787EA94273B4491
:100D980044684FEAF41787EAB44787EAD4073B4424
:100DA80040F8043B013DC0D1A0F13C00076A3C4437
:100DB8004FEA724787EAF24787EA92273C4402687B
:100DC8004FEAF21787EAB24787EAD2073C44C4637E
:100DD800F0BC4FF0020288EA781C8CEAF84C0BEB66
:100DE800BC1C8AEA090303EA080383EA0A039C4451
:100DF80050F8043B9C4451F8043B9C44674444EA43
:100E0800050B0BEA060B04EA05034BEA030BE34464
:100E180084EAF42383EA34530BEBB30B87EA771C99
:100E28008CEAF74C0AEBBC1C89EA080303EA0703BF
:100E380083EA09039C4450F8043B9C4451F8043B62
:100E48009C4466444BEA040A0AEA050A0BEA0403CE
:100E58004AEA030AE2448BEAFB2383EA3B530AEBA0
:100E6800B30A86EA761C8CEAF64C09EBBC1C88EAC5
:100E7800070303EA060383EA08039C4450F8043B8B
:100E88009C4451F8043B9C4465444AEA0B0909EA2E
:100E980004090AEA0B0349EA0309E1448AEAFA2346
:100EA80083EA3A5309EBB30985EA751C8CEAF54CD9
:100EB80008EBBC1C87EA060303EA050383EA070379
:100EC8009C4450F8043B9C4451F8043B9C446444C3
:100ED80049EA0A0808EA0B0809EA0A0348EA030883
:100EE800E04489EAF92383EA395308EBB30884EA32
:100EF800741C8CEAF44C07EBBC1C86EA050303EA75
:100F0800040383EA06039C4450F8043B9C4451F8CC
:100F1800043B9C44E34448EA090707EA0A0708EA4D
:100F2800090347EA0307674488EAF82383EA385342
:100F380007EBB3078BEA7B1C8CEAFB4C06EBBC1C6B
:100F480085EA040303EA0B0383EA05039C4450F88B
:100F5800043B9C4451F8043B9C44E24447EA08069D
:100F680006EA090607EA080346EA0306664487EA2A
:100F7800F72383EA375306EBB3068AEA7A1C8CEA2E
:100F8800FA4C05EBBC1C84EA0B0303EA0A0383EA68
:100F980004039C4450F8043B9C4451F8043B9C4493
:100FA800E14446EA070505EA080506EA070345EAB3
:100FB8000305654486EAF62383EA365305EBB30551
:100FC80089EA791C8CEAF94C04EBBC1C8BEA0A030D
:100FD80003EA090383EA0B039C4450F8043B9C444E
:100FE80051F8043B9C44E04445EA060404EA07043B
:100FF80005EA060344EA0304644485EAF52383EA20
:10100800355304EBB304013A7FF4E5AEA0F1400098
:10101800BEF1010E7FF483AEA0F1400C9CE80F00F6
:10102800001949199219DB19ACE80F009CE80F0068
:101038004044494452445B44ACE80F00BDE8F08F9B
:101048002DE9F00791E8F807B2E802105B1854EBB5
:101058000C04B2E802104D4156EB0C06B2E802103F
:101068004F4158EB0C08B2E8021059EB01095AEB52
:101078000C0A8941B3F1FF3374F1FF3475F1FF3580
:1010880076F1000677F1000778F1000879F1010997
:101098007AF1FF3A51F100015B184C414D4156F18C
:1010A800000657F1000758F1000859EBD1795AEBBF
:1010B800010A80E8F807BDE8F00770472DE9F00756
:1010C80091E8F807B2E802105B1A74EB0C04B2E876
:1010D80002108D4176EB0C06B2E802108F4178EBD6
:1010E8000C08B2E8021079EB01097AEB0C0A894185
:1010F8005B184C414D4156F1000657F1000758F175
:10110800000859EBD1795AEB010A80E8F807BDE8E5
:10111800F007704718EB040859EB05095AEB060A63
:101128005BEB070B5FF0000C4CF1000C18EB0508AB
:1011380059EB06095AEB070A5BEB070B50EB0C005F
:101148005FF0000C51EB0C0152EB0C0263414CF1C7
:10115800000CB8EB070879F100097AF1000A7BEB7B
:10116800040BA841B141A241B3416CF1000CBBEBA7
:10117800050BB041B941AA41BB416CF1000C4CF0E0
:1011880001068CF0020718EB060859EB6C095AEBBC
:101198006C0A7BEB6C0B70EB6C0471EB6C0572EBFF
:1011A800670653EB6C076CEB6C0C18EB0C0059EBF7
:1011B8000C015AEB0C025BF1000354F1000455F1E9
:1011C800000556EBDC7657EB0C0770472DE9F04F1E
:1011D80007EE900AFFF708FC59EC168A17EE10AADA
:1011E800FFF798FF59EC148A5BEC15AAFFF792FFFA
:1011F80017EE908A88E8FF00BDE8F08F2DE9F04FE0
:1012080007EE900AFFF7B6FC59EC168A17EE10AAFB
:10121800FFF780FF59EC148A5BEC15AAFFF77AFFF9
:1012280017EE908A88E8FF00BDE8F08F81F0004152
:1012380002E000BF83F0004330B54FEA41044FEAB3
:10124800430594EA050F08BF90EA020F1FBF54EA4E
:10125800000C55EA020C7FEA645C7FEA655C00F0EA
:10126800E2804FEA5454D4EB5555B8BF6D420CDDBB
:101278002C4480EA020281EA030382EA000083EA3E
:10128800010180EA020281EA0303362D88BF30BDDE
:1012980011F0004F4FEA01314FF4801C4CEA113134
:1012A80002D0404261EB410113F0004F4FEA033393
:1012B8004CEA133302D0524263EB430394EA050F1E
:1012C80000F0A780A4F10104D5F1200E0DDB02FA8D
:1012D8000EFC22FA05F2801841F1000103FA0EF221
:1012E800801843FA05F359410EE0A5F120050EF1E7
:1012F800200E012A03FA0EFC28BF4CF0020C43FA18
:1013080005F3C01851EBE37101F0004507D54FF024
:10131800000EDCF1000C7EEB00006EEB0101B1F574
:10132800801F1BD3B1F5001F0CD349085FEA3000BA
:101338004FEA3C0C04F101044FEA445212F5800FC5
:1013480080F09A80BCF1004F08BF5FEA500C50F162
:10135800000041EB045141EA050130BD5FEA4C0C45
:10136800404141EB0101013C28BFB1F5801FE9D2A2
:1013780091F0000F04BF01460020B1FA81F308BFC5
:101388002033A3F10B03B3F120020CDA0C3208DD91
:1013980002F1140CC2F10C0201FA0CF021FA02F16C
:1013A8000CE002F11402D8BFC2F1200C01FA02F1DC
:1013B80020FA0CFCDCBF41EA0C019040E41AA2BF01
:1013C80001EB0451294330BD6FEA04041F3C1CDAC9
:1013D8000C340EDC04F11404C4F1200220FA04F0E9
:1013E80001FA02F340EA030021FA04F345EA030193
:1013F80030BDC4F10C04C4F1200220FA02F001FA55
:1014080004F340EA0300294630BD21FA04F02946D6
:1014180030BD94F0000F83F4801306BF81F480116F
:101428000134013D4EE77FEA645C18BF7FEA655CE2
:1014380029D094EA050F08BF90EA020F05D054EAB4
:10144800000C04BF1946104630BD91EA030F1EBFB9
:101458000021002030BD5FEA545C05D140004941BD
:1014680028BF41F0004130BD14F580043CBF01F5B0
:10147800801130BD01F0004545F0FE4141F4700196
:101488004FF0000030BD7FEA645C1ABF1946104671
:101498007FEA655C1CBF0B46024650EA013406BF72
:1014A80052EA033591EA030F41F4002130BD00BF31
:1014B80090F0000F04BF0021704730B54FF48064EE
:1014C80004F132044FF000054FF0000150E700BF6F
:1014D80090F0000F04BF0021704730B54FF48064CE
:1014E80004F1320410F0004548BF40424FF00001BB
:1014F8003EE700BF42004FEAE2014FEA31014FEAFE
:1015080002701FBF12F07F4393F07F4F81F060514C
:10151800704732F07F4208BF704793F07F4F04BF97
:1015280041F40021704730B54FF4607401F0004574
:1015380021F000411CE700BF50EA010208BF7047D4
:1015480030B54FF000050AE050EA010208BF7047C5
:1015580030B511F0004502D5404261EB41014FF42E
:10156800806404F132045FEA915C3FF4D8AE4FF036
:1015780003025FEADC0C18BF03325FEADC0C18BF19
:10158800033202EBDC02C2F1200300FA03FC20FA6A
:1015980002F001FA03FE40EA0E0021FA02F11444B7
:1015A800BDE600BF70B54FF0FF0C4CF4E06C1CEAD0
:1015B80011541DBF1CEA135594EA0C0F95EA0C0F41
:1015C80000F0DEF82C4481EA030621EA4C5123EAB4
:1015D8004C5350EA013518BF52EA033541F48011E3
:1015E80043F4801338D0A0FB02CE4FF00005E1FB96
:1015F80002E506F00042E0FB03E54FF00006E1FBE0
:1016080003569CF0000F18BF4EF0010EA4F1FF0422
:10161800B6F5007F64F5407404D25FEA4E0E6D4162
:1016280046EB060642EAC62141EA55514FEAC52073
:1016380040EA5E504FEACE2EB4F1FD0C88BFBCF5EF
:10164800E06F1ED8BEF1004F08BF5FEA500E50F1A0
:10165800000041EB045170BD06F0004646EA010166
:1016680040EA020081EA0301B4EB5C04C2BFD4EB98
:101678000C0541EA045170BD41F480114FF0000E91
:10168800013C00F3AB8014F1360FDEBF002001F0FF
:10169800004170BDC4F10004203C35DA0C341BDC79
:1016A80004F11404C4F1200500FA05F320FA04F04B
:1016B80001FA05F240EA020001F0004221F000417F
:1016C80010EBD37021FA04F642EB06015EEA430EF2
:1016D80008BF20EAD37070BDC4F10C04C4F1200522
:1016E80000FA04F320FA05F001FA04F240EA0200D5
:1016F80001F0004110EBD37041F100015EEA430EA6
:1017080008BF20EAD37070BDC4F1200500FA05F2C5
:101718004EEA020E20FA04F301FA05F243EA020344
:1017280021FA04F001F0004121FA04F220EA020053
:1017380000EBD3705EEA430E08BF20EAD37070BD99
:1017480094F0000F0FD101F00046400041EB010179
:1017580011F4801F08BF013CF7D041EA060195F05B
:10176800000F18BF704703F00046520043EB030315
:1017780013F4801F08BF013DF7D043EA0603704702
:1017880094EA0C0F0CEA135518BF95EA0C0F0CD00D
:1017980050EA410618BF52EA4306D1D181EA030153
:1017A80001F000414FF0000070BD50EA410606BF4D
:1017B8001046194652EA430619D094EA0C0F02D192
:1017C80050EA013613D195EA0C0F05D152EA0336D7
:1017D8001CBF104619460AD181EA030101F00041F5
:1017E80041F0FE4141F470014FF0000070BD41F03E
:1017F800FE4141F4780170BD70B54FF0FF0C4CF418
:10180800E06C1CEA11541DBF1CEA135594EA0C0F36
:1018180095EA0C0F00F0A7F8A4EB050481EA030E83
:1018280052EA03354FEA013100F088804FEA03336A
:101838004FF0805545EA131343EA12634FEA022238
:1018480045EA111545EA10654FEA00260EF00041F9
:101858009D4208BF964244F1FD0404F5407402D24B
:101868005B084FEA3202B61A65EB03055B084FEADC
:1018780032024FF480104FF4002CB6EB020E75EBD9
:10188800030E22BFB61A754640EA0C005B084FEA01
:101898003202B6EB020E75EB030E22BFB61A75467E
:1018A80040EA5C005B084FEA3202B6EB020E75EBC9
:1018B800030E22BFB61A754640EA9C005B084FEA41
:1018C8003202B6EB020E75EB030E22BFB61A75464E
:1018D80040EADC0055EA060E18D04FEA051545EA3D
:1018E80016754FEA06164FEAC30343EA52734FEAE6
:1018F800C2025FEA1C1CC0D111F4801F0BD141EA5F
:1019080000014FF000004FF0004CB6E711F4801FC3
:1019180004BF01430020B4F1FD0C88BFBCF5E06FA3
:101928003FF6AFAEB5EB030C04BFB6EB020C5FEAB3
:10193800500C50F1000041EB045170BD0EF0004E08
:101948004EEA113114EB5C04C2BFD4EB0C0541EA3A
:10195800045170BD41F480114FF0000E013C90E637
:1019680045EA060E8DE60CEA135594EA0C0F08BFFB
:1019780095EA0C0F3FF43BAF94EA0C0F0AD150EAFA
:1019880001347FF434AF95EA0C0F7FF425AF10468D
:1019980019462CE795EA0C0F06D152EA03353FF4B5
:1019A800FDAE1046194622E750EA410618BF52EA32
:1019B80043067FF4C5AE50EA41047FF40DAF52EA06
:1019C80043057FF4EBAE12E74FF0FF3C06E000BFA3
:1019D8004FF0010C02E000BF4FF0010C4DF804CDB0
:1019E8004FEA410C7FEA6C5C4FEA430C18BF7FEA70
:1019F8006C5C1BD001B050EA410C0CBF52EA430C9E
:101A080091EA030F02BF90EA020F0020704710F11D
:101A1800000F91EA030F58BF994208BF90422CBFAC
:101A2800D8176FEAE37040F0010070474FEA410CA5
:101A38007FEA6C5C02D150EA013C07D14FEA430CC3
:101A48007FEA6C5CD6D152EA033CD3D05DF8040B34
:101A5800704700BF8446104662468C461946634666
:101A680000E000BF01B5FFF7B7FF002848BF10F13D
:101A7800000F01BD4DF808EDFFF7F4FF0CBF012082
:101A880000205DF808FB00BF4DF808EDFFF7EAFFFE
:101A980034BF012000205DF808FB00BF4DF808EDB9
:101AA800FFF7E0FF94BF012000205DF808FB00BFAE
:101AB8004DF808EDFFF7CEFF94BF012000205DF838
:101AC80008FB00BF4DF808EDFFF7C4FF34BF012045
:101AD80000205DF808FB00BF4FEA410C7FEA6C5C10
:101AE80002D150EA013C0AD14FEA430C7FEA6C5C10
:101AF80002D152EA033C02D14FF0000070474FF088
:101B0800010070474FEA410212F5001215D211D5B3
:101B18006FF47873B3EB625212D94FEAC12343F0E2
:101B2800004343EA505311F0004F23FA02F018BF64
:101B3800404270474FF00000704750EA013005D12D
:101B480011F0004008BF6FF0004070474FF00000F0
:101B5800704700BF4A0011D212F5001211D20DD5FC
:101B68006FF47873B3EB62520ED44FEAC12343F09B
:101B7800004343EA505323FA02F070474FF0000045
:101B8800704750EA013002D14FF0FF3070474FF0F4
:101B9800000070474FEA4102B2F1E04324BFB3F5B9
:101BA800001CDCF1FE5C0DD901F0004C4FEAC002CC
:101BB8004CEA5070B2F1004F40EB830008BF20F0B0
:101BC8000100704711F0804F21D113F13872BCBF6A
:101BD80001F00040704741F480114FEA5252C2F1BF
:101BE8001802C2F1200C10FA0CF320FA02F018BF08
:101BF80040F001004FEAC1234FEAD32303FA0CFC5B
:101C080040EA0C0023FA02F34FEA4303CCE77FEAE9
:101C1800625307D150EA01331EBF4FF0FE4040F433
:101C28004000704701F0004040F0FE4040F40000E2
:101C3800704700BF7BB972B90029BEBF00204FF0C2
:101C4800004106E008BF00281CBF6FF000414FF0BC
:101C5800FF3000F075B8ADF1080C6DE904CE00292D
:101C680009DB002B1ADB00F0E3F8DDF804E0DDE91E
:101C7800022304B07047404261EB4101002B1BDB9B
:101C880000F0D6F8DDF804E0DDE9022304B04042B4
:101C980061EB4101524263EB43037047524263EBED
:101CA800430300F0C5F8DDF804E0DDE9022304B0E1
:101CB800404261EB41017047524263EB430300F03D
:101CC800B7F8DDF804E0DDE9022304B0524263EB23
:101CD8004303704753B94AB9002908BF00281CBFFD
:101CE8004FF0FF314FF0FF3000F02AB8ADF1080C8B
:101CF8006DE904CE00F09CF8DDF804E0DDE902238C
:101D080004B07047D0B500220B4B06460F46FFF7CC
:101D180049FCFFF71FFF0446FFF7CAFB0022074BE9
:101D2800FFF740FC02460B4630463946FFF782FA79
:101D3800FFF710FF2146D0BD0000F03D0000F04144
:101D4800704700BF70B4840746D04C1E002941D0AC
:101D5800D5B2034602E0611EE4B30C4603F8015B0A
:101D68009907F8D1032C2ED9D5B245EA05250F2CB1
:101D780045EA054519D9264603F11001103E0F2EF4
:101D880041F8105C41F80C5C41F8085C41F8045CCF
:101D980001F11001F2D8A4F1100121F00F0104F0B3
:101DA8000F041031032C0B440DD91E46214604396B
:101DB800032946F8045BFAD8211F21F003010431F6
:101DC8000B4404F003042CB1D2B21C4403F8012BD9
:101DD800A342FBD170BC70470C460346C2E710F81B
:101DE800012B11F8013B012A28BF9A42F7D0D01ADB
:101DF8007047034613F8012B002AFBD1181A013843
:101E0800704738B50022002304460D46FFF73CFE14
:101E180028B920462946BDE83840FFF773BF204659
:101E280005F10041FFF76EFF404261EB410138BD0B
:101E38002DE9F04786468C460846089E15467446A6
:101E48001946002B40F0C1808542B2FA82F245D98A
:101E58004AB1C2F1200300FA02FC954094402EFAE0
:101E680003F343EA0C0C4FEA154EA8B2230CBCFB53
:101E7800FEF80EFB18CC08FB00F943EA0C43994521
:101E880028D9EB1808F1FF3704D2994502D9A8F1EF
:101E980002072B44A3EB0903A4B2B3FBFEFC0EFB21
:101EA8001C330CFB00F044EA0344A04214D92C195B
:101EB8000CF1FF3304D2A04202D9ACF102032C4446
:101EC800241A43EA07401EB1D440002334607360EB
:101ED800BDE8F0874746DDE76346F1E792BB431B61
:101EE80001214FEA154EAFB2200CB3FBFEFC0EFBEE
:101EF8001C330CFB07F840EA0343984561D9EB18FB
:101F08000CF1FF3004D2984502D9ACF102002B4401
:101F1800A3EB0803A4B2B3FBFEFC0EFB1C330CFBC3
:101F280007F744EA0344A7424DD92C190CF1FF33B3
:101F380004D2A74202D9ACF102032C44E41B43EAC1
:101F48000040C0E7C2F120039540944020FA03F115
:101F58002EFA03F34FEA154E9040AFB20343B1FB9C
:101F6800FEFC0EFB1C10190C0CFB07F841EA0041A3
:101F7800884522D969180CF1FF3004D2884502D966
:101F8800ACF102002944A1EB08019BB2B1FBFEFCB5
:101F98000EFB1C110CFB07F743EA01439F420ED9C5
:101FA800EB180CF1FF3104D29F4202D9ACF10201C7
:101FB8002B44DB1B41EA004193E76046E3E76146B7
:101FC800F7E76046A4E76346B8E7834206D916B93F
:101FD800002108467CE7C6E900E0F9E7B3FA83F791
:101FE8008FB9834201D3724508D8BEEB020460EB77
:101FF800030301209C461EB9002169E73846FAE729
:10200800C6E9004CF8E7C7F1200CBB400EFA07F50B
:1020180022FA0CF42EFA0CF1BA401C4320FA0CF305
:10202800B8404FEA144901431FFA84FEB3FBF9F89C
:1020380009FB18300B0C08FB0EFA43EA00439A45DB
:1020480040D9E31808F1FF3004D29A4502D9A8F123
:1020580002002344A3EB0A0389B2B3FBF9F809FB96
:10206800183308FB0EFE41EA03418E452CD961184E
:1020780008F1FF3304D28E4502D9A8F102032144A6
:1020880043EA0040A1EB0E01A0FB02984145CE4671
:10209800434602D306D14D4504D20138B9EB020EAE
:1020A80068EB0403002EA7D0B5EB0E0261EB030129
:1020B80001FA0CFC22FA07F3F9404CEA0303C6E9DB
:1020C800003199E74046C5E74346D9E700000000DC
:1020D80010B584460C460C48ACFB000108A3D3E9B4
:1020E80000234FF0070E0EFB0C11FFF7F3FD074B13
:1020F8001B68074A02FB0300204410BDAFF30080B1
:1021080000CA9A3B000000008D49FD1A104D0120BD
:102118000080841E000000002DE9F04D2DED028B9B
:1021280088B000AF054640688368DB683F21984760
:10213800041EC0F23381686883681B6907F11802BE
:102148001F219847041EC0F22981686883681B69AB
:1021580007F1100221219847041EC0F21F81686808
:1021680083681B6907F1080222219847041EC0F200
:102178001581914B1B6803F00703022B40F2158170
:102188002E68B869FFF7A4F904460D46F869FFF709
:102198009FF987A3D3E90023FFF72EFB02460B46DE
:1021A80020462946FFF748F800220023FFF744F8A5
:1021B80041EC180B3869FFF78BF904460D4678692E
:1021C800FFF786F97AA3D3E90023FFF715FB024648
:1021D8000B4620462946FFF72FF80022774BFFF7DA
:1021E800E1F900220023FFF727F882468B46B868FA
:1021F800FFF76EF904460D46F868FFF769F96CA316
:10220800D3E90023FFF7F8FA02460B462046294691
:10221800FFF712F80022694BFFF7C4F900220023E8
:10222800FFF70AF841EC170B6D4600233B710223B8
:102238007B711C230C2213F0070F02D108320833DC
:1022480004E004320433F6E70432043313F0070FD2
:10225800FAD10832083301E00432043313F00704DA
:10226800FAD102F10A0C6346213222F00702ADEBE3
:10227800020D6A46BCF1000F7AD002F11008BCF1D9
:10228800030F73D9B8F1000F04D0BCF1040F01DDBE
:102298004B4B536100233B7002237B70B8F1000F56
:1022A80003D0BCF1080F00DD96611C210C200B4601
:1022B80011F0070F0DD18646B8F1000F05D0604523
:1022C80003DA08EB000181ED008B0EF1080E0833EC
:1022D80005E004300431EAE70EF1040E0433194630
:1022E80013F0070FF8D17646B8F1000F05D0E64590
:1022F80003DA08EB0E03C3E900AB083601F1080363
:1023080001E00436043313F0070FFAD13346B8F16D
:10231800000F05D0664503DA08EB060181ED007B66
:1023280003F108060A33B8F1000F0DD008EB0601D7
:10233800002007E000F1200EBE441EF820EC01F852
:1023480001EB01300128F5D99C4501DA6FF01B0338
:10235800B8F1000F0CD0C6F387063E7100217971E1
:10236800B9710121F9717868106101E06FF01B0300
:1023780000216FF300016FF341016FF382016FF3E6
:10238800C501032060F3881163F353216FF31F51D4
:102398001032002308480FF0AFFAAD462046203728
:1023A800BD46BDEC028BBDE8F08D0024F6E700BF0A
:1023B8000000000080842E41B426002000408F4099
:1023C800649B07000000000070B500283CD006465A
:1023D800EFF3118C202383F31288BFF36F8F6546C8
:1023E8000024042C28D804EB44031B4850F833304D
:1023F8000BB10134F5E704EB440C00EBCC0340F8D7
:102408003C601A619FED127B83ED027B5961134B8F
:102418001B784BB9124B186830B183681B680221CE
:1024280098470E4B01221A7020460FF099FE85F34B
:102438001188BFF36F8F05E08CF31188BFF36F8F9E
:102448006FF00B04204670BD6FF01504FAE700BF6B
:10245800FFFFFFFFFFFFFFFFF84F0020FB8F01206A
:10246800E84F0120000000002DE9F04F8DB00990E1
:102478000D46174670F0D3FB4B0143EAD063440185
:10248800241A63EB01039B0043EA9473A400241805
:1024980043EB0101C90041EA5471C4F3103444EA22
:1024A80041444FEAD139012D65D07D6829463C4821
:1024B800FFF795FC28B129463A48FFF790FC002819
:1024C80061D135A3D3E9002320464946FFF7B2FB83
:1024D80080460A9130A3D3E9002320464946FFF7F6
:1024E800A9FB15461C46304A002328462146FFF71B
:1024F800A1FB06460F462C4A002328462146FFF733
:1025080099FB15461C464EF66022002328462146B4
:10251800FFF790FB81460B914EF660220023284678
:102528002146FFF787FB15461C464FF47A720023B5
:1025380028462146FFF77EFB83468A464FF47A7287
:10254800002328462146FFF775FBCDE90623CDF881
:1025580010B0CDF814A0CDF808900B9A039200960D
:10256800019742460A9B114909985BF071FE0020C9
:102578000DB0BDE8F08F22464B460D4909985BF037
:1025880067FE0020F4E72A460A4909985BF06FFEC7
:102598006FF00400ECE700BF005C260500000000B7
:1025A80094A8070098A8070080EE3600BCA807008A
:1025B80080A80700A4A8070010B582B004469FEDC4
:1025C8000A7B8DED007B0A485DF035FA034628B199
:1025D800047614F0800F01D100220282184602B05E
:1025E80010BD00BFAFF30080000000000000000035
:1025F800AC2E00200000000010B5082140F6014074
:1026080017F064FAD8B1044608210C305DF05AFB83
:1026180002460F4B93F8903013F0010F0BD10D4881
:102628004FF0005161F045FC0022214640F6014080
:1026380017F0C8FE10BD04A1D1E90001F2E76FF060
:102648006800F7E7AFF30080908800020080002060
:10265800F00400201088000230B589B004460C9DB3
:102668000020C4F80801C4F80C0104F58870C4F807
:102678001001C4F8140104F58C70C4F81801C4F8EA
:102688001C011DB3287918BB0120C4F820019FED57
:10269800127B8DED067B002004900393029001903D
:1026A80000940F4B204670F013F855B1296811B10A
:1026B800204639F059F86B791BB1237B43F00103AD
:1026C8002373204639F0A2FC09B030BD0120DCE7B5
:1026D80040F20110D9E700BFFFFFFFFFFFFFFFFF38
:1026E800B9B403000000000010B582B0044600230E
:1026F80004320ED27BB99FED0A7B8DED007B41F051
:10270800040120466FF066FB08B140F8044B02B0A4
:1027180010BD0123EEE70020F9E700BFAFF300800A
:1027280000000000000000002DE9F04F1F469DB09A
:1027380000230C4682460F9218934FF00008984BDE
:102748004FF000091D682846FFF753FB22468346D1
:10275800179213782B2B3BD02CD80D2B26D8082B6F
:1027680026D8002B2FD000230D93179E3378302BBB
:1027780074D1737803F0DF03582B65D10D9B17A92B
:10278800884A5046019318AB0297009319AB55F04D
:102798009DF910F00705044635D0062D1AD10F9B78
:1027A8000BB101361E6042464B4637E0202BDAD18A
:1027B8000132CDE72D2BD6D101230D93531C17934E
:1027C8005378002BD1D10F9B002BECD01C60EAE78B
:1027D8000023F2E7189A3AB135211AA872F031FCB1
:1027E8001899504655F032FC013D199A042D06D827
:1027F800DFE805F0190322251900DDE91A89210708
:1028080001D549F000490F9B13B1179B0F9A13602C
:102818000D9B002BC7D0424609F1004343EC102B17
:102828001DB0BDE8F08FDDE91A8302F2334223F4CC
:10283800801343EA0259E2E7DFF86C91DFE76FF0B3
:1028480000494FF0FF38DAE7179B5A1C17925B785C
:10285800302BF9D0002BD6D0012300E0002300272D
:1028680004930A22179BCDE905770A9317980678EF
:10287800A6F13003D9B2092924D95A46294672F05B
:102888003CF800282DD000203246059D834603469B
:10289800652A01D0452A13D11DB9049A024392D062
:1028A8000025179C621C179262782B2A6ED02D2A5D
:1028B80072D04FF0000CA2F1300109297AD917948F
:1028C800002699E00599013008291790D7BF069985
:1028D80002FB073702FB01330693059B013305937F
:1028E800C4E7179B03EB0B02179213F80B20059B09
:1028F800A3B383461D46A2F13003092B12D9012345
:10290800C6E7179B01305A1C17925A78302AF8D01C
:10291800A2F13103082B00F2EF8483460020179BB5
:1029280005460A93303A00F1010311D09B4400EBAD
:10293800050C2B460A21634512D12B180135082BAB
:10294800054419DC06990A2303FB01230693002397
:10295800179A1846511C17915278CCE70598D5E775
:10296800082B03F1010303DC069E4E430696E2E7BB
:10297800102BD8BF4F43DEE70F2BDCBF0A2303FB26
:102988000727E4E74FF0000B012386E74FF0000C20
:10299800A21C1792A2788EE74FF0010CF8E700BF4F
:1029A80098500800245008000000F07F179A511C26
:1029B80017915278302AF9D0A2F1310108293FF64F
:1029C8007FAF303A0792179A0C92179A561C1796AF
:1029D8005278A2F1300EBEF1090F38D90C99761A47
:1029E800082E44F61F6603DC07998E42A8BF0E46E0
:1029F800BCF1000F00D07642002D4FD10499084356
:102A08007FF401AF002B7FF4DEAE692A29D026DCE3
:102A1800492A26D04E2A7FF4D6AE9B4917A872F0D1
:102A28008EF900283FF4CFAE179B1B78282B2FD1A7
:102A38001AAA964917A872F096F9052828D11B9B5F
:102A4800DDF8688043F0FF4949F4E009DBE6079EBA
:102A58000A2101FB0621A1F130020792B5E76E2A8F
:102A6800D9E78B4917A872F06AF900283FF4ABAE92
:102A7800179B17A88749013B179372F060F910B9A3
:102A8800179B01331793DFF81C924FF00008BAE642
:102A9800814801F079FA59EC108BB4E6A6EB0B03E8
:102AA80006982C460C93059B002B08BF2B46102D2F
:102AB8000593A8BF1024FEF7FBFC092D8046894624
:102AC80013DC0C9B002B3FF49EAE0C9B78DD162B81
:102AD80045DC7249424601EBC3014B46D1E900018E
:102AE800FEF760FD804689468DE66C4B03EBC40318
:102AF80053E91223FEF756FD804689463846FEF70D
:102B0800D7FC02460B4640464946FEF795FB0F2D7B
:102B180080468946D5DD2C1B0C9B1C44002C25DCEB
:102B280000F0A280644214F00F020AD05B4B4046CA
:102B3800494603EBC203D3E90023FEF75DFE804656
:102B48008946241100F090801F2C40F3B180222385
:102B58004FF000084FF00009CAF8003053E6C5F1FD
:102B680025030C9A934219DA2C1B144414F00F0312
:102B78000AD04A49424601EBC3014B46D1E900015C
:102B8800FEF710FD8046894634F00F046CD0B4F58A
:102B98009A7F41DD2223CAF8003074E7C5F10F059A
:102BA8003E4C42464B4604EBC501D1E90001FEF715
:102BB800F9FC0C9B5D1B04EBC504D4E900238FE7EB
:102BC8001633A8DBABEB0602344B4046494603EB11
:102BD800C203D3E90023FEF70FFE83E70023069321
:102BE8002223DFF8C0904FF00008CAF80030189987
:102BF800504655F02BFA0699504655F027FA059994
:102C0800504655F023FA1099504655F01FFA079987
:102C1800504655F01BFAF6E5002324114046494674
:102C28001F4F0493012C22DC0BB180468946049B7C
:102C3800A9F154791A49424601EBC3014B46D1E93F
:102C48000001FEF7AFFC174B0A4680460B401649B9
:102C58008B429FD8A1F580118B4286BFDFF84C903C
:102C68004FF0FF3802F15479002304934BE0E20758
:102C780004D5D7E90023FEF795FC0123049A6410D4
:102C8800083701320492CDE7719E08001050080001
:102C9800699E08009B9E0800519D0800D8610700A6
:102CA800B06107000000F07F0000A07CFFFFEF7F0D
:102CB80014F0100340464946AA4F18BF6A230493EC
:102CC8000023E20704D5D7E90023FEF76BFC0123B4
:102CD800641007F10807F4D10BB180468946049BBC
:102CE80043B1C9F30A524946C2F16B03002B4EDCCB
:102CF8006A2304930022002340464946FEF7BAFEA1
:102D080000287FF424AF069B5046059A00932B4673
:102D18000A9955F005FA109000283FF43BAF0C9B38
:102D2800ABEB060B002BB4BF5B46002311930C9B47
:102D380023EAE3731393002307930593109B5046EC
:102D4800596855F043F9069000283FF449AF109BA5
:102D58000C301A6903F10C010232920071F04DFC3B
:102D68001AAA19A9504649EC108BCDE90A8955F0E1
:102D7800B3FC189000283FF433AF0121504655F0BA
:102D880019FA03460590D0B90023059328E71F2BAD
:102D98000EDD342B4FF00008DBBF4FF0FF33C2F1DC
:102DA8004B024FF05C799340D8BF03EA01099FE7D3
:102DB8004FF0FF3202FA03F303EA080898E7199C78
:102DC8001A9A002CA9BF119B139BE718139EB8BF32
:102DD8001E1B049BB8BF119FE41A634B1444C2F135
:102DE8003602013C9C4280F2B0801B1B01251F2B40
:102DF800A2EB0302CDBFC4F17F449D40002404F53B
:102E08007F04C2BF04F57B44E23405FA04F407EBFF
:102E1800020B049B16445F451E443B46A8BF5B4615
:102E2800B342A8BF3346002BC2BFABEB030BF61A65
:102E3800FF1A119B002B16DD1A460599504655F0CE
:102E480079FA059000289FD00146189A504655F007
:102E5800C7F90E9000283FF4C3AE1899504655F0B4
:102E6800F5F80E9B1893BBF1000F71DC0C9B002B3F
:102E780008DD139A5046069955F05CFA069000282A
:102E88003FF4ACAE002E08DD32460699504655F0A8
:102E9800ABFA069000283FF4A1AE002F08DD3A46B1
:102EA8000599504655F0A0FA059000283FF498AED1
:102EB800069A5046189955F003FB079000283FF4EE
:102EC8008FAEC36805990E930023C36072F06CF847
:102ED80000284BDA0E9B53EA080340F0BC80C9F384
:102EE8001303002B40F0B78029F000431B0D1B058E
:102EF800B3F1D66F40F2AF80079B5B6923B9079B9C
:102F08001B69012B40F3A78001220799504655F011
:102F18006BFA0599079072F047F8002840F39B80F8
:102F280029F00043049A1B0D1B05002A79D0B3F140
:102F3800D66F6DD8B3F15C7F46D84FF000084FF0DC
:102F480000092223CAF8003051E6002401255EE773
:102F58005A461899504655F047FA1890002885D1D6
:102F68003EE600BF8861070002FCFFFFCB4640F049
:102F7800A3800E9AC9F31303002A40D09C4A9342B7
:102F880058D1049B42467BB9B8F1FF3F40F0898095
:102F9800984B99453FF424AE974BDDF8108009EA29
:102FA800030303F5801922E6934B09EA0303B3F1FF
:102FB800D46F16D918F101011BD18E4A91453FF4FF
:102FC8000FAE03F5801980468C4B404649460022D7
:102FD800FEF7E8FA0B468046894603437FF407AEBE
:102FE800AFE71E0D4FF0FF31C6F16B06B1408845C3
:102FF800E7D0002C5ED014EA0B0FE5D01EE0002BC2
:103008004AD1B8F1000F8BD064B314EA0B0F2BE050
:10301800A3F580134FF0FF386FEA13596FEA095987
:10302800D2E7A3F580134FF0FF386FEA13596FEA20
:103038000959DCE59CB114EA090F0CD04046494611
:10304800049A71F0A1FCDDE90A0153EC102BFEF79C
:10305800F3F880468946049B002BB5D1C7E515EAED
:10306800080FEAE718EA050FF5D0049A40464946E2
:1030780071F08AFCDDE90A0153EC102BFEF7DAF84F
:103088000022002304460D46FEF7F4FC00287FF4D6
:1030980054AFA046A946DEE7002CB6D115EA080FC2
:1030A800E2E724B114EA090F3FF4A1ADC6E718EA34
:1030B800050FF9E72A42A0E70599079871F08FFFF5
:1030C80000224FF0804355EC104B20462946FEF76E
:1030D800E5FC00286DD00E9B002B78D1B8F1000FCD
:1030E80056D1C9F31303002B59D10022444B204673
:1030F8002946FEF7C9FC002858D120462946002257
:10310800404BFEF74FFA04460D4605F1004308947C
:103118000993394B0BEA03031293129A3A4B9A42DA
:10312800DDE9086740F0A980ABF1547949EC108BD0
:1031380055F05EFADDE9082351EC100BFEF732FA80
:1031480042464B46FEF778F80B462B4980462F4AF5
:10315800194091425CD90B9A264B9A4203D10A9B9B
:1031680001333FF43DADDFF88C904FF0FF381899EC
:10317800504654F06BFF0699504654F067FF059986
:10318800504654F063FF0799504654F05FFFD5E569
:10319800B8F1010F03D1B9F1000F3FF4CEAE00240E
:1031A800174D9FED0F7B8DED087BB2E70024154D81
:1031B800ABE7144B204629460022FEF7F3F90E9B95
:1031C80004460D46002BA0D0CDE90845A1E79FEDA8
:1031D800067B55EC174B8DED087B9AE7AFF3008023
:1031E800000000000000F0BF000000000000F03FF9
:1031F800FFFF0F00FFFFEF7F0000F07F0000503956
:103208000000F03F0000E03F0000E07FFFFF9F7CF0
:1032180003F15479049B4E46002BA8D129F00043B2
:10322800129A1B0D1B059A42A1D120462946FEF78A
:10323800E8FDC9F31306FEF787F90B46024629464F
:10324800204646EA0806FDF7F5FF0E9B04460D46A4
:103258001E434BD02EA3D3E90023FEF715FC00280C
:103268007FF4C5AC204629462BA3D3E90023FEF7FB
:1032780029FC00283FF47BAFB9E4049B13B3129BED
:10328800B3F1D46F1ED82046294625A3D3E90023DD
:10329800FEF704FC90B129462046FEF75BFC0128A6
:1032A80038BF0120FEF704F90E9B04460D46D3B93A
:1032B80001F1004314901593DDE9146707F1D66313
:1032C800129A9F1A9DED0A0B55F092F9304639462D
:1032D80053EC102BFEF766F9DDE90A23FDF7ACFF86
:1032E8008046894696E7CDE91445E5E70EA3D3E97C
:1032F8000023FEF7C9FBBCE7652A3FF443AB452A28
:103308003FF440AB0123FFF779BB00BFAFF3008068
:103318009535A094FFFFDF3F35E5AF350000E03F6E
:103328000000C0FFFFFFDF419535A094FFFFCF3FAE
:103338002DE9F04F476A97B08346209E08910C927A
:10334800129355EC104B8DED000B7FB9102053F004
:10335800DBFB0246CBF8240020B9A74BEA21A7489B
:1033680053F08EFBC0E901770760C760DBF82430B3
:10337800196859B15A680123584693404A608B60CE
:1033880054F064FEDBF8243000221A602B1EB7BF0D
:1033980023F00043002301220193A8BF3360019F5B
:1033A800974BB8BF3260BB4319D142F20F73129AE0
:1033B8001360C7F31303234300F0DB85219B53B944
:1033C800904B21E0904B03930833219A13600398A4
:1033D80017B0BDE8F08F8B4B03930333F5E79DEDF2
:1033E800007B0022002351EC170B8DED0A7BFEF7C2
:1033F80041FB804650B10123129A1360219B13B1FF
:10340800824B219A1360824B0393E0E7C7F30A5675
:1034180014AA15A958469DED0A0B55F05DF90290BE
:10342800002E76D00B9BA6F2FF36CDF84C80C3F366
:10343800130343F07F53DDE90A0143F440131946AF
:103448000022744BFDF7F6FE65A3D3E90023FEF7CF
:10345800A9F865A3D3E90023FDF7EEFE04460D465F
:103468003046FEF735F862A3D3E90023FEF79AF851
:1034780002460B4620462946FDF7DEFE04460D4669
:10348800FEF740FB00220746002320462946FEF7A8
:10349800FBFA40B13846FEF71BF822462B46FEF7EA
:1034A800E9FA00B9013F162F52D85B4B03EBC7036B
:1034B800DDE90A01D3E90023FEF7E6FA002849D03E
:1034C800013F00231193149B9B1B5A1E4CBFC3F151
:1034D80001030023079245BF069300230693079331
:1034E800002F39DB079B10973B4407930023099370
:1034F800089B092B66D8052BC5BF043B0024012473
:103508000893089B023B032B67D8DFE803F02D3AAA
:103518003859DDE914631E4406F23243202BC9BF33
:10352800C3F14003C3F120039F4006F21243D8BF02
:1035380004FA03F006F1FF36C4BF24FA03F347EA9E
:103548000300FDF7B5FF0122A1F1F873139276E7A6
:103558000123B7E71190B6E7069BDB1B06937B4276
:10356800099300231093C3E700230D930C9B002BB2
:1035780056DC012399461A4604930C920CE0012369
:10358800F3E700230D930C9BFB1803F10109049347
:103598004B46012BB8BF0123DBF82400002104228D
:1035A80002F114059D423FD94160584654F00EFD82
:1035B800039000283BD1194B02464FF4D571CEE653
:1035C8000123DFE7012400230D9408934FF0FF3314
:1035D8000022994604931223CFE701230D93F5E7C0
:1035E80061436F63A787D23FB3C8608B288AC63F01
:1035F800FB799F501344D33FA59E0800BC9E08004A
:103608000000F07FA19E0800989E0800759E0800A3
:10361800749E08000000F83FD8610700189F080052
:103628000C9B99460493B7E701315200B8E7DBF8E1
:103638002430B9F10E0F039A1A606FD8002C6DD0A0
:10364800002F36DD07F00F02A04BF8054FEA2714CC
:1036580003EBC20393ED007B8DED0E7B17D59C4BDE
:1036680004F00F044FF00308D3E90823DDE90A0149
:10367800FEF7C2F8CDE90001954D5CB9DDE90E23EE
:10368800DDE90001FEF7B8F8CDE900012BE04FF0C5
:103698000208F1E7E10709D508F10108DDE90E01A3
:1036A800D5E90023FDF77EFFCDE90E01641008354A
:1036B800E3E700F007817C42844B854D4FF0020818
:1036C80004F00F02241103EBC203DDE90A01D3E978
:1036D8000023FDF767FF0023CDE90001002C40F02F
:1036E800E580002BD0D1119BDDE90045002B00F0CF
:1036F8004C810022774B20462946FEF7C5F9002861
:1037080000F04381B9F1000F00F03F81049B002BCA
:1037180000F3E480DDE90A34CDE90034159B002B81
:1037280002DB0E2F40F342820D9A002A40F0678296
:10373800099C0025DDF81880B8F1000F0DD0079B13
:10374800002B0ADD4345069AA8BF4346D21AA8EBC8
:1037580003080692079AD31A0793099B0BB30D9B8C
:10376800002B00F0A682002C00F0A18229462246F8
:10377800584654F0DFFD029A01460546584654F073
:103788002FFD02990646584654F060FC099B1B1B06
:10379800099300F09182099A3146584654F0CAFDBF
:1037A80002900121584654F005FD109B0446002B59
:1037B80000F084821A460146584654F0BBFD089B27
:1037C8000446012B03DC009B002B00F07C820026C2
:1037D800236904EB8303186971F097FBC0F120009B
:1037E8001096079B184410F01F0000F09182C0F15A
:1037F8002003042B40F38182C0F11C00069B034484
:1038080080440693079B03440793069B002B05DD22
:103818001A460299584654F0E7FD0290079B002B80
:1038280005DD21461A46584654F0DEFD0446119B34
:10383800002B00F076822146029871F0B5FB002833
:1038480080F26F8200230A220299584654F020FC25
:103858000D9B7E1E0290002B00F05C8200232946FF
:103868000A22584654F014FC049B0546002B03DC3E
:10387800089B022B00F35E82B8F1000F05DD294694
:103888004246584654F0B0FD0546109B002B00F008
:10389800D0826968584654F099FB0746002840F0E2
:1038A8007F820D4B024640F2EA2158E5E20706D531
:1038B80008F10108D5E90023FDF774FE012364101F
:1038C80008350BE74FF002080DE700BFD861070085
:1038D800B06107000000F03F189F08002046002252
:1038E800AC4B2946FDF75EFE7E1E08F10108049CDC
:1038F800CDE900014046FDF7EBFDDDE90023FDF7CA
:1039080051FEA54B0022FDF797FCA1F15073CDE9BC
:103918000E010F93002C3BD10022A04BDDE90001E2
:10392800FDF788FC02460B46CDE90023DDE90E23AE
:10393800FEF7C8F8002840F05781DDE90E2101F1B3
:103948000043DDE90001FEF79FF800283FF4E2AEEE
:10395800002425460C9BDDF80CA0DE434FF0000840
:103968002146584654F072FB002D00F0A980B8F1AA
:10397800000F05D0A84503D04146584654F066FBD1
:103988002946584654F062FB9AE03E464C46B1E759
:10399800834B03EBC40353E90201039B1C440D9BB7
:1039A800002B4AD002460B4600207E49FDF724FF33
:1039B800DDE90E23FDF73EFCDDF80CA0CDE90E0194
:1039C800DDE90001FEF79EF80546FDF781FD024698
:1039D80030350B46DDE90001FDF72CFC0AF8015BE8
:1039E80002460B46CDE90001DDE90E01FEF76AF853
:1039F800002865D100206C49DDE90023FDF71AFC99
:103A080002460B46DDE90E01FEF75CF8002840F09F
:103A18000D81A24500F0EA8000225E4BDDE90E012F
:103A2800FDF7C0FD00225B4BCDE90E01DDE9000189
:103A3800FDF7B8FDCDE90001C2E7DDE90E23FDF78A
:103A4800B1FDA046DDF80CA0CDE90E01DDE90001CD
:103A5800FEF758F80546FDF73BFD024630350B46A4
:103A6800DDE90001FDF7E6FB0AF8015B02460B46BB
:103A7800A245CDE900234FF0000223D1494BDDE9EF
:103A88000E01FDF7D9FB02460B46DDE90001FEF702
:103A980019F8002840F0CA8000204249DDE90E23C9
:103AA800FDF7C8FB02460B46DDE90001FDF7ECFF18
:103AB80070B1C24608F1FF381AF8013C302BF8D033
:103AC800374655E0334BFDF76DFDCDE90001BDE705
:103AD800DDE90A34CDE90034159B002BFFF628AE4A
:103AE8000E2F3FF725AE2E4B03EBC70393ED007B5C
:103AF8000C9B002B8DED047B02DAB9F1000F64D02A
:103B0800DDF80CA0DDE90045DDE90423204629465F
:103B1800FDF772FEFDF7F6FF0646FDF7D9FCDDE975
:103B28000423FDF73FFD0246204606F130040B460C
:103B38002946FDF77FFB0AF8014B039C02460B461A
:103B4800AAEB0404A14540F08280FDF775FB04460A
:103B58000D46DDE90423FDF7B5FF002865D12046B1
:103B68002946DDE90423FDF785FF08B1F3075CD496
:103B78000299584654F06AFA002301378AF800304F
:103B8800129B1F60219B002B3FF421ACC3F800A0BF
:103B98001DE400BF0000244000001C400000144049
:103BA800D86107000000E03F0000F03FA24B03EBA4
:103BB800C70393ED007B0C9B002B8DED047B9FDAF4
:103BC800B9F1000F9CDC7FF4C3AE00229B4BDDE90A
:103BD8000401FDF7E7FCDDE90023FDF769FF044672
:103BE80000287FF4B5AE3E462546B4E0DDE90A3448
:103BF800CDE90034159B002B01DB0E2FD6DD089A8A
:103C0800012A36DC139A82B303F23343099CDDF8A8
:103C18001880069A012158461A440692079A1A44AF
:103C2800079254F0C7FA054686E53E4653469A463B
:103C380013F8012D392A06D1039A9A42F7D1302276
:103C4800039901360A701A7801321A7038E700228F
:103C58007B4BFDF7A7FC0022002304460D46FDF729
:103C680009FF00283FF450AF82E7149BC3F13603E5
:103C7800CCE709F1FF34099BA34208DBB9F1000F37
:103C8800A3EB04040EDBDDF818804B46C1E7099B63
:103C9800109AE31A0994DDF8188000241A444B4658
:103CA8001092B6E7069BA3EB09080023B1E7029E32
:103CB80071E5099A029970E5029672E5089B012B55
:103CC80017DC009BABB9019BC3F313039BB9019BA2
:103CD80023F00046360D360536B1069B0126013322
:103CE8000693079B01330793109B002B7FF470AD5D
:103CF8001096012075E50026F6E73FF486AD1C33E3
:103D0800069A1A4498440692079A1A4407927CE540
:103D18000346F4E7049B002B2BDC089B022B09DCF1
:103D280027E0B9F1000F1DDC089B022B1ADD3E4687
:103D3800CDF81090049B002B7FF40CAE2146052291
:103D4800584654F0A5F901460446029871F02CF93A
:103D580000287FF7FFADDDF80CA0312301360AF803
:103D6800013BFBE50D9B3E46CDF81090002B7FF400
:103D780083AD039F2146029870F024FE039B00F157
:103D88003009049A07F8019BFB1A9A4240F3CB804A
:103D980000230A220299584654F07AF90290E9E77A
:103DA8002A6905F10C010C300232920070F025FCF2
:103DB80001223946584654F017FB039BA84605468E
:103DC80003F1010ADDE9032313440793009B03F081
:103DD800010309930AF1FF3321460298049370F016
:103DE800F1FD4146069000F13009029871F0DCF8C7
:103DF8002A4621460746584654F062FBC2680146E7
:103E080002B3584654F022F9002F3ADA01220299F7
:103E1800584654F0E9FA2146029071F0C5F8002896
:103E280003DC29D119F0010F26D0B9F1390F1DD1C2
:103E380032E02846C1E700BFD861070000001440FF
:103E4800000024400A90029871F0AEF80A990C908C
:103E5800584654F0FBF80C9A5ABB089B53B9099B77
:103E680043B9B9F1390F17D0002F05DD069B03F1CF
:103E7800310901E0002F2ADADDF810A00AF8019BC9
:103E88006EE5089B3B4304D1009B03F00103002B24
:103E9800BCD0B9F1390F36D1049F392307F8013B5B
:103EA800BA46013F1AF8013C392B5AD001333B700E
:103EB80056E5002F06DB089B3B4306D1009B03F029
:103EC800010313B9002AA1DCD6E7002AE1DC079B2D
:103ED80057460AF8019C53452ED000230A2202991E
:103EE800584654F0D5F8A84502904FF000034FF01B
:103EF8000A02414658460BD154F0CAF88046054696
:103F08000AF1010A66E7DDF810A009F10109B5E731
:103F180054F0BEF82946804600230A22584654F039
:103F2800B7F80546ECE7049B4FF00008002BCCBF20
:103F38001F460127039B1F4401220299584654F04B
:103F480053FA2146029071F02FF80028A8DC02D11C
:103F580019F0010FA4D1BA4617F8013D302BFAD059
:103F6800FEE4039BBB429BD13123039A01361370B5
:103F7800F6E4219B002B7FF425AA014BFFF744BAF6
:103F8800989E0800000000009FED010B704700BFDD
:103F9800000000000000F87F90B585B000AF4E4BE0
:103FA8001B6803F00703022B71D96C4600233B7290
:103FB80002237B720122BA720322FA723B73042332
:103FC8007B738CB0EC461CF110022DD04FF01A0E0A
:103FD8002AB1BEF1040F02DD404BCCF814300023A7
:103FE8003B7202237B722AB1BEF1080F02DD3C4B03
:103FF800CCF818300123BB720323FB722AB1BEF13F
:104008000C0F02DD374BCCF81C3002233B73042322
:104018007B73B2B1BEF1100F02DD334BCCF8203008
:104028000CF1240300210AE06FF0004ED0E701F103
:104038001000384410F8080C03F8010B0131052969
:10404800F5D9BEF1190F37DD1A234AB105213971A7
:1040580000217971B9710321F9717868CCF81000E1
:1040680000216FF300016FF341016FF382016FF3D9
:10407800C501032060F38811C3F30A0363F35321D6
:104088006FF31F51002314480DF036FCA546124B60
:104098001B6803F00703022B11D814480DF052FBDC
:1040A800044628B90C4B1B6803F00703022B0CD8F5
:1040B80020461437BD4690BD6FF01B03C5E70C4A78
:1040C8000321054859F0EFF9E7E70A4A03210248B6
:1040D80059F0E9F9ECE700BF54260020A062070078
:1040E8003C630700EC62070064630700886307000D
:1040F800F862070014630700014B1870704700BF8F
:10410800DA24002003460020012806D8044A52F881
:1041180020209A4203D00130F6E74FF0FF30704775
:10412800C47D002000B583B000238DF8043041F62B
:104138001202ADF80620064A01A910F0FBFD10B9DD
:1041480003B05DF804FB0146024857F042F8F7E770
:10415800D86B07008C63070008B5064B1B6803F093
:104168000703022B00D808BD034A0321014859F070
:104178009AF9F8E78C260020C863070008B5064BB3
:104188001B6803F00703022B00D808BD034A03216C
:10419800014859F088F9F8E78C260020FC630700ED
:1041A80008B5074B1A6802F00702022A00D808BDB2
:1041B8000B46044A0321024859F07FF9F7E700BF8C
:1041C8008C2600202464070038B505465AF0EAFF1B
:1041D800FFF798FF0446124B1B6803F00703022BF6
:1041E8000FD8E4B264210F4B01FB043128465BF081
:1041F80038F9014660B928465BF054F8014658B9C9
:1042080038BDC3B2084A0321054859F056F9E8E712
:10421800064856F0DEFFEEE7054856F0DAFFEFE70E
:104228008C260020DC7D00204C6407008064070099
:10423800B0640700F0B585B002AF0023FB710468D5
:10424800F81D03F0C7FE23789A1E082A00F2D881C9
:10425800DFE812F009001700D601D6018201D60165
:10426800D6019D000601AF4B1B6803F00703022B24
:1042780040F24E81FB79AC4A0321AA4859F01DF956
:1042880046E1A84B1B6803F00703022B67D8606858
:1042980004F0A4FF0546A34B1B6813F0060F35D0A6
:1042A80064686E4688B002AB13F110025DD00C2131
:1042B8004AB10846042903DDDFF890C2C3F814C0E8
:1042C800082800DD9C610B2952DD0C243AB103213A
:1042D800397000217970B970F97038681861002157
:1042E8006FF300016FF341016FF382016FF3C501B2
:1042F800022363F38811C4F30A0363F353216FF3B2
:104308001F51002387480DF0F7FAB54625B1854BB4
:104318001B6813F0060F2ED1FB79022B00F2F880F0
:10432800804B1B6803F00703022B2AD84FF08073D9
:104338000093002301221946184604F0D3FE0346D1
:10434800002800F0E580774A126812F0070F00F0A5
:10435800DF80764A0121734859F0AFF8D8E0744AF3
:104368000321704859F09FF891E76FF000419FE7EB
:104378006FF01B04AAE76F4A02216A4859F093F8C4
:10438800CAE76D4A0321674859F08DF8CEE7654BB7
:104398001B6813F0060F35D065686E4688B002AB0F
:1043A80013F110024CD00C214AB10846042903DD50
:1043B800DFF89CC1C3F814C0082800DD9D610B29F3
:1043C80041DD0C253AB10321397000217970B970AB
:1043D800F9703868186100216FF300016FF341012B
:1043E8006FF382016FF3C501022363F38811C5F3EC
:1043F8000A0363F353216FF31F51002349480DF05B
:104408007BFAB54662684D4B1A6001F00FFB012834
:104418001CD00121606808F0E9FA04460221002056
:1044280009F064FE002C73D03E4B1B6813F0070F95
:104438006ED02346424A01213A4859F03EF867E0D7
:104448006FF00041B0E76FF01B05BBE70321606820
:1044580008F0CCFA04460221002009F07FFEE1E7CB
:10446800304B1B6813F0060F35D065686E4688B070
:1044780002AB13F1100238D00C214AB108460429C6
:1044880003DDDFF8D0C0C3F814C0082800DD9D6143
:104498000B292DDD0C253AB10321397000217970E3
:1044A800B970F9703868186100216FF300016FF373
:1044B80041016FF382016FF3C501022363F3881191
:1044C800C5F30A0363F353216FF31F510023154803
:1044D8000DF012FAB54600221346012A15D81949DB
:1044E80051F8221039B10132F6E76FF00041C4E704
:1044F8006FF01B05CFE76068124941F82200094AAE
:10450800126802F00702022A05D86068FFF70AFE5F
:104518000C37BD46F0BD0C4A0321024858F0CDFFC8
:10452800F3E700BF8C260020E86407008C650700CD
:1045380010650700346507005C650700CC7D002026
:10454800D8650700C47D002034660700246507008D
:10455800AC650700086607002F4B1B6803F00703CC
:10456800022B1ED863682D4A1268934220D02C4A29
:10457800126893422ED064682046FFF7C3FD031EDD
:104588003ADB284A002142F82310234A126802F035
:104598000702022ABCD9244A03211F4858F08DFF7C
:1045A800B6E7FB79214A03211B4858F086FFD9E773
:1045B800032056F0F6F81E4B00221A70164B1B68A3
:1045C80003F00703022BD6D91A4A0321124858F0E0
:1045D8006AFFD0E7042056F0E4F8174B00221A705F
:1045E8000D4B1B6803F00703022BC4D9134A0321A0
:1045F800094858F058FFBEE7204608F0DBF987E77E
:10460800054A126812F0060F82D00D4A02210248AC
:1046180058F053FF7CE700BF8C260020BC7D0020AB
:10462800C07D0020C47D0020AC66070054660700EA
:10463800E18F012080660700E08F0120986607005F
:10464800D066070010B541F69A1200232149224886
:104658002AF02AFD68B10446204B1B6813F0070FA7
:1046680001D1204610BD1E4A01211C4858F01BFFED
:10467800F7E741F69A1200231A491B482AF014FD5D
:10468800044650B1154B1B6813F0070FE9D0174AC1
:104698000121124858F007FFE3E741F69A12002378
:1046A800134914482AF000FD044650B10B4B1B680F
:1046B80013F0070FD5D0104A0121084858F0F3FE2F
:1046C800CFE741F69A1200230C490D482AF0ECFC7A
:1046D800C7E700BF005F0700905E07008C26002038
:1046E800F8660700185F0700B85E07001467070040
:1046F800F45E07007C5E0700306707000C5F070068
:10470800A45E070010B588B000220023CDE9062377
:104718000023049305220392029301930093374BDD
:104728004FF40062364937486DF0D2FF364B1860B7
:10473800364937F019F870B10446354B1B6813F049
:10474800070F02D1204608B010BD324A0121304877
:1047580058F0A9FEF6E700220023CDE9062300233E
:104768000493052203920293019300932A4B4FF47A
:1047780000622A492A486DF0ABFF2A4B18602A4983
:1047880036F0F2FF044650B1214B1B6813F0070FB7
:10479800D8D0264A01211E4858F085FED2E70022CB
:1047A8000023CDE9062300230493052203920293F4
:1047B800019300931E4B4FF480621E491E486DF012
:1047C80087FF1E4B18601E4936F0CEFF04460028AE
:1047D800B8D141F69A1200231A491B482AF064FC02
:1047E80004460028AED00A4B1B6813F0070FA9D067
:1047F800164A0121064858F056FEA3E7854C0000EA
:10480800289C012018320020D87D0020506707001E
:104818008C260020606707001949000028940120B1
:1048280010310020D47D00208467070098670700B6
:10483800594800002890012008300020D07D002031
:10484800C0670700245F0700CC5E0700D867070031
:1048580000B585B012E04A220092294A0121294870
:1048680058F036FE19E04F220092254A01212548CA
:1048780058F02EFE27E0002008F01CF94FF0FF3218
:104888004FF0FF3303A9204866F004FB68B10346E4
:104898001C4A126812F0070FDDD1002383F3118838
:1048A800BFF36F8F0323184602DF40F6CD42002383
:1048B80002A9039866F0D0FA034660B1114A12685B
:1048C80012F0070FCFD1002383F31188BFF36F8F46
:1048D8000323184602DF9DF80830012BCBD0022BAA
:1048E8000AD0084A126812F0060FC7D0074A0221F8
:1048F800044858F0E2FDC1E7002008F0A3F9BDE73D
:10490800FC6707008C2600200C5F07002068070062
:1049180000B597B021E1D5220092A94A0121A94802
:1049280058F0D6FD2CE1A84B1B78002B00F0158120
:104938009DF82030012B19D001F0A0F90020FFF7D5
:10494800DBFB022009F00AFC0346002800F0058181
:104958009C4A126812F0070F0BD1002383F31188C9
:10496800BFF36F8F0323184602DFF6E001F088F8E3
:10497800E2E7EA220092924A0121924858F0A8FD03
:10498800EBE7914B1B78012B00F0E7809DF8203076
:10499800012B19D00120FFF7AFFB01F073FB0220B8
:1049A80009F0A4FB0346002800F0D780854A126866
:1049B80012F0070F0BD1002383F31188BFF36F8F19
:1049C8000323184602DFC8E001F062F8E2E7FD229F
:1049D80000927B4A01217B4858F07AFDEBE7794B3E
:1049E8001B6813F0060F13D11321069803F024FB5C
:1049F8000346002800F0B180724A126812F0070FCF
:104A080000F0AB80714A01216E4858F056FDA4E0D1
:104A18006F4A02216B4858F046FDE5E70BA9069856
:104A280019F0BEFD68B1674B1B6813F0070F01D181
:104A3800002208E0674A0121624858F034FD00224C
:104A480001E0BDF840209DF82030012B13D014ABB5
:104A580015AA9DF82010069807F0BAFE034648B339
:104A6800584A126812F0060F77D05B4A022155485F
:104A780058F023FD71E0062AE9D00623ADF80C3082
:104A8800ADF80E300023ADF810306423ADF81230C5
:104A980003A9069860F00CFA03460028D7D0494AC3
:104AA800126812F0060FD2D04C4A0221454858F03D
:104AB80004FDCCE79DF82030012B17D0022B4CD1F8
:104AC800149A0021084600F0EBFF0346002844D062
:104AD8003C4A126812F0070F26D1002383F311888D
:104AE800BFF36F8F0323184602DF36E000221599C3
:104AF800149800F0D5FF034678B3324A126812F0D2
:104B0800070F08D1002383F31188BFF36F8F0323A6
:104B1800184602DF21E040F237120092284A0121AC
:104B2800284858F0D5FCEDE740F23B120092244AA1
:104B38000121244858F0CCFCCFE700238DF80C3035
:104B48008DF82C3003A803F045FA9DF82130002B8E
:104B580048D19DF80C30022B65D94FF0FF324FF049
:104B6800FF33CDE9002305AA13A91D4866F097F97C
:104B780070B10346134A126812F0070F7FF4CBAEE8
:104B8800002383F31188BFF36F8F0323184602DFD6
:104B98009DF814305A1E072A5CD801A151F822F05A
:104BA800254A00005D4C00002F4900008B49000099
:104BB800634B00005D4C0000E7490000434B0000D8
:104BC800FC6707008C260020DA2400209468070080
:104BD80048680700B0680700F0680700C868070061
:104BE800185F0700099804F053F90BA804F046F978
:104BF8001E4B1B6803F00703022B09D89DF82120E0
:104C08009DF82C309A42A4D1002004F041F9A0E785
:104C18009DF82C309DF821200092154A0321134855
:104C280058F056FCEAE74FF0807300930023012206
:104C38001946184604F056FA034600288DD00B4A48
:104C4800126812F0070F88D00A4A0121074858F065
:104C580034FC82E7054A126812F0060F3FF47DAF74
:104C6800054A0221014858F028FC76E78C260020E6
:104C78000C6907008C6507002869070000B587B034
:104C88007EE070220092794A0121794858F020FC90
:104C980086E075220092754A0121754858F018FC83
:104CA80095E0734B1B6813F0060F02D107B05DF84F
:104CB80004FB704A02216E4858F0F5FBF6E76E4B8C
:104CC8001B7863B1012B1BD0694A126812F0060FDA
:104CD80056D06A4A0221664858F0EFFB50E000209F
:104CE80004F0E4FC034600284AD0614A126812F036
:104CF800060F45D0624A02215D4858F0DEFB3FE0CE
:104D0800002004F0BDFC0346002839D0584A126838
:104D180012F0060F34D05B4A0221554858F0CDFBFB
:104D28002EE055F0E0FB034650B3514A126812F0EA
:104D3800060F25D0544A02214D4858F0BEFB1FE00B
:104D480055F0D5FB0346D8B1494A126812F0060F50
:104D580016D04E4A0221464858F0AFFB10E000F04A
:104D680065FE002858D1012000F084FE404B1B68E6
:104D780013F0060F4AD11321454B18685FF06CFFFA
:104D88004FF0FF324FF0FF3305A9424866F082F832
:104D980070B10346364A126812F0070F7FF471AFFC
:104DA800002383F31188BFF36F8F0323184602DFB4
:104DB80040F6CD42002303A9059866F04DF8034656
:104DC80068B12B4A126812F0070F7FF462AF002314
:104DD80083F31188BFF36F8F0323184602DF9DF812
:104DE8001030012B7FF45DAF039B9A1E042A32D842
:104DF80001A151F822F000BF494D00002B4D0000E1
:104E0800C74C00003D4E0000674D0000224A0221B9
:104E1800174858F048FBAEE7002000F02BFE144B73
:104E28001B6813F0060FA6D01C4A0221104858F040
:104E38003AFBA0E7002004F0BDF9034600289FD004
:104E48000B4A126812F0060F9AD0154A0221084838
:104E580058F033FB94E7064A126812F0060F8FD019
:104E6800104A0221024858F028FB89E7FC6707002E
:104E78008C26002050690700DA240020906907007A
:104E8800686907007C690700A8690700C869070006
:104E9800CC7D0020005F0700E8690700186A07005A
:104EA800486A0700606A070010B5002407E0054952
:104EB8006420054B00FB04305AF08AFA0134012CB7
:104EC800F5D910BDCC6B0700DC7D0020324B1B6888
:104ED80003F00703022B00D8704790B583B000AFEA
:104EE8005AF0CBFA40BB2D496C4600233B71022394
:104EF8007B7188B0EC461CF110021FD00E2022B145
:104F0800042802DD264BCCF8143000233B70022322
:104F18007B70B2B1082801DDCCF818100CF11C0325
:104F2800002101290DD801F1080EBE441EF808EC35
:104F380003F801EB0131F4E71A49D5E76FF00040B7
:104F4800DDE70D2825DD0E234AB103213971002143
:104F58007971B9710121F9717868CCF810000021D4
:104F68006FF300016FF341016FF382016FF3C50125
:104F7800032060F38811C3F30A0363F353216FF32B
:104F88001F51002304480CF0B7FCA5460C37BD465A
:104F980090BD6FF01B03D7E78C260020846A0700BA
:104FA800946A07008C6A070038B50546204B1B68D1
:104FB80003F00703022B26D80024214628465AF07E
:104FC8005FFA0446002832D020465AF077FA0128C2
:104FD800F3D1174B1B6803F00703022B1DD8154AA2
:104FE8002146284610F07CFB03460028E5D0104AED
:104FF800126802F00702022ADFD90F4A03210C487F
:1050080058F05BFAD9E70068FFF77CF803460B4ACB
:105018000321074858F051FACEE720465AF04BFAD8
:105028000346074A0321024858F047FAD7E738BD34
:105038008C2600204D500000E86A0700B06A07007F
:10504800CC6A070070B506460C461D4608465AF05D
:1050580038FA002D3CD05FFA80FC002201E00132D2
:10506800D2B26245FBD320465AF025FA012806D071
:1050780020465AF020FA022815D0012070BD154BA1
:105088001B7833B1002200232946134835F0CEFEA1
:10509800EEE7032009F062F83268104B1A600D4BF6
:1050A80001221A70EEE70E4B1B783BB10022002359
:1050B80029460C4835F0BAFE0120DFE7042009F044
:1050C8004DF83268084B1A60054B01221A70EDE75B
:1050D8000020D3E7E18F0120484B0120BC7D002050
:1050E800E08F0120184B0120C07D0020014B18786B
:1050F800704700BFDA24002010B584B001900291F7
:105108008DF80C20164B1B780BB104B010BD04AB06
:1051180013E90E00002007F01FFE044658B1114B9A
:105128001B68834207D010F18C0F07D00E4B1B6809
:1051380013F0060F0DD10B4B1C60E6E70A4B1B68FA
:1051480013F0060FF7D0094A0221074858F0ABF9C7
:10515800F1E70346064A0221034858F0AEF9EAE7A8
:10516800DA240020B87D00208C260020006B070080
:105178001C6B0700F0B585B002AF09F0B5FC68B14B
:105188000346864A126812F0070F6DD1002383F395
:105198001188BFF36F8F0323184602DFFEF7FCFE6A
:1051A800034660B17D4A126812F0070F65D10023EB
:1051B80083F31188BFF36F8F0323184602DF02F0D1
:1051C8008FFF034660B1754A126812F0070F5DD170
:1051D800002383F31188BFF36F8F0323184602DF80
:1051E80001F006F8034660B16C4A126812F0070F26
:1051F80055D1002383F31188BFF36F8F032318461B
:1052080002DFFFF77FFA0546002800F08580634B30
:105218001B6813F0070F72D06E4600233B71022300
:105228007B7188B002AC14F1100241D00E201AB183
:10523800042801DD5A4B636100233B7002237B7015
:10524800002A38D0082801DD564BA36104F11C035D
:10525800002101292FD801F1080CBC441CF808CC06
:1052680003F801CB0131F4E740F2223200924E4AB2
:1052780001214A4858F02CF988E740F2253200927B
:10528800494A0121454858F023F990E74FF44A72FA
:105298000092454A0121414858F01AF998E740F22E
:1052A8002B320092404A01213C4858F011F9A0E7FE
:1052B8006FF00040BBE70D285FDD0E2342B10321EC
:1052C800397100217971B9710121F971786820610A
:1052D80000216FF300016FF341016FF382016FF357
:1052E800C501012060F38811C3F30A0363F3532156
:1052F8006FF31F51002329480CF0FEFAB546274BDF
:105308001B6813F0070F3BD1002383F31188BFF309
:105318006F8F0323184602DFFFF794F9054600282C
:1053280078D01E4B1B6813F0070F66D06E4600231B
:105338003B7102237B7188B002AC14F1100229D0B2
:105348000E201AB1042801DD154B636100233B7060
:1053580002237B7062B3082801DD144BA36104F1BA
:105368001C030021012923D801F1080CBC441CF8B6
:1053780008CC03F801CB0131F4E76FF01B039DE77C
:1053880040F22E3300932B46074A0121034858F078
:105398009FF8B9E76FF00040D3E700BF8C260020E4
:1053A800C0F70700486B0700FC670700746B07002D
:1053B8000D2840F387800E2342B103213971002163
:1053C8007971B9710121F9717868206100216FF351
:1053D80000016FF341016FF382016FF3C5010120F2
:1053E80060F38811C3F30A0363F353216FF31F516A
:1053F800002352480CF080FAB546504B1B6813F056
:10540800070F62D1002383F31188BFF36F8F032343
:10541800184602DF02F0E4F8034660B1474A126812
:1054280012F0070F5BD1002383F31188BFF36F8F4E
:105438000323184602DF03F0E9FE034660B13F4A42
:10544800126812F0070F53D1002383F31188BFF3BA
:105458006F8F0323184602DF04F03EF9034660B15C
:10546800364A126812F0070F4BD1002383F31188D4
:10547800BFF36F8F0323184602DF3149002007F07E
:10548800DBFC034660B12D4A126812F0070F41D1C8
:10549800002383F31188BFF36F8F0323184602DFBD
:1054A800FFF702FD4FF080730093264B0122002185
:1054B800084603F017FE0446002834D120460C376E
:1054C800BD46F0BD6FF01B0376E740F23133009321
:1054D8002B461D4A0121194857F0FAFF92E74FF46D
:1054E8004D720092184A0121144857F0F1FF9AE7CB
:1054F80040F237320092144A0121104857F0E8FF71
:10550800A2E740F23A3200920F4A01210B4857F0C5
:10551800DFFFAAE740F23D3200920B4A012107481B
:1055280057F0D6FFB4E7054B1B6813F0070FC5D03B
:10553800064A0121014857F0B6FFBFE78C26002034
:1055480059700000A06B0700FC670700B06B0700EC
:1055580010B50446624963485BF077FD002836D1F0
:10556800614960485BF071FD034600283DD15F4901
:105578005C485BF06AFD0346002843D15C49594802
:105588005BF063FD0346002849D156485BF00BFCED
:10559800012851D0574A002152485CF0EFFF0028FB
:1055A80075D1012200214F4812F088FE00287BD1D6
:1055B80000214C4854F067FF002C00F08F802146F2
:1055C80048485DF05BFB00287BD1464806E003466F
:1055D800494A126812F0070F01D1002010BD474A4E
:1055E8000121454857F069FFF7E7434A126812F06E
:1055F800070F01D10020F1E7414A01213E4857F049
:105608005CFFF7E73C4A126812F0070F01D100204F
:10561800E4E73C4A0121384857F04FFFF7E7364A9C
:10562800126812F0070F01D10020D7E7364A01218E
:10563800314857F042FFF7E7344A012129485CF026
:105648009DFF50B901221146264812F037FE88B94D
:105658000121244854F017FF9CE7274B1B6813F0DF
:10566800070F01D10020B9E7294A0121224857F044
:105678001AFFF7E7204B1B6813F0070F01D1002032
:10568800ACE7244A01211C4857F00DFFF7E71A4BF5
:105698001B6813F0070F01D100209FE71E4A012164
:1056A800154857F000FFF7E7134B1B6813F0070F77
:1056B80001D1002092E7174A01210F4857F0F3FE65
:1056C800F7E70D4B1B6813F0070F01D1002085E7A2
:1056D800124A0121084857F0E6FEF7E701487DE73E
:1056E8009C090020042F00205C09002028090020C4
:1056F8001009002080080020F8260020EC6B070025
:105708001C6C0700506C0700806C070060080020C4
:10571800A86C0700D06C0700F06C0700186D070034
:1057280008B5FFF715FF20B109485BF069FB08B918
:10573800074808BD074B1B6813F0070F01D100206D
:10574800F7E7054A0121034857F0ADFEF7E700BF28
:10575800042F0020F82600203C6D07002DE9F041B9
:10576800ADF6C80D02AF0026C7F8B468B2E0002352
:1057780083F31188BFF36F8F0323184602DF04EB0E
:10578800440007F50C6303EB84059C4B1A6855F835
:10579800481C07F5367303EB40106EF02EFF55F8E2
:1057A800481C974868F0E8F801340E2C1DDC4FF0CF
:1057B800FF324FF0FF33CDE90023904A07F6780314
:1057C80003EB84018E4868F0C6F803460028D6D05B
:1057D8008C4A126812F0070FC9D0972200928A4AA1
:1057E8000121884857F074FEC1E7884B1B7B002BCA
:1057F80061D0874B1B68002B76D107F6B403854A26
:105808004FF4B46107F5367000F0ACFF0446002889
:1058180051D07C4B1B6813F0070F3FD06D46002317
:105828003B7202237B7288B00DF1080C1CF1100248
:1058380000F09F800E2022B1042802DD764BCCF8C0
:10584800143000233B7102237B71002A40F09480BE
:105858000D2840F3A4800E234AB103213972002198
:105868007972B9720121F972B868CCF810006FF337
:1058780000086FF341086FF382086FF3C508012130
:1058880061F38818C3F30A0363F353286FF31F58AF
:10589800002341465B480CF02FF8AD46594B1B6876
:1058A80013F0070F7ED1002383F31188BFF36F8FA6
:1058B8000323184602DFB6F57A7F7CD00136534BB6
:1058C8001B7B3BB1514B5A7DD7F8B418514B186824
:1058D800FFF712FC4FF0FF324FF0FF3301214F4822
:1058E80036F062FF002460E74D4A00924D4A4FF4BB
:1058F800347107F108002EF00DFE034660B1414AED
:10590800126812F0070F24D1002383F31188BFF324
:105918006F8F0323184602DF3B1D009307F536738C
:1059280010224FF4347107F1080067F06BFF03464B
:1059380000283FF462AF334A126812F0070F10D103
:10594800002383F31188BFF36F8F0323184602DF08
:1059580053E7A62200922C4A01212A4857F0B8FDA5
:10596800D2E7AB220092284A0121264857F0B0FD21
:10597800E6E76FF000405EE7082802DD2A4BCCF826
:1059880018300CF11C03002101293FF661AF07F123
:10599800040E1EF801E003F801EB0131F4E76FF0A3
:1059A8001B0359E7B12300932346174A01211548E1
:1059B80057F08EFD77E707F6B80207F6BC011048E6
:1059C80067F0DFFF064600283FF479AF0D4B1B68F0
:1059D80013F0070F08D1002686F31188BFF36F8FE5
:1059E8000323184602DF6AE7B82300930346064AF2
:1059F8000121044857F06CFDEDE700BFAC7E0020A4
:105A0800F009002074250020FC670700587F00205B
:105A1800F47E0020A47E0020C0F70700DC090020E7
:105A2800A87E0020F87E0020806D0700014B1878C2
:105A3800704700BFDB24002008B50D4B01221A7007
:105A4800FFF7F4FF01280AD0094B02225A75084BC8
:105A58005B7D012B00D00223054A137508BD044B5A
:105A68000022DA7101229A715A715A75EFE700BF64
:105A7800587F0020014B1870704700BFDB240020BE
:105A880008B50021014836F0EBFE08BD787F0020FC
:105A980008B502486DF005FB08BD00BF787F0020FF
:105AA80070B505460E46144654F0F8FC80B11A4B02
:105AB8009D61204654F0F2FCD8B1174B01221A71AF
:105AC8009C603EB3144B01221A731E61002022E031
:105AD800002DEED0114B1B6813F0070F02D16FF0A9
