:020000040100F9
:1000000000000121D1000301A500030185000301C7
:10001000A5000301A5000301A5000301A50003013C
:10002000A5000301A5000301A5000301A50003012C
:10003000A5000301A5000301A5000301A50003011C
:10004000A5000301A5000301A5000301A50003010C
:10005000A5000301BDF80201A5000301A5000301ED
:1000600005100301A5000301F1F50201A50003013C
:100070001DFB0201A5000301A5000301A50003016A
:10008000A500030169F902012DF8020155FE0201E4
:10009000A5000301A500030175F90201A5000301F4
:1000A0002DFB02013DFB0201A5000301A500030198
:1000B000A5000301A50003010000000000000000EE
:1000C0000000000000000000000000000000000030
:1000D0000000000000000000000000000000000020
:1000E0000000000000000000000000000000000010
:1000F0000000000000000000000000000000000000
:100100000388F7B5A3F57C4306460C46032B4DD870
:10011000DFE803F00212204391F9000000F0D6FA64
:1001200004460120318826F0D3F918B100F80549BA
:1001300026F06CF901203AE0CB788A78207802EB3F
:100140000322497892B230F0F3FD08B10024E8E7C9
:100150001224E6E7CA798B79497903EB02232279E5
:10016000E07802EB0122A178657801EB002120788C
:10017000E77A00EB0520A57A9BB205EB0725ADB227
:100180000195657A247A92B204EB0524A4B2009416
:1001900089B280B231F030FFD7E7087830F094FEB2
:1001A0000028D5D0607830F0ABFECEE7002003B059
:1001B000F0BD08B526F03EF918B9BDE808402EF0AC
:1001C00027BE08BD70B5054603200E4631F052FD2E
:1001D0000128044606D129460320B2B231F056FD6B
:1001E000204670BD0024FBE72DE9F047AC4E8AB0F5
:1001F000AC4830F067FA304627F036FF382206F177
:100200000C01022030F06AFA38220120B11830F0D7
:1002100065FA382206F13F01062030F05FFA10221D
:10022000ADF8142008228DF8162020220B23ADF8FB
:100230001820802240F20D1104273371738CADF821
:100240001C20727B1C338DF81E208DF82220ADF807
:10025000243096F82020F37FADF82010134496F850
:10026000262005A9134496F82720052013448DF86D
:1002700026308DF81A702EF055FA80B22EF020FB41
:100280002EF0C8FB2EF034FD0023874A0DEB07014A
:100290000320CDE901338DF81030039231F08AFC50
:1002A00082482EF0D5FD01202EF0CCFD00F06AF939
:1002B0002EF016FB80462EF019FB044679482DF0EF
:1002C000F5FB22464146384603F060FC08EB000986
:1002D000A4EB000A054652464946384602F0B2FFF2
:1002E0000544AAEB000209EB0001384603F0A8F828
:1002F0004719304627F0E4FEB57FB844E41B35B11A
:100300002146404628F042F805468044241A2146FA
:10031000404627F0F4FF241A804421460544404615
:1003200028F003F8241A804481462146404628F0EC
:1003300022F8241A804482462146404628F007F8D5
:100340003D44211A0746404428F040F800244D441B
:1003500055443D4405442DF0AFFB02F0A3FC00F0F2
:100360004BFC02F031FB01F093FA02F049FC01F082
:1003700059F801F077F801F093FC30F015FD02F028
:1003800009F802F09FF901F02FFD01F0F1FD03F0F3
:10039000D5FB47482EF032FB2EF094F827F0A8FF4B
:1003A00028F00AF827F0FAFF27F0B8FF27F0FDFF42
:1003B00028F015F828F01AF827F0A3FF27F0FEFF21
:1003C00028F009F827F0CEFF27F0BAFF27F0AFFF9B
:1003D00028F013F827F0D1FF27F0BDFF27F0D4FF56
:1003E00027F0FBFF33482EF009FB27F06FFE324861
:1003F0002EF004FB328D718C2DF05CFC27F0B6F9E9
:1004000027F0C0FA27F06EFA27F0E0F927F0CAFAD1
:1004100027F03EFA27F0CCF927F0A4FA27F044FBA6
:1004200027F0B4F927F07EFA27F0E0F927F052FA26
:1004300027F02AFB27F014FB27F00AFA27F0E8F947
:1004400027F0F6F927F014FA27F0EAFA1B482EF005
:10045000D5FA27F0B9FA27F0ADFC194827F080F952
:1004600028462EF02DFA05A80594ADF8184027F07F
:10047000C7FF04210DEB010030F0DCFA01A82BF0DE
:10048000F5FE012200214FF4003028F0D5F80D4888
:100490002EF0D0FA2EF0DAFA20460AB0BDE8F08746
:1004A000A80100219801002140420F00C501000170
:1004B000E5E4020189810201E1DC020139800201E7
:1004C00001010001B3010001014B1878704700BF22
:1004D00000000720014B1970704700BF0000072083
:1004E000012070470122014B5A60704700200141F2
:1004F00038B5C4003434204634F064FC054618B1E5
:100500002246002134F095FC284638BD33F0AABBC2
:1005100070B50E46CAB1541EA0B22EF0FBF90546C6
:1005200098B12246711C34F05DFC3378022B0ED05A
:10053000052B05D0012B08D100212A46084602E0F0
:100540002A46032100202DF021FC002070BD2A4600
:100550000121F7E7C30703D5024B586833F018BAF7
:10056000704700BF3002002148F29C63C360044B17
:10057000436003F55473036020238360704700BF1A
:10058000048007201FB56846FFF7EEFF0298FFF7CB
:10059000AFFF044C20600298FFF7AAFF606004B030
:1005A00010BD00BF3002002130B5294B8BB004AC28
:1005B00093E80300002284E80300264907202FF077
:1005C000EBF825482FF004F906A8FFF7CDFF2046E9
:1005D00034F0D4F8099B2148214C436134F0B0F841
:1005E00022462049204834F077F8226893680BB1FE
:1005F00002F10C0304201D4A06999060106201204C
:1006000051601B49BDF820400D6849681560916133
:100610001849079D8861022053619481D362D56196
:100620009484CA62002288621348086200921348C8
:1006300033F010FF124B134A0293134B0F490193EF
:100640004FF0FF331148009333F08CFA0BB030BDFC
:10065000945E0301550500019C5E0301000000212A
:10066000EC010021745E03017E5E0301E0020021C3
:100670003002002110030021205F03013802002115
:100680000D050001865E030111050001F001002146
:10069000022907B5184603F1FF3310D1042100F8F1
:1006A000011C012108480A4401910092D0E9091275
:1006B00033F0A2F903B05DF804EB2DF0E7BA01299D
:1006C0000CBF02210521EAE7F0010021024B83F86B
:1006D0007A000020704700BFC05300212FF0E4BF14
:1006E0002DE9F8431C46D0F82890C56807460E4609
:1006F00090462DF09BFA99F80D302C44022B0444BF
:100700000DD0032B0DD0012B00D12834306C3D6966
:100710000319AB4208D935640020BDE8F8831834CA
:10072000F4E704F5A874F1E77B682D1A63B141463C
:1007300098682DF081FA854228BF0546AC4203D95E
:10074000336C2B443364E7E7281B4FF47A75044B72
:100750001B689C886C43A04228BF2046DDE700BF91
:10076000A85600211FB501238DF80430002301A8ED
:10077000CDE902332FF016FF05B05DF804FB1FB57D
:10078000002301A8CDE9013303932FF00BFF05B03F
:100790005DF804FB2DE9F84304468846866A30F08C
:1007A00029FA05460146A06806F190072DF044FAA3
:1007B00078B9A368DFF88C90C9F87C302DF036FA50
:1007C0002844A060D9F87C1028462DF035FAC6F8E8
:1007D000D000D6F89C300BB120469847394600230C
:1007E0002046A268FFF77CFF074618B9BDE8F8432A
:1007F0002DF0F0B9134DA3684046EB672FF05EFE75
:10080000114BC5F88C70C5F88030104B05F1800095
:10081000C5F88430A368C5F88830A3602FF0BAFE0D
:10082000002385F87830D6F8943043B1FFF79AFF6B
:10083000D6F890002721BDE8F8432FF003BFFFF75B
:100840009EFFF5E764060021090B0001ED08000199
:100850002DE9F84380460C462DF0C6F9064618B13E
:1008600001263046BDE8F88330F0C4F91D4D8146BD
:10087000E96F2DF0E1F9236C03442364C5F87C9003
:100880002DF0D4F94A46034621464046FFF728FF9B
:1008900007460028E4D0636A53B102464946404601
:1008A000984728B10122D8F8283083F8C020D8E72B
:1008B000D5F87C802DF0BAF94044C5E922070A48F2
:1008C0002FF068FE002385F87830636833B1FFF7B6
:1008D00049FF272120682FF0B5FEC2E7FFF74FFF41
:1008E000F7E700BF64060021E40600212DE9F04F80
:1008F00087B09A469DF8403003910293934607468D
:1009000030F078F9DFF8F491C9F800002DF05CF9C7
:10091000DDE90231846A8046D4F8BC50ADB194F868
:10092000C020012A11D1CDE900A30A465B46394611
:10093000D4F8B000A847012804D10023C4F8B0308F
:1009400084F8C03007B0BDE8F08F6D4A6D4D92F865
:100950007860701C82F8780076B1022E00F08680F4
:10096000AC8C30F047F9D9F80030C01A844240F21C
:10097000B580A88CA884E5E707B3FB1E012B40F2E5
:10098000B680042F68D06FD833460126032F5DD080
:1009900032461E46EB690133EB613346164643B1DE
:1009A00017F0FB0F46D0404604F19001FFF750FFCF
:1009B0000646002ED4D02DF01DF9D1E784F8C310DF
:1009C00084F8C4303A46C4E932BAD4F8900004F14D
:1009D000D80304F1780102F067FA002834D04046C9
:1009E000D4F8A030D4F89010984700287DD06E8CB1
:1009F00030F000F9D9F80030C01A86421DD9688C51
:100A000094F8C1306884ADF81030D4F89430059370
:100A1000FFF7A8FE012104A82FF0F6FDD4F8A430BA
:100A20001BB14046D4F8901098472B6801332B60D7
:100A3000002F95D02FF036FEB5E730F0DBF8D9F86F
:100A40000030C01A80B2DBE70127EEE7AA68013266
:100A5000AA60002BA7D1ACE7334601266A680132B1
:100A60006A60002BE6D1A4E7012293E76FB1FB1E79
:100A7000012B1ED9042F4FF000034FF0010629D09F
:100A800022D9EA690132EA6189E73A46D4F8980046
:100A900004F1D80304F1780102F006FA28B14046C7
:100AA000D4F8AC30D4F8981098472B6901332B61F7
:100AB000C0E7D4F8AC30002140469847042F4FF0EF
:100AC00001034FF0000605D0032FDAD1AA690132E5
:100AD000AA61BEE76A6901326A61C2E730F08AF84A
:100AE000D9F80030C01A80B244E7012796E7042FF6
:100AF0004FF001037FF44AAFB0E700BFE8050021E3
:100B000064060021400300212DE9F843814630F0BE
:100B100071F8364E30602DF057F8856A0746D5F8E3
:100B2000B83083B195F8C020012A0CD14946D5F8D8
:100B3000B0009847012804D10023C5F8B03085F8EB
:100B4000C030BDE8F8832A4B2A4C93F8788008F12E
:100B50000102B8F1010F83F878202CD1B9F1000F10
:100B60003FD13846D5F8A830D5F89410984790B1C1
:100B7000B4F8208030F03EF83368C01A804524D99C
:100B8000238C2384FFF7FBFD2721D5F898002FF055
:100B90007FFD4FF00008E3680133E360B8F1000F18
:100BA00009D02FF07FFD384605F19001FFF750FE88
:100BB00008B12DF01FF8E58C30F01CF83368C01A2E
:100BC000854208D9E08CE084BBE730F013F8336845
:100BD000C31A9BB2D5E730F00DF83368C01A80B263
:100BE000F1E7E3690133E361E3E700BFE8050021D2
:100BF000640600214003002108B50220054A064989
:100C000002F08AF8BDE8084028220021034834F0A9
:100C100010B900BFDD060001950700014003002167
:100C200030B50446044D0FCD0FC40FCD0FC495E869
:100C3000030084E8030030BD400300211FB50023FA
:100C400001A8CDE9013303932FF0ACFC05B05DF8AA
:100C500004FB1FB501238DF80430002301A8CDE962
:100C600002332FF09FFC05B05DF804FB70B505461C
:100C7000866A08462FF022FC124C134B04F18000C8
:100C8000C4F88030114BC4F88430D6F8AC30C4F8C6
:100C90008C30AB68C4F88830AB602FF07BFC00234D
:100CA00084F87830D6F8903043B1FFF7D2FFBDE832
:100CB000704040F2011106482FF0C4BCFFF7BEFFA0
:100CC000F5E700BF6406002109100001CD13000103
:100CD0006803002170B50546866A08462FF0EEFBD2
:100CE0000D4C0E4B04F18000C4F88430D6F89830D7
:100CF000C4F88C30AB68C4F88830AB602FF04AFC85
:100D0000002384F87830FFF799FFBDE8704040F287
:100D1000011103482FF096BC64060021250D000147
:100D2000A00400212DE9F04F85B08B469DF83810C6
:100D30009A460392029106462FF05CFFDFF8488244
:100D4000DFF84892C8F800002CF03EFFDDE90212FF
:100D500099F878300746856A8D4C83B1032B00F0F3
:100D60009580258C2FF046FFD8F80030C01A8542B8
:100D700040F2FD80208C208405B0BDE8F08FDEB10C
:100D8000F21E012A40F2FA80042E73D07CD81A4653
:100D90000123032E68D019461346A2690132A261CD
:100DA0001A460B46002A6CD016F0FB0F01D12FF02B
:100DB00079FC2CF01FFFD4E7032389F87830012356
:100DC000C5E92B2A85F8B430324685F8AB10D5F842
:100DD0009030704985F8AAB09847064678B32846FF
:100DE0002FF06CFB564409F18000C9F888602FF0A1
:100DF000D1FBA68B2FF0FEFED8F80030C01A864239
:100E000016D9A08BA083FFF719FF40F201116148AA
:100E10002FF018FC3846D5F894305F499847B0FA5F
:100E200080F04009236801332360002899D0BEE791
:100E30002FF0E0FED8F80030C01A80B2E2E7D5F813
:100E40009C2052B1D5F8A0603EB195F8A83051462B
:100E500000933846D5F8A430B0473846D5F89430DA
:100E60004C4998470120DDE7A1680131A160002AC3
:100E70009FD106E01A460123616801316160002AB2
:100E800095D1002B95D16CE7012186E7D5F89030FC
:100E9000AEB1F21E012A52D9324600219847D5F848
:100EA0009430002138469847042E4FF000024FF04E
:100EB000010358D051D9A1690131A16172E73246CD
:100EC00085F8B46085F8AB1085F8AAB03149984729
:100ED000064668B328462FF0F1FA564409F180001F
:100EE000C9F888602FF056FBA68B2FF083FED8F848
:100EF0000030C01A864214D9A08BA083FFF79EFE53
:100F000040F2011123482FF09DFB3846D5F894306C
:100F100021499847B0FA80F04009E3680133E36063
:100F200083E72FF067FED8F80030C01A80B2E4E7FC
:100F30003846D5F89430174998470120EDE73246F6
:100F400000219847D5F89430002138469847042E60
:100F50004FF001024FF0000305D0032EABD16169C1
:100F60000131616183E721690131216187E72FF058
:100F700041FED8F80030C01A80B2FCE6042E4FF0D3
:100F800001027FF406AF77E7E8050021640600213F
:100F9000A4050021A00400216803002170B5164BB0
:100FA00093F878506A1C012D83F8782015D1134CE2
:100FB000E1B9A68D2FF01EFE114D2B68C01A864296
:100FC0000ED9A08DA085FFF739FE40F201110D4822
:100FD0002FF05EFBE3680133E3600025284670BD17
:100FE0002FF008FE2B68C01A80B2EBE7A36A01332A
:100FF000A3622CF0FFFDF1E7640600216C040021E0
:10100000E80500216803002170B504462FF0F2FDC9
:101010000B4D28602CF0D8FD21460A4CFFF7BEFF8F
:10102000668E2FF0E7FD2B68C01A864202D9608ECB
:10103000608670BD2FF0DEFD2B68C01A80B2F7E726
:10104000E80500216C0400212DE9F74FDFF87C92C0
:101050000E4699F878408046022CDDF830A09DF8C5
:101060003410856A00F0C480032C00F03981002C14
:1010700040F09E81964F06B3F31E012B40F29A81F9
:10108000042E00F0AA8000F2B18023460124032E32
:1010900000F0968022461C46BB6A0133BB622346A1
:1010A0001446002B00F0928016F0FB0F01D12FF0B8
:1010B000F9FA2CF09FFD01248BE0C5E92D3A85F863
:1010C000B210D5F89430834985F8B120984704468A
:1010D000002862D0D5F89030002B5ED00123B7F8FD
:1010E0002EB089F878302FF085FD7B4E3368C01A1A
:1010F00083454CD9FB8DFB8595F8A830ADF80030C1
:10110000D5F890300193FFF7A4FD012168462FF038
:101110007BFAD5F8983013B140466E499847002CB9
:101120004CD1D5F8A030002B40D0404669499847B3
:10113000044600283AD0032389F878302FF0B2FA19
:1011400028462FF0BBF954446448C9F888402FF072
:1011500021FABE8D2FF04EFD5F4C2368C01A8642E7
:101160001ED9B88DB885FFF769FD40F201115948C5
:101170002FF068FA4046D5F8A43056499847B0FA9F
:1011800080F464093B6801333B6014B38FE72FF0B0
:1011900031FD3368C31A9BB2ADE72FF083FAB8E78D
:1011A0002FF028FD2368C01A80B2DBE7D5F8A43001
:1011B00013B14046474998470124E3E70024E1E79B
:1011C000BA680132BA60002B7FF473AF002C7FF451
:1011D00070AF204603B0BDE8F08F234601247A6843
:1011E00001327A60002B7FF462AFEFE7012253E710
:1011F0000324374F89F878406EB1F31E012B51D983
:10120000042E4FF000034FF001045BD054D9BA6AAA
:101210000132BA6245E7C5E92D3A85F8B210D5F832
:101220009C302C4985F8B1209847D5F8A0308BB375
:10123000404628499847044660B328462FF03EF9B7
:10124000544409F18000C9F888402FF0A3F9BE8DFD
:101250002FF0D0FC204C2368C01A864214D9B88DD8
:10126000B885FFF7EBFC40F201111A482FF0EAF9BC
:101270004046D5F8A43017499847B0FA80F464097D
:101280003B6901333B6180E72FF0B4FC2368C01A4F
:1012900080B2E5E7D5F8A43013B140460D49984730
:1012A0000124EDE7D5F89C3000219847042E4FF03B
:1012B00001034FF0000405D0032EA8D1BA69013212
:1012C000BA6180E77A6901327A618BE764060021AE
:1012D0006C04002168030021E8050021E4060021D8
:1012E000D5F8A030364FC6B1F21E012A4ED90021E2
:1012F0009847D5F8A43013B1002140469847042EF2
:101300004FF000034FF001044ED080D8032E7FF43D
:101310007EAF7A6A01327A6255E72A4998470446D5
:1013200060B328462FF0CAF8544409F18000C9F888
:1013300088402FF02FF9BE8D2FF05CFC224C2368E3
:10134000C01A864214D9B88DB885FFF777FC40F2F1
:1013500001111C482FF076F94046D5F8A430194900
:101360009847B0FA80F46409FB690133FB610CE72C
:101370002FF040FC2368C01A80B2E5E7D5F8A4300E
:1013800013B140460F4998470124EDE700219847E3
:10139000D5F8A43013B1002140469847042E4FF0F1
:1013A00001034FF00004B1D13A6A01323A6219E701
:1013B00000240EE7042E4FF001037FF468AE0EE721
:1013C0006C04002168030021E80500212DE9F341A8
:1013D0000E461746984604462FF00CFC0F4D286029
:1013E0002CF0F2FB9DF8203021460D4C3246CDE921
:1013F00000833B46FFF728FE268E2FF0FBFB2B6871
:10140000C01A864204D9208E208602B0BDE8F08141
:101410002FF0F0FB2B68C01A80B2F5E7E805002139
:101420006C04002108B500220620054901F074FC77
:10143000BDE8084034220021024833F0FABC00BF66
:101440006D0C00016C04002130B50446044D0FCD35
:101450000FC40FCD0FC40FCD0FC42B68236030BD58
:101460006C04002108B500220920054901F054FC54
:10147000BDE8084024220021024833F0DABC00BF56
:10148000D50C0001A405002130B50446034D0FCD55
:101490000FC40FCD0FC42B68236030BDA4050021FD
:1014A00070B50446866A08462FF008F80F4DD6F846
:1014B000AC3005F18000C5F88C30A368C5F88830E1
:1014C000A3602FF067F8002385F87830D6F89030C5
:1014D00043B1FFF7BEFBBDE8704040F20111044884
:1014E0002FF0B0B8FFF7AAFBF5E700BF64060021B4
:1014F000680300212FF0D8B81FB5002301A8CDE95B
:10150000013303932FF04EF805B05DF804FB0000A3
:101510002DE9F04F85B080460E46934699462CF053
:1015200063FB074668B93E4CD8F828A094F87A3097
:1015300094F87950032B06D118B184F87A3084F8E6
:101540007950012754E0022D92BF2A46033DEAB2AA
:1015500002F125018AF80110F17E551C41FA02F2D0
:101560000133D2074FF00100DBB2EDB2E2D584F8CF
:101570007A3084F87950B9F1000F04D11BF0FB0FD9
:1015800001D12FF08FF850462EF098FFB9F1000FDF
:1015900004D0D8F80830C4F8883009E073685BB329
:1015A0002FF028FB05462CF041FB2844C4F88800A6
:1015B000002384F87830F3681BB14046D4F88810D3
:1015C000984718482EF0E6FF736833B301238DF86F
:1015D0000430002301A8CDE902332EF0E3FF337E6F
:1015E0000121ADF80430336801A802932EF0E2FF28
:1015F000384605B0BDE8F08F327E9AF80E109AF8A2
:101600000C002BF09AF905462CF010FB28442BF027
:10161000FBF9D4F888300344BDE7FFF76DFFDEE740
:1016200064060021E40600210F4B104A10B5816AC0
:10163000C3F880200E4A91F8AA40C3F884200422FF
:10164000C3F88C20002283F8794083F8782083F84F
:101650007A2090310123FFF75BFF18B1BDE81040FD
:101660002CF0B8BA10BD00BF64060021B517000108
:10167000751600012DE9F347994605462FF0BAFA91
:10168000DFF82481494CC8F800002CF09DFA484A44
:10169000866A92F878300746591C012B82F8781038
:1016A00068D106F1900A002D4BD1C6F8AC902A46BD
:1016B000D6F8940006F1B00306F1780101F0F4FBCE
:1016C000814668B33846D6F8A030D6F894109847CB
:1016D00030B3B4F81A902FF08DFAD8F80030C01A51
:1016E000814516D9608B6083FFF706FF96F8A93015
:1016F0000121ADF80030D6F89830684601932EF0FD
:1017000083FFD6F8A430ABB13846D6F8941098478A
:1017100010E02FF06FFAD8F80030C01A80B2E2E77C
:10172000002351461A463846FFF7F2FE0546B9F146
:10173000000FE6D1636801336360DDB12EF0B2FFC4
:1017400010E000232A465146FFF7E2FE042D1ED08A
:1017500001D8032D09D063690133636150B115F0DD
:10176000FB0FEBD02CF046FA04E0E3680133E360B2
:101770000028F7D1A58B2FF03DFAD8F80030C01A19
:1017800085420AD9A08BA08302B0BDE8F087A36888
:101790000133A3600028D1D1ECE72FF02BFAD8F861
:1017A0000030C01A80B2EEE7E8050021C80500212C
:1017B000640600212DE9FF4107462FF01BFA314E48
:1017C000314C30602CF000FA2FB163690133636152
:1017D0002CF010FA0CE02D4BD0F8288093F87850BC
:1017E00008F190016A1C83F878206DB1022D39D080
:1017F000E58B2FF0FFF93368C01A85423BD9E08BA7
:10180000E08304B0BDE8F081D8F8943023B3278B8F
:101810002FF0F0F93368C01A874217D9208B0123C3
:101820008DF804300023208301A8CDE902332EF087
:10183000B9FE2421D8F894002EF02AFF2368013342
:101840002360002DD4D02EF02DFFC1E72FF0D2F968
:101850003368C01A80B2E2E72B462A46FFF758FEEB
:101860000546EBE73B463A46FFF752FE236905463D
:1018700001332361E5E72FF0BDF93368C01A80B268
:10188000BEE700BFE8050021C8050021640600216D
:1018900008B50320054A064901F03EFABDE80840B4
:1018A00020220021034833F0C4BA00BFF514000120
:1018B00029160001C805002130B50446034D0FCD9F
:1018C0000FC495E80F0084E80F0030BDC805002163
:1018D0001FB5002301A8CDE9013303932EF062FE6A
:1018E00005B05DF804FB00002DE9F04789469A46F3
:1018F00006462FF07FF95A4F5A4D38602CF064F9A4
:10190000594A846A92F878308046591C012B82F833
:10191000781040F08F80002E7AD19DF8203084F826
:10192000FA9084F8D13094F8F830C4F8D4A004EBDD
:101930008303D3F8F01000293FD0D4F8C43098477F
:1019400000283AD0B5F81E902FF054F93B68C01A21
:10195000814528D9E88BE883FFF7BAFFD4F8C8207F
:101960003AB194F8F830404604EB8303D3F8F01012
:10197000904794F8F83094F8F9200133DBB29A429A
:1019800084F8F83015D904EB830340F20111D3F841
:10199000F0002EF057FE6B6801336B60002E49D0CB
:1019A0002EF080FE44E02FF025F93B68C01A80B28B
:1019B000D1E7002384F8F830EDE7D4F8A01009B996
:1019C0000126E8E74046D4F8C43098470028F7D00D
:1019D000B5F81E902FF00EF93B68C01A814511D959
:1019E000E88BE883FFF774FF022104F1A4002EF0D6
:1019F0000BFED4F8C830002BCDD04046D4F8A01050
:101A00009847C8E72FF0F6F83B68C01A80B2E8E7BD
:101A1000042E1AD001D8032E07D0AB6916F0FB0FA5
:101A200003F10103AB6103D1BAE7EB680133EB606B
:101A30002CF0E0F82C8C2FF0DDF83B68C01A8442C3
:101A400007D9288C2884BDE8F087AB680133AB60E8
:101A5000A6E72FF0CFF83B68C01A80B2F2E700BFCC
:101A6000E8050021EC05002164060021F8B5CB6BE8
:101A700006460C460BB90120F8BD012198470546E2
:101A80000028F8D0B06A2EF019FD1148114ED0F898
:101A9000883080302B44104D83602EF07BFDAF8B5F
:101AA0002FF0A8F83368C01A87420AD9A88BA883F8
:101AB000FFF70EFF04F1240002212EF07BFD002031
:101AC000DAE72FF097F83368C01A80B2EFE700BF6B
:101AD00064060021E8050021EC0500212DE9FF47FF
:101AE00005462FF087F8464F464C38602CF06CF8CE
:101AF00081462DB1A3690133A3612CF07BF81AE074
:101B0000DFF80481866A98F8785006F1900A022D71
:101B10004CD0032D62D075B9D6F8A030BBB90323E1
:101B2000514688F87830FFF7A1FF05462368013356
:101B30002360002D60D1658C2FF05CF83B68C01AE3
:101B4000854253D9608C608404B0BDE8F08796F874
:101B5000F83006EB8303D3F8F00028B1D6F8FC3058
:101B6000002BE3D09847E1E7012388F87830B4F8F8
:101B70001C802FF03FF83B68C01A804510D9A08B1D
:101B800001238DF804300023A08301A8CDE902339E
:101B90002EF008FD2421D6F8A0002EF079FDC5E72F
:101BA0002FF028F83B68C01A80B2E9E7032388F8D1
:101BB00078300E2296F8D110707BD6F8D4502AF0E7
:101BC000BCFE9635054451464846C8F88850FFF794
:101BD0004DFF2369054601332361AAE75146FFF70C
:101BE00045FF6369054601336361A2E72FF002F800
:101BF0003B68C01A80B2A6E72EF054FD7DE700BF17
:101C0000E8050021EC05002164060021F0B51F4B1A
:101C10001F4C866AC4F880301E4B85B0C4F88430EF
:101C20000423C4F88C3000230F460546A4F878300E
:101C30002BF0DAFF014630BBD6F8CC300BB128468A
:101C4000984738462EF03AFCAB6800251248C4F895
:101C5000883084F878502EF09DFCD6F8A0307BB107
:101C6000012301A8CDE902558DF804302EF09AFC2D
:101C7000022106F1900005B0BDE8F0402EF09ABCBC
:101C8000FFF726FEF4E705B0F0BD00BFDD1A000146
:101C900064060021E9180001E4060021FFF7B6BF41
:101CA00008B500220720074901F036F80022082075
:101CB000054901F031F8BDE808402422002103481D
:101CC00033F0B7B80D1C00019D1C0001EC0500218C
:101CD00030B50446034D0FCD0FC40FCD0FC42B6894
:101CE000236030BDEC0500212EF0DEBC2DE9F04173
:101CF0000F46984605462EF07DFF224C224E94F862
:101D000078303060013384F878302BF05DFF0023A9
:101D1000826AD4F89410C2F89C8082F8A070C4F84B
:101D20009430D2F898302A4698472BF05DFF18B1CE
:101D30002EF0B8FC2BF05EFF032D144C10D0042DB8
:101D400012D0ADB9236801332360258B2EF052FFEA
:101D50003368C01A85420FD9208B2083BDE8F081FB
:101D6000A3680133A360F0E7636801336360ECE7C5
:101D7000236901332361E8E72EF03CFF3368C01A82
:101D800080B2EAE764060021E80500211006002180
:101D900070B50446866A08462EF090FB104D114B34
:101DA00005F18000C5F88430A368C5F88830D6F8FE
:101DB0009030C5F88C302EF0EDFB0023204685F8DE
:101DC0007830D6F8943098472BF00EFF30B12BF0D6
:101DD000FBFE18B1BDE870402BF00CBF70BD00BF1A
:101DE00064060021ED1C000108B50C20054A0649D7
:101DF00000F092FFBDE808401C220021034833F0A8
:101E000018B800BFE91C0001911D00011006002157
:101E10002DE9FF411A4E0D46A6F890100221C6F892
:101E20009400044601A8CDE902239DF828708DF89E
:101E300004102EF0B7FB96F8783003B137B129467D
:101E4000204604B0BDE8F0412EF0FCBB0D4E0E4F15
:101E5000B6F814802EF0CEFE3B68C01A804508D933
:101E6000B38A29462046B38204B0BDE8F0412EF083
:101E70000FBC2EF0BFFE3B68C31A9BB2F1E700BF58
:101E80006406002110060021E805002170B50C460B
:101E90000546074E2EF006FC2046C6F888502EF068
:101EA0000DFB06F18000BDE870402EF073BB00BF53
:101EB000640600212EF0F8BB70B504462EF09AFEA1
:101EC000144A154D92F878302860013382F8783042
:101ED0002BF07AFE836A2146104CD3F89430984751
:101EE000E3680133E3602BF07FFE18B12EF0DAFBDC
:101EF0002BF080FE668B2EF07DFE2B68C01A86428A
:101F000002D9608B608370BD2EF074FE2B68C01AFE
:101F100080B2F7E764060021E805002110060021E1
:101F200070B50446866A08462EF0C8FA0E4D0F4B6F
:101F300005F18000C5F88030A368C5F88830A3603B
:101F40002EF028FB0023204685F87830D6F8903014
:101F500098472BF049FE30B12BF036FE18B1BDE8A2
:101F600070402BF047BE70BD64060021B91E000111
:101F700008B50D20054A064900F0CEFEBDE8084030
:101F80001C220021034832F054BF00BFB51E0001DF
:101F9000211F0001100600212DE9FF4104460D46D6
:101FA00093B1022102928DF8041001A803932EF040
:101FB000F9FA134B93F878304BB92946204604B010
:101FC000BDE8F0412EF0F6BACDE90133EDE70D4E54
:101FD0000D4FB6F816802EF00DFE3B68C01A8045F6
:101FE00008D9F38A29462046F38204B0BDE8F041BF
:101FF0002EF00ABB2EF0FEFD3B68C31A9BB2F1E740
:102000006406002110060021E805002130B50446D1
:10201000034D0FCD0FC495E8070084E8070030BDDD
:10202000100600211FB501238DF80430002301A8FC
:10203000CDE902332EF0B6FA05B05DF804FB0000DE
:102040002DE9F04104460D462BF0BEFD836A1B7856
:102050000A2B0BD1124B93F878303BB9FFF7E2FF14
:1020600029462046BDE8F0412EF0A4BA0D4E0E4F91
:10207000B6F816802EF0BEFD3B68C01A804509D91F
:10208000F38AF382FFF7CEFF29462046BDE8F041F0
:102090002EF0BABA2EF0AEFD3B68C31A9BB2F0E741
:1020A000640600212C060021E805002170B50C4EC5
:1020B00004460D46C6F89400A6F890102BF084FD57
:1020C000836A1B780B2B0AD196F878303BB9FFF75F
:1020D000A9FF29462046BDE870402EF0B3BA70BD76
:1020E0006406002130B50446034D0FCD0FC495E8BA
:1020F000070084E8070030BD2C06002170B50D46AE
:1021000004462EF0D1FA094BD3F8941039B10022CD
:102110002046C3F894200222D5F8AC3098472046D8
:10212000D5F8A430BDE87040184700BF6406002110
:102130002DE9F04104460D46876A2BF055FD064611
:10214000E8B928462EF0BAF90E4D0F4B05F1800084
:10215000C5F880300D4BC5F88430A368C5F88830C9
:10216000A3600423C5F88C302EF014FAD7F8983009
:1021700085F878601BB12046BDE8F0411847BDE8FE
:10218000F08100BF64060021912100016522000159
:102190002DE9F04385B005462EF02CFD2E4F2F4E35
:1021A00038602BF011FDD0F828902946D9F8A830D6
:1021B00080469847D6F89410294C00293AD055BB50
:1021C000A58A2EF017FD3B68C01A85421DD9A08A4A
:1021D0000023A08201A8CDE9013303932EF0E2F998
:1021E000B6F89010D6F894002EF052FAE368013356
:1021F000E360658B2EF0FEFC3B68C01A854213D964
:10220000608B608305B0BDE8F0832EF0F3FC3B6883
:10221000C01A80B2DCE700230222C6F894304046A0
:10222000D9F8AC30984708E02EF0E4FC3B68C01ABF
:1022300080B2E6E70DB92EF035FA96F8783023B97A
:102240002BF0D8FC012386F87830002DCED02369FE
:1022500001332361CDE700BFE805002164060021BA
:102260002C0600212DE9F3470F4605462EF0C2FC4F
:10227000DFF81481C8F800002BF0A6FC0023866A62
:102280009DF8282086F8B070404F8DF80730D7F8B9
:10229000941086F8B120C7F894302A46D6F8AC30AE
:1022A000044698472BF0A0FC8146002837D04FF019
:1022B00001092BF099FC40EA0900C0B280B1062D5B
:1022C00006D80123AB4013F0510F01D02EF0EAF9EC
:1022D00097F8783023B92BF08DFC012387F87830FC
:1022E0009DF8073023B929462046D6F8A0309847F4
:1022F000032D274C35D0042D37D0002D39D123683C
:1023000001332360258B2EF075FCD8F80030C01AFD
:10231000854232D9208B208302B0BDE8F087204669
:10232000D6F890300DF10701984782460028BED0BC
:102330002EF0B8F9D6F894300DF1070120469847F1
:10234000A06A2EF0BBF8D7F888005044C7F8880080
:1023500007F180002EF01EF92046D6F89C309847F1
:10236000A7E7A3680133A360CCE763680133636028
:10237000C8E7236901332361C4E72EF03BFCD8F89A
:102380000030C01A80B2C6E7E805002164060021CB
:102390002C06002108B50A20054A064900F0BCFCBD
:1023A000BDE808401C220021034832F042BD00BFB6
:1023B000FD200001312100012C06002170B50D46E1
:1023C00004462EF071F9094BD3F8941039B100226C
:1023D0002046C3F894200222D5F8AC309847204616
:1023E000D5F8A430BDE87040184700BF640600214E
:1023F00001232DE9F041876A054687F8B0308368EC
:102400000846C7F8B8300F4C0E462EF057F80E4B62
:1024100004F18000C4F880300C4BC4F88430D7F845
:10242000B830C4F88830D7F8C030C4F88C302EF0FB
:10243000B1F80023284684F87830D6F89830BDE803
:10244000F041184764060021D1250001B1240001A4
:102450002DE9F04106460C4690462BF0C5FB074699
:1024600018B101273846BDE8F0814146304623685F
:10247000984705460028F4D02EF014F941466368C9
:1024800030469847B06A2EF019F8A36A07482B44E3
:10249000A362B360C0F88830236B8030C3602EF035
:1024A00079F83046E3689847DCE700BF640600210E
:1024B0002DE9F04385B00F46984604462EF09AFB6E
:1024C000404E30602BF080FB856A9DF8303085F8F7
:1024D000BC7014F0FB07814685F8BD3007D1C5F804
:1024E000B88001A8CDE9017703972EF05BF895F845
:1024F000B030012B06D12FB9D5F8B83085F8B070BF
:10250000C5F8B4304FF000082F4FD5F8AC30D7F8ED
:10251000941022464846C7F89480984704F0FD037B
:10252000012B8DF804800ED1484601AA05F19001D7
:10253000FFF78EFF9DF80430804623B921464846B8
:10254000D5F8A03098472BF04FFB40EA0800C0B206
:1025500080B1062C06D80123A34013F0510F01D0FF
:102560002EF0A0F897F8783023B92BF043FB012325
:1025700087F87830032C154D11D0042C13D0B4B942
:102580002B6801332B602C8B2EF034FB3368C01A80
:10259000844210D9288B288305B0BDE8F083AB684E
:1025A0000133AB60EFE76B6801336B60EBE72B69DE
:1025B00001332B61E7E72EF01DFB3368C01A80B2B0
:1025C000E9E700BFE8050021640600212C06002190
:1025D0002DE9F74305462EF00DFB374F4FF000096C
:1025E00038602BF0F1FA0446866A2946D6F8A830FE
:1025F000984720460DF1070206F190018DF80790EB
:10260000FFF726FF804655BB2BF0EEFA40EA0800A4
:10261000C0B258B12EF046F8284B93F878302BB959
:102620002BF0E8FA0122254B83F878209DF807303B
:1026300023B929462046D6F8A0309847204C8DBBB8
:10264000E3680133E360658B2EF0D4FA3B68C01A6F
:1026500085422BD9608B608303B0BDE8F083012DE8
:1026600012D10028E2D0DFF85480D8F8941031B1AC
:1026700002222046D6F8AC30C8F8949098472EF045
:1026800011F898F87830CAE7DFF83080D8F894105D
:102690000029F6D002222046D6F8AC30C8F8949033
:1026A0009847EEE7236901332361CCE72EF0A2FAC5
:1026B0003B68C01A80B2CEE7E8050021640600211D
:1026C0002C06002108B50B20054A064900F024FB22
:1026D000BDE808401C220021034832F0AABB00BF1D
:1026E000BD230001F12300012C0600211FB50123A9
:1026F0008DF80430002301A8CDE902332DF052FFFC
:1027000005B05DF804FB00002DE9F04104460D46DC
:102710002BF05AFA836A1B78042B0BD1124B93F8D7
:1027200078303BB9FFF7E2FF29462046BDE8F0418B
:102730002DF040BF0D4E0E4FB6F816802EF05AFA0F
:102740003B68C01A804509D9F38AF382FFF7CEFFB0
:1027500029462046BDE8F0412DF056BF2EF04AFA3A
:102760003B68C31A9BB2F0E76406002148060021CB
:10277000E805002170B50C4E04460D46C6F89400DD
:10278000A6F890102BF020FA836A1B78052B0AD14B
:1027900096F878303BB9FFF7A9FF29462046BDE8F7
:1027A00070402DF04FBF70BD6406002130B5044667
:1027B000034D0FCD0FC495E8070084E8070030BD36
:1027C0004806002170B50D4604462DF06DFF094BFB
:1027D000D3F8941039B100222046C3F89420022285
:1027E000D5F89C3098472046D5F89430BDE8704025
:1027F000184700BF6406002170B5054608460F4C17
:102800000E462DF05BFE0E4B04F18000C4F88030C4
:102810000C4BC4F88430AB68C4F88830AB60042338
:10282000C4F88C302DF0B6FE0023284684F87830AA
:10283000D6F89030BDE87040184700BF640600210C
:10284000FD2800014928000170B50C4605462EF010
:10285000D1F9274E30602BF0B7F99DF81030826A1D
:1028600082F8A130234B82F8A04093F8781011B978
:10287000012183F878100024D3F89410C3F8944011
:10288000D2F89C302A4698472BF0AEF950B1062D6D
:1028900006D80123AB4013F0510F01D02DF002FFF9
:1028A0002BF0A8F9032D144C0FD0042D11D0A5B98D
:1028B000236801332360258B2EF09CF93368C01AFE
:1028C00085420ED9208B208370BDA3680133A3609D
:1028D000F1E7636801336360EDE723690133236146
:1028E000E9E72EF087F93368C01A80B2EBE700BF42
:1028F000E805002164060021480600212DE9F04387
:1029000085B005462EF076F92C4EDFF8B4803060A5
:102910002BF05AF9D0F828902946D9F89830074674
:102920009847D8F89410274C00293CD065BBA58A5D
:102930002EF060F93368C01A85421FD9A08A01239E
:102940008DF804300023A08201A8CDE902332DF0D8
:1029500029FEB8F89010D8F894002DF099FEE3689D
:102960000133E360658B2EF045F93368C01A854268
:1029700013D9608B608305B0BDE8F0832EF03AF97F
:102980003368C01A80B2DAE700230222C8F8943014
:102990003846D9F89C30984708E02EF02BF9336878
:1029A000C01A80B2E6E70DB92DF07CFE2BF022F9BB
:1029B000002DD4D0236901332361D3E7E80500213A
:1029C000640600214806002108B50420054A06498E
:1029D00000F0A2F9BDE808401C220021034832F0B3
:1029E00028BA00BFC5270001F927000148060021C9
:1029F00070B50D4604462DF057FE094BD3F89410E0
:102A000039B100222046C3F894200222D5F8A03024
:102A100098472046D5F89830BDE87040184700BF69
:102A2000640600212DE9F0410446876A08460F4DEF
:102A30000E462DF043FD0E4B05F18000C5F88030A9
:102A40000C4BC5F88430A368C5F88830A360D7F86C
:102A50009030C5F88C302DF09DFD0023204685F880
:102A60007830D6F89430BDE8F0411847640600216C
:102A7000312B0001792A0001F8B50C461F460546A6
:102A80002EF0B8F8274E30602BF09EF8826A9DF841
:102A9000183082F8A840244C82F8A93094F8783095
:102AA00023B90123C2F8A47084F878300023D4F845
:102AB0009410C4F89430D2F8A0302A4698472BF0EE
:102AC00093F850B1062D06D80123AB4013F0510FF7
:102AD00001D02DF0E7FD2BF08DF8032D134C0FD016
:102AE000042D11D0A5B9236801332360258B2EF066
:102AF00081F83368C01A85420ED9208B2083F8BD37
:102B0000A3680133A360F1E7636801336360EDE715
:102B1000236901332361E9E72EF06CF83368C01AAA
:102B200080B2EBE7E8050021640600214806002199
:102B30002DE9F04385B080462EF05CF82D4D2E4EE9
:102B400028602BF041F8D0F828904146D9F89C3005
:102B500007462A4C9847B8F1000F29D1D6F894308F
:102B60000BB3A78A2EF046F82B68C01A874214D9F7
:102B7000A08A01238DF804300023A08201A8CDE9AA
:102B800002332DF00FFDB6F89010D6F894002DF01A
:102B90007FFDE3680133E3601AE02EF02BF82B6829
:102BA000C01A80B2E5E72DF07DFD2BF023F8F0E7A9
:102BB000D6F8941039B100230222C6F89430384672
:102BC000D9F8A03098472BF015F823690133236119
:102BD000668B2EF00FF82B68C01A864204D9608BE2
:102BE000608305B0BDE8F0832EF004F82B68C01AAE
:102BF00080B2F5E7E80500216406002148060021BF
:102C000008B50520054A064900F086F8BDE80840E9
:102C10001C220021034832F00CB900BFF129000149
:102C2000252A000148060021816A034B0A7853F8DF
:102C3000323003B11847704764060021816A044BA3
:102C40000A7803EBC2035B6803B11847704700BF03
:102C5000640600212DF032BD2DF02EBC08B52DF0FC
:102C60002BFCBDE8084000202DF022BD08B52DF05A
:102C700015FC00202DF01AFDBDE8084001202DF0C4
:102C800017BD08B52DF00AFCBDE8084000202DF066
:102C90000DBD08B52DF002FCBDE8084001202DF067
:102CA00005BD000073B5134C134D144E2DF0F4FB0D
:102CB000224629460120124B00962AF0C1FF2246E7
:102CC000294602200F4B00962AF0BAFF0E4B2246EF
:102CD000009300210D4B03202AF0B2FF01200C4984
:102CE0002AF0BCFF982200210A4802B0BDE87040DB
:102CF00032F09FB83D2C0001292C0001592C000115
:102D0000932C0001832C00015D2C00016D2C00012F
:102D1000552C000164060021034B43F8301003EBEF
:102D2000C0035A60704700BF64060021F0B5044636
:102D30008C46D3E9000116461D46177885B0002C55
:102D400036D0CFB14FEA112E0EF0C00EBEF1400FBB
:102D500012D1BCF1000F04D000F00AFD204605B0EE
:102D6000F0BD00F07BFC044608B10124F6E71F4AE1
:102D7000D38B0133D383F1E702460B46384600F08C
:102D80007BFD0238C0B20128EFD80DF10F0300938C
:102D90003078D5E9002300F013FC18B19DF80F300E
:102DA000002BDBD1114A0224138B01331383D5E7A7
:102DB00027B10B0A03F0C003402BD6D002460B46C6
:102DC000384600F059FD02380128CED80DF10F0326
:102DD00000933078D5E9002300F0F2FB0028E1D021
:102DE0009DF80F30002BC0D1DCE700BFFC060021AE
:102DF0002DE9F041884617461E46044658B152EA6E
:102E000006030E4D0AD100F065FF012806D10446E5
:102E1000EB880133EB802046BDE8F0813A4633462B
:102E2000404600F0D5FE20B9AB8802240133AB80C8
:102E3000F1E7EB880133EB80EDE700BFFC060021F2
:102E400037B5DDE9065410B9002003B030BDCAB172
:102E5000230A03F0C003402B14D129B12846214690
:102E60000AAB08AA00F0D8FCDDE90A232846CDE920
:102E7000002321469DF8202000F02EFC003818BFCA
:102E80000120E2E79DF82000DDE90A2300F005FDBE
:102E90000238C0B20128D7D8024A0220538B01332E
:102EA0005383D2E7FC0600212DE9F04F90F8008013
:102EB0000D8808F00F0845FA08F515F00105814660
:102EC0000F4692461C466E4E87B006D133880133BA
:102ED0003380284607B0BDE8F08F4FF4C07B72887E
:102EE0004BFA08FB01321BF0010B4378728001D0D2
:102EF0000125EEE703F03F03637484F8108010F8B7
:102F0000025B2BF0ABFBC5F38015E574A574C4E937
:102F10000201C4E900017868514604F1080304F194
:102F20001302C0F38010FFF701FF0128054602D00D
:102F3000022839D05D46D4E90223D7F804C094F8BA
:102F400013E01CF0040B0ED0D7E90410834208BF35
:102F50008A4203D1CCF3C00CE64527D04FF0020BD8
:102F60003089013030817888714640FA08F000F0ED
:102F70000100FFF73DFF584523D2D7F804C01CF0ED
:102F8000040F1CD0D7E90413A068E2689A4208BF76
:102F9000884204D1E37CCCF3C00C63450CD0338968
:102FA00001333381012D1AD1002592E770894FF04A
:102FB000010B01307081D6E77389013373810125DC
:102FC0000DE07888E17C40FA08F000F00100D4E9D7
:102FD0000223FFF70DFF0128F1D90228E2D04FF0BC
:102FE000010BB8F1050F257584F815B080D80BFAE0
:102FF00008F818F02A0F3FF47BAF484610F8085B3A
:103000002BF02CFBD4E902238146CDE90423786818
:10301000E37CED09CDE9009188462A4651460293AA
:10302000C0F30010FFF70CFF01283FF461AF022846
:10303000BAD07B68DA077FF55BAFD7E90212424569
:1030400008BF494503D1C3F34002AA4213D0B28955
:103050000132B281002DA7D04FEA182808F0C0082D
:10306000B8F14008A0D19B069ED5338C0133338440
:1030700084F815802DE7F3890133F38138E700BF29
:10308000FC0600212DE9F04F07461C4608883B7CD2
:103090000E46184110F001009046624D87B005D1F0
:1030A0002B8801332B8007B0BDE8F08F6B8801338C
:1030B0006B80D7E90023C4E90223C4E90023BB7C69
:1030C00004F11302E374A374486804F10803414651
:1030D000C0F38010FFF72AFE0128814603D00228A2
:1030E0003DD04FF00009D4E90223D6F804C094F88B
:1030F00013E01CF0040A0ED0D6E90410834208BF86
:103100008A4203D1CCF3C00086452AD04FF0020A90
:10311000288901302881708897F810C0714640FADC
:103120000CF000F00100FFF763FE504525D2D6F801
:1031300004C01CF0040F1DD0D6E90413A068E26897
:103140009A4208BF884204D1E37CCCF3C00C6345AB
:103150000DD02B8901332B81B9F1010F1BD1002038
:10316000A1E768894FF0010A01306881D3E76B89D4
:1031700001336B814FF001090DE03B7C7088E17CED
:10318000184100F00100D4E90223FFF731FE0128C5
:10319000F0D90228E0D04FF0010A84F8149084F8A6
:1031A00015A07B7C990701D401207CE797F8139048
:1031B000D4E90223D7E902B77068CDE90423E37CA0
:1031C0004A464146CDE900B70293C0F30010FFF72D
:1031D00037FE01283FF467AF0228C0D07368DA07D2
:1031E000E2D5D6E90212BA4208BF594503D1C3F36A
:1031F00040024A4511D0AA890132AA81B9F1000FD3
:10320000ADD03F0A07F0C007403FA8D19B06A6D526
:103210002B8C01332B846775C6E7EB890133EB8177
:10322000C2E700BFFC060021054B03F1240253F85E
:10323000041B934240F8041BF9D11B88038070479C
:10324000FC060021002330B50A4C0B4D23700B4CBB
:1032500023708B070EBF0B4621F0030304332B6052
:1032600003EB00135B1A934296BF2070002098B2C4
:1032700030BD00BF220700212407002123070021C1
:10328000F0B500240D499DF814C00D780C4909686B
:10329000A54201D80020F0BD0E7A864208D1D1E9BE
:1032A00000769E4208BF974202D14E7A664502D010
:1032B00001341031ECE70120EDE700BF22070021C7
:1032C00024070021014B1878704700BF2307002115
:1032D0000022014B1A7070472207002130B50B49BC
:1032E0000B4D09782C78A1420DD90A49096801EBE8
:1032F000041108720120C1E900239DF80C3001344B
:103300004B722C7030BD0020FCE700BF230700216A
:1033100022070021240700212DE9F0411B4C84469F
:10332000276800253C46DFF868E09DF818809EF885
:103330000010EEB2B14201D8002021E0267A6645A5
:1033400020D1D4E900069E4208BF90421AD1667A85
:10335000464517D1012901F1FF300ED985420CD025
:1033600001F18051013907EB01110B7A2372D1E988
:103370000023C4E900234B7A63728EF80000012019
:10338000BDE8F08101351034D3E700BF24070021E8
:1033900022070021F0B50C4943EA00430D780B49A0
:1033A0000C680021C8B2854201D800200AE02046FE
:1033B000D0E908769E4208BF974201F1010104F16D
:1033C0004804EFD1F0BD00BF2C07002130070021D9
:1033D00030B585B00C46054610220021684631F014
:1033E00028FD6A46230A28468DF800401146240C21
:1033F0008DF801308DF802402DF060FA9DF8023012
:103400009DF801001B0443EA00239DF800001843C7
:1034100005B030BD13B5042104460DEB01002DF0BD
:1034200009FB01992046C1F3150141F48001019186
:10343000FFF7CEFF019940EA0160090A02B010BD12
:10344000002330B50A4C0B4D23700B4C23708B07B7
:103450000EBF0B4621F0030304332B60482505FB08
:1034600000335B1A934296BF2070002098B230BDA3
:103470002C070021300700212D070021014B186087
:10348000704700BF28070021014B1878704700BF24
:103490002D0700210022014B1A7070472C070021D4
:1034A000F8B507461D46FFF775FF1646044680B976
:1034B0002E4A2F4913780978994201D80020F8BD87
:1034C00048202C490C6800FB034401331370002C86
:1034D000F4D0224645EA0745069BC4E9086503F196
:1034E000100153F8040B8B4242F8040BF9D101236D
:1034F00004F10F0284F84030631E13F8011F71B30A
:10350000002384F8403004F110000246079B03F1C9
:10351000100153F8045B8B4242F8045BF9D101239C
:1035200084F84130034604F1200213F8011BC9B1AD
:10353000002384F8413000230022C4E90A23C4E9AF
:103540000C23C4E90E230023A4F8423094F8413040
:103550001BB9FFF75FFFC4E90C010120AFE79A42F6
:10356000CBD1D0E79A42E0D1E5E700BF2C0700219C
:103570002D0700213007002138B5FFF70BFF78B188
:10358000084D2C78012C08D9482202FB04F3064987
:10359000483B0968194431F025FC0120013C2C709E
:1035A00038BD00BF2C0700213007002108B5FFF708
:1035B000F1FE20B19DF8083080F84330012008BDAD
:1035C00008B5FFF7E7FE20B190F843200120029BE9
:1035D0001A7008BD10B5029CFFF7DCFE40B1D0E9BF
:1035E0000A2352EA030116BF01200020C4E9002388
:1035F00010BD10B5029CFFF7CDFE40B1D0E90C2301
:1036000052EA030116BF01200020C4E9002310BDC7
:1036100008B5FFF7BFFE28B1029BD3E90023C0E93C
:103620000C23012008BD10B5FFF7B4FE044698B185
:1036300090F8403083B990F8423033B9FFF7EAFE92
:103640000123C4E90A0184F84230029BD4E90A014B
:10365000C3E90001012010BD0020FCE7F7B50026FA
:10366000194C94F800C0194C25683446F7B2BC4593
:1036700010D80CB3164C2468F4B1164E758C013575
:103680007584D3E90067CDE9006713780122A0476C
:10369000002411E095F8407097B9D5E90A748C427E
:1036A00008BF87420BD10124E98C01F001011170A0
:1036B000296AAA8CC3E90012204603B0F0BD012498
:1036C00001364835D2E700BF2C0700213007002122
:1036D00028070021FC0600212DE9F347DDE90A67F0
:1036E0009146804632463B4648460D46FFF752FE1D
:1036F000E8B190F84140D4B9D0E90E23AB4208BFFD
:10370000424516D00C4BD3F800A0BAF1000F0AD0F6
:103710000A4A4046938C2946013393844B462246FD
:10372000CDE90067D047204602B0BDE8F08700240D
:10373000F9E70124F7E700BF28070021FC06002174
:1037400038B505461046DDE904230C46FFF722FE96
:1037500050B190F8413043B9D0E90E23A34208BFDD
:10376000AA420CBF0120002038BD0020FCE7000069
:103770002DE9F74F0E4605461F464FF000084FF063
:10378000480B010E41EA0621DFF880A0009221F0EB
:103790007F411F4B5FFA88F41B78A34205D81D4A6E
:1037A0000020138A0133138229E0DAF800300BFB82
:1037B000043494F84090B9F1000F23D1D4E90A23DE
:1037C000B34208BFAA4210D020460191FFF700FE85
:1037D00025F07F438342019914D10E4AC4E90A5669
:1037E000538A84F84290013353820120E38C009A7B
:1037F00003F001031370226AA38CC7E9002303B00E
:10380000BDE8F08F08F10108C3E700BF30070021D1
:103810002C070021FC06002170B50E461146D3E9A5
:10382000002305460878FFF7B5FD0446E0B190F89F
:103830004130CBB9D0E90E23B34208BFAA4211D020
:10384000290E41EA062121F07F411030FFF7C0FD2B
:1038500025F07F43834207D1064AC4E90E56D38A36
:103860000133D382012004E00020024A938A01330D
:10387000938270BDFC06002108B5FFF78BFD48B1AF
:10388000D0E90A23134306D190F84030002B14BF2F
:103890000120022008BD0320FCE708B5FFF77AFDF0
:1038A00048B1D0E90C23134306D190F84130002BE6
:1038B00014BF0120022008BD0320FCE72DE9F041E0
:1038C00000254FF04808124E124F3378ECB2A34255
:1038D00001D8BDE8F0813B6808FB043494F841301E
:1038E0002BB904F11000FFF795FDC4E90C0194F821
:1038F00040303BB994F8423023B12046FFF78AFDAF
:10390000C4E90A01012384F844301D44DDE700BF07
:103910002C0700213007002108B5FFF73BFD0346C7
:1039200020B1002290F8440083F8442008BD08B577
:10393000FFF730FD003818BF012008BD1FB5002378
:1039400001A8CDE9013303932CF02CFE05B05DF8FE
:1039500004FB000030B5144B144D85B0C5F8803021
:10396000134B0C46C5F884308368C5F888308360F3
:10397000D1F890300846C5F88C302CF09FFD05F149
:1039800080002CF007FE03238DF80430002301A8EB
:10399000CDE902332CF006FEB4F89C10D4F8980060
:1039A0002CF050FE05B030BD553A000164060021F0
:1039B000B5390001F0B585B00F4604462AF004F988
:1039C000856A064685F89E70F4B9204B1B682BB1BA
:1039D00095F82C2012B105F12C009847214630466D
:1039E000D5F894309847B0B103238DF80430002304
:1039F00001A8CDE902332CF0D5FDB5F89C10D5F81F
:103A000098002CF045FE0AE014F0FB0FD5F8943036
:103A1000E4D0214698472CF045FE2AF0EBF8032C21
:103A20000B4B07D0042C09D064B91A6801321A6014
:103A300005B0F0BD9A6801329A60F9E75A68013220
:103A40005A60F5E71A6901321A61F1E7780D002131
:103A500034070021F7B505462AF0B6F81C4E074694
:103A6000846A25BB2CF01EFE29463846D4F89030D7
:103A7000984700B3174DB4F89A20D5F888302046FF
:103A80001344C5F888302CF019FD05F180002CF0A6
:103A900081FDFFF753FFB4F898300121ADF80030F5
:103AA000D4F89430684601932CF084FD06E0294652
:103AB000D4F8903098472AF09DF825B9F36801337F
:103AC000F36003B0F0BD336901333361F9E700BF40
:103AD000340700216406002137B50C46104D114B08
:103AE000C5F88030104BC5F884308368C5F888303D
:103AF000836008462CF0E2FC05F180002CF04AFDC2
:103B0000FFF71CFFB4F898300121ADF80030D4F86D
:103B10009430684601932CF04DFD03B030BD00BFDA
:103B200064060021553A0001B539000108B52CF0B2
:103B3000BBFDBDE808402AF05DB8000010B5094C97
:103B4000002022460849FFF7E7F8224601200749EE
:103B5000FFF7E2F8BDE810401C220021044831F0D4
:103B600068B900BF2D3B0001D93A00015539000169
:103B70003407002130B50446034D0FCD0FC495E83E
:103B8000070084E8070030BD34070021002330B56A
:103B90000B4C0C4D23700C4C2B7023708B070CBFFF
:103BA0000B4621F00303094D18BF04332B6003EBD0
:103BB000C0035B1A934296BF2070002098B230BDBC
:103BC000510700215007002152070021540700210E
:103BD00030B50B4943EA00430A480968047801EB11
:103BE000C404A14201D1002030BDD1E90050984267
:103BF00008BF954201F10801F3D10120F4E700BFAD
:103C00005407002151070021014B1878704700BF6D
:103C1000520700210023024A1370024A13707047B2
:103C2000510700215007002170B5064615461C4675
:103C3000FFF7CEFF80B9094B094A197812788A42FA
:103C40000BD9084A44EA0644126802EBC10042F864
:103C50003150013144601970012070BD51070021BD
:103C6000520700215407002143EA00431148F0B5F0
:103C70000468DFF844C025469CF8001004EBC10E30
:103C8000754501D1002014E02846D0E900769E4217
:103C900008BF974205F10805F2D1012905D904EBC7
:103CA000C10454E90223C0E90023012001398CF842
:103CB0000010F0BD54070021510700210122014BE3
:103CC0001A707047500700210022014B1A7070478C
:103CD00050070021014B1878704700BF50070021A2
:103CE00037B5044628F088FB0022144B9C42144B45
:103CF0000CBFDA701A7194F8423003F0FD03012B07
:103D000001D128F089FB20460DF08CFA04F128053A
:103D100028460DF107012AF01DFE40B93034204637
:103D20000DF107012AF016FE20B903B030BD2AF0CC
:103D3000F9FDEDE72AF0F6FDF1E700BF780E00216E
:103D4000B0520021154A38B5154C164B1068516811
:103D50001D6804F13C0303C304F1480029790DF008
:103D6000ABFB012029F0BAFE28F03EFB01230E4DEB
:103D7000EB7094F8423003F0FD03012B01D128F0E1
:103D800043FB0DF071FA00200123687184F8D031F3
:103D9000A4F8CE31BDE8384028F0C2BA88530021DB
:103DA000780E0021700E0021B0520021054BDB7807
:103DB00033B10123044880F899309C302AF09ABA34
:103DC000704700BFB0520021780E0021002028F07B
:103DD000A7BA0C2028F0A4BA08B5012029F094FE57
:103DE000BDE808400148FFF77BBF00BF780E002107
:103DF00008B5012029F088FE0348FFF771FFBDE8F0
:103E00000840002028F08CBA780E0021FFF7E4BFAC
:103E1000034B044A19684B6813608B685360704702
:103E2000700E00218853002108B5084B08481B6814
:103E3000197990F888308B4202D048300DF03CFB65
:103E4000BDE80840002028F06BBA00BF700E0021CA
:103E5000780E002110B50446012029F055FEA37B01
:103E600003F0FD03012B01D128F0D6FAD4F8C802E3
:103E700020B12AF057FD0023C4F8C832D4F8D0028C
:103E800020B12AF04FFD0023C4F8D032034AD37882
:103E9000013BD370BDE8104028F0AEBAB05200210B
:103EA00038B505460F4C012029F02EFE2C1B0E487C
:103EB000EB68241144430BB1A0B298470434E0B23C
:103EC00029F028FC95F8D8320BB128F0B5FA28F083
:103ED00093FAD5F8C40208B12AF024FD00232B7010
:103EE00038BD00BFE0190021D32FFDD238B50C46F4
:103EF000054612220021204630F09BFF204695F80F
:103F0000403300F8023BD5E9D2232AF0ADFB95F807
:103F100041330E4A637095F888332372D5F86431C3
:103F2000A3FB0232DB0F43EA4203638195F8683159
:103F3000237395F86032637395F86132A37395F833
:103F40006232E37395F86332237438BDE3361A00A6
:103F500038B50446012029F0C1FDA37B03F0FD0321
:103F6000012B01D128F050FA002320466370A37082
:103F7000A4F8083284F83C300DF05EFE054620B906
:103F800020460DF08DFF054640B1284628F02AFB5B
:103F90002046BDE8384003210EF090B9074AD37897
:103FA0000133D37028F020FA0123284684F86830C2
:103FB000A4F86630BDE8384028F014BBB0520021A8
:103FC000002028F00FBB000030B4027C0121022A3F
:103FD00018BF00220C4C8170657895420AD190F888
:103FE000082222B900F5037030BC2AF083B900F52D
:103FF0004E70F9E701FA02F2217821EA02022270FA
:10400000032130BC0EF05AB950100021002028F0D6
:10401000E9BA000010B5094C6378012B04D9BDE85A
:1040200010400C2028F0DEBA04F160002AF077FE80
:1040300004F17000BDE810402AF071BE5810002154
:10404000034B5B7813B10C2028F0CCBA704700BF4B
:1040500058100021024B587800B10C2028F0C2BA49
:104060005810002108B5FFF7F5FE044B5B7823B12B
:10407000BDE80840002028F0B5BA08BD581000215E
:1040800038B51E4B01201C6829F028FD23790BB19F
:1040900028F0CAF923791A4D2B72D4E90223C5E915
:1040A0000423E379AB72A3796B72637D2B760EF0F8
:1040B000D5FCD8B12862237980F8D832A37980F86A
:1040C000D932E37980F8DA32D4E90223C0E9B8239F
:1040D0000A22238AA0F8D032638A5343C0F8D4322C
:1040E0000B23437263798371237DC371286A0EF0B9
:1040F000B5F9BDE8384028F077B900BF4C3C002145
:10410000083C0021034B5A78012A04BF00225A7050
:10411000704700BF083C0021084B186A90F8C32282
:104120000AB9012202715B78012B03D1C3703030D0
:104130002AF0E0B805210EF0DBB800BF083C0021F2
:1041400030B5104C87B06378012B07D10025206A69
:10415000C370057130302AF0CDF86570206A01A96E
:10416000FFF7C4FE236A0849084A591A0911514346
:104170003E2093F88D3401AA89B228F095FA07B051
:1041800030BD00BF083C0021E0190021D32FFDD233
:1041900030B52F4C87B06378206A012B04BF002311
:1041A0006370FFF77DFE256A2B7983B1122200210F
:1041B00001A830F03EFE2749274B691A09115943DF
:1041C000442095F88D3401AA89B228F06DFA256A49
:1041D00095F8C332BBB1217A11F0010115D1122239
:1041E00001A830F026FE1B491B4B691A09115943DF
:1041F0001A2095F88D3401AA89B228F055FA0022C8
:10420000236A83F8C32207B030BD18202AF082FB4E
:1042100001460028F3D040F20B134380D4E9042375
:10422000C0E90223A37AC371637A8371237A03718D
:10423000236A9A794271B3F8D022D3F8D432028239
:104240004382237E4375054B187B2AF074FBD6E727
:10425000083C0021E0190021D32FFDD2F8520021A3
:104260002DE9F043534B85B01D680EF0F7FB044673
:10427000002800F09C80012029F030FC002184F807
:10428000D81295F820304C4F84F8D93295F8213067
:104290004A4E84F8DA32D5E90A23C4E9B82395F8FE
:1042A0002330384684F888334FF47A73C4F8D43214
:1042B0000C233461A4F8D0126372A91D1AF0E2F83D
:1042C00040F2E242BB885343C4F8643195F8203091
:1042D00084F8403395F8213084F84133DB07D5E981
:1042E0000A01C4E9D2011CD50B0A03F0C003403B0C
:1042F00017D14FF000084FF000098DF807300DF18D
:10430000070202ABCDE90289FFF732FA48B19DF806
:10431000073043F0020384F84133DDE90223C4E9A6
:10432000D22395F83230398884F88D346B6B244869
:10433000C4F85C3295F8383084F8603295F839303A
:1043400084F8613295F83A3084F8623295F83B305F
:1043500084F863322AF030FDB9781A482AF02CFD2F
:10436000B98819482AF028FDB98B18482AF024FD8D
:1043700030690EF073F828F037F8AB88288BB380DB
:104380006B8B7080F380AB8B33812B8E738195F8B0
:1043900022303373EB8BF3816B6B7361AB6BB36167
:1043A0000EF090F905B0BDE8F04306F059BA05B03B
:1043B000BDE8F0834C3C0021503C0021303C002102
:1043C000277A2C02277A2D02277A2E02277A2F02AB
:1043D00070470000012310B5064C2069C3703030CF
:1043E00029F088FF21693E20BDE8104091F88D2416
:1043F0000EF084BB303C0021034B186901233030A0
:1044000000F82D3C29F076BF303C0021044B1869A0
:10441000C378012B04BF0023C370FFF741BD00BF69
:10442000303C002110B5437A04460B2B86B010D1E6
:1044300001A9FFF75BFD0C490C4B611A09115943A7
:10444000002094F88D3401AA89B228F02DF906B025
:1044500010BD0C2BFBD1014690F88D24002006B036
:10446000BDE810400EF04ABBE0190021D32FFDD269
:104470000123303000F82E3C29F03CBFFFF710BD7F
:10448000012310B504468370303029F033FF04F562
:104490004C702AF044FC0548201A054C001160437A
:1044A000BDE8104080B228F03BB900BFE019002100
:1044B000D32FFDD2F8B50579C388012D1AD0022D6E
:1044C00021D0B5B94FF4B662534313490688CC18CE
:1044D000B4F898214088921B82420ADCD4E96467D0
:1044E00003F53E73C4E9BE67C81827F0DDFF84F802
:1044F0008851F8BD4FF4B662074802FB030300225F
:1045000083F8F021F5E74FF4B662034802FB03039A
:10451000002283F85822ECE7E019002108B527F0C3
:104520006BFF0022054B5A70054B93F821301BB1ED
:10453000BDE8084027F070BF08BD00BFB0520021A1
:10454000C053002108B5012029F0C8FA27F04CFF1C
:104550000122074B5A70074B93F821300BB127F01B
:1045600053FF0EF0FBFBBDE80840002027F0C2BE61
:10457000B0520021C053002108B5012029F0AEFA45
:1045800027F032FF0122064B5A70064B93F8213078
:104590000BB127F039FFBDE808400EF0DFBB00BFCC
:1045A000B0520021C0530021054B5B7833B1012389
:1045B000044880F829302C3029F09CBE704700BF99
:1045C000B0520021983C0021002027F093BE0C201F
:1045D00027F090BE2DE9F0415F4B8AB05B78002B4D
:1045E00000F0B7805D4C94F82850002D00F08980D1
:1045F000D4F8EC80B8F1000F67D0012204F5847381
:1046000004F1D0014046FEF74FFC064660202AF038
:1046100081F90546002800F0998000F10807384626
:1046200008F102011AF00FF938461AF063F9002870
:1046300054D0002E52D00023AB70D4F85831AB6365
:1046400094F81B3185F83C3094F81A219A4207D12E
:10465000D4E94461D4E94202914208BF864203D0C2
:1046600043F0020385F83C300020D4E944230021C4
:10467000C5E91223C5E9140194F81B0194F81A1135
:10468000884207D1D4E94470D4E94261884208BF26
:10469000B74203D0D4E94201C5E9140195F83C00C2
:1046A00015F08EFFB0B92E4B2946D3E91C23C5E97E
:1046B000162394F82A3085F8410085F83D3001230F
:1046C000EB87284B187B2AF036F90AB0BDE8F04199
:1046D000FFF724BF002124482AF06EFB28462AF069
:1046E00021F904202AF016F9014630B14FF4417344
:1046F00043801C4B187B2AF01EF9012029F004FA94
:10470000E3E7174C0EF06AFC267C012EF5D1294612
:10471000242201A830F08DFB43F60543ADF80630A6
:104720003C238DF80830A37C0DF10E008DF80D3080
:10473000D4E906238DF80C6029F096FF29460B4832
:104740002AF03AFB01A827F0CDFDD6E7002EC8D00D
:10475000BBE70AB0BDE8F081B0520021983C0021CF
:10476000C0530021F8520021343DE200343D3D00A9
:1047700008B5012029F0C8F9FFF7D0FE0EF02EFC95
:10478000BDE80840002027F0B5BD08B5012029F09C
:10479000BBF9FFF7C3FEBDE808400EF01FBC0000E8
:1047A000054B30B51C68054D08340FCC0FC594E897
:1047B0000F0085E80F0030BD700E0021C8530021A6
:1047C00010B50446012029F09FF9074B1868201AFC
:1047D000064C801160430430C0B228F0A7FEBDE84B
:1047E000104027F009BE00BFCC3E002183BEA02FA1
:1047F00010B50446D0F8C80928B104382AF092F858
:104800000023C4F8C839D4F88C0828B104382AF039
:1048100089F80023C4F88C3894F83B300BB127F0AA
:10482000FBFD024A9378013B937010BDB05200210A
:1048300038B504461F4D012029F050F92A6820465A
:10484000137A84F84C33002384F84D3384F84E33C4
:1048500084F8C43784F8C6375168C4F850330FF071
:1048600045FF014640B1607827F06EFF2046BDE865
:10487000384004210FF0E8BD0F4A9378013393705C
:1048800094F83B300BB127F0BFFD2B68596851B14C
:104890004FF47A72636A0A39B3FBF2F304F54F708E
:1048A000C91A2AF036FA60780021BDE8384027F0AE
:1048B0004BBF00BFD03E0021B052002138B50446A6
:1048C0001C4D012029F00AF92A682046137A84F841
:1048D0004C33002384F84D3384F84E3384F8C437C6
:1048E00084F8C6375168C4F850330FF0FFFE014614
:1048F00040B1607827F028FF2046BDE83840042109
:104900000FF0A2BD2B685B6893B14FF47A71626AB5
:104910004B4302F59C520832B3FBF2F3013B534385
:1049200004F54F70B3FBF1F1BDE838402AF0F1B95E
:1049300038BD00BFD03E002170B5134D00F54F7655
:10494000044630462AF0EBF92B685B687BB14FF4E4
:104950007A71626A4B4302F59C520832B3FBF2F360
:10496000013B53433046B3FBF1F12AF0D2F9002169
:104970002B6860781B7A84F84D1384F84C33BDE8BB
:10498000704027F0E1BE00BFD03E002110B50446C4
:1049900000F54F702AF0C3F9002384F84E33012349
:1049A00084F8C63710BD0021407827F0CDBE0C2119
:1049B000407827F0C9BE0000F0B590F8C43704462F
:1049C0009DB0002B34D100F54F702AF0A8F9204695
:1049D000FFF70EFF012029F097F894F84C2394F884
:1049E0004D3322B1934224BF432284F84E23002248
:1049F00094F84E13607827F0A9FC238C03F01D0374
:104A00001D2B13D1002000213C230022CDE90401FD
:104A1000CDE90632CDE90201D4E90C0194F83A302F
:104A2000CDE900010121607801F0F4FC1DB0F0BD7A
:104A3000D0F88C68784F002E77D000F6A80300F5E8
:104A4000076101223046FEF72FFA002800F0D080DF
:104A5000602029F05FFF0546002800F0C9806378D8
:104A6000314603800023837010A819F0C3FE31186B
:104A700005F1080019F0E7FED4F88C38002B00F09F
:104A8000828094F8BBC804F50B6185F83CC094F8AB
:104A9000BA38634508D151E90203D4F8B0684A68CE
:104AA0009A4208BF864203D04CF0020C85F83CC005
:104AB000D1E90023C5E9122300220023C5E914230C
:104AC00094F8BB2894F8BA389A4208D151E9020305
:104AD000D4F8B0684A689A4208BF864203D051E9C8
:104AE0000223C5E91423012385F83E30D4F8C037EA
:104AF000387BAB63494B2946D3E91C23C5E9162310
:104B000094F8C53785F83D30012385F83F3094F897
:104B10004D3385F8403094F8BC3785F8413029F0A2
:104B20000AFF2046FFF764FE80E7D0F8C869002E30
:104B30008ED0314608A819F05DFE311810A819F082
:104B400082FE00230F939DF8203004F507618DF855
:104B5000383003238DF83930DDE91023CDE90A23FD
:104B60009DF822300AA88DF83A30DDE91223CDE90C
:104B70000C239DF8233001228DF83B3004F520638F
:104B8000FEF780FA61E794F813CA04F5206185F80E
:104B90003CC094F8123A634508D1D1E90262D4F8D6
:104BA000000A4B689A4208BF864203D04CF0020CC0
:104BB00085F83CC0D1E90223C5E912230022002375
:104BC000C5E9142394F8132A94F8123A9A4208D1AA
:104BD000D1E90262D4F8000A4B689A4208BF8642C3
:104BE00003D0D1E90023C5E9142394F835397BE7D4
:104BF0006378311F26F8043C082306F8023C03239F
:104C000006F8013C387B29F096FE01201DB0BDE876
:104C1000F04028F079BF00BFF8520021C0530021B6
:104C200010B50446FFF7E4FD012028F06DFF607821
:104C30000021BDE8104027F087BD10B50446FFF7FE
:104C4000D7FD012028F060FF2046BDE810400EF09F
:104C5000A3BB3C2380F84E33012380F8C63770474E
:104C600000221346F0B5D0E90076C3F12005A3F188
:104C7000200427FA03F106FA05F5294326FA04F47D
:104C80002143C90744BF81180B7203F1010348BFD8
:104C90000132252BE9D180F82D20F0BD70B50446F6
:104CA0000025012028F01AFF84F8C6520CF0AAF95A
:104CB00094F82F33A4F8905165F30603254684F841
:104CC0002F33364BC4F88C01D3E90E23E5E9B82322
:104CD000284627F0E9FB012384F80E33D4F88C3101
:104CE00083EA1343A4F8103394F8453AFBB194F8DF
:104CF0002F13B4F8903101F07F01594028460EF08F
:104D000063FC94F8453A84F8C502204693B1244BDD
:104D10001B687BB19847054678B1204603210FF008
:104D20003FFE29466078BDE8704027F051BDB4F8D9
:104D30009011E3E70FF084FEEDE7012384F8893159
:104D4000A378012B13D194F82D2A0AB984F8923153
:104D5000D4F89064B4F88C5427F091FA324629467E
:104D600029F08EFC0123A4F89C0484F82E3A94F8D0
:104D7000CC325BB1D4F89064B4F88C5427F07FFA4D
:104D80003246294629F07CFCA4F8CE026078002146
:104D900027F01EFDBDE8704027F026BBB052002171
:104DA000580700210021407827F012BD0C214078DF
:104DB00027F00EBDF8B583780446012B11D190F889
:104DC0008951012D0DD1D0F89074B0F88C6427F082
:104DD00056FA3A46314629F053FC84F82E5AA4F884
:104DE0009C04012384F8C632002304F5CA7084F8B9
:104DF000893184F89231BDE8F84029F07BBA10B5CA
:104E000090F888310446012B04D1FFF7D3FF2046E8
:104E1000FFF7D6FC2046BDE81040FFF7B7BD10B540
:104E200090F888310446012B04D1FFF7C3FF2046D8
:104E3000FFF7C6FC2046BDE810400EF0ADBA10B535
:104E40000446FFF7BDFC60780021BDE8104027F064
:104E5000BFBC000090F85030012B12D0094B1B68EA
:104E6000D3E90223C0E9C623C0E91623B0F8903184
:104E70000633A0F86030082380F85230012380F810
:104E800050307047C83E0021D0F8383A0BB1407816
:104E900018477047D0F83C3A0BB140781847704734
:104EA00090F82031012B0ED0D0F82033C0F82431F7
:104EB000B0F82433A0F82831B0F82C33A0F82A3108
:104EC000092380F8223170470023C0F82031C0F850
:104ED0002431C0F828317047682200212FF0A9BF83
:104EE0005030FFF7F9BF00002A2307B5ADF80010D6
:104EF0008DF803008DF804008DF8051040EA01419B
:104F000005488DF8023029F057FF684627F0EAF986
:104F100003B05DF804FB00BFE1CF58002C2307B5B8
:104F2000ADF800008DF804008DF8051040EA01414D
:104F30000548ADF8023029F03FFF684627F0D2F966
:104F400003B05DF804FB00BFE1CF730008B501209A
:104F500028F0C4FDBDE8084027F046BA2DE9F04F1F
:104F6000DFF840810446D8F800608FB006F10805EC
:104F7000294610F02BFF29460025204610F08EFF11
:104F8000AA46B37DAB423ED9002794F8562004F1DF
:104F9000570305F1010906E0D4F894302BBBC4F89F
:104FA00094B022E00137BA421FD913F8011B4945DA
:104FB000F8D120460FF0BEFF96F84030F18E0293F4
:104FC000D6E90E23CDE900230A46F16A834610F0A4
:104FD00057F8D4F89030002BDED1E368C4F890B0D5
:104FE0006B4384F89C50C4F8983094F85630BB4218
:104FF00007D194F834305A1C0E3384F8342044F826
:1050000023A04D46BDE7D8F800102046083110F027
:1050100015FE216F04F1600029F07BFE2B23A5789B
:105020002022002106A8ADF81630ADF814502FF05C
:1050300000FFE36A1C4A0793A38A04F138015BBAB4
:10504000ADF82030E38A8DF81950ADF82230A388EE
:105050005034ADF8243054F8403CA3FB0232DB0F4F
:1050600043EA42030022ADF82630134651F8040B00
:1050700040B140880EAE5A1C06EB430323F80E0CD9
:10508000D3B201228C42F1D10AB18DF828302946E1
:10509000064829F091FE05A827F024F90FB0BDE8D5
:1050A000F08F00BFEC3E0021E3361A00E1CF3D0057
:1050B00090F8BA3080F854307047000010B543784B
:1050C0000446012B8AB01DD181780020FFF70CFF28
:1050D0002022002102A82FF0ACFE2B238DF80630F1
:1050E0004423A1780848ADF804108DF8091041F464
:1050F00088018DF807308DF8083029F05DFE01A891
:1051000027F0F0F80AB010BDE1CF3D00082380F889
:10511000543070473D2380F85430704710B5044632
:10512000012028F0F1FC236D13B1002283F8F22155
:105130006378032B06D194F85430A0784BB119460C
:10514000FFF7ECFE204610F095FABDE8104027F07E
:1051500053B901461846FFF7C7FEF3E7F8B5054611
:1051600011F0BCFC044648B12846042111F084FC2F
:1051700021462846BDE8F84011F00ABC012028F07D
:10518000ADFC2C6DCCB1012384F88931A378012BBF
:1051900013D194F82D2A0AB984F89231D4F8907476
:1051A000B4F88C6427F06BF83A46314629F068FA77
:1051B0000123A4F89C0484F82E3A2846022111F019
:1051C00071FCBDE8F84027F00FB90000F0B50446C7
:1051D00085B0072010F08AF9064660B3174B03A983
:1051E0001868258C039030461AF0DAFE144F063505
:1051F000ADB2D7E90E23009530441AF0E4FE062242
:105200003146204610F079F994F8A030A17843F0A7
:10521000010384F8A0300B48D7E90E23A4F8A85066
:10522000C4E92C2341EA054129F0C6FD236D13B1E1
:10523000002283F8B82005B0F0BD00BF445F030131
:10524000B0520021CA956E0073B50446032010F0D9
:105250004DF9064610B3154B01A95868258C0190ED
:1052600030461AF09DFE0635ADB22A4694F8BA10C3
:1052700030441AF0BAFE31462046062210F03DF9BD
:1052800094F8A030A17843F00203094884F8A030D4
:10529000A4F8B85041EA054129F08EFD03212046CB
:1052A00002B0BDE8704011F0FDBB00BF445F0301D8
:1052B000CA959A0010B50446C43029F01BF8204660
:1052C000BDE81040032111F0EDBB000010B504460D
:1052D0000D4B1B68C31A0D48DB1043430C33D8B287
:1052E00028F024F9012028F00FFC204610F0C2F924
:1052F00027F082F86378022B04D12046BDE81040E5
:1053000011F0A0BB10BD00BFE43E0021E9473FFA09
:105310007FB50622ADF8062000220389C17F0F4D1C
:105320000F488DF80C1043EA0141ADF80430ADF898
:105330000A308DF8082029F03FFD01A826F0D2FFA1
:105340002B784BB1074EF08811F01CFD044618B9BC
:10535000304626F0C7FF2C7004B070BD66070021F0
:10536000597B93005C0700212DE9F0438BB0044684
:1053700015460E462422002101A82FF05AFD2623AF
:105380008DF8023040F2E243B4F8682294F86B7270
:1053900094F86AC202FB07FE02FB0CF003FB0EFE50
:1053A00094F85A9203FB00F8D4F86432B9F1010F73
:1053B0000CBF5B19EB1A734405932369D4F86002A0
:1053C0000393B4F856322189ADF8183094F86C3252
:1053D00008BF40198DF81A3094F8743218BF281A93
:1053E0008DF81B3094F8753208BF40448DF81C309E
:1053F000A37A18BF4044ADF800108DF803600CBFCD
:1054000004900490ADF806108DF8046002958DF8B4
:105410001DC08DF81E70ADF82420B3B9B4F830214A
:10542000012B0CBFB4F83031B4F82C3141EA0641FD
:105430000748ADF82020ADF8223029F0BDFC6846C1
:1054400026F050FF0BB0BDE8F083B4F82C21E7E75D
:10545000597BD30038B5054604200C4629F05AFA8A
:10546000014650B12B89C47003800F238370034B16
:10547000187BBDE8384029F05EBA38BDF8520021EB
:1054800038B5054604200C4629F044FA014650B1CF
:10549000EB88C470038001238370034B187BBDE845
:1054A000384029F048BA38BDF8520021014B9B7CA6
:1054B000C3777047403F0021024B1B681B79C377BD
:1054C000704700BFF43E00213E23C3777047082396
:1054D000C37770472223C37770470D23C377704784
:1054E000014B5B7CC3777047403F00213D23C3776E
:1054F0007047000070B50446C07A11F0B5FC4FF457
:105500007A711F4BE2881B6801FB0233C17C0131B9
:10551000C9B2C174A27A52BB94F85602032893F818
:105520004E2027D1013A18BF0122821A1A4492F95B
:10553000C0217E2A20D193F87553EDB1114D1E186C
:105540002D68032895F9245086F8BF5108BF83F8C9
:10555000C351D3F8A4325B0702D5012384F84D323E
:10556000094841EA0241BDE8704029F025BC94F8A1
:105570005702D3E70122D8E784F83A21F0E700BFC9
:10558000D03F00215C520021597B9001002210B5D0
:1055900090F847300446C17F80F8472033B1222974
:1055A00004D1BDE810401121FFF7DEBE00222046E5
:1055B000FFF7DAFEE37F442B04D116232046E3777E
:1055C000FFF7A6FE2046BDE8104011F09BBF00008B
:1055D00038B50446C08814F08FFB0546C8B90820CA
:1055E00029F098F9014670B1E388038041F2017314
:1055F00043802389C380E37F0371094B187B29F023
:105600009AF9A57638BD21890648BDE8384029F0C9
:10561000D3BB2189044829F0CFFB0123A376F1E70E
:10562000F8520021597BCE01597BD301F8B50446CD
:105630000121C688008917F081F90221208917F01D
:105640007DF92189254829F0B7FBE07A11F00CFC9F
:10565000054604F50F7029F062FB01236376E37FB2
:105660003E2B0CD100276776EB7C2046013BEB7488
:1056700011F048FF3A462046E17FFFF775FE184BD0
:105680001B6893F82E20174B1C680023934219D2F5
:10569000E188B1421DD1657EDDB9A17EC9B1082086
:1056A00029F038F9014670B1E388038041F20173B3
:1056B00043802389C380E37F03710B4B187B29F060
:1056C0003AF9A576F8BD21890848BDE8F84029F0E7
:1056D00073BB013304F54074D8E700BF597BE70181
:1056E0005C520021F83E0021F8520021597B450010
:1056F00010B5044603898178084843EA014129F03E
:105700005BFBE07A11F0B0FBA378012B05D1637647
:105710002430BDE8104028F0EDBD10BD597B0902D2
:1057200070B5054604200C46CE7F15F081F9014680
:1057300048B122230370E37A4370237BC6708370E1
:10574000284615F04BF921462846BDE8704011F077
:10575000D0BF0000034B9B7CCB77012380F8E13264
:10576000704700BF403F002108460521FFF772BE89
:10577000FFF7D6BF012380F8E13270472DE9F843E7
:1057800006460C46C87A11F06FFBB6F87C31B6F8C5
:10579000B013DA1DB6F87E31074602FB0133A4F8D8
:1057A00048300023A4F84A3011F052FCB4F84810F5
:1057B000B6F87E51B6F88031F26950BB40F2E24053
:1057C000491B4B432649274D096800FB0322791AE0
:1057D000091169433D8A0A316843C9B227F0B4FE12
:1057E000D4E904239B1A0344E36440F2E243B6F88D
:1057F000801194F86C2259431B4BD4F870021B683B
:105800001B8E00FB12330B44E26C9A421FD2BDE8A0
:10581000F88340F2E2484D1B5D4308FB0525B4F8D0
:105820004A30B7F8109001339BB203FB09F9A4F892
:105830004A303B6A294608FB0939484628F0FCF9FA
:105840000028ECD02946484628F0F6F9C8E7521A55
:10585000E264B4F848200132A4F84820D4E700BF3D
:10586000F03E0021398EE3385C5200217FB50546B9
:10587000C87A0C4611F0F8FAC37C0646002B37D1E3
:10588000817CD1B14179002932D140F2E242038AD0
:1058900053437D4A10687D4A301A001150437C4AB8
:1058A0000A30CDE90112F268C0B200921A4627F020
:1058B000E9FD0146D0B9774800E0774829F07CFA45
:1058C0002046FFF70AFE042029F024F801460028AC
:1058D00000F0D780E388038044F6013343806F4BA8
:1058E000187B04B0BDE8704029F025B8012373711E
:1058F00021462846FFF742FF2146304611F074FC4E
:10590000674BC5F89033674BC5F89433664B1B68FB
:105910001B88E380D5F8B831C4F8E830B5F8F23127
:10592000A4F838320BF06EFBD5E96223C4F8E4002A
:10593000204611F091FB242015F07AF8014600284A
:1059400000F095801F230370E37A4370237B8370FC
:1059500094F85632022B03D0032B14BF01230423E7
:10596000CB7094F85732022B03D0032B14BF0123C2
:1059700004230B71B4F85C3228464B7194F85A3208
:10598000B4F85C22DB03C2F30B029BB213431B127D
:105990008B71B4F85E32CB71B4F85E32C3F303237B
:1059A0000B72D4F860324B72D4F860321B0A8B72DF
:1059B000B4F8623203F00F03CB72D4F864320B7385
:1059C000D4F864321B0A4B73B4F8663203F00F0349
:1059D0008B73B4F83031CB73B4F830311B0A0B74CD
:1059E000B4F82C314B74B4F82C311B0A8B7494F836
:1059F0006C32CB74D4F870320B75D4F870321B0A49
:105A00004B75B4F872328B7594F8743294F8752231
:105A100003F00F0343EA0213CB7594F86A320B7656
:105A200094F86B324B76B4F868328B76B4F86832FF
:105A30001B0ACB76E36C0B77E36C1B0A4B77B4F84D
:105A40004E308B77E36CCB77E36C1B0A81F8203008
:105A5000B4F84E3081F82130B4F8483081F8223063
:105A6000B4F848301B0A81F8233014F0B7FF012343
:105A70002146284684F8473004B0BDE8704011F054
:105A800038BE04B070BD00BFF03E0021398EE3384F
:105A90005D8F01018E8307018E83F700F85200218C
:105AA0003576010191760101CC3F0021002310B52C
:105AB0000C46084681F84730FFF712FD204613F0E8
:105AC0005DFA2046BDE810400221FFF7C3BC00008C
:105AD00070B50546C87A0C4611F0C6F9384B064633
