:020000040000FA
:10000000B0DD00209DDA010089D4030089DA010007
:1000100089DA010089DA010089DA010089DA010050
:1000200000000000000000000000000031DC0100C2
:1000300089DA01000000000099DB010089DA010083
:1000400039DE010039DE010039DE010039DE010050
:1000500039DE010039DE010039DE010039DE010040
:1000600039DE010039DE010039DE010039DE010030
:1000700039DE010039DE010039DE010039DE010020
:1002500039DE010005F3030039DE010039DE01005B
:1002600039DE010039DE0100EFF2030039DE010062
:1002700039DE010039DE010039DE010039DE01001E
:1002800039DE010039DE010039DE010039DE01000E
:1002900039DE010039DE010039DE010039DE0100FE
:1002A00039DE010039DE010039DE010039DE0100EE
:1002B00039DE010039DE010039DE010039DE0100DE
:1002C00039DE010039DE010039DE010039DE0100CE
:1002D00039DE010039DE010039DE010039DE0100BE
:1002E00039DE010039DE010039DE010039DE0100AE
:1002F00039DE010039DE010039DE010039DE01009E
:1003000039DE010039DE010039DE010039DE01008D
:1003100039DE010039DE010039DE010039DE01007D
:1003200039DE010039DE010039DE010039DE01006D
:1003300039DE010039DE010039DE010039DE01005D
:1003400039DE010039DE010039DE010039DE01004D
:1003500039DE010039DE010039DE010039DE01003D
:1003600039DE010039DE010039DE010039DE01002D
:1003700039DE010039DE010039DE010039DE01001D
:1003800039DE010039DE010039DE010039DE01000D
:1003900039DE010039DE010039DE010039DE0100FD
:1003A00039DE010039DE010039DE010039DE0100ED
:1003B00039DE010039DE010039DE010039DE0100DD
:1003C00039DE010039DE010039DE010039DE0100CD
:1003D00039DE0100D9F2030039DE010039DE010007
:1003E00039DE010039DE010039DE010039DE0100AD
:1003F00039DE010039DE010039DE010039DE01009D
:1004000039DE010039DE010039DE010039DE01008C
:1004100039DE010039DE010039DE010039DE01007C
:1004200039DE010039DE010039DE010039DE01006C
:1004300039DE010039DE010039DE010039DE01005C
:1004400039DE010039DE010039DE010039DE01004C
:1004500039DE010039DE010039DE010039DE01003C
:1004600039DE010039DE010039DE010039DE01002C
:0C04700039DE010039DE010039DE010038
:10048000084B1B78002B4FF00003836018BF02223B
:10049000036008BF0122044B4360FF23C271037253
:1004A000704700BFE80F002028010800064A074BEC
:1004B0009B7802604FF41872C37100238280082277
:1004C00003728271704700BF3D8B0100E80F00206E
:1004D000054A064BDB7E02607822C37102238280CC
:1004E000082203728271704783450100E80F0020E3
:1004F000064A074B1B7F02604FF40872C37100234A
:100500008280082203728271704700BFA7410100F8
:10051000E80F00202DE9F743C41D0028064624F00B
:1005200007040CBF0020204601F02AF8071E04DA59
:100530006FF00B0003B0BDE8F0830EB9FC42F7D4B6
:10054000374D6989288903316B7B03302A7B89B257
:1005500080B212F02AFC011EEADB3C44AB78EA7858
:10056000002E04F10304134408BF002024F0030408
:1005700003FB01F118BF204601F096F920440EB9A3
:100580000028D5DB2B790446B3B1697D19446B791A
:100590001944FF29CCDC0330002E2A8AC9B220F08E
:1005A00003070CBF0020384601F0EEF9041EBFDB44
:1005B0003C440EB9002CBBDB012000F0D7FFC8B1D2
:1005C000A97BB9B195F82C300734002B24F007072C
:1005D00015BF402325234FF481722822002E14BF1B
:1005E0003846002004F00EFF041EA1DB3C440EB987
:1005F000002C9DDBAB7CE3B12B799BB10734002E43
:10060000A97C24F007070CBF002038460BF02EFC15
:10061000041E8DDB3C4466B9002C0ADA88E700BF73
:10062000E80F0020012000F0A1FF10B1AB7B002BF0
:10063000E4D1744B1B6893B1A97981B10334002EC6
:10064000EA7C24F003070CBF002038469847041EBC
:10065000FFF66EAF3C4416B9002CFFF669AF6A4B4B
:100660001B688BB1297D79B10334002E24F0030778
:100670000CBF002038469847041EFFF659AF3C4493
:1006800016B9002CFFF654AF604BD3F80080B8F1D8
:10069000000F16D0697DA1B10334002E2B7E24F00B
:1006A000030708BF0020009318BF3846EB7DAA7DE2
:1006B000C047041EFFF63CAF3C4416B9002CFFF6C1
:1006C00037AF072000F052FF98B1A97989B1033400
:1006D000002EAA7E24F003070CBF0020384601F04C
:1006E00029FA041EFFF624AF3C4416B9002CFFF68D
:1006F0001FAFB6FA86F895F825004FEA5818A0B152
:10070000E71CEB7F297F27F007071944434647F092
:100710000407C9B23A4601F04FFA041EFFF608AFCB
:100720003C4416B9002CFFF603AF95F826100029BB
:1007300059D00734002E2A8D24F007070CBF002063
:10074000384612F047FB041EFFF6F2AE3C4416B9E1
:10075000002CFFF6EDAE1EB1298D38460EF0BCFE22
:1007600095F82010002940D095F82430002B3CD07B
:100770006A8C0734002E02F1240224F007090CBF12
:100780000020484692B212F025FB071EFFF6D0AEBD
:100790004F4416B9002FFFF6CBAE0337AB7F297F4E
:1007A00027F0070795F824001944434647F004074B
:1007B000C9B23A4601F0F2F9041EFFF6B9AE3C4464
:1007C00016B9002CFFF6B4AE3EB16A8C484695F8D7
:1007D0002010083292B20FF005F92B6B5BB176B1A5
:1007E0002C630020A6E60F46B5E7002EF5D00022C8
:1007F00011461046EFE7002EF3D120469AE6283442
:10080000FBD595E6AC000020B0000020B40000202D
:100810001FB572B6194B5D6BE5B9BFF34F8F184921
:10082000184BCA6802F4E0621343CB60BFF34F8FEA
:1008300000BFFDE7B4FBF6F4D3B20132002CF9D1CE
:1008400003F110026A4402F80C4C0A2233B901A8E1
:10085000A847E2E7044600220A26EDE7013BDBB2A7
:1008600003F110040DEB0406B0FBF2F402FB1400DC
:10087000303006F80C0C2046E8E700BFE80F0020F7
:1008800000ED00E00400FA0513B5114C6846637BE7
:100890008DF80130237B8DF800306389ADF804308A
:1008A0002389ADF8023008F059FE18B1E8219C20E8
:1008B000FFF7AEFF207E08F0B5FE08B1EB21F6E7AA
:1008C000E07D08F0A9FE08B1EC21F0E702B010BD10
:1008D000E80F002037B50546002859D011F030FB4D
:1008E00020B94FF0FF34204603B030BD0FF0E6FFD3
:1008F000B0F5FA7FF5D8284C28486563002500F04C
:10090000AFFD2A222946A01C84F83850257084F8AF
:100910002C50256384F8395019F069FD40F2011319
:1009200001212A4663801B232171084623816381AC
:1009300040F20323A176A3810323A3731F23238201
:100940004FF40273638244F60113E382F723638456
:10095000FB23238594F83B30009394F83A3007F05A
:10096000D1FC014620B14FF460719C20FFF750FF8D
:1009700007F0EEFC044610B140F28531F5E7EFF3E5
:10098000108572B601F064F9002DACD162B6AAE709
:100990006FF01504A7E700BFE80F002089080000EA
:1009A00037B51446002840F0D7806D4D95F83830A3
:1009B000032B00F0CE80C1B11AB96FF0150003B05F
:1009C00030BD0139162900F2C780DFE801F00C1DA7
:1009D00020355F68863B6B6E804147555A8C8F9DF2
:1009E000A0A395A6AA001378AB700020FFF792FD94
:1009F0000028B7BF012302236FF00B0085F83830C1
:100A0000A8BF85F83830DAE71378EB70EDE7137993
:100A1000002BD2D05379002BCFD01288FB2ACCD810
:100A20001A2A6388C9D91B3BE02BC6D82368A28841
:100A3000AB604C4B9A80D8E713786A799342BCD369
:100A40002B71D2E713782A799342B6D86B71CCE731
:100A500013782A799342B0D86B75C6E71378002BC8
:100A6000ABD05378013BDBB2F82BA6D81388927831
:100A7000EB823D4B9A70B8E7107868760DF0B4F8C9
:100A8000B3E71378002B98D0AB76AEE7012000F0E7
:100A90006DFD237808B1012B8FD9AB73A5E71388BF
:100AA0002B82A2E71378AB719FE7072000F05EFD71
:100AB00010B92378012B80D9072000F057FD18B119
:100AC0002378002B3FF479AF2378EB748DE713780C
:100AD000082B3FF672AF2B7587E71388FF2B3FF685
:100AE0006CAFAB7481E71378EB767EE713780E2B4F
:100AF0003FF663AF2B7778E723681C4A2B62636865
:100B000053602389138170E713786B776DE713784F
:100B1000EB776AE71378AB7767E7137885F82A30C5
:100B200063E795F83B3095F839200093617895F8A4
:100B30003A30207807F0E6FB00287FF440AF637876
:100B4000012B7FF652AF0EF0ADFC00287FF44DAFC5
:100B500033E74FF0FF3032E76FF02C002FE700BF94
:100B6000E80F0020F00F0020FE0F002008100020EA
:100B7000F8B50D46064630B329B311F0070422D16B
:100B8000124F97F83830012B02D16FF00B00F8BDEF
:100B9000032B02D14FF0FF30F9E700F0BFF8002837
:100BA000F8D02846FFF7B6FC0028EEDB18F071F904
:100BB0003046396B09F058FBFFF766FE03232046E9
:100BC00087F83830E3E76FF01500E0E7E80F002022
:100BD00010B5074C94F83830032B03D109F060FBB3
:100BE0000AF03AFA12F0C1F9002084F8380010BD7A
:100BF000E80F002050B1074B03F1140253F8041B17
:100C0000934240F8041BF9D1002070476FF01500A3
:100C1000704700BFDC1F040008B50C4B93F8382068
:100C20008AB993F82C305BB109F0E4FA0849012045
:100C300000F094FC0020074900F090FC002008BD63
:100C400009F0BCFAF2E74FF0FF30F8E7E80F0020B8
:100C500081040000AD040000054B10B593F8384046
:100C60001CB909F06FFA204610BD4FF0FF30FBE7CA
:100C7000E80F0020054B10B593F838401CB915F06B
:100C8000E1FE204610BD4FF0FF30FBE7E80F0020EB
:100C9000054B10B593F838401CB915F0D6FE204628
:100CA00010BD4FF0FF30FBE7E80F0020054B10B5FB
:100CB00093F838401CB915F0E2F9204610BD4FF00A
:100CC000FF30FBE7E80F00200A4B10B593F83840DF
:100CD0006CB909F0ABFA15F0ACFE0749082000F03A
:100CE0003DFC0920054900F039FC204610BD4FF0BD
:100CF000FF30FBE7E80F0020D1040000F104000002
:100D000002680020014B1A60704700BF24100020C9
:100D1000014B1B68184700BF24100020024B1868C5
:100D2000003818BF0120704724100020F7B5044692
:100D30002D4E071D2C4837600AF0A6F902280546FB
:100D400006D12949204611F015FC284603B0F0BD14
:100D5000042842D13378092B0AD0262B1ED03146E5
:100D6000204600F043F8B0F5817F2DD3722112E0C8
:100D700005213E2011F0D1FB0028F0D1F37801A924
:100D80003279684643EA0223ADF8003011F0B9FD2C
:100D90000028CFD053210820FFF73AFD1A213E202A
:100DA00011F0BBFB0028DAD17368694601A8C3F3D0
:100DB0000F23ADF8043011238DF8063011F0C1FD7A
:100DC0000028B7D06521E6E70028B3D0A1782078C5
:100DD00011F0A3FB0028B8D1ACE70828B5D102492F
:100DE000204611F0FFFBB0E7281000202DE9F84362
:100DF0000B7805460C46013B832B00F2C782DFE8E7
:100E000013F09A009E00A2005301C5021B012101AC
:100E100027012D0133013701390149014F018400B8
:100E2000C502A700C502AB003D0143015D0163019E
:100E30005701C5026901C5027C01AC01B201B801CC
:100E4000C502BE01CA01D001C50200020E02620243
:100E5000400254025C0246024E0214021A022002B0
:100E600026022C02320236023A029D02A302B1028D
:100E7000B70268026E028C027402C502C502C50286
:100E8000C502C502C502C502C502C502C502C5022A
:100E9000C502C502C502C502C502C502C502C5021A
:100EA000C502C502C502C502C502C502C502C5020A
:100EB000C502C502C502C502C502C502C502C502FA
:100EC000C502C502C502C502C502C502C502C502EA
:100ED000C502C502C502C502C502C502C502C502DA
:100EE000C502C502C502C502C502C502C502C502CA
:100EF000C502C502C502C502C502C502C502C502BA
:100F0000C502C5027A02800286020E23B1F80320D0
:100F10000B7042F283039A4209D10623637066780C
:100F2000214628460236324611F0DEF95AE03521D4
:100F3000C720FFF76DFC0C230B700823EEE71A2384
:100F40000B700123EAE73E230B700223A370E6E750
:100F50003E230B700B23F9E7292000F071FA28B12A
:100F60003E232370222363702923EFE70A2000F039
:100F700067FA3E2305F1080204F108012B70A0B3C3
:100F80000A23AB70E378EB70A3882B71A3881B0A4C
:100F90006B71A379AB71E379EB71A368AB608B885C
:100FA00093801F22D4F80E30C5F80E30638A6B820E
:100FB00063696B61238B2B83638BAB76638B1B0A1B
:100FC000EB76A38B2B77A38B1B0A6B77E38BAB772B
:100FD000E38B1B0AEB7794F8203085F820306A7099
:100FE000023296B23046BDE8F8830123AB70E37855
:100FF000EB70A3882B71A3881B0A6B71A379AB716B
:10100000E37903F00103EB71A368AB608B889380F5
:101010001322638BAB73638B1B0AEB73A38B2B7451
:10102000A38B1B0A6B74E38BAB74E38B1B0AEB740F
:1010300094F820302B75D2E73E230B7004234B70BD
:10104000142383E73E230B700C234B7004237DE7AE
:101050003E230B700A234B70032377E73E230B706C
:101060000D234B70052371E705232370042355E7F7
:101070000823FAE730230B7003234FE73E230B705E
:101080000B234B70072361E73E230B7006234B7045
:101090000C235BE713230B708B789B0001333DE738
:1010A00057230B70022339E73E230B700D234DE7C6
:1010B0003E230B7001234B70112347E73E230B7037
:1010C00006234B70122341E73E230B7009234B701C
:1010D00013233BE73E230370242000F0B1F90028DE
:1010E00015BF24230E2313260F263246A11CE81C0D
:1010F000AB7011F0F9F8721C71E73E2303702520E4
:1011000000F09EF9C0B125230A26AB70D4F8023056
:10111000C5F80330D4F80630C5F807306389A5F860
:101120000B30F01CE27A04F10C01284411F0DCF8D9
:10113000E27A0132324452E70F230726AB7063880C
:10114000A5F8033023796B716379AB71A379EB71E7
:10115000A37A2B72E37A6B72E3E73E230B700323CF
:101160004B701023F2E63E230B7005234B702023B7
:10117000ECE63E230B7009234B702123E6E63E2369
:101180000370262000F05CF9002815BF26231823E1
:1011900017261326A9E73E230B7004234B70272341
:1011A000D4E63E234FF000088146037028234646CC
:1011B0008370D1F8023049F8033FAA795FFA88F3C7
:1011C0009A4205D8721D92B2002A3FF4A8AE06E7F3
:1011D000B21D331D08F10108A118A25809EB030044
:1011E00049F80320063131F8023C063020F8023C71
:1011F00010F8017C3A46063711F076F83E44B6B254
:10120000DBE73E232A200B7000F01AF918B12B23DC
:1012100063702A239AE61D236370192396E63E2302
:101220000B7007234B701A2390E63E230B7020238C
:101230004B702C238AE63E230B704C234B702D23DE
:1012400084E63E230B7004234B702E237EE63E2360
:101250000B7022234B702F2378E63E230B7016234E
:101260004B70302372E63E230B7031236EE63E2333
:101270000B7032236AE63E230B7002234B7033233C
:1012800064E63E230B7014234B7022235EE63E235C
:101290000B700B7C5B000F334B701D2356E63E2317
:1012A0000B7003234B701E2350E63E230B700B7D07
:1012B0005B0013334B701B2348E63E230B70032364
:1012C0004B701C2342E63E230B7005234B701F23FB
:1012D0003CE6FF230B700B234B70A22336E6FF2363
:1012E0000B7005234B70A32330E6FF230B700D23F7
:1012F0004B7080232AE6FF230B700D234B70822353
:1013000024E6FF230B7002234B7083231EE6FF238A
:101310000B7004234B70842318E6FF23C21C037058
:1013200081238370D1F8033003F1280153F8040BB3
:101330008B4242F8040BF9D1292250E63E230B7070
:101340000C234B70232301E6124B1B78002B14BF98
:10135000FF233E230B704FF00E034B7014BF852309
:101360003723F3E53E230B700A234B703523EDE55D
:10137000084B1B78002B14BFFF233E230B704FF04C
:10138000FE034B7014BF86232B23DFE540F262215E
:10139000CEE500BF2C110020074B4FF0FF3141F686
:1013A000FF72C3E9001205490022C1E900221F2192
:1013B000C3E90212704700BF400000203011002036
:1013C0003F280CD801380B4BC0F3421200F01F002D
:1013D00053F8223023FA00F000F001007047FF2894
:1013E00006D04038044BC0F3421200F01F00EFE774
:1013F000012070474000002030110020074B0146BB
:10140000006849681A4603C240F48C221A6041F011
:10141000107242F4FF625A60704700BF4000002023
:101420000246024B0068516803C370473011002028
:101430000246024B0068516803C370474800002011
:101440000138064BC0F3421200F01F0003EB820389
:101450009B6823FA00F000F0010070474000002074
:10146000014B1860704700BF3811002007B5FFF727
:1014700093FF14F002FB044B1B6813B101909847D3
:10148000019803B05DF804FB3811002070B50C889A
:10149000C27CA6B2C4F30E04931C058804F11802A2
:1014A0001D44825AADB21A4443882A44013AB2FB21
:1014B000F5F202FB054292B29342044B8BBF3340DC
:1014C000B34313439BB20B8070BD00BF0080FFFF8E
:1014D00008B54B1E062B04D84FF4D1711520FFF729
:1014E00097F90A4B994202D940F2A311F6E719B9CC
:1014F00000B10160084608BD28B103680022C3E9B5
:1015000001211A1D1A600431F4E700BFFAFFFF7FC2
:1015100010B5114B00EB41041A786389B3FBF2F369
:1015200003FB0223013A1A44B2F5706F027928BF17
:1015300000231A448378B2FBF3F0194403FB102014
:10154000091AB1FBF3F003FB101313446FEA434392
:101550006FEA5343638110BD3C110020024B03EB43
:1015600080004160704700BF3C110020034B03EB3B
:1015700080004068003818BF012070473C110020EF
:101580002DE9F04F10F0070A85B0054604D040F26F
:1015900061111720FFF73CF9544F04464FF0010B3F
:1015A00007F15406B146B04657F8043B8DF80BA03E
:1015B0003BB101A898479DF80A30082B01D9E821D2
:1015C000E7E79DF80B1081BB05B13160B94506F125
:1015D0000406E9D12DB30023DFF814E114221E46DE
:1015E0008EF8003058F82200013A60B190F804A05B
:1015F0008178BAF1FF0F64D14FF000078E42077176
:101600003CBFCEB20123511CECD10BB18EF800606F
:10161000142640F6FF6A58F82670002F63D1013E69
:10162000F9D2601B05B0BDE8F08F9DF80AC04A1DD5
:10163000BCF1020FE64604EB420438BF4FF0020E45
:1016400053000EF1FF300444CEF100002040BDF8FD
:1016500008406444CCF1000C013C04EA0C04B4F5ED
:10166000803F01D3F82194E775B1C31A33609970B4
:101670001C8083F803B09DF80C201A71019A4FEA80
:10168000124C1A81A3F806C004FB01049EE758F827
:101690002C90B9F1000F06D099F804B0D34504BFDF
:1016A00099F802904F440CF1FF3CBCF1000FEEDAC8
:1016B0003944FF29A2D90BB18EF8006040F22711FE
:1016C00067E794460027F0E707EB410309F10109BA
:1016D0003846A3F80AA0FFF71BFF5FFA89F1BB7831
:1016E0008B42F1D89BE74FF00009F6E7401100204C
:1016F0003C110020034B03EB8000806D00B180782B
:10170000704700BF3C110020F8B54FF6FF73054647
:101710000380184B03EB8101886DB8B1867803799B
:10172000B3FBF6F206FB1233DBB219460A1D00EBDF
:101730004202B2F902705488002F09DB0131B1FB7B
:10174000F6F206FB1211C9B28B42EFD10020F8BDB0
:10175000FF29FBD0C4F30E03C4782B8024B94FF4C7
:10176000D5711720FFF754F85380BDE8F84011F009
:10177000D7BA00BF3C1100201D4B03EB810170B5AF
:101780008C6D054644B3030404D54FF4DC71172077
:10179000FFF73EF80146204611F0A5FAFF28014662
:1017A00004D02046BDE8704011F0BABAA078B5FB6D
:1017B000F0F300FB1353DBB219460A1D04EB42069B
:1017C000B6F90260002E09DB0131B1FBF0F200FB3B
:1017D0001211C9B28B42F0D1002070BDFF29FBD09D
:1017E0008B4204EB42021CBF0023E3705580D8E714
:1017F0003C110020094B03EB810110B58C6D0146B3
:10180000204611F070FAFF28014604D02046BDE8BA
:10181000104011F085BA002010BD00BF3C1100201F
:10182000F8B5104B074603EB81018C6D014620464D
:1018300011F059FAFF28054611D0E688238953EAAA
:10184000064606D00146204611F06AFA014638469F
:10185000B04720462946FFF75BFE0020F8BD052073
:10186000FCE700BF3C11002038B50E4B04468279DE
:1018700003EB8203986D08B9052038BD8278E179C1
:101880009142F9D24B1CE37100EB41035D89B3F93E
:101890000A30002BF3DBA58011F042FA2060002013
:1018A000EBE700BF3C11002070B5044610F00300C8
:1018B0000E4603D04E211820FEF7AAFFFFF708FEC0
:1018C000054624B1034831460460FFF701FE28466F
:1018D00070BD00BFE81100202DE9F3471C4C904675
:1018E0001E46074622680D469DF828309DF82CA01C
:1018F0001AB960211820FEF78BFF1A4609214046CD
:10190000019311F072F852461FFA80F9092130460E
:1019100011F06BF880B209EB0001206811F0B8F902
:10192000019B386018B9286002B0BDE8F08700EB71
:101930000904414609222C60386811F01AF8534610
:1019400009223146286802B0BDE8F04711F011B80D
:10195000E811002070B50E46044611F059F805460E
:10196000304611F055F8044B2A1821461868BDE896
:10197000704011F0B1B900BFE8110020014B1868A8
:1019800011F07AB9E81100201F2AF8B504460ED8E4
:101990009200033222F00303B3F5803F2ED2194D9B
:1019A000B4B1A00711D05F210920FEF731FFFF2A53
:1019B0004FEA420304D9FF329A42A8BF1A46E8E729
:1019C0007C2BB8BF7C231A46E3E729706C602B811F
:1019D00022F0030228230127120403FB01F06B68A5
:1019E0000025120CEEB28E4200D3F8BD14B12618B9
:1019F0001F705E60104401352833F3E74FF0FF306D
:101A0000F3E700BFEC110020144A002138B55368F9
:101A10001478C8B2844203D8AB210920FEF7F8FE3F
:101A20001846013128330578002DF2D0002181704D
:101A3000012412898161051D44709208C16100F181
:101A40002001446821F8022B994245F8044B1444C4
:101A5000F8D100234361037038BD00BFEC110020B2
:101A60002DE9F8434B7880460C4602F0040602F05C
:101A7000FB07D3B1DFB12E4BD4F804901D89B7BB5F
:101A80000123AD084A46211D637004F1280004F1CA
:101A90002003A761E76123F8025B984241F8042B19
:101AA0002A44F8D10023636101E0002FE3D0FF2333
:101AB000A370002E18BF0226A3191B7D032B03D190
:101AC000022F1CBF0136F6B2A31901221A7506F1C6
:101AD0000C02002304EB860624F812307268A3700F
:101AE0004046C8F80020A8F80430BDE8F88300217B
:101AF00014226170A01818F07AFCB5F5FF7F0FD2A0
:101B00006B08ED1AADB209EB0502C4F80490258408
:101B1000A2606384C4F80C90A5842261E384C6E7C4
:101B2000B5F5EE6F4FF0FF03EBD940F27265EAE7CF
:101B3000EC1100202DE9F84305460C46F72005215D
:101B4000914610F052FF061E22DB1DB906FB04F081
:101B5000BDE8F88315F0030703D098211920FEF79C
:101B600057FEDFF83480C8F81050A5B2A8F814600A
:101B7000BBB29D42EAD9B8F814C04B46D8F8100061
:101B80000522F72107FB0C00013710F0F2FEEFE70A
:101B90004FF0FF30DCE700BF0012002007B5CDE9B1
:101BA00000230B4603490246081D11F08BF903B0D0
:101BB0005DF804FB1812002013B5064CCDE9002394
:101BC0000B46024604F1080104F10C0011F07AF909
:101BD00002B010BD18120020024BD3E9002111F011
:101BE00097B900BF18120020034B1B28D3E902212C
:101BF00038BF1B2011F08CB918120020024B01468F
:101C0000D3E9002011F068B818120020024B0146F9
:101C1000D3E9022011F060B81812002008B54B1E5D
:101C2000032B03D923219020FEF7F2FD002801F1B8
:101C3000010114BF0C230523C9B203EB8101034B3F
:101C4000013121F00101197008BD00BF28120020E8
:101C50001E4B01224FF0FF3000211B685A60C3F871
:101C60000803C3F80015C3F80425194B1B685A6014
:101C7000C3F80803C3F8001540F6FE71154B16486B
:101C8000C3F8081501680BB2002B0BDB01F01F0134
:101C90005B098A402033114941F82320BFF34F8F5D
:101CA000BFF36F8F026813B2002B09DB01215B09C0
:101CB00002F01F02603301FA02F2084941F82320C2
:101CC000044B40F6FE72C3F808257047BC21002083
:101CD000B821002000200850D021002000E100E0C1
:101CE0000A4606483C2302F8033BC368C1F80330A8
:101CF0000369536043699360704700BF301200204E
:101D0000024B5A8C02435A845B6A184730120020F7
:101D1000014B00215B6A18473012002010B5154CAA
:101D20000CF066FF0CF00AFA208DFFF7F1FF237E1E
:101D300063B12246104904F1190052F80C3BE360EC
:101D400063685360A368936015F037FE0B4B228DD8
:101D500093E803000AF012F9236B18880AF03AF8A6
:101D6000A36B94F8341094F835009847002384F856
:101D70003C3010BD30120020E11C00005C1200203D
:101D8000034B93F83C300BB1FFF7C8BF704700BF5F
:101D90003012002070B5254C0646636C256B236419
:101DA00095F8943094F848000BB1031DD8B295F81B
:101DB00075102EB9FF2803D195F874308B4201D0ED
:101DC0000CF09EFD95F8943053B3E06C0CF0F2FFEC
:101DD00094F82C30E16C003B206C18BF012384F890
:101DE0007030D5E93C23C4E918230CF0BFF85EB984
:101DF00095F87530033B012B2B8F94BF28200020D2
:101E0000184480B20DF038F8A88E0CF0F1FC95F86B
:101E1000741000200DF078F8022384F83C3070BD77
:101E2000206C0CF0C7FF0CF089F9E0E730120020BD
:101E30000138C0B2032808B504D94FF48E610620DA
:101E4000FEF7E6FC014B185C08BD00BFF41F040060
:101E500008B5094B93F83C20022A04D040F2312106
:101E60002720FEF7D5FCDA7A42F00102DA72BDE8EB
:101E70000840FFF753BF00BF3012002003280B4B70
:101E800010B5044605D19A6FD278022A01D10020FC
:101E900010BDD86F10F03BFE0028F9D1032CF6D00E
:101EA00008F044FB80F00100C0B2F1E730120020DE
:101EB00038B5204C0546D4F88030984708B9012041
:101EC00038BD94F83430002BF9D194F82C301BB97C
:101ED000012D03D00020F3E7002DFBD194F88430CE
:101EE000DD06C3F3001005D5A36F187800F00300DA
:101EF000FFF7C4FF636CD4F888201B78C3F300138A
:101F00002AB9B4F88C2013B1B2FA82F35B0994F8C1
:101F10002C10628C39B1910705D5A36FD87802389F
:101F200018BF0120CCE7002AC9D10028D2D183F004
:101F30000100C5E73012002010B5094CD4F88830F4
:101F400023B940F2CE412720FEF762FCB4F88C2082
:101F50001846216C033210F0C7F9206410BD00BF91
:101F6000301200202DE9F043344C87B006460F466E
:101F700094F83C30012B5FFA83F904D040F2DC4145
:101F80002720FEF745FC256B04A8A16F10F0EFFF9A
:101F900095F884309DF8108053B10021042085F815
:101FA0008410FFF7ADFE94F82C300BB185F88690C5
:101FB000B8F1030F3BD195F88A301BB9A16F02200D
:101FC000FFF79EFE032300E0012385F88A3095F891
:101FD0009430D3B194F82C30216B003B94F8482016
:101FE00091F8750018BF01230392D5E93C8984F864
:101FF0007030C4E91889FFF71BFF00210346039ADC
:10200000009102200E490BF049FF26B107B0BDE850
:10201000F043FFF783BE002FF8D03046FFF748FFAC
:102020000028F3D107B0BDE8F043FFF7B3BE9DF839
:102030001430002BC8D00223C7E700BF30120020A5
:10204000801200202DE9F341744C0023256B8DF89C
:10205000053095F8942094F848300AB10433DBB287
:1020600095F8741028B9FF2B03D195F875308B4281
:1020700002D0FF200CF044FC95F88A30032B00F2CC
:10208000BF80DFE803F0023A9CAF94F88E306448DA
:10209000ADF80630A5F8643008F01EFA80B1A16FE3
:1020A0004FF48070FFF72CFE0121A36F85F8851097
:1020B000DB781B2B1DD105F110000CF05BFC18E048
:1020C0000DF105020DF10601E06F10F0C8FCA067EC
:1020D00098B195F8CF3083B99DF805302BB90380BE
:1020E00001218370A06F15F02BFBA36FBDF80620B4
:1020F0005A70012384F88F3001E04A4BA367A16F27
:1021000095F88B200B78D20003F0030603F0F3035D
:1021100002F008023046134395F88C20920002F03A
:102120000402134323F010030B70FFF7A7FE0028EF
:10213000A06F14BF10230023027890F8018013438E
:10214000037015F00EFB95F89330071E18BF01279A
:10215000002B58D0B8F1000F55D0E06C0CF02AFEDF
:1021600094F82C30E16CB3FA83F3A06F5B0984F828
:102170007030D5E93A23C4E918233A460DF064F8E3
:1021800018B9A16FE06C0BF0F1FE304610F010FFB3
:10219000E88E0CF02DFB95F8751001200CF0B4FEC4
:1021A000A26F0123118884F8E030A4F8841091789C
:1021B0001D4A84F83C30917002B0BDE8F081B5F85A
:1021C00064300DF105020DF10601E06FADF8063047
:1021D00010F045FCA06700288BD140F2D1212720C8
:1021E000FEF716FB0E4808F077F910B940F2DB2134
:1021F000F5E7A36FDB781B2B7FF47BAF01215AE758
:1022000040F2E921EBE7A06F0CF0D4FD0BF096FF54
:102210003946A06F16F0ABFEB7E700BF30120020C2
:10222000A8120020C0120020B4120020064B10B5E6
:1022300093F83C2002F0FF0422B91C7609F096FEC8
:10224000204610BD0C24FBE7301200200A4B0B4A3D
:1022500070B506460D461A60FFF7E8FF18B1ED218C
:102260002720FEF7D5FA064C012104F1900015F065
:1022700067FA6664E56470BDB8000020C4290000F8
:1022800030120020024B012283F8E120704700BF8A
:1022900030120020F0B585B0954C02AE0A9F86E85A
:1022A000030094F83C1001F0FF0511B90AB103B125
:1022B00027B94FF4BE712720FEF7AAFA96E803006B
:1022C00004F12C0C84F8E15084F8345084F8E25086
:1022D00084F8355084F8E05084F88F506584258563
:1022E0006262C4F88030A7638CE80300256B0CF0B1
:1022F00063FB0BF023FF95F97C000CF0C1FBA86A8F
:102300000CF03CFD286A0CF0C1FB95F8A4000CF021
:10231000C7FB94F82C00002840F0A38095F87420A7
:10232000744B03EB820359684FF47A7301F5FA7129
:10233000B1FBF3F16E310CF047FC6F4B6F4E05F5BE
:10234000847718680CF020FD6B69E367AB69C4F80B
:10235000E43005F1F8031868083353F8041C3246DA
:10236000BB4203C21646F6D15968D5F80801236B63
:10237000634A03C293F88E2093F87400A2F12601F9
:10238000012903D993F88F10262972D194F82C20B3
:10239000002A6BD193F80A1210F0FAFD064605F1F7
:1023A0003C073146384615F0CAFB314614F086FE2C
:1023B000B5F8483095F87510984228BF184684F84B
:1023C0008E00384615F081FB95F8751095F89470DD
:1023D0000429B5F8506008BF032114F06FFE0FB94F
:1023E000043080B2B04228BF3046C6B284F8E860FC
:1023F00008F062FF28B108F065FFB04238BF3046F0
:10240000C6B294F82C7084F84860002F55D195F826
:1024100093308BB1012395F8740084F87030D5E9BE
:102420003A23C4E91823FFF703FDFB22034633498F
:10243000042000970BF032FD0120FFF703FE00237C
:1024400023606360A360B5F8883063802B882380A5
:1024500095F8A4302371AB6F0BB101221A6005B05F
:10246000F0BD95F87520C421012064E793F8A2120D
:1024700092E7213A012A0ED824290ED094F82C2074
:10248000B2B193F82E315A0710D413F0010183D161
:1024900003F0020180E724290AD194F82C203AB1F4
:1024A00093F82E2193F86D301340ECE7042173E785
:1024B000032814BF0646042671E795F8943093B1BB
:1024C000012395F8750084F87030D5E93C23C4E900
:1024D0001823FFF7ADFC00220346084900920220B2
:1024E00032460BF0DBFC0120FFF754FCA7E700BFEE
:1024F00030120020F41F0400B800002080120020D9
:102500009812002008B5114B93F83C201AB9BDE889
:102510000840FFF703BC93F82C2042B993F83C30F5
:10252000012B12D040F20F212720FEF771F993F80A
:102530003C20022A02D040F21321F5E71B6BD3F8AE
:10254000E001BDE808400CF06BBC08BD3012002073
:10255000014B1876704700BF301200202DE9FF4173
:10256000324C03460E4602A8216C256B10F0FFFC8E
:1025700013F001089DF80C7003F002002BD000232B
:1025800084F8E93090B1FFF7D7FC0DF1020201A900
:10259000D4F8E40010F066FB019810F049FB01222A
:1025A00030603946D4F8E40010F0F1FAB8F1000FC9
:1025B0000ED0D5E93C32013342F10002C5E93C328C
:1025C00095F88C30012B0CBF0023012385F88C304B
:1025D00004B0BDE8F08194F8E930032B20D801A2C3
:1025E00052F823F085250000F52500000F26000095
:1025F0000F2600000028EBD0FFF79EFC0022394692
:10260000D4F8E40004B0BDE8F04110F0C0BA0028EE
:10261000DED0D4F8E40004B0BDE8F04110F01EBBF9
:1026200040F27A412720FEF7F3F800BF3012002075
:102630002DE9F04F0023B24C87B080468A46276BC5
:10264000CDE9023394F83C30022B04D040F25F51C4
:102650002720FEF7DDF8238D590606D44020FFF72A
:1026600057FB238D43F040032385216C04A810F011
:102670007EFC9DF8146097F89430B8F1000F00F0DC
:1026800045819DF810909DF811B07BB10BF064FD71
:1026900060B95EB197F88C305B4507D1012384F8AF
:1026A0003530FFF73BFB07B0BDE8F08FB1B2A4F8BF
:1026B0008C10F9B1D4F8E40010F04AFAC4F888009C
:1026C000238D9DF8122043F40073238597F88B30F7
:1026D0009A4200F0BD80256B95F88A30002B40D0DF
:1026E000022B11D102A9E06F10F0DBF928B940F2FA
:1026F0001441ADE7C4F88810E2E7D5E93A32013376
:1027000042F10002C5E93A32002194F82C3085F8F4
:102710008A103BB195F8863023B1102085F88610D9
:10272000FFF7EEFA95F885309BB1002185F885100A
:1027300007F0E4FE002110B940F22B4188E70820A1
:10274000FFF7DEFAD5E93A32013342F10002C5E97A
:102750003A3295F88B30012B0CBF0023012385F80A
:102760008B30238D002543F40063238597F88C304C
:102770005B456FD0002648464FF0000910F018FC6A
:1027800097F89330B3B194F82C3097F87400B3FAFB
:1027900083F35B0984F87030D7E93A23C4E918233E
:1027A000FFF746FB00220346564900920420FB2215
:1027B0000BF074FBBAF1000F00F0D1800CF0EEFBCF
:1027C000002E40F0F2804FF0010985B194F82C30D2
:1027D00043B1B4F80720B4F805301343B7F88820A4
:1027E000134304D0B4F809300133A4F80930B8F128
:1027F000000F00F0E080B4F805300133A4F8053094
:10280000002384F8E230404809F0D2FA029830B14F
:1028100010F00EFA216B0022027208F079FC039B83
:1028200033B1216B00221A720C22039808F03EFC8F
:10283000B9F1000F7FF435AF238D1B063FF533AFA1
:102840008020FFF765FA238D43F0800323852AE774
:1028500045468BE7B9F1020FD4F830B025D8B9F16D
:10286000000F2FD076B3238D9BF894B043F48053A0
:1028700023850BF0CDFF042894F8E83007D1BBF195
:10288000000F14BF1B221F22934228BF1346B342DE
:102890002AD3D4F88830002B3FF46CAF94F8E130A1
:1028A00063B32020FFF734FA64E7B9F1030F09D1CD
:1028B000238D0120216C43F480538BF88400238501
:1028C000FFF71EFA9BF88C30013B18BF01238BF8F1
:1028D0008C30002E3FF44EAFDBE93C32013342F145
:1028E0000002CBE93C3245E794F83430012043F054
:1028F000100384F834300EF081F83BE746463AE79F
:1029000030120020801200205C1200200BB10BF06E
:1029100037FC94F8E230013384F8E230238D43F43D
:102920008063238597F87530033B012B0FD8012076
:102930000EF064F80BF06CFF04280CD11B2E4FF046
:10294000000694BF4FF000094FF0010905E008F0C0
:10295000B3FC0028EBD10026B146354610E794F8C9
:102960002C2094F8E2303AB1628C120704D5A26FA1
:10297000D278022A3FF422AF012B3FF61FAF01208D
:10298000FFF796FA00287FF419AF1EB103A90120C2
:10299000FFF7E4FD0020FFF755FB002E3FF415AFD5
:1029A00003A90220FFF7DAFD0FE703A90320B146D0
:1029B000FFF7D4FD09E7B4F807300133A4F8073076
:1029C00021E700BF511E000031260000651F0000F6
:1029D000811D00002DE9F04F04461E4600230D46E0
:1029E00090462DED028B8BB090F87570069314F025
:1029F0000AF994F8C8310B2B04D940F2FB310620B8
:102A0000FDF706FF874A32F813B094F88F308344FD
:102A1000442B1FFA8BFB3DD00E2B94F88E2039D01F
:102A2000443A53425341039388F001030493B8F1AD
:102A3000000F5FD194F80C32032B5BD1039B002B6A
:102A400058D0B4F8A032AB4254D1D4F81432204656
:102A5000B4F8E42141F64B59C4F80032E369C4F8F4
:102A60000432B4F85A321344C4F8083209F00EFDA7
:102A7000D4F8A83294F8B4224B458CBF4FF000092B
:102A80004FF0010942B9E26993421BD0208816F049
:102A9000DCF917E00123C6E7208816F0D3F918B94E
:102AA00040F23E713020ABE7B4F8B032C1466386E5
:102AB000B4F8B2328381B4F8A032A0F80E8043811A
:102AC000013B038294F87E30002B41D1B9F1000F15
:102AD00041D1D4F8A43284F87E90E362B4F8A232F3
:102AE0002386D4F8A832E361D4F8AC3263620223BF
:102AF00084F80C32B4F858A204F50A73B4F888903C
:102B0000A5EB0A0A08EE103AA5EB0909DFF81881CF
:102B10000FFA8AF30FFA89F9002BB8BFD4E9902392
:102B200094F80CA2ACBF3246C4E994235FFA8AFA47
:102B3000BFBF0023012284F823324B46BAF1030FB2
:102B400000F2CE81DFE81AF013002F0172004F016E
:102B5000B9F1000F05D04FF04D13636300232387B5
:102B6000B7E74FF09613A4F838906363B1E794F891
:102B7000751094F8DE0114F0C8FA0746E06A594669
:102B800038440DF04FFE5946C4F81002E0690DF0CC
:102B900049FE94F87E3007A9002B18BF4FF0020AB7
:102BA0005044C4F8140208A80CF000FA079BD4E9BA
:102BB00094010093DDE9082317F073FA814620465B
:102BC00010F018FAD4F85C3294F87500D4F82CA000
:102BD00006930CF031FB069B00F52240D4F810124E
:102BE000BB3BB1309A444FF47A73AAEB010A3031FF
:102BF000B0FBF3F05744238EA7EB090703EB410129
:102C00003F1A94F87500069710F001FAD4F85C2288
:102C1000069BC8F800009B1ACC2B66D840F2DE4118
:102C200040E700BF182004001C130020E36A594647
:102C3000D4F8040218440DF0F5FD5946C4F810020A
:102C4000E0690DF0EFFD94F87E30002B08BF4FF0E7
:102C5000000A5044C4F81402204610F0CBF9B4F82E
:102C6000E431E76AD4F804A2002B40F09780002EEC
:102C700000F0948094F8750057440CF0DDFA00F5EC
:102C80002240D4F810324FF47A7BB130BB3FB0FB16
:102C9000FBF9FF1A94F87500D4F848321F44C31E9C
:102CA000D4E99012012BA7EB010774D90CF0C4FAF8
:102CB00000F2E730B0FBFBFBA7EB09075F44D4F859
:102CC0001012D4F80032D4F80822303194F875008C
:102CD00002FB0311238E069703EB410110F097F9D5
:102CE0000123C8F8000084F80C32E7694FF00009AE
:102CF000D4F8143204F13C00A7F5A277069984F8C1
:102D00002892FF1AD8F800309F4228BF1F46D4E906
:102D10009432C4F8E0715B1842F10002C4E98E32CB
:102D200014F0D1FE3844A4F85852C4F82C02D4E967
:102D30008E23C4E9942309F0A1FB20B1D4F82C32EE
:102D40001E33C4F82C32B4F8D01184F830924D1BE5
:102D50002DB2002DC4BF022384F83032039B002B18
:102D600040F0C180002E40F0BF8094F80C32002B60
:102D700000F0D780E16918EE100AD4F81432C91AAD
:102D800014F06BF980B2002800F0CB80169B03B1E1
:102D900018800120D5E04FF03E0B8DE75744D4F862
:102DA0001032FF1A8BE7D4F81422E169D4F80872C4
:102DB000891AD4F800024B43218E0693B4F8E4310B
:102DC0009944FB439944D4F81032303300FB073365
:102DD00094F8750002FB093301EB430110F017F979
:102DE000C8F8000081E7E0695843069056B3B4F88C
:102DF000E41139BB84F82312D4F8141201FB130A2E
:102E000094F88E30262BCDF818A003D094F88F308C
:102E1000262B09D1B4F8A032EB1A1B0404D494F881
:102E2000A332002B18BF1F46D2B3B4F8E431BBBBAA
:102E3000D4E99023D4E9920182428B4108D340F235
:102E400032512FE694F8231200297FF44EAFD3E7D6
:102E500094F87500C31E012B3DD90CF0EDF900F577
:102E600022404FF47A7BB130B0FBFBF000F1AB0BAA
:102E7000D4F8483294F87500103BD4E990125A1AED
:102E8000C31E012B924429D90CF0D6F94FF47A7362
:102E900000F2E730B0FBF3F0AAEB0B0A50440690C7
:102EA000B4F8E4113846D4F8143249445943303167
:102EB0004900059110F0ABF8244A94F87E3005994A
:102EC0001060002B3FF411AF06ABE06914F03AF943
:102ED00084F8230209E74FF4897BC9E73E20DBE74A
:102EE00040F24A51DEE5E6B1B4F8F81119B3B4F88E
:102EF000FA2194F8FC31501CA4F8FA2102FB0333A8
:102F000099420EDD94F830325BB10023A4F8FA0147
:102F100084F8303208F0DCF900F00700013084F862
:102F2000FC0118EE101A94F824020EF0F3FB20B9FD
:102F300040F29351B6E50A46DBE7049B84F8203261
:102F400000200BB0BDEC028BBDE8F08F1C130020FD
:102F5000014BD871704700BF1C130020F0B5044628
:102F600085B090F8DB3103F0FF05002B6ED190F8AF
:102F70000C32032B6AD117F025F8D4E99023801A7C
:102F800061EB0301012871F100035FDB6FF00103C6
:102F9000834275EB010304DA40F2C7513020FDF79C
:102FA00037FCE269B4F888300AB1B0FBF2F20133C1
:102FB00013449BB2A4F81C32B4F8D431B4F81C22E8
:102FC0009B1A1BB2002B41DD94F824020EF096FCF4
:102FD00000283BD0FF2384F82132B4F8C2300DF131
:102FE0000E07B4F888501A4E1D44B4F8C030013DA5
:102FF000ED1AADB2336863B1B4F81C12002220465A
:10300000013989B29847B4F81C32184480B2A4F848
:103010001C02B4F81C32EB1A1B0417D4B4F81C12AF
:1030200000230122204689B20097FFF7D3FC68B144
:10303000012808D1B4F81C32BDF80E2013449BB20D
:10304000A4F81C32D6E740F20E61A7E705B0F0BD48
:10305000BC0000200D4B0321186830B50D4690F8D8
:10306000A52090F84B400132B2FBF5F303EB43038C
:10307000D31ADAB244FA03F3DB0703D4013911F0AF
:10308000FF01F0D180F8A52030BD00BF281300203B
:10309000014B186810F0B7B82813002008B507F0E6
:1030A0007FFD014B187008BD50000020064B10B486
:1030B0001C68827C836804F1420194F841005DF849
:1030C000044B13F05BBF00BF281300202DE9F04133
:1030D000064690461D460C46D1B9194F386800F196
:1030E0005B0390F85A2000F1780190F87E0013F00D
:1030F00045FF7B685B79082B05D03A6892F84E1043
:10310000CB1A5C425C413B6893F85630012B03D1EB
:10311000B36853B9012404E083B90028F8D1002C26
:10312000F6D104F00100BDE8F081B8F1000FF1D153
:1031300025B13046FFF7BAFF0446F2E70024F0E776
:1031400028130020024B18686C3002F0C3B900BF8E
:103150002813002038B50F4CFFF7F4FF656802F024
:1031600073F963682860186820B940F2EC41322096
:10317000FDF74EFB10F038FA10B940F2EE41F6E7D9
:103180000BF018FE00200BF077FE636804221A7122
:1031900038BD00BF2813002038B5194D04466B68B0
:1031A0001B79022B04D940F6F3013220FDF730FBE6
:1031B0002B68027C83F8A4201A44C168996692F8AF
:1031C000242183F820214268C3F88820037A022B47
:1031D0000ED00BF0F1FB0BF07DFE0AF0C5FD0948A7
:1031E0000BF0D2FD08480BF0C9FD08480BF04EFC6F
:1031F000637C23B12B685B6E0BB101221A6038BD72
:1032000028130020C800002055555500D6BE898ED1
:1032100008B5FFF743FF034B586802F0A7F90120F8
:1032200008BD00BF2813002038B505460C4607F03E
:10323000A3F8420704D4A37803F0E003402B30D076
:1032400007F09AF8830704D4A37803F0E003202B57
:1032500027D0237803F03F03242B22D80BF0DEFA8B
:1032600094F90030A278002B637802F01F02ACBF03
:103270001E214FF4967143EA02234B431A1AB2F50A
:10328000877F0ED398420CD8074B294618682388AD
:10329000A0F82131A37880F82331BDE8384010F040
:1032A000B5BC002038BD00BF2813002008B5074B6F
:1032B00093F900207F2A04D140F292313220FDF7A9
:1032C000A7FA02707F221A7008BD00BF50000020CC
:1032D00010B504788EB004F00F0404A9224610F053
:1032E000C2F9FFF7DBFE042C33D11B4C059A23688F
:1032F000107893F8781088422BD1507893F8791091
:10330000884226D1907893F87A10884221D1D078DB
:1033100093F87B1088421CD1107993F87C10884276
:1033200017D1517993F87D20914212D19DF8212037
:1033300093F87E309A420CD10DF10F00FFF7B6FFE3
:103340009DF90F3004A90093237B227A606810F066
:103350005DF903200EB010BD281300202DE9F04FB9
:10336000044689B0062900F2C780DFE811F0620048
:10337000E9000700C500C500C50028006F4D0BF02F
:1033800037FC2F6897F854309E0701D1032036E0B0
:103390006E68B379002BF9D00DF11F00FFF786FF9F
:1033A0009DF91F3002222146029330462B7A019369
:1033B000FF23009307F1420310F018F9E6E75F4D91
:1033C0006E68B379002B00F097802F6897F854202F
:1033D000900717D50DF11F00FFF768FF9DF91F300B
:1033E00030460622029321462B7A0193FF23009355
:1033F00007F1420310F0FAF8002309202B7309B0FB
:10340000BDE8F08FD10777D5530701D50BF0F0FB5E
:103410000DF11F00FFF74AFF9DF91F202B68029254
:103420002A7A42330192FF220092062221466868DE
:10343000C2E7424D2B6893F85420570737D5696887
:10344000CA79002A33D0426893F85B001678864226
:1034500055D1567893F85C00864250D1967893F80F
:103460005D0086424BD1D67893F85E00864246D105
:10347000167993F85F00864241D1507993F8602025
:1034800090423CD1627C93F85A00161A7242724103
:1034900093F8560001284ED0002A4CD193F84E30B4
:1034A000082B02D04A799A4245D00BF0A1FB6E68F6
:1034B000B379002B3DD02F6897F85420900720D582
:1034C0000DF11F00FFF7F2FE9DF91F30304600227C
:1034D000029321462B7A0193FF23009307F14203C5
:1034E00010F084F8012309202B736B68DA79002A25
:1034F00085D19B79002B82D10BF07AFB46E7002225
:10350000C6E7D10715D5520701D50BF071FB0DF1B8
:103510001F00FFF7CBFE9DF91F202B68214602926A
:103520002A7A423368680192FF220092002210F04A
:103530005DF80320D9E70A20D7E700BF2813002051
:10354000644D81686E682A68B379807C0493F3794E
:1035500092F8488005930FF085FD92F8543088F07A
:10356000010807465B0740F1898092F84D30002B37
:1035700000F0848092F84E60082E00F08180304682
:1035800007F004F9002818BF8046002F7AD0304693
:10359000A16807F0D1F906462B6893F841900EB167
:1035A00049F0020993F85420500746D5626893F811
:1035B0005B101078884267D1507893F85C1088428D
:1035C00062D1907893F85D1088425DD1D07893F8FD
:1035D0005E10884258D1107993F85F10884253D119
:1035E000517993F8602091424ED1617C93F85A2032
:1035F000891AD1F1000B4BEB010B69684979082955
:1036000045D093F84E305A1AD2F1000A4AEB020A1A
:10361000002E3FD1B8F1000F3ED02046FFF746FD07
:10362000059B43B1296891F8561001294DD011B975
:103630005BEA0A0349D10BF0DBFA2B6893F85430AC
:103640009B073FF4A3AE0BF0D3FA049B002B3FF48F
:103650009DAE2046FFF72AFD10B9D5F80080EEB1E7
:103660000DF11F00FFF722FE9DF91F202B6802922B
:1036700042332A7ACDE900920122D7E676797BE7B8
:10368000002689E73E4687E74FF0000BB5E74FF08D
:10369000000ABDE70120C3E73046C1E798F855208E
:1036A000023A012A3FF672AE002F3FF46FAE0DF1E1
:1036B0001F00FFF7FBFD9DF91F3002932B7A01934A
:1036C000FE23009308F14203D6E70028B3D00A2076
:1036D00095E600BF281300202DE9F04188B0174C73
:1036E00006460F460DF11F00FFF7E0FD65682B79D8
:1036F000032B20D02B79062B0CBF4FF003084FF083
:1037000001082368423305930BF082F89DF91F20CE
:103710003146059B0292227ACDF80C80CDE9000259
:103720003A46284601F056FF10B1606801F0EEFEFF
:1037300008B0BDE8F0814FF00008E2E72813002050
:103740002DE9F041324E88B005460A467468A379E7
:1037500023B90024204608B0BDE8F081376897F807
:10376000953033B90378002B0CBF0123022387F86F
:1037700095302379062BD9B225D0072914BF4FF0F5
:1037800001084FF002080DF11F000592FFF78EFDB2
:103790000BF03EF89DF91F30059A29460293337AC3
:1037A000CDF80C80CDE9000307F14203204601F07B
:1037B00011FF0028CDD06C7814F0100406D1706889
:1037C00001F0A4FEC6E74FF00308DCE7A969022078
:1037D000FFF72AFD0446B8B10022336883F896202B
:1037E0006A696AB15178C1F3031183F897101178AF
:1037F000527802F00F0241EA0222A3F89820A9E7CA
:10380000FF2283F89720A5E7706801F0AFFEA1E7DB
:10381000281300200D4A536810B51979022904D8DD
:103820004FF4A5513220FCF7F3FF1979082902D98A
:1038300041F2A141F6E71B79126903F180439268D6
:10384000033BBDE8104052F82330184728130020EE
:1038500010B5054C637A2BB10BF03CFB0AF084FAEF
:103860000023637210BD00BF2813002010B5054C63
:1038700023792BB10BF02EFB0AF076FA002323718B
:1038800010BD00BF681A002010B5094CFFF7E0FF1B
:10389000012263681A7100232268A2F8213182F89C
:1038A0002331FFF74FFC2068BDE8104010F07CBBCF
:1038B0002813002008B5044B586801F057FEBDE8F6
:1038C00008400FF0ADBC00BF28130020062938B512
:1038D0001C469DF8105019D908291DD802B1DDB138
:1038E00043689BB912B94378DB0617D40C4B5B686D
:1038F00018680FF09AFE00B135B92CB906F068FFD0
:1039000000F00104204638BD0120F9E79DF814308D
:10391000002C08BF1C46F5E70024F3E70124F1E77B
:103920002813002038B50D1E044614BF03200520BF
:10393000104406F0BBFF094B587270B15DB9033CEF
:10394000012C94BF552450240AF0E2F92046BDE82A
:1039500038400BF0B3BA4024F6E738BD28130020F6
:10396000F8B53E4CFFF7EEFB656801F06DFD63684E
:103970002860186820B940F249413220FCF748FF1E
:103980000FF032FE054610B940F24B41F5E72368CF
:1039900093F8A6306BB123681A6D93F8A710C3F89B
:1039A000102193F854200A4383F85420002283F80E
:1039B000A620206890F8A430034493F8247163682B
:1039C00080F820711A7952B11B79012B07D00021A0
:1039D00010F01CF918B9BDE8F840FFF755BF23688F
:1039E0001F4A93F8A530D05C0BF05AF8236893F87F
:1039F000A420134493F82461022E2CD004D8012E65
:103A000005D040F2F371B8E7F31E012BF9D801F0AD
:103A100015FD314680B20AF073FF28460BF0CAF953
:103A2000314601200BF068F87B1E2A463846594281
:103A30005941FFF777FF6268082100235171217215
:103A40002168D3801372E37281F89530A3722373D7
:103A500003231371F8BD0D20DBE700BF28130020FE
:103A60003020040010B50A4C0521206810F0CEF873
:103A700018B9BDE81040FFF707BF2368012093F88D
:103A800020110BF041FA63680B221A7110BD00BFC0
:103A900028130020124A10B5536800B931B91846EE
:103AA00001F064FDBDE81040FFF7EEBE197908296A
:103AB00004D841F270413220FCF7AAFE19790C2992
:103AC00002D941F27141F6E71B79126903F1804393
:103AD0005268093BBDE8104052F82330184700BF38
:103AE00028130020054B1A6892F85420920703D03F
:103AF0005B68186801F0D2BC586970472813002031
:103B000070B5304D06466B681A79032A02D01A79CF
:103B1000042A09D118680FF067FD044638B941F24C
:103B2000A8313220FCF774FEFFF7DCFFF5E72B68C5
:103B300093F8543013B941F2AE31F2E776B113F095
:103B4000CAFD30B16B681A79022A0ED841F22E31C3
:103B5000E7E7204613F0DAFD0028F3D16B681A7905
:103B6000022A17D841F28E31DBE71A79082A02D9E6
:103B700041F22F31D5E71B7920462A6903F18043B2
:103B80001269033B52F8233098470C2812D941F2AE
:103B9000C131C6E71A79082A02D941F28F31C0E74C
:103BA0001B792A6903F180435269033B52F82330A1
:103BB0009847EAE72B69DB68BDE8704053F820308E
:103BC000184700BF2813002038B5FFF78BFF0446C5
:103BD00020B940F213513220FCF71AFE0B4DFF20A2
:103BE0002B6893F820110AF08BFE20460BF0E2F8C8
:103BF0002B6893F82031033B012B94BF2820002031
:103C00000BF03AF96B6807221A7138BD28130020AF
:103C100038B5134C0E20236893F820110AF070FE7B
:103C2000FFF760FF054620B94FF4A0613220FCF792
:103C3000EFFD0BF0BFF8236893F82031033B012B15
:103C400094BF282000200BF017F923682A46002192
:103C500093F82001FFF766FE636808221A7138BDE9
:103C60002813002010B5074C606801F04FFCFFF7E7
:103C700015FA20680021A03012F094FFBDE8104032
:103C8000FFF702BE2813002010B504468AB0FFF7E4
:103C900005FA237803F00F03072B23D1694620464A
:103CA0000FF074FD68460FF017FE9DF80030CBB999
:103CB0009DF80130DB0715D50D4C019922689DF860
:103CC000110002F1780392F87E2013F057F948B101
:103CD00020680121A03012F065FFFF216846FFF740
:103CE0002FFD08B9012000E002200AB010BD00BF7E
:103CF0002813002007292DE9F043064687B00F4618
:103D000090464568654C23D11DBB002A48D1D4E9B3
:103D1000001091F8543013F0030218BF012213F081
:103D20000403827103D033785A1E53425341C37146
:103D300091F894304BB12368D3F89000503014F0D0
:103D4000B7FC10B9636801221A7207B0BDE8F083AE
:103D500035B32946707C0FF085F9072F814664D171
:103D6000637A63B158B1B8F1000F55D0656813F0AC
:103D70003AF9636868715B7923720123A3726368FF
:103D80005879082858D17168707C14F0B4FA6268C8
:103D9000054671680532707C06F020FD00285DD074
:103DA000236893F8540010F003000AD06268394683
:103DB00093F84C3030460195927900924246FFF7D5
:103DC00085FD00F0010062682368907193F854004B
:103DD00010F0040009D093F84D3039460195304673
:103DE000D27900924246FFF771FD2D4B00F00100A1
:103DF00065681B68E8711BB14146304698472872D8
:103E0000726872B3717C236883F87E1011689967B9
:103E10009288A3F87C2024E0236893F820110129DC
:103E2000A4D1284606F014FD6072637A002BA6D058
:103E3000B9F1000FA3D099E704AA0DF10F0106F024
:103E4000EFFC20B94FF43A613220FCF7E1FC04A901
:103E50009DF80F0014F04FFA0546A1E76368D8807B
:103E600018726268137AB3B9D388003B18BF012374
:103E7000B06800283FF469AF072F7FF466AF51792F
:103E800008293FF462AF002B3FF45FAF06F0FEFC61
:103E90000123E37259E70123EAE700BF281300205A
:103EA000C400002030B58DB00546FFF7F7F8114B80
:103EB0001B6893F8543013F0060F04D001229621AA
:103EC000002015F027F82C7802A9284604F00F04EA
:103ED00022460FF0C8FB0022214602A8FFF70AFF86
:103EE000214602A8FFF73AFA0190FFF7B1FC0198CA
:103EF0000DB030BD281300202DE9F74F2F4D93460C
:103F000007468A462A688168807C92F84880019337
:103F10000FF0A8F86C7A88F001080646CCB192F848
:103F200054305B071FD592F84D30E3B192F84E4004
:103F3000082C23D0204606F029FC002818BF804614
:103F4000002E36D0EB7A73B313F057F800230446F3
:103F5000EB72019B8BF800408AF8006083F80080C8
:103F600003B0BDE8F08F7B6813B16B685C79DFE765
:103F70006B6818680FF059FB0028F6D1CEB195F8A0
:103F80000A90B9F1000F14D14946B86806F060FCF8
:103F9000044668720028DCD013F025F808280AD0FF
:103FA0006B685871D5E72046B96806F0C5FC044631
:103FB000CFE70024CDE74C46CBE700BF2813002015
:103FC0002DE9F0419E4E88B00546376897F8573086
:103FD000002B00F03381D6F8048098F806303BB906
:103FE00098F8072022B998F80820002A00F02681C6
:103FF0002C78012C7AD0022C00F0CE80002C40F0DE
:104000001D8197F85420910700F0188123B998F882
:104010000830002B00F012816B7813F0100FC3F3FF
:10402000001714BF0822012232EA030340F0068180
:104030000023AA688DF81C308DF81D308DF81E30D5
:10404000002A4AD00DF11E0307AA0DF11D012846D2
:10405000FFF752FF336893F841409DF81C30002B66
:1040600000F0D88044F00204002F3AD00DF11F0078
:104070000027FFF71BF9D6E90038423305930AF011
:10408000C7FB9DF91F202946059B0292327A0397B0
:10409000CDE900022246404601F09CFA002800F0DB
:1040A000CD80A9690120FFF7BFF8002800F0C68085
:1040B000336883F896706A69002A69D05178C1F331
:1040C000031183F897101178527802F00F0241EA39
:1040D0000222A3F89820022494E0FF24C4E7FE24DF
:1040E000C2E721462846FFF7F7FAA7E097F8202114
:1040F0006B78022A2DD103F01903192B40F09E8012
:1041000097F854305A0728D40DF11F00FFF7CEF866
:10411000D6E90034423305930AF07AFB0022059B6E
:10412000294603929DF91F200292327ACDE90002BE
:10413000FF22204601F04EFA00287FD0A969012015
:10414000FFF772F8002879D03368012283F89620AF
:10415000B1E703F01803182BD0E76968002328465D
:10416000B1FA81F11A464909FEF7B0FF002865D07F
:10417000AB6932689B7813F0E00304D192F84930C0
:10418000002BC1D15AE0402BBED192F84A30F7E75C
:10419000FF2283F897209EE797F854309B074DD075
:1041A0006B7803F01803182B48D10DF11F00FFF7AF
:1041B0007DF80AF02DFB0023FF22294603939DF989
:1041C0001F300293337ACDE9000307F142034046E2
:1041D00001F000FA90B3A9690120FFF725F868B350
:1041E000336883F896406A6982B15178C1F303114C
:1041F00083F897101178527802F00F0241EA0222F8
:10420000A3F89820204608B0BDE8F081FF2283F88B
:104210009720F7E72846FEF749FF00287FF424AFF0
:10422000336893F85530023B012B07D89DF81D30B9
:1042300023B19DF81C30002B3FF451AF0324E1E77C
:104240002813002030B505468BB0FEF727FF2C78E9
:1042500028466946294D04F00F040FF097FA2B68A1
:10426000072C16D193F8201168460FF098FA002217
:1042700021466846FFF73EFD2B6893F82031022B5C
:1042800032D017D8012B1AD041F229213220FCF765
:10429000BFFA93F8542012F0060FE8D093F8A42048
:1042A000134493F82421012AE1D19621002014F02F
:1042B00031FEDCE7033B012BE6D8072C19E0062C86
:1042C00002D00BD8022C0BD821466846FFF746F8DF
:1042D0000446FFF7BDFA20460BB030BD072C09D0CD
:1042E0000AF086FC0324F4E7072CFBD19DF800308C
:1042F000012BF7D16846FFF763FEE9E7281300209A
:1043000038B5174D2C6894F8483013B36FF000435C
:10431000D4E920129A4208BFB1F1FF3F19D015F03D
:1043200051FED4E92023904271EB030311D32B6893
:1043300093F8483073B92D6806F06CFA044615F00E
:1043400041FE084AA4FB0232181842EB0102C5E9FB
:10435000200238BD012006F0BBFA0028F9D0EAE7B8
:104360002813002040420F0010B50446FEF714FF4A
:10437000237A032B04D140F622113220FCF748FAAD
:104380000BB9FEF767FE064B1B6893F958000AF05D
:1043900077FBFFF7E5FABDE81040FFF7B1BF00BFBC
:1043A0002813002070B51E4D06462A6892F8231186
:1043B0005F294FEA511096BF1A4B00241B1892F840
:1043C000210100F03F0098BFDC780AF069FB2B6800
:1043D00093F958000AF054FBFEB12B682246996EFF
:1043E00001200AF0F1FB2B68214693F89630022B4E
:1043F0000CBF4020FF200AF083FAFFF773FB2B6805
:10440000064693F8951019B902462046FFF78AFA36
:104410003046BDE870400AF0CDBC22467321DFE78C
:104420002813002030200400F0B52D4C074685B03D
:10443000226892F823115F294FEA511097BF294B48
:1044400000251B18DD78936E13B10120FFF7AAFF3A
:104450002368D3F888000AF0E3FC236893F854201B
:10446000910703D593F89610022905D052070FD56E
:1044700093F89620012A0BD1EA1E012A26D893F838
:104480005930012B14BF2946032100200AF03CFDBE
:10449000266863689A361868D7B90FF0C6F863685B
:1044A000039018680FF0C7F827680246039997F839
:1044B000200197F89630009030460FF0C2F923683B
:1044C00083F820510023A37205B0F0BD2946DCE734
:1044D0000FF0BDF8014630460FF0A8F9EFE700BF36
:1044E000281300203020040008B50120FFF79CFFAE
:1044F000024B06225B681A7108BD00BF281300201A
:1045000008B50020FFF790FF024B05225B681A7187
:1045100008BD00BF2813002010B50446FEF73CFE7E
:10452000237A032B0AD1194B1B68986E20B140F6F1
:1045300038113220FCF76CF9FFF734FF237A012B96
:1045400006D003D9023B012B12D910BDFEF782FD24
:104550000E4C236893F958000AF092FA236800225F
:1045600083F89520FFF7FCF9BDE81040FFF7C8BEBF
:10457000064B1B6893F895301BB9BDE81040FFF758
:10458000BFBFBDE81040FFF7AFBF00BF281300203A
:1045900008B5044B586800F0B9FFFEF77FFD012015
:1045A00008BD00BF2813002008B5FEF777FD054BB6
:1045B00000211868A03012F0F5FABDE80840FFF7B6
:1045C00063B900BF281300202DE9F3414C4D0023AF
:1045D0000E4607462A6841F27070116D53720B88BF
:1045E0005381CB69A3F57A74844295BF4FF47A70F6
:1045F00040F2E240B3FBF0F3B3FBF0F398BF03F5F6
:1046000050639BB213848B8C5384CB8C93844FF474
:104610007F43D3844FF6FF73138517B301213046D0
:1046200012F0C8FF01463078C0092C6894F8483071
:1046300004F11402FBB10EF015FDE0B10B686361EB
:104640008B88287A938004F10E0208284AD004F15E
:104650000D0106F0E5F888B941F2F7313220FCF798
:10466000D7F86946686912F0F3FE6B6969461878F5
:10467000C0F38010D9E700236361E2E72C68637B15
:1046800004F11A0843F00203637347B30021304674
:1046900012F090FF0368C4F81A308388A8F8043039
:1046A0002B6893F95810186D06F05EFA28681549C2
:1046B00013F07AF928681449036D2A301A88A0F893
:1046C000092093F89630C37213F077F90221286815
:1046D00001F036FAFEF736FD02B0BDE8F08104F1D4
:1046E0007800D7E794F87E306373A36FC4F80E3078
:1046F000B4F87C3093800023C4F81A30E383CFE70A
:1047000028130020DF3001007D30010008B5FFF7DD
:104710009FF8044B00205969FFF756FFBDE8084099
:10472000FEF7B6BC281300202DE9F04F06468BB0EB
:10473000FEF7B4FC337803F00F03082B05D04FF0DD
:10474000010948460BB0BDE8F08F694630460EF0CF
:10475000BAFF9DF80090B9F1000FF0D19DF801303B
:1047600003F00303032BEAD12B4C276897F84D3055
:10477000002B39D097F84E80637A002B38D1002572
:1047800007F1780397F87E2001999DF8110012F047
:10479000F5FB0DB90028D2D0256897F8483095F878
:1047A00041A042353BB1404606F000F900281CBF4D
:1047B00005464FF0010A9DF812B05246029958463C
:1047C0000EF050FC2B460746584612F0D7FBC8B1F6
:1047D00020680121A03012F0E5F9FFF739F83146E1
:1047E0000120FFF7F1FEACE7636893F80580C3E7AB
:1047F00012F0F9FB0828C2D0A0EB080320725D423A
:104800005D41BDE7002F9AD00299404606F094F82A
:104810000028DDD193E700BF281300202DE9F843DD
:104820006F4F0023054689467869D7F800800370EA
:1048300043700AF0D9FA064628B9032006F056FC60
:104840003046BDE8F883032D7C6947D1237823F0F7
:104850000F0343F0030323700C236370D8F8783000
:104860007869C0F80930B8F87C30A0F80D3098F8B5
:104870007E1012F001FE0021786914F078FB3B688D
:1048800093F8482003F1420493F8418092B193F8E1
:104890005420520740F1928093F84D20002A00F0F6
:1048A0008D8093F84E0006F081F800281CBF044666
:1048B0004FF00108236841467869C0F80330A388A7
:1048C000A0F8073012F0CBFD464BD3F80C32002B8A
:1048D00077D040F234613220FBF79AFF052DBDD12D
:1048E0002378222223F02F03627043EA491141F01A
:1048F0000501217039680B6D1B6AC4F80F300A6D11
:10490000936A180AE3741B0C2075637592F87E0095
:10491000138E00284CD04FF0640CB3FBFCF3DBB2D9
:10492000A375D36A002846D06420B3FBF0F39BB292
:1049300041F27070E3751B0A2376D369A3F57A7C84
:10494000844595BF4FF47A7040F2E240B3FBF0F338
:10495000B3FBF0F398BF03F550639BB263761B0A79
:10496000A376938CE3761B0A2377D38C63771B0A99
:10497000A377D2F89730C4F81F3092F89B3094F8A0
:10498000242084F823300B6D22F01F0293F8A2300C
:1049900003F01F03134384F8243005F013FD94F84B
:1049A000243003F01F0343EA401084F8240055E745
:1049B00040F2E24CB1E740F2E240B6E77B6858795A
:1049C00071E7052D7FF43CAF3B6821681A6DC2F892
:1049D0000A10A188D1811B6D83F8098030E700BFE0
:1049E0002813002000A0085010B500210320FFF775
:1049F00015FF18B9BDE81040FEF746BF074C03216C
:104A000020680FF003F90028F4D0012108460AF0CD
:104A10007BFA636809221A7110BD00BF28130020B9
:104A200038B5184D6B6818680EF0DEFD044620B9E5
:104A30004FF4AB613220FBF7EBFE6B680A220021DA
:104A400028681A7101F07CF82B6805201A6D23780C
:104A500092F8964004EA531404F001042146FFF74B
:104A6000DDFE18B9BDE83840FEF70EBF0421286806
:104A70000FF0CCF80028F5D02B681B6D83F896401A
:104A800038BD00BF2813002010B5114C0C220121A5
:104A9000636820681A7101F053F800210520FFF7C0
:104AA000BDFE18B9BDE81040FEF7EEBE0621206835
:104AB0000FF0ACF80028F5D02368012093F82011FE
:104AC0000AF022FA236801221B6D83F8962010BD9C
:104AD000281300202DE9F041054692B00E46FEF75E
:104AE000DDFA2B789B4C03F00F03072B07D0012531
:104AF000606800F03BFD284612B0BDE8F08108A9CF
:104B000028460EF043FE206808A99A300EF0B6FE43
:104B100023689DF8201093F89620914240F0598127
:104B2000032E03D193F89720FF2A16D09DF8212059
:104B3000150740F14E810D9A93F897105078B1EB1C
:104B4000101F40F04681127800F00F00B3F8983043
:104B500042EA0020984240F03C8108A832460721F2
:104B6000FFF7C8F86068C3881BB9037A002B00F010
:104B7000318100238DF81C308DF81D308DF81E30EA
:104B80000A9B002B47D00DF11E0307AA0DF11D0152
:104B900008A8FFF7B1F9236893F841609DF81C302D
:104BA0000BB146F002069DF820509DF81C80012DA7
:104BB0009DF81D709DF81E302FD0022D7FD0002D46
:104BC00040F00781236893F854309D0730D09DF85A
:104BD0002130980771D5B8F1000F0BD108A8FEF766
:104BE00065FA38B9236893F85530023B012B1FD87A
:104BF000F7B1FE2663681B7A33B1574B1B681BB1B4
:104C00000F9808B111999847314608A8FEF798FD0A
:104C100070B102253FE0FF26C5E79DF8210022681C
:104C200000F0090C92F89A10BCF1090F04D009B9F0
:104C3000012530E00007FBD592F85420500711D42D
:104C400063689B79002BF3D0236893F854309A075C
:104C5000EED09DF821309B0716D4FF2108A8FEF75F
:104C60003BFDE5E76268D279002AE9D0424608A810
:104C7000FEF72CFA0028E3D02068A03011F0B4FF32
:104C80000028DDD00C2506E0B8F1000F06D0314633
:104C900008A8FEF721FDFEF7DBFD2CE708A8FEF7CC
:104CA00005FA0028F3D1236893F85530023B012B15
:104CB000BED8002FBCD0FE21D0E7FF269AE722689D
:104CC00092F854209107B3D0616889790029AFD058
:104CD0009DF8215005F009010929A9D1920705F095
:104CE000020568D5002D39D0B8F1000F2AD00DF19A
:104CF0001F00FEF7DBFA00210320FFF78FFD0546BA
:104D0000D4E900374233059309F082FD0122059B67
:104D100008A903929DF91F200292227ACDE9000290
:104D20003246384600F056FC002D81D000283FF472
:104D30007FAF2068A03011F057FF00283FF478AF14
:104D40000B25A8E7002BAED008A8FEF7AFF9002886
:104D5000CDD1A8E728130020C00000200DF11F00CE
:104D6000FEF7A4FA294603200125FFF757FD074661
:104D7000D4E900384233059309F04AFD9DF91F201C
:104D800008A9059B0292227A0395CDE900023246DA
:104D9000404600F01FFC002F3FF47DAF00283FF499
:104DA0007AAF2068A03011F01FFF0028C8D16068DA
:104DB00000F0ACFB6FE7002D3FF44FAFB8F1000FF0
:104DC00001D031464AE708A8FEF770F90028F8D16B
:104DD00069E7606800F0CAFB2AE700BF036D10B501
:104DE000044623B94FF456713220FBF711FD02221D
:104DF000074942721B884381FF2380F827304FF612
:104E0000FF73038512F0D0FD0023236510BD00BFA2
:104E1000DF300100F8B5184F0E46012178610020FF
:104E2000FCF7AAFC054620B940F67C013220FBF7CE
:104E3000EFFC4FF49472002115F0D9FA01210846D5
:104E4000FCF79AFC044620B14FF49472002115F04F
:104E5000CEFA3B6913B940F68601E7E730460EF01B
:104E60001BFA28460EF03FFF24B12046BDE8F8406B
:104E70000EF039BFF8BD00BF28130020014B024AD5
:104E80001A61704728130020B8010020014B024A24
:104E90001A61704728130020D0010020036810B564
:104EA00023B940F667113220FBF7B2FC044A1360C5
:104EB0006C3353601369BDE810401B68184700BF8E
:104EC0002813002008B5044B586800F04FFBBDE8DC
:104ED0000840FEF7D9BC00BF2813002038B590F871
:104EE0004030044613F0FD0F04F1420114BF0120CD
:104EF000002084F8410005F041FB94F84030023B6B
:104F0000DBB2012B94BF0123002384F8483018D86A
:104F100005F080FC054615F055F80A4AA5FB02325B
:104F2000181894F8483042EB0102C4E9200243B15A
:104F3000002005F0CDFC20B940F60F213220FBF710
:104F400067FC38BD40420F000149363012F02FBDDA
:104F50009F30010010B5084C0222636820681A7166
:104F600000F0BEFC38B920680EF008FB2068BDE8F0
:104F700010400FF019B810BD28130020013808B5F3
:104F8000C0B20A4B41B1032801D8185C08BD40F2F9
:104F9000B9113320FBF73CFC032802D818440079F0
:104FA000F4E740F249310620F4E700BF3620040060
:104FB00008B50DF047FF054AD2E84F3F0133DBB299
:104FC000C2E8413F0029F7D108BD00BF40130020CF
:104FD000024BA0F108015868FFF7EABF4013002018
:104FE0002DE9F84F0D461E4600213B4B93460468C1
:104FF00001601A789DF828709DF82C809DF93090FA
:105000009DF834A032B9A4F108015868BDE8F84F02
:10501000FFF7CEBF1A2204F1090015F0E8F90123C9
:10502000A372BBF1060F4FD8DFE80BF00433394E03
:10503000434E3D00E37A23F0130343F01303E3727E
:10504000012304F10E0241462846237547F6FF73FB
:1050500084F81890E38204F10D030EF099FAE37AD4
:105060005B0736D5BA1E04F11C03012A8BBFAA6860
:1050700032681168E2618ABFE161B28892889A80E1
:10508000E7760023237215492046BDE8F84F12F059
:105090008EBCE37A23F0150343F01503CFE7E37AE0
:1050A00043F01003CBE7E37A23F0120343F012033B
:1050B000C5E7E27A4AF01A0A22F01B020AF01B0A3C
:1050C00042EA0A02E272BBE740F22B413320FBF7CF
:1050D0009FFBFF23E376D4E740130020E15000005C
:1050E0002DE9F04705468EB00C4600200121FCF763
:1050F00081FB064620B940F2C7113320FBF788FB3D
:10510000A8300EF076FD18B196F85430042B2FD14C
:1051100030460EF0B6F858BBB84C04F1080704F15D
:105120000C08AE6A9EB92846FFF752FF02238DF89D
:105130000C608DF80D309DF80C30002063F30700F3
:105140009DF80D3063F30F200EB0BDE8F087A96A1B
:105150000B68B942AB624FF000030B704B708B7061
:10516000CB70DED04145DCD06068FFF721FFD8E787
:10517000AE6A36B3A24B9E4226D0043B9E4223D059
:1051800006F13B0A4FF0000805F0AEF88146B8F191
:10519000000F40F02E8104A950460EF0F7FAB9F145
:1051A000000F16D004F10D00EF7A17F0100713D09E
:1051B0009DF8207007993A460DF096F84FF00108D7
:1051C00028E005F1330ADDE74FF001084FF0000A4F
:1051D000DAE704F11C00E7E7002EEFD09DF810306D
:1051E000022BEBD0014695F83230E522504612F002
:1051F000F0F995F8323007460344504685F83230CE
:1052000012F0DFF995F83280A8EB000CDCF1000811
:1052100048EB0C08B9F1000F2CD1042305F1230150
:10522000237007F11803AA7A5343E270221D023358
:10523000637005F10B0353F8040B8B4242F8040B27
:10524000F9D195F814A095F8159005F08BF8C1F3F5
:10525000402150460191FFF791FE01996073B9F129
:10526000000F03D04846FFF789FEA073E7762CE0D5
:10527000C8460027EB7AD80601D45B213DE75907E1
:10528000AA7A95F80DE004F1060005F10E0C2FD571
:10529000E97EFE292CD11123E27084F805E0237009
:1052A00013010233637001232371D5F80E30C4F863
:1052B0000630BCF8043083802173EB69C4F80D30EC
:1052C0002B8CA4F811302B7EE3744C4F07F1080AA5
:1052D00056453AD12379022605F1280066F3461394
:1052E00023710EF071F92846FFF772FE04273FE0A4
:1052F00007F10A030321E27053432170023384F85B
:1053000005E06370D5F80E30C4F80630BCF8043000
:105310008380277327442B7E7B73EA7A12F0080080
:1053200002D004232371D0E702F00303032B01D141
:105330002071CAE7520701D50123F3E7022BF1D010
:105340000BB92171C1E7A221D7E607F10C094E453F
:1053500015D105F128000EF037F96A7D6AB9237975
:10536000042762F34613237102262846FFF730FE16
:105370008DF80C708DF80D60DDE60027F4E77EB344
:10538000B8F1000F26D005F1280840460EF01CF9B0
:1053900031467868FFF70CFEAB6A0022534585F86A
:1053A000322097D04B450BD12379404662F3461308
:1053B00023710EF009F928460226FFF709FE95E74A
:1053C0009DF81030022B05D12379012623F06803C4
:1053D00023718BE72379012666F34613237185E752
:1053E000EF7A17F01007C3D0237966F346132371C1
:1053F000E1E700287FF43CAF07460EE740130020AA
:105400004C130020343270B5054692B20C461E464D
:105410000DF0E0FC25B1034A556014745674147005
:1054200070BD00BF4013002010B5034C60680DF044
:10543000F3FC237C237010BD40130020014B587CEB
:10544000704700BF4013002038B5134D68680DF059
:10545000E9FC044620B940F247113320FBF7D8F9A4
:10546000D5E84F3F013BDBB2C5E8413F0029F7D10A
:1054700004F108033422184614F0B9FF47F6FF720E
:105480000121E462E283FF22627584F82320E27C3A
:1054900061F34612E27438BD4013002038B5436A08
:1054A000044693B90A4D68680DF0BCFC606220B9EF
:1054B0004FF4B0713320FBF7ABF9D5E84F3F013B18
:1054C000DBB2C5E8423F002AF7D1606A3B3038BD05
:1054D00040130020036810B504465BB1596A49B116
:1054E00001F10802934204BF00230360064B586891
:1054F000FFF75EFD216831B1034B08395868FFF7AB
:1055000057FD0023236010BD4013002038B5046808
:1055100005469CB11349204612F052FA124B002264
:105520001A735A739A73DA73EFF3108272B6A16A20
:105530000C3399B9A362E36202B962B62C68616A5E
:1055400049B101F108039C4203D0074B5868FFF7AB
:105550002FFD0023636200232B6038BDE16A0B60DE
:10556000E9E700BFE15000004013002070B5066875
:10557000044656B3716A154D41B101F108039E42CC
:1055800002D06868FFF714FD0023736221684E7D26
:10559000B6B100232B726B72AB72EB72EFF3108219
:1055A00072B6886A0A4B40B98B62CB6202B962B6A6
:1055B0002046BDE87040FFF7A9BFC86A0360F4E762
:1055C00008396868FFF7F4FC266070BD40130020BE
:1055D000481300202DE9F0470468914607460D4620
:1055E0009A469DF820209DF82C6024B94FF448710C
:1055F0003320FBF70DF9DFF8AC8198F80030ABB938
:10560000022E0AD006D9032E0AD03B685BB90020CF
:10561000BDE8F087FFF75EFFF7E7FFF777FFF4E7F6
:10562000FFF7A4FFF1E740F23D31E1E7636A0BB910
:105630004021DDE75E74CB687BB1097C238E0B448F
:1056400040F272618B4207DDFFF790FF3B68002B51
:10565000DDD040F25A31CBE723860123A3729DF9B6
:1056600028302376002E60D122756B691BB15B78E0
:10567000C3F30313A375EB6913B15B88A4F8193066
:105680002B78E27A581E4142414161F300029107B2
:10569000E2724CD4991E4A424A41E17A62F34101D6
:1056A000E17211F0020118BFB3FA83F1E37A18BF77
:1056B000490961F3C303E372AB681BB1E37A43F0BA
:1056C0000403E3722B6A13B193F90030E3756B683E
:1056D00043B104F10D0304F10E029DF82410284695
:1056E0000DF056FFAB688BB1A9F1020104F11C0269
:1056F000012995BFDAF800301968E361E16194BFD0
:10570000BAF804309B88938084F81B90AA6986B904
:10571000002A33D09378517803F01F0351EA032312
:105720002CD13846FFF7D6FE71E762759DE701225E
:10573000B3E70021636A197059709970D970A16A32
:1057400009BBA362E362AAB15378927802F01F0208
:1057500053EA02230ED1A26A88F8083088F809308B
:1057600088F80A3088F80B300C4B7AB9A362E362F0
:1057700000233B600A49204612F022F9636A43B9CC
:1057800040F2971134E7E16A0B60DBE7E26A1360ED
:10579000EDE70023012063623AE700BF48130020D1
:1057A000E15000004013002008B5431EDBB2032B7C
:1057B0000AD80E4A0428D35C03F10503DBB207D1F3
:1057C000980100F5C87008BDFD219E20FBF720F868
:1057D000032803D1180100F5BF70F4E702280BBFBE
:1057E000981D581D8000C000EDE700BF4020040058
:1057F000014610B504460E480BF0EEFE202884F852
:10580000170111D021460A480BF0E6FE202884F843
:105810001E010BD194F817010BF004FF20B940F2E0
:105820008F212120FAF7F4FF002010BD0120FCE7B2
:10583000153D0100014B1870704700BF510000205A
:105840007FB590F8143103F0FF0223B140F2B72185
:105850002120FAF7DDFF0C78039214F0010318BF42
:105860008D68CDE9012218BF0195A60707D504ADC3
:10587000CE6805EB83050133DBB245F80C6C650798
:1058800007D504AD0E6905EB83050133DBB245F89E
:105890000C6C013B114D80F81D314B68C0F8C830CD
:1058A000C0F8F83040F27123A0F8FC30032315F85B
:1058B000011B0C420BD004A900EB820601EB820114
:1058C000013251F80C1CD2B22B39C6F8CC10013B76
:1058D00013F0FF03EBD104B070BD00BF44200400FF
:1058E00090F823215F2A4FEA52112DE9F04F044628
:1058F00089B000F2A9808F4B0B4493F80790B9F15F
:10590000040F04D100234FF0030980F81F3194F9EC
:10591000213102F01F0294F822A1002B94F82131CA
:105920004AEA0222ACBF4FF01E084FF49678DB091A
:1059300008FB02FA14BF4FF4967B4FF01E0B08F0E1
:105940006DFFAAEB000708F0A5FF94F8212107EBF3
:105950000B03804612F0400F0193D04414BF322550
:105960004FF4FA7511F04FF9019B0544F62F03FB34
:1059700005F5714B05F5742505F23F25B5FBF3F5EB
:105980006DD994F8153103F0FF0A002B5FD148461A
:1059900009F04AFC674B4FF47A7203EB8903DF6826
:1059A00007F52243B133B3FBF2F3AB339B440BEB6C
:1059B000450B0BEB0006484609F036FC01904846C3
:1059C00009F03AFC8346494620460DF08DFFA7EBCF
:1059D0000B074FF47A728C30019B30448DF808A08D
:1059E0008DF811A0C31AB7FBF2F7DF1BD4E92C32F4
:1059F0000397843B42F1FF3213EB080342F10002AC
:105A00005B1B62F10002CDE906324C4B1878FE2890
:105A100003D094F854305A0701D40AF0FFFF8DF8F0
:105A2000100002A994F81701C4F8D870C4F81861DE
:105A3000DDE90623C4E92E230BF06CFE38B940F2F1
:105A4000B5612120FAF7E4FE4FF000095FE709F0A5
:105A50002BF90BF0D9FC012009B0BDE8F08F4846C6
:105A60004FF47A7A09F0E0FB324B03EB8903DF68ED
:105A700007F2E732B2FBFAF220325A4442442A4497
:105A80001618484609F0D0FB0190484609F0D4FBAF
:105A90008346494620460DF027FFA7EB0B078C30C5
:105AA000019BD4F8D8903044B7FBFAF7C31ADF1B38
:105AB000B94513D3A8F1100302A802945D1B94F812
:105AC0001C3103968DF81830022305958DF810309F
:105AD00000238DF81930FFF7E1F9BCE7174B93F875
:105AE00000A0BAF1FE0F03D094F854305B0702D443
:105AF0000AF094FF8246A7EB090750460CF04CF8D9
:105B00005146192F38BF1927874228BF0746384604
:105B10000CF088F808B100209EE7D4F8D80038448B
:105B2000C4F8D8008238C4F8E0000CF007F8002868
:105B3000C0D1F0E74020040040420F005100002097
:105B400001292DE9F34705468A4605D9022900F0C7
:105B5000A28040F6030150E0D0E92C4708F07AFE1D
:105B600095F8208106460AF00100414611F0CDFA71
:105B70008146404609F060FBB4F16E0347F1FF3700
:105B8000BAF1010F3CD1B8F1040F3CD0B8F1030FCA
:105B90003CD0B8F1020F0CBF4FF4A6744FF4FC7464
:105BA000F618534B03EB880347F1000716EB090681
:105BB000D5F810811B6A47F10007D8F81C9003F252
:105BC000E73318444FF47A73B0FBF3F0301A67F1FF
:105BD0000006041946F1000606F0A4FB05F1E803EF
:105BE000834216D04A46CDE90046D8E9720112F048
:105BF00058FE814523D240F27A312120FAF708FE7F
:105C00004FF4FC74CCE740F6E834C9E740F2864430
:105C1000C6E798F87D0090B1D5E93A7A06F0D8FB4E
:105C200030B9B8F9EC31A8F8EC01DF194AEBE37AA6
:105C30004A4638465146CDE9004612F032FE2D4B19
:105C4000D5F810211B6892F87E10834210D9D369D1
:105C500018440029D362D16A41F66A0318BF4FF491
:105C6000FA73411A138699420DD340F29571C4E735
:105C700031B16425B0FBF5F305FB1303C31AE8E764
:105C800040F2E245F6E7001946F10006C2E9720665
:105C900002B0BDE8F087D0F8103113B94FF4F461C9
:105CA000ABE7002683F8F06190F8201183F87410B8
