:020000040000FA
:10000000600E012025A70100C35A030011A70100BB
:1000100011A7010011A7010011A7010011A70100FC
:10002000000000000000000000000000C5A8010062
:1000300011A701000000000021A8010011A7010084
:10004000D9AA0100D9AA0100D9AA0100D9AA0100A0
:10005000D9AA0100D9AA0100D9AA0100D9AA010090
:10006000D9AA0100D9AA0100D9AA0100D9AA010080
:10007000D9AA0100D9AA0100D9AA0100D9AA010070
:10025000D9AA0100978A0300D9AA0100D9AA0100EE
:10026000D9AA0100D9AA0100818A0300D9AA0100F4
:10027000D9AA0100D9AA0100D9AA0100D9AA01006E
:10028000D9AA0100D9AA0100D9AA0100D9AA01005E
:10029000D9AA0100D9AA0100D9AA0100D9AA01004E
:1002A000D9AA0100D9AA0100D9AA0100D9AA01003E
:1002B000D9AA0100D9AA0100D9AA0100D9AA01002E
:1002C000D9AA0100D9AA0100D9AA0100D9AA01001E
:1002D000D9AA0100D9AA0100D9AA0100D9AA01000E
:1002E000D9AA0100D9AA0100D9AA0100D9AA0100FE
:1002F000D9AA0100D9AA0100D9AA0100D9AA0100EE
:10030000D9AA0100D9AA0100D9AA0100D9AA0100DD
:10031000D9AA0100D9AA0100D9AA0100D9AA0100CD
:10032000D9AA0100D9AA0100D9AA0100D9AA0100BD
:10033000D9AA0100D9AA0100D9AA0100D9AA0100AD
:10034000D9AA0100D9AA0100D9AA0100D9AA01009D
:10035000D9AA0100D9AA0100D9AA0100D9AA01008D
:10036000D9AA0100D9AA0100D9AA0100D9AA01007D
:10037000D9AA0100D9AA0100D9AA0100D9AA01006D
:10038000D9AA0100D9AA0100D9AA0100D9AA01005D
:10039000D9AA0100D9AA0100D9AA0100D9AA01004D
:1003A000D9AA0100D9AA0100D9AA0100D9AA01003D
:1003B000D9AA0100D9AA0100D9AA0100D9AA01002D
:1003C000D9AA0100D9AA0100D9AA0100D9AA01001D
:1003D000D9AA01006B8A0300D9AA0100D9AA010099
:1003E000D9AA0100D9AA0100D9AA0100D9AA0100FD
:1003F000D9AA0100D9AA0100D9AA0100D9AA0100ED
:10040000D9AA0100D9AA0100D9AA0100D9AA0100DC
:10041000D9AA0100D9AA0100D9AA0100D9AA0100CC
:10042000D9AA0100D9AA0100D9AA0100D9AA0100BC
:10043000D9AA0100D9AA0100D9AA0100D9AA0100AC
:10044000D9AA0100D9AA0100D9AA0100D9AA01009C
:10045000D9AA0100D9AA0100D9AA0100D9AA01008C
:10046000D9AA0100D9AA0100D9AA0100D9AA01007C
:0C047000D9AA0100D9AA0100D9AA0100F4
:10048000064A074BDB7802604FF43672C3710023D3
:100490008280082203728271704700BFE15101001F
:1004A000F8110020064A074B1B7902604FF4B47222
:1004B000C371FF238280082203728271704700BFDC
:1004C000934D0100F8110020054A064BDB7E0260C7
:1004D0007822C371022382800822037282717047DE
:1004E000FD0A0100F8110020064A074B1B7F02603D
:1004F0004FF40872C3710023828008220372827154
:10050000704700BF81070100F81100202DE9F74373
:10051000C41D0028064624F007040CBF0020204616
:1005200001F030F8071E04DA6FF00B0003B0BDE8ED
:10053000F0830EB9FC42F7D4374D6989288903311D
:100540006B7B03302A7B89B280B20FF0C0FC011EA6
:10055000EADB3C44AB78EA78002E04F10304134450
:1005600008BF002024F0030403FB01F118BF20465C
:1005700001F092F920440EB90028D5DB2B7904460E
:10058000B3B1697D19446B791944FF29CCDC033080
:10059000002E2A8AC9B220F003070CBF002038467B
:1005A00001F0EAF9041EBFDB3C440EB9002CBBDBB2
:1005B000012000F0DDFFC8B1A97BB9B195F82C305E
:1005C0000734002B24F0070715BF402325234FF4E1
:1005D00081722822002E14BF3846002003F084F8D0
:1005E000041EA1DB3C440EB9002C9DDBAB7CE3B1C7
:1005F0002B799BB10734002EA97C24F007070CBF90
:100600000020384607F0F4FD041E8DDB3C4466B93B
:10061000002C0ADA88E700BFF8110020012000F062
:10062000A7FF10B1AB7B002BE4D1744B1B6893B1D7
:10063000A97981B10334002EEA7C24F003070CBFB2
:10064000002038469847041EFFF66EAF3C4416B9AA
:10065000002CFFF669AF6A4B1B688BB1297D79B11D
:100660000334002E24F003070CBF002038469847BF
:10067000041EFFF659AF3C4416B9002CFFF654AFE8
:10068000604BD3F80080B8F1000F16D0697DA1B19E
:100690000334002E2B7E24F0030708BF00200093B4
:1006A00018BF3846EB7DAA7DC047041EFFF63CAF5D
:1006B0003C4416B9002CFFF637AF072000F058FF76
:1006C00098B1A97989B10334002EAA7E24F00307DA
:1006D0000CBF0020384601F03DFA041EFFF624AF9F
:1006E0003C4416B9002CFFF61FAFB6FA86F895F811
:1006F00025004FEA5818A0B1E71CEB7F297F27F0AF
:1007000007071944434647F00407C9B23A4601F0C7
:1007100063FA041EFFF608AF3C4416B9002CFFF63E
:1007200003AF95F82610002959D00734002E2A8DE2
:1007300024F007070CBF002038460FF0DDFB041E35
:10074000FFF6F2AE3C4416B9002CFFF6EDAE1EB13A
:10075000298D38460BF032FF95F82010002940D043
:1007600095F82430002B3CD06A8C0734002E02F11F
:10077000240224F007090CBF0020484692B20FF073
:10078000BBFB071EFFF6D0AE4F4416B9002FFFF695
:10079000CBAE0337AB7F297F27F0070795F82400FE
:1007A0001944434647F00407C9B23A4601F006FA35
:1007B000041EFFF6B9AE3C4416B9002CFFF6B4AEE9
:1007C0003EB16A8C484695F82010083292B20CF07F
:1007D00075F92B6B5BB176B12C630020A6E60F4652
:1007E000B5E7002EF5D0002211461046EFE7002EA7
:1007F000F3D120469AE62834FBD595E6AC000020DC
:10080000B0000020B40000201FB572B6194B5D6B1C
:10081000E5B9BFF34F8F1849184BCA6802F4E0627C
:100820001343CB60BFF34F8F00BFFDE7B4FBF6F47B
:10083000D3B20132002CF9D103F110026A4402F85C
:100840000C4C0A2233B901A8A847E2E7044600226B
:100850000A26EDE7013BDBB203F110040DEB0406C1
:10086000B0FBF2F402FB1400303006F80C0C20460A
:10087000E8E700BFF811002000ED00E00400FA05F1
:1008800013B5114C6846637B8DF80130237B8DF8DE
:1008900000306389ADF804302389ADF8023005F0EB
:1008A0000FFB18B1E8219C20FFF7AEFF207E05F07A
:1008B00037FB08B1EB21F6E7E07D05F02BFB08B133
:1008C000EC21F0E702B010BDF811002037B5054665
:1008D000002859D00EF022FC20B94FF0FF342046FA
:1008E00003B030BD0DF04CF8B0F5FA7FF5D8284CC8
:1008F00028486563002500F0B5FD2A222946A01C82
:1009000084F83850257084F82C50256384F83950C9
:1009100016F0D6FA40F2011301212A4663801B2308
:10092000217108462381638140F20323A176A381CC
:100930000323A3731F2323824FF40273638244F6BD
:100940000113E382F7236384FB23238594F83B3070
:10095000009394F83A3004F009FD014620B14FF4B9
:1009600060719C20FFF750FF04F026FD044610B193
:1009700040F28531F5E7EFF3108572B601F078F9B2
:10098000002DACD162B6AAE76FF01504A7E700BF4F
:10099000F81100208108000037B51446002840F007
:1009A000D7806D4D95F83830032B00F0CE80C1B163
:1009B0001AB96FF0150003B030BD0139162900F2E5
:1009C000C780DFE801F00C1D20355F68863B6B6E49
:1009D000804147555A8C8F9DA0A395A6AA001378F5
:1009E000AB700020FFF792FD0028B7BF0123022360
:1009F0006FF00B0085F83830A8BF85F83830DAE79B
:100A00001378EB70EDE71379002BD2D05379002BDC
:100A1000CFD01288FB2ACCD81A2A6388C9D91B3BAD
:100A2000E02BC6D82368A288AB604C4B9A80D8E7ED
:100A300013786A799342BCD32B71D2E713782A7961
:100A40009342B6D86B71CCE713782A799342B0D829
:100A50006B75C6E71378002BABD05378013BDBB244
:100A6000F82BA6D813889278EB823D4B9A70B8E7A2
:100A7000107868760AF072F9B3E71378002B98D0F3
:100A8000AB76AEE7012000F073FD237808B1012BAF
:100A90008FD9AB73A5E713882B82A2E71378AB71CC
:100AA0009FE7072000F064FD10B92378012B80D95F
:100AB000072000F05DFD18B12378002B3FF479AFDB
:100AC0002378EB748DE71378082B3FF672AF2B7504
:100AD00087E71388FF2B3FF66CAFAB7481E7137881
:100AE000EB767EE713780E2B3FF663AF2B7778E734
:100AF00023681C4A2B62636853602389138170E763
:100B000013786B776DE71378EB776AE71378AB7739
:100B100067E7137885F82A3063E795F83B3095F856
:100B200039200093617895F83A30207804F01EFC63
:100B300000287FF440AF6378012B7FF652AF0BF0B3
:100B400023FD00287FF44DAF33E74FF0FF3032E74D
:100B50006FF02C002FE700BFF811002000120020DA
:100B60000E12002018120020F8B50D46064630B3CC
:100B700029B311F0070422D1124F97F83830012B16
:100B800002D16FF00B00F8BD032B02D14FF0FF3004
:100B9000F9E700F0C5F80028F8D02846FFF7B6FCC2
:100BA0000028EEDB14F0D1FC3046396B05F0E2FA98
:100BB000FFF766FE0323204687F83830E3E76FF03F
:100BC0001500E0E7F811002010B5074C94F8383014
:100BD000032B03D105F0EAFA06F056FB0FF019FBE0
:100BE000002084F8380010BDF811002050B1074BE8
:100BF00003F1140253F8041B934240F8041BF9D18B
:100C0000002070476FF01500704700BFBCCA03009A
:100C1000074B10B593F838403CB905F057FA03205C
:100C2000044900F09DFC204610BD4FF0FF30FBE76B
:100C3000F8110020A5040000074B10B593F83840C8
:100C40003CB905F057FA0220044900F089FC20461F
:100C500010BD4FF0FF30FBE7F811002081040000C9
:100C6000054B10B593F838401CB905F0D3F9204670
:100C700010BD4FF0FF30FBE7F8110020054B10B519
:100C800093F838401CB911F0A5FF204610BD4FF075
:100C9000FF30FBE7F8110020054B10B593F8384002
:100CA0001CB911F09AFF204610BD4FF0FF30FBE752
:100CB000F8110020054B10B593F838401CB911F01D
:100CC00016FB204610BD4FF0FF30FBE7F811002067
:100CD000094B10B593F838405CB905F02DFA074977
:100CE000082000F03DFC0920054900F039FC2046B1
:100CF00010BD4FF0FF30FBE7F8110020C9040000E1
:100D0000E904000002680020014B1A60704700BF30
:100D100034120020014B1B68184700BF341200201A
:100D2000024B1868003818BF0120704734120020A9
:100D3000F7B504462D4E071D2C48376006F0BCFA67
:100D40000228054606D1294920460EF0ACFC28466B
:100D500003B0F0BD042842D13378092B0AD0262BEA
:100D60001ED03146204600F043F8B0F5817F2DD3E8
:100D7000722112E005213E200EF068FC0028F0D11F
:100D8000F37801A93279684643EA0223ADF80030CE
:100D90000EF054FE0028CFD053210820FFF734FD79
:100DA0001A213E200EF052FC0028DAD17368694601
:100DB00001A8C3F30F23ADF8043011238DF80630DA
:100DC0000EF064FE0028B7D06521E6E70028B3D016
:100DD000A17820780EF03AFC0028B8D1ACE70828BA
:100DE000B5D1024920460EF096FCB0E7381200203B
:100DF0002DE9F8430B7805460C46013B832B00F2A6
:100E0000C782DFE813F09A009E00A2005301C502DA
:100E10001B01210127012D0133013701390149014E
:100E20004F018400C502A700C502AB003D0143018C
:100E30005D0163015701C5026901C5027C01AC0176
:100E4000B201B801C502BE01CA01D001C50200024B
:100E50000E026202400254025C0246024E0214027A
:100E60001A02200226022C02320236023A029D02A7
:100E7000A302B102B70268026E028C027402C502BC
:100E8000C502C502C502C502C502C502C502C5022A
:100E9000C502C502C502C502C502C502C502C5021A
:100EA000C502C502C502C502C502C502C502C5020A
:100EB000C502C502C502C502C502C502C502C502FA
:100EC000C502C502C502C502C502C502C502C502EA
:100ED000C502C502C502C502C502C502C502C502DA
:100EE000C502C502C502C502C502C502C502C502CA
:100EF000C502C502C502C502C502C502C502C502BA
:100F0000C502C502C502C5027A02800286020E230E
:100F1000B1F803200B7042F283039A4209D10623F1
:100F20006370667821462846023632460EF0CAFAC9
:100F30005AE03521C720FFF767FC0C230B7008230C
:100F4000EEE71A230B700123EAE73E230B7002231E
:100F5000A370E6E73E230B700B23F9E7292000F08E
:100F600071FA28B13E232370222363702923EFE70F
:100F70000A2000F067FA3E2305F1080204F1080197
:100F80002B70A0B30A23AB70E378EB70A3882B71AE
:100F9000A3881B0A6B71A379AB71E379EB71A3682A
:100FA000AB608B8893801F22D4F80E30C5F80E30CA
:100FB000638A6B8263696B61238B2B83638BAB7654
:100FC000638B1B0AEB76A38B2B77A38B1B0A6B77A8
:100FD000E38BAB77E38B1B0AEB7794F8203085F833
:100FE00020306A70023296B23046BDE8F8830123A1
:100FF000AB70E378EB70A3882B71A3881B0A6B712D
:10100000A379AB71E37903F00103EB71A368AB60E3
:101010008B8893801322638BAB73638B1B0AEB73F8
:10102000A38B2B74A38B1B0A6B74E38BAB74E38BC6
:101030001B0AEB7494F820302B75D2E73E230B701B
:1010400004234B70142383E73E230B700C234B7057
:1010500004237DE73E230B700A234B70032377E7BD
:101060003E230B700D234B70052371E7052323707E
:10107000042355E70823FAE730230B7003234FE7D7
:101080003E230B700B234B70072361E73E230B704D
:1010900006234B700C235BE713230B708B789B00AC
:1010A00001333DE757230B70022339E73E230B70D2
:1010B0000D234DE73E230B7001234B70112347E7AF
:1010C0003E230B7006234B70122341E73E230B7027
:1010D00009234B7013233BE73E230370242000F0C9
:1010E000B1F9002815BF24230E2313260F263246FC
:1010F000A11CE81CAB700EF0E5F9721C71E73E23F1
:101100000370252000F09EF9C0B125230A26AB709C
:10111000D4F80230C5F80330D4F80630C5F80730EB
:101120006389A5F80B30F01CE27A04F10C01284425
:101130000EF0C8F9E27A0132324452E70F23072653
:10114000AB706388A5F8033023796B716379AB7159
:10115000A379EB71A37A2B72E37A6B72E3E73E23F8
:101160000B7003234B701023F2E63E230B70052314
:101170004B702023ECE63E230B7009234B70212398
:10118000E6E63E230370262000F05CF9002815BF38
:101190002623182317261326A9E73E230B700423C2
:1011A0004B702723D4E63E234FF00008814603709E
:1011B000282346468370D1F8023049F8033FAA79C4
:1011C0005FFA88F39A4205D8721D92B2002A3FF462
:1011D000A8AE06E7B21D331D08F10108A118A258F8
:1011E00009EB030049F80320063131F8023C0630D0
:1011F00020F8023C10F8017C3A4606370EF062F9FE
:101200003E44B6B2DBE73E232A200B7000F01AF909
:1012100018B12B2363702A239AE61D2363701923C8
:1012200096E63E230B7007234B701A2390E63E236D
:101230000B7020234B702C238AE63E230B704C232B
:101240004B702D2384E63E230B7004234B702E231A
:101250007EE63E230B7022234B702F2378E63E233D
:101260000B7016234B70302372E63E230B70312334
:101270006EE63E230B7032236AE63E230B70022398
:101280004B70332364E63E230B7014234B702223F0
:101290005EE63E230B700B7C5B000F334B701D230F
:1012A00056E63E230B7003234B701E2350E63E236D
:1012B0000B700B7D5B0013334B701B2348E63E2302
:1012C0000B7003234B701C2342E63E230B70052357
:1012D0004B701F233CE6FF230B700B234B70A223A4
:1012E00036E6FF230B7005234B70A32330E6FF2364
:1012F0000B700D234B7080232AE6FF230B700D2308
:101300004B70822324E6FF230B7002234B70832350
:101310001EE6FF230B7004234B70842318E6FF2383
:10132000C21C037081238370D1F8033003F12801BC
:1013300053F8040B8B4242F8040BF9D1292250E6F2
:101340003E230B700C234B70232301E6124B1B78BA
:10135000002B14BFFF233E230B704FF00E034B7086
:1013600014BF85233723F3E53E230B700A234B700C
:101370003523EDE5084B1B78002B14BFFF233E23DC
:101380000B704FF0FE034B7014BF86232B23DFE559
:1013900040F26221CEE500BF3C130020074B4FF026
:1013A000FF3141F6FF72C3E9001205490022C1E98D
:1013B00000221F21C3E90212704700BF4000002035
:1013C000401300203F280CD801380B4BC0F34212C9
:1013D00000F01F0053F8223023FA00F000F0010063
:1013E0007047FF2806D04038044BC0F3421200F08B
:1013F0001F00EFE70120704740000020401300204D
:10140000074B0146006849681A4603C240F48C2223
:101410001A6041F0107242F4FF625A60704700BFD8
:10142000400000200246024B0068516803C3704729
:10143000401300200246024B0068516803C3704706
:10144000480000200138064BC0F3421200F01F0094
:1014500003EB82039B6823FA00F000F00100704761
:1014600040000020014B1860704700BF4813002067
:1014700007B5FFF793FF10F028FB044B1B6813B16F
:1014800001909847019803B05DF804FB48130020D1
:1014900070B50C88C27CA6B2C4F30E04931C0588F8
:1014A00004F118021D44825AADB21A4443882A44FA
:1014B000013AB2FBF5F202FB054292B29342044BB1
:1014C0008BBF3340B34313439BB20B8070BD00BF4F
:1014D0000080FFFF08B54B1E062B04D84FF4D171D6
:1014E0001520FFF791F90A4B994202D940F2A31156
:1014F000F6E719B900B10160084608BD28B10368D4
:101500000022C3E901211A1D1A600431F4E700BF6B
:10151000FAFFFF7F10B5114B00EB41041A78638985
:10152000B3FBF2F303FB0223013A1A44B2F5706FE6
:10153000027928BF00231A448378B2FBF3F01944E0
:1015400003FB1020091AB1FBF3F003FB1013134443
:101550006FEA43436FEA5343638110BD4C1300208D
:10156000024B03EB80004160704700BF4C1300202A
:10157000034B03EB80004068003818BF0120704720
:101580004C1300202DE9F04F10F0070A85B00546F6
:1015900004D040F261111720FFF736F9544F04468A
:1015A0004FF0010B07F15406B146B04657F8043B23
:1015B0008DF80BA03BB101A898479DF80A30082B85
:1015C00001D9E821E7E79DF80B1081BB05B1316037
:1015D000B94506F10406E9D12DB30023DFF814E183
:1015E00014221E468EF8003058F82200013A60B1ED
:1015F00090F804A08178BAF1FF0F64D14FF0000792
:101600008E4207713CBFCEB20123511CECD10BB10D
:101610008EF80060142640F6FF6A58F82670002FF6
:1016200063D1013EF9D2601B05B0BDE8F08F9DF893
:101630000AC04A1DBCF1020FE64604EB420438BF63
:101640004FF0020E53000EF1FF300444CEF10000C3
:101650002040BDF808406444CCF1000C013C04EA91
:101660000C04B4F5803F01D3F82194E775B1C31A97
:10167000336099701C8083F803B09DF80C201A71B8
:10168000019A4FEA124C1A81A3F806C004FB010428
:101690009EE758F82C90B9F1000F06D099F804B0E5
:1016A000D34504BF99F802904F440CF1FF3CBCF1C4
:1016B000000FEEDA3944FF29A2D90BB18EF8006091
:1016C00040F2271167E794460027F0E707EB410354
:1016D00009F101093846A3F80AA0FFF71BFF5FFADA
:1016E00089F1BB788B42F1D89BE74FF00009F6E710
:1016F000501300204C130020F8B54FF6FF73054639
:101700000380184B03EB8101886DB8B186780379AB
:10171000B3FBF6F206FB1233DBB219460A1D00EBEF
:101720004202B2F902705488002F09DB0131B1FB8B
:10173000F6F206FB1211C9B28B42EFD10020F8BDC0
:10174000FF29FBD0C4F30E03C4782B8024B94FF4D7
:10175000D5711720FFF758F85380BDE8F8400EF018
:1017600086BB00BF4C1300201D4B03EB810170B5FD
:101770008C6D054644B3030404D54FF4DC71172087
:10178000FFF742F8014620460EF054FBFF280146C1
:1017900004D02046BDE870400EF069BBA078B5FBD0
:1017A000F0F300FB1353DBB219460A1D04EB4206AB
:1017B000B6F90260002E09DB0131B1FBF0F200FB4B
:1017C0001211C9B28B42F0D1002070BDFF29FBD0AD
:1017D0008B4204EB42021CBF0023E3705580D8E724
:1017E0004C130020094B03EB810110B58C6D0146B1
:1017F00020460EF01FFBFF28014604D02046BDE81E
:1018000010400EF034BB002010BD00BF4C13002070
:10181000F8B5104B074603EB81018C6D014620465D
:101820000EF008FBFF28054611D0E688238953EA0D
:10183000064606D0014620460EF019FB0146384602
:10184000B04720462946FFF765FE0020F8BD052079
:10185000FCE700BF4C13002038B50E4B04468279DC
:1018600003EB8203986D08B9052038BD8278E179D1
:101870009142F9D24B1CE37100EB41035D89B3F94E
:101880000A30002BF3DBA5800EF0F1FA2060002077
:10189000EBE700BF4C13002070B5044610F00300C6
:1018A0000E4603D04E211820FEF7AEFFFFF712FEC2
:1018B000054624B1034831460460FFF70BFE284675
:1018C00070BD00BFF81300202DE9F3471C4C904673
:1018D0001E46074622680D469DF828309DF82CA02C
:1018E0001AB960211820FEF78FFF1A4609214046D9
:1018F00001930EF021F952461FFA80F90921304672
:101900000EF01AF980B209EB000120680EF067FAB8
:10191000019B386018B9286002B0BDE8F08700EB81
:101920000904414609222C6038680EF0C9F8534674
:1019300009223146286802B0BDE8F0470EF0C0B871
:10194000F813002070B50E4604460EF008F905465F
:1019500030460EF004F9044B2A1821461868BDE8F9
:1019600070400EF060BA00BFF8130020014B1868F9
:101970000EF029BAF81300201F2AF8B504460ED835
:101980009200033222F00303B3F5803F2ED2194DAB
:10199000B4B1A00711D05F210920FEF735FFFF2A5F
:1019A0004FEA420304D9FF329A42A8BF1A46E8E739
:1019B0007C2BB8BF7C231A46E3E729706C602B812F
:1019C00022F0030228230127120403FB01F06B68B5
:1019D0000025120CEEB28E4200D3F8BD14B12618C9
:1019E0001F705E60104401352833F3E74FF0FF307D
:1019F000F3E700BFFC130020144A002138B55368F8
:101A00001478C8B2844203D8AB210920FEF7FCFE4B
:101A10001846013128330578002DF2D0002181705D
:101A2000012412898161051D44709208C16100F191
:101A30002001446821F8022B994245F8044B1444D4
:101A4000F8D100234361037038BD00BFFC130020B0
:101A50000A4B1B89B3F5FF7F4FEA930006D25A0861
:101A60009B1A9BB2984238BF18467047B3F5EE6F89
:101A700001D8FF22F4E740F27263F3E7FC13002081
:101A80002DE9F8434B7880460C4602F0040602F03C
:101A9000FB07D3B1DFB12E4BD4F804901D89B7BB3F
:101AA0000123AD084A46211D637004F1280004F1AA
:101AB0002003A761E76123F8025B984241F8042BF9
:101AC0002A44F8D10023636101E0002FE3D0FF2313
:101AD000A370002E18BF0226A3191B7D032B03D170
:101AE000022F1CBF0136F6B2A31901221A7506F1A6
:101AF0000C02002304EB860624F812307268A370EF
:101B00004046C8F80020A8F80430BDE8F88300215A
:101B100014226170A01815F0D3F9B5F5FF7F0FD22C
:101B20006B08ED1AADB209EB0502C4F804902584E8
:101B3000A2606384C4F80C90A5842261E384C6E7A4
:101B4000B5F5EE6F4FF0FF03EBD940F27265EAE7AF
:101B5000FC1300202DE9F84305460C46F72005212B
:101B600091460DF0E9FF061E22DB1DB906FB04F0CD
:101B7000BDE8F88315F0030703D098211920FEF77C
:101B800043FEDFF83480C8F81050A5B2A8F81460FE
:101B9000BBB29D42EAD9B8F814C04B46D8F8100041
:101BA0000522F72107FB0C0001370DF089FFEFE755
:101BB0004FF0FF30DCE700BF1014002007B5CDE97F
:101BC00000230B4603490246081D0EF0CFFA03B06E
:101BD0005DF804FB2814002013B5064CCDE9002362
:101BE0000B46024604F1080104F10C000EF0BEFAA7
:101BF00002B010BD28140020024BD3E900210EF0E2
:101C0000DBBA00BF28140020034B1B28D3E90221B4
:101C100038BF1B200EF0D0BA28140020024B01461A
:101C2000D3E900200EF0FFB828140020024B014633
:101C3000D3E902200EF0F7B82814002008B54B1E97
:101C4000032B03D923219020FEF7DEFD002801F1AC
:101C5000010114BF0C230523C9B203EB8101034B1F
:101C6000013121F00101197008BD00BF38140020B6
:101C70001E4B01224FF0FF3000211B685A60C3F851
:101C80000803C3F80015C3F80425194B1B685A60F4
:101C9000C3F80803C3F8001540F6FE71154B16484B
:101CA000C3F8081501680BB2002B0BDB01F01F0114
:101CB0005B098A402033114941F82320BFF34F8F3D
:101CC000BFF36F8F026813B2002B09DB01215B09A0
:101CD00002F01F02603301FA02F2084941F82320A2
:101CE000044B40F6FE72C3F808257047CC23002051
:101CF000C823002000200850E023002000E100E07D
:101D00000A4606483C2302F8033BC368C1F8033087
:101D10000369536043699360704700BF401400201B
:101D2000024B5A8C02435A845B6A184740140020C5
:101D3000014B00215B6A18474014002010B5154C78
:101D400009F0CCFF09F09EFA208DFFF7F1FF237E0A
:101D500063B12246104904F1190052F80C3BE360CC
:101D600063685360A368936011F044FE0B4B228DAF
:101D700093E8030006F0C4FA236B188806F0ECF928
:101D8000A36B94F8341094F835009847002384F836
:101D90003C3010BD40140020011D00006C140020D8
:101DA000034B93F83C300BB1FFF7C8BF704700BF3F
:101DB0004014002070B5254C0646636C256B2364E7
:101DC00095F8943094F848000BB1031DD8B295F8FB
:101DD00075102EB9FF2803D195F874308B4201D0CD
:101DE00009F004FE95F8943053B3E06C0AF058F80B
:101DF00094F82C30E16C003B206C18BF012384F870
:101E00007030D5E93C23C4E9182309F053F95EB9D1
:101E100095F87530033B012B2B8F94BF28200020B1
:101E2000184480B20AF082F8A88E09F085FD95F872
:101E3000741000200AF0DAF8022384F83C3070BDF8
:101E4000206C0AF02DF809F01DFAE0E7401400209C
:101E50000138C0B2032808B504D94FF48E610620BA
:101E6000FEF7D2FC014B185C08BD00BFD4CA0300CA
:101E700008B5094B93F83C20022A04D040F23121E6
:101E80002720FEF7C1FCDA7A42F00102DA72BDE8DF
:101E90000840FFF753BF00BF4014002003280B4B3E
:101EA00010B5044605D19A6FD278022A01D10020DC
:101EB00010BDD86F0DF0D2FE0028F9D1032CF6D05A
:101EC00004F0B0FB80F00100C0B2F1E74014002044
:101ED00038B5204C0546D4F88030984708B9012021
:101EE00038BD94F83430002BF9D194F82C301BB95C
:101EF000012D03D00020F3E7002DFBD194F88430AE
:101F0000DD06C3F3001005D5A36F187800F00300B9
:101F1000FFF7C4FF636CD4F888201B78C3F3001369
:101F20002AB9B4F88C2013B1B2FA82F35B0994F8A1
:101F30002C10628C39B1910705D5A36FD87802387F
:101F400018BF0120CCE7002AC9D10028D2D183F0E4
:101F50000100C5E74014002010B5094CD4F88830C2
:101F600023B940F2CE412720FEF74EFCB4F88C2076
:101F70001846216C03320DF0A5FA206410BD00BF95
:101F8000401400202DE9F043344C87B006460F463C
:101F900094F83C30012B5FFA83F904D040F2DC4125
:101FA0002720FEF731FC256B04A8A16F0EF033F952
:101FB00095F884309DF8108053B10021042085F8F5
:101FC0008410FFF7ADFE94F82C300BB185F88690A5
:101FD000B8F1030F3BD195F88A301BB9A16F0220ED
:101FE000FFF79EFE032300E0012385F88A3095F871
:101FF0009430D3B194F82C30216B003B94F84820F6
:1020000091F8750018BF01230392D5E93C8984F843
:102010007030C4E91889FFF71BFF00210346039ABB
:10202000009102200E4908F0DDFF26B107B0BDE89F
:10203000F043FFF783BE002FF8D03046FFF748FF8C
:102040000028F3D107B0BDE8F043FFF7B3BE9DF819
:102050001430002BC8D00223C7E700BF4014002073
:10206000901400202DE9F341744C0023256B8DF86A
:10207000053095F8942094F848300AB10433DBB267
:1020800095F8741028B9FF2B03D195F875308B4261
:1020900002D0FF2009F0AAFC95F88A30032B00F249
:1020A000BF80DFE803F0023A9CAF94F88E306448BA
:1020B000ADF80630A5F8643004F08AFA80B1A16F5B
:1020C0004FF48070FFF72CFE0121A36F85F8851077
:1020D000DB781B2B1DD105F1100009F0C1FC18E0C5
:1020E0000DF105020DF10601E06F0DF05FFDA06737
:1020F00098B195F8CF3083B99DF805302BB903809E
:1021000001218370A06F11F00CFBA36FBDF80620B6
:102110005A70012384F88F3001E04A4BA367A16F06
:1021200095F88B200B78D20003F0030603F0F3033D
:1021300002F008023046134395F88C20920002F01A
:102140000402134323F010030B70FFF7A7FE0028CF
:10215000A06F14BF10230023027890F8018013436E
:10216000037011F0EFFA95F89330071E18BF01279E
:10217000002B58D0B8F1000F55D0E06C09F090FE5C
:1021800094F82C30E16CB3FA83F3A06F5B0984F808
:102190007030D5E93A23C4E918233A460AF0C6F864
:1021A00018B9A16FE06C08F085FF30460EF054F8C6
:1021B000E88E09F0C1FB95F87510012009F016FFB3
:1021C000A26F0123118884F8E030A4F8841091787C
:1021D0001D4A84F83C30917002B0BDE8F081B5F83A
:1021E00064300DF105020DF10601E06FADF8063027
:1021F0000DF0DCFCA06700288BD140F2D121272014
:10220000FEF702FB0E4804F0E3F910B940F2DB21BF
:10221000F5E7A36FDB781B2B7FF47BAF01215AE737
:1022200040F2E921EBE7A06F09F03AFE09F02AF845
:102230003946A06F13F0EAF9B7E700BF4014002059
:10224000B8140020D0140020C4140020064B10B590
:1022500093F83C2002F0FF0422B91C7606F048F8FF
:10226000204610BD0C24FBE7401400200A4B0B4A0B
:1022700070B506460D461A60FFF7E8FF18B1ED216C
:102280002720FEF7C1FA064C012104F1900011F05D
:1022900048FA6664E56470BDB8000020242A000096
:1022A00040140020024B012283F8E120704700BF58
:1022B00040140020F0B585B0954C02AE0A9F86E828
:1022C000030094F83C1001F0FF0511B90AB103B105
:1022D00027B94FF4BE712720FEF796FA96E803005F
:1022E00004F12C0C84F8E15084F8345084F8E25066
:1022F00084F8355084F8E05084F88F506584258543
:102300006262C4F88030A7638CE80300256B09F093
:10231000C9FB08F0B7FF95F97C0009F027FCA86A13
:1023200009F0A2FD286A09F027FC95F8A40009F03D
:102330002DFC94F82C00002840F0A38095F8742020
:10234000744B03EB820359684FF47A7301F5FA7109
:10235000B1FBF3F16E3109F0ADFC6F4B6F4E05F53B
:102360008477186809F086FD6B69E367AB69C4F888
:10237000E43005F1F8031868083353F8041C3246BA
:10238000BB4203C21646F6D15968D5F80801236B43
:10239000634A03C293F88E2093F87400A2F12601D9
:1023A000012903D993F88F10262972D194F82C2093
:1023B000002A6BD193F80A120DF03EFF064605F194
:1023C0003C073146384611F0D7FB314610F073FE1A
:1023D000B5F8483095F87510984228BF184684F82B
:1023E0008E00384611F08EFB95F8751095F89470B4
:1023F0000429B5F8506008BF032110F05CFE0FB946
:10240000043080B2B04228BF3046C6B284F8E860DB
:1024100005F06AF828B105F06DF8B04238BF3046D3
:10242000C6B294F82C7084F84860002F55D195F806
:1024300093308BB1012395F8740084F87030D5E99E
:102440003A23C4E91823FFF703FDFB22034633496F
:102450000420009708F0C6FD0120FFF703FE0023CB
:1024600023606360A360B5F8883063802B88238085
:1024700095F8A4302371AB6F0BB101221A6005B03F
:10248000F0BD95F87520C421012064E793F8A212ED
:1024900092E7213A012A0ED824290ED094F82C2054
:1024A000B2B193F82E315A0710D413F0010183D141
:1024B00003F0020180E724290AD194F82C203AB1D4
:1024C00093F82E2193F86D301340ECE7042173E765
:1024D000032814BF0646042671E795F8943093B19B
:1024E000012395F8750084F87030D5E93C23C4E9E0
:1024F0001823FFF7ADFC0022034608490092022092
:10250000324608F06FFD0120FFF754FCA7E700BF3B
:1025100040140020D4CA0300B8000020901400200A
:10252000A814002008B5114B93F83C201AB9BDE857
:102530000840FFF703BC93F82C2042B993F83C30D5
:10254000012B12D040F20F212720FEF75DF993F8FE
:102550003C20022A02D040F21321F5E71B6BD3F88E
:10256000E001BDE8084009F0B5BC08BD40140020FA
:10257000014B1876704700BF40140020014B93F8C0
:10258000E000704740140020044B93F88F201AB9E4
:10259000188DC0F3003070470120704740140020B0
:1025A000024B188DC0F3C020704700BF40140020BC
:1025B000014B93F8E2007047401400202DE9FF41E1
:1025C000324C03460E4602A8216C256B0DF023FE0B
:1025D00013F001089DF80C7003F002002BD00023CB
:1025E00084F8E93090B1FFF7B7FC0DF1020201A9C0
:1025F000D4F8E4000DF0DDFB01980DF0C0FB0122E2
:1026000030603946D4F8E4000DF068FBB8F1000FF3
:102610000ED0D5E93C32013342F10002C5E93C322B
:1026200095F88C30012B0CBF0023012385F88C30EA
:1026300004B0BDE8F08194F8E930032B20D801A262
:1026400052F823F0E5250000552600006F26000013
:102650006F2600000028EBD0FFF77EFC00223946F1
:10266000D4F8E40004B0BDE8F0410DF037BB002819
:10267000DED0D4F8E40004B0BDE8F0410DF095BB25
:1026800040F27A412720FEF7BFF800BF4014002037
:102690002DE9F04F0023B24C87B080468A46276B65
:1026A000CDE9023394F83C30022B04D040F25F5164
:1026B0002720FEF7A9F8238D590606D44020FFF7FE
:1026C00037FB238D43F040032385216C04A80DF0D4
:1026D000A2FD9DF8146097F89430B8F1000F00F057
:1026E00045819DF810909DF811B07BB108F0D8FDA0
:1026F00060B95EB197F88C305B4507D1012384F84F
:102700003530FFF71BFB07B0BDE8F08FB1B2A4F87E
:102710008C10F9B1D4F8E4000DF0C1FAC4F88800C7
:10272000238D9DF8122043F40073238597F88B3096
:102730009A4200F0BD80256B95F88A30002B40D07E
:10274000022B11D102A9E06F0DF052FA28B940F224
:102750001441ADE7C4F88810E2E7D5E93A32013315
:1027600042F10002C5E93A32002194F82C3085F894
:102770008A103BB195F8863023B1102085F8861079
:10278000FFF7CEFA95F885309BB1002185F88510CA
:1027900003F030FF002110B940F22B4188E70820F8
:1027A000FFF7BEFAD5E93A32013342F10002C5E93A
:1027B0003A3295F88B30012B0CBF0023012385F8AA
:1027C0008B30238D002543F40063238597F88C30EC
:1027D0005B456FD0002648464FF000090DF03CFDE8
:1027E00097F89330B3B194F82C3097F87400B3FA9B
:1027F00083F35B0984F87030D7E93A23C4E91823DE
:10280000FFF726FB00220346564900920420FB22D4
:1028100008F0E8FBBAF1000F00F0D18009F030FCBD
:10282000002E40F0F2804FF0010985B194F82C3071
:1028300043B1B4F80720B4F805301343B7F8882043
:10284000134304D0B4F809300133A4F80930B8F1C7
:10285000000F00F0E080B4F805300133A4F8053033
:10286000002384F8E230404805F064FC029830B15F
:102870000DF085FA216B0022027204F061FD039BCA
:1028800033B1216B00221A720C22039804F026FD4A
:10289000B9F1000F7FF435AF238D1B063FF533AF41
:1028A0008020FFF745FA238D43F0800323852AE734
:1028B00045468BE7B9F1020FD4F830B025D8B9F10D
:1028C000000F2FD076B3238D9BF894B043F4805340
:1028D000238509F041F8042894F8E83007D1BBF1CA
:1028E000000F14BF1B221F22934228BF1346B3427E
:1028F0002AD3D4F88830002B3FF46CAF94F8E13041
:1029000063B32020FFF714FA64E7B9F1030F09D18C
:10291000238D0120216C43F480538BF884002385A0
:10292000FFF7FEF99BF88C30013B18BF01238BF8B1
:102930008C30002E3FF44EAFDBE93C32013342F1E4
:102940000002CBE93C3245E794F83430012043F0F3
:10295000100384F834300BF03FF93BE746463AE782
:1029600040140020901400206C1400200BB108F0DB
:10297000ABFC94F8E230013384F8E230238D43F469
:102980008063238597F87530033B012B0FD8012016
:102990000BF022F908F0E0FF04280CD11B2E4FF0B9
:1029A000000694BF4FF000094FF0010905E004F064
:1029B0009BFD0028EBD10026B146354610E794F880
:1029C0002C2094F8E2303AB1628C120704D5A26F41
:1029D000D278022A3FF422AF012B3FF61FAF01202D
:1029E000FFF776FA00287FF419AF1EB103A9012082
:1029F000FFF7E4FD0020FFF735FB002E3FF415AF95
:102A000003A90220FFF7DAFD0FE703A90320B1466F
:102A1000FFF7D4FD09E7B4F807300133A4F8073015
:102A200021E700BF711E000091260000851F0000F5
:102A3000A11D00002DE9F04F04461E4600230D465F
:102A400090462DED028B8BB090F87570069310F0C8
:102A500048F994F8C8310B2B04D940F2FB31062019
:102A6000FDF7D2FE874A32F813B094F88F308344D2
:102A7000442B1FFA8BFB3DD00E2B94F88E2039D0BF
:102A8000443A53425341039388F001030493B8F14D
:102A9000000F5FD194F80C32032B5BD1039B002B0A
:102AA00058D0B4F8A032AB4254D1D4F814322046F6
:102AB000B4F8E42141F64B59C4F80032E369C4F894
:102AC0000432B4F85A321344C4F8083208F080F8DB
:102AD000D4F8A83294F8B4224B458CBF4FF00009CB
:102AE0004FF0010942B9E26993421BD0208812F0ED
:102AF00008FD17E00123C6E7208812F0FFFC18B993
:102B000040F23E713020ABE7B4F8B032C146638684
:102B1000B4F8B2328381B4F8A032A0F80E804381B9
:102B2000013B038294F87E30002B41D1B9F1000FB4
:102B300041D1D4F8A43284F87E90E362B4F8A23292
:102B40002386D4F8A832E361D4F8AC32636202235E
:102B500084F80C32B4F858A204F50A73B4F88890DB
:102B6000A5EB0A0A08EE103AA5EB0909DFF818816F
:102B70000FFA8AF30FFA89F9002BB8BFD4E9902332
:102B800094F80CA2ACBF3246C4E994235FFA8AFAE7
:102B9000BFBF0023012284F823324B46BAF1030F52
:102BA00000F2CE81DFE81AF013002F0172004F010E
:102BB000B9F1000F05D04FF04D1363630023238755
:102BC000B7E74FF09613A4F838906363B1E794F831
:102BD000751094F8DE0110F095FA0746E06A594640
:102BE00038440AF081FE5946C4F81002E0690AF040
:102BF0007BFE94F87E3007A9002B18BF4FF0020A25
:102C00005044C4F8140208A809F042FA079BD4E91A
:102C100094010093DDE9082313F0C9FF81462046A3
:102C20000DF03CFBD4F85C3294F87500D4F82CA07D
:102C3000069309F073FB069B00F52240D4F81012AE
:102C4000BB3BB1309A444FF47A73AAEB010A30319E
:102C5000B0FBF3F05744238EA7EB090703EB4101C8
:102C60003F1A94F8750006970DF025FBD4F85C2206
:102C7000069BC8F800009B1ACC2B66D840F2DE41B8
:102C800040E700BFF8CA03002C150020E36A59464C
:102C9000D4F8040218440AF027FE5946C4F810027A
:102CA000E0690AF021FE94F87E30002B08BF4FF057
:102CB000000A5044C4F8140220460DF0EFFAB4F8AC
:102CC000E431E76AD4F804A2002B40F09780002E8C
:102CD00000F0948094F87500574409F01FFB00F54C
:102CE0002240D4F810324FF47A7BB130BB3FB0FBB6
:102CF000FBF9FF1A94F87500D4F848321F44C31E3C
:102D0000D4E99012012BA7EB010774D909F006FB57
:102D100000F2E730B0FBFBFBA7EB09075F44D4F8F8
:102D20001012D4F80032D4F80822303194F875002B
:102D300002FB0311238E069703EB41010DF0BBFA52
:102D40000123C8F8000084F80C32E7694FF000094D
:102D5000D4F8143204F13C00A7F5A277069984F860
:102D60002892FF1AD8F800309F4228BF1F46D4E9A6
:102D70009432C4F8E0715B1842F10002C4E98E326B
:102D800010F0BEFE3844A4F85852C4F82C02D4E91E
:102D90008E23C4E9942307F009F920B1D4F82C322A
:102DA0001E33C4F82C32B4F8D01184F830924D1B85
:102DB0002DB2002DC4BF022384F83032039B002BB8
:102DC00040F0C180002E40F0BF8094F80C32002B00
:102DD00000F0D780E16918EE100AD4F81432C91A4D
:102DE00010F038F980B2002800F0CB80169B03B1B8
:102DF00018800120D5E04FF03E0B8DE75744D4F802
:102E00001032FF1A8BE7D4F81422E169D4F8087263
:102E1000891AD4F800024B43218E0693B4F8E431AA
:102E20009944FB439944D4F81032303300FB073304
:102E300094F8750002FB093301EB43010DF03BFAF6
:102E4000C8F8000081E7E0695843069056B3B4F82B
:102E5000E41139BB84F82312D4F8141201FB130ACD
:102E600094F88E30262BCDF818A003D094F88F302C
:102E7000262B09D1B4F8A032EB1A1B0404D494F821
:102E8000A332002B18BF1F46D2B3B4F8E431BBBB4A
:102E9000D4E99023D4E9920182428B4108D340F2D5
:102EA00032512FE694F8231200297FF44EAFD3E776
:102EB00094F87500C31E012B3DD909F02FFA00F5D7
:102EC00022404FF47A7BB130B0FBFBF000F1AB0B4A
:102ED000D4F8483294F87500103BD4E990125A1A8D
:102EE000C31E012B924429D909F018FA4FF47A73C2
:102EF00000F2E730B0FBF3F0AAEB0B0A5044069067
:102F0000B4F8E4113846D4F8143249445943303106
:102F1000490005910DF0CFF9244A94F87E300599C7
:102F20001060002B3FF411AF06ABE06910F007F919
:102F300084F8230209E74FF4897BC9E73E20DBE7E9
:102F400040F24A51DEE5E6B1B4F8F81119B3B4F82D
:102F5000FA2194F8FC31501CA4F8FA2102FB033347
:102F600099420EDD94F830325BB10023A4F8FA01E7
:102F700084F8303204F0C4FA00F00700013084F81D
:102F8000FC0118EE101A94F824020BF0B1FC20B9E1
:102F900040F29351B6E50A46DBE7049B84F8203201
:102FA00000200BB0BDEC028BBDE8F08F2C1500208B
:102FB000F0B5044685B018B9AA213020FDF724FCED
:102FC000072900F20681DFE811F0080045004500FE
:102FD00040000401F000F800020190F8203253B3E1
:102FE000B0F81E32B0F8882093421ED1B0F8D42138
:102FF000D31AA0F88820A0F8D6312046D4E98E2331
:10300000C4E9902307F004FD94F8DB31002B00F0B5
:10301000CA8012F01AF9704B1B68002B00F0C380B5
:10302000204605B0BDE8F04018479A1AA0F8D6210E
:10303000A4F88830E1E7B0F81C32B0F888209B1A79
:10304000A0F8D631B0F81C32F2E705B0BDE8F04088
:1030500009F02AB813F03CFDD4E99023801A61EB03
:103060000301012871F1000302DA40F21E61A4E7B6
:103070006FF0010383424FF000038B4102DA40F20C
:103080001F619AE7E5690DB1B0FBF5F594F88F3053
:10309000442B14D094F88E20442A0AD00E2B08D04A
:1030A000A2F1430672427241B4F81E12B4F888309D
:1030B0003AB1B4F81E320133A4F81E3214E00122F2
:1030C000F2E72B449BB2CA1A150454BF4B1C0133C0
:1030D0009BB2A4F81E3294F821322BB9B4F81E2208
:1030E000B4F8D4319342E6D0B4F85A3202AEB4F810
:1030F00088500133394FA4F85A32B4F8C2301D4415
:10310000B4F8C030013DED1AADB23B685BB1B4F824
:103110001E1200222046013989B29847B4F81E32A7
:103120001844A4F81E02B4F81E126B1A18041ED418
:103130000023204600961A46FFF77CFC98B301282E
:1031400012D1B4F81E22B4F8D011BDF808301344DF
:10315000521A12049BB204D5EA1A12F4004F18BF97
:103160000B46A4F81E32D0E740F2766125E794F8CA
:10317000923030460394002B0CBF3E23082384F882
:10318000B13001238DF8083004F06CFD204612F0B8
:103190005EF8002394F8240284F80C320BF030FB24
:1031A000202384F8243205B0F0BD01200AF014FD7C
:1031B00005B0BDE8F0400DF05CB890F80C32042B7F
:1031C00001D0D021F9E6002380F80C32EBE7D621BC
:1031D000F3E6DA21F1E600BFBC000020C4000020C5
:1031E0002DE9F04104460E46154690F8383103F0BB
:1031F000FF071BB10C273846BDE8F08101464B485C
:103200000BF0D8FA20288046F4D05822394604F52D
:10321000887013F055FE84F81081C4F81461FF2300
:1032200084F8383136B104F083F900F0070001303A
:1032300086F8FC0102234FF00008A4F8483184F816
:1032400040810AF0A7FB493086B2204611F02AFEE1
:103250000146D8B30FF045FD00F5CD6081B2284698
:103260000AF042FB2844C4F8440113F031FC301842
:103270004FF00106A4F8268041F1000184F818619E
:10328000C4E95401204611F023FED0B1A5F2AA45AD
:103290003146204611F087FD2D1AC4F81C514FF01D
:1032A000FF326FF00043C4E9562304F5A07194F88F
:1032B00010010BF01DFB70BB40F2CD113020FDF76B
:1032C000A3FA3046AE3D11F0D6FEE5E72046DFF822
:1032D000608011F068FDAE30C4F84401B8F8040015
:1032E00048B1E08C38B104F023F9B8F80430B0FBF1
:1032F000F3F202FB1300064413F0EAFB361841F127
:103300000001C4E95461002DC9D0AE1941F100019A
:10331000C4E95661C9E7D4E9542300212046C4E931
:103320004A23C4E94C2311F009FE64E78503010038
:103330002C150020F0B5002385B0CDE90033032320
:103340008DF806306846FEF787FA88B11F4E0123D4
:103350000027B3710223CDE902778DF80E3002A861
:10336000FEF77AFA0546C8B10023B37105B0F0BD87
:1033700000980DF0EEF8E5E790F824020BF0ACFBB6
:1033800094F824020BF09AFD94F8240284F80C526D
:103390000BF036FA202384F82432DBE7029B002B63
:1033A000DDD093F82422202AD9D018884FF6FF7355
:1033B0009842D9D00221FEF715FA04460028DBD145
:1033C0004FF49B713020FDF71FFA00BF2C15002031
:1033D000044B0022DA719A7142F210729A80FFF760
:1033E000A9BF00BF2C150020014BD871704700BF4A
:1033F0002C15002008B508F0B5FA044B9A688242F3
:103400002ABF9879002080F0010008BD2C1500200B
:10341000F0B5044685B090F8DB3103F0FF05002BD2
:103420006ED190F80C32032B6AD113F051FBD4E922
:103430009023801A61EB0301012871F100035FDB27
:103440006FF00103834275EB010304DA40F2C751C8
:103450003020FDF7D9F9E269B4F888300AB1B0FB41
:10346000F2F2013313449BB2A4F81C32B4F8D43105
:10347000B4F81C229B1A1BB2002B41DD94F82402E5
:103480000BF02AFB00283BD0FF2384F82132B4F84C
:10349000C2300DF10E07B4F888501A4E1D44B4F82E
:1034A000C030013DED1AADB2336863B1B4F81C12FF
:1034B00000222046013989B29847B4F81C321844DA
:1034C00080B2A4F81C02B4F81C32EB1A1B0417D407
:1034D000B4F81C1200230122204689B20097FFF79E
:1034E000A9FA68B1012808D1B4F81C32BDF80E2041
:1034F00013449BB2A4F81C32D6E740F20E61A7E752
:1035000005B0F0BDC40000202DE9F74304460629AC
:1035100000F2A480DFE801F0042714242B309D0082
:10352000504B9B7903F0FF0253B900920123B0F88E
:10353000D411FFF77FFA30B140F2DC61302031E086
:10354000042384F80C3208F025FC0BF04BF8002320
:10355000B4F88820A4F85A32A4F81E2284F8213244
:1035600003B0BDE8F083032380F80C32F8E712F0D3
:1035700023F8C4E99201F3E73B4B1B681BB10246F9
:10358000D0E99201984713212088FEF72BF90028F3
:103590005DD094F87530022B57D005D8012B08D098
:1035A000CD21B420FDF730F9033B012BF8D81E30B4
:1035B00000E00A30858894F87530D4F81422033B73
:1035C000DFF8A090012BE36994BF2827002707F5B7
:1035D0008077AF4234BFED1B0025A9188B428ABF0C
:1035E0009B1A00255D1B99F807301BB9E36B9D42C0
:1035F00028BF1D46D4F8E06104F13C0010F080FAC9
:1036000006EB000802200BF0B5FB0221A5EB080633
:1036100026EAE676864228BF064630460BF0F0FBE7
:1036200000B9B04401233A464146204610F0F1FA71
:10363000D4F8E031C9F80800E06918440BF06CFBDD
:1036400000288DD140F28A3178E71430B2E7962510
:10365000B1E703B0BDE8F0430CF020BE4FF4F361D6
:103660006CE700BF2C150020C0000020012A70B5B7
:1036700005460C46164615D0022A18D042BB08F063
:1036800071F93246014620460CF033FF2A461249B2
:1036900094F810010AF090FA40B940F2AB71302072
:1036A000FDF7B2F808F05EF9C5F85C0270BDD0F81D
:1036B0005C12012220460CF01CFF2A46064994F8B1
:1036C00010010AF079FA0028F0D140F2BC71E6E767
:1036D00040F2C271E3E700BFB12F0000014B9880B8
:1036E000704700BF2C150020343270B5054692B2E9
:1036F0000C461E460CF000FC25B1034A55601474BC
:103700005674147070BD00BF50150020014B187026
:10371000704700BF51000020014B5870704700BF38
:103720006815002010B5104C206820B1616812F0B7
:103730003DF800232360A3680BB10023A36094F835
:103740002030022B03D194F82430DB0706D508F093
:10375000C5FA002384F8203007F094FDA36A94F89A
:103760002400BDE810401847701500200123F0B573
:10377000564C85B084F82C30236B1B7AFBB1616BFF
:1037800094F8382091F8D830101E03F1FF3318BF99
:103790000120022ADBB234BF0122022284F8600039
:1037A000032BD1E93201C4E9140159D8009204F184
:1037B0004001474A0420D35CFB2207F013FC636BF3
:1037C000FF2093F8D81008F011F994F86830032B13
:1037D0004BD10023E56EA36094F838306E78012B4E
:1037E0005BD8314628780CF076FF6368C0F3C002DE
:1037F000ADF80C0093F8A03003F0010161F38200F2
:103800004306C7B28DF80C0058BF636B9DF80D00DE
:1038100058BF93F8C830687058BF03F0010207F032
:103820005003C7F301073B4343EA810343EAC20362
:103830002B70236B1B7A002B3AD0002E38D0206FD0
:1038400008F02EFB0022216F284608F06FFD0028AB
:103850003AD12946206F05B0BDE8F04007F02ABCF8
:103860004FF48E610620FCF7CFFF012B616B94F8BB
:10387000380009D1097F08F0CDFEA060A56855B9D0
:1038800040F291114720EEE700900846D1E932233B
:1038900008F0DAFEF1E720359EE794F86830284614
:1038A000032B02D107F07EFAC3E707F05DFAC0E709
:1038B000284608F0F5FA07F0E5FC0021284605B097
:1038C000BDE8F04011F0A2BE05B0F0BD70150020BB
:1038D00080CB03002DE9F7430F460646804CA0B984
:1038E00094F86830032B14BF62684026646F1EBFD3
:1038F000D36E0133D36608F03DF801463046A04749
:1039000003B0BDE8F043FFF70DBF2368002B36D0AE
:10391000203394F838205978012A32D818780CF0DE
:10392000DAFE6368C0F3C002C0F3801993F8A030D8
:10393000ADF8040003F001039A42636B93F8C8806A
:103940000CBF0126002688EA900000F001083FD055
:10395000B9F1000F0CBF88250825236B1B7ACBB368
:10396000B9F1000F36D1A9B3A6B307F099FC88BB13
:1039700094F8243043F0030384F82430C0E7E36E66
:10398000C7E7022A21D19DF804201B7822F03F02CC
:1039900003F03F03134394F86820032A8DF80430A2
:1039A00008D103F00303032B0DD094F8243043F027
:1039B0000103E1E713F0200F0CBF08250C254FF0A1
:1039C0000008C146C9E74825F9E74FF00008C1469D
:1039D0000825C2E794F8383013F0FD0F03D111F039
:1039E000EBFDC4E91E0107F0C5FF15F040030146D9
:1039F00003D0636F2846984782E7B9F1000F32D1B0
:103A000066B3206818B3D4F8802045F01005A36F82
:103A1000B14613EB020CE36F43EBE272B4F884306F
:103A2000003B18BF0123C0E904C20376B8F1000FC0
:103A300001D045F02005636F28469847B9F1000F83
:103A400027D023688BB9A3214720FCF7DDFE6368EC
:103A50001B6E002BEAD145F01005E7E76268536F53
:103A600001335367E2E79946E0E700216268197085
:103A700059709970D970D16BB9B9D363136492F846
:103A8000393023B96068174931300FF0ADFF00239A
:103A90002360002F89D194F838304BB1013B012BC2
:103AA0007FF62EAF4FF43371CEE7116C0B60E5E774
:103AB000FFF75CFE94F82050012D0DD107F05AFF5E
:103AC000E16802232A460144074884F8203003B005
:103AD000BDE8F04308F0BEBA03B0BDE8F08300BF14
:103AE000701500206B58010080150020D3B502230B
:103AF0003A4C94F8681084F82C30236B03291A7A16
:103B000008BF0820636818BF987F0AB10430C0B2AC
:103B100093F8B01007F06AFF236B1B7A23B3206F72
:103B200008F0BEF994F838104B1E18BF012384F832
:103B3000603063689A7FD3E9286793F8B0301B2A16
:103B400003F1FF3338BF1B220229DBB234BF01214E
:103B50000221032BC4E9146730D8009102202049C8
:103B6000CB5C204907F03EFA94F86830023B012B09
:103B700029D9606811F00DFE2060206830B36368B9
:103B80002030D3E9282340E90623236B1B7AFBB1BD
:103B9000216F07F08FFA94F8383003F0FD03012B02
:103BA00019D1636893F8B030033B012B94BF2820F0
:103BB000002002B0BDE8D04008F0B8B94FF48E61E3
:103BC0000620FCF721FE00232360D6E7E06EDCE749
:103BD00008F066F9DFE702B0D0BD00BF7015002025
:103BE00080CB0300B015002073B5264C054694F831
:103BF0006830032B04D102B0BDE87040FFF792BDDE
:103C0000A26822B94FF439714720FCF7FDFD012B62
:103C10000CD0D4F88830606BD4E91E2100F1C806BE
:103C20009A18009641EBE37312F03FFC0023A36067
:103C300035B194F8243043F0010384F82430DAE7F6
:103C400094F83830002BD6D0032BD4D0012B13D1CD
:103C5000FFF74CFF94F82030012B10D107F0A2FEA3
:103C6000E16802232A460144074884F8203002B064
:103C7000BDE8704008F0EEB94FF44171C4E702B0FE
:103C800070BD00BF7015002080150020034AD2F8D7
:103C900088301844C2F88800704700BF70150020B3
:103CA000044B054AC3F88C200022C3E91B0183F8AA
:103CB0002020704770150020943E0000034B586789
:103CC000D3F88C00996208F0D5B800BF70150020B9
:103CD000024B002283F82020704700BF701500209F
:103CE0002DE9F3410D9F1546404C0C9A6760C4F8CE
:103CF00080300E9F089B6763C4F88830BDF824703D
:103D00009DF82830A4F88470002784F86830137A6E
:103D10000F9E94F820E084F83850226384F82470D1
:103D2000C4E91E01A3B106F1100304F1400C06F131
:103D300020081868083353F8041C6746434503C736
:103D4000BC46F6D11168336A4B40A365736AE365DC
:103D5000BEF1020F05D1032D3FD8DFE805F02D3B62
:103D60002D3B106807F008FF9DF82C0007F00EFFB0
:103D7000236B586808F078F8636B93F9D90007F063
:103D8000F5FE94F8383003F0FD03012B0DBF636B93
:103D90000120636800200CBF93F8D83093F8B0304E
:103DA000D4E91E67009332463B4611F00FFC002811
:103DB000D1D102B0BDE8F081FFF798FE94F8380049
:103DC000012805D870B1636893F8B01008F00EF9B7
:103DD0000120EEE7FFF7CAFCF0E74FF458714720E7
:103DE000FCF712FD636B93F8D810EFE77015002015
:103DF000074B002283F8202093F82C20022A06D1BA
:103E0000D3E91E21801841F1000111F0ECBB70478D
:103E100070150020044A92F8243043F0010382F820
:103E20002430FFF77FBC00BF7015002070B50B4C2D
:103E30009D7F266B367A0EB10435EDB293F8B03023
:103E40005668126863760023217623770123658301
:103E5000E06084F82030C4E9042670BD70150020AD
:103E6000F0B5157A9C7B0DB10434E4B2576893F831
:103E7000D860126893F9D950054BC3E90427012291
:103E800019765E765C831D77D86083F82020F0BDBC
:103E900070150020D3060100D5380000E93B000072
:103EA000EF0601000138C0B2032808B504D940F27A
:103EB00049310620FCF7A8FC014B185C08BD00BF87
:103EC000A4CB03000138C0B2032808B504D940F2DE
:103ED00049310620FCF798FC014B185C08BD00BF77
:103EE00040CC03000138C0B2032808B504D940F221
:103EF00049310620FCF788FC014B185C08BD00BF67
:103F0000BCCC03000138C0B2032808B504D940F284
:103F100049310620FCF778FC014B185C08BD00BF56
:103F2000CCCD0300F8B50C46074618B9E1211A209C
:103F3000FCF76AFC25230B706FF4F973C518437AFC
:103F4000CB70B5F8B0318B8095F898314B7295F8FD
:103F500099318B7295F89A31CB7295F8B5310B7512
:103F60000821B5F8AE01FDF73DFC95F8FC31064699
:103F7000002B40F0AD8008B9F521D8E7D5F8BC207A
:103F80006B6990F800E05FFA82FCD8B2C3F30F21AE
:103F9000C2F30F27C3F30743C2F30742BEF1000F7A
:103FA0005DD1A373617384F80FC0627420732774AA
:103FB00095F8B000FFF776FFA07495F89001FFF731
:103FC00071FFE074EB7F637595F8C730A375AB7F25
:103FD000A4F8193095F8C630A4F81B30AB8B638475
:103FE000B5F8C430A38495F8243084F8263095F8C9
:103FF000253084F8273095F8263084F8283095F855
:10400000CC3084F8293095F8CD3084F82A3095F8F2
:10401000CE3084F82B3040F2E242337CA371737CC3
:10402000E371B37C2372737DE375B37D237673688C
:10403000B3FBF2F3A4F81D3095F89C31E37795F8C3
:104040009D3184F8203095F89E3184F8213095F820
:104050002C3084F82C30012385F86331F8BD63746B
:1040600084F80CC0A27321746773E07395F8900113
:10407000FFF718FFA07495F8B000FFF713FFE07486
:1040800095F8C7306375EB7FA37595F8C630A4F833
:104090001930AB7FA4F81B30B5F8C4306384AB8B08
:1040A000A38495F8CC3084F8263095F8CD3084F888
:1040B000273095F8CE3084F8283095F8243084F8ED
:1040C000293095F8253084F82A3095F82630A0E775
:1040D00078B10378012B0CD117F8033C4BB11623B0
:1040E000074907F10A0085F806320FF07AFC4423ED
:1040F000E37029463046BDE8F8400CF072BB00BFC3
:1041000083080100054B98429FBF00F53470044BB3
:104110001860002088BF1220704700BF00093D00D2
:1041200054000020014B1860704700BF00160020AB
:10413000F8B5224D2E683778002F3CD1D6E91023F0
:10414000D6E91446121B63EB0603141843F100036F
:10415000012C73F1000204DA4FF4A4714220FCF741
:1041600053FB4FF0FF32A24277EB030302DA40F237
:104170004911F3E7D9B90EF0B4FD2B6893F862301A
:104180000B2B03D940F2FB310620E8E70C4A10263E
:1041900032F813100144204689B209F0A5FB3044DF
:1041A0002B685B685B08984228BF1846F8BD32212F
:1041B00002260846EEE70020F2E700BF04160020C2
:1041C000A8CB03002DE9F0410F4686B0054609F063
:1041D00013FD97F8C7300446FA7F0021D7F89C8179
:1041E0006846934238BF1346264A013B126808FBD3
:1041F00003F3D66E1822B34238BFF61A12F060FEEF
:104200008DF8084006F1F00301932B78012B18D1AB
:1042100006F5AF7601960AF003FBD7F89C31181823
:1042200041F10001CDE90401019B694695F82400A4
:10423000AB630AF05DFBF0B940F2EE514220FCF7AF
:10424000E3FA2C7F002108FB04F42046FFF770FFFF
:10425000D5E91023A41800F1A50200F13E0043F1B6
:104260000003A41A63F10003CDE90443019B03EBAF
:1042700040000190D8E707F08DFD0AF0B3F906B0D1
:10428000BDE8F081041600202DE9F04104460E46F9
:1042900020073ED5384D0123A8682B716B7190F82B
:1042A000C831022B09D10323344900F2F31000F87E
:1042B0002B3C002343720FF094FB0AF0B1FAAF6875
:1042C00042F2107C0023B7F8B6E13246D5F8008000
:1042D000EEFB0C23101843EB0101C7E9760198F8B7
:1042E000003083B940460CF0ABFED7F89C2198F81B
:1042F0001C3031465343D7F898219A1A024408F1EA
:10430000200010F0AAF921065EBFAB68012283F8F5
:10431000C921E2060CD5184DA868C17FA0300DF068
:1043200048F8AA68002382F8C931126E0AB32B73C9
:10433000A3061CD5104CA068D0E9626590F8C710A0
:1043400000F5C0700DF035F823681A784AB9A268F4
:10435000D2E962128E4275EB020202D25868FFF770
:1043600095FCA268D2F87031013BC2F87031BDE80B
:10437000F0810123DBE700BF04160020253F000089
:1043800038B50446154608465AB9032304F2F3101B
:1043900084F8C83184F8FC510949BDE838400FF071
:1043A00020BB0B7853B904F21121743012F012FCC7
:1043B00020B940F2AD414220FCF726FA0023E5E7A0
:1043C000253F000010B50446006807292CD8DFE817
:1043D00001F00414140A2B102328154B1B68BDE8A8
:1043E00010409B681847124B1B685B69BDE8104082
:1043F00018470F4B1B681B69F8E70023037710F879
:10440000201B29B904F092F8638A013B638210BD36
:10441000194604F067F8F7E740F2BC514220FCF778
:10442000F3F940F2BF51F9E740F2C251F6E700BF9D
:10443000C80000203B4B2DE9F0411E6807469C68F0
:10444000337E357F012B3ED14FF0000835E0D4F8A4
:104450001142E4B16FF404710C44204631460CF073
:10446000CBFD0CF0E0FD40B3F5B9B6F93230B4F94C
:10447000D211728E5B1AA4F8D2219BB2D4E97821B2
:10448000D31841F10001C4E978313D7018E0B8F16A
:10449000000F14D10135746FEDB284B16FF4047262
:1044A0004FF001081444D8E7317820460CF082FD23
:1044B00018B194F8B531AB42E7D8002CC7D100242D
:1044C0002046BDE8F081013594F8B531EDB2AB423C
:1044D00005D9317820460CF06DFD0028D5D1D4F8EF
:1044E0001142002CEBD06FF4047331461C4420467B
:1044F0000CF082FD0CF097FD0028F0D0B6F93230B8
:10450000B4F9D211728E5B1AA4F8D2219BB2D4E90D
:104510007821D31841F10001C4E9783100233B70C0
:10452000CEE700BF0416002070B50E46B0B191F87A
:1045300090210C4B91F8B00003EB82039D6907F0CA
:10454000EDFE45352C18304604F2E7340CF09AFDA8
:104550004FF47A73B4FBF3F4204470BD4CF2620460
:10456000F1E700BFA8CB03002DE9F04FBA4D044698
:1045700091B088462F68A86038460CF061FDD4F8E9
:104580009C613B7F7343D4F898619B1B1E182046A7
:104590000CF078FD2B693044984207D9B8F1000F30
:1045A00004D10027384611B0BDE8F08F3978224693
:1045B0000CA80CF050FD2B68DDF8348020461A7FE3
:1045C00008F196010CF0A6FC0F210890B4F8AC019C
:1045D000FDF708F90746002861D094F8900106F02D
:1045E000E9FB07EB4000437E84F8913104F1A00120
:1045F0002B68204604F1B8091B7F009394F8213002
:10460000E27F0CF0EEFE2B6894F8C77004F5C071E1
:104610001B7F3A4628730093204694F8C9300CF06B
:10462000E0FE4846D4E978320133A3FB071342F198
:10463000000207FB02334A1E63F1000311F032FF50
:10464000E17F49B1D4E92A13D4E97802884272EBB8
:1046500003032CBF0121002194F8C7204AB1D4E9FB
:104660007872D4E96203874272EB03032CBF012204
:1046700000222868D4F89C3190F81CC003FB0CFC85
:10468000002900F0C180D4F8E031D4F8A870DB1B19
:10469000FF2B07D940F2F3114220FCF7B5F898F848
:1046A0007C30A1E7476807FB03C3C3F1000A002A77
:1046B00000F0AC80D4F8E071D4F88831A7EB030E99
:1046C000BEF1FF0FE6D8D4F898310769DF1BA7EBDE
:1046D0000C0C476807FB1EC700236B71002900F014
:1046E0009E8082F00103297930460993FFF720FD6F
:1046F00029688346099B0A78012A40F0928094F841
:1047000090C1564800EB8C004FF47A7C806900F52C
:10471000FA70B0FBFCF0D1E910C11CF16E0C41F154
:10472000000110EB0C0041F10001801941F1000182
:10473000059404F5DC7408F1E8080494089CCDE9BC
:10474000023400245346CDE90074CDE90698FFF702
:10475000C7FA074600283FF424AF2B681B78012BCB
:1047600069D0AC6894F8B00007F0D0FD94F8B020A0
:104770003A4B03EB82034FF47A729B6B03F2E733FD
:10478000B3FBF2F303EB4B0B5844FFF731FB0DF196
:104790002F00FFF74FFE804600283FF403AF2C6840
:1047A0009DF82F9020460CF04BFCD8F89C3103FB71
:1047B00009F9D8F89831A9EB0309814440460CF077
:1047C00061FC2B69484498423FF6ECAE42462178A2
:1047D0000EA8C5F814800CF03EFC0F999DF82F2010
:1047E00040469631A9EB06060CF094FB2B688146F7
:1047F00008F5DC721B78012B1FD1014608F1B803C4
:104800003046FFF72DFBCDE68A4650E7036947683F
:10481000FF1AD4F898313B44A3EB0C075CE7022362
:1048200061E7D1E91001301841F10001B0EB0B0054
:1048300061F100017CE72046A7E764213046089239
:1048400009F052F8841C4346089A4946A4B2301B2A
:10485000FFF7ECFAA6E600BF04160020A8CB030081
:1048600010F0020F2DE9F047474E86B003D0B36831
:104870003D2283F8F1213768B46897F81C9094F8CA
:10488000B53109F1010296F80C809A4209D13B78C2
:104890003BB994F8623123B9D4F878310133C4F8C4
:1048A0007831C30705D5384606B0BDE8F0470CF0AF
:1048B000EEBA0DF11700FFF7BDFD9DF81730054664
:1048C00007F120003B770FF012FF824600284DD001
:1048D000B8F1000F0BD094F8393043B92B4904F1EB
:1048E0003100D4E92823C4E902230FF07DF8002D1C
:1048F00041D094F8B5314A46D4E96078029394F8EF
:10490000C730019394F8C930009304F5C073D4E91B
:1049100078010CF01CFD10B1013748F100083A464F
:10492000434604F1B80007F0E7FEBAF1000F03D0E8
:1049300029463068FFF746FC06B0BDE8F08773698A
:10494000AB4201D173791BB9FFF7C2F907F0C6F981
:1049500000212846FFF708FE88B90DF11700FFF780
:1049600069FD33689DF8172005461A77002DE6D1BA
:10497000B8F1000FAFD130680CF089FADCE7B8F17C
:10498000000FB6D0A7E700BF041600206B58010047
:104990002DE9F74F0B6980460E46D1F8149001932C
:1049A0000CF04EFBD8F87440054614B16FF4047057
:1049B000044400220127DFF848B192468CB9002F49
:1049C00040F09A8098F80010002940F09580404609
:1049D00001920CF035FB281A019A7BD54FF4B06197
:1049E0004AE094F8C81103296FD8DFE801F00F02FC
:1049F000172A94F8F11101F0FF00002959D094F81A
:104A0000F12141462046FFF7BBFC0122D4F81142B8
:104A1000002CD4D06FF404731C44CFE7D4F8D43105
:104A200094F8F11101F0FF0C0029E8D1D4E97810D5
:104A3000013140F10000994270F1000348D33E2259
:104A4000DFE7D4E97601019B834279EB010316D3BA
:104A500094F8F1217ABB082284F8C8A184F80622D0
:104A600098F800205ABB04F2112108F1740012F0EA
:104A7000B1F820BB40F2BF414220FBF7C5FED4F89D
:104A8000A41001F080000906E2D4D4F8841101F0EA
:104A9000800150EA0103DBD1D4F8E40100F080008A
:104AA00051EA0003D4D194F8F11101F0FF0000297C
:104AB000CED10746AAE794F8F121D2B2CCE7594605
:104AC00004F2FD100EF08DFF9FE74FF4AE61D3E7C7
:104AD00067469BE7D8F81010884202D340F2815114
:104AE000CAE7D6E90415091845EBE075C6E90415CF
:104AF00012B140460CF0DDFA384603B0BDE8F08F45
:104B0000830801002DE9F3410023444E0546446F1C
:104B100030603371002C7FD06FF4047329461C443D
:104B200020460CF069FA0CF07EFA98B3B5F93230F1
:104B30002846B4F9D2116A8E5B1AA4F8D2219BB22E
:104B4000D4E97821D31841F10001C4E97831EB6E42
:104B500033610CF01AFB0746F8B9D6F80080022042
:104B60000AF008F90221D8E91B535B1B834228BFD6
:104B70000346192B1D4638BF192528460AF040F96F
:104B8000E8B93369D8F838002B4428443361C8F8B1
:104B9000380014E0D4F81142BCE705F120000FF012
:104BA000A1FD0028D9D13068037F43B920300FF030
:104BB0009EFD20B930681A4920300FF007FE06F03C
:104BC00071FFFFF785F817491748FFF777F839465F
:104BD0002046FFF7C9FCC0B90DF10700FFF72AFC1A
:104BE0009DF8073004463068037737B9002CEED1C2
:104BF00002B0BDE8F0410CF04AB9002CF8D02146D3
:104C000002B0BDE8F041FFF7DDBA3068203002B0F5
:104C1000BDE8F0410FF075BD2846E9E70416002015
:104C2000C54300006148000089420000014B024A70
:104C30001A607047C8000020484C0000014B1868FB
:104C4000704700BFC8000020C7110100590F0100C4
:104C5000054B0000110F01008B0E0100A9C00000E0
:104C6000914900002DE9F84F446806460D4694F836
:104C70008F70002F40F0458101F0FAFAC80740F12B
:104C80003E8104F51878284641460EF0B5FD94F8AB
:104C90009430002B40F0108194F89330002B40F0BA
:104CA0000B81B4F88850D4F81C9001F0EBFA94F81A
:104CB0006232022B02D81BB91E2503E1042BFBD163
:104CC000C0431842C2B240F0188194F86332022BFC
:104CD00000F20681002BEFD01A4240F00E8194F8CA
:104CE00065E20EF0C003C02B00F0078194F8693232
:104CF00094F8682242EA032294F86A3203F00F0320
:104D000042EA0342FE2A03D894F876321907D3D137
:104D100094F86C3294F86B0240EA032094F86D32F8
:104D200003F00F0340EA0340FE2804D894F87632DB
:104D300013F0F00FC0D1B4F86EA2BAF1000F40F03A
:104D4000D38094F876321B07B6D1B4F870120029DC
:104D500040F0CF8094F8763213F0F00FACD194F895
:104D6000723203F1FF3CBCF11E0FA5D894F874C257
:104D7000012B94F873B24BEA0C2B94F875C24BEAF2
:104D80000C4B02D0BBF5C87F96D3B4F879C240F281
:104D9000E24303FB0CF39B458EDA94F877B2BBF148
:104DA000000F89D094F878B2BBF1000F84D0ACF139
:104DB000040C40F67C4B1FFA8CFCDC453FF67CAFC4
:104DC0001EF0800F3DD194F876C21CF00F0F1AD060
:104DD000B3FBF2FE02FB1E32002A7FF46DAF94F8A3
:104DE00065B294F864220BF00F0B42EA0B22524496
:104DF000013A92FBFAF292B20EFB02F20CF00F0EA5
:104E000072453FF659AF1CF0F00F1AD0B3FBF0F229
:104E100000FB1233002B7FF44FAF94F8670294F835
:104E2000663200F00F0043EA00230B44013B93FB82
:104E3000F1F39BB2534394F87622B3EB121F3FF683
:104E40003BAF94F87C2294F87B3243EA022394F837
:104E50007D2243EA0243B3F5FA7FFFF42DAF994573
:104E60007FF62AAF94F87F1294F87E2242EA01225C
:104E700094F8801242EA014293423FF61DAFB4F823
:104E800081325D1B2DB2002DB8BF6D42ADB2B5F5BC
:104E9000804FBFF411AF2A231B4904F2CD2084F8C0
:104EA0008F300EF0A1FD30460EF01BFF0023A4F85A
:104EB00084323846BDE8F88F11F03CFF00287FF4BB
:104EC000F0AE252523220021404611F0F9FF1F23D3
:104ED00084F8125184F81331322384F88F30E2E7DA
:104EE000042B3FF4F9AEE7E6BAF1FB0F7FF62DAFE6
:104EF000E2E6FB297FF633AFDEE62025E2E71A255E
:104F0000E5E70127D5E700BF930B01002DE9FF413D
:104F10000546486800230C4601AA69468030CDE961
:104F200000330CF06FF920B94FF404711320FBF734
:104F30006BFC6368019FDE6903F13C08D7F8A03180
:104F4000013E9E4228BF1E460DF0CBFE636893F8DB
:104F5000C8210B2A03D940F2FB310620E7E71649A6
:104F600031F812100144D86989B208F0BDFC04463A
:104F700040460EF0C5FD0444D7F8A40102A9103440
:104F8000029B6400B44228BF3446844238BF0446C2
:104F9000284664F317030293019B8DF80B60C6F358
:104FA0000F26B3F8B231ADF80C60ADF80E300EF04C
:104FB00098FC04B0BDE8F081F4CB03002029F7B5DC
:104FC0000646154628D1476897F88F302C2B23D1F9
:104FD000002401AA694607F18000CDE900440CF0E5
:104FE00011F920B94FF40D711320FBF70DFC304679
:104FF00087F88F40A7F8CC400EF083FE019880F828
:10500000FC510DB180F8C84100F2F31003490EF0D5
:10501000E8FC002003B0F0BD0220FBE7253F0000C4
:1050200010B490F88F302A2B1BD190F8D532C3B929
:1050300090F88E32ABB9B0F884220139B0F8D6318D
:10504000C4691A440B1992B2B3FBF4F39A42A0F864
:10505000842206D3044900F286205DF8044B0EF04A
:10506000C3BC5DF8044B7047270901002DE9F04FE0
:1050700081468BB00846D9F8048098F88F302C2BE5
:1050800040F06D8106A90EF03EFC002305AA04A99C
:1050900008F18000CDE904330CF0B4F820B940F2F7
:1050A000A3311320FBF7B0FBB8F8883042F210723E
:1050B000BDF825000499C31A1BB2002BB8BF5B4290
:1050C0009BB2B3F5804FB8F8263038BF002702FBFB
:1050D00003F328BF1E27CB65002F40F01081BDF8D9
:1050E00020209DF82450DDE90543C4F8B8319DF82F
:1050F0001F3043EA0223BDF8222042EA05420B6139
:10510000A4F8B201C4F89821079AC87DC2F3170227
:10511000C4F8A8214A7D0093D1E901130BF0ABFE3E
:105120006061DDE904140B698A7DC87D0093CB685A
:1051300049680BF0A0FEB8F88830BDF82550D8F8C3
:105140001C20ED1AC4F8BC0086492CB245F3C035CA
:10515000A4FB024302FB0535079BC3F31703E418C6
:105160006FF07F4345F10005E31845F100029942D5
:1051700077EB0203DDE90403D8E992AB93F82C2026
:1051800038BF2027D3F8981190F815C04668002A38
:1051900045D082680A4406FB0C229A610269891A8A
:1051A00062EB020211EB0A014BEB0202091945EB1B
:1051B0000202C3E97A12002F40F0A180002D08DA24
:1051C000721E121BB2FBF6F291B206FB0144C3E958
:1051D000781720300FF023FA0546DDE90402002D90
:1051E00000F0A880D0F874E0BEF1000F1CD06FF47E
:1051F0000473D2F8986102F211210EEB030CDCF873
:1052000098319E4213D8DCF81152A5B355F8793C79
:105210006FF4047E9E42AE4438D8F446F3E70CF1B6
:10522000FF3206FB0212B8E740F2C62139E7C2F8A6
:1052300011E241670BF03DFFDDE90402436F5BB310
:1052400053F8793CD2F898619A1B944227D3F61A06
:1052500043682644B6FBF3F6B6B285B3203000218E
:105260000FF07CFA049B93F8240009F035FCC0B9D8
:1052700040F2FD3115E782F8115282F8125282F89D
:10528000135282F81452CCF81112D3E7C2F811521B
:105290000025CCF81112CDE740F2293101E70026B4
:1052A000DBE70498002352462030CDE9013350F863
:1052B0001C3C03FB164300935B4603F085F8049BFC
:1052C0005A8E01321644059AA2F8D4611A7E012A38
:1052D00015D05A6F3AB16FF404711068511828B99B
:1052E00040F20331DDE64FF44071DAE6D1F898215F
:1052F00050F8790CD1F89C11121A8A4217D3002465
:10530000484688F88F40A8F8CC400EF0FAFC57B118
:105310000598154980F8FC71274680F8C84100F2CD
:10532000F3100EF05EFB38460BB0BDE8F08F0122A3
:105330001A76E4E7436F02F21122136042670BF022
:10534000B8FE059B01220498A3F8D42120305246D0
:105350005B460094CDE9015503F036F8CFE702270C
:10536000E1E700BFFF869304253F000038B50446FF
:10537000013803281AD8481E032817D89DF81000B2
:105380000C4D0028697014BF02200020012921461D
:1053900043EA00031046AC70EB7014BF0A230023ED
:1053A0002A71AB72FCF74AFC002038BD6FF0150083
:1053B000FBE700BFB6060020084A537A50B143F01D
:1053C0000403002953724FF0000014BF0723002389
:1053D0005371704703F0FB03F3E700BFB6060020EC
:1053E0002DE9F0410F46063940F67A45BDF81880A0
:1053F00089B2BDF82460A9423ED8941FA4B2AC4241
:105400008CBF002401242546002837D11E49097984
:1054100069B15CB96FF450603918062906D86FF489
:1054200050615418062C8CBF00240124254605B376
:10543000974226D803FB0666B6F5FA7F21DCA8F171
:105440000A0340F676409BB283421AD810460CF00D
:105450004EF842F21073704303FB08F8B8EB400FAC
:105460000FD9BDF81C50BDF8200085428CBF002527
:1054700001252846BDE8F0810024C4E790F87D109E
:10548000C6E70025F5E700BF30160020304BF0B529
:10549000B0F868700C4611461A88B0F8666085B09E
:1054A00097425D8828BF1746964228BF16461B2E96
:1054B0002ED0B5F5A47F2DD040F6480301AA9D4219
:1054C00028BF1D460CF043F8BDF80A309F4228BFA4
:1054D0001F46BDF80C30AB42E78028BF2B46238126
:1054E000BDF806309E4228BF1E46BDF808309D42DA
:1054F000668028BF1D46A580FF232370E3881B3BE1
:105500009BB2E02B08D940F277613920FBF77CF998
:105510001B2FCED105B0F0BD63881B3B9BB2E02BA7
:1055200002D940F27961F0E7238940F64812A3F5E9
:10553000A4739BB2934202D940F27B61E5E7A38852
:10554000A3F5A4739BB29342E4D940F27D61DCE7FA
:10555000301600202DE9F341002304460E4617467D
:1055600000F10A08CDE900336846FCF775F908B187
:10557000002015E0009DA542F6D03046EB1C0BF054
:10558000B0FF3946AA780DF0F3FC0028ECD005F105
:105590000A036A7A4146607A0DF0EAFC0028E3D0FB
:1055A00002B0BDE8F0810000054A134692F82020C1
:1055B00053F8211B11F8030BC0F380100DF0D8BC79
:1055C000AC1B0020114BF7B59C7F0646DD7F1F8C7E
:1055D00014B900F057FE0446A5B900F053FE054685
:1055E00014B9092003B0F0BD0028FAD0304601A953
:1055F0008DF804408DF80550ADF806700DF07EFD75
:105600000020EFE7002CF1D1EBE700BFF41A0020F7
:1056100010B503210020FCF7E5F8044670B903211A
:10562000FCF7A2F8044620B940F291313920FBF78B
:10563000EBF8034B93F960100FF06FFB204610BDA1
:105640003016002038B50DF092FC002501F090F9DD
:10565000234C00F025FE0EF0A5F901F0DBFB02F073
:10566000D9FD01F0FFFB012000F0BEFD1D4B1E4ADD
:1056700029461D601D4BA4F854501A601B22DD837F
:105680009A80F9221D8483F822501D77184B2283BB
:105690005868184A1B8922601422E06104F1240032
:1056A0002384A576A580A57511F00AFC012342F29A
:1056B000107204F13A0084F8565084F8243084F8CB
:1056C0003930C4E90A220FF00FFF04F144000FF053
:1056D00030FF0022002384F87050C4E91A2338BD3B
:1056E00030160020CC00002003021B00F41A00201A
:1056F00040CC03001B004801064B41F64C521B21D5
:105700005A611974C3E9022241F288329A61FFF7A3
:1057100099BF00BFF41A002073B53B4D0446AB6837
:10572000C3633A4B1B79003B18BF012380F87D30DF
:10573000374BC3610AF044FF064600F099FD2B7C0D
:1057400010F0200FA4F8466084F84430314B0EBFAF
:105750001B22AA8869881B6814BFA4F86610A4F8E5
:105760006620A4F868201BB194F97C102088984723
:10577000294B1B6813B12949208898472046FFF719
:1057800021FF064650B102212088FCF741F800288D
:1057900036D040F224613920FBF736F801236386C6
:1057A0001F4B1B6813B10146208898471D4B1B688F
:1057B00013B10021208898471B4B1B680BB1208830
:1057C00098471A4B1B680BB120889847697804F1F9
:1057D0001400AB886A8801910333297803329BB2A5
:1057E000009192B204F11801FCF76EF8636913B9E5
:1057F00040F24E61CFE7A3691BB940F24F61CAE79F
:105800000926304602B070BDF41A00203016002080
:1058100000093D00DC000020D400002038160020E4
:10582000EC000020E0000020E4000020E800002060
:105830002DE9F34105460E460FF0B0FA002800F0BE
:10584000AF8028460FF02EFB30B1B6F80130013B97
:105850007F2B01D9122404E028460FF027FB20B942
:105860000C24204602B0BDE8F08128460AF0F4FE80
:105870000028F5D128460FF03AFA80460028EFD1EB
:10588000284603F091FB0028E4D042F21073B6F8EA
:105890000170F17828465F430FF0EFFA0421307869
:1058A000FBF7A0FF044606213078FBF79BFF002C96
:1058B00078D038B141F67D313920FAF7A5FF04469A
:1058C00090F8BD80414E3368002B6DD040342046A7
:1058D0000EF0E9FE002867D020460EF0A0FE00285A
:1058E00062D1B8F1000F08D0394B20461B689847A9
:1058F000002859D041F69131DEE7364942463368F7
:1059000020464969984700284ED041F69631D3E7A2
:1059100028460FF0C7FA40B902210DF10600FBF747
:10592000EBFE064658B90D249BE728460FF0CCFA4B
:105930000028F1D1284B1B79002BEDD18AE70021FB
:1059400001F0D6F9BDF806302846314633800FF015
:10595000E6FA28460FF0B8FAA8B9296A28460FF0E7
:10596000BDFA01463046FFF7D7FE044600287FF413
:1059700078AF3A4631462846FDF732FC044620B15E
:1059800041F6C23198E70121ECE7134BDB6D002BA8
:105990003FF467AF024606F591713046984760E7DD
:1059A00042245EE700288AD128460FF073FA0146A8
:1059B0000028ADD13A462846FDF712FC04460028DF
:1059C0003FF44FAF41F69F3176E700BFD000002093
:1059D000D8000020F41A002030160020024B1B686B
:1059E00003B118470C207047CC000020034B5A88A5
:1059F00002801B7883700020704700BFF41A0020DB
:105A00007FB5837806461A2B09D8042B05D90122C5
:105A100002FA03F3314A134205D112251AE0292B69
:105A200001D03B2BF9D13088B0F5706FF5D26946C3
:105A30000DF0ECFA88B9019B93F8202102F0FF05E4
:105A4000C2B9B27883F82121FF2283F82021684669
:105A50000DF081FF284604B070BD09213088FBF7A6
:105A6000C1FE0446002837D002A9B0F8AC010DF001
:105A7000CDFA08B10C25EDE70821B4F8AE01FBF72B
:105A8000B1FE20B940F691113920FAF7BDFE037836
:105A90001BB994F8C831032BECD1039B93F8362142
:105AA000002AE7D194F8F02102F0FF05002AE1D1A5
:105AB000B4F8B021A3F8382194F8B42183F83A213E
:105AC000027D83F83B21B27883F83C2184F8F021F1
:105AD000FF2283F83621BDE70225BBE7200038040A
:105AE0000188A1F11B039BB2E02B0CD8428844F241
:105AF0004810A2F5A4739BB2834204D8034B002044
:105B000019805A8070471220704700BF301600205D
:105B1000034B1A885B88028043800020704700BFD7
:105B20003016002038B50478427804F001038578F7
:105B300004F0020452EA030101D1112038BDBCB9BE
:105B4000002DFAD0002B08BF144601E000242546A2
:105B500020460BF0C1FD0028EFD028460BF0BCFD1D
:105B60000028EAD0054B00209C77DD771884E5E714
:105B7000002BEBD114461D46EAE700BFF41A0020C3
:105B800013B5008869460DF041FA18B10224204689
:105B900002B010BD68460BF05EFE0028F6D00198FA
:105BA00090F832310BB13A24F1E790F8DA3003F093
:105BB000FF04002BF7D190F8D1309B0706D1FF23CB
:105BC00080F8323168460DF0C6FEE0E70249D23077
:105BD0000DF010FFDBE700BFD54101002DE9FF41CB
:105BE000077804460E46EF2F04D91226304604B03B
:105BF000BDE8F081B0F80130ADF80C309DF90C2013
:105C00009DF80C30002AF0DB9DF80D209507ECD1B3
:105C1000D80660D4990603F0030259D5002AE4D1CE
:105C20001D0703D503F06703012BDED16378180746
:105C300011D42179E278E07942EA0122617942EADD
:105C40000142A17941EA0021207A41EA00418A42D9
:105C5000CBD81F2AC9D9627A013A062AC5D8A27AB6
:105C6000032AC2D813F0040102D1023A012A03D850
:105C7000E27A012AB9D811B9A27C032AB5D813F067
:105C80001001227D37D0012AAFD1237E012BACD861
:105C9000002940D06378D90703D500F047FA0028DF
:105CA00040D06378227D03F01803082B4AD1022AE2
